{
  "contractName": "ArtGeeNft",
  "abi": [
    {
      "inputs": [
        {
          "internalType": "contract IDigitalSource",
          "name": "_iDigitalSource",
          "type": "address"
        }
      ],
      "stateMutability": "nonpayable",
      "type": "constructor"
    },
    {
      "anonymous": false,
      "inputs": [
        {
          "indexed": true,
          "internalType": "address",
          "name": "owner",
          "type": "address"
        },
        {
          "indexed": true,
          "internalType": "address",
          "name": "approved",
          "type": "address"
        },
        {
          "indexed": true,
          "internalType": "uint256",
          "name": "tokenId",
          "type": "uint256"
        }
      ],
      "name": "Approval",
      "type": "event"
    },
    {
      "anonymous": false,
      "inputs": [
        {
          "indexed": true,
          "internalType": "address",
          "name": "owner",
          "type": "address"
        },
        {
          "indexed": true,
          "internalType": "address",
          "name": "operator",
          "type": "address"
        },
        {
          "indexed": false,
          "internalType": "bool",
          "name": "approved",
          "type": "bool"
        }
      ],
      "name": "ApprovalForAll",
      "type": "event"
    },
    {
      "anonymous": false,
      "inputs": [
        {
          "indexed": false,
          "internalType": "uint256",
          "name": "_artId",
          "type": "uint256"
        },
        {
          "indexed": false,
          "internalType": "address",
          "name": "_owner",
          "type": "address"
        },
        {
          "indexed": false,
          "internalType": "uint256",
          "name": "_tokenId",
          "type": "uint256"
        },
        {
          "indexed": false,
          "internalType": "uint256",
          "name": "_edition",
          "type": "uint256"
        },
        {
          "indexed": false,
          "internalType": "uint256",
          "name": "_totalEdition",
          "type": "uint256"
        },
        {
          "indexed": false,
          "internalType": "string",
          "name": "_uri",
          "type": "string"
        }
      ],
      "name": "CreateArt",
      "type": "event"
    },
    {
      "anonymous": false,
      "inputs": [
        {
          "indexed": true,
          "internalType": "address",
          "name": "previousOperator",
          "type": "address"
        },
        {
          "indexed": true,
          "internalType": "address",
          "name": "newOperator",
          "type": "address"
        }
      ],
      "name": "OperatorTransferred",
      "type": "event"
    },
    {
      "anonymous": false,
      "inputs": [
        {
          "indexed": true,
          "internalType": "address",
          "name": "previousOwner",
          "type": "address"
        },
        {
          "indexed": true,
          "internalType": "address",
          "name": "newOwner",
          "type": "address"
        }
      ],
      "name": "OwnershipTransferred",
      "type": "event"
    },
    {
      "anonymous": false,
      "inputs": [
        {
          "indexed": false,
          "internalType": "address",
          "name": "account",
          "type": "address"
        }
      ],
      "name": "Paused",
      "type": "event"
    },
    {
      "anonymous": false,
      "inputs": [
        {
          "indexed": true,
          "internalType": "address",
          "name": "from",
          "type": "address"
        },
        {
          "indexed": true,
          "internalType": "address",
          "name": "to",
          "type": "address"
        },
        {
          "indexed": true,
          "internalType": "uint256",
          "name": "tokenId",
          "type": "uint256"
        }
      ],
      "name": "Transfer",
      "type": "event"
    },
    {
      "anonymous": false,
      "inputs": [
        {
          "indexed": false,
          "internalType": "address",
          "name": "account",
          "type": "address"
        }
      ],
      "name": "Unpaused",
      "type": "event"
    },
    {
      "anonymous": false,
      "inputs": [
        {
          "indexed": false,
          "internalType": "uint256",
          "name": "_artId",
          "type": "uint256"
        },
        {
          "indexed": false,
          "internalType": "uint256",
          "name": "edition",
          "type": "uint256"
        }
      ],
      "name": "UpdateEdition",
      "type": "event"
    },
    {
      "inputs": [
        {
          "internalType": "address",
          "name": "to",
          "type": "address"
        },
        {
          "internalType": "uint256",
          "name": "tokenId",
          "type": "uint256"
        }
      ],
      "name": "approve",
      "outputs": [],
      "stateMutability": "nonpayable",
      "type": "function"
    },
    {
      "inputs": [
        {
          "internalType": "address",
          "name": "owner",
          "type": "address"
        }
      ],
      "name": "balanceOf",
      "outputs": [
        {
          "internalType": "uint256",
          "name": "",
          "type": "uint256"
        }
      ],
      "stateMutability": "view",
      "type": "function",
      "constant": true
    },
    {
      "inputs": [],
      "name": "baseURI",
      "outputs": [
        {
          "internalType": "string",
          "name": "",
          "type": "string"
        }
      ],
      "stateMutability": "view",
      "type": "function",
      "constant": true
    },
    {
      "inputs": [
        {
          "internalType": "address",
          "name": "",
          "type": "address"
        }
      ],
      "name": "blackList",
      "outputs": [
        {
          "internalType": "bool",
          "name": "",
          "type": "bool"
        }
      ],
      "stateMutability": "view",
      "type": "function",
      "constant": true
    },
    {
      "inputs": [
        {
          "internalType": "uint256",
          "name": "tokenId",
          "type": "uint256"
        }
      ],
      "name": "getApproved",
      "outputs": [
        {
          "internalType": "address",
          "name": "",
          "type": "address"
        }
      ],
      "stateMutability": "view",
      "type": "function",
      "constant": true
    },
    {
      "inputs": [],
      "name": "iDigitalSource",
      "outputs": [
        {
          "internalType": "contract IDigitalSource",
          "name": "",
          "type": "address"
        }
      ],
      "stateMutability": "view",
      "type": "function",
      "constant": true
    },
    {
      "inputs": [
        {
          "internalType": "address",
          "name": "owner",
          "type": "address"
        },
        {
          "internalType": "address",
          "name": "operator",
          "type": "address"
        }
      ],
      "name": "isApprovedForAll",
      "outputs": [
        {
          "internalType": "bool",
          "name": "",
          "type": "bool"
        }
      ],
      "stateMutability": "view",
      "type": "function",
      "constant": true
    },
    {
      "inputs": [],
      "name": "isOperator",
      "outputs": [
        {
          "internalType": "bool",
          "name": "",
          "type": "bool"
        }
      ],
      "stateMutability": "view",
      "type": "function",
      "constant": true
    },
    {
      "inputs": [
        {
          "internalType": "address",
          "name": "",
          "type": "address"
        }
      ],
      "name": "miners",
      "outputs": [
        {
          "internalType": "bool",
          "name": "",
          "type": "bool"
        }
      ],
      "stateMutability": "view",
      "type": "function",
      "constant": true
    },
    {
      "inputs": [],
      "name": "name",
      "outputs": [
        {
          "internalType": "string",
          "name": "",
          "type": "string"
        }
      ],
      "stateMutability": "view",
      "type": "function",
      "constant": true
    },
    {
      "inputs": [
        {
          "internalType": "uint256",
          "name": "",
          "type": "uint256"
        }
      ],
      "name": "names",
      "outputs": [
        {
          "internalType": "string",
          "name": "",
          "type": "string"
        }
      ],
      "stateMutability": "view",
      "type": "function",
      "constant": true
    },
    {
      "inputs": [],
      "name": "operator",
      "outputs": [
        {
          "internalType": "address",
          "name": "",
          "type": "address"
        }
      ],
      "stateMutability": "view",
      "type": "function",
      "constant": true
    },
    {
      "inputs": [],
      "name": "owner",
      "outputs": [
        {
          "internalType": "address",
          "name": "",
          "type": "address"
        }
      ],
      "stateMutability": "view",
      "type": "function",
      "constant": true
    },
    {
      "inputs": [
        {
          "internalType": "uint256",
          "name": "tokenId",
          "type": "uint256"
        }
      ],
      "name": "ownerOf",
      "outputs": [
        {
          "internalType": "address",
          "name": "",
          "type": "address"
        }
      ],
      "stateMutability": "view",
      "type": "function",
      "constant": true
    },
    {
      "inputs": [],
      "name": "paused",
      "outputs": [
        {
          "internalType": "bool",
          "name": "",
          "type": "bool"
        }
      ],
      "stateMutability": "view",
      "type": "function",
      "constant": true
    },
    {
      "inputs": [],
      "name": "renounceOwnership",
      "outputs": [],
      "stateMutability": "nonpayable",
      "type": "function"
    },
    {
      "inputs": [
        {
          "internalType": "address",
          "name": "operator",
          "type": "address"
        },
        {
          "internalType": "bool",
          "name": "approved",
          "type": "bool"
        }
      ],
      "name": "setApprovalForAll",
      "outputs": [],
      "stateMutability": "nonpayable",
      "type": "function"
    },
    {
      "inputs": [
        {
          "internalType": "bytes4",
          "name": "interfaceId",
          "type": "bytes4"
        }
      ],
      "name": "supportsInterface",
      "outputs": [
        {
          "internalType": "bool",
          "name": "",
          "type": "bool"
        }
      ],
      "stateMutability": "view",
      "type": "function",
      "constant": true
    },
    {
      "inputs": [],
      "name": "symbol",
      "outputs": [
        {
          "internalType": "string",
          "name": "",
          "type": "string"
        }
      ],
      "stateMutability": "view",
      "type": "function",
      "constant": true
    },
    {
      "inputs": [
        {
          "internalType": "uint256",
          "name": "",
          "type": "uint256"
        }
      ],
      "name": "tokenArts",
      "outputs": [
        {
          "internalType": "uint256",
          "name": "artId",
          "type": "uint256"
        },
        {
          "internalType": "uint256",
          "name": "edition",
          "type": "uint256"
        }
      ],
      "stateMutability": "view",
      "type": "function",
      "constant": true
    },
    {
      "inputs": [
        {
          "internalType": "uint256",
          "name": "index",
          "type": "uint256"
        }
      ],
      "name": "tokenByIndex",
      "outputs": [
        {
          "internalType": "uint256",
          "name": "",
          "type": "uint256"
        }
      ],
      "stateMutability": "view",
      "type": "function",
      "constant": true
    },
    {
      "inputs": [
        {
          "internalType": "address",
          "name": "owner",
          "type": "address"
        },
        {
          "internalType": "uint256",
          "name": "index",
          "type": "uint256"
        }
      ],
      "name": "tokenOfOwnerByIndex",
      "outputs": [
        {
          "internalType": "uint256",
          "name": "",
          "type": "uint256"
        }
      ],
      "stateMutability": "view",
      "type": "function",
      "constant": true
    },
    {
      "inputs": [
        {
          "internalType": "uint256",
          "name": "tokenId",
          "type": "uint256"
        }
      ],
      "name": "tokenURI",
      "outputs": [
        {
          "internalType": "string",
          "name": "",
          "type": "string"
        }
      ],
      "stateMutability": "view",
      "type": "function",
      "constant": true
    },
    {
      "inputs": [],
      "name": "totalSupply",
      "outputs": [
        {
          "internalType": "uint256",
          "name": "",
          "type": "uint256"
        }
      ],
      "stateMutability": "view",
      "type": "function",
      "constant": true
    },
    {
      "inputs": [
        {
          "internalType": "address",
          "name": "newOperator_",
          "type": "address"
        }
      ],
      "name": "transferOperator",
      "outputs": [],
      "stateMutability": "nonpayable",
      "type": "function"
    },
    {
      "inputs": [
        {
          "internalType": "address",
          "name": "newOwner",
          "type": "address"
        }
      ],
      "name": "transferOwnership",
      "outputs": [],
      "stateMutability": "nonpayable",
      "type": "function"
    },
    {
      "inputs": [],
      "name": "getSourceArtIds",
      "outputs": [
        {
          "internalType": "uint256[]",
          "name": "",
          "type": "uint256[]"
        }
      ],
      "stateMutability": "view",
      "type": "function",
      "constant": true
    },
    {
      "inputs": [
        {
          "internalType": "uint256",
          "name": "_artId",
          "type": "uint256"
        }
      ],
      "name": "getSourceDigitalCreator",
      "outputs": [
        {
          "internalType": "address[]",
          "name": "creators",
          "type": "address[]"
        },
        {
          "internalType": "uint256[]",
          "name": "benefits",
          "type": "uint256[]"
        }
      ],
      "stateMutability": "view",
      "type": "function",
      "constant": true
    },
    {
      "inputs": [
        {
          "internalType": "address",
          "name": "_owner",
          "type": "address"
        }
      ],
      "name": "tokensOfOwner",
      "outputs": [
        {
          "internalType": "uint256[]",
          "name": "_tokens",
          "type": "uint256[]"
        }
      ],
      "stateMutability": "view",
      "type": "function",
      "constant": true
    },
    {
      "inputs": [
        {
          "internalType": "address",
          "name": "_black",
          "type": "address"
        }
      ],
      "name": "addBlackList",
      "outputs": [],
      "stateMutability": "nonpayable",
      "type": "function"
    },
    {
      "inputs": [
        {
          "internalType": "address",
          "name": "_black",
          "type": "address"
        }
      ],
      "name": "removeBlackList",
      "outputs": [],
      "stateMutability": "nonpayable",
      "type": "function"
    },
    {
      "inputs": [
        {
          "internalType": "address",
          "name": "_transferAddr",
          "type": "address"
        }
      ],
      "name": "addTransferList",
      "outputs": [],
      "stateMutability": "nonpayable",
      "type": "function"
    },
    {
      "inputs": [
        {
          "internalType": "address",
          "name": "_transferAddr",
          "type": "address"
        }
      ],
      "name": "removeTransferList",
      "outputs": [],
      "stateMutability": "nonpayable",
      "type": "function"
    },
    {
      "inputs": [
        {
          "internalType": "string",
          "name": "_baseURI",
          "type": "string"
        }
      ],
      "name": "setBaseURI",
      "outputs": [],
      "stateMutability": "nonpayable",
      "type": "function"
    },
    {
      "inputs": [
        {
          "internalType": "uint256",
          "name": "_tokenId",
          "type": "uint256"
        }
      ],
      "name": "canTransfer",
      "outputs": [
        {
          "internalType": "bool",
          "name": "",
          "type": "bool"
        }
      ],
      "stateMutability": "view",
      "type": "function",
      "constant": true
    },
    {
      "inputs": [
        {
          "internalType": "address",
          "name": "from",
          "type": "address"
        },
        {
          "internalType": "address",
          "name": "to",
          "type": "address"
        },
        {
          "internalType": "uint256",
          "name": "tokenId",
          "type": "uint256"
        }
      ],
      "name": "transferFrom",
      "outputs": [],
      "stateMutability": "nonpayable",
      "type": "function"
    },
    {
      "inputs": [
        {
          "internalType": "address",
          "name": "from",
          "type": "address"
        },
        {
          "internalType": "address",
          "name": "to",
          "type": "address"
        },
        {
          "internalType": "uint256",
          "name": "tokenId",
          "type": "uint256"
        }
      ],
      "name": "safeTransferFrom",
      "outputs": [],
      "stateMutability": "nonpayable",
      "type": "function"
    },
    {
      "inputs": [
        {
          "internalType": "address",
          "name": "from",
          "type": "address"
        },
        {
          "internalType": "address",
          "name": "to",
          "type": "address"
        },
        {
          "internalType": "uint256",
          "name": "tokenId",
          "type": "uint256"
        },
        {
          "internalType": "bytes",
          "name": "_data",
          "type": "bytes"
        }
      ],
      "name": "safeTransferFrom",
      "outputs": [],
      "stateMutability": "nonpayable",
      "type": "function"
    },
    {
      "inputs": [
        {
          "internalType": "address[]",
          "name": "_assistants",
          "type": "address[]"
        },
        {
          "internalType": "uint256[]",
          "name": "_benefits",
          "type": "uint256[]"
        },
        {
          "internalType": "uint256",
          "name": "_totalEdition",
          "type": "uint256"
        },
        {
          "internalType": "string",
          "name": "_uri",
          "type": "string"
        },
        {
          "internalType": "uint256",
          "name": "_count",
          "type": "uint256"
        }
      ],
      "name": "createArt",
      "outputs": [],
      "stateMutability": "nonpayable",
      "type": "function"
    },
    {
      "inputs": [
        {
          "internalType": "uint256",
          "name": "_artId",
          "type": "uint256"
        },
        {
          "internalType": "uint256",
          "name": "_count",
          "type": "uint256"
        }
      ],
      "name": "addArt",
      "outputs": [],
      "stateMutability": "nonpayable",
      "type": "function"
    },
    {
      "inputs": [
        {
          "internalType": "uint256",
          "name": "_id",
          "type": "uint256"
        }
      ],
      "name": "burnItem",
      "outputs": [],
      "stateMutability": "nonpayable",
      "type": "function"
    }
  ],
  "bytecode": "0x60806040523480156200001157600080fd5b506040516200639938038062006399833981810160405260208110156200003757600080fd5b81019080805190602001909291905050506040518060400160405280600481526020017f41414141000000000000000000000000000000000000000000000000000000008152506040518060400160405280600481526020017f4141414100000000000000000000000000000000000000000000000000000000815250620000cc6301ffc9a760e01b6200037460201b60201c565b8160069080519060200190620000e4929190620004a1565b508060079080519060200190620000fd929190620004a1565b50620001166380ac58cd60e01b6200037460201b60201c565b6200012e635b5e139f60e01b6200037460201b60201c565b6200014663780e9d6360e01b6200037460201b60201c565b505060006200015a6200047d60201b60201c565b905080600a60006101000a81548173ffffffffffffffffffffffffffffffffffffffff021916908373ffffffffffffffffffffffffffffffffffffffff1602179055508073ffffffffffffffffffffffffffffffffffffffff16600073ffffffffffffffffffffffffffffffffffffffff167f8be0079c531659141344cd1fd0a4f28419497f9722a3daafe3b4186f6b6457e060405160405180910390a350620002096200047d60201b60201c565b600b60006101000a81548173ffffffffffffffffffffffffffffffffffffffff021916908373ffffffffffffffffffffffffffffffffffffffff160217905550600b60009054906101000a900473ffffffffffffffffffffffffffffffffffffffff1673ffffffffffffffffffffffffffffffffffffffff16600073ffffffffffffffffffffffffffffffffffffffff167f74da04524d50c64947f5dd5381ef1a4dca5cba8ed1d816243f9e48aa0b5617ed60405160405180910390a36000600b60146101000a81548160ff02191690831515021790555080600f60006101000a81548173ffffffffffffffffffffffffffffffffffffffff021916908373ffffffffffffffffffffffffffffffffffffffff1602179055506200036d6040518060400160405280600c81526020017f697066733a2f2f697066732f00000000000000000000000000000000000000008152506200048560201b620032b61760201c565b5062000547565b63ffffffff60e01b817bffffffffffffffffffffffffffffffffffffffffffffffffffffffff1916141562000411576040517f08c379a000000000000000000000000000000000000000000000000000000000815260040180806020018281038252601c8152602001807f4552433136353a20696e76616c696420696e746572666163652069640000000081525060200191505060405180910390fd5b6001600080837bffffffffffffffffffffffffffffffffffffffffffffffffffffffff19167bffffffffffffffffffffffffffffffffffffffffffffffffffffffff1916815260200190815260200160002060006101000a81548160ff02191690831515021790555050565b600033905090565b80600990805190602001906200049d929190620004a1565b5050565b828054600181600116156101000203166002900490600052602060002090601f016020900481019282601f10620004e457805160ff191683800117855562000515565b8280016001018555821562000515579182015b8281111562000514578251825591602001919060010190620004f7565b5b50905062000524919062000528565b5090565b5b808211156200054357600081600090555060010162000529565b5090565b615e4280620005576000396000f3fe608060405234801561001057600080fd5b50600436106102535760003560e01c806355f804b311610146578063761eb299116100c3578063abb03ba611610087578063abb03ba614610ff8578063b88d4fde14611041578063c87b56dd14611146578063e4997dc5146111ed578063e985e9c514611231578063f2fde38b146112ab57610253565b8063761eb29914610df95780638462151c14610e585780638da5cb5b14610ef157806395d89b4114610f25578063a22cb46514610fa857610253565b80636352211e1161010a5780636352211e14610c62578063648ec7b914610cba5780636c0360eb14610d1457806370a0823114610d97578063715018a614610def57610253565b806355f804b314610a5a578063570ca73514610b15578063576cc0f714610b495780635c464d2f14610b775780635c975abb14610c4257610253565b806329605e77116101d45780634456eda2116101985780634456eda2146108b35780634622ab03146108d35780634838d1651461097a5780634d4f6ea9146109d45780634f6ccce714610a1857610253565b806329605e77146105705780632f745c59146105b4578063334b49a9146106165780633ea80cd21461064e57806342842e0e1461084557610253565b80630ecb93c01161021b5780630ecb93c014610428578063111531521461046c57806318160ddd146104a05780631f8fb86d146104be57806323b872dd1461050257610253565b806301ffc9a71461025857806306fdde03146102bb578063081812fc1461033e5780630825c38614610396578063095ea7b3146103da575b600080fd5b6102a36004803603602081101561026e57600080fd5b8101908080357bffffffffffffffffffffffffffffffffffffffffffffffffffffffff191690602001909291905050506112ef565b60405180821515815260200191505060405180910390f35b6102c3611356565b6040518080602001828103825283818151815260200191508051906020019080838360005b838110156103035780820151818401526020810190506102e8565b50505050905090810190601f1680156103305780820380516001836020036101000a031916815260200191505b509250505060405180910390f35b61036a6004803603602081101561035457600080fd5b81019080803590602001909291905050506113f8565b604051808273ffffffffffffffffffffffffffffffffffffffff16815260200191505060405180910390f35b6103d8600480360360208110156103ac57600080fd5b81019080803573ffffffffffffffffffffffffffffffffffffffff169060200190929190505050611493565b005b610426600480360360408110156103f057600080fd5b81019080803573ffffffffffffffffffffffffffffffffffffffff1690602001909291908035906020019092919050505061159d565b005b61046a6004803603602081101561043e57600080fd5b81019080803573ffffffffffffffffffffffffffffffffffffffff1690602001909291905050506116e1565b005b6104746117eb565b604051808273ffffffffffffffffffffffffffffffffffffffff16815260200191505060405180910390f35b6104a8611811565b6040518082815260200191505060405180910390f35b610500600480360360208110156104d457600080fd5b81019080803573ffffffffffffffffffffffffffffffffffffffff169060200190929190505050611822565b005b61056e6004803603606081101561051857600080fd5b81019080803573ffffffffffffffffffffffffffffffffffffffff169060200190929190803573ffffffffffffffffffffffffffffffffffffffff1690602001909291908035906020019092919050505061192c565b005b6105b26004803603602081101561058657600080fd5b81019080803573ffffffffffffffffffffffffffffffffffffffff169060200190929190505050611a4f565b005b610600600480360360408110156105ca57600080fd5b81019080803573ffffffffffffffffffffffffffffffffffffffff16906020019092919080359060200190929190505050611b0a565b6040518082815260200191505060405180910390f35b61064c6004803603604081101561062c57600080fd5b810190808035906020019092919080359060200190929190505050611b65565b005b610843600480360360a081101561066457600080fd5b810190808035906020019064010000000081111561068157600080fd5b82018360208201111561069357600080fd5b803590602001918460208302840111640100000000831117156106b557600080fd5b919080806020026020016040519081016040528093929190818152602001838360200280828437600081840152601f19601f8201169050808301925050505050505091929192908035906020019064010000000081111561071557600080fd5b82018360208201111561072757600080fd5b8035906020019184602083028401116401000000008311171561074957600080fd5b919080806020026020016040519081016040528093929190818152602001838360200280828437600081840152601f19601f82011690508083019250505050505050919291929080359060200190929190803590602001906401000000008111156107b357600080fd5b8201836020820111156107c557600080fd5b803590602001918460018302840111640100000000831117156107e757600080fd5b91908080601f016020809104026020016040519081016040528093929190818152602001838380828437600081840152601f19601f82011690508083019250505050505050919291929080359060200190929190505050611cae565b005b6108b16004803603606081101561085b57600080fd5b81019080803573ffffffffffffffffffffffffffffffffffffffff169060200190929190803573ffffffffffffffffffffffffffffffffffffffff16906020019092919080359060200190929190505050611fcc565b005b6108bb611fec565b60405180821515815260200191505060405180910390f35b6108ff600480360360208110156108e957600080fd5b810190808035906020019092919050505061204b565b6040518080602001828103825283818151815260200191508051906020019080838360005b8381101561093f578082015181840152602081019050610924565b50505050905090810190601f16801561096c5780820380516001836020036101000a031916815260200191505b509250505060405180910390f35b6109bc6004803603602081101561099057600080fd5b81019080803573ffffffffffffffffffffffffffffffffffffffff1690602001909291905050506120fb565b60405180821515815260200191505060405180910390f35b610a00600480360360208110156109ea57600080fd5b810190808035906020019092919050505061211b565b60405180821515815260200191505060405180910390f35b610a4460048036036020811015610a2e57600080fd5b810190808035906020019092919050505061213b565b6040518082815260200191505060405180910390f35b610b1360048036036020811015610a7057600080fd5b8101908080359060200190640100000000811115610a8d57600080fd5b820183602082011115610a9f57600080fd5b80359060200191846001830284011164010000000083111715610ac157600080fd5b91908080601f016020809104026020016040519081016040528093929190818152602001838380828437600081840152601f19601f82011690508083019250505050505050919291929050505061215e565b005b610b1d612219565b604051808273ffffffffffffffffffffffffffffffffffffffff16815260200191505060405180910390f35b610b7560048036036020811015610b5f57600080fd5b8101908080359060200190929190505050612243565b005b610ba360048036036020811015610b8d57600080fd5b8101908080359060200190929190505050612283565b604051808060200180602001838103835285818151815260200191508051906020019060200280838360005b83811015610bea578082015181840152602081019050610bcf565b50505050905001838103825284818151815260200191508051906020019060200280838360005b83811015610c2c578082015181840152602081019050610c11565b5050505090500194505050505060405180910390f35b610c4a61246a565b60405180821515815260200191505060405180910390f35b610c8e60048036036020811015610c7857600080fd5b8101908080359060200190929190505050612481565b604051808273ffffffffffffffffffffffffffffffffffffffff16815260200191505060405180910390f35b610cfc60048036036020811015610cd057600080fd5b81019080803573ffffffffffffffffffffffffffffffffffffffff1690602001909291905050506124b8565b60405180821515815260200191505060405180910390f35b610d1c6124d8565b6040518080602001828103825283818151815260200191508051906020019080838360005b83811015610d5c578082015181840152602081019050610d41565b50505050905090810190601f168015610d895780820380516001836020036101000a031916815260200191505b509250505060405180910390f35b610dd960048036036020811015610dad57600080fd5b81019080803573ffffffffffffffffffffffffffffffffffffffff16906020019092919050505061257a565b6040518082815260200191505060405180910390f35b610df761264f565b005b610e016127bf565b6040518080602001828103825283818151815260200191508051906020019060200280838360005b83811015610e44578082015181840152602081019050610e29565b505050509050019250505060405180910390f35b610e9a60048036036020811015610e6e57600080fd5b81019080803573ffffffffffffffffffffffffffffffffffffffff169060200190929190505050612903565b6040518080602001828103825283818151815260200191508051906020019060200280838360005b83811015610edd578082015181840152602081019050610ec2565b505050509050019250505060405180910390f35b610ef961299a565b604051808273ffffffffffffffffffffffffffffffffffffffff16815260200191505060405180910390f35b610f2d6129c4565b6040518080602001828103825283818151815260200191508051906020019080838360005b83811015610f6d578082015181840152602081019050610f52565b50505050905090810190601f168015610f9a5780820380516001836020036101000a031916815260200191505b509250505060405180910390f35b610ff660048036036040811015610fbe57600080fd5b81019080803573ffffffffffffffffffffffffffffffffffffffff169060200190929190803515159060200190929190505050612a66565b005b6110246004803603602081101561100e57600080fd5b8101908080359060200190929190505050612c1c565b604051808381526020018281526020019250505060405180910390f35b6111446004803603608081101561105757600080fd5b81019080803573ffffffffffffffffffffffffffffffffffffffff169060200190929190803573ffffffffffffffffffffffffffffffffffffffff16906020019092919080359060200190929190803590602001906401000000008111156110be57600080fd5b8201836020820111156110d057600080fd5b803590602001918460018302840111640100000000831117156110f257600080fd5b91908080601f016020809104026020016040519081016040528093929190818152602001838380828437600081840152601f19601f820116905080830192505050505050509192919290505050612c40565b005b6111726004803603602081101561115c57600080fd5b8101908080359060200190929190505050612c52565b6040518080602001828103825283818151815260200191508051906020019080838360005b838110156111b2578082015181840152602081019050611197565b50505050905090810190601f1680156111df5780820380516001836020036101000a031916815260200191505b509250505060405180910390f35b61122f6004803603602081101561120357600080fd5b81019080803573ffffffffffffffffffffffffffffffffffffffff169060200190929190505050612f23565b005b6112936004803603604081101561124757600080fd5b81019080803573ffffffffffffffffffffffffffffffffffffffff169060200190929190803573ffffffffffffffffffffffffffffffffffffffff16906020019092919050505061302d565b60405180821515815260200191505060405180910390f35b6112ed600480360360208110156112c157600080fd5b81019080803573ffffffffffffffffffffffffffffffffffffffff1690602001909291905050506130c1565b005b6000806000837bffffffffffffffffffffffffffffffffffffffffffffffffffffffff19167bffffffffffffffffffffffffffffffffffffffffffffffffffffffff1916815260200190815260200160002060009054906101000a900460ff169050919050565b606060068054600181600116156101000203166002900480601f0160208091040260200160405190810160405280929190818152602001828054600181600116156101000203166002900480156113ee5780601f106113c3576101008083540402835291602001916113ee565b820191906000526020600020905b8154815290600101906020018083116113d157829003601f168201915b5050505050905090565b6000611403826132d0565b611458576040517f08c379a000000000000000000000000000000000000000000000000000000000815260040180806020018281038252602c815260200180615d0b602c913960400191505060405180910390fd5b6004600083815260200190815260200160002060009054906101000a900473ffffffffffffffffffffffffffffffffffffffff169050919050565b61149b6132ed565b73ffffffffffffffffffffffffffffffffffffffff166114b961299a565b73ffffffffffffffffffffffffffffffffffffffff1614611542576040517f08c379a00000000000000000000000000000000000000000000000000000000081526004018080602001828103825260208152602001807f4f776e61626c653a2063616c6c6572206973206e6f7420746865206f776e657281525060200191505060405180910390fd5b6000600e60008373ffffffffffffffffffffffffffffffffffffffff1673ffffffffffffffffffffffffffffffffffffffff16815260200190815260200160002060006101000a81548160ff02191690831515021790555050565b60006115a882612481565b90508073ffffffffffffffffffffffffffffffffffffffff168373ffffffffffffffffffffffffffffffffffffffff16141561162f576040517f08c379a0000000000000000000000000000000000000000000000000000000008152600401808060200182810382526021815260200180615dbb6021913960400191505060405180910390fd5b8073ffffffffffffffffffffffffffffffffffffffff1661164e6132ed565b73ffffffffffffffffffffffffffffffffffffffff16148061167d575061167c816116776132ed565b61302d565b5b6116d2576040517f08c379a0000000000000000000000000000000000000000000000000000000008152600401808060200182810382526038815260200180615c316038913960400191505060405180910390fd5b6116dc83836132f5565b505050565b6116e96132ed565b73ffffffffffffffffffffffffffffffffffffffff1661170761299a565b73ffffffffffffffffffffffffffffffffffffffff1614611790576040517f08c379a00000000000000000000000000000000000000000000000000000000081526004018080602001828103825260208152602001807f4f776e61626c653a2063616c6c6572206973206e6f7420746865206f776e657281525060200191505060405180910390fd5b6001601060008373ffffffffffffffffffffffffffffffffffffffff1673ffffffffffffffffffffffffffffffffffffffff16815260200190815260200160002060006101000a81548160ff02191690831515021790555050565b600f60009054906101000a900473ffffffffffffffffffffffffffffffffffffffff1681565b600061181d60026133ae565b905090565b61182a6132ed565b73ffffffffffffffffffffffffffffffffffffffff1661184861299a565b73ffffffffffffffffffffffffffffffffffffffff16146118d1576040517f08c379a00000000000000000000000000000000000000000000000000000000081526004018080602001828103825260208152602001807f4f776e61626c653a2063616c6c6572206973206e6f7420746865206f776e657281525060200191505060405180910390fd5b6001600e60008373ffffffffffffffffffffffffffffffffffffffff1673ffffffffffffffffffffffffffffffffffffffff16815260200190815260200160002060006101000a81548160ff02191690831515021790555050565b3073ffffffffffffffffffffffffffffffffffffffff163373ffffffffffffffffffffffffffffffffffffffff16148061197957506001600d600083815260200190815260200160002054115b806119cd5750600e60003373ffffffffffffffffffffffffffffffffffffffff1673ffffffffffffffffffffffffffffffffffffffff16815260200190815260200160002060009054906101000a900460ff165b611a22576040517f08c379a000000000000000000000000000000000000000000000000000000000815260040180806020018281038252602f815260200180615b8c602f913960400191505060405180910390fd5b611a2d8383836133c3565b611a378382613439565b611a4182826135f9565b611a4a816136bd565b505050565b611a576132ed565b73ffffffffffffffffffffffffffffffffffffffff16611a7561299a565b73ffffffffffffffffffffffffffffffffffffffff1614611afe576040517f08c379a00000000000000000000000000000000000000000000000000000000081526004018080602001828103825260208152602001807f4f776e61626c653a2063616c6c6572206973206e6f7420746865206f776e657281525060200191505060405180910390fd5b611b078161371b565b50565b6000611b5d82600160008673ffffffffffffffffffffffffffffffffffffffff1673ffffffffffffffffffffffffffffffffffffffff16815260200190815260200160002061384090919063ffffffff16565b905092915050565b611b6d61246a565b15611be0576040517f08c379a00000000000000000000000000000000000000000000000000000000081526004018080602001828103825260108152602001807f5061757361626c653a207061757365640000000000000000000000000000000081525060200191505060405180910390fd5b601060003373ffffffffffffffffffffffffffffffffffffffff1673ffffffffffffffffffffffffffffffffffffffff16815260200190815260200160002060009054906101000a900460ff16611c9f576040517f08c379a00000000000000000000000000000000000000000000000000000000081526004018080602001828103825260138152602001807f43726561746f72206e6f7420617070726f76650000000000000000000000000081525060200191505060405180910390fd5b611caa33838361385a565b5050565b611cb661246a565b15611d29576040517f08c379a00000000000000000000000000000000000000000000000000000000081526004018080602001828103825260108152602001807f5061757361626c653a207061757365640000000000000000000000000000000081525060200191505060405180910390fd5b601060003373ffffffffffffffffffffffffffffffffffffffff1673ffffffffffffffffffffffffffffffffffffffff16815260200190815260200160002060009054906101000a900460ff16611de8576040517f08c379a00000000000000000000000000000000000000000000000000000000081526004018080602001828103825260138152602001807f43726561746f72206e6f7420617070726f76650000000000000000000000000081525060200191505060405180910390fd5b6000600f60009054906101000a900473ffffffffffffffffffffffffffffffffffffffff1673ffffffffffffffffffffffffffffffffffffffff16631b34e19433888888886040518663ffffffff1660e01b8152600401808673ffffffffffffffffffffffffffffffffffffffff168152602001806020018060200185815260200180602001848103845288818151815260200191508051906020019060200280838360005b83811015611ea9578082015181840152602081019050611e8e565b50505050905001848103835287818151815260200191508051906020019060200280838360005b83811015611eeb578082015181840152602081019050611ed0565b50505050905001848103825285818151815260200191508051906020019080838360005b83811015611f2a578082015181840152602081019050611f0f565b50505050905090810190601f168015611f575780820380516001836020036101000a031916815260200191505b5098505050505050505050602060405180830381600087803b158015611f7c57600080fd5b505af1158015611f90573d6000803e3d6000fd5b505050506040513d6020811015611fa657600080fd5b81019080805190602001909291905050509050611fc433828461385a565b505050505050565b611fe783838360405180602001604052806000815250613f00565b505050565b6000600b60009054906101000a900473ffffffffffffffffffffffffffffffffffffffff1673ffffffffffffffffffffffffffffffffffffffff1661202f6132ed565b73ffffffffffffffffffffffffffffffffffffffff1614905090565b60176020528060005260406000206000915090508054600181600116156101000203166002900480601f0160208091040260200160405190810160405280929190818152602001828054600181600116156101000203166002900480156120f35780601f106120c8576101008083540402835291602001916120f3565b820191906000526020600020905b8154815290600101906020018083116120d657829003601f168201915b505050505081565b60106020528060005260406000206000915054906101000a900460ff1681565b60006001600d600084815260200190815260200160002054119050919050565b60008061215283600261402590919063ffffffff16565b50905080915050919050565b6121666132ed565b73ffffffffffffffffffffffffffffffffffffffff1661218461299a565b73ffffffffffffffffffffffffffffffffffffffff161461220d576040517f08c379a00000000000000000000000000000000000000000000000000000000081526004018080602001828103825260208152602001807f4f776e61626c653a2063616c6c6572206973206e6f7420746865206f776e657281525060200191505060405180910390fd5b612216816132b6565b50565b6000600b60009054906101000a900473ffffffffffffffffffffffffffffffffffffffff16905090565b61224c81614051565b61225e61225882612481565b82613439565b600060136000838152602001908152602001600020819055506122808161418b565b50565b606080600f60009054906101000a900473ffffffffffffffffffffffffffffffffffffffff1673ffffffffffffffffffffffffffffffffffffffff166331bbb97c846040518263ffffffff1660e01b81526004018082815260200191505060006040518083038186803b1580156122f957600080fd5b505afa15801561230d573d6000803e3d6000fd5b505050506040513d6000823e3d601f19601f82011682018060405250604081101561233757600080fd5b810190808051604051939291908464010000000082111561235757600080fd5b8382019150602082018581111561236d57600080fd5b825186602082028301116401000000008211171561238a57600080fd5b8083526020830192505050908051906020019060200280838360005b838110156123c15780820151818401526020810190506123a6565b50505050905001604052602001805160405193929190846401000000008211156123ea57600080fd5b8382019150602082018581111561240057600080fd5b825186602082028301116401000000008211171561241d57600080fd5b8083526020830192505050908051906020019060200280838360005b83811015612454578082015181840152602081019050612439565b5050505090500160405250505091509150915091565b6000600b60149054906101000a900460ff16905090565b60006124b182604051806060016040528060298152602001615c936029913960026142509092919063ffffffff16565b9050919050565b60166020528060005260406000206000915054906101000a900460ff1681565b606060098054600181600116156101000203166002900480601f0160208091040260200160405190810160405280929190818152602001828054600181600116156101000203166002900480156125705780601f1061254557610100808354040283529160200191612570565b820191906000526020600020905b81548152906001019060200180831161255357829003601f168201915b5050505050905090565b60008073ffffffffffffffffffffffffffffffffffffffff168273ffffffffffffffffffffffffffffffffffffffff161415612601576040517f08c379a000000000000000000000000000000000000000000000000000000000815260040180806020018281038252602a815260200180615c69602a913960400191505060405180910390fd5b612648600160008473ffffffffffffffffffffffffffffffffffffffff1673ffffffffffffffffffffffffffffffffffffffff16815260200190815260200160002061426f565b9050919050565b6126576132ed565b73ffffffffffffffffffffffffffffffffffffffff1661267561299a565b73ffffffffffffffffffffffffffffffffffffffff16146126fe576040517f08c379a00000000000000000000000000000000000000000000000000000000081526004018080602001828103825260208152602001807f4f776e61626c653a2063616c6c6572206973206e6f7420746865206f776e657281525060200191505060405180910390fd5b600073ffffffffffffffffffffffffffffffffffffffff16600a60009054906101000a900473ffffffffffffffffffffffffffffffffffffffff1673ffffffffffffffffffffffffffffffffffffffff167f8be0079c531659141344cd1fd0a4f28419497f9722a3daafe3b4186f6b6457e060405160405180910390a36000600a60006101000a81548173ffffffffffffffffffffffffffffffffffffffff021916908373ffffffffffffffffffffffffffffffffffffffff160217905550565b6060600f60009054906101000a900473ffffffffffffffffffffffffffffffffffffffff1673ffffffffffffffffffffffffffffffffffffffff1663fc2cc2ef6040518163ffffffff1660e01b815260040160006040518083038186803b15801561282957600080fd5b505afa15801561283d573d6000803e3d6000fd5b505050506040513d6000823e3d601f19601f82011682018060405250602081101561286757600080fd5b810190808051604051939291908464010000000082111561288757600080fd5b8382019150602082018581111561289d57600080fd5b82518660208202830111640100000000821117156128ba57600080fd5b8083526020830192505050908051906020019060200280838360005b838110156128f15780820151818401526020810190506128d6565b50505050905001604052505050905090565b6060601260008373ffffffffffffffffffffffffffffffffffffffff1673ffffffffffffffffffffffffffffffffffffffff16815260200190815260200160002080548060200260200160405190810160405280929190818152602001828054801561298e57602002820191906000526020600020905b81548152602001906001019080831161297a575b50505050509050919050565b6000600a60009054906101000a900473ffffffffffffffffffffffffffffffffffffffff16905090565b606060078054600181600116156101000203166002900480601f016020809104026020016040519081016040528092919081815260200182805460018160011615610100020316600290048015612a5c5780601f10612a3157610100808354040283529160200191612a5c565b820191906000526020600020905b815481529060010190602001808311612a3f57829003601f168201915b5050505050905090565b612a6e6132ed565b73ffffffffffffffffffffffffffffffffffffffff168273ffffffffffffffffffffffffffffffffffffffff161415612b0f576040517f08c379a00000000000000000000000000000000000000000000000000000000081526004018080602001828103825260198152602001807f4552433732313a20617070726f766520746f2063616c6c65720000000000000081525060200191505060405180910390fd5b8060056000612b1c6132ed565b73ffffffffffffffffffffffffffffffffffffffff1673ffffffffffffffffffffffffffffffffffffffff16815260200190815260200160002060008473ffffffffffffffffffffffffffffffffffffffff1673ffffffffffffffffffffffffffffffffffffffff16815260200190815260200160002060006101000a81548160ff0219169083151502179055508173ffffffffffffffffffffffffffffffffffffffff16612bc96132ed565b73ffffffffffffffffffffffffffffffffffffffff167f17307eab39ab6107e8899845ad3d59bd9653f200f220920489ca2b5937696c318360405180821515815260200191505060405180910390a35050565b60116020528060005260406000206000915090508060000154908060010154905082565b612c4c84848484613f00565b50505050565b6060612c5d826132d0565b612cb2576040517f08c379a000000000000000000000000000000000000000000000000000000000815260040180806020018281038252602f815260200180615d8c602f913960400191505060405180910390fd5b6060600860008481526020019081526020016000208054600181600116156101000203166002900480601f016020809104026020016040519081016040528092919081815260200182805460018160011615610100020316600290048015612d5b5780601f10612d3057610100808354040283529160200191612d5b565b820191906000526020600020905b815481529060010190602001808311612d3e57829003601f168201915b505050505090506060612d6c6124d8565b9050600081511415612d82578192505050612f1e565b600082511115612e535780826040516020018083805190602001908083835b60208310612dc45780518252602082019150602081019050602083039250612da1565b6001836020036101000a03801982511681845116808217855250505050505090500182805190602001908083835b60208310612e155780518252602082019150602081019050602083039250612df2565b6001836020036101000a0380198251168184511680821785525050505050509050019250505060405160208183030381529060405292505050612f1e565b80612e5d85614284565b6040516020018083805190602001908083835b60208310612e935780518252602082019150602081019050602083039250612e70565b6001836020036101000a03801982511681845116808217855250505050505090500182805190602001908083835b60208310612ee45780518252602082019150602081019050602083039250612ec1565b6001836020036101000a03801982511681845116808217855250505050505090500192505050604051602081830303815290604052925050505b919050565b612f2b6132ed565b73ffffffffffffffffffffffffffffffffffffffff16612f4961299a565b73ffffffffffffffffffffffffffffffffffffffff1614612fd2576040517f08c379a00000000000000000000000000000000000000000000000000000000081526004018080602001828103825260208152602001807f4f776e61626c653a2063616c6c6572206973206e6f7420746865206f776e657281525060200191505060405180910390fd5b6000601060008373ffffffffffffffffffffffffffffffffffffffff1673ffffffffffffffffffffffffffffffffffffffff16815260200190815260200160002060006101000a81548160ff02191690831515021790555050565b6000600560008473ffffffffffffffffffffffffffffffffffffffff1673ffffffffffffffffffffffffffffffffffffffff16815260200190815260200160002060008373ffffffffffffffffffffffffffffffffffffffff1673ffffffffffffffffffffffffffffffffffffffff16815260200190815260200160002060009054906101000a900460ff16905092915050565b6130c96132ed565b73ffffffffffffffffffffffffffffffffffffffff166130e761299a565b73ffffffffffffffffffffffffffffffffffffffff1614613170576040517f08c379a00000000000000000000000000000000000000000000000000000000081526004018080602001828103825260208152602001807f4f776e61626c653a2063616c6c6572206973206e6f7420746865206f776e657281525060200191505060405180910390fd5b600073ffffffffffffffffffffffffffffffffffffffff168173ffffffffffffffffffffffffffffffffffffffff1614156131f6576040517f08c379a0000000000000000000000000000000000000000000000000000000008152600401808060200182810382526026815260200180615b666026913960400191505060405180910390fd5b8073ffffffffffffffffffffffffffffffffffffffff16600a60009054906101000a900473ffffffffffffffffffffffffffffffffffffffff1673ffffffffffffffffffffffffffffffffffffffff167f8be0079c531659141344cd1fd0a4f28419497f9722a3daafe3b4186f6b6457e060405160405180910390a380600a60006101000a81548173ffffffffffffffffffffffffffffffffffffffff021916908373ffffffffffffffffffffffffffffffffffffffff16021790555050565b80600990805190602001906132cc929190615a12565b5050565b60006132e68260026143cb90919063ffffffff16565b9050919050565b600033905090565b816004600083815260200190815260200160002060006101000a81548173ffffffffffffffffffffffffffffffffffffffff021916908373ffffffffffffffffffffffffffffffffffffffff160217905550808273ffffffffffffffffffffffffffffffffffffffff1661336883612481565b73ffffffffffffffffffffffffffffffffffffffff167f8c5be1e5ebec7d5bd14f71427d1e84f3dd0314c0f7b2291e5b200ac8c7c3b92560405160405180910390a45050565b60006133bc826000016143e5565b9050919050565b6133d46133ce6132ed565b826143f6565b613429576040517f08c379a0000000000000000000000000000000000000000000000000000000008152600401808060200182810382526031815260200180615ddc6031913960400191505060405180910390fd5b6134348383836144ea565b505050565b60006134916001601260008673ffffffffffffffffffffffffffffffffffffffff1673ffffffffffffffffffffffffffffffffffffffff1681526020019081526020016000208054905061472d90919063ffffffff16565b905060006013600084815260200190815260200160002054905081811461357e576000601260008673ffffffffffffffffffffffffffffffffffffffff1673ffffffffffffffffffffffffffffffffffffffff16815260200190815260200160002083815481106134fe57fe5b9060005260206000200154905080601260008773ffffffffffffffffffffffffffffffffffffffff1673ffffffffffffffffffffffffffffffffffffffff168152602001908152602001600020838154811061355657fe5b9060005260206000200181905550816013600083815260200190815260200160002081905550505b601260008573ffffffffffffffffffffffffffffffffffffffff1673ffffffffffffffffffffffffffffffffffffffff1681526020019081526020016000208054806135c657fe5b60019003818190600052602060002001600090559055601360008481526020019081526020016000206000905550505050565b601260008373ffffffffffffffffffffffffffffffffffffffff1673ffffffffffffffffffffffffffffffffffffffff168152602001908152602001600020805490506013600083815260200190815260200160002081905550601260008373ffffffffffffffffffffffffffffffffffffffff1673ffffffffffffffffffffffffffffffffffffffff1681526020019081526020016000208190806001815401808255809150506001900390600052602060002001600090919091909150555050565b6000600d6000838152602001908152602001600020541415613718576137006001600d6000848152602001908152602001600020546147b090919063ffffffff16565b600d6000838152602001908152602001600020819055505b50565b600073ffffffffffffffffffffffffffffffffffffffff168173ffffffffffffffffffffffffffffffffffffffff1614156137a1576040517f08c379a000000000000000000000000000000000000000000000000000000000815260040180806020018281038252602d815260200180615cbc602d913960400191505060405180910390fd5b8073ffffffffffffffffffffffffffffffffffffffff16600073ffffffffffffffffffffffffffffffffffffffff167f74da04524d50c64947f5dd5381ef1a4dca5cba8ed1d816243f9e48aa0b5617ed60405160405180910390a380600b60006101000a81548173ffffffffffffffffffffffffffffffffffffffff021916908373ffffffffffffffffffffffffffffffffffffffff16021790555050565b600061384f8360000183614838565b60001c905092915050565b6000806000806060600f60009054906101000a900473ffffffffffffffffffffffffffffffffffffffff1673ffffffffffffffffffffffffffffffffffffffff16636e4ce25c886040518263ffffffff1660e01b81526004018082815260200191505060006040518083038186803b1580156138d557600080fd5b505afa1580156138e9573d6000803e3d6000fd5b505050506040513d6000823e3d601f19601f8201168201806040525060e081101561391357600080fd5b81019080805190602001909291908051906020019092919080519060200190929190805190602001909291908051604051939291908464010000000082111561395b57600080fd5b8382019150602082018581111561397157600080fd5b825186602082028301116401000000008211171561398e57600080fd5b8083526020830192505050908051906020019060200280838360005b838110156139c55780820151818401526020810190506139aa565b50505050905001604052602001805160405193929190846401000000008211156139ee57600080fd5b83820191506020820185811115613a0457600080fd5b8251866020820283011164010000000082111715613a2157600080fd5b8083526020830192505050908051906020019060200280838360005b83811015613a58578082015181840152602081019050613a3d565b5050505090500160405260200180516040519392919084640100000000821115613a8157600080fd5b83820191506020820185811115613a9757600080fd5b8251866001820283011164010000000082111715613ab457600080fd5b8083526020830192505050908051906020019080838360005b83811015613ae8578082015181840152602081019050613acd565b50505050905090810190601f168015613b155780820380516001836020036101000a031916815260200191505b506040525050509650505094509450945094508173ffffffffffffffffffffffffffffffffffffffff163373ffffffffffffffffffffffffffffffffffffffff1614613bc9576040517f08c379a000000000000000000000000000000000000000000000000000000000815260040180806020018281038252600b8152602001807f4e6f742063726561746f7200000000000000000000000000000000000000000081525060200191505060405180910390fd5b83613bdd84886147b090919063ffffffff16565b1115613c51576040517f08c379a00000000000000000000000000000000000000000000000000000000081526004018080602001828103825260168152602001807f546f74616c20737570706c792065786365656465642e0000000000000000000081525060200191505060405180910390fd5b6060613c64613c5e6124d8565b836148bb565b905060005b87811015613e0e57613c7b600c6148ff565b6000613c87600c614915565b90506000613cb16001613ca3858a6147b090919063ffffffff16565b6147b090919063ffffffff16565b9050613cbb615a92565b60405180604001604052808d815260200183815250905080601160008581526020019081526020016000206000820151816000015560208201518160010155905050613d078d84614923565b613d118386614b17565b613d1a83614ba1565b613d248d846135f9565b7f264009150e680b327677f372c2324923bd12b3b718ebd62d6cf6d3bb3179d8f98c8e85858d8b604051808781526020018673ffffffffffffffffffffffffffffffffffffffff16815260200185815260200184815260200183815260200180602001828103825283818151815260200191508051906020019080838360005b83811015613dbf578082015181840152602081019050613da4565b50505050905090810190601f168015613dec5780820380516001836020036101000a031916815260200191505b5097505050505050505060405180910390a15050508080600101915050613c69565b50600f60009054906101000a900473ffffffffffffffffffffffffffffffffffffffff1673ffffffffffffffffffffffffffffffffffffffff166356b28aae89896040518363ffffffff1660e01b81526004018083815260200182815260200192505050600060405180830381600087803b158015613e8c57600080fd5b505af1158015613ea0573d6000803e3d6000fd5b505050507f68091494c05ef788e42594f810ab4fc09c48eba85b5792b56e96ff8f1a71c9c088613ed989876147b090919063ffffffff16565b604051808381526020018281526020019250505060405180910390a1505050505050505050565b3073ffffffffffffffffffffffffffffffffffffffff163373ffffffffffffffffffffffffffffffffffffffff161480613f4d57506001600d600084815260200190815260200160002054115b80613fa15750600e60003373ffffffffffffffffffffffffffffffffffffffff1673ffffffffffffffffffffffffffffffffffffffff16815260200190815260200160002060009054906101000a900460ff165b613ff6576040517f08c379a000000000000000000000000000000000000000000000000000000000815260040180806020018281038252602f815260200180615b8c602f913960400191505060405180910390fd5b61400284848484614bea565b61400c8483613439565b61401683836135f9565b61401f826136bd565b50505050565b6000806000806140388660000186614c62565b915091508160001c8160001c9350935050509250929050565b600061405c82612481565b905061406a81600084614cfb565b6140756000836132f5565b600060086000848152602001908152602001600020805460018160011615610100020316600290049050146140c4576008600083815260200190815260200160002060006140c39190615aac565b5b61411582600160008473ffffffffffffffffffffffffffffffffffffffff1673ffffffffffffffffffffffffffffffffffffffff168152602001908152602001600020614d0090919063ffffffff16565b5061412a826002614d1a90919063ffffffff16565b5081600073ffffffffffffffffffffffffffffffffffffffff168273ffffffffffffffffffffffffffffffffffffffff167fddf252ad1be2c89b69c2b068fc378daa952ba7f163c4a11628f55a4df523b3ef60405160405180910390a45050565b60006141a6600160148054905061472d90919063ffffffff16565b90506000601560008481526020019081526020016000205490506000601483815481106141cf57fe5b9060005260206000200154905080601483815481106141ea57fe5b9060005260206000200181905550816015600083815260200190815260200160002081905550601480548061421b57fe5b600190038181906000526020600020016000905590556000601560008681526020019081526020016000208190555050505050565b6000614263846000018460001b84614d34565b60001c90509392505050565b600061427d82600001614e2a565b9050919050565b606060008214156142cc576040518060400160405280600181526020017f300000000000000000000000000000000000000000000000000000000000000081525090506143c6565b600082905060005b600082146142f6578080600101915050600a82816142ee57fe5b0491506142d4565b60608167ffffffffffffffff8111801561430f57600080fd5b506040519080825280601f01601f1916602001820160405280156143425781602001600182028036833780820191505090505b50905060006001830390508593505b600084146143be57600a848161436357fe5b0660300160f81b8282806001900393508151811061437d57fe5b60200101907effffffffffffffffffffffffffffffffffffffffffffffffffffffffffffff1916908160001a905350600a84816143b657fe5b049350614351565b819450505050505b919050565b60006143dd836000018360001b614e3b565b905092915050565b600081600001805490509050919050565b6000614401826132d0565b614456576040517f08c379a000000000000000000000000000000000000000000000000000000000815260040180806020018281038252602c815260200180615c05602c913960400191505060405180910390fd5b600061446183612481565b90508073ffffffffffffffffffffffffffffffffffffffff168473ffffffffffffffffffffffffffffffffffffffff1614806144d057508373ffffffffffffffffffffffffffffffffffffffff166144b8846113f8565b73ffffffffffffffffffffffffffffffffffffffff16145b806144e157506144e0818561302d565b5b91505092915050565b8273ffffffffffffffffffffffffffffffffffffffff1661450a82612481565b73ffffffffffffffffffffffffffffffffffffffff1614614576576040517f08c379a0000000000000000000000000000000000000000000000000000000008152600401808060200182810382526029815260200180615d636029913960400191505060405180910390fd5b600073ffffffffffffffffffffffffffffffffffffffff168273ffffffffffffffffffffffffffffffffffffffff1614156145fc576040517f08c379a0000000000000000000000000000000000000000000000000000000008152600401808060200182810382526024815260200180615bbb6024913960400191505060405180910390fd5b614607838383614cfb565b6146126000826132f5565b61466381600160008673ffffffffffffffffffffffffffffffffffffffff1673ffffffffffffffffffffffffffffffffffffffff168152602001908152602001600020614d0090919063ffffffff16565b506146b581600160008573ffffffffffffffffffffffffffffffffffffffff1673ffffffffffffffffffffffffffffffffffffffff168152602001908152602001600020614e5e90919063ffffffff16565b506146cc81836002614e789092919063ffffffff16565b50808273ffffffffffffffffffffffffffffffffffffffff168473ffffffffffffffffffffffffffffffffffffffff167fddf252ad1be2c89b69c2b068fc378daa952ba7f163c4a11628f55a4df523b3ef60405160405180910390a4505050565b6000828211156147a5576040517f08c379a000000000000000000000000000000000000000000000000000000000815260040180806020018281038252601e8152602001807f536166654d6174683a207375627472616374696f6e206f766572666c6f77000081525060200191505060405180910390fd5b818303905092915050565b60008082840190508381101561482e576040517f08c379a000000000000000000000000000000000000000000000000000000000815260040180806020018281038252601b8152602001807f536166654d6174683a206164646974696f6e206f766572666c6f77000000000081525060200191505060405180910390fd5b8091505092915050565b600081836000018054905011614899576040517f08c379a0000000000000000000000000000000000000000000000000000000008152600401808060200182810382526022815260200180615b126022913960400191505060405180910390fd5b8260000182815481106148a857fe5b9060005260206000200154905092915050565b60606148f78383604051806020016040528060008152506040518060200160405280600081525060405180602001604052806000815250614ead565b905092915050565b6001816000016000828254019250508190555050565b600081600001549050919050565b600073ffffffffffffffffffffffffffffffffffffffff168273ffffffffffffffffffffffffffffffffffffffff1614156149c6576040517f08c379a00000000000000000000000000000000000000000000000000000000081526004018080602001828103825260208152602001807f4552433732313a206d696e7420746f20746865207a65726f206164647265737381525060200191505060405180910390fd5b6149cf816132d0565b15614a42576040517f08c379a000000000000000000000000000000000000000000000000000000000815260040180806020018281038252601c8152602001807f4552433732313a20746f6b656e20616c7265616479206d696e7465640000000081525060200191505060405180910390fd5b614a4e60008383614cfb565b614a9f81600160008573ffffffffffffffffffffffffffffffffffffffff1673ffffffffffffffffffffffffffffffffffffffff168152602001908152602001600020614e5e90919063ffffffff16565b50614ab681836002614e789092919063ffffffff16565b50808273ffffffffffffffffffffffffffffffffffffffff16600073ffffffffffffffffffffffffffffffffffffffff167fddf252ad1be2c89b69c2b068fc378daa952ba7f163c4a11628f55a4df523b3ef60405160405180910390a45050565b614b20826132d0565b614b75576040517f08c379a000000000000000000000000000000000000000000000000000000000815260040180806020018281038252602c815260200180615d37602c913960400191505060405180910390fd5b80600860008481526020019081526020016000209080519060200190614b9c929190615a12565b505050565b6014805490506015600083815260200190815260200160002081905550601481908060018154018082558091505060019003906000526020600020016000909190919091505550565b614bfb614bf56132ed565b836143f6565b614c50576040517f08c379a0000000000000000000000000000000000000000000000000000000008152600401808060200182810382526031815260200180615ddc6031913960400191505060405180910390fd5b614c5c84848484615177565b50505050565b60008082846000018054905011614cc4576040517f08c379a0000000000000000000000000000000000000000000000000000000008152600401808060200182810382526022815260200180615ce96022913960400191505060405180910390fd5b6000846000018481548110614cd557fe5b906000526020600020906002020190508060000154816001015492509250509250929050565b505050565b6000614d12836000018360001b6151e9565b905092915050565b6000614d2c836000018360001b6152d1565b905092915050565b60008084600101600085815260200190815260200160002054905060008114158390614dfb576040517f08c379a00000000000000000000000000000000000000000000000000000000081526004018080602001828103825283818151815260200191508051906020019080838360005b83811015614dc0578082015181840152602081019050614da5565b50505050905090810190601f168015614ded5780820380516001836020036101000a031916815260200191505b509250505060405180910390fd5b50846000016001820381548110614e0e57fe5b9060005260206000209060020201600101549150509392505050565b600081600001805490509050919050565b600080836001016000848152602001908152602001600020541415905092915050565b6000614e70836000018360001b6153ea565b905092915050565b6000614ea4846000018460001b8473ffffffffffffffffffffffffffffffffffffffff1660001b61545a565b90509392505050565b60608086905060608690506060869050606086905060608690506060815183518551875189510101010167ffffffffffffffff81118015614eed57600080fd5b506040519080825280601f01601f191660200182016040528015614f205781602001600182028036833780820191505090505b50905060608190506000805b8851811015614f9a57888181518110614f4157fe5b602001015160f81c60f81b838380600101945081518110614f5e57fe5b60200101907effffffffffffffffffffffffffffffffffffffffffffffffffffffffffffff1916908160001a9053508080600101915050614f2c565b5060005b875181101561500c57878181518110614fb357fe5b602001015160f81c60f81b838380600101945081518110614fd057fe5b60200101907effffffffffffffffffffffffffffffffffffffffffffffffffffffffffffff1916908160001a9053508080600101915050614f9e565b5060005b865181101561507e5786818151811061502557fe5b602001015160f81c60f81b83838060010194508151811061504257fe5b60200101907effffffffffffffffffffffffffffffffffffffffffffffffffffffffffffff1916908160001a9053508080600101915050615010565b5060005b85518110156150f05785818151811061509757fe5b602001015160f81c60f81b8383806001019450815181106150b457fe5b60200101907effffffffffffffffffffffffffffffffffffffffffffffffffffffffffffff1916908160001a9053508080600101915050615082565b5060005b84518110156151625784818151811061510957fe5b602001015160f81c60f81b83838060010194508151811061512657fe5b60200101907effffffffffffffffffffffffffffffffffffffffffffffffffffffffffffff1916908160001a90535080806001019150506150f4565b50819850505050505050505095945050505050565b6151828484846144ea565b61518e84848484615536565b6151e3576040517f08c379a0000000000000000000000000000000000000000000000000000000008152600401808060200182810382526032815260200180615b346032913960400191505060405180910390fd5b50505050565b600080836001016000848152602001908152602001600020549050600081146152c5576000600182039050600060018660000180549050039050600086600001828154811061523457fe5b906000526020600020015490508087600001848154811061525157fe5b906000526020600020018190555060018301876001016000838152602001908152602001600020819055508660000180548061528957fe5b600190038181906000526020600020016000905590558660010160008781526020019081526020016000206000905560019450505050506152cb565b60009150505b92915050565b600080836001016000848152602001908152602001600020549050600081146153de576000600182039050600060018660000180549050039050600086600001828154811061531c57fe5b906000526020600020906002020190508087600001848154811061533c57fe5b906000526020600020906002020160008201548160000155600182015481600101559050506001830187600101600083600001548152602001908152602001600020819055508660000180548061538f57fe5b60019003818190600052602060002090600202016000808201600090556001820160009055505090558660010160008781526020019081526020016000206000905560019450505050506153e4565b60009150505b92915050565b60006153f6838361574f565b61544f578260000182908060018154018082558091505060019003906000526020600020016000909190919091505582600001805490508360010160008481526020019081526020016000208190555060019050615454565b600090505b92915050565b60008084600101600085815260200190815260200160002054905060008114156155015784600001604051806040016040528086815260200185815250908060018154018082558091505060019003906000526020600020906002020160009091909190915060008201518160000155602082015181600101555050846000018054905085600101600086815260200190815260200160002081905550600191505061552f565b8285600001600183038154811061551457fe5b90600052602060002090600202016001018190555060009150505b9392505050565b60006155578473ffffffffffffffffffffffffffffffffffffffff16615772565b6155645760019050615747565b60606156ce63150b7a0260e01b6155796132ed565b888787604051602401808573ffffffffffffffffffffffffffffffffffffffff1681526020018473ffffffffffffffffffffffffffffffffffffffff16815260200183815260200180602001828103825283818151815260200191508051906020019080838360005b838110156155fd5780820151818401526020810190506155e2565b50505050905090810190601f16801561562a5780820380516001836020036101000a031916815260200191505b5095505050505050604051602081830303815290604052907bffffffffffffffffffffffffffffffffffffffffffffffffffffffff19166020820180517bffffffffffffffffffffffffffffffffffffffffffffffffffffffff8381831617835250505050604051806060016040528060328152602001615b34603291398773ffffffffffffffffffffffffffffffffffffffff166157859092919063ffffffff16565b905060008180602001905160208110156156e757600080fd5b8101908080519060200190929190505050905063150b7a0260e01b7bffffffffffffffffffffffffffffffffffffffffffffffffffffffff1916817bffffffffffffffffffffffffffffffffffffffffffffffffffffffff191614925050505b949350505050565b600080836001016000848152602001908152602001600020541415905092915050565b600080823b905060008111915050919050565b6060615794848460008561579d565b90509392505050565b6060824710156157f8576040517f08c379a0000000000000000000000000000000000000000000000000000000008152600401808060200182810382526026815260200180615bdf6026913960400191505060405180910390fd5b61580185615772565b615873576040517f08c379a000000000000000000000000000000000000000000000000000000000815260040180806020018281038252601d8152602001807f416464726573733a2063616c6c20746f206e6f6e2d636f6e747261637400000081525060200191505060405180910390fd5b600060608673ffffffffffffffffffffffffffffffffffffffff1685876040518082805190602001908083835b602083106158c357805182526020820191506020810190506020830392506158a0565b6001836020036101000a03801982511681845116808217855250505050505090500191505060006040518083038185875af1925050503d8060008114615925576040519150601f19603f3d011682016040523d82523d6000602084013e61592a565b606091505b509150915061593a828286615946565b92505050949350505050565b6060831561595657829050615a0b565b6000835111156159695782518084602001fd5b816040517f08c379a00000000000000000000000000000000000000000000000000000000081526004018080602001828103825283818151815260200191508051906020019080838360005b838110156159d05780820151818401526020810190506159b5565b50505050905090810190601f1680156159fd5780820380516001836020036101000a031916815260200191505b509250505060405180910390fd5b9392505050565b828054600181600116156101000203166002900490600052602060002090601f016020900481019282601f10615a5357805160ff1916838001178555615a81565b82800160010185558215615a81579182015b82811115615a80578251825591602001919060010190615a65565b5b509050615a8e9190615af4565b5090565b604051806040016040528060008152602001600081525090565b50805460018160011615610100020316600290046000825580601f10615ad25750615af1565b601f016020900490600052602060002090810190615af09190615af4565b5b50565b5b80821115615b0d576000816000905550600101615af5565b509056fe456e756d657261626c655365743a20696e646578206f7574206f6620626f756e64734552433732313a207472616e7366657220746f206e6f6e20455243373231526563656976657220696d706c656d656e7465724f776e61626c653a206e6577206f776e657220697320746865207a65726f20616464726573734c696d6974206669727374207472616e73666572206d7573742073616c65206f6e20617274676565206d61726b65744552433732313a207472616e7366657220746f20746865207a65726f2061646472657373416464726573733a20696e73756666696369656e742062616c616e636520666f722063616c6c4552433732313a206f70657261746f7220717565727920666f72206e6f6e6578697374656e7420746f6b656e4552433732313a20617070726f76652063616c6c6572206973206e6f74206f776e6572206e6f7220617070726f76656420666f7220616c6c4552433732313a2062616c616e636520717565727920666f7220746865207a65726f20616464726573734552433732313a206f776e657220717565727920666f72206e6f6e6578697374656e7420746f6b656e6f70657261746f723a207a65726f206164647265737320676976656e20666f72206e6577206f70657261746f72456e756d657261626c654d61703a20696e646578206f7574206f6620626f756e64734552433732313a20617070726f76656420717565727920666f72206e6f6e6578697374656e7420746f6b656e4552433732314d657461646174613a2055524920736574206f66206e6f6e6578697374656e7420746f6b656e4552433732313a207472616e73666572206f6620746f6b656e2074686174206973206e6f74206f776e4552433732314d657461646174613a2055524920717565727920666f72206e6f6e6578697374656e7420746f6b656e4552433732313a20617070726f76616c20746f2063757272656e74206f776e65724552433732313a207472616e736665722063616c6c6572206973206e6f74206f776e6572206e6f7220617070726f766564a26469706673582212209bd1d6388e1b547e6bc5eb2e61cf86df11aa1ab6ec4c2e475ea6ed40be45a8b864736f6c634300060c0033",
  "immutableReferences": {},
  "source": "pragma solidity >=0.6.0 <0.8.0;\n\nimport \"@openzeppelin/contracts/token/ERC721/ERC721.sol\";\nimport \"@openzeppelin/contracts/utils/Counters.sol\";\nimport \"@openzeppelin/contracts/utils/Pausable.sol\";\nimport \"./util/StringUtils.sol\";\nimport \"./owner/Operator.sol\";\nimport \"./interfaces/IDigitalSource.sol\";\n\ncontract ArtGeeNft is ERC721, Operator, Pausable{\n\n    event CreateArt(uint256 _artId, address _owner,uint256 _tokenId, \n                    uint256 _edition,uint256 _totalEdition,string _uri);\n    event UpdateEdition(uint256 _artId, uint256 edition);\n\n    using Counters for Counters.Counter;\n    Counters.Counter private _tokenIds;\n    using SafeMath for uint256;\n\n    //tokenId => limitCount\n    mapping(uint256 => uint256) limitCount;\n    // market => in transfer list\n    mapping(address => bool) transferList;\n\n    IDigitalSource public iDigitalSource;\n\n    mapping(address => bool) public blackList;\n\n    //tokenId => TokenArt\n    mapping(uint256 => TokenArt) public tokenArts;\n\n    struct TokenArt {\n        uint256 artId;\n        uint256 edition;\n    }\n\n     // Mapping from owner to list of owned token IDs\n    mapping(address => uint256[]) private _ownedTokens;\n\n    // Mapping from token ID to index of the owner tokens list\n    mapping(uint256 => uint256) private _ownedTokensIndex;\n\n    // Array with all token ids, used for enumeration\n    uint256[] private _allTokens;\n\n    // Mapping from token id to position in the allTokens array\n    mapping(uint256 => uint256) private _allTokensIndex;\n\n    mapping(address => bool) public miners;\n\n    mapping(uint256 => string) public names;\n\n    modifier onlyNotBlack(){\n        require(blackList[msg.sender],\"Creator not approve\");\n        _;\n    }\n\n    constructor(IDigitalSource _iDigitalSource) public ERC721(\"AAAA\", \"AAAA\") {\n        iDigitalSource = _iDigitalSource;\n        super._setBaseURI(\"ipfs://ipfs/\");\n    }\n\n    function getSourceArtIds() view public returns(uint256[] memory){\n        return iDigitalSource.getArtIds();\n    }\n\n    function getSourceDigitalCreator(uint256 _artId) view public returns(\n                address[] memory creators,\n                uint256[] memory benefits){\n        return iDigitalSource.getDigitalCreator(_artId);\n    }\n\n    // function getSourceDigitalArt(uint256 _artId) view public returns(\n    //             uint256 id,\n    //             uint256 totalEdition,\n    //             uint256 currentEdition,\n    //             address creator,\n    //             address[] memory assistants,\n    //             uint256[] memory benefits,\n    //             string memory uri\n    // ){\n    //     return iDigitalSource.getDigitalArt(_artId);\n    // }\n\n    function tokensOfOwner(address _owner) view public returns(uint256[] memory _tokens){\n        return _ownedTokens[_owner];\n    }\n\n    function addBlackList(address _black) public onlyOwner(){\n        blackList[_black] = true;\n    }\n\n    function removeBlackList(address _black) public onlyOwner(){\n        blackList[_black] = false;\n    }\n\n    function addTransferList(address _transferAddr) public onlyOwner(){\n        transferList[_transferAddr] = true;\n    }\n\n    function removeTransferList(address _transferAddr) public onlyOwner(){\n        transferList[_transferAddr] = false;\n    }\n\n    function setBaseURI(string memory _baseURI) public onlyOwner(){\n        //ipfs://ipfs/\n        super._setBaseURI(_baseURI);\n    }\n\n    function canTransfer(uint256 _tokenId) view public returns(bool) {\n        return limitCount[_tokenId]>1;\n    }\n\n    /**\n     * @dev See {IERC721-transferFrom}.\n     */\n    function transferFrom(address from, address to, uint256 tokenId) public virtual override {\n        //limit first transfer must sale on artgee market\n        require(msg.sender == address(this)\n                || limitCount[tokenId]>1\n                || transferList[msg.sender],\n                \"Limit first transfer must sale on artgee market\");\n        super.transferFrom(from, to, tokenId);\n        _removeTokenFromOwnerEnumeration(from, tokenId);\n        _addTokenToOwnerEnumeration(to, tokenId);\n        _addTransferLimit(tokenId);\n    }\n\n    /**\n     * @dev See {IERC721-safeTransferFrom}.\n     */\n    function safeTransferFrom(address from, address to, uint256 tokenId) public virtual override {\n        _safeTransferFrom(from,to,tokenId,\"\");\n    }\n\n    /**\n     * @dev See {IERC721-safeTransferFrom}.\n     */\n    function safeTransferFrom(address from, address to, uint256 tokenId, bytes memory _data) public virtual override {\n        _safeTransferFrom(from,to,tokenId,_data);\n    }\n\n    function _safeTransferFrom(address from, address to, uint256 tokenId, bytes memory _data) internal {\n        require(msg.sender == address(this)\n                || limitCount[tokenId]>1\n                || transferList[msg.sender],\n                \"Limit first transfer must sale on artgee market\");\n        super.safeTransferFrom(from, to, tokenId, _data);\n        _removeTokenFromOwnerEnumeration(from, tokenId);\n        _addTokenToOwnerEnumeration(to, tokenId);\n        _addTransferLimit(tokenId);\n    }\n\n    function _addTransferLimit(uint256 _tokenId) internal{\n        if(limitCount[_tokenId]==0){\n            limitCount[_tokenId] = limitCount[_tokenId].add(1);\n        }\n    }\n\n    //todo\n    function createArt(address[] memory _assistants,uint256[] memory _benefits,uint256 _totalEdition,\n                string memory _uri,\n                uint256 _count) public whenNotPaused() onlyNotBlack(){\n        uint256 _artId = iDigitalSource.createDigitalArt(\n                                msg.sender,\n                                _assistants, \n                                _benefits, \n                                _totalEdition, \n                                _uri);\n        _createArt(msg.sender, _artId, _count);\n    }\n\n    //todo\n    function addArt(uint256 _artId, uint256 _count) public whenNotPaused() onlyNotBlack(){\n        _createArt(msg.sender, _artId, _count);\n    }\n\n    function _createArt(address _creator,uint256 _artId,uint256 _count)\n        internal\n    {\n        (uint256 id,\n        uint256 totalEdition,\n        uint256 currentEdition,\n        address creator,,,string memory uri)=iDigitalSource.getDigitalArt(_artId);\n        require(msg.sender == creator ,\"Not creator\");\n        require(_count.add(currentEdition) <= totalEdition, \"Total supply exceeded.\");\n        string memory tokenURI = StringUtils.strConcat(baseURI(), uri);\n        for (uint256 index = 0; index < _count; index++) {\n            _tokenIds.increment();\n            uint256 newItemId = _tokenIds.current();\n            uint256 _edition = currentEdition.add(index).add(1);\n            //bind artId\n            TokenArt memory tokenArt = TokenArt(_artId,_edition);\n            //bind current info\n            tokenArts[newItemId] = tokenArt;\n            _mint(_creator, newItemId);\n            _setTokenURI(newItemId, tokenURI);\n            _addTokenToAllTokensEnumeration(newItemId);\n            _addTokenToOwnerEnumeration(_creator, newItemId);\n            emit CreateArt(_artId, _creator, newItemId, \n                    _edition,totalEdition,uri);\n        }\n        iDigitalSource.increaseDigitalArtEdition(_artId, _count);\n        //event\n        emit UpdateEdition(_artId,currentEdition.add(_count));\n    }\n\n    function burnItem(uint256 _id) public{\n        _burn(_id);\n        _removeTokenFromOwnerEnumeration(ownerOf(_id), _id);\n        // Since tokenId will be deleted, we can clear its slot in _ownedTokensIndex to trigger a gas refund\n        _ownedTokensIndex[_id] = 0;\n        _removeTokenFromAllTokensEnumeration(_id);\n    }\n\n    /**\n     * @dev Private function to add a token to this extension's ownership-tracking data structures.\n     * @param to address representing the new owner of the given token ID\n     * @param tokenId uint256 ID of the token to be added to the tokens list of the given address\n     */\n    function _addTokenToOwnerEnumeration(address to, uint256 tokenId) private {\n        _ownedTokensIndex[tokenId] = _ownedTokens[to].length;\n        _ownedTokens[to].push(tokenId);\n    }\n\n    /**\n     * @dev Private function to add a token to this extension's token tracking data structures.\n     * @param tokenId uint256 ID of the token to be added to the tokens list\n     */\n    function _addTokenToAllTokensEnumeration(uint256 tokenId) private {\n        _allTokensIndex[tokenId] = _allTokens.length;\n        _allTokens.push(tokenId);\n    }\n\n     /**\n     * @dev Private function to remove a token from this extension's ownership-tracking data structures. Note that\n     * while the token is not assigned a new owner, the `_ownedTokensIndex` mapping is _not_ updated: this allows for\n     * gas optimizations e.g. when performing a transfer operation (avoiding double writes).\n     * This has O(1) time complexity, but alters the order of the _ownedTokens array.\n     * @param from address representing the previous owner of the given token ID\n     * @param tokenId uint256 ID of the token to be removed from the tokens list of the given address\n     */\n    function _removeTokenFromOwnerEnumeration(address from, uint256 tokenId) private {\n        // To prevent a gap in from's tokens array, we store the last token in the index of the token to delete, and\n        // then delete the last slot (swap and pop).\n\n        uint256 lastTokenIndex = _ownedTokens[from].length.sub(1);\n        uint256 tokenIndex = _ownedTokensIndex[tokenId];\n\n        // When the token to delete is the last token, the swap operation is unnecessary\n        if (tokenIndex != lastTokenIndex) {\n            uint256 lastTokenId = _ownedTokens[from][lastTokenIndex];\n\n            _ownedTokens[from][tokenIndex] = lastTokenId; // Move the last token to the slot of the to-delete token\n            _ownedTokensIndex[lastTokenId] = tokenIndex; // Update the moved token's index\n        }\n\n        // This also deletes the contents at the last position of the array\n        _ownedTokens[from].pop();\n\n        // Note that _ownedTokensIndex[tokenId] hasn't been cleared: it still points to the old slot (now occupied by\n        // lastTokenId, or just over the end of the array if the token was the last one).\n        delete _ownedTokensIndex[tokenId];\n    }\n\n     /**\n     * @dev Private function to remove a token from this extension's token tracking data structures.\n     * This has O(1) time complexity, but alters the order of the _allTokens array.\n     * @param tokenId uint256 ID of the token to be removed from the tokens list\n     */\n    function _removeTokenFromAllTokensEnumeration(uint256 tokenId) private {\n        // To prevent a gap in the tokens array, we store the last token in the index of the token to delete, and\n        // then delete the last slot (swap and pop).\n\n        uint256 lastTokenIndex = _allTokens.length.sub(1);\n        uint256 tokenIndex = _allTokensIndex[tokenId];\n\n        // When the token to delete is the last token, the swap operation is unnecessary. However, since this occurs so\n        // rarely (when the last minted token is burnt) that we still do the swap here to avoid the gas cost of adding\n        uint256 lastTokenId = _allTokens[lastTokenIndex];\n\n        _allTokens[tokenIndex] = lastTokenId; // Move the last token to the slot of the to-delete token\n        _allTokensIndex[lastTokenId] = tokenIndex; // Update the moved token's index\n\n        // This also deletes the contents at the last position of the array\n        _allTokens.pop();\n        _allTokensIndex[tokenId] = 0;\n    }\n}",
  "sourcePath": "/Users/wangban/Downloads/money/coin/other/artgee/ArtGee-Contract/contracts/ArtGeeNft.sol",
  "compiler": {
    "name": "solc",
    "version": "0.6.12+commit.27d51765.Emscripten.clang"
  },
  "schemaVersion": "3.3.2",
  "updatedAt": "2021-04-11T03:39:52.681Z",
  "networkType": "ethereum",
  "devdoc": {
    "kind": "dev",
    "methods": {
      "approve(address,uint256)": {
        "details": "See {IERC721-approve}."
      },
      "balanceOf(address)": {
        "details": "See {IERC721-balanceOf}."
      },
      "baseURI()": {
        "details": "Returns the base URI set via {_setBaseURI}. This will be automatically added as a prefix in {tokenURI} to each token's URI, or to the token ID if no specific URI is set for that token ID."
      },
      "getApproved(uint256)": {
        "details": "See {IERC721-getApproved}."
      },
      "isApprovedForAll(address,address)": {
        "details": "See {IERC721-isApprovedForAll}."
      },
      "name()": {
        "details": "See {IERC721Metadata-name}."
      },
      "owner()": {
        "details": "Returns the address of the current owner."
      },
      "ownerOf(uint256)": {
        "details": "See {IERC721-ownerOf}."
      },
      "paused()": {
        "details": "Returns true if the contract is paused, and false otherwise."
      },
      "renounceOwnership()": {
        "details": "Leaves the contract without owner. It will not be possible to call `onlyOwner` functions anymore. Can only be called by the current owner. NOTE: Renouncing ownership will leave the contract without an owner, thereby removing any functionality that is only available to the owner."
      },
      "safeTransferFrom(address,address,uint256)": {
        "details": "See {IERC721-safeTransferFrom}."
      },
      "safeTransferFrom(address,address,uint256,bytes)": {
        "details": "See {IERC721-safeTransferFrom}."
      },
      "setApprovalForAll(address,bool)": {
        "details": "See {IERC721-setApprovalForAll}."
      },
      "supportsInterface(bytes4)": {
        "details": "See {IERC165-supportsInterface}. Time complexity O(1), guaranteed to always use less than 30 000 gas."
      },
      "symbol()": {
        "details": "See {IERC721Metadata-symbol}."
      },
      "tokenByIndex(uint256)": {
        "details": "See {IERC721Enumerable-tokenByIndex}."
      },
      "tokenOfOwnerByIndex(address,uint256)": {
        "details": "See {IERC721Enumerable-tokenOfOwnerByIndex}."
      },
      "tokenURI(uint256)": {
        "details": "See {IERC721Metadata-tokenURI}."
      },
      "totalSupply()": {
        "details": "See {IERC721Enumerable-totalSupply}."
      },
      "transferFrom(address,address,uint256)": {
        "details": "See {IERC721-transferFrom}."
      },
      "transferOwnership(address)": {
        "details": "Transfers ownership of the contract to a new account (`newOwner`). Can only be called by the current owner."
      }
    },
    "version": 1
  },
  "userdoc": {
    "kind": "user",
    "methods": {},
    "version": 1
  }
}