{
  "contractName": "ArtGeeNft",
  "abi": [
    {
      "inputs": [
        {
          "internalType": "contract IDigitalSource",
          "name": "_iDigitalSource",
          "type": "address"
        }
      ],
      "stateMutability": "nonpayable",
      "type": "constructor"
    },
    {
      "anonymous": false,
      "inputs": [
        {
          "indexed": true,
          "internalType": "address",
          "name": "owner",
          "type": "address"
        },
        {
          "indexed": true,
          "internalType": "address",
          "name": "approved",
          "type": "address"
        },
        {
          "indexed": true,
          "internalType": "uint256",
          "name": "tokenId",
          "type": "uint256"
        }
      ],
      "name": "Approval",
      "type": "event"
    },
    {
      "anonymous": false,
      "inputs": [
        {
          "indexed": true,
          "internalType": "address",
          "name": "owner",
          "type": "address"
        },
        {
          "indexed": true,
          "internalType": "address",
          "name": "operator",
          "type": "address"
        },
        {
          "indexed": false,
          "internalType": "bool",
          "name": "approved",
          "type": "bool"
        }
      ],
      "name": "ApprovalForAll",
      "type": "event"
    },
    {
      "anonymous": false,
      "inputs": [
        {
          "indexed": false,
          "internalType": "uint256",
          "name": "_artId",
          "type": "uint256"
        },
        {
          "indexed": false,
          "internalType": "address",
          "name": "_owner",
          "type": "address"
        },
        {
          "indexed": false,
          "internalType": "uint256",
          "name": "_tokenId",
          "type": "uint256"
        },
        {
          "indexed": false,
          "internalType": "uint256",
          "name": "_edition",
          "type": "uint256"
        },
        {
          "indexed": false,
          "internalType": "uint256",
          "name": "_totalEdition",
          "type": "uint256"
        },
        {
          "indexed": false,
          "internalType": "string",
          "name": "_uri",
          "type": "string"
        }
      ],
      "name": "CreateArt",
      "type": "event"
    },
    {
      "anonymous": false,
      "inputs": [
        {
          "indexed": true,
          "internalType": "address",
          "name": "previousOperator",
          "type": "address"
        },
        {
          "indexed": true,
          "internalType": "address",
          "name": "newOperator",
          "type": "address"
        }
      ],
      "name": "OperatorTransferred",
      "type": "event"
    },
    {
      "anonymous": false,
      "inputs": [
        {
          "indexed": true,
          "internalType": "address",
          "name": "previousOwner",
          "type": "address"
        },
        {
          "indexed": true,
          "internalType": "address",
          "name": "newOwner",
          "type": "address"
        }
      ],
      "name": "OwnershipTransferred",
      "type": "event"
    },
    {
      "anonymous": false,
      "inputs": [
        {
          "indexed": false,
          "internalType": "address",
          "name": "account",
          "type": "address"
        }
      ],
      "name": "Paused",
      "type": "event"
    },
    {
      "anonymous": false,
      "inputs": [
        {
          "indexed": true,
          "internalType": "address",
          "name": "from",
          "type": "address"
        },
        {
          "indexed": true,
          "internalType": "address",
          "name": "to",
          "type": "address"
        },
        {
          "indexed": true,
          "internalType": "uint256",
          "name": "tokenId",
          "type": "uint256"
        }
      ],
      "name": "Transfer",
      "type": "event"
    },
    {
      "anonymous": false,
      "inputs": [
        {
          "indexed": false,
          "internalType": "address",
          "name": "account",
          "type": "address"
        }
      ],
      "name": "Unpaused",
      "type": "event"
    },
    {
      "anonymous": false,
      "inputs": [
        {
          "indexed": false,
          "internalType": "uint256",
          "name": "_artId",
          "type": "uint256"
        },
        {
          "indexed": false,
          "internalType": "uint256",
          "name": "edition",
          "type": "uint256"
        }
      ],
      "name": "UpdateEdition",
      "type": "event"
    },
    {
      "inputs": [
        {
          "internalType": "address",
          "name": "to",
          "type": "address"
        },
        {
          "internalType": "uint256",
          "name": "tokenId",
          "type": "uint256"
        }
      ],
      "name": "approve",
      "outputs": [],
      "stateMutability": "nonpayable",
      "type": "function"
    },
    {
      "inputs": [
        {
          "internalType": "address",
          "name": "owner",
          "type": "address"
        }
      ],
      "name": "balanceOf",
      "outputs": [
        {
          "internalType": "uint256",
          "name": "",
          "type": "uint256"
        }
      ],
      "stateMutability": "view",
      "type": "function",
      "constant": true
    },
    {
      "inputs": [],
      "name": "baseURI",
      "outputs": [
        {
          "internalType": "string",
          "name": "",
          "type": "string"
        }
      ],
      "stateMutability": "view",
      "type": "function",
      "constant": true
    },
    {
      "inputs": [
        {
          "internalType": "address",
          "name": "",
          "type": "address"
        }
      ],
      "name": "blackList",
      "outputs": [
        {
          "internalType": "bool",
          "name": "",
          "type": "bool"
        }
      ],
      "stateMutability": "view",
      "type": "function",
      "constant": true
    },
    {
      "inputs": [
        {
          "internalType": "uint256",
          "name": "tokenId",
          "type": "uint256"
        }
      ],
      "name": "getApproved",
      "outputs": [
        {
          "internalType": "address",
          "name": "",
          "type": "address"
        }
      ],
      "stateMutability": "view",
      "type": "function",
      "constant": true
    },
    {
      "inputs": [],
      "name": "iDigitalSource",
      "outputs": [
        {
          "internalType": "contract IDigitalSource",
          "name": "",
          "type": "address"
        }
      ],
      "stateMutability": "view",
      "type": "function",
      "constant": true
    },
    {
      "inputs": [
        {
          "internalType": "address",
          "name": "owner",
          "type": "address"
        },
        {
          "internalType": "address",
          "name": "operator",
          "type": "address"
        }
      ],
      "name": "isApprovedForAll",
      "outputs": [
        {
          "internalType": "bool",
          "name": "",
          "type": "bool"
        }
      ],
      "stateMutability": "view",
      "type": "function",
      "constant": true
    },
    {
      "inputs": [],
      "name": "isOperator",
      "outputs": [
        {
          "internalType": "bool",
          "name": "",
          "type": "bool"
        }
      ],
      "stateMutability": "view",
      "type": "function",
      "constant": true
    },
    {
      "inputs": [
        {
          "internalType": "uint256",
          "name": "",
          "type": "uint256"
        }
      ],
      "name": "limitCount",
      "outputs": [
        {
          "internalType": "uint256",
          "name": "",
          "type": "uint256"
        }
      ],
      "stateMutability": "view",
      "type": "function",
      "constant": true
    },
    {
      "inputs": [],
      "name": "mTotalEdition",
      "outputs": [
        {
          "internalType": "uint32",
          "name": "",
          "type": "uint32"
        }
      ],
      "stateMutability": "view",
      "type": "function",
      "constant": true
    },
    {
      "inputs": [
        {
          "internalType": "address",
          "name": "",
          "type": "address"
        }
      ],
      "name": "miners",
      "outputs": [
        {
          "internalType": "bool",
          "name": "",
          "type": "bool"
        }
      ],
      "stateMutability": "view",
      "type": "function",
      "constant": true
    },
    {
      "inputs": [],
      "name": "name",
      "outputs": [
        {
          "internalType": "string",
          "name": "",
          "type": "string"
        }
      ],
      "stateMutability": "view",
      "type": "function",
      "constant": true
    },
    {
      "inputs": [],
      "name": "operator",
      "outputs": [
        {
          "internalType": "address",
          "name": "",
          "type": "address"
        }
      ],
      "stateMutability": "view",
      "type": "function",
      "constant": true
    },
    {
      "inputs": [],
      "name": "owner",
      "outputs": [
        {
          "internalType": "address",
          "name": "",
          "type": "address"
        }
      ],
      "stateMutability": "view",
      "type": "function",
      "constant": true
    },
    {
      "inputs": [
        {
          "internalType": "uint256",
          "name": "tokenId",
          "type": "uint256"
        }
      ],
      "name": "ownerOf",
      "outputs": [
        {
          "internalType": "address",
          "name": "",
          "type": "address"
        }
      ],
      "stateMutability": "view",
      "type": "function",
      "constant": true
    },
    {
      "inputs": [],
      "name": "paused",
      "outputs": [
        {
          "internalType": "bool",
          "name": "",
          "type": "bool"
        }
      ],
      "stateMutability": "view",
      "type": "function",
      "constant": true
    },
    {
      "inputs": [],
      "name": "renounceOwnership",
      "outputs": [],
      "stateMutability": "nonpayable",
      "type": "function"
    },
    {
      "inputs": [
        {
          "internalType": "address",
          "name": "operator",
          "type": "address"
        },
        {
          "internalType": "bool",
          "name": "approved",
          "type": "bool"
        }
      ],
      "name": "setApprovalForAll",
      "outputs": [],
      "stateMutability": "nonpayable",
      "type": "function"
    },
    {
      "inputs": [
        {
          "internalType": "bytes4",
          "name": "interfaceId",
          "type": "bytes4"
        }
      ],
      "name": "supportsInterface",
      "outputs": [
        {
          "internalType": "bool",
          "name": "",
          "type": "bool"
        }
      ],
      "stateMutability": "view",
      "type": "function",
      "constant": true
    },
    {
      "inputs": [],
      "name": "symbol",
      "outputs": [
        {
          "internalType": "string",
          "name": "",
          "type": "string"
        }
      ],
      "stateMutability": "view",
      "type": "function",
      "constant": true
    },
    {
      "inputs": [
        {
          "internalType": "uint256",
          "name": "",
          "type": "uint256"
        }
      ],
      "name": "tokenArts",
      "outputs": [
        {
          "internalType": "uint256",
          "name": "artId",
          "type": "uint256"
        },
        {
          "internalType": "uint256",
          "name": "edition",
          "type": "uint256"
        },
        {
          "internalType": "uint256",
          "name": "totalEdition",
          "type": "uint256"
        }
      ],
      "stateMutability": "view",
      "type": "function",
      "constant": true
    },
    {
      "inputs": [
        {
          "internalType": "uint256",
          "name": "index",
          "type": "uint256"
        }
      ],
      "name": "tokenByIndex",
      "outputs": [
        {
          "internalType": "uint256",
          "name": "",
          "type": "uint256"
        }
      ],
      "stateMutability": "view",
      "type": "function",
      "constant": true
    },
    {
      "inputs": [
        {
          "internalType": "address",
          "name": "owner",
          "type": "address"
        },
        {
          "internalType": "uint256",
          "name": "index",
          "type": "uint256"
        }
      ],
      "name": "tokenOfOwnerByIndex",
      "outputs": [
        {
          "internalType": "uint256",
          "name": "",
          "type": "uint256"
        }
      ],
      "stateMutability": "view",
      "type": "function",
      "constant": true
    },
    {
      "inputs": [
        {
          "internalType": "uint256",
          "name": "tokenId",
          "type": "uint256"
        }
      ],
      "name": "tokenURI",
      "outputs": [
        {
          "internalType": "string",
          "name": "",
          "type": "string"
        }
      ],
      "stateMutability": "view",
      "type": "function",
      "constant": true
    },
    {
      "inputs": [],
      "name": "totalSupply",
      "outputs": [
        {
          "internalType": "uint256",
          "name": "",
          "type": "uint256"
        }
      ],
      "stateMutability": "view",
      "type": "function",
      "constant": true
    },
    {
      "inputs": [
        {
          "internalType": "address",
          "name": "newOperator_",
          "type": "address"
        }
      ],
      "name": "transferOperator",
      "outputs": [],
      "stateMutability": "nonpayable",
      "type": "function"
    },
    {
      "inputs": [
        {
          "internalType": "address",
          "name": "newOwner",
          "type": "address"
        }
      ],
      "name": "transferOwnership",
      "outputs": [],
      "stateMutability": "nonpayable",
      "type": "function"
    },
    {
      "inputs": [
        {
          "internalType": "uint256",
          "name": "_artId",
          "type": "uint256"
        }
      ],
      "name": "getSourceDigitalArt",
      "outputs": [
        {
          "internalType": "uint256",
          "name": "id",
          "type": "uint256"
        },
        {
          "internalType": "uint256",
          "name": "totalEdition",
          "type": "uint256"
        },
        {
          "internalType": "uint256",
          "name": "currentEdition",
          "type": "uint256"
        },
        {
          "internalType": "address",
          "name": "creator",
          "type": "address"
        },
        {
          "internalType": "address[]",
          "name": "assistants",
          "type": "address[]"
        },
        {
          "internalType": "uint256[]",
          "name": "benefits",
          "type": "uint256[]"
        },
        {
          "internalType": "string",
          "name": "uri",
          "type": "string"
        }
      ],
      "stateMutability": "view",
      "type": "function",
      "constant": true
    },
    {
      "inputs": [
        {
          "internalType": "address",
          "name": "_owner",
          "type": "address"
        }
      ],
      "name": "tokensOfOwner",
      "outputs": [
        {
          "internalType": "uint256[]",
          "name": "_tokens",
          "type": "uint256[]"
        }
      ],
      "stateMutability": "view",
      "type": "function",
      "constant": true
    },
    {
      "inputs": [
        {
          "internalType": "address",
          "name": "_black",
          "type": "address"
        }
      ],
      "name": "addBlackList",
      "outputs": [],
      "stateMutability": "nonpayable",
      "type": "function"
    },
    {
      "inputs": [
        {
          "internalType": "address",
          "name": "_black",
          "type": "address"
        }
      ],
      "name": "removeBlackList",
      "outputs": [],
      "stateMutability": "nonpayable",
      "type": "function"
    },
    {
      "inputs": [
        {
          "internalType": "uint32",
          "name": "_mTotalEdition",
          "type": "uint32"
        }
      ],
      "name": "SetMTotalEdition",
      "outputs": [],
      "stateMutability": "nonpayable",
      "type": "function"
    },
    {
      "inputs": [
        {
          "internalType": "address",
          "name": "_transferAddr",
          "type": "address"
        }
      ],
      "name": "addTransferList",
      "outputs": [],
      "stateMutability": "nonpayable",
      "type": "function"
    },
    {
      "inputs": [
        {
          "internalType": "address",
          "name": "_transferAddr",
          "type": "address"
        }
      ],
      "name": "removeTransferList",
      "outputs": [],
      "stateMutability": "nonpayable",
      "type": "function"
    },
    {
      "inputs": [
        {
          "internalType": "string",
          "name": "_baseURI",
          "type": "string"
        }
      ],
      "name": "setBaseURI",
      "outputs": [],
      "stateMutability": "nonpayable",
      "type": "function"
    },
    {
      "inputs": [
        {
          "internalType": "address",
          "name": "from",
          "type": "address"
        },
        {
          "internalType": "address",
          "name": "to",
          "type": "address"
        },
        {
          "internalType": "uint256",
          "name": "tokenId",
          "type": "uint256"
        }
      ],
      "name": "transferFrom",
      "outputs": [],
      "stateMutability": "nonpayable",
      "type": "function"
    },
    {
      "inputs": [
        {
          "internalType": "address",
          "name": "from",
          "type": "address"
        },
        {
          "internalType": "address",
          "name": "to",
          "type": "address"
        },
        {
          "internalType": "uint256",
          "name": "tokenId",
          "type": "uint256"
        }
      ],
      "name": "safeTransferFrom",
      "outputs": [],
      "stateMutability": "nonpayable",
      "type": "function"
    },
    {
      "inputs": [
        {
          "internalType": "address",
          "name": "from",
          "type": "address"
        },
        {
          "internalType": "address",
          "name": "to",
          "type": "address"
        },
        {
          "internalType": "uint256",
          "name": "tokenId",
          "type": "uint256"
        },
        {
          "internalType": "bytes",
          "name": "_data",
          "type": "bytes"
        }
      ],
      "name": "safeTransferFrom",
      "outputs": [],
      "stateMutability": "nonpayable",
      "type": "function"
    },
    {
      "inputs": [
        {
          "internalType": "address[]",
          "name": "_assistants",
          "type": "address[]"
        },
        {
          "internalType": "uint256[]",
          "name": "_benefits",
          "type": "uint256[]"
        },
        {
          "internalType": "uint256",
          "name": "_totalEdition",
          "type": "uint256"
        },
        {
          "internalType": "string",
          "name": "_uri",
          "type": "string"
        },
        {
          "internalType": "uint256",
          "name": "_count",
          "type": "uint256"
        }
      ],
      "name": "createArt",
      "outputs": [],
      "stateMutability": "nonpayable",
      "type": "function"
    },
    {
      "inputs": [
        {
          "internalType": "uint256",
          "name": "_artId",
          "type": "uint256"
        },
        {
          "internalType": "uint256",
          "name": "_count",
          "type": "uint256"
        }
      ],
      "name": "addArt",
      "outputs": [],
      "stateMutability": "nonpayable",
      "type": "function"
    },
    {
      "inputs": [
        {
          "internalType": "uint256",
          "name": "_id",
          "type": "uint256"
        }
      ],
      "name": "burnItem",
      "outputs": [],
      "stateMutability": "nonpayable",
      "type": "function"
    }
  ],
  "bytecode": "0x6080604052612710601260006101000a81548163ffffffff021916908363ffffffff1602179055503480156200003457600080fd5b506040516200630a3803806200630a833981810160405260208110156200005a57600080fd5b81019080805190602001909291905050506040518060400160405280600481526020017f41414141000000000000000000000000000000000000000000000000000000008152506040518060400160405280600481526020017f4141414100000000000000000000000000000000000000000000000000000000815250620000ef6301ffc9a760e01b6200039760201b60201c565b816006908051906020019062000107929190620004c4565b50806007908051906020019062000120929190620004c4565b50620001396380ac58cd60e01b6200039760201b60201c565b62000151635b5e139f60e01b6200039760201b60201c565b6200016963780e9d6360e01b6200039760201b60201c565b505060006200017d620004a060201b60201c565b905080600a60006101000a81548173ffffffffffffffffffffffffffffffffffffffff021916908373ffffffffffffffffffffffffffffffffffffffff1602179055508073ffffffffffffffffffffffffffffffffffffffff16600073ffffffffffffffffffffffffffffffffffffffff167f8be0079c531659141344cd1fd0a4f28419497f9722a3daafe3b4186f6b6457e060405160405180910390a3506200022c620004a060201b60201c565b600b60006101000a81548173ffffffffffffffffffffffffffffffffffffffff021916908373ffffffffffffffffffffffffffffffffffffffff160217905550600b60009054906101000a900473ffffffffffffffffffffffffffffffffffffffff1673ffffffffffffffffffffffffffffffffffffffff16600073ffffffffffffffffffffffffffffffffffffffff167f74da04524d50c64947f5dd5381ef1a4dca5cba8ed1d816243f9e48aa0b5617ed60405160405180910390a36000600b60146101000a81548160ff02191690831515021790555080600f60006101000a81548173ffffffffffffffffffffffffffffffffffffffff021916908373ffffffffffffffffffffffffffffffffffffffff160217905550620003906040518060400160405280600c81526020017f697066733a2f2f697066732f0000000000000000000000000000000000000000815250620004a860201b6200382f1760201c565b506200056a565b63ffffffff60e01b817bffffffffffffffffffffffffffffffffffffffffffffffffffffffff1916141562000434576040517f08c379a000000000000000000000000000000000000000000000000000000000815260040180806020018281038252601c8152602001807f4552433136353a20696e76616c696420696e746572666163652069640000000081525060200191505060405180910390fd5b6001600080837bffffffffffffffffffffffffffffffffffffffffffffffffffffffff19167bffffffffffffffffffffffffffffffffffffffffffffffffffffffff1916815260200190815260200160002060006101000a81548160ff02191690831515021790555050565b600033905090565b8060099080519060200190620004c0929190620004c4565b5050565b828054600181600116156101000203166002900490600052602060002090601f016020900481019282601f106200050757805160ff191683800117855562000538565b8280016001018555821562000538579182015b82811115620005375782518255916020019190600101906200051a565b5b5090506200054791906200054b565b5090565b5b80821115620005665760008160009055506001016200054c565b5090565b615d90806200057a6000396000f3fe608060405234801561001057600080fd5b50600436106102535760003560e01c8063570ca735116101465780638da5cb5b116100c3578063c87b56dd11610087578063c87b56dd14610f9e578063de14eba214611045578063e4997dc514611079578063e726d96b146110bd578063e985e9c514611226578063f2fde38b146112a057610253565b80638da5cb5b14610d4257806395d89b4114610d76578063a22cb46514610df9578063abb03ba614610e49578063b88d4fde14610e9957610253565b80636c0360eb1161010a5780636c0360eb14610b8257806370a0823114610c05578063715018a614610c5d5780637913191214610c675780638462151c14610ca957610253565b8063570ca73514610a4e578063576cc0f714610a825780635c975abb14610ab05780636352211e14610ad0578063648ec7b914610b2857610253565b806329605e77116101d457806342842e0e1161019857806342842e0e146108695780634456eda2146108d75780634838d165146108f75780634f6ccce71461095157806355f804b31461099357610253565b806329605e77146105705780632f745c59146105b4578063334b49a914610616578063391d7dc91461064e5780633ea80cd21461067257610253565b80630ecb93c01161021b5780630ecb93c014610428578063111531521461046c57806318160ddd146104a05780631f8fb86d146104be57806323b872dd1461050257610253565b806301ffc9a71461025857806306fdde03146102bb578063081812fc1461033e5780630825c38614610396578063095ea7b3146103da575b600080fd5b6102a36004803603602081101561026e57600080fd5b8101908080357bffffffffffffffffffffffffffffffffffffffffffffffffffffffff191690602001909291905050506112e4565b60405180821515815260200191505060405180910390f35b6102c361134b565b6040518080602001828103825283818151815260200191508051906020019080838360005b838110156103035780820151818401526020810190506102e8565b50505050905090810190601f1680156103305780820380516001836020036101000a031916815260200191505b509250505060405180910390f35b61036a6004803603602081101561035457600080fd5b81019080803590602001909291905050506113ed565b604051808273ffffffffffffffffffffffffffffffffffffffff16815260200191505060405180910390f35b6103d8600480360360208110156103ac57600080fd5b81019080803573ffffffffffffffffffffffffffffffffffffffff169060200190929190505050611488565b005b610426600480360360408110156103f057600080fd5b81019080803573ffffffffffffffffffffffffffffffffffffffff16906020019092919080359060200190929190505050611592565b005b61046a6004803603602081101561043e57600080fd5b81019080803573ffffffffffffffffffffffffffffffffffffffff1690602001909291905050506116d6565b005b6104746117e0565b604051808273ffffffffffffffffffffffffffffffffffffffff16815260200191505060405180910390f35b6104a8611806565b6040518082815260200191505060405180910390f35b610500600480360360208110156104d457600080fd5b81019080803573ffffffffffffffffffffffffffffffffffffffff169060200190929190505050611817565b005b61056e6004803603606081101561051857600080fd5b81019080803573ffffffffffffffffffffffffffffffffffffffff169060200190929190803573ffffffffffffffffffffffffffffffffffffffff16906020019092919080359060200190929190505050611921565b005b6105b26004803603602081101561058657600080fd5b81019080803573ffffffffffffffffffffffffffffffffffffffff169060200190929190505050611a98565b005b610600600480360360408110156105ca57600080fd5b81019080803573ffffffffffffffffffffffffffffffffffffffff16906020019092919080359060200190929190505050611b53565b6040518082815260200191505060405180910390f35b61064c6004803603604081101561062c57600080fd5b810190808035906020019092919080359060200190929190505050611bae565b005b61065661206b565b604051808263ffffffff16815260200191505060405180910390f35b610867600480360360a081101561068857600080fd5b81019080803590602001906401000000008111156106a557600080fd5b8201836020820111156106b757600080fd5b803590602001918460208302840111640100000000831117156106d957600080fd5b919080806020026020016040519081016040528093929190818152602001838360200280828437600081840152601f19601f8201169050808301925050505050505091929192908035906020019064010000000081111561073957600080fd5b82018360208201111561074b57600080fd5b8035906020019184602083028401116401000000008311171561076d57600080fd5b919080806020026020016040519081016040528093929190818152602001838360200280828437600081840152601f19601f82011690508083019250505050505050919291929080359060200190929190803590602001906401000000008111156107d757600080fd5b8201836020820111156107e957600080fd5b8035906020019184600183028401116401000000008311171561080b57600080fd5b91908080601f016020809104026020016040519081016040528093929190818152602001838380828437600081840152601f19601f82011690508083019250505050505050919291929080359060200190929190505050612081565b005b6108d56004803603606081101561087f57600080fd5b81019080803573ffffffffffffffffffffffffffffffffffffffff169060200190929190803573ffffffffffffffffffffffffffffffffffffffff16906020019092919080359060200190929190505050612571565b005b6108df612591565b60405180821515815260200191505060405180910390f35b6109396004803603602081101561090d57600080fd5b81019080803573ffffffffffffffffffffffffffffffffffffffff1690602001909291905050506125f0565b60405180821515815260200191505060405180910390f35b61097d6004803603602081101561096757600080fd5b8101908080359060200190929190505050612610565b6040518082815260200191505060405180910390f35b610a4c600480360360208110156109a957600080fd5b81019080803590602001906401000000008111156109c657600080fd5b8201836020820111156109d857600080fd5b803590602001918460018302840111640100000000831117156109fa57600080fd5b91908080601f016020809104026020016040519081016040528093929190818152602001838380828437600081840152601f19601f820116905080830192505050505050509192919290505050612633565b005b610a566126ee565b604051808273ffffffffffffffffffffffffffffffffffffffff16815260200191505060405180910390f35b610aae60048036036020811015610a9857600080fd5b8101908080359060200190929190505050612718565b005b610ab8612758565b60405180821515815260200191505060405180910390f35b610afc60048036036020811015610ae657600080fd5b810190808035906020019092919050505061276f565b604051808273ffffffffffffffffffffffffffffffffffffffff16815260200191505060405180910390f35b610b6a60048036036020811015610b3e57600080fd5b81019080803573ffffffffffffffffffffffffffffffffffffffff1690602001909291905050506127a6565b60405180821515815260200191505060405180910390f35b610b8a6127c6565b6040518080602001828103825283818151815260200191508051906020019080838360005b83811015610bca578082015181840152602081019050610baf565b50505050905090810190601f168015610bf75780820380516001836020036101000a031916815260200191505b509250505060405180910390f35b610c4760048036036020811015610c1b57600080fd5b81019080803573ffffffffffffffffffffffffffffffffffffffff169060200190929190505050612868565b6040518082815260200191505060405180910390f35b610c6561293d565b005b610c9360048036036020811015610c7d57600080fd5b8101908080359060200190929190505050612aad565b6040518082815260200191505060405180910390f35b610ceb60048036036020811015610cbf57600080fd5b81019080803573ffffffffffffffffffffffffffffffffffffffff169060200190929190505050612ac5565b6040518080602001828103825283818151815260200191508051906020019060200280838360005b83811015610d2e578082015181840152602081019050610d13565b505050509050019250505060405180910390f35b610d4a612b5c565b604051808273ffffffffffffffffffffffffffffffffffffffff16815260200191505060405180910390f35b610d7e612b86565b6040518080602001828103825283818151815260200191508051906020019080838360005b83811015610dbe578082015181840152602081019050610da3565b50505050905090810190601f168015610deb5780820380516001836020036101000a031916815260200191505b509250505060405180910390f35b610e4760048036036040811015610e0f57600080fd5b81019080803573ffffffffffffffffffffffffffffffffffffffff169060200190929190803515159060200190929190505050612c28565b005b610e7560048036036020811015610e5f57600080fd5b8101908080359060200190929190505050612dde565b60405180848152602001838152602001828152602001935050505060405180910390f35b610f9c60048036036080811015610eaf57600080fd5b81019080803573ffffffffffffffffffffffffffffffffffffffff169060200190929190803573ffffffffffffffffffffffffffffffffffffffff1690602001909291908035906020019092919080359060200190640100000000811115610f1657600080fd5b820183602082011115610f2857600080fd5b80359060200191846001830284011164010000000083111715610f4a57600080fd5b91908080601f016020809104026020016040519081016040528093929190818152602001838380828437600081840152601f19601f820116905080830192505050505050509192919290505050612e08565b005b610fca60048036036020811015610fb457600080fd5b8101908080359060200190929190505050612e1a565b6040518080602001828103825283818151815260200191508051906020019080838360005b8381101561100a578082015181840152602081019050610fef565b50505050905090810190601f1680156110375780820380516001836020036101000a031916815260200191505b509250505060405180910390f35b6110776004803603602081101561105b57600080fd5b81019080803563ffffffff1690602001909291905050506130eb565b005b6110bb6004803603602081101561108f57600080fd5b81019080803573ffffffffffffffffffffffffffffffffffffffff1690602001909291905050506131be565b005b6110e9600480360360208110156110d357600080fd5b81019080803590602001909291905050506132c8565b604051808881526020018781526020018681526020018573ffffffffffffffffffffffffffffffffffffffff168152602001806020018060200180602001848103845287818151815260200191508051906020019060200280838360005b83811015611162578082015181840152602081019050611147565b50505050905001848103835286818151815260200191508051906020019060200280838360005b838110156111a4578082015181840152602081019050611189565b50505050905001848103825285818151815260200191508051906020019080838360005b838110156111e35780820151818401526020810190506111c8565b50505050905090810190601f1680156112105780820380516001836020036101000a031916815260200191505b509a505050505050505050505060405180910390f35b6112886004803603604081101561123c57600080fd5b81019080803573ffffffffffffffffffffffffffffffffffffffff169060200190929190803573ffffffffffffffffffffffffffffffffffffffff1690602001909291905050506135a6565b60405180821515815260200191505060405180910390f35b6112e2600480360360208110156112b657600080fd5b81019080803573ffffffffffffffffffffffffffffffffffffffff16906020019092919050505061363a565b005b6000806000837bffffffffffffffffffffffffffffffffffffffffffffffffffffffff19167bffffffffffffffffffffffffffffffffffffffffffffffffffffffff1916815260200190815260200160002060009054906101000a900460ff169050919050565b606060068054600181600116156101000203166002900480601f0160208091040260200160405190810160405280929190818152602001828054600181600116156101000203166002900480156113e35780601f106113b8576101008083540402835291602001916113e3565b820191906000526020600020905b8154815290600101906020018083116113c657829003601f168201915b5050505050905090565b60006113f882613849565b61144d576040517f08c379a000000000000000000000000000000000000000000000000000000000815260040180806020018281038252602c815260200180615c59602c913960400191505060405180910390fd5b6004600083815260200190815260200160002060009054906101000a900473ffffffffffffffffffffffffffffffffffffffff169050919050565b611490613866565b73ffffffffffffffffffffffffffffffffffffffff166114ae612b5c565b73ffffffffffffffffffffffffffffffffffffffff1614611537576040517f08c379a00000000000000000000000000000000000000000000000000000000081526004018080602001828103825260208152602001807f4f776e61626c653a2063616c6c6572206973206e6f7420746865206f776e657281525060200191505060405180910390fd5b6000600e60008373ffffffffffffffffffffffffffffffffffffffff1673ffffffffffffffffffffffffffffffffffffffff16815260200190815260200160002060006101000a81548160ff02191690831515021790555050565b600061159d8261276f565b90508073ffffffffffffffffffffffffffffffffffffffff168373ffffffffffffffffffffffffffffffffffffffff161415611624576040517f08c379a0000000000000000000000000000000000000000000000000000000008152600401808060200182810382526021815260200180615d096021913960400191505060405180910390fd5b8073ffffffffffffffffffffffffffffffffffffffff16611643613866565b73ffffffffffffffffffffffffffffffffffffffff16148061167257506116718161166c613866565b6135a6565b5b6116c7576040517f08c379a0000000000000000000000000000000000000000000000000000000008152600401808060200182810382526038815260200180615b7f6038913960400191505060405180910390fd5b6116d1838361386e565b505050565b6116de613866565b73ffffffffffffffffffffffffffffffffffffffff166116fc612b5c565b73ffffffffffffffffffffffffffffffffffffffff1614611785576040517f08c379a00000000000000000000000000000000000000000000000000000000081526004018080602001828103825260208152602001807f4f776e61626c653a2063616c6c6572206973206e6f7420746865206f776e657281525060200191505060405180910390fd5b6001601060008373ffffffffffffffffffffffffffffffffffffffff1673ffffffffffffffffffffffffffffffffffffffff16815260200190815260200160002060006101000a81548160ff02191690831515021790555050565b600f60009054906101000a900473ffffffffffffffffffffffffffffffffffffffff1681565b60006118126002613927565b905090565b61181f613866565b73ffffffffffffffffffffffffffffffffffffffff1661183d612b5c565b73ffffffffffffffffffffffffffffffffffffffff16146118c6576040517f08c379a00000000000000000000000000000000000000000000000000000000081526004018080602001828103825260208152602001807f4f776e61626c653a2063616c6c6572206973206e6f7420746865206f776e657281525060200191505060405180910390fd5b6001600e60008373ffffffffffffffffffffffffffffffffffffffff1673ffffffffffffffffffffffffffffffffffffffff16815260200190815260200160002060006101000a81548160ff02191690831515021790555050565b3073ffffffffffffffffffffffffffffffffffffffff168373ffffffffffffffffffffffffffffffffffffffff16148061196e57506000600d600083815260200190815260200160002054115b806119c25750600e60008473ffffffffffffffffffffffffffffffffffffffff1673ffffffffffffffffffffffffffffffffffffffff16815260200190815260200160002060009054906101000a900460ff165b80611a165750600e60008373ffffffffffffffffffffffffffffffffffffffff1673ffffffffffffffffffffffffffffffffffffffff16815260200190815260200160002060009054906101000a900460ff165b611a6b576040517f08c379a000000000000000000000000000000000000000000000000000000000815260040180806020018281038252602f815260200180615ada602f913960400191505060405180910390fd5b611a7683838361393c565b611a8083826139b2565b611a8a8282613b72565b611a9381613c36565b505050565b611aa0613866565b73ffffffffffffffffffffffffffffffffffffffff16611abe612b5c565b73ffffffffffffffffffffffffffffffffffffffff1614611b47576040517f08c379a00000000000000000000000000000000000000000000000000000000081526004018080602001828103825260208152602001807f4f776e61626c653a2063616c6c6572206973206e6f7420746865206f776e657281525060200191505060405180910390fd5b611b5081613c94565b50565b6000611ba682600160008673ffffffffffffffffffffffffffffffffffffffff1673ffffffffffffffffffffffffffffffffffffffff168152602001908152602001600020613db990919063ffffffff16565b905092915050565b611bb6612758565b15611c29576040517f08c379a00000000000000000000000000000000000000000000000000000000081526004018080602001828103825260108152602001807f5061757361626c653a207061757365640000000000000000000000000000000081525060200191505060405180910390fd5b601060003373ffffffffffffffffffffffffffffffffffffffff1673ffffffffffffffffffffffffffffffffffffffff16815260200190815260200160002060009054906101000a900460ff1615611ce9576040517f08c379a00000000000000000000000000000000000000000000000000000000081526004018080602001828103825260138152602001807f43726561746f72206e6f7420617070726f76650000000000000000000000000081525060200191505060405180910390fd5b60008060006060600f60009054906101000a900473ffffffffffffffffffffffffffffffffffffffff1673ffffffffffffffffffffffffffffffffffffffff16636e4ce25c876040518263ffffffff1660e01b81526004018082815260200191505060006040518083038186803b158015611d6357600080fd5b505afa158015611d77573d6000803e3d6000fd5b505050506040513d6000823e3d601f19601f8201168201806040525060e0811015611da157600080fd5b810190808051906020019092919080519060200190929190805190602001909291908051906020019092919080516040519392919084640100000000821115611de957600080fd5b83820191506020820185811115611dff57600080fd5b8251866020820283011164010000000082111715611e1c57600080fd5b8083526020830192505050908051906020019060200280838360005b83811015611e53578082015181840152602081019050611e38565b5050505090500160405260200180516040519392919084640100000000821115611e7c57600080fd5b83820191506020820185811115611e9257600080fd5b8251866020820283011164010000000082111715611eaf57600080fd5b8083526020830192505050908051906020019060200280838360005b83811015611ee6578082015181840152602081019050611ecb565b5050505090500160405260200180516040519392919084640100000000821115611f0f57600080fd5b83820191506020820185811115611f2557600080fd5b8251866001820283011164010000000082111715611f4257600080fd5b8083526020830192505050908051906020019080838360005b83811015611f76578082015181840152602081019050611f5b565b50505050905090810190601f168015611fa35780820380516001836020036101000a031916815260200191505b5060405250505096505050945094509450508173ffffffffffffffffffffffffffffffffffffffff163373ffffffffffffffffffffffffffffffffffffffff1614612056576040517f08c379a000000000000000000000000000000000000000000000000000000000815260040180806020018281038252600b8152602001807f4e6f742063726561746f7200000000000000000000000000000000000000000081525060200191505060405180910390fd5b6120638686858785613dd3565b505050505050565b601260009054906101000a900463ffffffff1681565b612089612758565b156120fc576040517f08c379a00000000000000000000000000000000000000000000000000000000081526004018080602001828103825260108152602001807f5061757361626c653a207061757365640000000000000000000000000000000081525060200191505060405180910390fd5b601060003373ffffffffffffffffffffffffffffffffffffffff1673ffffffffffffffffffffffffffffffffffffffff16815260200190815260200160002060009054906101000a900460ff16156121bc576040517f08c379a00000000000000000000000000000000000000000000000000000000081526004018080602001828103825260148152602001807f43726561746f7220697320666f7262696464656e00000000000000000000000081525060200191505060405180910390fd5b6000855111156122fc578351600186510114612240576040517f08c379a00000000000000000000000000000000000000000000000000000000081526004018080602001828103825260158152602001807f42656e6566697473206c656e677468206572726f72000000000000000000000081525060200191505060405180910390fd5b6000805b85518110156122825761227386828151811061225c57fe5b60200260200101518361410190919063ffffffff16565b91508080600101915050612244565b506103e881146122fa576040517f08c379a000000000000000000000000000000000000000000000000000000000815260040180806020018281038252600e8152602001807f42656e6566697473206572726f7200000000000000000000000000000000000081525060200191505060405180910390fd5b505b601260009054906101000a900463ffffffff1663ffffffff1683111561238a576040517f08c379a00000000000000000000000000000000000000000000000000000000081526004018080602001828103825260168152602001807f546f74616c2065646974696f6e206f766572666c6f770000000000000000000081525060200191505060405180910390fd5b6000600f60009054906101000a900473ffffffffffffffffffffffffffffffffffffffff1673ffffffffffffffffffffffffffffffffffffffff16631b34e19433888888886040518663ffffffff1660e01b8152600401808673ffffffffffffffffffffffffffffffffffffffff168152602001806020018060200185815260200180602001848103845288818151815260200191508051906020019060200280838360005b8381101561244b578082015181840152602081019050612430565b50505050905001848103835287818151815260200191508051906020019060200280838360005b8381101561248d578082015181840152602081019050612472565b50505050905001848103825285818151815260200191508051906020019080838360005b838110156124cc5780820151818401526020810190506124b1565b50505050905090810190601f1680156124f95780820380516001836020036101000a031916815260200191505b5098505050505050505050602060405180830381600087803b15801561251e57600080fd5b505af1158015612532573d6000803e3d6000fd5b505050506040513d602081101561254857600080fd5b81019080805190602001909291905050509050612569818360008787613dd3565b505050505050565b61258c83838360405180602001604052806000815250614189565b505050565b6000600b60009054906101000a900473ffffffffffffffffffffffffffffffffffffffff1673ffffffffffffffffffffffffffffffffffffffff166125d4613866565b73ffffffffffffffffffffffffffffffffffffffff1614905090565b60106020528060005260406000206000915054906101000a900460ff1681565b60008061262783600261430290919063ffffffff16565b50905080915050919050565b61263b613866565b73ffffffffffffffffffffffffffffffffffffffff16612659612b5c565b73ffffffffffffffffffffffffffffffffffffffff16146126e2576040517f08c379a00000000000000000000000000000000000000000000000000000000081526004018080602001828103825260208152602001807f4f776e61626c653a2063616c6c6572206973206e6f7420746865206f776e657281525060200191505060405180910390fd5b6126eb8161382f565b50565b6000600b60009054906101000a900473ffffffffffffffffffffffffffffffffffffffff16905090565b6127218161432e565b61273361272d8261276f565b826139b2565b6000601460008381526020019081526020016000208190555061275581614468565b50565b6000600b60149054906101000a900460ff16905090565b600061279f82604051806060016040528060298152602001615be160299139600261452d9092919063ffffffff16565b9050919050565b60176020528060005260406000206000915054906101000a900460ff1681565b606060098054600181600116156101000203166002900480601f01602080910402602001604051908101604052809291908181526020018280546001816001161561010002031660029004801561285e5780601f106128335761010080835404028352916020019161285e565b820191906000526020600020905b81548152906001019060200180831161284157829003601f168201915b5050505050905090565b60008073ffffffffffffffffffffffffffffffffffffffff168273ffffffffffffffffffffffffffffffffffffffff1614156128ef576040517f08c379a000000000000000000000000000000000000000000000000000000000815260040180806020018281038252602a815260200180615bb7602a913960400191505060405180910390fd5b612936600160008473ffffffffffffffffffffffffffffffffffffffff1673ffffffffffffffffffffffffffffffffffffffff16815260200190815260200160002061454c565b9050919050565b612945613866565b73ffffffffffffffffffffffffffffffffffffffff16612963612b5c565b73ffffffffffffffffffffffffffffffffffffffff16146129ec576040517f08c379a00000000000000000000000000000000000000000000000000000000081526004018080602001828103825260208152602001807f4f776e61626c653a2063616c6c6572206973206e6f7420746865206f776e657281525060200191505060405180910390fd5b600073ffffffffffffffffffffffffffffffffffffffff16600a60009054906101000a900473ffffffffffffffffffffffffffffffffffffffff1673ffffffffffffffffffffffffffffffffffffffff167f8be0079c531659141344cd1fd0a4f28419497f9722a3daafe3b4186f6b6457e060405160405180910390a36000600a60006101000a81548173ffffffffffffffffffffffffffffffffffffffff021916908373ffffffffffffffffffffffffffffffffffffffff160217905550565b600d6020528060005260406000206000915090505481565b6060601360008373ffffffffffffffffffffffffffffffffffffffff1673ffffffffffffffffffffffffffffffffffffffff168152602001908152602001600020805480602002602001604051908101604052809291908181526020018280548015612b5057602002820191906000526020600020905b815481526020019060010190808311612b3c575b50505050509050919050565b6000600a60009054906101000a900473ffffffffffffffffffffffffffffffffffffffff16905090565b606060078054600181600116156101000203166002900480601f016020809104026020016040519081016040528092919081815260200182805460018160011615610100020316600290048015612c1e5780601f10612bf357610100808354040283529160200191612c1e565b820191906000526020600020905b815481529060010190602001808311612c0157829003601f168201915b5050505050905090565b612c30613866565b73ffffffffffffffffffffffffffffffffffffffff168273ffffffffffffffffffffffffffffffffffffffff161415612cd1576040517f08c379a00000000000000000000000000000000000000000000000000000000081526004018080602001828103825260198152602001807f4552433732313a20617070726f766520746f2063616c6c65720000000000000081525060200191505060405180910390fd5b8060056000612cde613866565b73ffffffffffffffffffffffffffffffffffffffff1673ffffffffffffffffffffffffffffffffffffffff16815260200190815260200160002060008473ffffffffffffffffffffffffffffffffffffffff1673ffffffffffffffffffffffffffffffffffffffff16815260200190815260200160002060006101000a81548160ff0219169083151502179055508173ffffffffffffffffffffffffffffffffffffffff16612d8b613866565b73ffffffffffffffffffffffffffffffffffffffff167f17307eab39ab6107e8899845ad3d59bd9653f200f220920489ca2b5937696c318360405180821515815260200191505060405180910390a35050565b60116020528060005260406000206000915090508060000154908060010154908060020154905083565b612e1484848484614189565b50505050565b6060612e2582613849565b612e7a576040517f08c379a000000000000000000000000000000000000000000000000000000000815260040180806020018281038252602f815260200180615cda602f913960400191505060405180910390fd5b6060600860008481526020019081526020016000208054600181600116156101000203166002900480601f016020809104026020016040519081016040528092919081815260200182805460018160011615610100020316600290048015612f235780601f10612ef857610100808354040283529160200191612f23565b820191906000526020600020905b815481529060010190602001808311612f0657829003601f168201915b505050505090506060612f346127c6565b9050600081511415612f4a5781925050506130e6565b60008251111561301b5780826040516020018083805190602001908083835b60208310612f8c5780518252602082019150602081019050602083039250612f69565b6001836020036101000a03801982511681845116808217855250505050505090500182805190602001908083835b60208310612fdd5780518252602082019150602081019050602083039250612fba565b6001836020036101000a03801982511681845116808217855250505050505090500192505050604051602081830303815290604052925050506130e6565b8061302585614561565b6040516020018083805190602001908083835b6020831061305b5780518252602082019150602081019050602083039250613038565b6001836020036101000a03801982511681845116808217855250505050505090500182805190602001908083835b602083106130ac5780518252602082019150602081019050602083039250613089565b6001836020036101000a03801982511681845116808217855250505050505090500192505050604051602081830303815290604052925050505b919050565b6130f3613866565b73ffffffffffffffffffffffffffffffffffffffff16613111612b5c565b73ffffffffffffffffffffffffffffffffffffffff161461319a576040517f08c379a00000000000000000000000000000000000000000000000000000000081526004018080602001828103825260208152602001807f4f776e61626c653a2063616c6c6572206973206e6f7420746865206f776e657281525060200191505060405180910390fd5b80601260006101000a81548163ffffffff021916908363ffffffff16021790555050565b6131c6613866565b73ffffffffffffffffffffffffffffffffffffffff166131e4612b5c565b73ffffffffffffffffffffffffffffffffffffffff161461326d576040517f08c379a00000000000000000000000000000000000000000000000000000000081526004018080602001828103825260208152602001807f4f776e61626c653a2063616c6c6572206973206e6f7420746865206f776e657281525060200191505060405180910390fd5b6000601060008373ffffffffffffffffffffffffffffffffffffffff1673ffffffffffffffffffffffffffffffffffffffff16815260200190815260200160002060006101000a81548160ff02191690831515021790555050565b6000806000806060806060600f60009054906101000a900473ffffffffffffffffffffffffffffffffffffffff1673ffffffffffffffffffffffffffffffffffffffff16636e4ce25c896040518263ffffffff1660e01b81526004018082815260200191505060006040518083038186803b15801561334657600080fd5b505afa15801561335a573d6000803e3d6000fd5b505050506040513d6000823e3d601f19601f8201168201806040525060e081101561338457600080fd5b8101908080519060200190929190805190602001909291908051906020019092919080519060200190929190805160405193929190846401000000008211156133cc57600080fd5b838201915060208201858111156133e257600080fd5b82518660208202830111640100000000821117156133ff57600080fd5b8083526020830192505050908051906020019060200280838360005b8381101561343657808201518184015260208101905061341b565b505050509050016040526020018051604051939291908464010000000082111561345f57600080fd5b8382019150602082018581111561347557600080fd5b825186602082028301116401000000008211171561349257600080fd5b8083526020830192505050908051906020019060200280838360005b838110156134c95780820151818401526020810190506134ae565b50505050905001604052602001805160405193929190846401000000008211156134f257600080fd5b8382019150602082018581111561350857600080fd5b825186600182028301116401000000008211171561352557600080fd5b8083526020830192505050908051906020019080838360005b8381101561355957808201518184015260208101905061353e565b50505050905090810190601f1680156135865780820380516001836020036101000a031916815260200191505b506040525050509650965096509650965096509650919395979092949650565b6000600560008473ffffffffffffffffffffffffffffffffffffffff1673ffffffffffffffffffffffffffffffffffffffff16815260200190815260200160002060008373ffffffffffffffffffffffffffffffffffffffff1673ffffffffffffffffffffffffffffffffffffffff16815260200190815260200160002060009054906101000a900460ff16905092915050565b613642613866565b73ffffffffffffffffffffffffffffffffffffffff16613660612b5c565b73ffffffffffffffffffffffffffffffffffffffff16146136e9576040517f08c379a00000000000000000000000000000000000000000000000000000000081526004018080602001828103825260208152602001807f4f776e61626c653a2063616c6c6572206973206e6f7420746865206f776e657281525060200191505060405180910390fd5b600073ffffffffffffffffffffffffffffffffffffffff168173ffffffffffffffffffffffffffffffffffffffff16141561376f576040517f08c379a0000000000000000000000000000000000000000000000000000000008152600401808060200182810382526026815260200180615ab46026913960400191505060405180910390fd5b8073ffffffffffffffffffffffffffffffffffffffff16600a60009054906101000a900473ffffffffffffffffffffffffffffffffffffffff1673ffffffffffffffffffffffffffffffffffffffff167f8be0079c531659141344cd1fd0a4f28419497f9722a3daafe3b4186f6b6457e060405160405180910390a380600a60006101000a81548173ffffffffffffffffffffffffffffffffffffffff021916908373ffffffffffffffffffffffffffffffffffffffff16021790555050565b8060099080519060200190613845929190615959565b5050565b600061385f8260026146a890919063ffffffff16565b9050919050565b600033905090565b816004600083815260200190815260200160002060006101000a81548173ffffffffffffffffffffffffffffffffffffffff021916908373ffffffffffffffffffffffffffffffffffffffff160217905550808273ffffffffffffffffffffffffffffffffffffffff166138e18361276f565b73ffffffffffffffffffffffffffffffffffffffff167f8c5be1e5ebec7d5bd14f71427d1e84f3dd0314c0f7b2291e5b200ac8c7c3b92560405160405180910390a45050565b6000613935826000016146c2565b9050919050565b61394d613947613866565b826146d3565b6139a2576040517f08c379a0000000000000000000000000000000000000000000000000000000008152600401808060200182810382526031815260200180615d2a6031913960400191505060405180910390fd5b6139ad8383836147c7565b505050565b6000613a0a6001601360008673ffffffffffffffffffffffffffffffffffffffff1673ffffffffffffffffffffffffffffffffffffffff16815260200190815260200160002080549050614a0a90919063ffffffff16565b9050600060146000848152602001908152602001600020549050818114613af7576000601360008673ffffffffffffffffffffffffffffffffffffffff1673ffffffffffffffffffffffffffffffffffffffff1681526020019081526020016000208381548110613a7757fe5b9060005260206000200154905080601360008773ffffffffffffffffffffffffffffffffffffffff1673ffffffffffffffffffffffffffffffffffffffff1681526020019081526020016000208381548110613acf57fe5b9060005260206000200181905550816014600083815260200190815260200160002081905550505b601360008573ffffffffffffffffffffffffffffffffffffffff1673ffffffffffffffffffffffffffffffffffffffff168152602001908152602001600020805480613b3f57fe5b60019003818190600052602060002001600090559055601460008481526020019081526020016000206000905550505050565b601360008373ffffffffffffffffffffffffffffffffffffffff1673ffffffffffffffffffffffffffffffffffffffff168152602001908152602001600020805490506014600083815260200190815260200160002081905550601360008373ffffffffffffffffffffffffffffffffffffffff1673ffffffffffffffffffffffffffffffffffffffff1681526020019081526020016000208190806001815401808255809150506001900390600052602060002001600090919091909150555050565b6000600d6000838152602001908152602001600020541415613c9157613c796001600d60008481526020019081526020016000205461410190919063ffffffff16565b600d6000838152602001908152602001600020819055505b50565b600073ffffffffffffffffffffffffffffffffffffffff168173ffffffffffffffffffffffffffffffffffffffff161415613d1a576040517f08c379a000000000000000000000000000000000000000000000000000000000815260040180806020018281038252602d815260200180615c0a602d913960400191505060405180910390fd5b8073ffffffffffffffffffffffffffffffffffffffff16600073ffffffffffffffffffffffffffffffffffffffff167f74da04524d50c64947f5dd5381ef1a4dca5cba8ed1d816243f9e48aa0b5617ed60405160405180910390a380600b60006101000a81548173ffffffffffffffffffffffffffffffffffffffff021916908373ffffffffffffffffffffffffffffffffffffffff16021790555050565b6000613dc88360000183614a8d565b60001c905092915050565b81613de7848661410190919063ffffffff16565b1115613e5b576040517f08c379a00000000000000000000000000000000000000000000000000000000081526004018080602001828103825260168152602001807f546f74616c20737570706c792065786365656465642e0000000000000000000081525060200191505060405180910390fd5b60005b8481101561401357613e70600c614b10565b6000613e7c600c614b26565b90506000613ea66001613e98858961410190919063ffffffff16565b61410190919063ffffffff16565b9050613eb06159d9565b60405180606001604052808a81526020018381526020018781525090508060116000858152602001908152602001600020600082015181600001556020820151816001015560408201518160020155905050613f0c3384614b34565b613f168386614d28565b613f1f83614db2565b613f293384613b72565b7f264009150e680b327677f372c2324923bd12b3b718ebd62d6cf6d3bb3179d8f9893385858a8a604051808781526020018673ffffffffffffffffffffffffffffffffffffffff16815260200185815260200184815260200183815260200180602001828103825283818151815260200191508051906020019080838360005b83811015613fc4578082015181840152602081019050613fa9565b50505050905090810190601f168015613ff15780820380516001836020036101000a031916815260200191505b5097505050505050505060405180910390a15050508080600101915050613e5e565b50600f60009054906101000a900473ffffffffffffffffffffffffffffffffffffffff1673ffffffffffffffffffffffffffffffffffffffff166356b28aae86866040518363ffffffff1660e01b81526004018083815260200182815260200192505050600060405180830381600087803b15801561409157600080fd5b505af11580156140a5573d6000803e3d6000fd5b505050507f68091494c05ef788e42594f810ab4fc09c48eba85b5792b56e96ff8f1a71c9c0856140de868661410190919063ffffffff16565b604051808381526020018281526020019250505060405180910390a15050505050565b60008082840190508381101561417f576040517f08c379a000000000000000000000000000000000000000000000000000000000815260040180806020018281038252601b8152602001807f536166654d6174683a206164646974696f6e206f766572666c6f77000000000081525060200191505060405180910390fd5b8091505092915050565b3073ffffffffffffffffffffffffffffffffffffffff168473ffffffffffffffffffffffffffffffffffffffff1614806141d657506000600d600084815260200190815260200160002054115b8061422a5750600e60008573ffffffffffffffffffffffffffffffffffffffff1673ffffffffffffffffffffffffffffffffffffffff16815260200190815260200160002060009054906101000a900460ff165b8061427e5750600e60008473ffffffffffffffffffffffffffffffffffffffff1673ffffffffffffffffffffffffffffffffffffffff16815260200190815260200160002060009054906101000a900460ff165b6142d3576040517f08c379a000000000000000000000000000000000000000000000000000000000815260040180806020018281038252602f815260200180615ada602f913960400191505060405180910390fd5b6142df84848484614dfb565b6142e984836139b2565b6142f38383613b72565b6142fc82613c36565b50505050565b6000806000806143158660000186614e73565b915091508160001c8160001c9350935050509250929050565b60006143398261276f565b905061434781600084614f0c565b61435260008361386e565b600060086000848152602001908152602001600020805460018160011615610100020316600290049050146143a1576008600083815260200190815260200160002060006143a091906159fa565b5b6143f282600160008473ffffffffffffffffffffffffffffffffffffffff1673ffffffffffffffffffffffffffffffffffffffff168152602001908152602001600020614f1190919063ffffffff16565b50614407826002614f2b90919063ffffffff16565b5081600073ffffffffffffffffffffffffffffffffffffffff168273ffffffffffffffffffffffffffffffffffffffff167fddf252ad1be2c89b69c2b068fc378daa952ba7f163c4a11628f55a4df523b3ef60405160405180910390a45050565b60006144836001601580549050614a0a90919063ffffffff16565b90506000601660008481526020019081526020016000205490506000601583815481106144ac57fe5b9060005260206000200154905080601583815481106144c757fe5b906000526020600020018190555081601660008381526020019081526020016000208190555060158054806144f857fe5b600190038181906000526020600020016000905590556000601660008681526020019081526020016000208190555050505050565b6000614540846000018460001b84614f45565b60001c90509392505050565b600061455a8260000161503b565b9050919050565b606060008214156145a9576040518060400160405280600181526020017f300000000000000000000000000000000000000000000000000000000000000081525090506146a3565b600082905060005b600082146145d3578080600101915050600a82816145cb57fe5b0491506145b1565b60608167ffffffffffffffff811180156145ec57600080fd5b506040519080825280601f01601f19166020018201604052801561461f5781602001600182028036833780820191505090505b50905060006001830390508593505b6000841461469b57600a848161464057fe5b0660300160f81b8282806001900393508151811061465a57fe5b60200101907effffffffffffffffffffffffffffffffffffffffffffffffffffffffffffff1916908160001a905350600a848161469357fe5b04935061462e565b819450505050505b919050565b60006146ba836000018360001b61504c565b905092915050565b600081600001805490509050919050565b60006146de82613849565b614733576040517f08c379a000000000000000000000000000000000000000000000000000000000815260040180806020018281038252602c815260200180615b53602c913960400191505060405180910390fd5b600061473e8361276f565b90508073ffffffffffffffffffffffffffffffffffffffff168473ffffffffffffffffffffffffffffffffffffffff1614806147ad57508373ffffffffffffffffffffffffffffffffffffffff16614795846113ed565b73ffffffffffffffffffffffffffffffffffffffff16145b806147be57506147bd81856135a6565b5b91505092915050565b8273ffffffffffffffffffffffffffffffffffffffff166147e78261276f565b73ffffffffffffffffffffffffffffffffffffffff1614614853576040517f08c379a0000000000000000000000000000000000000000000000000000000008152600401808060200182810382526029815260200180615cb16029913960400191505060405180910390fd5b600073ffffffffffffffffffffffffffffffffffffffff168273ffffffffffffffffffffffffffffffffffffffff1614156148d9576040517f08c379a0000000000000000000000000000000000000000000000000000000008152600401808060200182810382526024815260200180615b096024913960400191505060405180910390fd5b6148e4838383614f0c565b6148ef60008261386e565b61494081600160008673ffffffffffffffffffffffffffffffffffffffff1673ffffffffffffffffffffffffffffffffffffffff168152602001908152602001600020614f1190919063ffffffff16565b5061499281600160008573ffffffffffffffffffffffffffffffffffffffff1673ffffffffffffffffffffffffffffffffffffffff16815260200190815260200160002061506f90919063ffffffff16565b506149a9818360026150899092919063ffffffff16565b50808273ffffffffffffffffffffffffffffffffffffffff168473ffffffffffffffffffffffffffffffffffffffff167fddf252ad1be2c89b69c2b068fc378daa952ba7f163c4a11628f55a4df523b3ef60405160405180910390a4505050565b600082821115614a82576040517f08c379a000000000000000000000000000000000000000000000000000000000815260040180806020018281038252601e8152602001807f536166654d6174683a207375627472616374696f6e206f766572666c6f77000081525060200191505060405180910390fd5b818303905092915050565b600081836000018054905011614aee576040517f08c379a0000000000000000000000000000000000000000000000000000000008152600401808060200182810382526022815260200180615a606022913960400191505060405180910390fd5b826000018281548110614afd57fe5b9060005260206000200154905092915050565b6001816000016000828254019250508190555050565b600081600001549050919050565b600073ffffffffffffffffffffffffffffffffffffffff168273ffffffffffffffffffffffffffffffffffffffff161415614bd7576040517f08c379a00000000000000000000000000000000000000000000000000000000081526004018080602001828103825260208152602001807f4552433732313a206d696e7420746f20746865207a65726f206164647265737381525060200191505060405180910390fd5b614be081613849565b15614c53576040517f08c379a000000000000000000000000000000000000000000000000000000000815260040180806020018281038252601c8152602001807f4552433732313a20746f6b656e20616c7265616479206d696e7465640000000081525060200191505060405180910390fd5b614c5f60008383614f0c565b614cb081600160008573ffffffffffffffffffffffffffffffffffffffff1673ffffffffffffffffffffffffffffffffffffffff16815260200190815260200160002061506f90919063ffffffff16565b50614cc7818360026150899092919063ffffffff16565b50808273ffffffffffffffffffffffffffffffffffffffff16600073ffffffffffffffffffffffffffffffffffffffff167fddf252ad1be2c89b69c2b068fc378daa952ba7f163c4a11628f55a4df523b3ef60405160405180910390a45050565b614d3182613849565b614d86576040517f08c379a000000000000000000000000000000000000000000000000000000000815260040180806020018281038252602c815260200180615c85602c913960400191505060405180910390fd5b80600860008481526020019081526020016000209080519060200190614dad929190615959565b505050565b6015805490506016600083815260200190815260200160002081905550601581908060018154018082558091505060019003906000526020600020016000909190919091505550565b614e0c614e06613866565b836146d3565b614e61576040517f08c379a0000000000000000000000000000000000000000000000000000000008152600401808060200182810382526031815260200180615d2a6031913960400191505060405180910390fd5b614e6d848484846150be565b50505050565b60008082846000018054905011614ed5576040517f08c379a0000000000000000000000000000000000000000000000000000000008152600401808060200182810382526022815260200180615c376022913960400191505060405180910390fd5b6000846000018481548110614ee657fe5b906000526020600020906002020190508060000154816001015492509250509250929050565b505050565b6000614f23836000018360001b615130565b905092915050565b6000614f3d836000018360001b615218565b905092915050565b6000808460010160008581526020019081526020016000205490506000811415839061500c576040517f08c379a00000000000000000000000000000000000000000000000000000000081526004018080602001828103825283818151815260200191508051906020019080838360005b83811015614fd1578082015181840152602081019050614fb6565b50505050905090810190601f168015614ffe5780820380516001836020036101000a031916815260200191505b509250505060405180910390fd5b5084600001600182038154811061501f57fe5b9060005260206000209060020201600101549150509392505050565b600081600001805490509050919050565b600080836001016000848152602001908152602001600020541415905092915050565b6000615081836000018360001b615331565b905092915050565b60006150b5846000018460001b8473ffffffffffffffffffffffffffffffffffffffff1660001b6153a1565b90509392505050565b6150c98484846147c7565b6150d58484848461547d565b61512a576040517f08c379a0000000000000000000000000000000000000000000000000000000008152600401808060200182810382526032815260200180615a826032913960400191505060405180910390fd5b50505050565b6000808360010160008481526020019081526020016000205490506000811461520c576000600182039050600060018660000180549050039050600086600001828154811061517b57fe5b906000526020600020015490508087600001848154811061519857fe5b90600052602060002001819055506001830187600101600083815260200190815260200160002081905550866000018054806151d057fe5b60019003818190600052602060002001600090559055866001016000878152602001908152602001600020600090556001945050505050615212565b60009150505b92915050565b60008083600101600084815260200190815260200160002054905060008114615325576000600182039050600060018660000180549050039050600086600001828154811061526357fe5b906000526020600020906002020190508087600001848154811061528357fe5b90600052602060002090600202016000820154816000015560018201548160010155905050600183018760010160008360000154815260200190815260200160002081905550866000018054806152d657fe5b600190038181906000526020600020906002020160008082016000905560018201600090555050905586600101600087815260200190815260200160002060009055600194505050505061532b565b60009150505b92915050565b600061533d8383615696565b61539657826000018290806001815401808255809150506001900390600052602060002001600090919091909150558260000180549050836001016000848152602001908152602001600020819055506001905061539b565b600090505b92915050565b600080846001016000858152602001908152602001600020549050600081141561544857846000016040518060400160405280868152602001858152509080600181540180825580915050600190039060005260206000209060020201600090919091909150600082015181600001556020820151816001015550508460000180549050856001016000868152602001908152602001600020819055506001915050615476565b8285600001600183038154811061545b57fe5b90600052602060002090600202016001018190555060009150505b9392505050565b600061549e8473ffffffffffffffffffffffffffffffffffffffff166156b9565b6154ab576001905061568e565b606061561563150b7a0260e01b6154c0613866565b888787604051602401808573ffffffffffffffffffffffffffffffffffffffff1681526020018473ffffffffffffffffffffffffffffffffffffffff16815260200183815260200180602001828103825283818151815260200191508051906020019080838360005b83811015615544578082015181840152602081019050615529565b50505050905090810190601f1680156155715780820380516001836020036101000a031916815260200191505b5095505050505050604051602081830303815290604052907bffffffffffffffffffffffffffffffffffffffffffffffffffffffff19166020820180517bffffffffffffffffffffffffffffffffffffffffffffffffffffffff8381831617835250505050604051806060016040528060328152602001615a82603291398773ffffffffffffffffffffffffffffffffffffffff166156cc9092919063ffffffff16565b9050600081806020019051602081101561562e57600080fd5b8101908080519060200190929190505050905063150b7a0260e01b7bffffffffffffffffffffffffffffffffffffffffffffffffffffffff1916817bffffffffffffffffffffffffffffffffffffffffffffffffffffffff191614925050505b949350505050565b600080836001016000848152602001908152602001600020541415905092915050565b600080823b905060008111915050919050565b60606156db84846000856156e4565b90509392505050565b60608247101561573f576040517f08c379a0000000000000000000000000000000000000000000000000000000008152600401808060200182810382526026815260200180615b2d6026913960400191505060405180910390fd5b615748856156b9565b6157ba576040517f08c379a000000000000000000000000000000000000000000000000000000000815260040180806020018281038252601d8152602001807f416464726573733a2063616c6c20746f206e6f6e2d636f6e747261637400000081525060200191505060405180910390fd5b600060608673ffffffffffffffffffffffffffffffffffffffff1685876040518082805190602001908083835b6020831061580a57805182526020820191506020810190506020830392506157e7565b6001836020036101000a03801982511681845116808217855250505050505090500191505060006040518083038185875af1925050503d806000811461586c576040519150601f19603f3d011682016040523d82523d6000602084013e615871565b606091505b509150915061588182828661588d565b92505050949350505050565b6060831561589d57829050615952565b6000835111156158b05782518084602001fd5b816040517f08c379a00000000000000000000000000000000000000000000000000000000081526004018080602001828103825283818151815260200191508051906020019080838360005b838110156159175780820151818401526020810190506158fc565b50505050905090810190601f1680156159445780820380516001836020036101000a031916815260200191505b509250505060405180910390fd5b9392505050565b828054600181600116156101000203166002900490600052602060002090601f016020900481019282601f1061599a57805160ff19168380011785556159c8565b828001600101855582156159c8579182015b828111156159c75782518255916020019190600101906159ac565b5b5090506159d59190615a42565b5090565b60405180606001604052806000815260200160008152602001600081525090565b50805460018160011615610100020316600290046000825580601f10615a205750615a3f565b601f016020900490600052602060002090810190615a3e9190615a42565b5b50565b5b80821115615a5b576000816000905550600101615a43565b509056fe456e756d657261626c655365743a20696e646578206f7574206f6620626f756e64734552433732313a207472616e7366657220746f206e6f6e20455243373231526563656976657220696d706c656d656e7465724f776e61626c653a206e6577206f776e657220697320746865207a65726f20616464726573734c696d6974206669727374207472616e73666572206d7573742073616c65206f6e20617274676565206d61726b65744552433732313a207472616e7366657220746f20746865207a65726f2061646472657373416464726573733a20696e73756666696369656e742062616c616e636520666f722063616c6c4552433732313a206f70657261746f7220717565727920666f72206e6f6e6578697374656e7420746f6b656e4552433732313a20617070726f76652063616c6c6572206973206e6f74206f776e6572206e6f7220617070726f76656420666f7220616c6c4552433732313a2062616c616e636520717565727920666f7220746865207a65726f20616464726573734552433732313a206f776e657220717565727920666f72206e6f6e6578697374656e7420746f6b656e6f70657261746f723a207a65726f206164647265737320676976656e20666f72206e6577206f70657261746f72456e756d657261626c654d61703a20696e646578206f7574206f6620626f756e64734552433732313a20617070726f76656420717565727920666f72206e6f6e6578697374656e7420746f6b656e4552433732314d657461646174613a2055524920736574206f66206e6f6e6578697374656e7420746f6b656e4552433732313a207472616e73666572206f6620746f6b656e2074686174206973206e6f74206f776e4552433732314d657461646174613a2055524920717565727920666f72206e6f6e6578697374656e7420746f6b656e4552433732313a20617070726f76616c20746f2063757272656e74206f776e65724552433732313a207472616e736665722063616c6c6572206973206e6f74206f776e6572206e6f7220617070726f766564a26469706673582212201e7f497d4a2770da41a73a74b0c335e459b7818e97faea3ab9574b3e53b50b5864736f6c634300060c0033",
  "immutableReferences": {},
  "source": "pragma solidity >=0.6.0 <0.8.0;\n\nimport \"@openzeppelin/contracts/token/ERC721/ERC721.sol\";\nimport \"@openzeppelin/contracts/utils/Counters.sol\";\nimport \"@openzeppelin/contracts/utils/Pausable.sol\";\nimport \"./util/StringUtils.sol\";\nimport \"./owner/Operator.sol\";\nimport \"./interfaces/IDigitalSource.sol\";\n\n/// @title artgee nft\n/// @author yzbbanban\n/// @notice finish create nft,add art id\n/// @dev Explain to a developer any extra details\ncontract ArtGeeNft is ERC721, Operator, Pausable{\n\n    event CreateArt(uint256 _artId, address _owner,uint256 _tokenId, \n                    uint256 _edition,uint256 _totalEdition,string _uri);\n    event UpdateEdition(uint256 _artId, uint256 edition);\n\n    using Counters for Counters.Counter;\n    Counters.Counter private _tokenIds;\n    using SafeMath for uint256;\n\n    //tokenId => limitCount\n    mapping(uint256 => uint256) public limitCount;\n    // market => in transfer list\n    mapping(address => bool) transferList;\n\n    IDigitalSource public iDigitalSource;\n\n    mapping(address => bool) public blackList;\n\n    //tokenId => TokenArt\n    mapping(uint256 => TokenArt) public tokenArts;\n\n    struct TokenArt {\n        uint256 artId;\n        uint256 edition;\n        uint256 totalEdition;\n    }\n\n    uint32 public mTotalEdition = 10000;\n\n     // Mapping from owner to list of owned token IDs\n    mapping(address => uint256[]) private _ownedTokens;\n\n    // Mapping from token ID to index of the owner tokens list\n    mapping(uint256 => uint256) private _ownedTokensIndex;\n\n    // Array with all token ids, used for enumeration\n    uint256[] private _allTokens;\n\n    // Mapping from token id to position in the allTokens array\n    mapping(uint256 => uint256) private _allTokensIndex;\n\n    mapping(address => bool) public miners;\n\n    constructor(IDigitalSource _iDigitalSource) public ERC721(\"AAAA\", \"AAAA\") {\n        iDigitalSource = _iDigitalSource;\n        super._setBaseURI(\"ipfs://ipfs/\");\n    }\n\n    //get art detail by art id\n    function getSourceDigitalArt(uint256 _artId) view public returns(\n                uint256 id,\n                uint256 totalEdition,\n                uint256 currentEdition,\n                address creator,\n                address[] memory assistants,\n                uint256[] memory benefits,\n                string memory uri\n    ){\n        return iDigitalSource.getDigitalArt(_artId);\n    }\n\n    function tokensOfOwner(address _owner) view public returns(uint256[] memory _tokens){\n        return _ownedTokens[_owner];\n    }\n\n    function addBlackList(address _black) public onlyOwner(){\n        blackList[_black] = true;\n    }\n\n    function removeBlackList(address _black) public onlyOwner(){\n        blackList[_black] = false;\n    }\n\n    function SetMTotalEdition(uint32 _mTotalEdition) public onlyOwner(){\n        mTotalEdition = _mTotalEdition;\n    }\n\n    function addTransferList(address _transferAddr) public onlyOwner(){\n        transferList[_transferAddr] = true;\n    }\n\n    function removeTransferList(address _transferAddr) public onlyOwner(){\n        transferList[_transferAddr] = false;\n    }\n\n    function setBaseURI(string memory _baseURI) public onlyOwner(){\n        //ipfs://ipfs/\n        super._setBaseURI(_baseURI);\n    }\n\n    /**\n     * @dev See {IERC721-transferFrom}.\n     */\n    function transferFrom(address from, address to, uint256 tokenId) public virtual override {\n        //limit first transfer must sale on artgee market\n        require(from == address(this)\n                || limitCount[tokenId]>0\n                || transferList[from]\n                || transferList[to],\n                \"Limit first transfer must sale on artgee market\");\n        super.transferFrom(from, to, tokenId);\n        _removeTokenFromOwnerEnumeration(from, tokenId);\n        _addTokenToOwnerEnumeration(to, tokenId);\n        _addTransferLimit(tokenId);\n    }\n\n    /**\n     * @dev See {IERC721-safeTransferFrom}.\n     */\n    function safeTransferFrom(address from, address to, uint256 tokenId) public virtual override {\n        _safeTransferFrom(from,to,tokenId,\"\");\n    }\n\n    /**\n     * @dev See {IERC721-safeTransferFrom}.\n     */\n    function safeTransferFrom(address from, address to, uint256 tokenId, bytes memory _data) public virtual override {\n        _safeTransferFrom(from,to,tokenId,_data);\n    }\n\n    function _safeTransferFrom(address from, address to, uint256 tokenId, bytes memory _data) internal {\n        require(from == address(this)\n                || limitCount[tokenId]>0\n                || transferList[from]\n                || transferList[to],\n                \"Limit first transfer must sale on artgee market\");\n        super.safeTransferFrom(from, to, tokenId, _data);\n        _removeTokenFromOwnerEnumeration(from, tokenId);\n        _addTokenToOwnerEnumeration(to, tokenId);\n        _addTransferLimit(tokenId);\n    }\n\n    function _addTransferLimit(uint256 _tokenId) internal{\n        if(limitCount[_tokenId]==0){\n            limitCount[_tokenId] = limitCount[_tokenId].add(1);\n        }\n    }\n\n     /**\n     * @dev create art\n     *\n     * @param _assistants assistant\n     * @param _benefits benefits of assistants(contain creator,index 0)\n     * @param _totalEdition total edition\n     * @param _uri metadate\n     * @param _count edition count\n     */\n    function createArt(address[] memory _assistants,uint256[] memory _benefits,uint256 _totalEdition,\n                string memory _uri,\n                uint256 _count) public whenNotPaused(){\n        require(!blackList[msg.sender],\"Creator is forbidden\");\n        if(_assistants.length>0){\n            require(_assistants.length + 1 == _benefits.length,\"Benefits length error\");\n            uint256 _totalPercent = 0;\n            for (uint256 index = 0; index < _benefits.length; index++) {\n                _totalPercent = _totalPercent.add(_benefits[index]);\n            }\n            require(_totalPercent == 1000,\"Benefits error\");\n        }\n        require(_totalEdition <= mTotalEdition,\"Total edition overflow\");\n        //create art id\n        uint256 _artId = iDigitalSource.createDigitalArt(\n                                msg.sender,\n                                _assistants, \n                                _benefits, \n                                _totalEdition, \n                                _uri);\n        _createArt(_artId, _count,0,_totalEdition,_uri);\n    }\n\n    /**\n     * @dev add art\n     * @param _artId artid\n     * @param _count tcount\n     */\n    function addArt(uint256 _artId, uint256 _count) public whenNotPaused(){\n        require(!blackList[msg.sender],\"Creator not approve\");\n         (,uint256 totalEdition,uint256 currentEdition,address creator,,,string memory uri)=iDigitalSource.getDigitalArt(_artId);\n        require(msg.sender == creator ,\"Not creator\");\n        _createArt(_artId, _count,currentEdition,totalEdition,uri);\n    }\n\n    function _createArt(uint256 _artId,\n                        uint256 _count,\n                        uint256 _currentEdition,\n                        uint256 _totalEdition,string memory _uri)\n        internal\n    {\n        require(_count.add(_currentEdition) <= _totalEdition, \"Total supply exceeded.\");\n        for (uint256 index = 0; index < _count; index++) {\n            _tokenIds.increment();\n            uint256 newItemId = _tokenIds.current();\n            uint256 _edition = _currentEdition.add(index).add(1);\n            //bind artId\n            TokenArt memory tokenArt = TokenArt(_artId,_edition,_totalEdition);\n            //bind current info\n            tokenArts[newItemId] = tokenArt;\n            _mint(msg.sender, newItemId);\n            //set metadata\n            _setTokenURI(newItemId, _uri);\n            _addTokenToAllTokensEnumeration(newItemId);\n            _addTokenToOwnerEnumeration(msg.sender, newItemId);\n            emit CreateArt(_artId, msg.sender, newItemId, \n                    _edition,_totalEdition,_uri);\n        }\n        iDigitalSource.increaseDigitalArtEdition(_artId, _count);\n        //event\n        emit UpdateEdition(_artId,_currentEdition.add(_count));\n    }\n\n    function burnItem(uint256 _id) public{\n        _burn(_id);\n        _removeTokenFromOwnerEnumeration(ownerOf(_id), _id);\n        // Since tokenId will be deleted, we can clear its slot in _ownedTokensIndex to trigger a gas refund\n        _ownedTokensIndex[_id] = 0;\n        _removeTokenFromAllTokensEnumeration(_id);\n    }\n\n    /**\n     * @dev Private function to add a token to this extension's ownership-tracking data structures.\n     * @param to address representing the new owner of the given token ID\n     * @param tokenId uint256 ID of the token to be added to the tokens list of the given address\n     */\n    function _addTokenToOwnerEnumeration(address to, uint256 tokenId) private {\n        _ownedTokensIndex[tokenId] = _ownedTokens[to].length;\n        _ownedTokens[to].push(tokenId);\n    }\n\n    /**\n     * @dev Private function to add a token to this extension's token tracking data structures.\n     * @param tokenId uint256 ID of the token to be added to the tokens list\n     */\n    function _addTokenToAllTokensEnumeration(uint256 tokenId) private {\n        _allTokensIndex[tokenId] = _allTokens.length;\n        _allTokens.push(tokenId);\n    }\n\n     /**\n     * @dev Private function to remove a token from this extension's ownership-tracking data structures. Note that\n     * while the token is not assigned a new owner, the `_ownedTokensIndex` mapping is _not_ updated: this allows for\n     * gas optimizations e.g. when performing a transfer operation (avoiding double writes).\n     * This has O(1) time complexity, but alters the order of the _ownedTokens array.\n     * @param from address representing the previous owner of the given token ID\n     * @param tokenId uint256 ID of the token to be removed from the tokens list of the given address\n     */\n    function _removeTokenFromOwnerEnumeration(address from, uint256 tokenId) private {\n        // To prevent a gap in from's tokens array, we store the last token in the index of the token to delete, and\n        // then delete the last slot (swap and pop).\n\n        uint256 lastTokenIndex = _ownedTokens[from].length.sub(1);\n        uint256 tokenIndex = _ownedTokensIndex[tokenId];\n\n        // When the token to delete is the last token, the swap operation is unnecessary\n        if (tokenIndex != lastTokenIndex) {\n            uint256 lastTokenId = _ownedTokens[from][lastTokenIndex];\n\n            _ownedTokens[from][tokenIndex] = lastTokenId; // Move the last token to the slot of the to-delete token\n            _ownedTokensIndex[lastTokenId] = tokenIndex; // Update the moved token's index\n        }\n\n        // This also deletes the contents at the last position of the array\n        _ownedTokens[from].pop();\n\n        // Note that _ownedTokensIndex[tokenId] hasn't been cleared: it still points to the old slot (now occupied by\n        // lastTokenId, or just over the end of the array if the token was the last one).\n        delete _ownedTokensIndex[tokenId];\n    }\n\n     /**\n     * @dev Private function to remove a token from this extension's token tracking data structures.\n     * This has O(1) time complexity, but alters the order of the _allTokens array.\n     * @param tokenId uint256 ID of the token to be removed from the tokens list\n     */\n    function _removeTokenFromAllTokensEnumeration(uint256 tokenId) private {\n        // To prevent a gap in the tokens array, we store the last token in the index of the token to delete, and\n        // then delete the last slot (swap and pop).\n\n        uint256 lastTokenIndex = _allTokens.length.sub(1);\n        uint256 tokenIndex = _allTokensIndex[tokenId];\n\n        // When the token to delete is the last token, the swap operation is unnecessary. However, since this occurs so\n        // rarely (when the last minted token is burnt) that we still do the swap here to avoid the gas cost of adding\n        uint256 lastTokenId = _allTokens[lastTokenIndex];\n\n        _allTokens[tokenIndex] = lastTokenId; // Move the last token to the slot of the to-delete token\n        _allTokensIndex[lastTokenId] = tokenIndex; // Update the moved token's index\n\n        // This also deletes the contents at the last position of the array\n        _allTokens.pop();\n        _allTokensIndex[tokenId] = 0;\n    }\n}",
  "sourcePath": "/Users/wangban/Downloads/money/coin/other/artgee/ArtGee-Contract/contracts/ArtGeeNft.sol",
  "compiler": {
    "name": "solc",
    "version": "0.6.12+commit.27d51765.Emscripten.clang"
  },
  "schemaVersion": "3.3.2",
  "updatedAt": "2021-04-19T11:51:32.939Z",
  "networkType": "ethereum",
  "devdoc": {
    "author": "yzbbanban",
    "details": "Explain to a developer any extra details",
    "kind": "dev",
    "methods": {
      "addArt(uint256,uint256)": {
        "details": "add art",
        "params": {
          "_artId": "artid",
          "_count": "tcount"
        }
      },
      "approve(address,uint256)": {
        "details": "See {IERC721-approve}."
      },
      "balanceOf(address)": {
        "details": "See {IERC721-balanceOf}."
      },
      "baseURI()": {
        "details": "Returns the base URI set via {_setBaseURI}. This will be automatically added as a prefix in {tokenURI} to each token's URI, or to the token ID if no specific URI is set for that token ID."
      },
      "createArt(address[],uint256[],uint256,string,uint256)": {
        "details": "create art",
        "params": {
          "_assistants": "assistant",
          "_benefits": "benefits of assistants(contain creator,index 0)",
          "_count": "edition count",
          "_totalEdition": "total edition",
          "_uri": "metadate"
        }
      },
      "getApproved(uint256)": {
        "details": "See {IERC721-getApproved}."
      },
      "isApprovedForAll(address,address)": {
        "details": "See {IERC721-isApprovedForAll}."
      },
      "name()": {
        "details": "See {IERC721Metadata-name}."
      },
      "owner()": {
        "details": "Returns the address of the current owner."
      },
      "ownerOf(uint256)": {
        "details": "See {IERC721-ownerOf}."
      },
      "paused()": {
        "details": "Returns true if the contract is paused, and false otherwise."
      },
      "renounceOwnership()": {
        "details": "Leaves the contract without owner. It will not be possible to call `onlyOwner` functions anymore. Can only be called by the current owner. NOTE: Renouncing ownership will leave the contract without an owner, thereby removing any functionality that is only available to the owner."
      },
      "safeTransferFrom(address,address,uint256)": {
        "details": "See {IERC721-safeTransferFrom}."
      },
      "safeTransferFrom(address,address,uint256,bytes)": {
        "details": "See {IERC721-safeTransferFrom}."
      },
      "setApprovalForAll(address,bool)": {
        "details": "See {IERC721-setApprovalForAll}."
      },
      "supportsInterface(bytes4)": {
        "details": "See {IERC165-supportsInterface}. Time complexity O(1), guaranteed to always use less than 30 000 gas."
      },
      "symbol()": {
        "details": "See {IERC721Metadata-symbol}."
      },
      "tokenByIndex(uint256)": {
        "details": "See {IERC721Enumerable-tokenByIndex}."
      },
      "tokenOfOwnerByIndex(address,uint256)": {
        "details": "See {IERC721Enumerable-tokenOfOwnerByIndex}."
      },
      "tokenURI(uint256)": {
        "details": "See {IERC721Metadata-tokenURI}."
      },
      "totalSupply()": {
        "details": "See {IERC721Enumerable-totalSupply}."
      },
      "transferFrom(address,address,uint256)": {
        "details": "See {IERC721-transferFrom}."
      },
      "transferOwnership(address)": {
        "details": "Transfers ownership of the contract to a new account (`newOwner`). Can only be called by the current owner."
      }
    },
    "title": "artgee nft",
    "version": 1
  },
  "userdoc": {
    "kind": "user",
    "methods": {},
    "notice": "finish create nft,add art id",
    "version": 1
  }
}