{
  "contractName": "ArtGeeNft",
  "abi": [
    {
      "inputs": [
        {
          "internalType": "contract IDigitalSource",
          "name": "_iDigitalSource",
          "type": "address"
        }
      ],
      "stateMutability": "nonpayable",
      "type": "constructor"
    },
    {
      "anonymous": false,
      "inputs": [
        {
          "indexed": true,
          "internalType": "address",
          "name": "owner",
          "type": "address"
        },
        {
          "indexed": true,
          "internalType": "address",
          "name": "approved",
          "type": "address"
        },
        {
          "indexed": true,
          "internalType": "uint256",
          "name": "tokenId",
          "type": "uint256"
        }
      ],
      "name": "Approval",
      "type": "event"
    },
    {
      "anonymous": false,
      "inputs": [
        {
          "indexed": true,
          "internalType": "address",
          "name": "owner",
          "type": "address"
        },
        {
          "indexed": true,
          "internalType": "address",
          "name": "operator",
          "type": "address"
        },
        {
          "indexed": false,
          "internalType": "bool",
          "name": "approved",
          "type": "bool"
        }
      ],
      "name": "ApprovalForAll",
      "type": "event"
    },
    {
      "anonymous": false,
      "inputs": [
        {
          "indexed": false,
          "internalType": "uint256",
          "name": "_artId",
          "type": "uint256"
        },
        {
          "indexed": false,
          "internalType": "address",
          "name": "_owner",
          "type": "address"
        },
        {
          "indexed": false,
          "internalType": "uint256",
          "name": "_tokenId",
          "type": "uint256"
        },
        {
          "indexed": false,
          "internalType": "uint256",
          "name": "_edition",
          "type": "uint256"
        },
        {
          "indexed": false,
          "internalType": "uint256",
          "name": "_totalEdition",
          "type": "uint256"
        },
        {
          "indexed": false,
          "internalType": "string",
          "name": "_uri",
          "type": "string"
        }
      ],
      "name": "CreateArt",
      "type": "event"
    },
    {
      "anonymous": false,
      "inputs": [
        {
          "indexed": true,
          "internalType": "address",
          "name": "previousOperator",
          "type": "address"
        },
        {
          "indexed": true,
          "internalType": "address",
          "name": "newOperator",
          "type": "address"
        }
      ],
      "name": "OperatorTransferred",
      "type": "event"
    },
    {
      "anonymous": false,
      "inputs": [
        {
          "indexed": true,
          "internalType": "address",
          "name": "previousOwner",
          "type": "address"
        },
        {
          "indexed": true,
          "internalType": "address",
          "name": "newOwner",
          "type": "address"
        }
      ],
      "name": "OwnershipTransferred",
      "type": "event"
    },
    {
      "anonymous": false,
      "inputs": [
        {
          "indexed": false,
          "internalType": "address",
          "name": "account",
          "type": "address"
        }
      ],
      "name": "Paused",
      "type": "event"
    },
    {
      "anonymous": false,
      "inputs": [
        {
          "indexed": true,
          "internalType": "address",
          "name": "from",
          "type": "address"
        },
        {
          "indexed": true,
          "internalType": "address",
          "name": "to",
          "type": "address"
        },
        {
          "indexed": true,
          "internalType": "uint256",
          "name": "tokenId",
          "type": "uint256"
        }
      ],
      "name": "Transfer",
      "type": "event"
    },
    {
      "anonymous": false,
      "inputs": [
        {
          "indexed": false,
          "internalType": "address",
          "name": "account",
          "type": "address"
        }
      ],
      "name": "Unpaused",
      "type": "event"
    },
    {
      "anonymous": false,
      "inputs": [
        {
          "indexed": false,
          "internalType": "uint256",
          "name": "_artId",
          "type": "uint256"
        },
        {
          "indexed": false,
          "internalType": "uint256",
          "name": "edition",
          "type": "uint256"
        }
      ],
      "name": "UpdateEdition",
      "type": "event"
    },
    {
      "inputs": [
        {
          "internalType": "address",
          "name": "to",
          "type": "address"
        },
        {
          "internalType": "uint256",
          "name": "tokenId",
          "type": "uint256"
        }
      ],
      "name": "approve",
      "outputs": [],
      "stateMutability": "nonpayable",
      "type": "function"
    },
    {
      "inputs": [
        {
          "internalType": "address",
          "name": "owner",
          "type": "address"
        }
      ],
      "name": "balanceOf",
      "outputs": [
        {
          "internalType": "uint256",
          "name": "",
          "type": "uint256"
        }
      ],
      "stateMutability": "view",
      "type": "function"
    },
    {
      "inputs": [],
      "name": "baseURI",
      "outputs": [
        {
          "internalType": "string",
          "name": "",
          "type": "string"
        }
      ],
      "stateMutability": "view",
      "type": "function"
    },
    {
      "inputs": [
        {
          "internalType": "address",
          "name": "",
          "type": "address"
        }
      ],
      "name": "blackList",
      "outputs": [
        {
          "internalType": "bool",
          "name": "",
          "type": "bool"
        }
      ],
      "stateMutability": "view",
      "type": "function"
    },
    {
      "inputs": [
        {
          "internalType": "uint256",
          "name": "tokenId",
          "type": "uint256"
        }
      ],
      "name": "getApproved",
      "outputs": [
        {
          "internalType": "address",
          "name": "",
          "type": "address"
        }
      ],
      "stateMutability": "view",
      "type": "function"
    },
    {
      "inputs": [],
      "name": "iDigitalSource",
      "outputs": [
        {
          "internalType": "contract IDigitalSource",
          "name": "",
          "type": "address"
        }
      ],
      "stateMutability": "view",
      "type": "function"
    },
    {
      "inputs": [
        {
          "internalType": "address",
          "name": "owner",
          "type": "address"
        },
        {
          "internalType": "address",
          "name": "operator",
          "type": "address"
        }
      ],
      "name": "isApprovedForAll",
      "outputs": [
        {
          "internalType": "bool",
          "name": "",
          "type": "bool"
        }
      ],
      "stateMutability": "view",
      "type": "function"
    },
    {
      "inputs": [],
      "name": "isOperator",
      "outputs": [
        {
          "internalType": "bool",
          "name": "",
          "type": "bool"
        }
      ],
      "stateMutability": "view",
      "type": "function"
    },
    {
      "inputs": [
        {
          "internalType": "uint256",
          "name": "",
          "type": "uint256"
        }
      ],
      "name": "limitCount",
      "outputs": [
        {
          "internalType": "uint256",
          "name": "",
          "type": "uint256"
        }
      ],
      "stateMutability": "view",
      "type": "function"
    },
    {
      "inputs": [
        {
          "internalType": "address",
          "name": "",
          "type": "address"
        }
      ],
      "name": "miners",
      "outputs": [
        {
          "internalType": "bool",
          "name": "",
          "type": "bool"
        }
      ],
      "stateMutability": "view",
      "type": "function"
    },
    {
      "inputs": [],
      "name": "name",
      "outputs": [
        {
          "internalType": "string",
          "name": "",
          "type": "string"
        }
      ],
      "stateMutability": "view",
      "type": "function"
    },
    {
      "inputs": [],
      "name": "operator",
      "outputs": [
        {
          "internalType": "address",
          "name": "",
          "type": "address"
        }
      ],
      "stateMutability": "view",
      "type": "function"
    },
    {
      "inputs": [],
      "name": "owner",
      "outputs": [
        {
          "internalType": "address",
          "name": "",
          "type": "address"
        }
      ],
      "stateMutability": "view",
      "type": "function"
    },
    {
      "inputs": [
        {
          "internalType": "uint256",
          "name": "tokenId",
          "type": "uint256"
        }
      ],
      "name": "ownerOf",
      "outputs": [
        {
          "internalType": "address",
          "name": "",
          "type": "address"
        }
      ],
      "stateMutability": "view",
      "type": "function"
    },
    {
      "inputs": [],
      "name": "paused",
      "outputs": [
        {
          "internalType": "bool",
          "name": "",
          "type": "bool"
        }
      ],
      "stateMutability": "view",
      "type": "function"
    },
    {
      "inputs": [],
      "name": "renounceOwnership",
      "outputs": [],
      "stateMutability": "nonpayable",
      "type": "function"
    },
    {
      "inputs": [
        {
          "internalType": "address",
          "name": "operator",
          "type": "address"
        },
        {
          "internalType": "bool",
          "name": "approved",
          "type": "bool"
        }
      ],
      "name": "setApprovalForAll",
      "outputs": [],
      "stateMutability": "nonpayable",
      "type": "function"
    },
    {
      "inputs": [
        {
          "internalType": "bytes4",
          "name": "interfaceId",
          "type": "bytes4"
        }
      ],
      "name": "supportsInterface",
      "outputs": [
        {
          "internalType": "bool",
          "name": "",
          "type": "bool"
        }
      ],
      "stateMutability": "view",
      "type": "function"
    },
    {
      "inputs": [],
      "name": "symbol",
      "outputs": [
        {
          "internalType": "string",
          "name": "",
          "type": "string"
        }
      ],
      "stateMutability": "view",
      "type": "function"
    },
    {
      "inputs": [
        {
          "internalType": "uint256",
          "name": "",
          "type": "uint256"
        }
      ],
      "name": "tokenArts",
      "outputs": [
        {
          "internalType": "uint256",
          "name": "artId",
          "type": "uint256"
        },
        {
          "internalType": "uint256",
          "name": "edition",
          "type": "uint256"
        },
        {
          "internalType": "uint256",
          "name": "totalEdition",
          "type": "uint256"
        }
      ],
      "stateMutability": "view",
      "type": "function"
    },
    {
      "inputs": [
        {
          "internalType": "uint256",
          "name": "index",
          "type": "uint256"
        }
      ],
      "name": "tokenByIndex",
      "outputs": [
        {
          "internalType": "uint256",
          "name": "",
          "type": "uint256"
        }
      ],
      "stateMutability": "view",
      "type": "function"
    },
    {
      "inputs": [
        {
          "internalType": "address",
          "name": "owner",
          "type": "address"
        },
        {
          "internalType": "uint256",
          "name": "index",
          "type": "uint256"
        }
      ],
      "name": "tokenOfOwnerByIndex",
      "outputs": [
        {
          "internalType": "uint256",
          "name": "",
          "type": "uint256"
        }
      ],
      "stateMutability": "view",
      "type": "function"
    },
    {
      "inputs": [
        {
          "internalType": "uint256",
          "name": "tokenId",
          "type": "uint256"
        }
      ],
      "name": "tokenURI",
      "outputs": [
        {
          "internalType": "string",
          "name": "",
          "type": "string"
        }
      ],
      "stateMutability": "view",
      "type": "function"
    },
    {
      "inputs": [],
      "name": "totalSupply",
      "outputs": [
        {
          "internalType": "uint256",
          "name": "",
          "type": "uint256"
        }
      ],
      "stateMutability": "view",
      "type": "function"
    },
    {
      "inputs": [
        {
          "internalType": "address",
          "name": "newOperator_",
          "type": "address"
        }
      ],
      "name": "transferOperator",
      "outputs": [],
      "stateMutability": "nonpayable",
      "type": "function"
    },
    {
      "inputs": [
        {
          "internalType": "address",
          "name": "newOwner",
          "type": "address"
        }
      ],
      "name": "transferOwnership",
      "outputs": [],
      "stateMutability": "nonpayable",
      "type": "function"
    },
    {
      "inputs": [
        {
          "internalType": "uint256",
          "name": "_artId",
          "type": "uint256"
        }
      ],
      "name": "getSourceDigitalArt",
      "outputs": [
        {
          "internalType": "uint256",
          "name": "id",
          "type": "uint256"
        },
        {
          "internalType": "uint256",
          "name": "totalEdition",
          "type": "uint256"
        },
        {
          "internalType": "uint256",
          "name": "currentEdition",
          "type": "uint256"
        },
        {
          "internalType": "address",
          "name": "creator",
          "type": "address"
        },
        {
          "internalType": "address[]",
          "name": "assistants",
          "type": "address[]"
        },
        {
          "internalType": "uint256[]",
          "name": "benefits",
          "type": "uint256[]"
        },
        {
          "internalType": "string",
          "name": "uri",
          "type": "string"
        }
      ],
      "stateMutability": "view",
      "type": "function"
    },
    {
      "inputs": [
        {
          "internalType": "address",
          "name": "_owner",
          "type": "address"
        }
      ],
      "name": "tokensOfOwner",
      "outputs": [
        {
          "internalType": "uint256[]",
          "name": "_tokens",
          "type": "uint256[]"
        }
      ],
      "stateMutability": "view",
      "type": "function"
    },
    {
      "inputs": [
        {
          "internalType": "address",
          "name": "_black",
          "type": "address"
        }
      ],
      "name": "addBlackList",
      "outputs": [],
      "stateMutability": "nonpayable",
      "type": "function"
    },
    {
      "inputs": [
        {
          "internalType": "address",
          "name": "_black",
          "type": "address"
        }
      ],
      "name": "removeBlackList",
      "outputs": [],
      "stateMutability": "nonpayable",
      "type": "function"
    },
    {
      "inputs": [
        {
          "internalType": "address",
          "name": "_transferAddr",
          "type": "address"
        }
      ],
      "name": "addTransferList",
      "outputs": [],
      "stateMutability": "nonpayable",
      "type": "function"
    },
    {
      "inputs": [
        {
          "internalType": "address",
          "name": "_transferAddr",
          "type": "address"
        }
      ],
      "name": "removeTransferList",
      "outputs": [],
      "stateMutability": "nonpayable",
      "type": "function"
    },
    {
      "inputs": [
        {
          "internalType": "string",
          "name": "_baseURI",
          "type": "string"
        }
      ],
      "name": "setBaseURI",
      "outputs": [],
      "stateMutability": "nonpayable",
      "type": "function"
    },
    {
      "inputs": [
        {
          "internalType": "address",
          "name": "from",
          "type": "address"
        },
        {
          "internalType": "address",
          "name": "to",
          "type": "address"
        },
        {
          "internalType": "uint256",
          "name": "tokenId",
          "type": "uint256"
        }
      ],
      "name": "transferFrom",
      "outputs": [],
      "stateMutability": "nonpayable",
      "type": "function"
    },
    {
      "inputs": [
        {
          "internalType": "address",
          "name": "from",
          "type": "address"
        },
        {
          "internalType": "address",
          "name": "to",
          "type": "address"
        },
        {
          "internalType": "uint256",
          "name": "tokenId",
          "type": "uint256"
        }
      ],
      "name": "safeTransferFrom",
      "outputs": [],
      "stateMutability": "nonpayable",
      "type": "function"
    },
    {
      "inputs": [
        {
          "internalType": "address",
          "name": "from",
          "type": "address"
        },
        {
          "internalType": "address",
          "name": "to",
          "type": "address"
        },
        {
          "internalType": "uint256",
          "name": "tokenId",
          "type": "uint256"
        },
        {
          "internalType": "bytes",
          "name": "_data",
          "type": "bytes"
        }
      ],
      "name": "safeTransferFrom",
      "outputs": [],
      "stateMutability": "nonpayable",
      "type": "function"
    },
    {
      "inputs": [
        {
          "internalType": "address[]",
          "name": "_assistants",
          "type": "address[]"
        },
        {
          "internalType": "uint256[]",
          "name": "_benefits",
          "type": "uint256[]"
        },
        {
          "internalType": "uint256",
          "name": "_totalEdition",
          "type": "uint256"
        },
        {
          "internalType": "string",
          "name": "_uri",
          "type": "string"
        },
        {
          "internalType": "uint256",
          "name": "_count",
          "type": "uint256"
        }
      ],
      "name": "createArt",
      "outputs": [],
      "stateMutability": "nonpayable",
      "type": "function"
    },
    {
      "inputs": [
        {
          "internalType": "uint256",
          "name": "_artId",
          "type": "uint256"
        },
        {
          "internalType": "uint256",
          "name": "_count",
          "type": "uint256"
        }
      ],
      "name": "addArt",
      "outputs": [],
      "stateMutability": "nonpayable",
      "type": "function"
    },
    {
      "inputs": [
        {
          "internalType": "uint256",
          "name": "_id",
          "type": "uint256"
        }
      ],
      "name": "burnItem",
      "outputs": [],
      "stateMutability": "nonpayable",
      "type": "function"
    }
  ],
  "bytecode": "0x60806040523480156200001157600080fd5b506040516200601638038062006016833981810160405260208110156200003757600080fd5b81019080805190602001909291905050506040518060400160405280600481526020017f41414141000000000000000000000000000000000000000000000000000000008152506040518060400160405280600481526020017f4141414100000000000000000000000000000000000000000000000000000000815250620000cc6301ffc9a760e01b6200037460201b60201c565b8160069080519060200190620000e4929190620004a1565b508060079080519060200190620000fd929190620004a1565b50620001166380ac58cd60e01b6200037460201b60201c565b6200012e635b5e139f60e01b6200037460201b60201c565b6200014663780e9d6360e01b6200037460201b60201c565b505060006200015a6200047d60201b60201c565b905080600a60006101000a81548173ffffffffffffffffffffffffffffffffffffffff021916908373ffffffffffffffffffffffffffffffffffffffff1602179055508073ffffffffffffffffffffffffffffffffffffffff16600073ffffffffffffffffffffffffffffffffffffffff167f8be0079c531659141344cd1fd0a4f28419497f9722a3daafe3b4186f6b6457e060405160405180910390a350620002096200047d60201b60201c565b600b60006101000a81548173ffffffffffffffffffffffffffffffffffffffff021916908373ffffffffffffffffffffffffffffffffffffffff160217905550600b60009054906101000a900473ffffffffffffffffffffffffffffffffffffffff1673ffffffffffffffffffffffffffffffffffffffff16600073ffffffffffffffffffffffffffffffffffffffff167f74da04524d50c64947f5dd5381ef1a4dca5cba8ed1d816243f9e48aa0b5617ed60405160405180910390a36000600b60146101000a81548160ff02191690831515021790555080600f60006101000a81548173ffffffffffffffffffffffffffffffffffffffff021916908373ffffffffffffffffffffffffffffffffffffffff1602179055506200036d6040518060400160405280600c81526020017f697066733a2f2f697066732f00000000000000000000000000000000000000008152506200048560201b620035b21760201c565b5062000547565b63ffffffff60e01b817bffffffffffffffffffffffffffffffffffffffffffffffffffffffff1916141562000411576040517f08c379a000000000000000000000000000000000000000000000000000000000815260040180806020018281038252601c8152602001807f4552433136353a20696e76616c696420696e746572666163652069640000000081525060200191505060405180910390fd5b6001600080837bffffffffffffffffffffffffffffffffffffffffffffffffffffffff19167bffffffffffffffffffffffffffffffffffffffffffffffffffffffff1916815260200190815260200160002060006101000a81548160ff02191690831515021790555050565b600033905090565b80600990805190602001906200049d929190620004a1565b5050565b828054600181600116156101000203166002900490600052602060002090601f016020900481019282601f10620004e457805160ff191683800117855562000515565b8280016001018555821562000515579182015b8281111562000514578251825591602001919060010190620004f7565b5b50905062000524919062000528565b5090565b5b808211156200054357600081600090555060010162000529565b5090565b615abf80620005576000396000f3fe608060405234801561001057600080fd5b506004361061023d5760003560e01c8063570ca7351161013b5780638da5cb5b116100b8578063c87b56dd1161007c578063c87b56dd14610f64578063e4997dc51461100b578063e726d96b1461104f578063e985e9c5146111b8578063f2fde38b146112325761023d565b80638da5cb5b14610d0857806395d89b4114610d3c578063a22cb46514610dbf578063abb03ba614610e0f578063b88d4fde14610e5f5761023d565b80636c0360eb116100ff5780636c0360eb14610b4857806370a0823114610bcb578063715018a614610c235780637913191214610c2d5780638462151c14610c6f5761023d565b8063570ca73514610a14578063576cc0f714610a485780635c975abb14610a765780636352211e14610a96578063648ec7b914610aee5761023d565b806323b872dd116101c957806342842e0e1161018d57806342842e0e1461082f5780634456eda21461089d5780634838d165146108bd5780634f6ccce71461091757806355f804b3146109595761023d565b806323b872dd146104ec57806329605e771461055a5780632f745c591461059e578063334b49a9146106005780633ea80cd2146106385761023d565b8063095ea7b311610210578063095ea7b3146103c45780630ecb93c014610412578063111531521461045657806318160ddd1461048a5780631f8fb86d146104a85761023d565b806301ffc9a71461024257806306fdde03146102a5578063081812fc146103285780630825c38614610380575b600080fd5b61028d6004803603602081101561025857600080fd5b8101908080357bffffffffffffffffffffffffffffffffffffffffffffffffffffffff19169060200190929190505050611276565b60405180821515815260200191505060405180910390f35b6102ad6112dd565b6040518080602001828103825283818151815260200191508051906020019080838360005b838110156102ed5780820151818401526020810190506102d2565b50505050905090810190601f16801561031a5780820380516001836020036101000a031916815260200191505b509250505060405180910390f35b6103546004803603602081101561033e57600080fd5b810190808035906020019092919050505061137f565b604051808273ffffffffffffffffffffffffffffffffffffffff16815260200191505060405180910390f35b6103c26004803603602081101561039657600080fd5b81019080803573ffffffffffffffffffffffffffffffffffffffff16906020019092919050505061141a565b005b610410600480360360408110156103da57600080fd5b81019080803573ffffffffffffffffffffffffffffffffffffffff16906020019092919080359060200190929190505050611524565b005b6104546004803603602081101561042857600080fd5b81019080803573ffffffffffffffffffffffffffffffffffffffff169060200190929190505050611668565b005b61045e611772565b604051808273ffffffffffffffffffffffffffffffffffffffff16815260200191505060405180910390f35b610492611798565b6040518082815260200191505060405180910390f35b6104ea600480360360208110156104be57600080fd5b81019080803573ffffffffffffffffffffffffffffffffffffffff1690602001909291905050506117a9565b005b6105586004803603606081101561050257600080fd5b81019080803573ffffffffffffffffffffffffffffffffffffffff169060200190929190803573ffffffffffffffffffffffffffffffffffffffff169060200190929190803590602001909291905050506118b3565b005b61059c6004803603602081101561057057600080fd5b81019080803573ffffffffffffffffffffffffffffffffffffffff1690602001909291905050506119d6565b005b6105ea600480360360408110156105b457600080fd5b81019080803573ffffffffffffffffffffffffffffffffffffffff16906020019092919080359060200190929190505050611a91565b6040518082815260200191505060405180910390f35b6106366004803603604081101561061657600080fd5b810190808035906020019092919080359060200190929190505050611aec565b005b61082d600480360360a081101561064e57600080fd5b810190808035906020019064010000000081111561066b57600080fd5b82018360208201111561067d57600080fd5b8035906020019184602083028401116401000000008311171561069f57600080fd5b919080806020026020016040519081016040528093929190818152602001838360200280828437600081840152601f19601f820116905080830192505050505050509192919290803590602001906401000000008111156106ff57600080fd5b82018360208201111561071157600080fd5b8035906020019184602083028401116401000000008311171561073357600080fd5b919080806020026020016040519081016040528093929190818152602001838360200280828437600081840152601f19601f820116905080830192505050505050509192919290803590602001909291908035906020019064010000000081111561079d57600080fd5b8201836020820111156107af57600080fd5b803590602001918460018302840111640100000000831117156107d157600080fd5b91908080601f016020809104026020016040519081016040528093929190818152602001838380828437600081840152601f19601f82011690508083019250505050505050919291929080359060200190929190505050611fa9565b005b61089b6004803603606081101561084557600080fd5b81019080803573ffffffffffffffffffffffffffffffffffffffff169060200190929190803573ffffffffffffffffffffffffffffffffffffffff169060200190929190803590602001909291905050506123c7565b005b6108a56123e7565b60405180821515815260200191505060405180910390f35b6108ff600480360360208110156108d357600080fd5b81019080803573ffffffffffffffffffffffffffffffffffffffff169060200190929190505050612446565b60405180821515815260200191505060405180910390f35b6109436004803603602081101561092d57600080fd5b8101908080359060200190929190505050612466565b6040518082815260200191505060405180910390f35b610a126004803603602081101561096f57600080fd5b810190808035906020019064010000000081111561098c57600080fd5b82018360208201111561099e57600080fd5b803590602001918460018302840111640100000000831117156109c057600080fd5b91908080601f016020809104026020016040519081016040528093929190818152602001838380828437600081840152601f19601f820116905080830192505050505050509192919290505050612489565b005b610a1c612544565b604051808273ffffffffffffffffffffffffffffffffffffffff16815260200191505060405180910390f35b610a7460048036036020811015610a5e57600080fd5b810190808035906020019092919050505061256e565b005b610a7e6125ae565b60405180821515815260200191505060405180910390f35b610ac260048036036020811015610aac57600080fd5b81019080803590602001909291905050506125c5565b604051808273ffffffffffffffffffffffffffffffffffffffff16815260200191505060405180910390f35b610b3060048036036020811015610b0457600080fd5b81019080803573ffffffffffffffffffffffffffffffffffffffff1690602001909291905050506125fc565b60405180821515815260200191505060405180910390f35b610b5061261c565b6040518080602001828103825283818151815260200191508051906020019080838360005b83811015610b90578082015181840152602081019050610b75565b50505050905090810190601f168015610bbd5780820380516001836020036101000a031916815260200191505b509250505060405180910390f35b610c0d60048036036020811015610be157600080fd5b81019080803573ffffffffffffffffffffffffffffffffffffffff1690602001909291905050506126be565b6040518082815260200191505060405180910390f35b610c2b612793565b005b610c5960048036036020811015610c4357600080fd5b8101908080359060200190929190505050612903565b6040518082815260200191505060405180910390f35b610cb160048036036020811015610c8557600080fd5b81019080803573ffffffffffffffffffffffffffffffffffffffff16906020019092919050505061291b565b6040518080602001828103825283818151815260200191508051906020019060200280838360005b83811015610cf4578082015181840152602081019050610cd9565b505050509050019250505060405180910390f35b610d106129b2565b604051808273ffffffffffffffffffffffffffffffffffffffff16815260200191505060405180910390f35b610d446129dc565b6040518080602001828103825283818151815260200191508051906020019080838360005b83811015610d84578082015181840152602081019050610d69565b50505050905090810190601f168015610db15780820380516001836020036101000a031916815260200191505b509250505060405180910390f35b610e0d60048036036040811015610dd557600080fd5b81019080803573ffffffffffffffffffffffffffffffffffffffff169060200190929190803515159060200190929190505050612a7e565b005b610e3b60048036036020811015610e2557600080fd5b8101908080359060200190929190505050612c34565b60405180848152602001838152602001828152602001935050505060405180910390f35b610f6260048036036080811015610e7557600080fd5b81019080803573ffffffffffffffffffffffffffffffffffffffff169060200190929190803573ffffffffffffffffffffffffffffffffffffffff1690602001909291908035906020019092919080359060200190640100000000811115610edc57600080fd5b820183602082011115610eee57600080fd5b80359060200191846001830284011164010000000083111715610f1057600080fd5b91908080601f016020809104026020016040519081016040528093929190818152602001838380828437600081840152601f19601f820116905080830192505050505050509192919290505050612c5e565b005b610f9060048036036020811015610f7a57600080fd5b8101908080359060200190929190505050612c70565b6040518080602001828103825283818151815260200191508051906020019080838360005b83811015610fd0578082015181840152602081019050610fb5565b50505050905090810190601f168015610ffd5780820380516001836020036101000a031916815260200191505b509250505060405180910390f35b61104d6004803603602081101561102157600080fd5b81019080803573ffffffffffffffffffffffffffffffffffffffff169060200190929190505050612f41565b005b61107b6004803603602081101561106557600080fd5b810190808035906020019092919050505061304b565b604051808881526020018781526020018681526020018573ffffffffffffffffffffffffffffffffffffffff168152602001806020018060200180602001848103845287818151815260200191508051906020019060200280838360005b838110156110f45780820151818401526020810190506110d9565b50505050905001848103835286818151815260200191508051906020019060200280838360005b8381101561113657808201518184015260208101905061111b565b50505050905001848103825285818151815260200191508051906020019080838360005b8381101561117557808201518184015260208101905061115a565b50505050905090810190601f1680156111a25780820380516001836020036101000a031916815260200191505b509a505050505050505050505060405180910390f35b61121a600480360360408110156111ce57600080fd5b81019080803573ffffffffffffffffffffffffffffffffffffffff169060200190929190803573ffffffffffffffffffffffffffffffffffffffff169060200190929190505050613329565b60405180821515815260200191505060405180910390f35b6112746004803603602081101561124857600080fd5b81019080803573ffffffffffffffffffffffffffffffffffffffff1690602001909291905050506133bd565b005b6000806000837bffffffffffffffffffffffffffffffffffffffffffffffffffffffff19167bffffffffffffffffffffffffffffffffffffffffffffffffffffffff1916815260200190815260200160002060009054906101000a900460ff169050919050565b606060068054600181600116156101000203166002900480601f0160208091040260200160405190810160405280929190818152602001828054600181600116156101000203166002900480156113755780601f1061134a57610100808354040283529160200191611375565b820191906000526020600020905b81548152906001019060200180831161135857829003601f168201915b5050505050905090565b600061138a826135cc565b6113df576040517f08c379a000000000000000000000000000000000000000000000000000000000815260040180806020018281038252602c815260200180615988602c913960400191505060405180910390fd5b6004600083815260200190815260200160002060009054906101000a900473ffffffffffffffffffffffffffffffffffffffff169050919050565b6114226135e9565b73ffffffffffffffffffffffffffffffffffffffff166114406129b2565b73ffffffffffffffffffffffffffffffffffffffff16146114c9576040517f08c379a00000000000000000000000000000000000000000000000000000000081526004018080602001828103825260208152602001807f4f776e61626c653a2063616c6c6572206973206e6f7420746865206f776e657281525060200191505060405180910390fd5b6000600e60008373ffffffffffffffffffffffffffffffffffffffff1673ffffffffffffffffffffffffffffffffffffffff16815260200190815260200160002060006101000a81548160ff02191690831515021790555050565b600061152f826125c5565b90508073ffffffffffffffffffffffffffffffffffffffff168373ffffffffffffffffffffffffffffffffffffffff1614156115b6576040517f08c379a0000000000000000000000000000000000000000000000000000000008152600401808060200182810382526021815260200180615a386021913960400191505060405180910390fd5b8073ffffffffffffffffffffffffffffffffffffffff166115d56135e9565b73ffffffffffffffffffffffffffffffffffffffff1614806116045750611603816115fe6135e9565b613329565b5b611659576040517f08c379a00000000000000000000000000000000000000000000000000000000081526004018080602001828103825260388152602001806158ae6038913960400191505060405180910390fd5b61166383836135f1565b505050565b6116706135e9565b73ffffffffffffffffffffffffffffffffffffffff1661168e6129b2565b73ffffffffffffffffffffffffffffffffffffffff1614611717576040517f08c379a00000000000000000000000000000000000000000000000000000000081526004018080602001828103825260208152602001807f4f776e61626c653a2063616c6c6572206973206e6f7420746865206f776e657281525060200191505060405180910390fd5b6001601060008373ffffffffffffffffffffffffffffffffffffffff1673ffffffffffffffffffffffffffffffffffffffff16815260200190815260200160002060006101000a81548160ff02191690831515021790555050565b600f60009054906101000a900473ffffffffffffffffffffffffffffffffffffffff1681565b60006117a460026136aa565b905090565b6117b16135e9565b73ffffffffffffffffffffffffffffffffffffffff166117cf6129b2565b73ffffffffffffffffffffffffffffffffffffffff1614611858576040517f08c379a00000000000000000000000000000000000000000000000000000000081526004018080602001828103825260208152602001807f4f776e61626c653a2063616c6c6572206973206e6f7420746865206f776e657281525060200191505060405180910390fd5b6001600e60008373ffffffffffffffffffffffffffffffffffffffff1673ffffffffffffffffffffffffffffffffffffffff16815260200190815260200160002060006101000a81548160ff02191690831515021790555050565b3073ffffffffffffffffffffffffffffffffffffffff163373ffffffffffffffffffffffffffffffffffffffff16148061190057506001600d600083815260200190815260200160002054115b806119545750600e60003373ffffffffffffffffffffffffffffffffffffffff1673ffffffffffffffffffffffffffffffffffffffff16815260200190815260200160002060009054906101000a900460ff165b6119a9576040517f08c379a000000000000000000000000000000000000000000000000000000000815260040180806020018281038252602f815260200180615809602f913960400191505060405180910390fd5b6119b48383836136bf565b6119be8382613735565b6119c882826138f5565b6119d1816139b9565b505050565b6119de6135e9565b73ffffffffffffffffffffffffffffffffffffffff166119fc6129b2565b73ffffffffffffffffffffffffffffffffffffffff1614611a85576040517f08c379a00000000000000000000000000000000000000000000000000000000081526004018080602001828103825260208152602001807f4f776e61626c653a2063616c6c6572206973206e6f7420746865206f776e657281525060200191505060405180910390fd5b611a8e81613a17565b50565b6000611ae482600160008673ffffffffffffffffffffffffffffffffffffffff1673ffffffffffffffffffffffffffffffffffffffff168152602001908152602001600020613b3c90919063ffffffff16565b905092915050565b611af46125ae565b15611b67576040517f08c379a00000000000000000000000000000000000000000000000000000000081526004018080602001828103825260108152602001807f5061757361626c653a207061757365640000000000000000000000000000000081525060200191505060405180910390fd5b601060003373ffffffffffffffffffffffffffffffffffffffff1673ffffffffffffffffffffffffffffffffffffffff16815260200190815260200160002060009054906101000a900460ff1615611c27576040517f08c379a00000000000000000000000000000000000000000000000000000000081526004018080602001828103825260138152602001807f43726561746f72206e6f7420617070726f76650000000000000000000000000081525060200191505060405180910390fd5b60008060006060600f60009054906101000a900473ffffffffffffffffffffffffffffffffffffffff1673ffffffffffffffffffffffffffffffffffffffff16636e4ce25c876040518263ffffffff1660e01b81526004018082815260200191505060006040518083038186803b158015611ca157600080fd5b505afa158015611cb5573d6000803e3d6000fd5b505050506040513d6000823e3d601f19601f8201168201806040525060e0811015611cdf57600080fd5b810190808051906020019092919080519060200190929190805190602001909291908051906020019092919080516040519392919084640100000000821115611d2757600080fd5b83820191506020820185811115611d3d57600080fd5b8251866020820283011164010000000082111715611d5a57600080fd5b8083526020830192505050908051906020019060200280838360005b83811015611d91578082015181840152602081019050611d76565b5050505090500160405260200180516040519392919084640100000000821115611dba57600080fd5b83820191506020820185811115611dd057600080fd5b8251866020820283011164010000000082111715611ded57600080fd5b8083526020830192505050908051906020019060200280838360005b83811015611e24578082015181840152602081019050611e09565b5050505090500160405260200180516040519392919084640100000000821115611e4d57600080fd5b83820191506020820185811115611e6357600080fd5b8251866001820283011164010000000082111715611e8057600080fd5b8083526020830192505050908051906020019080838360005b83811015611eb4578082015181840152602081019050611e99565b50505050905090810190601f168015611ee15780820380516001836020036101000a031916815260200191505b5060405250505096505050945094509450508173ffffffffffffffffffffffffffffffffffffffff163373ffffffffffffffffffffffffffffffffffffffff1614611f94576040517f08c379a000000000000000000000000000000000000000000000000000000000815260040180806020018281038252600b8152602001807f4e6f742063726561746f7200000000000000000000000000000000000000000081525060200191505060405180910390fd5b611fa18686858785613b56565b505050505050565b611fb16125ae565b15612024576040517f08c379a00000000000000000000000000000000000000000000000000000000081526004018080602001828103825260108152602001807f5061757361626c653a207061757365640000000000000000000000000000000081525060200191505060405180910390fd5b601060003373ffffffffffffffffffffffffffffffffffffffff1673ffffffffffffffffffffffffffffffffffffffff16815260200190815260200160002060009054906101000a900460ff16156120e4576040517f08c379a00000000000000000000000000000000000000000000000000000000081526004018080602001828103825260148152602001807f43726561746f7220697320666f7262696464656e00000000000000000000000081525060200191505060405180910390fd5b600085511115612169578351600186510114612168576040517f08c379a00000000000000000000000000000000000000000000000000000000081526004018080602001828103825260158152602001807f42656e6566697473206c656e677468206572726f72000000000000000000000081525060200191505060405180910390fd5b5b60328111156121e0576040517f08c379a000000000000000000000000000000000000000000000000000000000815260040180806020018281038252600e8152602001807f436f756e74206f766572666c6f7700000000000000000000000000000000000081525060200191505060405180910390fd5b6000600f60009054906101000a900473ffffffffffffffffffffffffffffffffffffffff1673ffffffffffffffffffffffffffffffffffffffff16631b34e19433888888886040518663ffffffff1660e01b8152600401808673ffffffffffffffffffffffffffffffffffffffff168152602001806020018060200185815260200180602001848103845288818151815260200191508051906020019060200280838360005b838110156122a1578082015181840152602081019050612286565b50505050905001848103835287818151815260200191508051906020019060200280838360005b838110156122e35780820151818401526020810190506122c8565b50505050905001848103825285818151815260200191508051906020019080838360005b83811015612322578082015181840152602081019050612307565b50505050905090810190601f16801561234f5780820380516001836020036101000a031916815260200191505b5098505050505050505050602060405180830381600087803b15801561237457600080fd5b505af1158015612388573d6000803e3d6000fd5b505050506040513d602081101561239e57600080fd5b810190808051906020019092919050505090506123bf818360008787613b56565b505050505050565b6123e283838360405180602001604052806000815250613e84565b505050565b6000600b60009054906101000a900473ffffffffffffffffffffffffffffffffffffffff1673ffffffffffffffffffffffffffffffffffffffff1661242a6135e9565b73ffffffffffffffffffffffffffffffffffffffff1614905090565b60106020528060005260406000206000915054906101000a900460ff1681565b60008061247d836002613fa990919063ffffffff16565b50905080915050919050565b6124916135e9565b73ffffffffffffffffffffffffffffffffffffffff166124af6129b2565b73ffffffffffffffffffffffffffffffffffffffff1614612538576040517f08c379a00000000000000000000000000000000000000000000000000000000081526004018080602001828103825260208152602001807f4f776e61626c653a2063616c6c6572206973206e6f7420746865206f776e657281525060200191505060405180910390fd5b612541816135b2565b50565b6000600b60009054906101000a900473ffffffffffffffffffffffffffffffffffffffff16905090565b61257781613fd5565b612589612583826125c5565b82613735565b600060136000838152602001908152602001600020819055506125ab8161410f565b50565b6000600b60149054906101000a900460ff16905090565b60006125f5826040518060600160405280602981526020016159106029913960026141d49092919063ffffffff16565b9050919050565b60166020528060005260406000206000915054906101000a900460ff1681565b606060098054600181600116156101000203166002900480601f0160208091040260200160405190810160405280929190818152602001828054600181600116156101000203166002900480156126b45780601f10612689576101008083540402835291602001916126b4565b820191906000526020600020905b81548152906001019060200180831161269757829003601f168201915b5050505050905090565b60008073ffffffffffffffffffffffffffffffffffffffff168273ffffffffffffffffffffffffffffffffffffffff161415612745576040517f08c379a000000000000000000000000000000000000000000000000000000000815260040180806020018281038252602a8152602001806158e6602a913960400191505060405180910390fd5b61278c600160008473ffffffffffffffffffffffffffffffffffffffff1673ffffffffffffffffffffffffffffffffffffffff1681526020019081526020016000206141f3565b9050919050565b61279b6135e9565b73ffffffffffffffffffffffffffffffffffffffff166127b96129b2565b73ffffffffffffffffffffffffffffffffffffffff1614612842576040517f08c379a00000000000000000000000000000000000000000000000000000000081526004018080602001828103825260208152602001807f4f776e61626c653a2063616c6c6572206973206e6f7420746865206f776e657281525060200191505060405180910390fd5b600073ffffffffffffffffffffffffffffffffffffffff16600a60009054906101000a900473ffffffffffffffffffffffffffffffffffffffff1673ffffffffffffffffffffffffffffffffffffffff167f8be0079c531659141344cd1fd0a4f28419497f9722a3daafe3b4186f6b6457e060405160405180910390a36000600a60006101000a81548173ffffffffffffffffffffffffffffffffffffffff021916908373ffffffffffffffffffffffffffffffffffffffff160217905550565b600d6020528060005260406000206000915090505481565b6060601260008373ffffffffffffffffffffffffffffffffffffffff1673ffffffffffffffffffffffffffffffffffffffff1681526020019081526020016000208054806020026020016040519081016040528092919081815260200182805480156129a657602002820191906000526020600020905b815481526020019060010190808311612992575b50505050509050919050565b6000600a60009054906101000a900473ffffffffffffffffffffffffffffffffffffffff16905090565b606060078054600181600116156101000203166002900480601f016020809104026020016040519081016040528092919081815260200182805460018160011615610100020316600290048015612a745780601f10612a4957610100808354040283529160200191612a74565b820191906000526020600020905b815481529060010190602001808311612a5757829003601f168201915b5050505050905090565b612a866135e9565b73ffffffffffffffffffffffffffffffffffffffff168273ffffffffffffffffffffffffffffffffffffffff161415612b27576040517f08c379a00000000000000000000000000000000000000000000000000000000081526004018080602001828103825260198152602001807f4552433732313a20617070726f766520746f2063616c6c65720000000000000081525060200191505060405180910390fd5b8060056000612b346135e9565b73ffffffffffffffffffffffffffffffffffffffff1673ffffffffffffffffffffffffffffffffffffffff16815260200190815260200160002060008473ffffffffffffffffffffffffffffffffffffffff1673ffffffffffffffffffffffffffffffffffffffff16815260200190815260200160002060006101000a81548160ff0219169083151502179055508173ffffffffffffffffffffffffffffffffffffffff16612be16135e9565b73ffffffffffffffffffffffffffffffffffffffff167f17307eab39ab6107e8899845ad3d59bd9653f200f220920489ca2b5937696c318360405180821515815260200191505060405180910390a35050565b60116020528060005260406000206000915090508060000154908060010154908060020154905083565b612c6a84848484613e84565b50505050565b6060612c7b826135cc565b612cd0576040517f08c379a000000000000000000000000000000000000000000000000000000000815260040180806020018281038252602f815260200180615a09602f913960400191505060405180910390fd5b6060600860008481526020019081526020016000208054600181600116156101000203166002900480601f016020809104026020016040519081016040528092919081815260200182805460018160011615610100020316600290048015612d795780601f10612d4e57610100808354040283529160200191612d79565b820191906000526020600020905b815481529060010190602001808311612d5c57829003601f168201915b505050505090506060612d8a61261c565b9050600081511415612da0578192505050612f3c565b600082511115612e715780826040516020018083805190602001908083835b60208310612de25780518252602082019150602081019050602083039250612dbf565b6001836020036101000a03801982511681845116808217855250505050505090500182805190602001908083835b60208310612e335780518252602082019150602081019050602083039250612e10565b6001836020036101000a0380198251168184511680821785525050505050509050019250505060405160208183030381529060405292505050612f3c565b80612e7b85614208565b6040516020018083805190602001908083835b60208310612eb15780518252602082019150602081019050602083039250612e8e565b6001836020036101000a03801982511681845116808217855250505050505090500182805190602001908083835b60208310612f025780518252602082019150602081019050602083039250612edf565b6001836020036101000a03801982511681845116808217855250505050505090500192505050604051602081830303815290604052925050505b919050565b612f496135e9565b73ffffffffffffffffffffffffffffffffffffffff16612f676129b2565b73ffffffffffffffffffffffffffffffffffffffff1614612ff0576040517f08c379a00000000000000000000000000000000000000000000000000000000081526004018080602001828103825260208152602001807f4f776e61626c653a2063616c6c6572206973206e6f7420746865206f776e657281525060200191505060405180910390fd5b6000601060008373ffffffffffffffffffffffffffffffffffffffff1673ffffffffffffffffffffffffffffffffffffffff16815260200190815260200160002060006101000a81548160ff02191690831515021790555050565b6000806000806060806060600f60009054906101000a900473ffffffffffffffffffffffffffffffffffffffff1673ffffffffffffffffffffffffffffffffffffffff16636e4ce25c896040518263ffffffff1660e01b81526004018082815260200191505060006040518083038186803b1580156130c957600080fd5b505afa1580156130dd573d6000803e3d6000fd5b505050506040513d6000823e3d601f19601f8201168201806040525060e081101561310757600080fd5b81019080805190602001909291908051906020019092919080519060200190929190805190602001909291908051604051939291908464010000000082111561314f57600080fd5b8382019150602082018581111561316557600080fd5b825186602082028301116401000000008211171561318257600080fd5b8083526020830192505050908051906020019060200280838360005b838110156131b957808201518184015260208101905061319e565b50505050905001604052602001805160405193929190846401000000008211156131e257600080fd5b838201915060208201858111156131f857600080fd5b825186602082028301116401000000008211171561321557600080fd5b8083526020830192505050908051906020019060200280838360005b8381101561324c578082015181840152602081019050613231565b505050509050016040526020018051604051939291908464010000000082111561327557600080fd5b8382019150602082018581111561328b57600080fd5b82518660018202830111640100000000821117156132a857600080fd5b8083526020830192505050908051906020019080838360005b838110156132dc5780820151818401526020810190506132c1565b50505050905090810190601f1680156133095780820380516001836020036101000a031916815260200191505b506040525050509650965096509650965096509650919395979092949650565b6000600560008473ffffffffffffffffffffffffffffffffffffffff1673ffffffffffffffffffffffffffffffffffffffff16815260200190815260200160002060008373ffffffffffffffffffffffffffffffffffffffff1673ffffffffffffffffffffffffffffffffffffffff16815260200190815260200160002060009054906101000a900460ff16905092915050565b6133c56135e9565b73ffffffffffffffffffffffffffffffffffffffff166133e36129b2565b73ffffffffffffffffffffffffffffffffffffffff161461346c576040517f08c379a00000000000000000000000000000000000000000000000000000000081526004018080602001828103825260208152602001807f4f776e61626c653a2063616c6c6572206973206e6f7420746865206f776e657281525060200191505060405180910390fd5b600073ffffffffffffffffffffffffffffffffffffffff168173ffffffffffffffffffffffffffffffffffffffff1614156134f2576040517f08c379a00000000000000000000000000000000000000000000000000000000081526004018080602001828103825260268152602001806157e36026913960400191505060405180910390fd5b8073ffffffffffffffffffffffffffffffffffffffff16600a60009054906101000a900473ffffffffffffffffffffffffffffffffffffffff1673ffffffffffffffffffffffffffffffffffffffff167f8be0079c531659141344cd1fd0a4f28419497f9722a3daafe3b4186f6b6457e060405160405180910390a380600a60006101000a81548173ffffffffffffffffffffffffffffffffffffffff021916908373ffffffffffffffffffffffffffffffffffffffff16021790555050565b80600990805190602001906135c8929190615688565b5050565b60006135e282600261434f90919063ffffffff16565b9050919050565b600033905090565b816004600083815260200190815260200160002060006101000a81548173ffffffffffffffffffffffffffffffffffffffff021916908373ffffffffffffffffffffffffffffffffffffffff160217905550808273ffffffffffffffffffffffffffffffffffffffff16613664836125c5565b73ffffffffffffffffffffffffffffffffffffffff167f8c5be1e5ebec7d5bd14f71427d1e84f3dd0314c0f7b2291e5b200ac8c7c3b92560405160405180910390a45050565b60006136b882600001614369565b9050919050565b6136d06136ca6135e9565b8261437a565b613725576040517f08c379a0000000000000000000000000000000000000000000000000000000008152600401808060200182810382526031815260200180615a596031913960400191505060405180910390fd5b61373083838361446e565b505050565b600061378d6001601260008673ffffffffffffffffffffffffffffffffffffffff1673ffffffffffffffffffffffffffffffffffffffff168152602001908152602001600020805490506146b190919063ffffffff16565b905060006013600084815260200190815260200160002054905081811461387a576000601260008673ffffffffffffffffffffffffffffffffffffffff1673ffffffffffffffffffffffffffffffffffffffff16815260200190815260200160002083815481106137fa57fe5b9060005260206000200154905080601260008773ffffffffffffffffffffffffffffffffffffffff1673ffffffffffffffffffffffffffffffffffffffff168152602001908152602001600020838154811061385257fe5b9060005260206000200181905550816013600083815260200190815260200160002081905550505b601260008573ffffffffffffffffffffffffffffffffffffffff1673ffffffffffffffffffffffffffffffffffffffff1681526020019081526020016000208054806138c257fe5b60019003818190600052602060002001600090559055601360008481526020019081526020016000206000905550505050565b601260008373ffffffffffffffffffffffffffffffffffffffff1673ffffffffffffffffffffffffffffffffffffffff168152602001908152602001600020805490506013600083815260200190815260200160002081905550601260008373ffffffffffffffffffffffffffffffffffffffff1673ffffffffffffffffffffffffffffffffffffffff1681526020019081526020016000208190806001815401808255809150506001900390600052602060002001600090919091909150555050565b6000600d6000838152602001908152602001600020541415613a14576139fc6001600d60008481526020019081526020016000205461473490919063ffffffff16565b600d6000838152602001908152602001600020819055505b50565b600073ffffffffffffffffffffffffffffffffffffffff168173ffffffffffffffffffffffffffffffffffffffff161415613a9d576040517f08c379a000000000000000000000000000000000000000000000000000000000815260040180806020018281038252602d815260200180615939602d913960400191505060405180910390fd5b8073ffffffffffffffffffffffffffffffffffffffff16600073ffffffffffffffffffffffffffffffffffffffff167f74da04524d50c64947f5dd5381ef1a4dca5cba8ed1d816243f9e48aa0b5617ed60405160405180910390a380600b60006101000a81548173ffffffffffffffffffffffffffffffffffffffff021916908373ffffffffffffffffffffffffffffffffffffffff16021790555050565b6000613b4b83600001836147bc565b60001c905092915050565b81613b6a848661473490919063ffffffff16565b1115613bde576040517f08c379a00000000000000000000000000000000000000000000000000000000081526004018080602001828103825260168152602001807f546f74616c20737570706c792065786365656465642e0000000000000000000081525060200191505060405180910390fd5b60005b84811015613d9657613bf3600c61483f565b6000613bff600c614855565b90506000613c296001613c1b858961473490919063ffffffff16565b61473490919063ffffffff16565b9050613c33615708565b60405180606001604052808a81526020018381526020018781525090508060116000858152602001908152602001600020600082015181600001556020820151816001015560408201518160020155905050613c8f3384614863565b613c998386614a57565b613ca283614ae1565b613cac33846138f5565b7f264009150e680b327677f372c2324923bd12b3b718ebd62d6cf6d3bb3179d8f9893385858a8a604051808781526020018673ffffffffffffffffffffffffffffffffffffffff16815260200185815260200184815260200183815260200180602001828103825283818151815260200191508051906020019080838360005b83811015613d47578082015181840152602081019050613d2c565b50505050905090810190601f168015613d745780820380516001836020036101000a031916815260200191505b5097505050505050505060405180910390a15050508080600101915050613be1565b50600f60009054906101000a900473ffffffffffffffffffffffffffffffffffffffff1673ffffffffffffffffffffffffffffffffffffffff166356b28aae86866040518363ffffffff1660e01b81526004018083815260200182815260200192505050600060405180830381600087803b158015613e1457600080fd5b505af1158015613e28573d6000803e3d6000fd5b505050507f68091494c05ef788e42594f810ab4fc09c48eba85b5792b56e96ff8f1a71c9c085613e61868661473490919063ffffffff16565b604051808381526020018281526020019250505060405180910390a15050505050565b3073ffffffffffffffffffffffffffffffffffffffff163373ffffffffffffffffffffffffffffffffffffffff161480613ed157506001600d600084815260200190815260200160002054115b80613f255750600e60003373ffffffffffffffffffffffffffffffffffffffff1673ffffffffffffffffffffffffffffffffffffffff16815260200190815260200160002060009054906101000a900460ff165b613f7a576040517f08c379a000000000000000000000000000000000000000000000000000000000815260040180806020018281038252602f815260200180615809602f913960400191505060405180910390fd5b613f8684848484614b2a565b613f908483613735565b613f9a83836138f5565b613fa3826139b9565b50505050565b600080600080613fbc8660000186614ba2565b915091508160001c8160001c9350935050509250929050565b6000613fe0826125c5565b9050613fee81600084614c3b565b613ff96000836135f1565b60006008600084815260200190815260200160002080546001816001161561010002031660029004905014614048576008600083815260200190815260200160002060006140479190615729565b5b61409982600160008473ffffffffffffffffffffffffffffffffffffffff1673ffffffffffffffffffffffffffffffffffffffff168152602001908152602001600020614c4090919063ffffffff16565b506140ae826002614c5a90919063ffffffff16565b5081600073ffffffffffffffffffffffffffffffffffffffff168273ffffffffffffffffffffffffffffffffffffffff167fddf252ad1be2c89b69c2b068fc378daa952ba7f163c4a11628f55a4df523b3ef60405160405180910390a45050565b600061412a60016014805490506146b190919063ffffffff16565b905060006015600084815260200190815260200160002054905060006014838154811061415357fe5b90600052602060002001549050806014838154811061416e57fe5b9060005260206000200181905550816015600083815260200190815260200160002081905550601480548061419f57fe5b600190038181906000526020600020016000905590556000601560008681526020019081526020016000208190555050505050565b60006141e7846000018460001b84614c74565b60001c90509392505050565b600061420182600001614d6a565b9050919050565b60606000821415614250576040518060400160405280600181526020017f3000000000000000000000000000000000000000000000000000000000000000815250905061434a565b600082905060005b6000821461427a578080600101915050600a828161427257fe5b049150614258565b60608167ffffffffffffffff8111801561429357600080fd5b506040519080825280601f01601f1916602001820160405280156142c65781602001600182028036833780820191505090505b50905060006001830390508593505b6000841461434257600a84816142e757fe5b0660300160f81b8282806001900393508151811061430157fe5b60200101907effffffffffffffffffffffffffffffffffffffffffffffffffffffffffffff1916908160001a905350600a848161433a57fe5b0493506142d5565b819450505050505b919050565b6000614361836000018360001b614d7b565b905092915050565b600081600001805490509050919050565b6000614385826135cc565b6143da576040517f08c379a000000000000000000000000000000000000000000000000000000000815260040180806020018281038252602c815260200180615882602c913960400191505060405180910390fd5b60006143e5836125c5565b90508073ffffffffffffffffffffffffffffffffffffffff168473ffffffffffffffffffffffffffffffffffffffff16148061445457508373ffffffffffffffffffffffffffffffffffffffff1661443c8461137f565b73ffffffffffffffffffffffffffffffffffffffff16145b8061446557506144648185613329565b5b91505092915050565b8273ffffffffffffffffffffffffffffffffffffffff1661448e826125c5565b73ffffffffffffffffffffffffffffffffffffffff16146144fa576040517f08c379a00000000000000000000000000000000000000000000000000000000081526004018080602001828103825260298152602001806159e06029913960400191505060405180910390fd5b600073ffffffffffffffffffffffffffffffffffffffff168273ffffffffffffffffffffffffffffffffffffffff161415614580576040517f08c379a00000000000000000000000000000000000000000000000000000000081526004018080602001828103825260248152602001806158386024913960400191505060405180910390fd5b61458b838383614c3b565b6145966000826135f1565b6145e781600160008673ffffffffffffffffffffffffffffffffffffffff1673ffffffffffffffffffffffffffffffffffffffff168152602001908152602001600020614c4090919063ffffffff16565b5061463981600160008573ffffffffffffffffffffffffffffffffffffffff1673ffffffffffffffffffffffffffffffffffffffff168152602001908152602001600020614d9e90919063ffffffff16565b5061465081836002614db89092919063ffffffff16565b50808273ffffffffffffffffffffffffffffffffffffffff168473ffffffffffffffffffffffffffffffffffffffff167fddf252ad1be2c89b69c2b068fc378daa952ba7f163c4a11628f55a4df523b3ef60405160405180910390a4505050565b600082821115614729576040517f08c379a000000000000000000000000000000000000000000000000000000000815260040180806020018281038252601e8152602001807f536166654d6174683a207375627472616374696f6e206f766572666c6f77000081525060200191505060405180910390fd5b818303905092915050565b6000808284019050838110156147b2576040517f08c379a000000000000000000000000000000000000000000000000000000000815260040180806020018281038252601b8152602001807f536166654d6174683a206164646974696f6e206f766572666c6f77000000000081525060200191505060405180910390fd5b8091505092915050565b60008183600001805490501161481d576040517f08c379a000000000000000000000000000000000000000000000000000000000815260040180806020018281038252602281526020018061578f6022913960400191505060405180910390fd5b82600001828154811061482c57fe5b9060005260206000200154905092915050565b6001816000016000828254019250508190555050565b600081600001549050919050565b600073ffffffffffffffffffffffffffffffffffffffff168273ffffffffffffffffffffffffffffffffffffffff161415614906576040517f08c379a00000000000000000000000000000000000000000000000000000000081526004018080602001828103825260208152602001807f4552433732313a206d696e7420746f20746865207a65726f206164647265737381525060200191505060405180910390fd5b61490f816135cc565b15614982576040517f08c379a000000000000000000000000000000000000000000000000000000000815260040180806020018281038252601c8152602001807f4552433732313a20746f6b656e20616c7265616479206d696e7465640000000081525060200191505060405180910390fd5b61498e60008383614c3b565b6149df81600160008573ffffffffffffffffffffffffffffffffffffffff1673ffffffffffffffffffffffffffffffffffffffff168152602001908152602001600020614d9e90919063ffffffff16565b506149f681836002614db89092919063ffffffff16565b50808273ffffffffffffffffffffffffffffffffffffffff16600073ffffffffffffffffffffffffffffffffffffffff167fddf252ad1be2c89b69c2b068fc378daa952ba7f163c4a11628f55a4df523b3ef60405160405180910390a45050565b614a60826135cc565b614ab5576040517f08c379a000000000000000000000000000000000000000000000000000000000815260040180806020018281038252602c8152602001806159b4602c913960400191505060405180910390fd5b80600860008481526020019081526020016000209080519060200190614adc929190615688565b505050565b6014805490506015600083815260200190815260200160002081905550601481908060018154018082558091505060019003906000526020600020016000909190919091505550565b614b3b614b356135e9565b8361437a565b614b90576040517f08c379a0000000000000000000000000000000000000000000000000000000008152600401808060200182810382526031815260200180615a596031913960400191505060405180910390fd5b614b9c84848484614ded565b50505050565b60008082846000018054905011614c04576040517f08c379a00000000000000000000000000000000000000000000000000000000081526004018080602001828103825260228152602001806159666022913960400191505060405180910390fd5b6000846000018481548110614c1557fe5b906000526020600020906002020190508060000154816001015492509250509250929050565b505050565b6000614c52836000018360001b614e5f565b905092915050565b6000614c6c836000018360001b614f47565b905092915050565b60008084600101600085815260200190815260200160002054905060008114158390614d3b576040517f08c379a00000000000000000000000000000000000000000000000000000000081526004018080602001828103825283818151815260200191508051906020019080838360005b83811015614d00578082015181840152602081019050614ce5565b50505050905090810190601f168015614d2d5780820380516001836020036101000a031916815260200191505b509250505060405180910390fd5b50846000016001820381548110614d4e57fe5b9060005260206000209060020201600101549150509392505050565b600081600001805490509050919050565b600080836001016000848152602001908152602001600020541415905092915050565b6000614db0836000018360001b615060565b905092915050565b6000614de4846000018460001b8473ffffffffffffffffffffffffffffffffffffffff1660001b6150d0565b90509392505050565b614df884848461446e565b614e04848484846151ac565b614e59576040517f08c379a00000000000000000000000000000000000000000000000000000000081526004018080602001828103825260328152602001806157b16032913960400191505060405180910390fd5b50505050565b60008083600101600084815260200190815260200160002054905060008114614f3b5760006001820390506000600186600001805490500390506000866000018281548110614eaa57fe5b9060005260206000200154905080876000018481548110614ec757fe5b9060005260206000200181905550600183018760010160008381526020019081526020016000208190555086600001805480614eff57fe5b60019003818190600052602060002001600090559055866001016000878152602001908152602001600020600090556001945050505050614f41565b60009150505b92915050565b600080836001016000848152602001908152602001600020549050600081146150545760006001820390506000600186600001805490500390506000866000018281548110614f9257fe5b9060005260206000209060020201905080876000018481548110614fb257fe5b906000526020600020906002020160008201548160000155600182015481600101559050506001830187600101600083600001548152602001908152602001600020819055508660000180548061500557fe5b600190038181906000526020600020906002020160008082016000905560018201600090555050905586600101600087815260200190815260200160002060009055600194505050505061505a565b60009150505b92915050565b600061506c83836153c5565b6150c55782600001829080600181540180825580915050600190039060005260206000200160009091909190915055826000018054905083600101600084815260200190815260200160002081905550600190506150ca565b600090505b92915050565b6000808460010160008581526020019081526020016000205490506000811415615177578460000160405180604001604052808681526020018581525090806001815401808255809150506001900390600052602060002090600202016000909190919091506000820151816000015560208201518160010155505084600001805490508560010160008681526020019081526020016000208190555060019150506151a5565b8285600001600183038154811061518a57fe5b90600052602060002090600202016001018190555060009150505b9392505050565b60006151cd8473ffffffffffffffffffffffffffffffffffffffff166153e8565b6151da57600190506153bd565b606061534463150b7a0260e01b6151ef6135e9565b888787604051602401808573ffffffffffffffffffffffffffffffffffffffff1681526020018473ffffffffffffffffffffffffffffffffffffffff16815260200183815260200180602001828103825283818151815260200191508051906020019080838360005b83811015615273578082015181840152602081019050615258565b50505050905090810190601f1680156152a05780820380516001836020036101000a031916815260200191505b5095505050505050604051602081830303815290604052907bffffffffffffffffffffffffffffffffffffffffffffffffffffffff19166020820180517bffffffffffffffffffffffffffffffffffffffffffffffffffffffff83818316178352505050506040518060600160405280603281526020016157b1603291398773ffffffffffffffffffffffffffffffffffffffff166153fb9092919063ffffffff16565b9050600081806020019051602081101561535d57600080fd5b8101908080519060200190929190505050905063150b7a0260e01b7bffffffffffffffffffffffffffffffffffffffffffffffffffffffff1916817bffffffffffffffffffffffffffffffffffffffffffffffffffffffff191614925050505b949350505050565b600080836001016000848152602001908152602001600020541415905092915050565b600080823b905060008111915050919050565b606061540a8484600085615413565b90509392505050565b60608247101561546e576040517f08c379a000000000000000000000000000000000000000000000000000000000815260040180806020018281038252602681526020018061585c6026913960400191505060405180910390fd5b615477856153e8565b6154e9576040517f08c379a000000000000000000000000000000000000000000000000000000000815260040180806020018281038252601d8152602001807f416464726573733a2063616c6c20746f206e6f6e2d636f6e747261637400000081525060200191505060405180910390fd5b600060608673ffffffffffffffffffffffffffffffffffffffff1685876040518082805190602001908083835b602083106155395780518252602082019150602081019050602083039250615516565b6001836020036101000a03801982511681845116808217855250505050505090500191505060006040518083038185875af1925050503d806000811461559b576040519150601f19603f3d011682016040523d82523d6000602084013e6155a0565b606091505b50915091506155b08282866155bc565b92505050949350505050565b606083156155cc57829050615681565b6000835111156155df5782518084602001fd5b816040517f08c379a00000000000000000000000000000000000000000000000000000000081526004018080602001828103825283818151815260200191508051906020019080838360005b8381101561564657808201518184015260208101905061562b565b50505050905090810190601f1680156156735780820380516001836020036101000a031916815260200191505b509250505060405180910390fd5b9392505050565b828054600181600116156101000203166002900490600052602060002090601f016020900481019282601f106156c957805160ff19168380011785556156f7565b828001600101855582156156f7579182015b828111156156f65782518255916020019190600101906156db565b5b5090506157049190615771565b5090565b60405180606001604052806000815260200160008152602001600081525090565b50805460018160011615610100020316600290046000825580601f1061574f575061576e565b601f01602090049060005260206000209081019061576d9190615771565b5b50565b5b8082111561578a576000816000905550600101615772565b509056fe456e756d657261626c655365743a20696e646578206f7574206f6620626f756e64734552433732313a207472616e7366657220746f206e6f6e20455243373231526563656976657220696d706c656d656e7465724f776e61626c653a206e6577206f776e657220697320746865207a65726f20616464726573734c696d6974206669727374207472616e73666572206d7573742073616c65206f6e20617274676565206d61726b65744552433732313a207472616e7366657220746f20746865207a65726f2061646472657373416464726573733a20696e73756666696369656e742062616c616e636520666f722063616c6c4552433732313a206f70657261746f7220717565727920666f72206e6f6e6578697374656e7420746f6b656e4552433732313a20617070726f76652063616c6c6572206973206e6f74206f776e6572206e6f7220617070726f76656420666f7220616c6c4552433732313a2062616c616e636520717565727920666f7220746865207a65726f20616464726573734552433732313a206f776e657220717565727920666f72206e6f6e6578697374656e7420746f6b656e6f70657261746f723a207a65726f206164647265737320676976656e20666f72206e6577206f70657261746f72456e756d657261626c654d61703a20696e646578206f7574206f6620626f756e64734552433732313a20617070726f76656420717565727920666f72206e6f6e6578697374656e7420746f6b656e4552433732314d657461646174613a2055524920736574206f66206e6f6e6578697374656e7420746f6b656e4552433732313a207472616e73666572206f6620746f6b656e2074686174206973206e6f74206f776e4552433732314d657461646174613a2055524920717565727920666f72206e6f6e6578697374656e7420746f6b656e4552433732313a20617070726f76616c20746f2063757272656e74206f776e65724552433732313a207472616e736665722063616c6c6572206973206e6f74206f776e6572206e6f7220617070726f766564a2646970667358221220713e002a960467576228e5ab3f5ec17ee3c2cebb57ac9f05ba7d74b2ce6ac43364736f6c634300060c0033",
  "immutableReferences": {},
  "source": "pragma solidity >=0.6.0 <0.8.0;\n\nimport \"@openzeppelin/contracts/token/ERC721/ERC721.sol\";\nimport \"@openzeppelin/contracts/utils/Counters.sol\";\nimport \"@openzeppelin/contracts/utils/Pausable.sol\";\nimport \"./util/StringUtils.sol\";\nimport \"./owner/Operator.sol\";\nimport \"./interfaces/IDigitalSource.sol\";\n\n/// @title artgee nft\n/// @author yzbbanban\n/// @notice finish create nft,add art id\n/// @dev Explain to a developer any extra details\ncontract ArtGeeNft is ERC721, Operator, Pausable{\n\n    event CreateArt(uint256 _artId, address _owner,uint256 _tokenId, \n                    uint256 _edition,uint256 _totalEdition,string _uri);\n    event UpdateEdition(uint256 _artId, uint256 edition);\n\n    using Counters for Counters.Counter;\n    Counters.Counter private _tokenIds;\n    using SafeMath for uint256;\n\n    //tokenId => limitCount\n    mapping(uint256 => uint256) public limitCount;\n    // market => in transfer list\n    mapping(address => bool) transferList;\n\n    IDigitalSource public iDigitalSource;\n\n    mapping(address => bool) public blackList;\n\n    //tokenId => TokenArt\n    mapping(uint256 => TokenArt) public tokenArts;\n\n    struct TokenArt {\n        uint256 artId;\n        uint256 edition;\n        uint256 totalEdition;\n    }\n\n     // Mapping from owner to list of owned token IDs\n    mapping(address => uint256[]) private _ownedTokens;\n\n    // Mapping from token ID to index of the owner tokens list\n    mapping(uint256 => uint256) private _ownedTokensIndex;\n\n    // Array with all token ids, used for enumeration\n    uint256[] private _allTokens;\n\n    // Mapping from token id to position in the allTokens array\n    mapping(uint256 => uint256) private _allTokensIndex;\n\n    mapping(address => bool) public miners;\n\n    constructor(IDigitalSource _iDigitalSource) public ERC721(\"AAAA\", \"AAAA\") {\n        iDigitalSource = _iDigitalSource;\n        super._setBaseURI(\"ipfs://ipfs/\");\n    }\n\n    //get art detail by art id\n    function getSourceDigitalArt(uint256 _artId) view public returns(\n                uint256 id,\n                uint256 totalEdition,\n                uint256 currentEdition,\n                address creator,\n                address[] memory assistants,\n                uint256[] memory benefits,\n                string memory uri\n    ){\n        return iDigitalSource.getDigitalArt(_artId);\n    }\n\n    function tokensOfOwner(address _owner) view public returns(uint256[] memory _tokens){\n        return _ownedTokens[_owner];\n    }\n\n    function addBlackList(address _black) public onlyOwner(){\n        blackList[_black] = true;\n    }\n\n    function removeBlackList(address _black) public onlyOwner(){\n        blackList[_black] = false;\n    }\n\n    function addTransferList(address _transferAddr) public onlyOwner(){\n        transferList[_transferAddr] = true;\n    }\n\n    function removeTransferList(address _transferAddr) public onlyOwner(){\n        transferList[_transferAddr] = false;\n    }\n\n    function setBaseURI(string memory _baseURI) public onlyOwner(){\n        //ipfs://ipfs/\n        super._setBaseURI(_baseURI);\n    }\n\n    /**\n     * @dev See {IERC721-transferFrom}.\n     */\n    function transferFrom(address from, address to, uint256 tokenId) public virtual override {\n        //limit first transfer must sale on artgee market\n        require(msg.sender == address(this)\n                || limitCount[tokenId]>1\n                || transferList[msg.sender],\n                \"Limit first transfer must sale on artgee market\");\n        super.transferFrom(from, to, tokenId);\n        _removeTokenFromOwnerEnumeration(from, tokenId);\n        _addTokenToOwnerEnumeration(to, tokenId);\n        _addTransferLimit(tokenId);\n    }\n\n    /**\n     * @dev See {IERC721-safeTransferFrom}.\n     */\n    function safeTransferFrom(address from, address to, uint256 tokenId) public virtual override {\n        _safeTransferFrom(from,to,tokenId,\"\");\n    }\n\n    /**\n     * @dev See {IERC721-safeTransferFrom}.\n     */\n    function safeTransferFrom(address from, address to, uint256 tokenId, bytes memory _data) public virtual override {\n        _safeTransferFrom(from,to,tokenId,_data);\n    }\n\n    function _safeTransferFrom(address from, address to, uint256 tokenId, bytes memory _data) internal {\n        require(msg.sender == address(this)\n                || limitCount[tokenId]>1\n                || transferList[msg.sender],\n                \"Limit first transfer must sale on artgee market\");\n        super.safeTransferFrom(from, to, tokenId, _data);\n        _removeTokenFromOwnerEnumeration(from, tokenId);\n        _addTokenToOwnerEnumeration(to, tokenId);\n        _addTransferLimit(tokenId);\n    }\n\n    function _addTransferLimit(uint256 _tokenId) internal{\n        if(limitCount[_tokenId]==0){\n            limitCount[_tokenId] = limitCount[_tokenId].add(1);\n        }\n    }\n\n     /**\n     * @dev create art\n     *\n     * @param _assistants assistant\n     * @param _benefits benefits of assistants(contain creator,index 0)\n     * @param _totalEdition total edition\n     * @param _uri metadate\n     * @param _count edition count\n     */\n    function createArt(address[] memory _assistants,uint256[] memory _benefits,uint256 _totalEdition,\n                string memory _uri,\n                uint256 _count) public whenNotPaused(){\n        require(!blackList[msg.sender],\"Creator is forbidden\");\n        if(_assistants.length>0){\n            require(_assistants.length + 1 == _benefits.length,\"Benefits length error\");\n        }\n        require(_count <= 50,\"Count overflow\");\n        //create art id\n        uint256 _artId = iDigitalSource.createDigitalArt(\n                                msg.sender,\n                                _assistants, \n                                _benefits, \n                                _totalEdition, \n                                _uri);\n        _createArt(_artId, _count,0,_totalEdition,_uri);\n    }\n\n    /**\n     * @dev add art\n     * @param _artId artid\n     * @param _count tcount\n     */\n    function addArt(uint256 _artId, uint256 _count) public whenNotPaused(){\n        require(!blackList[msg.sender],\"Creator not approve\");\n         (,uint256 totalEdition,uint256 currentEdition,address creator,,,string memory uri)=iDigitalSource.getDigitalArt(_artId);\n        require(msg.sender == creator ,\"Not creator\");\n        _createArt(_artId, _count,currentEdition,totalEdition,uri);\n    }\n\n    function _createArt(uint256 _artId,\n                        uint256 _count,\n                        uint256 _currentEdition,\n                        uint256 _totalEdition,string memory _uri)\n        internal\n    {\n        require(_count.add(_currentEdition) <= _totalEdition, \"Total supply exceeded.\");\n        for (uint256 index = 0; index < _count; index++) {\n            _tokenIds.increment();\n            uint256 newItemId = _tokenIds.current();\n            uint256 _edition = _currentEdition.add(index).add(1);\n            //bind artId\n            TokenArt memory tokenArt = TokenArt(_artId,_edition,_totalEdition);\n            //bind current info\n            tokenArts[newItemId] = tokenArt;\n            _mint(msg.sender, newItemId);\n            //set metadata\n            _setTokenURI(newItemId, _uri);\n            _addTokenToAllTokensEnumeration(newItemId);\n            _addTokenToOwnerEnumeration(msg.sender, newItemId);\n            emit CreateArt(_artId, msg.sender, newItemId, \n                    _edition,_totalEdition,_uri);\n        }\n        iDigitalSource.increaseDigitalArtEdition(_artId, _count);\n        //event\n        emit UpdateEdition(_artId,_currentEdition.add(_count));\n    }\n\n    function burnItem(uint256 _id) public{\n        _burn(_id);\n        _removeTokenFromOwnerEnumeration(ownerOf(_id), _id);\n        // Since tokenId will be deleted, we can clear its slot in _ownedTokensIndex to trigger a gas refund\n        _ownedTokensIndex[_id] = 0;\n        _removeTokenFromAllTokensEnumeration(_id);\n    }\n\n    /**\n     * @dev Private function to add a token to this extension's ownership-tracking data structures.\n     * @param to address representing the new owner of the given token ID\n     * @param tokenId uint256 ID of the token to be added to the tokens list of the given address\n     */\n    function _addTokenToOwnerEnumeration(address to, uint256 tokenId) private {\n        _ownedTokensIndex[tokenId] = _ownedTokens[to].length;\n        _ownedTokens[to].push(tokenId);\n    }\n\n    /**\n     * @dev Private function to add a token to this extension's token tracking data structures.\n     * @param tokenId uint256 ID of the token to be added to the tokens list\n     */\n    function _addTokenToAllTokensEnumeration(uint256 tokenId) private {\n        _allTokensIndex[tokenId] = _allTokens.length;\n        _allTokens.push(tokenId);\n    }\n\n     /**\n     * @dev Private function to remove a token from this extension's ownership-tracking data structures. Note that\n     * while the token is not assigned a new owner, the `_ownedTokensIndex` mapping is _not_ updated: this allows for\n     * gas optimizations e.g. when performing a transfer operation (avoiding double writes).\n     * This has O(1) time complexity, but alters the order of the _ownedTokens array.\n     * @param from address representing the previous owner of the given token ID\n     * @param tokenId uint256 ID of the token to be removed from the tokens list of the given address\n     */\n    function _removeTokenFromOwnerEnumeration(address from, uint256 tokenId) private {\n        // To prevent a gap in from's tokens array, we store the last token in the index of the token to delete, and\n        // then delete the last slot (swap and pop).\n\n        uint256 lastTokenIndex = _ownedTokens[from].length.sub(1);\n        uint256 tokenIndex = _ownedTokensIndex[tokenId];\n\n        // When the token to delete is the last token, the swap operation is unnecessary\n        if (tokenIndex != lastTokenIndex) {\n            uint256 lastTokenId = _ownedTokens[from][lastTokenIndex];\n\n            _ownedTokens[from][tokenIndex] = lastTokenId; // Move the last token to the slot of the to-delete token\n            _ownedTokensIndex[lastTokenId] = tokenIndex; // Update the moved token's index\n        }\n\n        // This also deletes the contents at the last position of the array\n        _ownedTokens[from].pop();\n\n        // Note that _ownedTokensIndex[tokenId] hasn't been cleared: it still points to the old slot (now occupied by\n        // lastTokenId, or just over the end of the array if the token was the last one).\n        delete _ownedTokensIndex[tokenId];\n    }\n\n     /**\n     * @dev Private function to remove a token from this extension's token tracking data structures.\n     * This has O(1) time complexity, but alters the order of the _allTokens array.\n     * @param tokenId uint256 ID of the token to be removed from the tokens list\n     */\n    function _removeTokenFromAllTokensEnumeration(uint256 tokenId) private {\n        // To prevent a gap in the tokens array, we store the last token in the index of the token to delete, and\n        // then delete the last slot (swap and pop).\n\n        uint256 lastTokenIndex = _allTokens.length.sub(1);\n        uint256 tokenIndex = _allTokensIndex[tokenId];\n\n        // When the token to delete is the last token, the swap operation is unnecessary. However, since this occurs so\n        // rarely (when the last minted token is burnt) that we still do the swap here to avoid the gas cost of adding\n        uint256 lastTokenId = _allTokens[lastTokenIndex];\n\n        _allTokens[tokenIndex] = lastTokenId; // Move the last token to the slot of the to-delete token\n        _allTokensIndex[lastTokenId] = tokenIndex; // Update the moved token's index\n\n        // This also deletes the contents at the last position of the array\n        _allTokens.pop();\n        _allTokensIndex[tokenId] = 0;\n    }\n}",
  "sourcePath": "/Users/wangban/Downloads/money/coin/other/artgee/ArtGee-Contract/contracts/ArtGeeNft.sol",
  "compiler": {
    "name": "solc",
    "version": "0.6.12+commit.27d51765.Emscripten.clang"
  },
  "schemaVersion": "3.3.2",
  "updatedAt": "2021-04-13T17:05:26.302Z",
  "devdoc": {
    "author": "yzbbanban",
    "details": "Explain to a developer any extra details",
    "kind": "dev",
    "methods": {
      "addArt(uint256,uint256)": {
        "details": "add art",
        "params": {
          "_artId": "artid",
          "_count": "tcount"
        }
      },
      "approve(address,uint256)": {
        "details": "See {IERC721-approve}."
      },
      "balanceOf(address)": {
        "details": "See {IERC721-balanceOf}."
      },
      "baseURI()": {
        "details": "Returns the base URI set via {_setBaseURI}. This will be automatically added as a prefix in {tokenURI} to each token's URI, or to the token ID if no specific URI is set for that token ID."
      },
      "createArt(address[],uint256[],uint256,string,uint256)": {
        "details": "create art",
        "params": {
          "_assistants": "assistant",
          "_benefits": "benefits of assistants(contain creator,index 0)",
          "_count": "edition count",
          "_totalEdition": "total edition",
          "_uri": "metadate"
        }
      },
      "getApproved(uint256)": {
        "details": "See {IERC721-getApproved}."
      },
      "isApprovedForAll(address,address)": {
        "details": "See {IERC721-isApprovedForAll}."
      },
      "name()": {
        "details": "See {IERC721Metadata-name}."
      },
      "owner()": {
        "details": "Returns the address of the current owner."
      },
      "ownerOf(uint256)": {
        "details": "See {IERC721-ownerOf}."
      },
      "paused()": {
        "details": "Returns true if the contract is paused, and false otherwise."
      },
      "renounceOwnership()": {
        "details": "Leaves the contract without owner. It will not be possible to call `onlyOwner` functions anymore. Can only be called by the current owner. NOTE: Renouncing ownership will leave the contract without an owner, thereby removing any functionality that is only available to the owner."
      },
      "safeTransferFrom(address,address,uint256)": {
        "details": "See {IERC721-safeTransferFrom}."
      },
      "safeTransferFrom(address,address,uint256,bytes)": {
        "details": "See {IERC721-safeTransferFrom}."
      },
      "setApprovalForAll(address,bool)": {
        "details": "See {IERC721-setApprovalForAll}."
      },
      "supportsInterface(bytes4)": {
        "details": "See {IERC165-supportsInterface}. Time complexity O(1), guaranteed to always use less than 30 000 gas."
      },
      "symbol()": {
        "details": "See {IERC721Metadata-symbol}."
      },
      "tokenByIndex(uint256)": {
        "details": "See {IERC721Enumerable-tokenByIndex}."
      },
      "tokenOfOwnerByIndex(address,uint256)": {
        "details": "See {IERC721Enumerable-tokenOfOwnerByIndex}."
      },
      "tokenURI(uint256)": {
        "details": "See {IERC721Metadata-tokenURI}."
      },
      "totalSupply()": {
        "details": "See {IERC721Enumerable-totalSupply}."
      },
      "transferFrom(address,address,uint256)": {
        "details": "See {IERC721-transferFrom}."
      },
      "transferOwnership(address)": {
        "details": "Transfers ownership of the contract to a new account (`newOwner`). Can only be called by the current owner."
      }
    },
    "title": "artgee nft",
    "version": 1
  },
  "userdoc": {
    "kind": "user",
    "methods": {},
    "notice": "finish create nft,add art id",
    "version": 1
  }
}