{
  "contractName": "ArtGeeNft",
  "abi": [
    {
      "inputs": [
        {
          "internalType": "contract IDigitalSource",
          "name": "_iDigitalSource",
          "type": "address"
        }
      ],
      "stateMutability": "nonpayable",
      "type": "constructor"
    },
    {
      "anonymous": false,
      "inputs": [
        {
          "indexed": true,
          "internalType": "address",
          "name": "owner",
          "type": "address"
        },
        {
          "indexed": true,
          "internalType": "address",
          "name": "approved",
          "type": "address"
        },
        {
          "indexed": true,
          "internalType": "uint256",
          "name": "tokenId",
          "type": "uint256"
        }
      ],
      "name": "Approval",
      "type": "event"
    },
    {
      "anonymous": false,
      "inputs": [
        {
          "indexed": true,
          "internalType": "address",
          "name": "owner",
          "type": "address"
        },
        {
          "indexed": true,
          "internalType": "address",
          "name": "operator",
          "type": "address"
        },
        {
          "indexed": false,
          "internalType": "bool",
          "name": "approved",
          "type": "bool"
        }
      ],
      "name": "ApprovalForAll",
      "type": "event"
    },
    {
      "anonymous": false,
      "inputs": [
        {
          "indexed": false,
          "internalType": "uint256",
          "name": "_artId",
          "type": "uint256"
        },
        {
          "indexed": false,
          "internalType": "address",
          "name": "_owner",
          "type": "address"
        },
        {
          "indexed": false,
          "internalType": "uint256",
          "name": "_tokenId",
          "type": "uint256"
        },
        {
          "indexed": false,
          "internalType": "uint256",
          "name": "_edition",
          "type": "uint256"
        },
        {
          "indexed": false,
          "internalType": "uint256",
          "name": "_totalEdition",
          "type": "uint256"
        },
        {
          "indexed": false,
          "internalType": "string",
          "name": "_uri",
          "type": "string"
        }
      ],
      "name": "CreateArt",
      "type": "event"
    },
    {
      "anonymous": false,
      "inputs": [
        {
          "indexed": true,
          "internalType": "address",
          "name": "previousOperator",
          "type": "address"
        },
        {
          "indexed": true,
          "internalType": "address",
          "name": "newOperator",
          "type": "address"
        }
      ],
      "name": "OperatorTransferred",
      "type": "event"
    },
    {
      "anonymous": false,
      "inputs": [
        {
          "indexed": true,
          "internalType": "address",
          "name": "previousOwner",
          "type": "address"
        },
        {
          "indexed": true,
          "internalType": "address",
          "name": "newOwner",
          "type": "address"
        }
      ],
      "name": "OwnershipTransferred",
      "type": "event"
    },
    {
      "anonymous": false,
      "inputs": [
        {
          "indexed": false,
          "internalType": "address",
          "name": "account",
          "type": "address"
        }
      ],
      "name": "Paused",
      "type": "event"
    },
    {
      "anonymous": false,
      "inputs": [
        {
          "indexed": true,
          "internalType": "address",
          "name": "from",
          "type": "address"
        },
        {
          "indexed": true,
          "internalType": "address",
          "name": "to",
          "type": "address"
        },
        {
          "indexed": true,
          "internalType": "uint256",
          "name": "tokenId",
          "type": "uint256"
        }
      ],
      "name": "Transfer",
      "type": "event"
    },
    {
      "anonymous": false,
      "inputs": [
        {
          "indexed": false,
          "internalType": "address",
          "name": "account",
          "type": "address"
        }
      ],
      "name": "Unpaused",
      "type": "event"
    },
    {
      "anonymous": false,
      "inputs": [
        {
          "indexed": false,
          "internalType": "uint256",
          "name": "_artId",
          "type": "uint256"
        },
        {
          "indexed": false,
          "internalType": "uint256",
          "name": "edition",
          "type": "uint256"
        }
      ],
      "name": "UpdateEdition",
      "type": "event"
    },
    {
      "inputs": [
        {
          "internalType": "address",
          "name": "to",
          "type": "address"
        },
        {
          "internalType": "uint256",
          "name": "tokenId",
          "type": "uint256"
        }
      ],
      "name": "approve",
      "outputs": [],
      "stateMutability": "nonpayable",
      "type": "function"
    },
    {
      "inputs": [
        {
          "internalType": "address",
          "name": "owner",
          "type": "address"
        }
      ],
      "name": "balanceOf",
      "outputs": [
        {
          "internalType": "uint256",
          "name": "",
          "type": "uint256"
        }
      ],
      "stateMutability": "view",
      "type": "function"
    },
    {
      "inputs": [],
      "name": "baseURI",
      "outputs": [
        {
          "internalType": "string",
          "name": "",
          "type": "string"
        }
      ],
      "stateMutability": "view",
      "type": "function"
    },
    {
      "inputs": [
        {
          "internalType": "address",
          "name": "",
          "type": "address"
        }
      ],
      "name": "blackList",
      "outputs": [
        {
          "internalType": "bool",
          "name": "",
          "type": "bool"
        }
      ],
      "stateMutability": "view",
      "type": "function"
    },
    {
      "inputs": [
        {
          "internalType": "uint256",
          "name": "tokenId",
          "type": "uint256"
        }
      ],
      "name": "getApproved",
      "outputs": [
        {
          "internalType": "address",
          "name": "",
          "type": "address"
        }
      ],
      "stateMutability": "view",
      "type": "function"
    },
    {
      "inputs": [],
      "name": "iDigitalSource",
      "outputs": [
        {
          "internalType": "contract IDigitalSource",
          "name": "",
          "type": "address"
        }
      ],
      "stateMutability": "view",
      "type": "function"
    },
    {
      "inputs": [
        {
          "internalType": "address",
          "name": "owner",
          "type": "address"
        },
        {
          "internalType": "address",
          "name": "operator",
          "type": "address"
        }
      ],
      "name": "isApprovedForAll",
      "outputs": [
        {
          "internalType": "bool",
          "name": "",
          "type": "bool"
        }
      ],
      "stateMutability": "view",
      "type": "function"
    },
    {
      "inputs": [],
      "name": "isOperator",
      "outputs": [
        {
          "internalType": "bool",
          "name": "",
          "type": "bool"
        }
      ],
      "stateMutability": "view",
      "type": "function"
    },
    {
      "inputs": [
        {
          "internalType": "uint256",
          "name": "",
          "type": "uint256"
        }
      ],
      "name": "limitCount",
      "outputs": [
        {
          "internalType": "uint256",
          "name": "",
          "type": "uint256"
        }
      ],
      "stateMutability": "view",
      "type": "function"
    },
    {
      "inputs": [],
      "name": "mTotalEdition",
      "outputs": [
        {
          "internalType": "uint32",
          "name": "",
          "type": "uint32"
        }
      ],
      "stateMutability": "view",
      "type": "function"
    },
    {
      "inputs": [
        {
          "internalType": "address",
          "name": "",
          "type": "address"
        }
      ],
      "name": "miners",
      "outputs": [
        {
          "internalType": "bool",
          "name": "",
          "type": "bool"
        }
      ],
      "stateMutability": "view",
      "type": "function"
    },
    {
      "inputs": [],
      "name": "name",
      "outputs": [
        {
          "internalType": "string",
          "name": "",
          "type": "string"
        }
      ],
      "stateMutability": "view",
      "type": "function"
    },
    {
      "inputs": [],
      "name": "operator",
      "outputs": [
        {
          "internalType": "address",
          "name": "",
          "type": "address"
        }
      ],
      "stateMutability": "view",
      "type": "function"
    },
    {
      "inputs": [],
      "name": "owner",
      "outputs": [
        {
          "internalType": "address",
          "name": "",
          "type": "address"
        }
      ],
      "stateMutability": "view",
      "type": "function"
    },
    {
      "inputs": [
        {
          "internalType": "uint256",
          "name": "tokenId",
          "type": "uint256"
        }
      ],
      "name": "ownerOf",
      "outputs": [
        {
          "internalType": "address",
          "name": "",
          "type": "address"
        }
      ],
      "stateMutability": "view",
      "type": "function"
    },
    {
      "inputs": [],
      "name": "paused",
      "outputs": [
        {
          "internalType": "bool",
          "name": "",
          "type": "bool"
        }
      ],
      "stateMutability": "view",
      "type": "function"
    },
    {
      "inputs": [],
      "name": "renounceOwnership",
      "outputs": [],
      "stateMutability": "nonpayable",
      "type": "function"
    },
    {
      "inputs": [
        {
          "internalType": "address",
          "name": "operator",
          "type": "address"
        },
        {
          "internalType": "bool",
          "name": "approved",
          "type": "bool"
        }
      ],
      "name": "setApprovalForAll",
      "outputs": [],
      "stateMutability": "nonpayable",
      "type": "function"
    },
    {
      "inputs": [
        {
          "internalType": "bytes4",
          "name": "interfaceId",
          "type": "bytes4"
        }
      ],
      "name": "supportsInterface",
      "outputs": [
        {
          "internalType": "bool",
          "name": "",
          "type": "bool"
        }
      ],
      "stateMutability": "view",
      "type": "function"
    },
    {
      "inputs": [],
      "name": "symbol",
      "outputs": [
        {
          "internalType": "string",
          "name": "",
          "type": "string"
        }
      ],
      "stateMutability": "view",
      "type": "function"
    },
    {
      "inputs": [
        {
          "internalType": "uint256",
          "name": "",
          "type": "uint256"
        }
      ],
      "name": "tokenArts",
      "outputs": [
        {
          "internalType": "uint256",
          "name": "artId",
          "type": "uint256"
        },
        {
          "internalType": "uint256",
          "name": "edition",
          "type": "uint256"
        },
        {
          "internalType": "uint256",
          "name": "totalEdition",
          "type": "uint256"
        }
      ],
      "stateMutability": "view",
      "type": "function"
    },
    {
      "inputs": [
        {
          "internalType": "uint256",
          "name": "index",
          "type": "uint256"
        }
      ],
      "name": "tokenByIndex",
      "outputs": [
        {
          "internalType": "uint256",
          "name": "",
          "type": "uint256"
        }
      ],
      "stateMutability": "view",
      "type": "function"
    },
    {
      "inputs": [
        {
          "internalType": "address",
          "name": "owner",
          "type": "address"
        },
        {
          "internalType": "uint256",
          "name": "index",
          "type": "uint256"
        }
      ],
      "name": "tokenOfOwnerByIndex",
      "outputs": [
        {
          "internalType": "uint256",
          "name": "",
          "type": "uint256"
        }
      ],
      "stateMutability": "view",
      "type": "function"
    },
    {
      "inputs": [
        {
          "internalType": "uint256",
          "name": "tokenId",
          "type": "uint256"
        }
      ],
      "name": "tokenURI",
      "outputs": [
        {
          "internalType": "string",
          "name": "",
          "type": "string"
        }
      ],
      "stateMutability": "view",
      "type": "function"
    },
    {
      "inputs": [],
      "name": "totalSupply",
      "outputs": [
        {
          "internalType": "uint256",
          "name": "",
          "type": "uint256"
        }
      ],
      "stateMutability": "view",
      "type": "function"
    },
    {
      "inputs": [
        {
          "internalType": "address",
          "name": "",
          "type": "address"
        }
      ],
      "name": "transferList",
      "outputs": [
        {
          "internalType": "bool",
          "name": "",
          "type": "bool"
        }
      ],
      "stateMutability": "view",
      "type": "function"
    },
    {
      "inputs": [
        {
          "internalType": "address",
          "name": "newOperator_",
          "type": "address"
        }
      ],
      "name": "transferOperator",
      "outputs": [],
      "stateMutability": "nonpayable",
      "type": "function"
    },
    {
      "inputs": [
        {
          "internalType": "address",
          "name": "newOwner",
          "type": "address"
        }
      ],
      "name": "transferOwnership",
      "outputs": [],
      "stateMutability": "nonpayable",
      "type": "function"
    },
    {
      "inputs": [
        {
          "internalType": "uint256",
          "name": "_artId",
          "type": "uint256"
        }
      ],
      "name": "getSourceDigitalArt",
      "outputs": [
        {
          "internalType": "uint256",
          "name": "id",
          "type": "uint256"
        },
        {
          "internalType": "uint256",
          "name": "totalEdition",
          "type": "uint256"
        },
        {
          "internalType": "uint256",
          "name": "currentEdition",
          "type": "uint256"
        },
        {
          "internalType": "address",
          "name": "creator",
          "type": "address"
        },
        {
          "internalType": "address[]",
          "name": "assistants",
          "type": "address[]"
        },
        {
          "internalType": "uint256[]",
          "name": "benefits",
          "type": "uint256[]"
        },
        {
          "internalType": "string",
          "name": "uri",
          "type": "string"
        }
      ],
      "stateMutability": "view",
      "type": "function"
    },
    {
      "inputs": [
        {
          "internalType": "address",
          "name": "_owner",
          "type": "address"
        }
      ],
      "name": "tokensOfOwner",
      "outputs": [
        {
          "internalType": "uint256[]",
          "name": "_tokens",
          "type": "uint256[]"
        }
      ],
      "stateMutability": "view",
      "type": "function"
    },
    {
      "inputs": [
        {
          "internalType": "address",
          "name": "_black",
          "type": "address"
        }
      ],
      "name": "addBlackList",
      "outputs": [],
      "stateMutability": "nonpayable",
      "type": "function"
    },
    {
      "inputs": [
        {
          "internalType": "address",
          "name": "_black",
          "type": "address"
        }
      ],
      "name": "removeBlackList",
      "outputs": [],
      "stateMutability": "nonpayable",
      "type": "function"
    },
    {
      "inputs": [
        {
          "internalType": "uint32",
          "name": "_mTotalEdition",
          "type": "uint32"
        }
      ],
      "name": "SetMTotalEdition",
      "outputs": [],
      "stateMutability": "nonpayable",
      "type": "function"
    },
    {
      "inputs": [
        {
          "internalType": "address",
          "name": "_transferAddr",
          "type": "address"
        }
      ],
      "name": "addTransferList",
      "outputs": [],
      "stateMutability": "nonpayable",
      "type": "function"
    },
    {
      "inputs": [
        {
          "internalType": "address",
          "name": "_transferAddr",
          "type": "address"
        }
      ],
      "name": "removeTransferList",
      "outputs": [],
      "stateMutability": "nonpayable",
      "type": "function"
    },
    {
      "inputs": [
        {
          "internalType": "string",
          "name": "_baseURI",
          "type": "string"
        }
      ],
      "name": "setBaseURI",
      "outputs": [],
      "stateMutability": "nonpayable",
      "type": "function"
    },
    {
      "inputs": [
        {
          "internalType": "address",
          "name": "from",
          "type": "address"
        },
        {
          "internalType": "address",
          "name": "to",
          "type": "address"
        },
        {
          "internalType": "uint256",
          "name": "tokenId",
          "type": "uint256"
        }
      ],
      "name": "transferFrom",
      "outputs": [],
      "stateMutability": "nonpayable",
      "type": "function"
    },
    {
      "inputs": [
        {
          "internalType": "address",
          "name": "from",
          "type": "address"
        },
        {
          "internalType": "address",
          "name": "to",
          "type": "address"
        },
        {
          "internalType": "uint256",
          "name": "tokenId",
          "type": "uint256"
        }
      ],
      "name": "safeTransferFrom",
      "outputs": [],
      "stateMutability": "nonpayable",
      "type": "function"
    },
    {
      "inputs": [
        {
          "internalType": "address",
          "name": "from",
          "type": "address"
        },
        {
          "internalType": "address",
          "name": "to",
          "type": "address"
        },
        {
          "internalType": "uint256",
          "name": "tokenId",
          "type": "uint256"
        },
        {
          "internalType": "bytes",
          "name": "_data",
          "type": "bytes"
        }
      ],
      "name": "safeTransferFrom",
      "outputs": [],
      "stateMutability": "nonpayable",
      "type": "function"
    },
    {
      "inputs": [
        {
          "internalType": "address[]",
          "name": "_assistants",
          "type": "address[]"
        },
        {
          "internalType": "uint256[]",
          "name": "_benefits",
          "type": "uint256[]"
        },
        {
          "internalType": "uint256",
          "name": "_totalEdition",
          "type": "uint256"
        },
        {
          "internalType": "string",
          "name": "_uri",
          "type": "string"
        },
        {
          "internalType": "uint256",
          "name": "_count",
          "type": "uint256"
        }
      ],
      "name": "createArt",
      "outputs": [],
      "stateMutability": "nonpayable",
      "type": "function"
    },
    {
      "inputs": [
        {
          "internalType": "uint256",
          "name": "_artId",
          "type": "uint256"
        },
        {
          "internalType": "uint256",
          "name": "_count",
          "type": "uint256"
        }
      ],
      "name": "addArt",
      "outputs": [],
      "stateMutability": "nonpayable",
      "type": "function"
    },
    {
      "inputs": [
        {
          "internalType": "uint256",
          "name": "_id",
          "type": "uint256"
        }
      ],
      "name": "burnItem",
      "outputs": [],
      "stateMutability": "nonpayable",
      "type": "function"
    }
  ],
  "bytecode": "0x6080604052612710601260006101000a81548163ffffffff021916908363ffffffff1602179055503480156200003457600080fd5b506040516200641b3803806200641b833981810160405260208110156200005a57600080fd5b81019080805190602001909291905050506040518060400160405280600881526020017f476565546f6b656e0000000000000000000000000000000000000000000000008152506040518060400160405280600281526020017f4754000000000000000000000000000000000000000000000000000000000000815250620000ef6301ffc9a760e01b6200039760201b60201c565b816006908051906020019062000107929190620004c4565b50806007908051906020019062000120929190620004c4565b50620001396380ac58cd60e01b6200039760201b60201c565b62000151635b5e139f60e01b6200039760201b60201c565b6200016963780e9d6360e01b6200039760201b60201c565b505060006200017d620004a060201b60201c565b905080600a60006101000a81548173ffffffffffffffffffffffffffffffffffffffff021916908373ffffffffffffffffffffffffffffffffffffffff1602179055508073ffffffffffffffffffffffffffffffffffffffff16600073ffffffffffffffffffffffffffffffffffffffff167f8be0079c531659141344cd1fd0a4f28419497f9722a3daafe3b4186f6b6457e060405160405180910390a3506200022c620004a060201b60201c565b600b60006101000a81548173ffffffffffffffffffffffffffffffffffffffff021916908373ffffffffffffffffffffffffffffffffffffffff160217905550600b60009054906101000a900473ffffffffffffffffffffffffffffffffffffffff1673ffffffffffffffffffffffffffffffffffffffff16600073ffffffffffffffffffffffffffffffffffffffff167f74da04524d50c64947f5dd5381ef1a4dca5cba8ed1d816243f9e48aa0b5617ed60405160405180910390a36000600b60146101000a81548160ff02191690831515021790555080600f60006101000a81548173ffffffffffffffffffffffffffffffffffffffff021916908373ffffffffffffffffffffffffffffffffffffffff160217905550620003906040518060400160405280600c81526020017f697066733a2f2f697066732f0000000000000000000000000000000000000000815250620004a860201b620039401760201c565b506200056a565b63ffffffff60e01b817bffffffffffffffffffffffffffffffffffffffffffffffffffffffff1916141562000434576040517f08c379a000000000000000000000000000000000000000000000000000000000815260040180806020018281038252601c8152602001807f4552433136353a20696e76616c696420696e746572666163652069640000000081525060200191505060405180910390fd5b6001600080837bffffffffffffffffffffffffffffffffffffffffffffffffffffffff19167bffffffffffffffffffffffffffffffffffffffffffffffffffffffff1916815260200190815260200160002060006101000a81548160ff02191690831515021790555050565b600033905090565b8060099080519060200190620004c0929190620004c4565b5050565b828054600181600116156101000203166002900490600052602060002090601f016020900481019282601f106200050757805160ff191683800117855562000538565b8280016001018555821562000538579182015b82811115620005375782518255916020019190600101906200051a565b5b5090506200054791906200054b565b5090565b5b80821115620005665760008160009055506001016200054c565b5090565b615ea1806200057a6000396000f3fe608060405234801561001057600080fd5b506004361061025e5760003560e01c8063570ca735116101465780638da5cb5b116100c3578063c87b56dd11610087578063c87b56dd14611003578063de14eba2146110aa578063e4997dc5146110de578063e726d96b14611122578063e985e9c51461128b578063f2fde38b146113055761025e565b80638da5cb5b14610da757806395d89b4114610ddb578063a22cb46514610e5e578063abb03ba614610eae578063b88d4fde14610efe5761025e565b80636c0360eb1161010a5780636c0360eb14610be757806370a0823114610c6a578063715018a614610cc25780637913191214610ccc5780638462151c14610d0e5761025e565b8063570ca73514610ab3578063576cc0f714610ae75780635c975abb14610b155780636352211e14610b35578063648ec7b914610b8d5761025e565b806323b872dd116101df5780633ea80cd2116101a35780633ea80cd2146106d757806342842e0e146108ce5780634456eda21461093c5780634838d1651461095c5780634f6ccce7146109b657806355f804b3146109f85761025e565b806323b872dd1461056757806329605e77146105d55780632f745c5914610619578063334b49a91461067b578063391d7dc9146106b35761025e565b8063095ea7b311610226578063095ea7b31461043f5780630ecb93c01461048d57806311153152146104d157806318160ddd146105055780631f8fb86d146105235761025e565b806301ffc9a71461026357806306fdde03146102c657806307210e8914610349578063081812fc146103a35780630825c386146103fb575b600080fd5b6102ae6004803603602081101561027957600080fd5b8101908080357bffffffffffffffffffffffffffffffffffffffffffffffffffffffff19169060200190929190505050611349565b60405180821515815260200191505060405180910390f35b6102ce6113b0565b6040518080602001828103825283818151815260200191508051906020019080838360005b8381101561030e5780820151818401526020810190506102f3565b50505050905090810190601f16801561033b5780820380516001836020036101000a031916815260200191505b509250505060405180910390f35b61038b6004803603602081101561035f57600080fd5b81019080803573ffffffffffffffffffffffffffffffffffffffff169060200190929190505050611452565b60405180821515815260200191505060405180910390f35b6103cf600480360360208110156103b957600080fd5b8101908080359060200190929190505050611472565b604051808273ffffffffffffffffffffffffffffffffffffffff16815260200191505060405180910390f35b61043d6004803603602081101561041157600080fd5b81019080803573ffffffffffffffffffffffffffffffffffffffff16906020019092919050505061150d565b005b61048b6004803603604081101561045557600080fd5b81019080803573ffffffffffffffffffffffffffffffffffffffff16906020019092919080359060200190929190505050611617565b005b6104cf600480360360208110156104a357600080fd5b81019080803573ffffffffffffffffffffffffffffffffffffffff16906020019092919050505061175b565b005b6104d9611865565b604051808273ffffffffffffffffffffffffffffffffffffffff16815260200191505060405180910390f35b61050d61188b565b6040518082815260200191505060405180910390f35b6105656004803603602081101561053957600080fd5b81019080803573ffffffffffffffffffffffffffffffffffffffff16906020019092919050505061189c565b005b6105d36004803603606081101561057d57600080fd5b81019080803573ffffffffffffffffffffffffffffffffffffffff169060200190929190803573ffffffffffffffffffffffffffffffffffffffff169060200190929190803590602001909291905050506119a6565b005b610617600480360360208110156105eb57600080fd5b81019080803573ffffffffffffffffffffffffffffffffffffffff169060200190929190505050611b1d565b005b6106656004803603604081101561062f57600080fd5b81019080803573ffffffffffffffffffffffffffffffffffffffff16906020019092919080359060200190929190505050611bd8565b6040518082815260200191505060405180910390f35b6106b16004803603604081101561069157600080fd5b810190808035906020019092919080359060200190929190505050611c33565b005b6106bb6120f0565b604051808263ffffffff16815260200191505060405180910390f35b6108cc600480360360a08110156106ed57600080fd5b810190808035906020019064010000000081111561070a57600080fd5b82018360208201111561071c57600080fd5b8035906020019184602083028401116401000000008311171561073e57600080fd5b919080806020026020016040519081016040528093929190818152602001838360200280828437600081840152601f19601f8201169050808301925050505050505091929192908035906020019064010000000081111561079e57600080fd5b8201836020820111156107b057600080fd5b803590602001918460208302840111640100000000831117156107d257600080fd5b919080806020026020016040519081016040528093929190818152602001838360200280828437600081840152601f19601f820116905080830192505050505050509192919290803590602001909291908035906020019064010000000081111561083c57600080fd5b82018360208201111561084e57600080fd5b8035906020019184600183028401116401000000008311171561087057600080fd5b91908080601f016020809104026020016040519081016040528093929190818152602001838380828437600081840152601f19601f82011690508083019250505050505050919291929080359060200190929190505050612106565b005b61093a600480360360608110156108e457600080fd5b81019080803573ffffffffffffffffffffffffffffffffffffffff169060200190929190803573ffffffffffffffffffffffffffffffffffffffff169060200190929190803590602001909291905050506125f6565b005b610944612616565b60405180821515815260200191505060405180910390f35b61099e6004803603602081101561097257600080fd5b81019080803573ffffffffffffffffffffffffffffffffffffffff169060200190929190505050612675565b60405180821515815260200191505060405180910390f35b6109e2600480360360208110156109cc57600080fd5b8101908080359060200190929190505050612695565b6040518082815260200191505060405180910390f35b610ab160048036036020811015610a0e57600080fd5b8101908080359060200190640100000000811115610a2b57600080fd5b820183602082011115610a3d57600080fd5b80359060200191846001830284011164010000000083111715610a5f57600080fd5b91908080601f016020809104026020016040519081016040528093929190818152602001838380828437600081840152601f19601f8201169050808301925050505050505091929192905050506126b8565b005b610abb612773565b604051808273ffffffffffffffffffffffffffffffffffffffff16815260200191505060405180910390f35b610b1360048036036020811015610afd57600080fd5b810190808035906020019092919050505061279d565b005b610b1d612869565b60405180821515815260200191505060405180910390f35b610b6160048036036020811015610b4b57600080fd5b8101908080359060200190929190505050612880565b604051808273ffffffffffffffffffffffffffffffffffffffff16815260200191505060405180910390f35b610bcf60048036036020811015610ba357600080fd5b81019080803573ffffffffffffffffffffffffffffffffffffffff1690602001909291905050506128b7565b60405180821515815260200191505060405180910390f35b610bef6128d7565b6040518080602001828103825283818151815260200191508051906020019080838360005b83811015610c2f578082015181840152602081019050610c14565b50505050905090810190601f168015610c5c5780820380516001836020036101000a031916815260200191505b509250505060405180910390f35b610cac60048036036020811015610c8057600080fd5b81019080803573ffffffffffffffffffffffffffffffffffffffff169060200190929190505050612979565b6040518082815260200191505060405180910390f35b610cca612a4e565b005b610cf860048036036020811015610ce257600080fd5b8101908080359060200190929190505050612bbe565b6040518082815260200191505060405180910390f35b610d5060048036036020811015610d2457600080fd5b81019080803573ffffffffffffffffffffffffffffffffffffffff169060200190929190505050612bd6565b6040518080602001828103825283818151815260200191508051906020019060200280838360005b83811015610d93578082015181840152602081019050610d78565b505050509050019250505060405180910390f35b610daf612c6d565b604051808273ffffffffffffffffffffffffffffffffffffffff16815260200191505060405180910390f35b610de3612c97565b6040518080602001828103825283818151815260200191508051906020019080838360005b83811015610e23578082015181840152602081019050610e08565b50505050905090810190601f168015610e505780820380516001836020036101000a031916815260200191505b509250505060405180910390f35b610eac60048036036040811015610e7457600080fd5b81019080803573ffffffffffffffffffffffffffffffffffffffff169060200190929190803515159060200190929190505050612d39565b005b610eda60048036036020811015610ec457600080fd5b8101908080359060200190929190505050612eef565b60405180848152602001838152602001828152602001935050505060405180910390f35b61100160048036036080811015610f1457600080fd5b81019080803573ffffffffffffffffffffffffffffffffffffffff169060200190929190803573ffffffffffffffffffffffffffffffffffffffff1690602001909291908035906020019092919080359060200190640100000000811115610f7b57600080fd5b820183602082011115610f8d57600080fd5b80359060200191846001830284011164010000000083111715610faf57600080fd5b91908080601f016020809104026020016040519081016040528093929190818152602001838380828437600081840152601f19601f820116905080830192505050505050509192919290505050612f19565b005b61102f6004803603602081101561101957600080fd5b8101908080359060200190929190505050612f2b565b6040518080602001828103825283818151815260200191508051906020019080838360005b8381101561106f578082015181840152602081019050611054565b50505050905090810190601f16801561109c5780820380516001836020036101000a031916815260200191505b509250505060405180910390f35b6110dc600480360360208110156110c057600080fd5b81019080803563ffffffff1690602001909291905050506131fc565b005b611120600480360360208110156110f457600080fd5b81019080803573ffffffffffffffffffffffffffffffffffffffff1690602001909291905050506132cf565b005b61114e6004803603602081101561113857600080fd5b81019080803590602001909291905050506133d9565b604051808881526020018781526020018681526020018573ffffffffffffffffffffffffffffffffffffffff168152602001806020018060200180602001848103845287818151815260200191508051906020019060200280838360005b838110156111c75780820151818401526020810190506111ac565b50505050905001848103835286818151815260200191508051906020019060200280838360005b838110156112095780820151818401526020810190506111ee565b50505050905001848103825285818151815260200191508051906020019080838360005b8381101561124857808201518184015260208101905061122d565b50505050905090810190601f1680156112755780820380516001836020036101000a031916815260200191505b509a505050505050505050505060405180910390f35b6112ed600480360360408110156112a157600080fd5b81019080803573ffffffffffffffffffffffffffffffffffffffff169060200190929190803573ffffffffffffffffffffffffffffffffffffffff1690602001909291905050506136b7565b60405180821515815260200191505060405180910390f35b6113476004803603602081101561131b57600080fd5b81019080803573ffffffffffffffffffffffffffffffffffffffff16906020019092919050505061374b565b005b6000806000837bffffffffffffffffffffffffffffffffffffffffffffffffffffffff19167bffffffffffffffffffffffffffffffffffffffffffffffffffffffff1916815260200190815260200160002060009054906101000a900460ff169050919050565b606060068054600181600116156101000203166002900480601f0160208091040260200160405190810160405280929190818152602001828054600181600116156101000203166002900480156114485780601f1061141d57610100808354040283529160200191611448565b820191906000526020600020905b81548152906001019060200180831161142b57829003601f168201915b5050505050905090565b600e6020528060005260406000206000915054906101000a900460ff1681565b600061147d8261395a565b6114d2576040517f08c379a000000000000000000000000000000000000000000000000000000000815260040180806020018281038252602c815260200180615d45602c913960400191505060405180910390fd5b6004600083815260200190815260200160002060009054906101000a900473ffffffffffffffffffffffffffffffffffffffff169050919050565b611515613977565b73ffffffffffffffffffffffffffffffffffffffff16611533612c6d565b73ffffffffffffffffffffffffffffffffffffffff16146115bc576040517f08c379a00000000000000000000000000000000000000000000000000000000081526004018080602001828103825260208152602001807f4f776e61626c653a2063616c6c6572206973206e6f7420746865206f776e657281525060200191505060405180910390fd5b6000600e60008373ffffffffffffffffffffffffffffffffffffffff1673ffffffffffffffffffffffffffffffffffffffff16815260200190815260200160002060006101000a81548160ff02191690831515021790555050565b600061162282612880565b90508073ffffffffffffffffffffffffffffffffffffffff168373ffffffffffffffffffffffffffffffffffffffff1614156116a9576040517f08c379a0000000000000000000000000000000000000000000000000000000008152600401808060200182810382526021815260200180615df56021913960400191505060405180910390fd5b8073ffffffffffffffffffffffffffffffffffffffff166116c8613977565b73ffffffffffffffffffffffffffffffffffffffff1614806116f757506116f6816116f1613977565b6136b7565b5b61174c576040517f08c379a0000000000000000000000000000000000000000000000000000000008152600401808060200182810382526038815260200180615c6b6038913960400191505060405180910390fd5b611756838361397f565b505050565b611763613977565b73ffffffffffffffffffffffffffffffffffffffff16611781612c6d565b73ffffffffffffffffffffffffffffffffffffffff161461180a576040517f08c379a00000000000000000000000000000000000000000000000000000000081526004018080602001828103825260208152602001807f4f776e61626c653a2063616c6c6572206973206e6f7420746865206f776e657281525060200191505060405180910390fd5b6001601060008373ffffffffffffffffffffffffffffffffffffffff1673ffffffffffffffffffffffffffffffffffffffff16815260200190815260200160002060006101000a81548160ff02191690831515021790555050565b600f60009054906101000a900473ffffffffffffffffffffffffffffffffffffffff1681565b60006118976002613a38565b905090565b6118a4613977565b73ffffffffffffffffffffffffffffffffffffffff166118c2612c6d565b73ffffffffffffffffffffffffffffffffffffffff161461194b576040517f08c379a00000000000000000000000000000000000000000000000000000000081526004018080602001828103825260208152602001807f4f776e61626c653a2063616c6c6572206973206e6f7420746865206f776e657281525060200191505060405180910390fd5b6001600e60008373ffffffffffffffffffffffffffffffffffffffff1673ffffffffffffffffffffffffffffffffffffffff16815260200190815260200160002060006101000a81548160ff02191690831515021790555050565b3073ffffffffffffffffffffffffffffffffffffffff168373ffffffffffffffffffffffffffffffffffffffff1614806119f357506000600d600083815260200190815260200160002054115b80611a475750600e60008473ffffffffffffffffffffffffffffffffffffffff1673ffffffffffffffffffffffffffffffffffffffff16815260200190815260200160002060009054906101000a900460ff165b80611a9b5750600e60008373ffffffffffffffffffffffffffffffffffffffff1673ffffffffffffffffffffffffffffffffffffffff16815260200190815260200160002060009054906101000a900460ff165b611af0576040517f08c379a000000000000000000000000000000000000000000000000000000000815260040180806020018281038252602f815260200180615bc6602f913960400191505060405180910390fd5b611afb838383613a4d565b611b058382613ac3565b611b0f8282613c83565b611b1881613d47565b505050565b611b25613977565b73ffffffffffffffffffffffffffffffffffffffff16611b43612c6d565b73ffffffffffffffffffffffffffffffffffffffff1614611bcc576040517f08c379a00000000000000000000000000000000000000000000000000000000081526004018080602001828103825260208152602001807f4f776e61626c653a2063616c6c6572206973206e6f7420746865206f776e657281525060200191505060405180910390fd5b611bd581613d80565b50565b6000611c2b82600160008673ffffffffffffffffffffffffffffffffffffffff1673ffffffffffffffffffffffffffffffffffffffff168152602001908152602001600020613ea590919063ffffffff16565b905092915050565b611c3b612869565b15611cae576040517f08c379a00000000000000000000000000000000000000000000000000000000081526004018080602001828103825260108152602001807f5061757361626c653a207061757365640000000000000000000000000000000081525060200191505060405180910390fd5b601060003373ffffffffffffffffffffffffffffffffffffffff1673ffffffffffffffffffffffffffffffffffffffff16815260200190815260200160002060009054906101000a900460ff1615611d6e576040517f08c379a00000000000000000000000000000000000000000000000000000000081526004018080602001828103825260138152602001807f43726561746f72206e6f7420617070726f76650000000000000000000000000081525060200191505060405180910390fd5b60008060006060600f60009054906101000a900473ffffffffffffffffffffffffffffffffffffffff1673ffffffffffffffffffffffffffffffffffffffff16636e4ce25c876040518263ffffffff1660e01b81526004018082815260200191505060006040518083038186803b158015611de857600080fd5b505afa158015611dfc573d6000803e3d6000fd5b505050506040513d6000823e3d601f19601f8201168201806040525060e0811015611e2657600080fd5b810190808051906020019092919080519060200190929190805190602001909291908051906020019092919080516040519392919084640100000000821115611e6e57600080fd5b83820191506020820185811115611e8457600080fd5b8251866020820283011164010000000082111715611ea157600080fd5b8083526020830192505050908051906020019060200280838360005b83811015611ed8578082015181840152602081019050611ebd565b5050505090500160405260200180516040519392919084640100000000821115611f0157600080fd5b83820191506020820185811115611f1757600080fd5b8251866020820283011164010000000082111715611f3457600080fd5b8083526020830192505050908051906020019060200280838360005b83811015611f6b578082015181840152602081019050611f50565b5050505090500160405260200180516040519392919084640100000000821115611f9457600080fd5b83820191506020820185811115611faa57600080fd5b8251866001820283011164010000000082111715611fc757600080fd5b8083526020830192505050908051906020019080838360005b83811015611ffb578082015181840152602081019050611fe0565b50505050905090810190601f1680156120285780820380516001836020036101000a031916815260200191505b5060405250505096505050945094509450508173ffffffffffffffffffffffffffffffffffffffff163373ffffffffffffffffffffffffffffffffffffffff16146120db576040517f08c379a000000000000000000000000000000000000000000000000000000000815260040180806020018281038252600b8152602001807f4e6f742063726561746f7200000000000000000000000000000000000000000081525060200191505060405180910390fd5b6120e88686858785613ebf565b505050505050565b601260009054906101000a900463ffffffff1681565b61210e612869565b15612181576040517f08c379a00000000000000000000000000000000000000000000000000000000081526004018080602001828103825260108152602001807f5061757361626c653a207061757365640000000000000000000000000000000081525060200191505060405180910390fd5b601060003373ffffffffffffffffffffffffffffffffffffffff1673ffffffffffffffffffffffffffffffffffffffff16815260200190815260200160002060009054906101000a900460ff1615612241576040517f08c379a00000000000000000000000000000000000000000000000000000000081526004018080602001828103825260148152602001807f43726561746f7220697320666f7262696464656e00000000000000000000000081525060200191505060405180910390fd5b6000855111156123815783516001865101146122c5576040517f08c379a00000000000000000000000000000000000000000000000000000000081526004018080602001828103825260158152602001807f42656e6566697473206c656e677468206572726f72000000000000000000000081525060200191505060405180910390fd5b6000805b8551811015612307576122f88682815181106122e157fe5b6020026020010151836141ed90919063ffffffff16565b915080806001019150506122c9565b506103e8811461237f576040517f08c379a000000000000000000000000000000000000000000000000000000000815260040180806020018281038252600e8152602001807f42656e6566697473206572726f7200000000000000000000000000000000000081525060200191505060405180910390fd5b505b601260009054906101000a900463ffffffff1663ffffffff1683111561240f576040517f08c379a00000000000000000000000000000000000000000000000000000000081526004018080602001828103825260168152602001807f546f74616c2065646974696f6e206f766572666c6f770000000000000000000081525060200191505060405180910390fd5b6000600f60009054906101000a900473ffffffffffffffffffffffffffffffffffffffff1673ffffffffffffffffffffffffffffffffffffffff16631b34e19433888888886040518663ffffffff1660e01b8152600401808673ffffffffffffffffffffffffffffffffffffffff168152602001806020018060200185815260200180602001848103845288818151815260200191508051906020019060200280838360005b838110156124d05780820151818401526020810190506124b5565b50505050905001848103835287818151815260200191508051906020019060200280838360005b838110156125125780820151818401526020810190506124f7565b50505050905001848103825285818151815260200191508051906020019080838360005b83811015612551578082015181840152602081019050612536565b50505050905090810190601f16801561257e5780820380516001836020036101000a031916815260200191505b5098505050505050505050602060405180830381600087803b1580156125a357600080fd5b505af11580156125b7573d6000803e3d6000fd5b505050506040513d60208110156125cd57600080fd5b810190808051906020019092919050505090506125ee818360008787613ebf565b505050505050565b61261183838360405180602001604052806000815250614275565b505050565b6000600b60009054906101000a900473ffffffffffffffffffffffffffffffffffffffff1673ffffffffffffffffffffffffffffffffffffffff16612659613977565b73ffffffffffffffffffffffffffffffffffffffff1614905090565b60106020528060005260406000206000915054906101000a900460ff1681565b6000806126ac8360026143ee90919063ffffffff16565b50905080915050919050565b6126c0613977565b73ffffffffffffffffffffffffffffffffffffffff166126de612c6d565b73ffffffffffffffffffffffffffffffffffffffff1614612767576040517f08c379a00000000000000000000000000000000000000000000000000000000081526004018080602001828103825260208152602001807f4f776e61626c653a2063616c6c6572206973206e6f7420746865206f776e657281525060200191505060405180910390fd5b61277081613940565b50565b6000600b60009054906101000a900473ffffffffffffffffffffffffffffffffffffffff16905090565b3373ffffffffffffffffffffffffffffffffffffffff166127bd82612880565b73ffffffffffffffffffffffffffffffffffffffff1614612829576040517f08c379a0000000000000000000000000000000000000000000000000000000008152600401808060200182810382526025815260200180615e476025913960400191505060405180910390fd5b6128328161441a565b61284461283e82612880565b82613ac3565b6000601460008381526020019081526020016000208190555061286681614554565b50565b6000600b60149054906101000a900460ff16905090565b60006128b082604051806060016040528060298152602001615ccd6029913960026146199092919063ffffffff16565b9050919050565b60176020528060005260406000206000915054906101000a900460ff1681565b606060098054600181600116156101000203166002900480601f01602080910402602001604051908101604052809291908181526020018280546001816001161561010002031660029004801561296f5780601f106129445761010080835404028352916020019161296f565b820191906000526020600020905b81548152906001019060200180831161295257829003601f168201915b5050505050905090565b60008073ffffffffffffffffffffffffffffffffffffffff168273ffffffffffffffffffffffffffffffffffffffff161415612a00576040517f08c379a000000000000000000000000000000000000000000000000000000000815260040180806020018281038252602a815260200180615ca3602a913960400191505060405180910390fd5b612a47600160008473ffffffffffffffffffffffffffffffffffffffff1673ffffffffffffffffffffffffffffffffffffffff168152602001908152602001600020614638565b9050919050565b612a56613977565b73ffffffffffffffffffffffffffffffffffffffff16612a74612c6d565b73ffffffffffffffffffffffffffffffffffffffff1614612afd576040517f08c379a00000000000000000000000000000000000000000000000000000000081526004018080602001828103825260208152602001807f4f776e61626c653a2063616c6c6572206973206e6f7420746865206f776e657281525060200191505060405180910390fd5b600073ffffffffffffffffffffffffffffffffffffffff16600a60009054906101000a900473ffffffffffffffffffffffffffffffffffffffff1673ffffffffffffffffffffffffffffffffffffffff167f8be0079c531659141344cd1fd0a4f28419497f9722a3daafe3b4186f6b6457e060405160405180910390a36000600a60006101000a81548173ffffffffffffffffffffffffffffffffffffffff021916908373ffffffffffffffffffffffffffffffffffffffff160217905550565b600d6020528060005260406000206000915090505481565b6060601360008373ffffffffffffffffffffffffffffffffffffffff1673ffffffffffffffffffffffffffffffffffffffff168152602001908152602001600020805480602002602001604051908101604052809291908181526020018280548015612c6157602002820191906000526020600020905b815481526020019060010190808311612c4d575b50505050509050919050565b6000600a60009054906101000a900473ffffffffffffffffffffffffffffffffffffffff16905090565b606060078054600181600116156101000203166002900480601f016020809104026020016040519081016040528092919081815260200182805460018160011615610100020316600290048015612d2f5780601f10612d0457610100808354040283529160200191612d2f565b820191906000526020600020905b815481529060010190602001808311612d1257829003601f168201915b5050505050905090565b612d41613977565b73ffffffffffffffffffffffffffffffffffffffff168273ffffffffffffffffffffffffffffffffffffffff161415612de2576040517f08c379a00000000000000000000000000000000000000000000000000000000081526004018080602001828103825260198152602001807f4552433732313a20617070726f766520746f2063616c6c65720000000000000081525060200191505060405180910390fd5b8060056000612def613977565b73ffffffffffffffffffffffffffffffffffffffff1673ffffffffffffffffffffffffffffffffffffffff16815260200190815260200160002060008473ffffffffffffffffffffffffffffffffffffffff1673ffffffffffffffffffffffffffffffffffffffff16815260200190815260200160002060006101000a81548160ff0219169083151502179055508173ffffffffffffffffffffffffffffffffffffffff16612e9c613977565b73ffffffffffffffffffffffffffffffffffffffff167f17307eab39ab6107e8899845ad3d59bd9653f200f220920489ca2b5937696c318360405180821515815260200191505060405180910390a35050565b60116020528060005260406000206000915090508060000154908060010154908060020154905083565b612f2584848484614275565b50505050565b6060612f368261395a565b612f8b576040517f08c379a000000000000000000000000000000000000000000000000000000000815260040180806020018281038252602f815260200180615dc6602f913960400191505060405180910390fd5b6060600860008481526020019081526020016000208054600181600116156101000203166002900480601f0160208091040260200160405190810160405280929190818152602001828054600181600116156101000203166002900480156130345780601f1061300957610100808354040283529160200191613034565b820191906000526020600020905b81548152906001019060200180831161301757829003601f168201915b5050505050905060606130456128d7565b905060008151141561305b5781925050506131f7565b60008251111561312c5780826040516020018083805190602001908083835b6020831061309d578051825260208201915060208101905060208303925061307a565b6001836020036101000a03801982511681845116808217855250505050505090500182805190602001908083835b602083106130ee57805182526020820191506020810190506020830392506130cb565b6001836020036101000a03801982511681845116808217855250505050505090500192505050604051602081830303815290604052925050506131f7565b806131368561464d565b6040516020018083805190602001908083835b6020831061316c5780518252602082019150602081019050602083039250613149565b6001836020036101000a03801982511681845116808217855250505050505090500182805190602001908083835b602083106131bd578051825260208201915060208101905060208303925061319a565b6001836020036101000a03801982511681845116808217855250505050505090500192505050604051602081830303815290604052925050505b919050565b613204613977565b73ffffffffffffffffffffffffffffffffffffffff16613222612c6d565b73ffffffffffffffffffffffffffffffffffffffff16146132ab576040517f08c379a00000000000000000000000000000000000000000000000000000000081526004018080602001828103825260208152602001807f4f776e61626c653a2063616c6c6572206973206e6f7420746865206f776e657281525060200191505060405180910390fd5b80601260006101000a81548163ffffffff021916908363ffffffff16021790555050565b6132d7613977565b73ffffffffffffffffffffffffffffffffffffffff166132f5612c6d565b73ffffffffffffffffffffffffffffffffffffffff161461337e576040517f08c379a00000000000000000000000000000000000000000000000000000000081526004018080602001828103825260208152602001807f4f776e61626c653a2063616c6c6572206973206e6f7420746865206f776e657281525060200191505060405180910390fd5b6000601060008373ffffffffffffffffffffffffffffffffffffffff1673ffffffffffffffffffffffffffffffffffffffff16815260200190815260200160002060006101000a81548160ff02191690831515021790555050565b6000806000806060806060600f60009054906101000a900473ffffffffffffffffffffffffffffffffffffffff1673ffffffffffffffffffffffffffffffffffffffff16636e4ce25c896040518263ffffffff1660e01b81526004018082815260200191505060006040518083038186803b15801561345757600080fd5b505afa15801561346b573d6000803e3d6000fd5b505050506040513d6000823e3d601f19601f8201168201806040525060e081101561349557600080fd5b8101908080519060200190929190805190602001909291908051906020019092919080519060200190929190805160405193929190846401000000008211156134dd57600080fd5b838201915060208201858111156134f357600080fd5b825186602082028301116401000000008211171561351057600080fd5b8083526020830192505050908051906020019060200280838360005b8381101561354757808201518184015260208101905061352c565b505050509050016040526020018051604051939291908464010000000082111561357057600080fd5b8382019150602082018581111561358657600080fd5b82518660208202830111640100000000821117156135a357600080fd5b8083526020830192505050908051906020019060200280838360005b838110156135da5780820151818401526020810190506135bf565b505050509050016040526020018051604051939291908464010000000082111561360357600080fd5b8382019150602082018581111561361957600080fd5b825186600182028301116401000000008211171561363657600080fd5b8083526020830192505050908051906020019080838360005b8381101561366a57808201518184015260208101905061364f565b50505050905090810190601f1680156136975780820380516001836020036101000a031916815260200191505b506040525050509650965096509650965096509650919395979092949650565b6000600560008473ffffffffffffffffffffffffffffffffffffffff1673ffffffffffffffffffffffffffffffffffffffff16815260200190815260200160002060008373ffffffffffffffffffffffffffffffffffffffff1673ffffffffffffffffffffffffffffffffffffffff16815260200190815260200160002060009054906101000a900460ff16905092915050565b613753613977565b73ffffffffffffffffffffffffffffffffffffffff16613771612c6d565b73ffffffffffffffffffffffffffffffffffffffff16146137fa576040517f08c379a00000000000000000000000000000000000000000000000000000000081526004018080602001828103825260208152602001807f4f776e61626c653a2063616c6c6572206973206e6f7420746865206f776e657281525060200191505060405180910390fd5b600073ffffffffffffffffffffffffffffffffffffffff168173ffffffffffffffffffffffffffffffffffffffff161415613880576040517f08c379a0000000000000000000000000000000000000000000000000000000008152600401808060200182810382526026815260200180615ba06026913960400191505060405180910390fd5b8073ffffffffffffffffffffffffffffffffffffffff16600a60009054906101000a900473ffffffffffffffffffffffffffffffffffffffff1673ffffffffffffffffffffffffffffffffffffffff167f8be0079c531659141344cd1fd0a4f28419497f9722a3daafe3b4186f6b6457e060405160405180910390a380600a60006101000a81548173ffffffffffffffffffffffffffffffffffffffff021916908373ffffffffffffffffffffffffffffffffffffffff16021790555050565b8060099080519060200190613956929190615a45565b5050565b600061397082600261479490919063ffffffff16565b9050919050565b600033905090565b816004600083815260200190815260200160002060006101000a81548173ffffffffffffffffffffffffffffffffffffffff021916908373ffffffffffffffffffffffffffffffffffffffff160217905550808273ffffffffffffffffffffffffffffffffffffffff166139f283612880565b73ffffffffffffffffffffffffffffffffffffffff167f8c5be1e5ebec7d5bd14f71427d1e84f3dd0314c0f7b2291e5b200ac8c7c3b92560405160405180910390a45050565b6000613a46826000016147ae565b9050919050565b613a5e613a58613977565b826147bf565b613ab3576040517f08c379a0000000000000000000000000000000000000000000000000000000008152600401808060200182810382526031815260200180615e166031913960400191505060405180910390fd5b613abe8383836148b3565b505050565b6000613b1b6001601360008673ffffffffffffffffffffffffffffffffffffffff1673ffffffffffffffffffffffffffffffffffffffff16815260200190815260200160002080549050614af690919063ffffffff16565b9050600060146000848152602001908152602001600020549050818114613c08576000601360008673ffffffffffffffffffffffffffffffffffffffff1673ffffffffffffffffffffffffffffffffffffffff1681526020019081526020016000208381548110613b8857fe5b9060005260206000200154905080601360008773ffffffffffffffffffffffffffffffffffffffff1673ffffffffffffffffffffffffffffffffffffffff1681526020019081526020016000208381548110613be057fe5b9060005260206000200181905550816014600083815260200190815260200160002081905550505b601360008573ffffffffffffffffffffffffffffffffffffffff1673ffffffffffffffffffffffffffffffffffffffff168152602001908152602001600020805480613c5057fe5b60019003818190600052602060002001600090559055601460008481526020019081526020016000206000905550505050565b601360008373ffffffffffffffffffffffffffffffffffffffff1673ffffffffffffffffffffffffffffffffffffffff168152602001908152602001600020805490506014600083815260200190815260200160002081905550601360008373ffffffffffffffffffffffffffffffffffffffff1673ffffffffffffffffffffffffffffffffffffffff1681526020019081526020016000208190806001815401808255809150506001900390600052602060002001600090919091909150555050565b6000600d6000838152602001908152602001600020541415613d7d576001600d6000838152602001908152602001600020819055505b50565b600073ffffffffffffffffffffffffffffffffffffffff168173ffffffffffffffffffffffffffffffffffffffff161415613e06576040517f08c379a000000000000000000000000000000000000000000000000000000000815260040180806020018281038252602d815260200180615cf6602d913960400191505060405180910390fd5b8073ffffffffffffffffffffffffffffffffffffffff16600073ffffffffffffffffffffffffffffffffffffffff167f74da04524d50c64947f5dd5381ef1a4dca5cba8ed1d816243f9e48aa0b5617ed60405160405180910390a380600b60006101000a81548173ffffffffffffffffffffffffffffffffffffffff021916908373ffffffffffffffffffffffffffffffffffffffff16021790555050565b6000613eb48360000183614b79565b60001c905092915050565b81613ed384866141ed90919063ffffffff16565b1115613f47576040517f08c379a00000000000000000000000000000000000000000000000000000000081526004018080602001828103825260168152602001807f546f74616c20737570706c792065786365656465642e0000000000000000000081525060200191505060405180910390fd5b60005b848110156140ff57613f5c600c614bfc565b6000613f68600c614c12565b90506000613f926001613f8485896141ed90919063ffffffff16565b6141ed90919063ffffffff16565b9050613f9c615ac5565b60405180606001604052808a81526020018381526020018781525090508060116000858152602001908152602001600020600082015181600001556020820151816001015560408201518160020155905050613ff83384614c20565b6140028386614e14565b61400b83614e9e565b6140153384613c83565b7f264009150e680b327677f372c2324923bd12b3b718ebd62d6cf6d3bb3179d8f9893385858a8a604051808781526020018673ffffffffffffffffffffffffffffffffffffffff16815260200185815260200184815260200183815260200180602001828103825283818151815260200191508051906020019080838360005b838110156140b0578082015181840152602081019050614095565b50505050905090810190601f1680156140dd5780820380516001836020036101000a031916815260200191505b5097505050505050505060405180910390a15050508080600101915050613f4a565b50600f60009054906101000a900473ffffffffffffffffffffffffffffffffffffffff1673ffffffffffffffffffffffffffffffffffffffff166356b28aae86866040518363ffffffff1660e01b81526004018083815260200182815260200192505050600060405180830381600087803b15801561417d57600080fd5b505af1158015614191573d6000803e3d6000fd5b505050507f68091494c05ef788e42594f810ab4fc09c48eba85b5792b56e96ff8f1a71c9c0856141ca86866141ed90919063ffffffff16565b604051808381526020018281526020019250505060405180910390a15050505050565b60008082840190508381101561426b576040517f08c379a000000000000000000000000000000000000000000000000000000000815260040180806020018281038252601b8152602001807f536166654d6174683a206164646974696f6e206f766572666c6f77000000000081525060200191505060405180910390fd5b8091505092915050565b3073ffffffffffffffffffffffffffffffffffffffff168473ffffffffffffffffffffffffffffffffffffffff1614806142c257506000600d600084815260200190815260200160002054115b806143165750600e60008573ffffffffffffffffffffffffffffffffffffffff1673ffffffffffffffffffffffffffffffffffffffff16815260200190815260200160002060009054906101000a900460ff165b8061436a5750600e60008473ffffffffffffffffffffffffffffffffffffffff1673ffffffffffffffffffffffffffffffffffffffff16815260200190815260200160002060009054906101000a900460ff165b6143bf576040517f08c379a000000000000000000000000000000000000000000000000000000000815260040180806020018281038252602f815260200180615bc6602f913960400191505060405180910390fd5b6143cb84848484614ee7565b6143d58483613ac3565b6143df8383613c83565b6143e882613d47565b50505050565b6000806000806144018660000186614f5f565b915091508160001c8160001c9350935050509250929050565b600061442582612880565b905061443381600084614ff8565b61443e60008361397f565b6000600860008481526020019081526020016000208054600181600116156101000203166002900490501461448d5760086000838152602001908152602001600020600061448c9190615ae6565b5b6144de82600160008473ffffffffffffffffffffffffffffffffffffffff1673ffffffffffffffffffffffffffffffffffffffff168152602001908152602001600020614ffd90919063ffffffff16565b506144f382600261501790919063ffffffff16565b5081600073ffffffffffffffffffffffffffffffffffffffff168273ffffffffffffffffffffffffffffffffffffffff167fddf252ad1be2c89b69c2b068fc378daa952ba7f163c4a11628f55a4df523b3ef60405160405180910390a45050565b600061456f6001601580549050614af690919063ffffffff16565b905060006016600084815260200190815260200160002054905060006015838154811061459857fe5b9060005260206000200154905080601583815481106145b357fe5b906000526020600020018190555081601660008381526020019081526020016000208190555060158054806145e457fe5b600190038181906000526020600020016000905590556000601660008681526020019081526020016000208190555050505050565b600061462c846000018460001b84615031565b60001c90509392505050565b600061464682600001615127565b9050919050565b60606000821415614695576040518060400160405280600181526020017f3000000000000000000000000000000000000000000000000000000000000000815250905061478f565b600082905060005b600082146146bf578080600101915050600a82816146b757fe5b04915061469d565b60608167ffffffffffffffff811180156146d857600080fd5b506040519080825280601f01601f19166020018201604052801561470b5781602001600182028036833780820191505090505b50905060006001830390508593505b6000841461478757600a848161472c57fe5b0660300160f81b8282806001900393508151811061474657fe5b60200101907effffffffffffffffffffffffffffffffffffffffffffffffffffffffffffff1916908160001a905350600a848161477f57fe5b04935061471a565b819450505050505b919050565b60006147a6836000018360001b615138565b905092915050565b600081600001805490509050919050565b60006147ca8261395a565b61481f576040517f08c379a000000000000000000000000000000000000000000000000000000000815260040180806020018281038252602c815260200180615c3f602c913960400191505060405180910390fd5b600061482a83612880565b90508073ffffffffffffffffffffffffffffffffffffffff168473ffffffffffffffffffffffffffffffffffffffff16148061489957508373ffffffffffffffffffffffffffffffffffffffff1661488184611472565b73ffffffffffffffffffffffffffffffffffffffff16145b806148aa57506148a981856136b7565b5b91505092915050565b8273ffffffffffffffffffffffffffffffffffffffff166148d382612880565b73ffffffffffffffffffffffffffffffffffffffff161461493f576040517f08c379a0000000000000000000000000000000000000000000000000000000008152600401808060200182810382526029815260200180615d9d6029913960400191505060405180910390fd5b600073ffffffffffffffffffffffffffffffffffffffff168273ffffffffffffffffffffffffffffffffffffffff1614156149c5576040517f08c379a0000000000000000000000000000000000000000000000000000000008152600401808060200182810382526024815260200180615bf56024913960400191505060405180910390fd5b6149d0838383614ff8565b6149db60008261397f565b614a2c81600160008673ffffffffffffffffffffffffffffffffffffffff1673ffffffffffffffffffffffffffffffffffffffff168152602001908152602001600020614ffd90919063ffffffff16565b50614a7e81600160008573ffffffffffffffffffffffffffffffffffffffff1673ffffffffffffffffffffffffffffffffffffffff16815260200190815260200160002061515b90919063ffffffff16565b50614a95818360026151759092919063ffffffff16565b50808273ffffffffffffffffffffffffffffffffffffffff168473ffffffffffffffffffffffffffffffffffffffff167fddf252ad1be2c89b69c2b068fc378daa952ba7f163c4a11628f55a4df523b3ef60405160405180910390a4505050565b600082821115614b6e576040517f08c379a000000000000000000000000000000000000000000000000000000000815260040180806020018281038252601e8152602001807f536166654d6174683a207375627472616374696f6e206f766572666c6f77000081525060200191505060405180910390fd5b818303905092915050565b600081836000018054905011614bda576040517f08c379a0000000000000000000000000000000000000000000000000000000008152600401808060200182810382526022815260200180615b4c6022913960400191505060405180910390fd5b826000018281548110614be957fe5b9060005260206000200154905092915050565b6001816000016000828254019250508190555050565b600081600001549050919050565b600073ffffffffffffffffffffffffffffffffffffffff168273ffffffffffffffffffffffffffffffffffffffff161415614cc3576040517f08c379a00000000000000000000000000000000000000000000000000000000081526004018080602001828103825260208152602001807f4552433732313a206d696e7420746f20746865207a65726f206164647265737381525060200191505060405180910390fd5b614ccc8161395a565b15614d3f576040517f08c379a000000000000000000000000000000000000000000000000000000000815260040180806020018281038252601c8152602001807f4552433732313a20746f6b656e20616c7265616479206d696e7465640000000081525060200191505060405180910390fd5b614d4b60008383614ff8565b614d9c81600160008573ffffffffffffffffffffffffffffffffffffffff1673ffffffffffffffffffffffffffffffffffffffff16815260200190815260200160002061515b90919063ffffffff16565b50614db3818360026151759092919063ffffffff16565b50808273ffffffffffffffffffffffffffffffffffffffff16600073ffffffffffffffffffffffffffffffffffffffff167fddf252ad1be2c89b69c2b068fc378daa952ba7f163c4a11628f55a4df523b3ef60405160405180910390a45050565b614e1d8261395a565b614e72576040517f08c379a000000000000000000000000000000000000000000000000000000000815260040180806020018281038252602c815260200180615d71602c913960400191505060405180910390fd5b80600860008481526020019081526020016000209080519060200190614e99929190615a45565b505050565b6015805490506016600083815260200190815260200160002081905550601581908060018154018082558091505060019003906000526020600020016000909190919091505550565b614ef8614ef2613977565b836147bf565b614f4d576040517f08c379a0000000000000000000000000000000000000000000000000000000008152600401808060200182810382526031815260200180615e166031913960400191505060405180910390fd5b614f59848484846151aa565b50505050565b60008082846000018054905011614fc1576040517f08c379a0000000000000000000000000000000000000000000000000000000008152600401808060200182810382526022815260200180615d236022913960400191505060405180910390fd5b6000846000018481548110614fd257fe5b906000526020600020906002020190508060000154816001015492509250509250929050565b505050565b600061500f836000018360001b61521c565b905092915050565b6000615029836000018360001b615304565b905092915050565b600080846001016000858152602001908152602001600020549050600081141583906150f8576040517f08c379a00000000000000000000000000000000000000000000000000000000081526004018080602001828103825283818151815260200191508051906020019080838360005b838110156150bd5780820151818401526020810190506150a2565b50505050905090810190601f1680156150ea5780820380516001836020036101000a031916815260200191505b509250505060405180910390fd5b5084600001600182038154811061510b57fe5b9060005260206000209060020201600101549150509392505050565b600081600001805490509050919050565b600080836001016000848152602001908152602001600020541415905092915050565b600061516d836000018360001b61541d565b905092915050565b60006151a1846000018460001b8473ffffffffffffffffffffffffffffffffffffffff1660001b61548d565b90509392505050565b6151b58484846148b3565b6151c184848484615569565b615216576040517f08c379a0000000000000000000000000000000000000000000000000000000008152600401808060200182810382526032815260200180615b6e6032913960400191505060405180910390fd5b50505050565b600080836001016000848152602001908152602001600020549050600081146152f8576000600182039050600060018660000180549050039050600086600001828154811061526757fe5b906000526020600020015490508087600001848154811061528457fe5b90600052602060002001819055506001830187600101600083815260200190815260200160002081905550866000018054806152bc57fe5b600190038181906000526020600020016000905590558660010160008781526020019081526020016000206000905560019450505050506152fe565b60009150505b92915050565b60008083600101600084815260200190815260200160002054905060008114615411576000600182039050600060018660000180549050039050600086600001828154811061534f57fe5b906000526020600020906002020190508087600001848154811061536f57fe5b90600052602060002090600202016000820154816000015560018201548160010155905050600183018760010160008360000154815260200190815260200160002081905550866000018054806153c257fe5b6001900381819060005260206000209060020201600080820160009055600182016000905550509055866001016000878152602001908152602001600020600090556001945050505050615417565b60009150505b92915050565b60006154298383615782565b615482578260000182908060018154018082558091505060019003906000526020600020016000909190919091505582600001805490508360010160008481526020019081526020016000208190555060019050615487565b600090505b92915050565b600080846001016000858152602001908152602001600020549050600081141561553457846000016040518060400160405280868152602001858152509080600181540180825580915050600190039060005260206000209060020201600090919091909150600082015181600001556020820151816001015550508460000180549050856001016000868152602001908152602001600020819055506001915050615562565b8285600001600183038154811061554757fe5b90600052602060002090600202016001018190555060009150505b9392505050565b600061558a8473ffffffffffffffffffffffffffffffffffffffff166157a5565b615597576001905061577a565b606061570163150b7a0260e01b6155ac613977565b888787604051602401808573ffffffffffffffffffffffffffffffffffffffff1681526020018473ffffffffffffffffffffffffffffffffffffffff16815260200183815260200180602001828103825283818151815260200191508051906020019080838360005b83811015615630578082015181840152602081019050615615565b50505050905090810190601f16801561565d5780820380516001836020036101000a031916815260200191505b5095505050505050604051602081830303815290604052907bffffffffffffffffffffffffffffffffffffffffffffffffffffffff19166020820180517bffffffffffffffffffffffffffffffffffffffffffffffffffffffff8381831617835250505050604051806060016040528060328152602001615b6e603291398773ffffffffffffffffffffffffffffffffffffffff166157b89092919063ffffffff16565b9050600081806020019051602081101561571a57600080fd5b8101908080519060200190929190505050905063150b7a0260e01b7bffffffffffffffffffffffffffffffffffffffffffffffffffffffff1916817bffffffffffffffffffffffffffffffffffffffffffffffffffffffff191614925050505b949350505050565b600080836001016000848152602001908152602001600020541415905092915050565b600080823b905060008111915050919050565b60606157c784846000856157d0565b90509392505050565b60608247101561582b576040517f08c379a0000000000000000000000000000000000000000000000000000000008152600401808060200182810382526026815260200180615c196026913960400191505060405180910390fd5b615834856157a5565b6158a6576040517f08c379a000000000000000000000000000000000000000000000000000000000815260040180806020018281038252601d8152602001807f416464726573733a2063616c6c20746f206e6f6e2d636f6e747261637400000081525060200191505060405180910390fd5b600060608673ffffffffffffffffffffffffffffffffffffffff1685876040518082805190602001908083835b602083106158f657805182526020820191506020810190506020830392506158d3565b6001836020036101000a03801982511681845116808217855250505050505090500191505060006040518083038185875af1925050503d8060008114615958576040519150601f19603f3d011682016040523d82523d6000602084013e61595d565b606091505b509150915061596d828286615979565b92505050949350505050565b6060831561598957829050615a3e565b60008351111561599c5782518084602001fd5b816040517f08c379a00000000000000000000000000000000000000000000000000000000081526004018080602001828103825283818151815260200191508051906020019080838360005b83811015615a035780820151818401526020810190506159e8565b50505050905090810190601f168015615a305780820380516001836020036101000a031916815260200191505b509250505060405180910390fd5b9392505050565b828054600181600116156101000203166002900490600052602060002090601f016020900481019282601f10615a8657805160ff1916838001178555615ab4565b82800160010185558215615ab4579182015b82811115615ab3578251825591602001919060010190615a98565b5b509050615ac19190615b2e565b5090565b60405180606001604052806000815260200160008152602001600081525090565b50805460018160011615610100020316600290046000825580601f10615b0c5750615b2b565b601f016020900490600052602060002090810190615b2a9190615b2e565b5b50565b5b80821115615b47576000816000905550600101615b2f565b509056fe456e756d657261626c655365743a20696e646578206f7574206f6620626f756e64734552433732313a207472616e7366657220746f206e6f6e20455243373231526563656976657220696d706c656d656e7465724f776e61626c653a206e6577206f776e657220697320746865207a65726f20616464726573734c696d6974206669727374207472616e73666572206d7573742073616c65206f6e20617274676565206d61726b65744552433732313a207472616e7366657220746f20746865207a65726f2061646472657373416464726573733a20696e73756666696369656e742062616c616e636520666f722063616c6c4552433732313a206f70657261746f7220717565727920666f72206e6f6e6578697374656e7420746f6b656e4552433732313a20617070726f76652063616c6c6572206973206e6f74206f776e6572206e6f7220617070726f76656420666f7220616c6c4552433732313a2062616c616e636520717565727920666f7220746865207a65726f20616464726573734552433732313a206f776e657220717565727920666f72206e6f6e6578697374656e7420746f6b656e6f70657261746f723a207a65726f206164647265737320676976656e20666f72206e6577206f70657261746f72456e756d657261626c654d61703a20696e646578206f7574206f6620626f756e64734552433732313a20617070726f76656420717565727920666f72206e6f6e6578697374656e7420746f6b656e4552433732314d657461646174613a2055524920736574206f66206e6f6e6578697374656e7420746f6b656e4552433732313a207472616e73666572206f6620746f6b656e2074686174206973206e6f74206f776e4552433732314d657461646174613a2055524920717565727920666f72206e6f6e6578697374656e7420746f6b656e4552433732313a20617070726f76616c20746f2063757272656e74206f776e65724552433732313a207472616e736665722063616c6c6572206973206e6f74206f776e6572206e6f7220617070726f7665644552433732313a206275726e206f6620746f6b656e2074686174206973206e6f74206f776ea264697066735822122086ffc6a89f3f3bfa2c499dac0b21758a3454aa8b13f0daa2a9098906d3f9177e64736f6c634300060c0033",
  "immutableReferences": {},
  "source": "pragma solidity >=0.6.0 <0.8.0;\n\nimport \"@openzeppelin/contracts/token/ERC721/ERC721.sol\";\nimport \"@openzeppelin/contracts/utils/Counters.sol\";\nimport \"@openzeppelin/contracts/utils/Pausable.sol\";\nimport \"./util/StringUtils.sol\";\nimport \"./owner/Operator.sol\";\nimport \"./interfaces/IDigitalSource.sol\";\n\n/// @title artgee nft\n/// @author yzbbanban\n/// @notice finish create nft,add art id\n/// @dev Explain to a developer any extra details\ncontract ArtGeeNft is ERC721, Operator, Pausable{\n\n    event CreateArt(uint256 _artId, address _owner,uint256 _tokenId, \n                    uint256 _edition,uint256 _totalEdition,string _uri);\n    event UpdateEdition(uint256 _artId, uint256 edition);\n\n    using Counters for Counters.Counter;\n    Counters.Counter private _tokenIds;\n    using SafeMath for uint256;\n\n    //tokenId => limitCount\n    mapping(uint256 => uint256) public limitCount;\n    // market => in transfer list\n    mapping(address => bool) public transferList;\n\n    IDigitalSource public iDigitalSource;\n\n    mapping(address => bool) public blackList;\n\n    //tokenId => TokenArt\n    mapping(uint256 => TokenArt) public tokenArts;\n\n    struct TokenArt {\n        uint256 artId;\n        uint256 edition;\n        uint256 totalEdition;\n    }\n\n    uint32 public mTotalEdition = 10000;\n\n     // Mapping from owner to list of owned token IDs\n    mapping(address => uint256[]) private _ownedTokens;\n\n    // Mapping from token ID to index of the owner tokens list\n    mapping(uint256 => uint256) private _ownedTokensIndex;\n\n    // Array with all token ids, used for enumeration\n    uint256[] private _allTokens;\n\n    // Mapping from token id to position in the allTokens array\n    mapping(uint256 => uint256) private _allTokensIndex;\n\n    mapping(address => bool) public miners;\n\n    constructor(IDigitalSource _iDigitalSource) public ERC721(\"GeeToken\", \"GT\") {\n        iDigitalSource = _iDigitalSource;\n        super._setBaseURI(\"ipfs://ipfs/\");\n    }\n\n    //get art detail by art id\n    function getSourceDigitalArt(uint256 _artId) view public returns(\n                uint256 id,\n                uint256 totalEdition,\n                uint256 currentEdition,\n                address creator,\n                address[] memory assistants,\n                uint256[] memory benefits,\n                string memory uri\n    ){\n        return iDigitalSource.getDigitalArt(_artId);\n    }\n\n    function tokensOfOwner(address _owner) view public returns(uint256[] memory _tokens){\n        return _ownedTokens[_owner];\n    }\n\n    function addBlackList(address _black) public onlyOwner(){\n        blackList[_black] = true;\n    }\n\n    function removeBlackList(address _black) public onlyOwner(){\n        blackList[_black] = false;\n    }\n\n    function SetMTotalEdition(uint32 _mTotalEdition) public onlyOwner(){\n        mTotalEdition = _mTotalEdition;\n    }\n\n    function addTransferList(address _transferAddr) public onlyOwner(){\n        transferList[_transferAddr] = true;\n    }\n\n    function removeTransferList(address _transferAddr) public onlyOwner(){\n        transferList[_transferAddr] = false;\n    }\n\n    function setBaseURI(string memory _baseURI) public onlyOwner(){\n        //ipfs://ipfs/\n        super._setBaseURI(_baseURI);\n    }\n\n    /**\n     * @dev See {IERC721-transferFrom}.\n     */\n    function transferFrom(address from, address to, uint256 tokenId) public virtual override {\n        //limit first transfer must sale on artgee market\n        require(from == address(this)\n                || limitCount[tokenId]>0\n                || transferList[from]\n                || transferList[to],\n                \"Limit first transfer must sale on artgee market\");\n        super.transferFrom(from, to, tokenId);\n        _removeTokenFromOwnerEnumeration(from, tokenId);\n        _addTokenToOwnerEnumeration(to, tokenId);\n        _addTransferLimit(tokenId);\n    }\n\n    /**\n     * @dev See {IERC721-safeTransferFrom}.\n     */\n    function safeTransferFrom(address from, address to, uint256 tokenId) public virtual override {\n        _safeTransferFrom(from,to,tokenId,\"\");\n    }\n\n    /**\n     * @dev See {IERC721-safeTransferFrom}.\n     */\n    function safeTransferFrom(address from, address to, uint256 tokenId, bytes memory _data) public virtual override {\n        _safeTransferFrom(from,to,tokenId,_data);\n    }\n\n    function _safeTransferFrom(address from, address to, uint256 tokenId, bytes memory _data) internal {\n        require(from == address(this)\n                || limitCount[tokenId]>0\n                || transferList[from]\n                || transferList[to],\n                \"Limit first transfer must sale on artgee market\");\n        super.safeTransferFrom(from, to, tokenId, _data);\n        _removeTokenFromOwnerEnumeration(from, tokenId);\n        _addTokenToOwnerEnumeration(to, tokenId);\n        _addTransferLimit(tokenId);\n    }\n\n    function _addTransferLimit(uint256 _tokenId) internal{\n        if(limitCount[_tokenId]==0){\n            limitCount[_tokenId] = 1;\n        }\n    }\n\n     /**\n     * @dev create art\n     *\n     * @param _assistants assistant\n     * @param _benefits benefits of assistants(contain creator,index 0)\n     * @param _totalEdition total edition\n     * @param _uri metadate\n     * @param _count edition count\n     */\n    function createArt(address[] memory _assistants,uint256[] memory _benefits,uint256 _totalEdition,\n                string memory _uri,\n                uint256 _count) public whenNotPaused(){\n        require(!blackList[msg.sender],\"Creator is forbidden\");\n        if(_assistants.length>0){\n            require(_assistants.length + 1 == _benefits.length,\"Benefits length error\");\n            uint256 _totalPercent = 0;\n            for (uint256 index = 0; index < _benefits.length; index++) {\n                _totalPercent = _totalPercent.add(_benefits[index]);\n            }\n            require(_totalPercent == 1000,\"Benefits error\");\n        }\n        require(_totalEdition <= mTotalEdition,\"Total edition overflow\");\n        //create art id\n        uint256 _artId = iDigitalSource.createDigitalArt(\n                                msg.sender,\n                                _assistants, \n                                _benefits, \n                                _totalEdition, \n                                _uri);\n        _createArt(_artId, _count,0,_totalEdition,_uri);\n    }\n\n    /**\n     * @dev add art\n     * @param _artId artid\n     * @param _count tcount\n     */\n    function addArt(uint256 _artId, uint256 _count) public whenNotPaused(){\n        require(!blackList[msg.sender],\"Creator not approve\");\n         (,uint256 totalEdition,uint256 currentEdition,address creator,,,string memory uri)=iDigitalSource.getDigitalArt(_artId);\n        require(msg.sender == creator ,\"Not creator\");\n        _createArt(_artId, _count,currentEdition,totalEdition,uri);\n    }\n\n    function _createArt(uint256 _artId,\n                        uint256 _count,\n                        uint256 _currentEdition,\n                        uint256 _totalEdition,string memory _uri)\n        internal\n    {\n        require(_count.add(_currentEdition) <= _totalEdition, \"Total supply exceeded.\");\n        for (uint256 index = 0; index < _count; index++) {\n            _tokenIds.increment();\n            uint256 newItemId = _tokenIds.current();\n            uint256 _edition = _currentEdition.add(index).add(1);\n            //bind artId\n            TokenArt memory tokenArt = TokenArt(_artId,_edition,_totalEdition);\n            //bind current info\n            tokenArts[newItemId] = tokenArt;\n            _mint(msg.sender, newItemId);\n            //set metadata\n            _setTokenURI(newItemId, _uri);\n            _addTokenToAllTokensEnumeration(newItemId);\n            _addTokenToOwnerEnumeration(msg.sender, newItemId);\n            emit CreateArt(_artId, msg.sender, newItemId, \n                    _edition,_totalEdition,_uri);\n        }\n        iDigitalSource.increaseDigitalArtEdition(_artId, _count);\n        //event\n        emit UpdateEdition(_artId,_currentEdition.add(_count));\n    }\n\n    function burnItem(uint256 _id) public{\n        require(super.ownerOf(_id) == msg.sender, \"ERC721: burn of token that is not own\"); // internal owner\n        _burn(_id);\n        _removeTokenFromOwnerEnumeration(ownerOf(_id), _id);\n        // Since tokenId will be deleted, we can clear its slot in _ownedTokensIndex to trigger a gas refund\n        _ownedTokensIndex[_id] = 0;\n        _removeTokenFromAllTokensEnumeration(_id);\n    }\n\n    /**\n     * @dev Private function to add a token to this extension's ownership-tracking data structures.\n     * @param to address representing the new owner of the given token ID\n     * @param tokenId uint256 ID of the token to be added to the tokens list of the given address\n     */\n    function _addTokenToOwnerEnumeration(address to, uint256 tokenId) private {\n        _ownedTokensIndex[tokenId] = _ownedTokens[to].length;\n        _ownedTokens[to].push(tokenId);\n    }\n\n    /**\n     * @dev Private function to add a token to this extension's token tracking data structures.\n     * @param tokenId uint256 ID of the token to be added to the tokens list\n     */\n    function _addTokenToAllTokensEnumeration(uint256 tokenId) private {\n        _allTokensIndex[tokenId] = _allTokens.length;\n        _allTokens.push(tokenId);\n    }\n\n     /**\n     * @dev Private function to remove a token from this extension's ownership-tracking data structures. Note that\n     * while the token is not assigned a new owner, the `_ownedTokensIndex` mapping is _not_ updated: this allows for\n     * gas optimizations e.g. when performing a transfer operation (avoiding double writes).\n     * This has O(1) time complexity, but alters the order of the _ownedTokens array.\n     * @param from address representing the previous owner of the given token ID\n     * @param tokenId uint256 ID of the token to be removed from the tokens list of the given address\n     */\n    function _removeTokenFromOwnerEnumeration(address from, uint256 tokenId) private {\n        // To prevent a gap in from's tokens array, we store the last token in the index of the token to delete, and\n        // then delete the last slot (swap and pop).\n\n        uint256 lastTokenIndex = _ownedTokens[from].length.sub(1);\n        uint256 tokenIndex = _ownedTokensIndex[tokenId];\n\n        // When the token to delete is the last token, the swap operation is unnecessary\n        if (tokenIndex != lastTokenIndex) {\n            uint256 lastTokenId = _ownedTokens[from][lastTokenIndex];\n\n            _ownedTokens[from][tokenIndex] = lastTokenId; // Move the last token to the slot of the to-delete token\n            _ownedTokensIndex[lastTokenId] = tokenIndex; // Update the moved token's index\n        }\n\n        // This also deletes the contents at the last position of the array\n        _ownedTokens[from].pop();\n\n        // Note that _ownedTokensIndex[tokenId] hasn't been cleared: it still points to the old slot (now occupied by\n        // lastTokenId, or just over the end of the array if the token was the last one).\n        delete _ownedTokensIndex[tokenId];\n    }\n\n     /**\n     * @dev Private function to remove a token from this extension's token tracking data structures.\n     * This has O(1) time complexity, but alters the order of the _allTokens array.\n     * @param tokenId uint256 ID of the token to be removed from the tokens list\n     */\n    function _removeTokenFromAllTokensEnumeration(uint256 tokenId) private {\n        // To prevent a gap in the tokens array, we store the last token in the index of the token to delete, and\n        // then delete the last slot (swap and pop).\n\n        uint256 lastTokenIndex = _allTokens.length.sub(1);\n        uint256 tokenIndex = _allTokensIndex[tokenId];\n\n        // When the token to delete is the last token, the swap operation is unnecessary. However, since this occurs so\n        // rarely (when the last minted token is burnt) that we still do the swap here to avoid the gas cost of adding\n        uint256 lastTokenId = _allTokens[lastTokenIndex];\n\n        _allTokens[tokenIndex] = lastTokenId; // Move the last token to the slot of the to-delete token\n        _allTokensIndex[lastTokenId] = tokenIndex; // Update the moved token's index\n\n        // This also deletes the contents at the last position of the array\n        _allTokens.pop();\n        _allTokensIndex[tokenId] = 0;\n    }\n}",
  "sourcePath": "/Users/wangban/Downloads/money/coin/other/artgee/ArtGee-Contract/contracts/ArtGeeNft.sol",
  "compiler": {
    "name": "solc",
    "version": "0.6.12+commit.27d51765.Emscripten.clang"
  },
  "schemaVersion": "3.3.2",
  "updatedAt": "2021-06-12T05:45:23.804Z",
  "devdoc": {
    "author": "yzbbanban",
    "details": "Explain to a developer any extra details",
    "kind": "dev",
    "methods": {
      "addArt(uint256,uint256)": {
        "details": "add art",
        "params": {
          "_artId": "artid",
          "_count": "tcount"
        }
      },
      "approve(address,uint256)": {
        "details": "See {IERC721-approve}."
      },
      "balanceOf(address)": {
        "details": "See {IERC721-balanceOf}."
      },
      "baseURI()": {
        "details": "Returns the base URI set via {_setBaseURI}. This will be automatically added as a prefix in {tokenURI} to each token's URI, or to the token ID if no specific URI is set for that token ID."
      },
      "createArt(address[],uint256[],uint256,string,uint256)": {
        "details": "create art",
        "params": {
          "_assistants": "assistant",
          "_benefits": "benefits of assistants(contain creator,index 0)",
          "_count": "edition count",
          "_totalEdition": "total edition",
          "_uri": "metadate"
        }
      },
      "getApproved(uint256)": {
        "details": "See {IERC721-getApproved}."
      },
      "isApprovedForAll(address,address)": {
        "details": "See {IERC721-isApprovedForAll}."
      },
      "name()": {
        "details": "See {IERC721Metadata-name}."
      },
      "owner()": {
        "details": "Returns the address of the current owner."
      },
      "ownerOf(uint256)": {
        "details": "See {IERC721-ownerOf}."
      },
      "paused()": {
        "details": "Returns true if the contract is paused, and false otherwise."
      },
      "renounceOwnership()": {
        "details": "Leaves the contract without owner. It will not be possible to call `onlyOwner` functions anymore. Can only be called by the current owner. NOTE: Renouncing ownership will leave the contract without an owner, thereby removing any functionality that is only available to the owner."
      },
      "safeTransferFrom(address,address,uint256)": {
        "details": "See {IERC721-safeTransferFrom}."
      },
      "safeTransferFrom(address,address,uint256,bytes)": {
        "details": "See {IERC721-safeTransferFrom}."
      },
      "setApprovalForAll(address,bool)": {
        "details": "See {IERC721-setApprovalForAll}."
      },
      "supportsInterface(bytes4)": {
        "details": "See {IERC165-supportsInterface}. Time complexity O(1), guaranteed to always use less than 30 000 gas."
      },
      "symbol()": {
        "details": "See {IERC721Metadata-symbol}."
      },
      "tokenByIndex(uint256)": {
        "details": "See {IERC721Enumerable-tokenByIndex}."
      },
      "tokenOfOwnerByIndex(address,uint256)": {
        "details": "See {IERC721Enumerable-tokenOfOwnerByIndex}."
      },
      "tokenURI(uint256)": {
        "details": "See {IERC721Metadata-tokenURI}."
      },
      "totalSupply()": {
        "details": "See {IERC721Enumerable-totalSupply}."
      },
      "transferFrom(address,address,uint256)": {
        "details": "See {IERC721-transferFrom}."
      },
      "transferOwnership(address)": {
        "details": "Transfers ownership of the contract to a new account (`newOwner`). Can only be called by the current owner."
      }
    },
    "title": "artgee nft",
    "version": 1
  },
  "userdoc": {
    "kind": "user",
    "methods": {},
    "notice": "finish create nft,add art id",
    "version": 1
  }
}