{
  "contractName": "BaseAuction",
  "abi": [
    {
      "anonymous": false,
      "inputs": [
        {
          "indexed": true,
          "internalType": "address",
          "name": "previousOperator",
          "type": "address"
        },
        {
          "indexed": true,
          "internalType": "address",
          "name": "newOperator",
          "type": "address"
        }
      ],
      "name": "OperatorTransferred",
      "type": "event"
    },
    {
      "anonymous": false,
      "inputs": [
        {
          "indexed": true,
          "internalType": "address",
          "name": "previousOwner",
          "type": "address"
        },
        {
          "indexed": true,
          "internalType": "address",
          "name": "newOwner",
          "type": "address"
        }
      ],
      "name": "OwnershipTransferred",
      "type": "event"
    },
    {
      "inputs": [],
      "name": "artGee",
      "outputs": [
        {
          "internalType": "contract IAgERC721",
          "name": "",
          "type": "address"
        }
      ],
      "stateMutability": "view",
      "type": "function"
    },
    {
      "inputs": [
        {
          "internalType": "uint256",
          "name": "",
          "type": "uint256"
        }
      ],
      "name": "artPercent",
      "outputs": [
        {
          "internalType": "uint256",
          "name": "",
          "type": "uint256"
        }
      ],
      "stateMutability": "view",
      "type": "function"
    },
    {
      "inputs": [],
      "name": "basePercent",
      "outputs": [
        {
          "internalType": "uint256",
          "name": "",
          "type": "uint256"
        }
      ],
      "stateMutability": "view",
      "type": "function"
    },
    {
      "inputs": [],
      "name": "feePercent",
      "outputs": [
        {
          "internalType": "uint256",
          "name": "",
          "type": "uint256"
        }
      ],
      "stateMutability": "view",
      "type": "function"
    },
    {
      "inputs": [
        {
          "internalType": "address",
          "name": "",
          "type": "address"
        },
        {
          "internalType": "uint256",
          "name": "",
          "type": "uint256"
        }
      ],
      "name": "isNotFirstAuction",
      "outputs": [
        {
          "internalType": "bool",
          "name": "",
          "type": "bool"
        }
      ],
      "stateMutability": "view",
      "type": "function"
    },
    {
      "inputs": [],
      "name": "isOperator",
      "outputs": [
        {
          "internalType": "bool",
          "name": "",
          "type": "bool"
        }
      ],
      "stateMutability": "view",
      "type": "function"
    },
    {
      "inputs": [
        {
          "internalType": "address",
          "name": "",
          "type": "address"
        },
        {
          "internalType": "uint256",
          "name": "",
          "type": "uint256"
        }
      ],
      "name": "myBidInfos",
      "outputs": [
        {
          "internalType": "uint256",
          "name": "",
          "type": "uint256"
        }
      ],
      "stateMutability": "view",
      "type": "function"
    },
    {
      "inputs": [],
      "name": "operator",
      "outputs": [
        {
          "internalType": "address",
          "name": "",
          "type": "address"
        }
      ],
      "stateMutability": "view",
      "type": "function"
    },
    {
      "inputs": [],
      "name": "owner",
      "outputs": [
        {
          "internalType": "address",
          "name": "",
          "type": "address"
        }
      ],
      "stateMutability": "view",
      "type": "function"
    },
    {
      "inputs": [],
      "name": "platform",
      "outputs": [
        {
          "internalType": "address",
          "name": "",
          "type": "address"
        }
      ],
      "stateMutability": "view",
      "type": "function"
    },
    {
      "inputs": [],
      "name": "renounceOwnership",
      "outputs": [],
      "stateMutability": "nonpayable",
      "type": "function"
    },
    {
      "inputs": [
        {
          "internalType": "address",
          "name": "newOperator_",
          "type": "address"
        }
      ],
      "name": "transferOperator",
      "outputs": [],
      "stateMutability": "nonpayable",
      "type": "function"
    },
    {
      "inputs": [
        {
          "internalType": "address",
          "name": "newOwner",
          "type": "address"
        }
      ],
      "name": "transferOwnership",
      "outputs": [],
      "stateMutability": "nonpayable",
      "type": "function"
    },
    {
      "stateMutability": "payable",
      "type": "receive"
    },
    {
      "inputs": [
        {
          "internalType": "address",
          "name": "_owner",
          "type": "address"
        }
      ],
      "name": "getMyArtList",
      "outputs": [
        {
          "internalType": "uint256[]",
          "name": "",
          "type": "uint256[]"
        }
      ],
      "stateMutability": "view",
      "type": "function"
    },
    {
      "inputs": [
        {
          "internalType": "contract IAgERC721",
          "name": "_artGee",
          "type": "address"
        },
        {
          "internalType": "address",
          "name": "_platform",
          "type": "address"
        }
      ],
      "name": "setArtgee",
      "outputs": [],
      "stateMutability": "nonpayable",
      "type": "function"
    },
    {
      "inputs": [
        {
          "internalType": "uint256",
          "name": "_feePercent",
          "type": "uint256"
        },
        {
          "internalType": "uint256[2]",
          "name": "_artPercents",
          "type": "uint256[2]"
        }
      ],
      "name": "setArtPercent",
      "outputs": [],
      "stateMutability": "nonpayable",
      "type": "function"
    },
    {
      "inputs": [
        {
          "internalType": "address",
          "name": "",
          "type": "address"
        },
        {
          "internalType": "address",
          "name": "",
          "type": "address"
        },
        {
          "internalType": "uint256",
          "name": "",
          "type": "uint256"
        },
        {
          "internalType": "bytes",
          "name": "",
          "type": "bytes"
        }
      ],
      "name": "onERC721Received",
      "outputs": [
        {
          "internalType": "bytes4",
          "name": "",
          "type": "bytes4"
        }
      ],
      "stateMutability": "pure",
      "type": "function"
    }
  ],
  "bytecode": "0x60806040526064600355604051806040016040528060c860ff168152602001606460ff16815250600490600262000038929190620001d8565b506103e86005553480156200004c57600080fd5b5060006200005f620001d060201b60201c565b9050806000806101000a81548173ffffffffffffffffffffffffffffffffffffffff021916908373ffffffffffffffffffffffffffffffffffffffff1602179055508073ffffffffffffffffffffffffffffffffffffffff16600073ffffffffffffffffffffffffffffffffffffffff167f8be0079c531659141344cd1fd0a4f28419497f9722a3daafe3b4186f6b6457e060405160405180910390a3506200010d620001d060201b60201c565b600160006101000a81548173ffffffffffffffffffffffffffffffffffffffff021916908373ffffffffffffffffffffffffffffffffffffffff160217905550600160009054906101000a900473ffffffffffffffffffffffffffffffffffffffff1673ffffffffffffffffffffffffffffffffffffffff16600073ffffffffffffffffffffffffffffffffffffffff167f74da04524d50c64947f5dd5381ef1a4dca5cba8ed1d816243f9e48aa0b5617ed60405160405180910390a36200024e565b600033905090565b8280548282559060005260206000209081019282156200021c579160200282015b828111156200021b578251829060ff16905591602001919060010190620001f9565b5b5090506200022b91906200022f565b5090565b5b808211156200024a57600081600090555060010162000230565b5090565b6111ac806200025e6000396000f3fe6080604052600436106101025760003560e01c8063570ca73511610095578063a525d19911610064578063a525d1991461059f578063c5ac0ded1461060e578063f2ec6fad14610639578063f2fde38b14610688578063fc839663146106d957610109565b8063570ca735146104db578063715018a61461051c5780637fd6f15c146105335780638da5cb5b1461055e57610109565b806329605e77116100d157806329605e77146103db5780634456eda21461042c5780634bde38c8146104595780635313a89c1461049a57610109565b80630773b15b1461010e578063122e986f1461017f578063150b7a02146101f057806319e9e3c81461033557610109565b3661010957005b600080fd5b34801561011a57600080fd5b506101676004803603604081101561013157600080fd5b81019080803573ffffffffffffffffffffffffffffffffffffffff16906020019092919080359060200190929190505050610755565b60405180821515815260200191505060405180910390f35b34801561018b57600080fd5b506101ee600480360360408110156101a257600080fd5b81019080803573ffffffffffffffffffffffffffffffffffffffff169060200190929190803573ffffffffffffffffffffffffffffffffffffffff169060200190929190505050610784565b005b3480156101fc57600080fd5b506103006004803603608081101561021357600080fd5b81019080803573ffffffffffffffffffffffffffffffffffffffff169060200190929190803573ffffffffffffffffffffffffffffffffffffffff169060200190929190803590602001909291908035906020019064010000000081111561027a57600080fd5b82018360208201111561028c57600080fd5b803590602001918460018302840111640100000000831117156102ae57600080fd5b91908080601f016020809104026020016040519081016040528093929190818152602001838380828437600081840152601f19601f8201169050808301925050505050505091929192905050506108b9565b60405180827bffffffffffffffffffffffffffffffffffffffffffffffffffffffff1916815260200191505060405180910390f35b34801561034157600080fd5b506103846004803603602081101561035857600080fd5b81019080803573ffffffffffffffffffffffffffffffffffffffff1690602001909291905050506108cd565b6040518080602001828103825283818151815260200191508051906020019060200280838360005b838110156103c75780820151818401526020810190506103ac565b505050509050019250505060405180910390f35b3480156103e757600080fd5b5061042a600480360360208110156103fe57600080fd5b81019080803573ffffffffffffffffffffffffffffffffffffffff169060200190929190505050610964565b005b34801561043857600080fd5b50610441610a1f565b60405180821515815260200191505060405180910390f35b34801561046557600080fd5b5061046e610a7e565b604051808273ffffffffffffffffffffffffffffffffffffffff16815260200191505060405180910390f35b3480156104a657600080fd5b506104af610aa4565b604051808273ffffffffffffffffffffffffffffffffffffffff16815260200191505060405180910390f35b3480156104e757600080fd5b506104f0610aca565b604051808273ffffffffffffffffffffffffffffffffffffffff16815260200191505060405180910390f35b34801561052857600080fd5b50610531610af4565b005b34801561053f57600080fd5b50610548610c61565b6040518082815260200191505060405180910390f35b34801561056a57600080fd5b50610573610c67565b604051808273ffffffffffffffffffffffffffffffffffffffff16815260200191505060405180910390f35b3480156105ab57600080fd5b506105f8600480360360408110156105c257600080fd5b81019080803573ffffffffffffffffffffffffffffffffffffffff16906020019092919080359060200190929190505050610c90565b6040518082815260200191505060405180910390f35b34801561061a57600080fd5b50610623610cbe565b6040518082815260200191505060405180910390f35b34801561064557600080fd5b506106726004803603602081101561065c57600080fd5b8101908080359060200190929190505050610cc4565b6040518082815260200191505060405180910390f35b34801561069457600080fd5b506106d7600480360360208110156106ab57600080fd5b81019080803573ffffffffffffffffffffffffffffffffffffffff169060200190929190505050610ce5565b005b3480156106e557600080fd5b50610753600480360360608110156106fc57600080fd5b810190808035906020019092919080604001906002806020026040519081016040528092919082600260200280828437600081840152601f19601f8201169050808301925050505050509192919290505050610ed7565b005b60076020528160005260406000206020528060005260406000206000915091509054906101000a900460ff1681565b61078c610ff6565b73ffffffffffffffffffffffffffffffffffffffff166107aa610c67565b73ffffffffffffffffffffffffffffffffffffffff1614610833576040517f08c379a00000000000000000000000000000000000000000000000000000000081526004018080602001828103825260208152602001807f4f776e61626c653a2063616c6c6572206973206e6f7420746865206f776e657281525060200191505060405180910390fd5b81600260006101000a81548173ffffffffffffffffffffffffffffffffffffffff021916908373ffffffffffffffffffffffffffffffffffffffff16021790555080600660006101000a81548173ffffffffffffffffffffffffffffffffffffffff021916908373ffffffffffffffffffffffffffffffffffffffff1602179055505050565b600063150b7a0260e01b9050949350505050565b6060600860008373ffffffffffffffffffffffffffffffffffffffff1673ffffffffffffffffffffffffffffffffffffffff16815260200190815260200160002080548060200260200160405190810160405280929190818152602001828054801561095857602002820191906000526020600020905b815481526020019060010190808311610944575b50505050509050919050565b61096c610ff6565b73ffffffffffffffffffffffffffffffffffffffff1661098a610c67565b73ffffffffffffffffffffffffffffffffffffffff1614610a13576040517f08c379a00000000000000000000000000000000000000000000000000000000081526004018080602001828103825260208152602001807f4f776e61626c653a2063616c6c6572206973206e6f7420746865206f776e657281525060200191505060405180910390fd5b610a1c81610ffe565b50565b6000600160009054906101000a900473ffffffffffffffffffffffffffffffffffffffff1673ffffffffffffffffffffffffffffffffffffffff16610a62610ff6565b73ffffffffffffffffffffffffffffffffffffffff1614905090565b600660009054906101000a900473ffffffffffffffffffffffffffffffffffffffff1681565b600260009054906101000a900473ffffffffffffffffffffffffffffffffffffffff1681565b6000600160009054906101000a900473ffffffffffffffffffffffffffffffffffffffff16905090565b610afc610ff6565b73ffffffffffffffffffffffffffffffffffffffff16610b1a610c67565b73ffffffffffffffffffffffffffffffffffffffff1614610ba3576040517f08c379a00000000000000000000000000000000000000000000000000000000081526004018080602001828103825260208152602001807f4f776e61626c653a2063616c6c6572206973206e6f7420746865206f776e657281525060200191505060405180910390fd5b600073ffffffffffffffffffffffffffffffffffffffff1660008054906101000a900473ffffffffffffffffffffffffffffffffffffffff1673ffffffffffffffffffffffffffffffffffffffff167f8be0079c531659141344cd1fd0a4f28419497f9722a3daafe3b4186f6b6457e060405160405180910390a360008060006101000a81548173ffffffffffffffffffffffffffffffffffffffff021916908373ffffffffffffffffffffffffffffffffffffffff160217905550565b60035481565b60008060009054906101000a900473ffffffffffffffffffffffffffffffffffffffff16905090565b60086020528160005260406000208181548110610ca957fe5b90600052602060002001600091509150505481565b60055481565b60048181548110610cd157fe5b906000526020600020016000915090505481565b610ced610ff6565b73ffffffffffffffffffffffffffffffffffffffff16610d0b610c67565b73ffffffffffffffffffffffffffffffffffffffff1614610d94576040517f08c379a00000000000000000000000000000000000000000000000000000000081526004018080602001828103825260208152602001807f4f776e61626c653a2063616c6c6572206973206e6f7420746865206f776e657281525060200191505060405180910390fd5b600073ffffffffffffffffffffffffffffffffffffffff168173ffffffffffffffffffffffffffffffffffffffff161415610e1a576040517f08c379a00000000000000000000000000000000000000000000000000000000081526004018080602001828103825260268152602001806111246026913960400191505060405180910390fd5b8073ffffffffffffffffffffffffffffffffffffffff1660008054906101000a900473ffffffffffffffffffffffffffffffffffffffff1673ffffffffffffffffffffffffffffffffffffffff167f8be0079c531659141344cd1fd0a4f28419497f9722a3daafe3b4186f6b6457e060405160405180910390a3806000806101000a81548173ffffffffffffffffffffffffffffffffffffffff021916908373ffffffffffffffffffffffffffffffffffffffff16021790555050565b610edf610ff6565b73ffffffffffffffffffffffffffffffffffffffff16610efd610c67565b73ffffffffffffffffffffffffffffffffffffffff1614610f86576040517f08c379a00000000000000000000000000000000000000000000000000000000081526004018080602001828103825260208152602001807f4f776e61626c653a2063616c6c6572206973206e6f7420746865206f776e657281525060200191505060405180910390fd5b60008214610f9657816003819055505b80600060028110610fa357fe5b60200201516004600081548110610fb657fe5b906000526020600020018190555080600160028110610fd157fe5b60200201516004600181548110610fe457fe5b90600052602060002001819055505050565b600033905090565b600073ffffffffffffffffffffffffffffffffffffffff168173ffffffffffffffffffffffffffffffffffffffff161415611084576040517f08c379a000000000000000000000000000000000000000000000000000000000815260040180806020018281038252602d81526020018061114a602d913960400191505060405180910390fd5b8073ffffffffffffffffffffffffffffffffffffffff16600073ffffffffffffffffffffffffffffffffffffffff167f74da04524d50c64947f5dd5381ef1a4dca5cba8ed1d816243f9e48aa0b5617ed60405160405180910390a380600160006101000a81548173ffffffffffffffffffffffffffffffffffffffff021916908373ffffffffffffffffffffffffffffffffffffffff1602179055505056fe4f776e61626c653a206e6577206f776e657220697320746865207a65726f20616464726573736f70657261746f723a207a65726f206164647265737320676976656e20666f72206e6577206f70657261746f72a26469706673582212205d04f01812c83bdbbb14a5399f13e72f3349513bb3b0436b8a36bb1db322cbb964736f6c634300060c0033",
  "immutableReferences": {},
  "source": "pragma solidity ^0.6.2;\n\nimport \"../interfaces/IAgERC721.sol\";\nimport \"../owner/Operator.sol\";\nimport \"@openzeppelin/contracts/math/SafeMath.sol\";\n\ncontract BaseAuction is Operator{\n    using SafeMath for uint256;\n    IAgERC721 public artGee;\n    uint256 public feePercent = 100; //10%\n    uint256[] public artPercent = [200,100]; //first 20%; other time 10%\n    uint256 public basePercent = 1000;\n    address public platform;\n    mapping(address => mapping(uint256 => bool)) public isNotFirstAuction;\n    //my bids \n    mapping(address => uint256[]) public myBidInfos;\n    //my => auction id => index\n    mapping(address => mapping(uint256 => uint256)) myBidInfoIndex;\n\n    function getMyArtList(address _owner) view public returns(uint256[] memory){\n        return myBidInfos[_owner];\n    }\n\n    function setArtgee(IAgERC721 _artGee,address _platform) public onlyOwner(){\n        artGee = _artGee;\n        platform = _platform;\n    }\n    function setArtPercent(uint256 _feePercent,uint256[2] memory _artPercents) public onlyOwner(){\n        if(_feePercent!=0){\n            feePercent = _feePercent;\n        }\n        artPercent[0] = _artPercents[0];\n        artPercent[1] = _artPercents[1];\n    }\n\n    function _addMyAuction(address _owner,uint256 _auctionId) internal{\n        myBidInfoIndex[_owner][_auctionId] = myBidInfos[_owner].length;\n        myBidInfos[_owner].push(_auctionId);\n    }\n\n    function _removeMyAuction(address _owner, uint256 _auctionId) internal{\n        uint256 lastIndex = myBidInfos[_owner].length.sub(1);\n        uint256 currentIndex = myBidInfoIndex[_owner][_auctionId];\n        if(lastIndex != currentIndex){\n            uint256 lastAuctionId = myBidInfos[_owner][lastIndex];\n            myBidInfos[_owner][currentIndex] = lastAuctionId;\n            myBidInfoIndex[_owner][lastAuctionId] = currentIndex;\n        }\n        myBidInfos[_owner].pop();\n    }\n\n    function transferMain(address _address, uint256 _value) internal{\n        (bool res, ) = address(uint160(_address)).call{value:_value}(\"\");\n        require(res,\"TRANSFER ETH ERROR\");\n    }\n\n    /**\n     * @dev See {IERC721Receiver-onERC721Received}.\n     *\n     * Always returns `IERC721Receiver.onERC721Received.selector`.\n     */\n    function onERC721Received(address, address, uint256, bytes memory) public pure returns (bytes4) {\n        return this.onERC721Received.selector;\n    }\n\n    receive () external payable {}\n}",
  "sourcePath": "/Users/wangban/Downloads/money/coin/other/artgee/ArtGee-Contract/contracts/base/BaseAuction.sol",
  "compiler": {
    "name": "solc",
    "version": "0.6.12+commit.27d51765.Emscripten.clang"
  },
  "schemaVersion": "3.3.2",
  "updatedAt": "2021-06-06T15:52:44.014Z",
  "devdoc": {
    "kind": "dev",
    "methods": {
      "onERC721Received(address,address,uint256,bytes)": {
        "details": "See {IERC721Receiver-onERC721Received}. Always returns `IERC721Receiver.onERC721Received.selector`."
      },
      "owner()": {
        "details": "Returns the address of the current owner."
      },
      "renounceOwnership()": {
        "details": "Leaves the contract without owner. It will not be possible to call `onlyOwner` functions anymore. Can only be called by the current owner. NOTE: Renouncing ownership will leave the contract without an owner, thereby removing any functionality that is only available to the owner."
      },
      "transferOwnership(address)": {
        "details": "Transfers ownership of the contract to a new account (`newOwner`). Can only be called by the current owner."
      }
    },
    "version": 1
  },
  "userdoc": {
    "kind": "user",
    "methods": {},
    "version": 1
  }
}