{
  "contractName": "DigitalSource",
  "abi": [
    {
      "anonymous": false,
      "inputs": [
        {
          "indexed": false,
          "internalType": "uint256",
          "name": "_artId",
          "type": "uint256"
        },
        {
          "indexed": false,
          "internalType": "address",
          "name": "_creator",
          "type": "address"
        },
        {
          "indexed": false,
          "internalType": "address[]",
          "name": "_assistants",
          "type": "address[]"
        },
        {
          "indexed": false,
          "internalType": "uint256[]",
          "name": "_benefits",
          "type": "uint256[]"
        },
        {
          "indexed": false,
          "internalType": "uint256",
          "name": "_totalEdition",
          "type": "uint256"
        },
        {
          "indexed": false,
          "internalType": "string",
          "name": "_uri",
          "type": "string"
        }
      ],
      "name": "CreateDigitalArt",
      "type": "event"
    },
    {
      "anonymous": false,
      "inputs": [
        {
          "indexed": true,
          "internalType": "address",
          "name": "previousOperator",
          "type": "address"
        },
        {
          "indexed": true,
          "internalType": "address",
          "name": "newOperator",
          "type": "address"
        }
      ],
      "name": "OperatorTransferred",
      "type": "event"
    },
    {
      "anonymous": false,
      "inputs": [
        {
          "indexed": true,
          "internalType": "address",
          "name": "previousOwner",
          "type": "address"
        },
        {
          "indexed": true,
          "internalType": "address",
          "name": "newOwner",
          "type": "address"
        }
      ],
      "name": "OwnershipTransferred",
      "type": "event"
    },
    {
      "inputs": [
        {
          "internalType": "uint256",
          "name": "",
          "type": "uint256"
        }
      ],
      "name": "artIds",
      "outputs": [
        {
          "internalType": "uint256",
          "name": "",
          "type": "uint256"
        }
      ],
      "stateMutability": "view",
      "type": "function",
      "constant": true
    },
    {
      "inputs": [],
      "name": "isOperator",
      "outputs": [
        {
          "internalType": "bool",
          "name": "",
          "type": "bool"
        }
      ],
      "stateMutability": "view",
      "type": "function",
      "constant": true
    },
    {
      "inputs": [
        {
          "internalType": "string",
          "name": "",
          "type": "string"
        }
      ],
      "name": "metadataExist",
      "outputs": [
        {
          "internalType": "bool",
          "name": "",
          "type": "bool"
        }
      ],
      "stateMutability": "view",
      "type": "function",
      "constant": true
    },
    {
      "inputs": [],
      "name": "operator",
      "outputs": [
        {
          "internalType": "address",
          "name": "",
          "type": "address"
        }
      ],
      "stateMutability": "view",
      "type": "function",
      "constant": true
    },
    {
      "inputs": [],
      "name": "owner",
      "outputs": [
        {
          "internalType": "address",
          "name": "",
          "type": "address"
        }
      ],
      "stateMutability": "view",
      "type": "function",
      "constant": true
    },
    {
      "inputs": [],
      "name": "renounceOwnership",
      "outputs": [],
      "stateMutability": "nonpayable",
      "type": "function"
    },
    {
      "inputs": [
        {
          "internalType": "address",
          "name": "newOperator_",
          "type": "address"
        }
      ],
      "name": "transferOperator",
      "outputs": [],
      "stateMutability": "nonpayable",
      "type": "function"
    },
    {
      "inputs": [
        {
          "internalType": "address",
          "name": "newOwner",
          "type": "address"
        }
      ],
      "name": "transferOwnership",
      "outputs": [],
      "stateMutability": "nonpayable",
      "type": "function"
    },
    {
      "inputs": [],
      "name": "getArtIds",
      "outputs": [
        {
          "internalType": "uint256[]",
          "name": "",
          "type": "uint256[]"
        }
      ],
      "stateMutability": "view",
      "type": "function",
      "constant": true
    },
    {
      "inputs": [
        {
          "internalType": "address",
          "name": "_creator",
          "type": "address"
        },
        {
          "internalType": "address[]",
          "name": "_assistants",
          "type": "address[]"
        },
        {
          "internalType": "uint256[]",
          "name": "_benefits",
          "type": "uint256[]"
        },
        {
          "internalType": "uint256",
          "name": "_totalEdition",
          "type": "uint256"
        },
        {
          "internalType": "string",
          "name": "_uri",
          "type": "string"
        }
      ],
      "name": "createDigitalArt",
      "outputs": [
        {
          "internalType": "uint256",
          "name": "",
          "type": "uint256"
        }
      ],
      "stateMutability": "nonpayable",
      "type": "function"
    },
    {
      "inputs": [
        {
          "internalType": "uint256",
          "name": "_artId",
          "type": "uint256"
        },
        {
          "internalType": "uint256",
          "name": "_count",
          "type": "uint256"
        }
      ],
      "name": "increaseDigitalArtEdition",
      "outputs": [],
      "stateMutability": "nonpayable",
      "type": "function"
    },
    {
      "inputs": [
        {
          "internalType": "uint256",
          "name": "_artId",
          "type": "uint256"
        }
      ],
      "name": "getDigitalCreator",
      "outputs": [
        {
          "internalType": "address[]",
          "name": "creators",
          "type": "address[]"
        },
        {
          "internalType": "uint256[]",
          "name": "benefits",
          "type": "uint256[]"
        }
      ],
      "stateMutability": "view",
      "type": "function",
      "constant": true
    },
    {
      "inputs": [
        {
          "internalType": "uint256",
          "name": "_artId",
          "type": "uint256"
        }
      ],
      "name": "getDigitalArt",
      "outputs": [
        {
          "internalType": "uint256",
          "name": "id",
          "type": "uint256"
        },
        {
          "internalType": "uint256",
          "name": "totalEdition",
          "type": "uint256"
        },
        {
          "internalType": "uint256",
          "name": "currentEdition",
          "type": "uint256"
        },
        {
          "internalType": "address",
          "name": "creator",
          "type": "address"
        },
        {
          "internalType": "address[]",
          "name": "assistants",
          "type": "address[]"
        },
        {
          "internalType": "uint256[]",
          "name": "benefits",
          "type": "uint256[]"
        },
        {
          "internalType": "string",
          "name": "uri",
          "type": "string"
        }
      ],
      "stateMutability": "view",
      "type": "function",
      "constant": true
    }
  ],
  "bytecode": "0x608060405234801561001057600080fd5b50600061002161018f60201b60201c565b9050806000806101000a81548173ffffffffffffffffffffffffffffffffffffffff021916908373ffffffffffffffffffffffffffffffffffffffff1602179055508073ffffffffffffffffffffffffffffffffffffffff16600073ffffffffffffffffffffffffffffffffffffffff167f8be0079c531659141344cd1fd0a4f28419497f9722a3daafe3b4186f6b6457e060405160405180910390a3506100cd61018f60201b60201c565b600160006101000a81548173ffffffffffffffffffffffffffffffffffffffff021916908373ffffffffffffffffffffffffffffffffffffffff160217905550600160009054906101000a900473ffffffffffffffffffffffffffffffffffffffff1673ffffffffffffffffffffffffffffffffffffffff16600073ffffffffffffffffffffffffffffffffffffffff167f74da04524d50c64947f5dd5381ef1a4dca5cba8ed1d816243f9e48aa0b5617ed60405160405180910390a3610197565b600033905090565b611a7b806101a66000396000f3fe608060405234801561001057600080fd5b50600436106100cf5760003560e01c80636e4ce25c1161008c578063b727985a11610066578063b727985a14610637578063bd9a5d1b14610679578063f2fde38b1461074a578063fc2cc2ef1461078e576100cf565b80636e4ce25c14610490578063715018a6146105f95780638da5cb5b14610603576100cf565b80631b34e194146100d457806329605e77146102f557806331bbb97c146103395780634456eda21461040457806356b28aae14610424578063570ca7351461045c575b600080fd5b6102df600480360360a08110156100ea57600080fd5b81019080803573ffffffffffffffffffffffffffffffffffffffff1690602001909291908035906020019064010000000081111561012757600080fd5b82018360208201111561013957600080fd5b8035906020019184602083028401116401000000008311171561015b57600080fd5b919080806020026020016040519081016040528093929190818152602001838360200280828437600081840152601f19601f820116905080830192505050505050509192919290803590602001906401000000008111156101bb57600080fd5b8201836020820111156101cd57600080fd5b803590602001918460208302840111640100000000831117156101ef57600080fd5b919080806020026020016040519081016040528093929190818152602001838360200280828437600081840152601f19601f820116905080830192505050505050509192919290803590602001909291908035906020019064010000000081111561025957600080fd5b82018360208201111561026b57600080fd5b8035906020019184600183028401116401000000008311171561028d57600080fd5b91908080601f016020809104026020016040519081016040528093929190818152602001838380828437600081840152601f19601f8201169050808301925050505050505091929192905050506107ed565b6040518082815260200191505060405180910390f35b6103376004803603602081101561030b57600080fd5b81019080803573ffffffffffffffffffffffffffffffffffffffff169060200190929190505050610c63565b005b6103656004803603602081101561034f57600080fd5b8101908080359060200190929190505050610d1e565b604051808060200180602001838103835285818151815260200191508051906020019060200280838360005b838110156103ac578082015181840152602081019050610391565b50505050905001838103825284818151815260200191508051906020019060200280838360005b838110156103ee5780820151818401526020810190506103d3565b5050505090500194505050505060405180910390f35b61040c610ea2565b60405180821515815260200191505060405180910390f35b61045a6004803603604081101561043a57600080fd5b810190808035906020019092919080359060200190929190505050610f01565b005b610464610fd2565b604051808273ffffffffffffffffffffffffffffffffffffffff16815260200191505060405180910390f35b6104bc600480360360208110156104a657600080fd5b8101908080359060200190929190505050610ffc565b604051808881526020018781526020018681526020018573ffffffffffffffffffffffffffffffffffffffff168152602001806020018060200180602001848103845287818151815260200191508051906020019060200280838360005b8381101561053557808201518184015260208101905061051a565b50505050905001848103835286818151815260200191508051906020019060200280838360005b8381101561057757808201518184015260208101905061055c565b50505050905001848103825285818151815260200191508051906020019080838360005b838110156105b657808201518184015260208101905061059b565b50505050905090810190601f1680156105e35780820380516001836020036101000a031916815260200191505b509a505050505050505050505060405180910390f35b610601611268565b005b61060b6113d5565b604051808273ffffffffffffffffffffffffffffffffffffffff16815260200191505060405180910390f35b6106636004803603602081101561064d57600080fd5b81019080803590602001909291905050506113fe565b6040518082815260200191505060405180910390f35b6107326004803603602081101561068f57600080fd5b81019080803590602001906401000000008111156106ac57600080fd5b8201836020820111156106be57600080fd5b803590602001918460018302840111640100000000831117156106e057600080fd5b91908080601f016020809104026020016040519081016040528093929190818152602001838380828437600081840152601f19601f82011690508083019250505050505050919291929050505061141f565b60405180821515815260200191505060405180910390f35b61078c6004803603602081101561076057600080fd5b81019080803573ffffffffffffffffffffffffffffffffffffffff169060200190929190505050611455565b005b610796611647565b6040518080602001828103825283818151815260200191508051906020019060200280838360005b838110156107d95780820151818401526020810190506107be565b505050509050019250505060405180910390f35b60003373ffffffffffffffffffffffffffffffffffffffff16600160009054906101000a900473ffffffffffffffffffffffffffffffffffffffff1673ffffffffffffffffffffffffffffffffffffffff1614610895576040517f08c379a0000000000000000000000000000000000000000000000000000000008152600401808060200182810382526024815260200180611a226024913960400191505060405180910390fd5b60006004805490506127100190506003836040518082805190602001908083835b602083106108d957805182526020820191506020810190506020830392506108b6565b6001836020036101000a038019825116818451168082178552505050505050905001915050908152602001604051809103902060009054906101000a900460ff161561098d576040517f08c379a000000000000000000000000000000000000000000000000000000000815260040180806020018281038252600f8152602001807f4d6574616461746120657869737421000000000000000000000000000000000081525060200191505060405180910390fd5b60016003846040518082805190602001908083835b602083106109c557805182526020820191506020810190506020830392506109a2565b6001836020036101000a038019825116818451168082178552505050505050905001915050908152602001604051809103902060006101000a81548160ff0219169083151502179055506000600260008381526020019081526020016000209050878160030160006101000a81548173ffffffffffffffffffffffffffffffffffffffff021916908373ffffffffffffffffffffffffffffffffffffffff16021790555081816000018190555086816004019080519060200190610a8a9291906117cc565b5085816005019080519060200190610aa3929190611856565b5083816006019080519060200190610abc9291906118a3565b508481600101819055506000816002018190555060048290806001815401808255809150506001900390600052602060002001600090919091909150557fca661f7106d32f18a4682e0601501a3b009c1ef04e4e0359d1161c1a9de1c040828989898989604051808781526020018673ffffffffffffffffffffffffffffffffffffffff168152602001806020018060200185815260200180602001848103845288818151815260200191508051906020019060200280838360005b83811015610b93578082015181840152602081019050610b78565b50505050905001848103835287818151815260200191508051906020019060200280838360005b83811015610bd5578082015181840152602081019050610bba565b50505050905001848103825285818151815260200191508051906020019080838360005b83811015610c14578082015181840152602081019050610bf9565b50505050905090810190601f168015610c415780820380516001836020036101000a031916815260200191505b50995050505050505050505060405180910390a1819250505095945050505050565b610c6b61169f565b73ffffffffffffffffffffffffffffffffffffffff16610c896113d5565b73ffffffffffffffffffffffffffffffffffffffff1614610d12576040517f08c379a00000000000000000000000000000000000000000000000000000000081526004018080602001828103825260208152602001807f4f776e61626c653a2063616c6c6572206973206e6f7420746865206f776e657281525060200191505060405180910390fd5b610d1b816116a7565b50565b60608060006002600085815260200190815260200160002090508060030160009054906101000a900473ffffffffffffffffffffffffffffffffffffffff1683600081518110610d6a57fe5b602002602001019073ffffffffffffffffffffffffffffffffffffffff16908173ffffffffffffffffffffffffffffffffffffffff168152505060005b8160040180549050811015610e4657816004018181548110610dc557fe5b9060005260206000200160009054906101000a900473ffffffffffffffffffffffffffffffffffffffff16846001830181518110610dff57fe5b602002602001019073ffffffffffffffffffffffffffffffffffffffff16908173ffffffffffffffffffffffffffffffffffffffff16815250508080600101915050610da7565b5080600501805480602002602001604051908101604052809291908181526020018280548015610e9557602002820191906000526020600020905b815481526020019060010190808311610e81575b5050505050915050915091565b6000600160009054906101000a900473ffffffffffffffffffffffffffffffffffffffff1673ffffffffffffffffffffffffffffffffffffffff16610ee561169f565b73ffffffffffffffffffffffffffffffffffffffff1614905090565b3373ffffffffffffffffffffffffffffffffffffffff16600160009054906101000a900473ffffffffffffffffffffffffffffffffffffffff1673ffffffffffffffffffffffffffffffffffffffff1614610fa7576040517f08c379a0000000000000000000000000000000000000000000000000000000008152600401808060200182810382526024815260200180611a226024913960400191505060405180910390fd5b6000600260008481526020019081526020016000209050818160020154018160020181905550505050565b6000600160009054906101000a900473ffffffffffffffffffffffffffffffffffffffff16905090565b600080600080606080606061100f611923565b600260008a81526020019081526020016000206040518060e00160405290816000820154815260200160018201548152602001600282015481526020016003820160009054906101000a900473ffffffffffffffffffffffffffffffffffffffff1673ffffffffffffffffffffffffffffffffffffffff1673ffffffffffffffffffffffffffffffffffffffff1681526020016004820180548060200260200160405190810160405280929190818152602001828054801561112657602002820191906000526020600020905b8160009054906101000a900473ffffffffffffffffffffffffffffffffffffffff1673ffffffffffffffffffffffffffffffffffffffff16815260200190600101908083116110dc575b505050505081526020016005820180548060200260200160405190810160405280929190818152602001828054801561117e57602002820191906000526020600020905b81548152602001906001019080831161116a575b50505050508152602001600682018054600181600116156101000203166002900480601f0160208091040260200160405190810160405280929190818152602001828054600181600116156101000203166002900480156112205780601f106111f557610100808354040283529160200191611220565b820191906000526020600020905b81548152906001019060200180831161120357829003601f168201915b5050505050815250509050806000015181602001518260400151836060015184608001518560a001518660c00151975097509750975097509750975050919395979092949650565b61127061169f565b73ffffffffffffffffffffffffffffffffffffffff1661128e6113d5565b73ffffffffffffffffffffffffffffffffffffffff1614611317576040517f08c379a00000000000000000000000000000000000000000000000000000000081526004018080602001828103825260208152602001807f4f776e61626c653a2063616c6c6572206973206e6f7420746865206f776e657281525060200191505060405180910390fd5b600073ffffffffffffffffffffffffffffffffffffffff1660008054906101000a900473ffffffffffffffffffffffffffffffffffffffff1673ffffffffffffffffffffffffffffffffffffffff167f8be0079c531659141344cd1fd0a4f28419497f9722a3daafe3b4186f6b6457e060405160405180910390a360008060006101000a81548173ffffffffffffffffffffffffffffffffffffffff021916908373ffffffffffffffffffffffffffffffffffffffff160217905550565b60008060009054906101000a900473ffffffffffffffffffffffffffffffffffffffff16905090565b6004818154811061140b57fe5b906000526020600020016000915090505481565b6003818051602081018201805184825260208301602085012081835280955050505050506000915054906101000a900460ff1681565b61145d61169f565b73ffffffffffffffffffffffffffffffffffffffff1661147b6113d5565b73ffffffffffffffffffffffffffffffffffffffff1614611504576040517f08c379a00000000000000000000000000000000000000000000000000000000081526004018080602001828103825260208152602001807f4f776e61626c653a2063616c6c6572206973206e6f7420746865206f776e657281525060200191505060405180910390fd5b600073ffffffffffffffffffffffffffffffffffffffff168173ffffffffffffffffffffffffffffffffffffffff16141561158a576040517f08c379a00000000000000000000000000000000000000000000000000000000081526004018080602001828103825260268152602001806119cf6026913960400191505060405180910390fd5b8073ffffffffffffffffffffffffffffffffffffffff1660008054906101000a900473ffffffffffffffffffffffffffffffffffffffff1673ffffffffffffffffffffffffffffffffffffffff167f8be0079c531659141344cd1fd0a4f28419497f9722a3daafe3b4186f6b6457e060405160405180910390a3806000806101000a81548173ffffffffffffffffffffffffffffffffffffffff021916908373ffffffffffffffffffffffffffffffffffffffff16021790555050565b6060600480548060200260200160405190810160405280929190818152602001828054801561169557602002820191906000526020600020905b815481526020019060010190808311611681575b5050505050905090565b600033905090565b600073ffffffffffffffffffffffffffffffffffffffff168173ffffffffffffffffffffffffffffffffffffffff16141561172d576040517f08c379a000000000000000000000000000000000000000000000000000000000815260040180806020018281038252602d8152602001806119f5602d913960400191505060405180910390fd5b8073ffffffffffffffffffffffffffffffffffffffff16600073ffffffffffffffffffffffffffffffffffffffff167f74da04524d50c64947f5dd5381ef1a4dca5cba8ed1d816243f9e48aa0b5617ed60405160405180910390a380600160006101000a81548173ffffffffffffffffffffffffffffffffffffffff021916908373ffffffffffffffffffffffffffffffffffffffff16021790555050565b828054828255906000526020600020908101928215611845579160200282015b828111156118445782518260006101000a81548173ffffffffffffffffffffffffffffffffffffffff021916908373ffffffffffffffffffffffffffffffffffffffff160217905550916020019190600101906117ec565b5b5090506118529190611976565b5090565b828054828255906000526020600020908101928215611892579160200282015b82811115611891578251825591602001919060010190611876565b5b50905061189f91906119b1565b5090565b828054600181600116156101000203166002900490600052602060002090601f016020900481019282601f106118e457805160ff1916838001178555611912565b82800160010185558215611912579182015b828111156119115782518255916020019190600101906118f6565b5b50905061191f91906119b1565b5090565b6040518060e00160405280600081526020016000815260200160008152602001600073ffffffffffffffffffffffffffffffffffffffff1681526020016060815260200160608152602001606081525090565b5b808211156119ad57600081816101000a81549073ffffffffffffffffffffffffffffffffffffffff021916905550600101611977565b5090565b5b808211156119ca5760008160009055506001016119b2565b509056fe4f776e61626c653a206e6577206f776e657220697320746865207a65726f20616464726573736f70657261746f723a207a65726f206164647265737320676976656e20666f72206e6577206f70657261746f726f70657261746f723a2063616c6c6572206973206e6f7420746865206f70657261746f72a2646970667358221220bb0e2d1005f8ef1aa6b31a49168f2d2c0854ddc5202e60d26268c4c7388adc8764736f6c634300060c0033",
  "immutableReferences": {},
  "source": "pragma solidity ^0.6.0;\n\nimport \"./owner/Operator.sol\";\n\ncontract DigitalSource is Operator{\n    event CreateDigitalArt(uint256 _artId,\n                address _creator, \n                address[] _assistants, \n                uint256[] _benefits,\n                uint256 _totalEdition, \n                string _uri);\n\n    //artid  => art work detail\n    mapping(uint256 => DigitalArt) digitalArts;\n\n    mapping (string=>bool) public metadataExist;\n\n    uint256[] public artIds;\n\n    struct DigitalArt{\n        uint256 id;\n        uint256 totalEdition;\n        uint256 currentEdition;\n        address creator;\n        address[] assistants;\n        uint256[] benefits;\n        string uri;\n    }\n\n    function getArtIds() view public returns(uint256[] memory){\n        return artIds;\n    }\n\n    function createDigitalArt(\n                address _creator, \n                address[] memory _assistants, \n                uint256[] memory _benefits,\n                uint256 _totalEdition, \n                string memory _uri) external onlyOperator() returns (uint256){\n        uint256 artId = 10000 + artIds.length;\n        require(!metadataExist[_uri],\"Metadata exist!\");\n        metadataExist[_uri] = true;\n        DigitalArt storage digitalArt = digitalArts[artId];\n        digitalArt.creator = _creator;\n        digitalArt.id = artId;\n        digitalArt.assistants = _assistants;\n        digitalArt.benefits = _benefits;\n        digitalArt.uri = _uri;\n        digitalArt.totalEdition = _totalEdition;\n        digitalArt.currentEdition = 0;\n        artIds.push(artId);\n        emit CreateDigitalArt(artId, _creator, _assistants, _benefits, _totalEdition, _uri);\n        return artId;\n    }\n\n    function increaseDigitalArtEdition(\n                uint256 _artId, \n                uint256 _count)  external onlyOperator(){\n        DigitalArt storage digitalArt = digitalArts[_artId];\n        digitalArt.currentEdition = digitalArt.currentEdition + _count;\n    }\n\n    function getDigitalCreator(uint256 _artId) view external returns(\n                address[] memory creators,\n                uint256[] memory benefits) {\n        DigitalArt storage digitalArt = digitalArts[_artId];            \n        creators[0] = digitalArt.creator;\n        for (uint256 index = 0; index < digitalArt.assistants.length; index++) {\n            creators[index+1] = digitalArt.assistants[index];\n        }\n        benefits = digitalArt.benefits;\n    }\n\n    function getDigitalArt(uint256 _artId) view external returns(\n                uint256 id,\n                uint256 totalEdition,\n                uint256 currentEdition,\n                address creator,\n                address[] memory assistants,\n                uint256[] memory benefits,\n                string memory uri\n    ){\n        DigitalArt memory digitalArt = digitalArts[_artId];    \n        return (digitalArt.id,\n                digitalArt.totalEdition,\n                digitalArt.currentEdition,\n                digitalArt.creator,\n                digitalArt.assistants,\n                digitalArt.benefits,\n                digitalArt.uri);\n    }\n}",
  "sourcePath": "/Users/wangban/Downloads/money/coin/other/artgee/ArtGee-Contract/contracts/DigitalSource.sol",
  "compiler": {
    "name": "solc",
    "version": "0.6.12+commit.27d51765.Emscripten.clang"
  },
  "schemaVersion": "3.3.2",
  "updatedAt": "2021-04-15T15:06:36.596Z",
  "networkType": "ethereum",
  "devdoc": {
    "kind": "dev",
    "methods": {
      "owner()": {
        "details": "Returns the address of the current owner."
      },
      "renounceOwnership()": {
        "details": "Leaves the contract without owner. It will not be possible to call `onlyOwner` functions anymore. Can only be called by the current owner. NOTE: Renouncing ownership will leave the contract without an owner, thereby removing any functionality that is only available to the owner."
      },
      "transferOwnership(address)": {
        "details": "Transfers ownership of the contract to a new account (`newOwner`). Can only be called by the current owner."
      }
    },
    "version": 1
  },
  "userdoc": {
    "kind": "user",
    "methods": {},
    "version": 1
  }
}