{
  "contractName": "DigitalSource",
  "abi": [
    {
      "anonymous": false,
      "inputs": [
        {
          "indexed": false,
          "internalType": "uint256",
          "name": "_artId",
          "type": "uint256"
        },
        {
          "indexed": false,
          "internalType": "address",
          "name": "_creator",
          "type": "address"
        },
        {
          "indexed": false,
          "internalType": "address[]",
          "name": "_assistants",
          "type": "address[]"
        },
        {
          "indexed": false,
          "internalType": "uint256[]",
          "name": "_benefits",
          "type": "uint256[]"
        },
        {
          "indexed": false,
          "internalType": "uint256",
          "name": "_totalEdition",
          "type": "uint256"
        },
        {
          "indexed": false,
          "internalType": "string",
          "name": "_uri",
          "type": "string"
        }
      ],
      "name": "CreateDigitalArt",
      "type": "event"
    },
    {
      "anonymous": false,
      "inputs": [
        {
          "indexed": true,
          "internalType": "address",
          "name": "previousOperator",
          "type": "address"
        },
        {
          "indexed": true,
          "internalType": "address",
          "name": "newOperator",
          "type": "address"
        }
      ],
      "name": "OperatorTransferred",
      "type": "event"
    },
    {
      "anonymous": false,
      "inputs": [
        {
          "indexed": true,
          "internalType": "address",
          "name": "previousOwner",
          "type": "address"
        },
        {
          "indexed": true,
          "internalType": "address",
          "name": "newOwner",
          "type": "address"
        }
      ],
      "name": "OwnershipTransferred",
      "type": "event"
    },
    {
      "inputs": [
        {
          "internalType": "uint256",
          "name": "",
          "type": "uint256"
        }
      ],
      "name": "artIds",
      "outputs": [
        {
          "internalType": "uint256",
          "name": "",
          "type": "uint256"
        }
      ],
      "stateMutability": "view",
      "type": "function",
      "constant": true
    },
    {
      "inputs": [],
      "name": "isOperator",
      "outputs": [
        {
          "internalType": "bool",
          "name": "",
          "type": "bool"
        }
      ],
      "stateMutability": "view",
      "type": "function",
      "constant": true
    },
    {
      "inputs": [],
      "name": "operator",
      "outputs": [
        {
          "internalType": "address",
          "name": "",
          "type": "address"
        }
      ],
      "stateMutability": "view",
      "type": "function",
      "constant": true
    },
    {
      "inputs": [],
      "name": "owner",
      "outputs": [
        {
          "internalType": "address",
          "name": "",
          "type": "address"
        }
      ],
      "stateMutability": "view",
      "type": "function",
      "constant": true
    },
    {
      "inputs": [],
      "name": "renounceOwnership",
      "outputs": [],
      "stateMutability": "nonpayable",
      "type": "function"
    },
    {
      "inputs": [
        {
          "internalType": "address",
          "name": "newOperator_",
          "type": "address"
        }
      ],
      "name": "transferOperator",
      "outputs": [],
      "stateMutability": "nonpayable",
      "type": "function"
    },
    {
      "inputs": [
        {
          "internalType": "address",
          "name": "newOwner",
          "type": "address"
        }
      ],
      "name": "transferOwnership",
      "outputs": [],
      "stateMutability": "nonpayable",
      "type": "function"
    },
    {
      "inputs": [],
      "name": "getArtIds",
      "outputs": [
        {
          "internalType": "uint256[]",
          "name": "",
          "type": "uint256[]"
        }
      ],
      "stateMutability": "view",
      "type": "function",
      "constant": true
    },
    {
      "inputs": [
        {
          "internalType": "address",
          "name": "_creator",
          "type": "address"
        },
        {
          "internalType": "address[]",
          "name": "_assistants",
          "type": "address[]"
        },
        {
          "internalType": "uint256[]",
          "name": "_benefits",
          "type": "uint256[]"
        },
        {
          "internalType": "uint256",
          "name": "_totalEdition",
          "type": "uint256"
        },
        {
          "internalType": "string",
          "name": "_uri",
          "type": "string"
        }
      ],
      "name": "createDigitalArt",
      "outputs": [
        {
          "internalType": "uint256",
          "name": "",
          "type": "uint256"
        }
      ],
      "stateMutability": "nonpayable",
      "type": "function"
    },
    {
      "inputs": [
        {
          "internalType": "uint256",
          "name": "_artId",
          "type": "uint256"
        },
        {
          "internalType": "uint256",
          "name": "_count",
          "type": "uint256"
        }
      ],
      "name": "increaseDigitalArtEdition",
      "outputs": [],
      "stateMutability": "nonpayable",
      "type": "function"
    },
    {
      "inputs": [
        {
          "internalType": "uint256",
          "name": "_artId",
          "type": "uint256"
        }
      ],
      "name": "getDigitalCreator",
      "outputs": [
        {
          "internalType": "address[]",
          "name": "creators",
          "type": "address[]"
        },
        {
          "internalType": "uint256[]",
          "name": "benefits",
          "type": "uint256[]"
        }
      ],
      "stateMutability": "view",
      "type": "function",
      "constant": true
    },
    {
      "inputs": [
        {
          "internalType": "uint256",
          "name": "_artId",
          "type": "uint256"
        }
      ],
      "name": "getDigitalArt",
      "outputs": [
        {
          "internalType": "uint256",
          "name": "id",
          "type": "uint256"
        },
        {
          "internalType": "uint256",
          "name": "totalEdition",
          "type": "uint256"
        },
        {
          "internalType": "uint256",
          "name": "currentEdition",
          "type": "uint256"
        },
        {
          "internalType": "address",
          "name": "creator",
          "type": "address"
        },
        {
          "internalType": "address[]",
          "name": "assistants",
          "type": "address[]"
        },
        {
          "internalType": "uint256[]",
          "name": "benefits",
          "type": "uint256[]"
        },
        {
          "internalType": "string",
          "name": "uri",
          "type": "string"
        }
      ],
      "stateMutability": "view",
      "type": "function",
      "constant": true
    }
  ],
  "bytecode": "0x608060405234801561001057600080fd5b50600061002161018f60201b60201c565b9050806000806101000a81548173ffffffffffffffffffffffffffffffffffffffff021916908373ffffffffffffffffffffffffffffffffffffffff1602179055508073ffffffffffffffffffffffffffffffffffffffff16600073ffffffffffffffffffffffffffffffffffffffff167f8be0079c531659141344cd1fd0a4f28419497f9722a3daafe3b4186f6b6457e060405160405180910390a3506100cd61018f60201b60201c565b600160006101000a81548173ffffffffffffffffffffffffffffffffffffffff021916908373ffffffffffffffffffffffffffffffffffffffff160217905550600160009054906101000a900473ffffffffffffffffffffffffffffffffffffffff1673ffffffffffffffffffffffffffffffffffffffff16600073ffffffffffffffffffffffffffffffffffffffff167f74da04524d50c64947f5dd5381ef1a4dca5cba8ed1d816243f9e48aa0b5617ed60405160405180910390a3610197565b600033905090565b6117dd806101a66000396000f3fe608060405234801561001057600080fd5b50600436106100b45760003560e01c80636e4ce25c116100715780636e4ce25c14610475578063715018a6146105de5780638da5cb5b146105e8578063b727985a1461061c578063f2fde38b1461065e578063fc2cc2ef146106a2576100b4565b80631b34e194146100b957806329605e77146102da57806331bbb97c1461031e5780634456eda2146103e957806356b28aae14610409578063570ca73514610441575b600080fd5b6102c4600480360360a08110156100cf57600080fd5b81019080803573ffffffffffffffffffffffffffffffffffffffff1690602001909291908035906020019064010000000081111561010c57600080fd5b82018360208201111561011e57600080fd5b8035906020019184602083028401116401000000008311171561014057600080fd5b919080806020026020016040519081016040528093929190818152602001838360200280828437600081840152601f19601f820116905080830192505050505050509192919290803590602001906401000000008111156101a057600080fd5b8201836020820111156101b257600080fd5b803590602001918460208302840111640100000000831117156101d457600080fd5b919080806020026020016040519081016040528093929190818152602001838360200280828437600081840152601f19601f820116905080830192505050505050509192919290803590602001909291908035906020019064010000000081111561023e57600080fd5b82018360208201111561025057600080fd5b8035906020019184600183028401116401000000008311171561027257600080fd5b91908080601f016020809104026020016040519081016040528093929190818152602001838380828437600081840152601f19601f820116905080830192505050505050509192919290505050610701565b6040518082815260200191505060405180910390f35b61031c600480360360208110156102f057600080fd5b81019080803573ffffffffffffffffffffffffffffffffffffffff1690602001909291905050506109d7565b005b61034a6004803603602081101561033457600080fd5b8101908080359060200190929190505050610a92565b604051808060200180602001838103835285818151815260200191508051906020019060200280838360005b83811015610391578082015181840152602081019050610376565b50505050905001838103825284818151815260200191508051906020019060200280838360005b838110156103d35780820151818401526020810190506103b8565b5050505090500194505050505060405180910390f35b6103f1610c16565b60405180821515815260200191505060405180910390f35b61043f6004803603604081101561041f57600080fd5b810190808035906020019092919080359060200190929190505050610c75565b005b610449610d46565b604051808273ffffffffffffffffffffffffffffffffffffffff16815260200191505060405180910390f35b6104a16004803603602081101561048b57600080fd5b8101908080359060200190929190505050610d70565b604051808881526020018781526020018681526020018573ffffffffffffffffffffffffffffffffffffffff168152602001806020018060200180602001848103845287818151815260200191508051906020019060200280838360005b8381101561051a5780820151818401526020810190506104ff565b50505050905001848103835286818151815260200191508051906020019060200280838360005b8381101561055c578082015181840152602081019050610541565b50505050905001848103825285818151815260200191508051906020019080838360005b8381101561059b578082015181840152602081019050610580565b50505050905090810190601f1680156105c85780820380516001836020036101000a031916815260200191505b509a505050505050505050505060405180910390f35b6105e6610fdc565b005b6105f0611149565b604051808273ffffffffffffffffffffffffffffffffffffffff16815260200191505060405180910390f35b6106486004803603602081101561063257600080fd5b8101908080359060200190929190505050611172565b6040518082815260200191505060405180910390f35b6106a06004803603602081101561067457600080fd5b81019080803573ffffffffffffffffffffffffffffffffffffffff169060200190929190505050611193565b005b6106aa611385565b6040518080602001828103825283818151815260200191508051906020019060200280838360005b838110156106ed5780820151818401526020810190506106d2565b505050509050019250505060405180910390f35b60003373ffffffffffffffffffffffffffffffffffffffff16600160009054906101000a900473ffffffffffffffffffffffffffffffffffffffff1673ffffffffffffffffffffffffffffffffffffffff16146107a9576040517f08c379a00000000000000000000000000000000000000000000000000000000081526004018080602001828103825260248152602001806117846024913960400191505060405180910390fd5b6107b360036113dd565b60006107bf60036113f3565b90506000600260008381526020019081526020016000209050878160030160006101000a81548173ffffffffffffffffffffffffffffffffffffffff021916908373ffffffffffffffffffffffffffffffffffffffff1602179055508681600401908051906020019061083392919061152e565b508581600501908051906020019061084c9291906115b8565b5083816006019080519060200190610865929190611605565b50600081600201819055507fca661f7106d32f18a4682e0601501a3b009c1ef04e4e0359d1161c1a9de1c040828989898989604051808781526020018673ffffffffffffffffffffffffffffffffffffffff168152602001806020018060200185815260200180602001848103845288818151815260200191508051906020019060200280838360005b8381101561090a5780820151818401526020810190506108ef565b50505050905001848103835287818151815260200191508051906020019060200280838360005b8381101561094c578082015181840152602081019050610931565b50505050905001848103825285818151815260200191508051906020019080838360005b8381101561098b578082015181840152602081019050610970565b50505050905090810190601f1680156109b85780820380516001836020036101000a031916815260200191505b50995050505050505050505060405180910390a1505095945050505050565b6109df611401565b73ffffffffffffffffffffffffffffffffffffffff166109fd611149565b73ffffffffffffffffffffffffffffffffffffffff1614610a86576040517f08c379a00000000000000000000000000000000000000000000000000000000081526004018080602001828103825260208152602001807f4f776e61626c653a2063616c6c6572206973206e6f7420746865206f776e657281525060200191505060405180910390fd5b610a8f81611409565b50565b60608060006002600085815260200190815260200160002090508060030160009054906101000a900473ffffffffffffffffffffffffffffffffffffffff1683600081518110610ade57fe5b602002602001019073ffffffffffffffffffffffffffffffffffffffff16908173ffffffffffffffffffffffffffffffffffffffff168152505060005b8160040180549050811015610bba57816004018181548110610b3957fe5b9060005260206000200160009054906101000a900473ffffffffffffffffffffffffffffffffffffffff16846001830181518110610b7357fe5b602002602001019073ffffffffffffffffffffffffffffffffffffffff16908173ffffffffffffffffffffffffffffffffffffffff16815250508080600101915050610b1b565b5080600501805480602002602001604051908101604052809291908181526020018280548015610c0957602002820191906000526020600020905b815481526020019060010190808311610bf5575b5050505050915050915091565b6000600160009054906101000a900473ffffffffffffffffffffffffffffffffffffffff1673ffffffffffffffffffffffffffffffffffffffff16610c59611401565b73ffffffffffffffffffffffffffffffffffffffff1614905090565b3373ffffffffffffffffffffffffffffffffffffffff16600160009054906101000a900473ffffffffffffffffffffffffffffffffffffffff1673ffffffffffffffffffffffffffffffffffffffff1614610d1b576040517f08c379a00000000000000000000000000000000000000000000000000000000081526004018080602001828103825260248152602001806117846024913960400191505060405180910390fd5b6000600260008481526020019081526020016000209050818160020154018160020181905550505050565b6000600160009054906101000a900473ffffffffffffffffffffffffffffffffffffffff16905090565b6000806000806060806060610d83611685565b600260008a81526020019081526020016000206040518060e00160405290816000820154815260200160018201548152602001600282015481526020016003820160009054906101000a900473ffffffffffffffffffffffffffffffffffffffff1673ffffffffffffffffffffffffffffffffffffffff1673ffffffffffffffffffffffffffffffffffffffff16815260200160048201805480602002602001604051908101604052809291908181526020018280548015610e9a57602002820191906000526020600020905b8160009054906101000a900473ffffffffffffffffffffffffffffffffffffffff1673ffffffffffffffffffffffffffffffffffffffff1681526020019060010190808311610e50575b5050505050815260200160058201805480602002602001604051908101604052809291908181526020018280548015610ef257602002820191906000526020600020905b815481526020019060010190808311610ede575b50505050508152602001600682018054600181600116156101000203166002900480601f016020809104026020016040519081016040528092919081815260200182805460018160011615610100020316600290048015610f945780601f10610f6957610100808354040283529160200191610f94565b820191906000526020600020905b815481529060010190602001808311610f7757829003601f168201915b5050505050815250509050806000015181602001518260400151836060015184608001518560a001518660c00151975097509750975097509750975050919395979092949650565b610fe4611401565b73ffffffffffffffffffffffffffffffffffffffff16611002611149565b73ffffffffffffffffffffffffffffffffffffffff161461108b576040517f08c379a00000000000000000000000000000000000000000000000000000000081526004018080602001828103825260208152602001807f4f776e61626c653a2063616c6c6572206973206e6f7420746865206f776e657281525060200191505060405180910390fd5b600073ffffffffffffffffffffffffffffffffffffffff1660008054906101000a900473ffffffffffffffffffffffffffffffffffffffff1673ffffffffffffffffffffffffffffffffffffffff167f8be0079c531659141344cd1fd0a4f28419497f9722a3daafe3b4186f6b6457e060405160405180910390a360008060006101000a81548173ffffffffffffffffffffffffffffffffffffffff021916908373ffffffffffffffffffffffffffffffffffffffff160217905550565b60008060009054906101000a900473ffffffffffffffffffffffffffffffffffffffff16905090565b6004818154811061117f57fe5b906000526020600020016000915090505481565b61119b611401565b73ffffffffffffffffffffffffffffffffffffffff166111b9611149565b73ffffffffffffffffffffffffffffffffffffffff1614611242576040517f08c379a00000000000000000000000000000000000000000000000000000000081526004018080602001828103825260208152602001807f4f776e61626c653a2063616c6c6572206973206e6f7420746865206f776e657281525060200191505060405180910390fd5b600073ffffffffffffffffffffffffffffffffffffffff168173ffffffffffffffffffffffffffffffffffffffff1614156112c8576040517f08c379a00000000000000000000000000000000000000000000000000000000081526004018080602001828103825260268152602001806117316026913960400191505060405180910390fd5b8073ffffffffffffffffffffffffffffffffffffffff1660008054906101000a900473ffffffffffffffffffffffffffffffffffffffff1673ffffffffffffffffffffffffffffffffffffffff167f8be0079c531659141344cd1fd0a4f28419497f9722a3daafe3b4186f6b6457e060405160405180910390a3806000806101000a81548173ffffffffffffffffffffffffffffffffffffffff021916908373ffffffffffffffffffffffffffffffffffffffff16021790555050565b606060048054806020026020016040519081016040528092919081815260200182805480156113d357602002820191906000526020600020905b8154815260200190600101908083116113bf575b5050505050905090565b6001816000016000828254019250508190555050565b600081600001549050919050565b600033905090565b600073ffffffffffffffffffffffffffffffffffffffff168173ffffffffffffffffffffffffffffffffffffffff16141561148f576040517f08c379a000000000000000000000000000000000000000000000000000000000815260040180806020018281038252602d815260200180611757602d913960400191505060405180910390fd5b8073ffffffffffffffffffffffffffffffffffffffff16600073ffffffffffffffffffffffffffffffffffffffff167f74da04524d50c64947f5dd5381ef1a4dca5cba8ed1d816243f9e48aa0b5617ed60405160405180910390a380600160006101000a81548173ffffffffffffffffffffffffffffffffffffffff021916908373ffffffffffffffffffffffffffffffffffffffff16021790555050565b8280548282559060005260206000209081019282156115a7579160200282015b828111156115a65782518260006101000a81548173ffffffffffffffffffffffffffffffffffffffff021916908373ffffffffffffffffffffffffffffffffffffffff1602179055509160200191906001019061154e565b5b5090506115b491906116d8565b5090565b8280548282559060005260206000209081019282156115f4579160200282015b828111156115f35782518255916020019190600101906115d8565b5b5090506116019190611713565b5090565b828054600181600116156101000203166002900490600052602060002090601f016020900481019282601f1061164657805160ff1916838001178555611674565b82800160010185558215611674579182015b82811115611673578251825591602001919060010190611658565b5b5090506116819190611713565b5090565b6040518060e00160405280600081526020016000815260200160008152602001600073ffffffffffffffffffffffffffffffffffffffff1681526020016060815260200160608152602001606081525090565b5b8082111561170f57600081816101000a81549073ffffffffffffffffffffffffffffffffffffffff0219169055506001016116d9565b5090565b5b8082111561172c576000816000905550600101611714565b509056fe4f776e61626c653a206e6577206f776e657220697320746865207a65726f20616464726573736f70657261746f723a207a65726f206164647265737320676976656e20666f72206e6577206f70657261746f726f70657261746f723a2063616c6c6572206973206e6f7420746865206f70657261746f72a26469706673582212209d7dae452dfaf6ea317e790112cf1349ff705da3ac2724679894649c0033605064736f6c634300060c0033",
  "immutableReferences": {},
  "source": "pragma solidity ^0.6.0;\n\nimport \"./owner/Operator.sol\";\nimport \"@openzeppelin/contracts/utils/Counters.sol\";\n\ncontract DigitalSource is Operator{\n    event CreateDigitalArt(uint256 _artId,\n                address _creator, \n                address[] _assistants, \n                uint256[] _benefits,\n                uint256 _totalEdition, \n                string _uri);\n\n    //artid  => art work detail\n    mapping(uint256 => DigitalArt) digitalArts;\n    using Counters for Counters.Counter;\n    Counters.Counter private _artIds;\n\n    uint256[] public artIds;\n\n    struct DigitalArt{\n        uint256 id;\n        uint256 totalEdition;\n        uint256 currentEdition;\n        address creator;\n        address[] assistants;\n        uint256[] benefits;\n        string uri;\n    }\n\n    function getArtIds() view public returns(uint256[] memory){\n        return artIds;\n    }\n\n    function createDigitalArt(\n                address _creator, \n                address[] memory _assistants, \n                uint256[] memory _benefits,\n                uint256 _totalEdition, \n                string memory _uri) external onlyOperator() returns (uint256){\n        _artIds.increment();\n        uint256 artId = _artIds.current();\n        DigitalArt storage digitalArt = digitalArts[artId];\n        digitalArt.creator = _creator;\n        digitalArt.assistants = _assistants;\n        digitalArt.benefits = _benefits;\n        digitalArt.uri = _uri;\n        digitalArt.currentEdition = 0;\n        emit CreateDigitalArt(artId, _creator, _assistants, _benefits, _totalEdition, _uri);\n    }\n\n    function increaseDigitalArtEdition(\n                uint256 _artId, \n                uint256 _count)  external onlyOperator(){\n        DigitalArt storage digitalArt = digitalArts[_artId];\n        digitalArt.currentEdition = digitalArt.currentEdition + _count;\n    }\n\n    function getDigitalCreator(uint256 _artId) view external returns(\n                address[] memory creators,\n                uint256[] memory benefits) {\n        DigitalArt storage digitalArt = digitalArts[_artId];            \n        creators[0] = digitalArt.creator;\n        for (uint256 index = 0; index < digitalArt.assistants.length; index++) {\n            creators[index+1] = digitalArt.assistants[index];\n        }\n        benefits = digitalArt.benefits;\n    }\n\n    function getDigitalArt(uint256 _artId) view external returns(\n                uint256 id,\n                uint256 totalEdition,\n                uint256 currentEdition,\n                address creator,\n                address[] memory assistants,\n                uint256[] memory benefits,\n                string memory uri\n    ){\n        DigitalArt memory digitalArt = digitalArts[_artId];    \n        return (digitalArt.id,\n                digitalArt.totalEdition,\n                digitalArt.currentEdition,\n                digitalArt.creator,\n                digitalArt.assistants,\n                digitalArt.benefits,\n                digitalArt.uri);\n    }\n}",
  "sourcePath": "/Users/wangban/Downloads/money/coin/other/artgee/ArtGee-Contract/contracts/DigitalSource.sol",
  "compiler": {
    "name": "solc",
    "version": "0.6.12+commit.27d51765.Emscripten.clang"
  },
  "schemaVersion": "3.3.2",
  "updatedAt": "2021-04-11T03:39:52.659Z",
  "networkType": "ethereum",
  "devdoc": {
    "kind": "dev",
    "methods": {
      "owner()": {
        "details": "Returns the address of the current owner."
      },
      "renounceOwnership()": {
        "details": "Leaves the contract without owner. It will not be possible to call `onlyOwner` functions anymore. Can only be called by the current owner. NOTE: Renouncing ownership will leave the contract without an owner, thereby removing any functionality that is only available to the owner."
      },
      "transferOwnership(address)": {
        "details": "Transfers ownership of the contract to a new account (`newOwner`). Can only be called by the current owner."
      }
    },
    "version": 1
  },
  "userdoc": {
    "kind": "user",
    "methods": {},
    "version": 1
  }
}