{
  "contractName": "EnglishAuction",
  "abi": [
    {
      "inputs": [
        {
          "internalType": "contract IAgERC721",
          "name": "_artGee",
          "type": "address"
        },
        {
          "internalType": "address",
          "name": "_platform",
          "type": "address"
        }
      ],
      "stateMutability": "nonpayable",
      "type": "constructor"
    },
    {
      "anonymous": false,
      "inputs": [
        {
          "indexed": true,
          "internalType": "uint256",
          "name": "_auctionId",
          "type": "uint256"
        },
        {
          "indexed": false,
          "internalType": "address",
          "name": "_token",
          "type": "address"
        },
        {
          "indexed": false,
          "internalType": "uint256",
          "name": "_tokenId",
          "type": "uint256"
        },
        {
          "indexed": false,
          "internalType": "address",
          "name": "_seller",
          "type": "address"
        },
        {
          "indexed": false,
          "internalType": "uint256",
          "name": "_openingBid",
          "type": "uint256"
        },
        {
          "indexed": false,
          "internalType": "uint256",
          "name": "_bidIncrements",
          "type": "uint256"
        },
        {
          "indexed": false,
          "internalType": "uint256",
          "name": "_startTime",
          "type": "uint256"
        },
        {
          "indexed": false,
          "internalType": "uint256",
          "name": "_expirationTime",
          "type": "uint256"
        },
        {
          "indexed": false,
          "internalType": "uint32",
          "name": "_auctionStatus",
          "type": "uint32"
        }
      ],
      "name": "Auction",
      "type": "event"
    },
    {
      "anonymous": false,
      "inputs": [
        {
          "indexed": true,
          "internalType": "uint256",
          "name": "_auctionId",
          "type": "uint256"
        },
        {
          "indexed": false,
          "internalType": "address",
          "name": "_bidder",
          "type": "address"
        },
        {
          "indexed": false,
          "internalType": "uint256",
          "name": "_bidPrice",
          "type": "uint256"
        },
        {
          "indexed": false,
          "internalType": "uint256",
          "name": "_bidCount",
          "type": "uint256"
        },
        {
          "indexed": false,
          "internalType": "uint256",
          "name": "_expirationTime",
          "type": "uint256"
        },
        {
          "indexed": false,
          "internalType": "uint32",
          "name": "_auctionStatus",
          "type": "uint32"
        }
      ],
      "name": "Bid",
      "type": "event"
    },
    {
      "anonymous": false,
      "inputs": [
        {
          "indexed": true,
          "internalType": "uint256",
          "name": "_auctionId",
          "type": "uint256"
        },
        {
          "indexed": false,
          "internalType": "address",
          "name": "_seller",
          "type": "address"
        },
        {
          "indexed": false,
          "internalType": "uint256",
          "name": "_bidPrice",
          "type": "uint256"
        },
        {
          "indexed": false,
          "internalType": "uint32",
          "name": "_auctionStatus",
          "type": "uint32"
        }
      ],
      "name": "Cancel",
      "type": "event"
    },
    {
      "anonymous": false,
      "inputs": [
        {
          "indexed": false,
          "internalType": "uint256",
          "name": "_extendTime",
          "type": "uint256"
        },
        {
          "indexed": false,
          "internalType": "uint256",
          "name": "_reverseTime",
          "type": "uint256"
        }
      ],
      "name": "LastParam",
      "type": "event"
    },
    {
      "anonymous": false,
      "inputs": [
        {
          "indexed": true,
          "internalType": "address",
          "name": "previousOperator",
          "type": "address"
        },
        {
          "indexed": true,
          "internalType": "address",
          "name": "newOperator",
          "type": "address"
        }
      ],
      "name": "OperatorTransferred",
      "type": "event"
    },
    {
      "anonymous": false,
      "inputs": [
        {
          "indexed": true,
          "internalType": "address",
          "name": "previousOwner",
          "type": "address"
        },
        {
          "indexed": true,
          "internalType": "address",
          "name": "newOwner",
          "type": "address"
        }
      ],
      "name": "OwnershipTransferred",
      "type": "event"
    },
    {
      "anonymous": false,
      "inputs": [
        {
          "indexed": true,
          "internalType": "uint256",
          "name": "_auctionId",
          "type": "uint256"
        },
        {
          "indexed": false,
          "internalType": "uint256",
          "name": "_bidPrice",
          "type": "uint256"
        },
        {
          "indexed": false,
          "internalType": "uint256",
          "name": "_openingBid",
          "type": "uint256"
        },
        {
          "indexed": false,
          "internalType": "uint256",
          "name": "_bidIncrements",
          "type": "uint256"
        },
        {
          "indexed": false,
          "internalType": "uint256",
          "name": "_startTime",
          "type": "uint256"
        },
        {
          "indexed": false,
          "internalType": "uint256",
          "name": "_expirationTime",
          "type": "uint256"
        },
        {
          "indexed": false,
          "internalType": "uint32",
          "name": "_auctionStatus",
          "type": "uint32"
        }
      ],
      "name": "ReAuction",
      "type": "event"
    },
    {
      "anonymous": false,
      "inputs": [
        {
          "indexed": true,
          "internalType": "uint256",
          "name": "_auctionId",
          "type": "uint256"
        },
        {
          "indexed": false,
          "internalType": "address",
          "name": "_bidder",
          "type": "address"
        },
        {
          "indexed": false,
          "internalType": "uint256",
          "name": "_bidPrice",
          "type": "uint256"
        },
        {
          "indexed": false,
          "internalType": "uint32",
          "name": "_auctionStatus",
          "type": "uint32"
        }
      ],
      "name": "Reverse",
      "type": "event"
    },
    {
      "anonymous": false,
      "inputs": [
        {
          "indexed": true,
          "internalType": "uint256",
          "name": "_auctionId",
          "type": "uint256"
        },
        {
          "indexed": false,
          "internalType": "address",
          "name": "_seller",
          "type": "address"
        },
        {
          "indexed": false,
          "internalType": "address",
          "name": "_bidder",
          "type": "address"
        },
        {
          "indexed": false,
          "internalType": "uint256",
          "name": "_bidPrice",
          "type": "uint256"
        },
        {
          "indexed": false,
          "internalType": "uint32",
          "name": "_auctionStatus",
          "type": "uint32"
        }
      ],
      "name": "Selling",
      "type": "event"
    },
    {
      "anonymous": false,
      "inputs": [
        {
          "indexed": true,
          "internalType": "uint256",
          "name": "_auctionId",
          "type": "uint256"
        },
        {
          "indexed": false,
          "internalType": "address",
          "name": "_seller",
          "type": "address"
        },
        {
          "indexed": false,
          "internalType": "address",
          "name": "_bidder",
          "type": "address"
        },
        {
          "indexed": false,
          "internalType": "uint256",
          "name": "_bidPrice",
          "type": "uint256"
        },
        {
          "indexed": false,
          "internalType": "uint32",
          "name": "_auctionStatus",
          "type": "uint32"
        }
      ],
      "name": "Withdraw",
      "type": "event"
    },
    {
      "inputs": [],
      "name": "artGee",
      "outputs": [
        {
          "internalType": "contract IAgERC721",
          "name": "",
          "type": "address"
        }
      ],
      "stateMutability": "view",
      "type": "function"
    },
    {
      "inputs": [
        {
          "internalType": "uint256",
          "name": "",
          "type": "uint256"
        }
      ],
      "name": "artList",
      "outputs": [
        {
          "internalType": "uint256",
          "name": "",
          "type": "uint256"
        }
      ],
      "stateMutability": "view",
      "type": "function"
    },
    {
      "inputs": [
        {
          "internalType": "uint256",
          "name": "",
          "type": "uint256"
        }
      ],
      "name": "artPercent",
      "outputs": [
        {
          "internalType": "uint256",
          "name": "",
          "type": "uint256"
        }
      ],
      "stateMutability": "view",
      "type": "function"
    },
    {
      "inputs": [],
      "name": "basePercent",
      "outputs": [
        {
          "internalType": "uint256",
          "name": "",
          "type": "uint256"
        }
      ],
      "stateMutability": "view",
      "type": "function"
    },
    {
      "inputs": [
        {
          "internalType": "uint256",
          "name": "",
          "type": "uint256"
        }
      ],
      "name": "bidInfos",
      "outputs": [
        {
          "internalType": "address",
          "name": "token",
          "type": "address"
        },
        {
          "internalType": "uint256",
          "name": "tokenId",
          "type": "uint256"
        },
        {
          "internalType": "address",
          "name": "seller",
          "type": "address"
        },
        {
          "internalType": "address",
          "name": "bidder",
          "type": "address"
        },
        {
          "internalType": "uint256",
          "name": "openingBid",
          "type": "uint256"
        },
        {
          "internalType": "uint256",
          "name": "reservePrice",
          "type": "uint256"
        },
        {
          "internalType": "uint256",
          "name": "bidIncrements",
          "type": "uint256"
        },
        {
          "internalType": "uint256",
          "name": "bidPrice",
          "type": "uint256"
        },
        {
          "internalType": "uint256",
          "name": "bidCount",
          "type": "uint256"
        },
        {
          "internalType": "uint256",
          "name": "startTime",
          "type": "uint256"
        },
        {
          "internalType": "uint32",
          "name": "auctionStatus",
          "type": "uint32"
        },
        {
          "internalType": "uint256",
          "name": "expirationTime",
          "type": "uint256"
        }
      ],
      "stateMutability": "view",
      "type": "function"
    },
    {
      "inputs": [],
      "name": "extendTime",
      "outputs": [
        {
          "internalType": "uint256",
          "name": "",
          "type": "uint256"
        }
      ],
      "stateMutability": "view",
      "type": "function"
    },
    {
      "inputs": [],
      "name": "feePercent",
      "outputs": [
        {
          "internalType": "uint256",
          "name": "",
          "type": "uint256"
        }
      ],
      "stateMutability": "view",
      "type": "function"
    },
    {
      "inputs": [],
      "name": "getArtList",
      "outputs": [
        {
          "internalType": "uint256[]",
          "name": "_artList",
          "type": "uint256[]"
        }
      ],
      "stateMutability": "view",
      "type": "function"
    },
    {
      "inputs": [
        {
          "internalType": "address",
          "name": "_owner",
          "type": "address"
        }
      ],
      "name": "getMyArtList",
      "outputs": [
        {
          "internalType": "uint256[]",
          "name": "",
          "type": "uint256[]"
        }
      ],
      "stateMutability": "view",
      "type": "function"
    },
    {
      "inputs": [
        {
          "internalType": "address",
          "name": "",
          "type": "address"
        },
        {
          "internalType": "uint256",
          "name": "",
          "type": "uint256"
        }
      ],
      "name": "isNotFirstAuction",
      "outputs": [
        {
          "internalType": "bool",
          "name": "",
          "type": "bool"
        }
      ],
      "stateMutability": "view",
      "type": "function"
    },
    {
      "inputs": [],
      "name": "isOperator",
      "outputs": [
        {
          "internalType": "bool",
          "name": "",
          "type": "bool"
        }
      ],
      "stateMutability": "view",
      "type": "function"
    },
    {
      "inputs": [
        {
          "internalType": "address",
          "name": "",
          "type": "address"
        },
        {
          "internalType": "uint256",
          "name": "",
          "type": "uint256"
        }
      ],
      "name": "myBidInfos",
      "outputs": [
        {
          "internalType": "uint256",
          "name": "",
          "type": "uint256"
        }
      ],
      "stateMutability": "view",
      "type": "function"
    },
    {
      "inputs": [
        {
          "internalType": "address",
          "name": "",
          "type": "address"
        },
        {
          "internalType": "address",
          "name": "",
          "type": "address"
        },
        {
          "internalType": "uint256",
          "name": "",
          "type": "uint256"
        },
        {
          "internalType": "bytes",
          "name": "",
          "type": "bytes"
        }
      ],
      "name": "onERC721Received",
      "outputs": [
        {
          "internalType": "bytes4",
          "name": "",
          "type": "bytes4"
        }
      ],
      "stateMutability": "pure",
      "type": "function"
    },
    {
      "inputs": [],
      "name": "operator",
      "outputs": [
        {
          "internalType": "address",
          "name": "",
          "type": "address"
        }
      ],
      "stateMutability": "view",
      "type": "function"
    },
    {
      "inputs": [],
      "name": "owner",
      "outputs": [
        {
          "internalType": "address",
          "name": "",
          "type": "address"
        }
      ],
      "stateMutability": "view",
      "type": "function"
    },
    {
      "inputs": [],
      "name": "platform",
      "outputs": [
        {
          "internalType": "address",
          "name": "",
          "type": "address"
        }
      ],
      "stateMutability": "view",
      "type": "function"
    },
    {
      "inputs": [],
      "name": "renounceOwnership",
      "outputs": [],
      "stateMutability": "nonpayable",
      "type": "function"
    },
    {
      "inputs": [],
      "name": "reverseTime",
      "outputs": [
        {
          "internalType": "uint256",
          "name": "",
          "type": "uint256"
        }
      ],
      "stateMutability": "view",
      "type": "function"
    },
    {
      "inputs": [
        {
          "internalType": "uint256",
          "name": "_feePercent",
          "type": "uint256"
        },
        {
          "internalType": "uint256[2]",
          "name": "_artPercents",
          "type": "uint256[2]"
        }
      ],
      "name": "setArtPercent",
      "outputs": [],
      "stateMutability": "nonpayable",
      "type": "function"
    },
    {
      "inputs": [
        {
          "internalType": "contract IAgERC721",
          "name": "_artGee",
          "type": "address"
        },
        {
          "internalType": "address",
          "name": "_platform",
          "type": "address"
        }
      ],
      "name": "setArtgee",
      "outputs": [],
      "stateMutability": "nonpayable",
      "type": "function"
    },
    {
      "inputs": [
        {
          "internalType": "address",
          "name": "newOperator_",
          "type": "address"
        }
      ],
      "name": "transferOperator",
      "outputs": [],
      "stateMutability": "nonpayable",
      "type": "function"
    },
    {
      "inputs": [
        {
          "internalType": "address",
          "name": "newOwner",
          "type": "address"
        }
      ],
      "name": "transferOwnership",
      "outputs": [],
      "stateMutability": "nonpayable",
      "type": "function"
    },
    {
      "stateMutability": "payable",
      "type": "receive"
    },
    {
      "inputs": [
        {
          "internalType": "uint256",
          "name": "_extendTime",
          "type": "uint256"
        },
        {
          "internalType": "uint256",
          "name": "_reverseTime",
          "type": "uint256"
        }
      ],
      "name": "setReverseTime",
      "outputs": [],
      "stateMutability": "nonpayable",
      "type": "function"
    },
    {
      "inputs": [
        {
          "internalType": "address",
          "name": "_token",
          "type": "address"
        },
        {
          "internalType": "uint256",
          "name": "_tokenId",
          "type": "uint256"
        },
        {
          "internalType": "uint256",
          "name": "_openingBid",
          "type": "uint256"
        },
        {
          "internalType": "uint256",
          "name": "_bidIncrements",
          "type": "uint256"
        },
        {
          "internalType": "uint256",
          "name": "_reservePrice",
          "type": "uint256"
        },
        {
          "internalType": "uint256",
          "name": "_startTime",
          "type": "uint256"
        },
        {
          "internalType": "uint256",
          "name": "_expirationTime",
          "type": "uint256"
        }
      ],
      "name": "auction",
      "outputs": [],
      "stateMutability": "nonpayable",
      "type": "function"
    },
    {
      "inputs": [
        {
          "internalType": "uint256",
          "name": "_auctionId",
          "type": "uint256"
        },
        {
          "internalType": "uint256",
          "name": "_openingBid",
          "type": "uint256"
        },
        {
          "internalType": "uint256",
          "name": "_bidIncrements",
          "type": "uint256"
        },
        {
          "internalType": "uint256",
          "name": "_reservePrice",
          "type": "uint256"
        },
        {
          "internalType": "uint256",
          "name": "_startTime",
          "type": "uint256"
        },
        {
          "internalType": "uint256",
          "name": "_expirationTime",
          "type": "uint256"
        }
      ],
      "name": "reAuction",
      "outputs": [],
      "stateMutability": "nonpayable",
      "type": "function"
    },
    {
      "inputs": [
        {
          "internalType": "uint256",
          "name": "_auctionId",
          "type": "uint256"
        }
      ],
      "name": "bid",
      "outputs": [],
      "stateMutability": "payable",
      "type": "function"
    },
    {
      "inputs": [
        {
          "internalType": "uint256",
          "name": "_auctionId",
          "type": "uint256"
        }
      ],
      "name": "getCurrentPrice",
      "outputs": [
        {
          "internalType": "uint256",
          "name": "_nowBidPrice",
          "type": "uint256"
        }
      ],
      "stateMutability": "view",
      "type": "function"
    },
    {
      "inputs": [
        {
          "internalType": "uint256",
          "name": "_auctionId",
          "type": "uint256"
        }
      ],
      "name": "cancel",
      "outputs": [],
      "stateMutability": "nonpayable",
      "type": "function"
    },
    {
      "inputs": [
        {
          "internalType": "uint256",
          "name": "_auctionId",
          "type": "uint256"
        }
      ],
      "name": "sellingSettlementPrice",
      "outputs": [],
      "stateMutability": "nonpayable",
      "type": "function"
    },
    {
      "inputs": [
        {
          "internalType": "uint256",
          "name": "_auctionId",
          "type": "uint256"
        }
      ],
      "name": "bidderReverse",
      "outputs": [],
      "stateMutability": "nonpayable",
      "type": "function"
    },
    {
      "inputs": [
        {
          "internalType": "uint256",
          "name": "_auctionId",
          "type": "uint256"
        }
      ],
      "name": "withdraw",
      "outputs": [],
      "stateMutability": "nonpayable",
      "type": "function"
    }
  ],
  "bytecode": "0x60806040526064600355604051806040016040528060c860ff168152602001606460ff16815250600490600262000038929190620002a9565b506103e8600555610384600d5562069780600e553480156200005957600080fd5b50604051620050fb380380620050fb833981810160405260408110156200007f57600080fd5b8101908080519060200190929190805190602001909291905050506000620000ac620002a160201b60201c565b9050806000806101000a81548173ffffffffffffffffffffffffffffffffffffffff021916908373ffffffffffffffffffffffffffffffffffffffff1602179055508073ffffffffffffffffffffffffffffffffffffffff16600073ffffffffffffffffffffffffffffffffffffffff167f8be0079c531659141344cd1fd0a4f28419497f9722a3daafe3b4186f6b6457e060405160405180910390a3506200015a620002a160201b60201c565b600160006101000a81548173ffffffffffffffffffffffffffffffffffffffff021916908373ffffffffffffffffffffffffffffffffffffffff160217905550600160009054906101000a900473ffffffffffffffffffffffffffffffffffffffff1673ffffffffffffffffffffffffffffffffffffffff16600073ffffffffffffffffffffffffffffffffffffffff167f74da04524d50c64947f5dd5381ef1a4dca5cba8ed1d816243f9e48aa0b5617ed60405160405180910390a381600260006101000a81548173ffffffffffffffffffffffffffffffffffffffff021916908373ffffffffffffffffffffffffffffffffffffffff16021790555080600660006101000a81548173ffffffffffffffffffffffffffffffffffffffff021916908373ffffffffffffffffffffffffffffffffffffffff16021790555050506200031f565b600033905090565b828054828255906000526020600020908101928215620002ed579160200282015b82811115620002ec578251829060ff16905591602001919060010190620002ca565b5b509050620002fc919062000300565b5090565b5b808211156200031b57600081600090555060010162000301565b5090565b614dcc806200032f6000396000f3fe6080604052600436106101dc5760003560e01c80637646742311610102578063c55d0f5611610095578063f2ec6fad11610064578063f2ec6fad14610b43578063f2fde38b14610b92578063f628c50514610be3578063fc83966314610c50576101e3565b8063c55d0f56146109aa578063c5ac0ded146109f9578063cb350d2614610a24578063f288f46f14610a5f576101e3565b8063a525d199116100d1578063a525d1991461085f578063abb6ae89146108ce578063b76b63ec146108f9578063b8980b6414610965576101e3565b806376467423146107795780637fd6f15c146107c85780638da5cb5b146107f35780638e4bb9a114610834576101e3565b806340e58ee51161017a5780635313a89c116101495780635313a89c146106a5578063570ca735146106e65780635b4458a014610727578063715018a614610762576101e3565b806340e58ee5146105ce5780634456eda214610609578063454a2ab3146106365780634bde38c814610664576101e3565b8063150b7a02116101b6578063150b7a021461035757806319e9e3c81461049c57806329605e77146105425780632e1a7d4d14610593576101e3565b80630773b15b146101e857806309858e4314610259578063122e986f146102e6576101e3565b366101e357005b600080fd5b3480156101f457600080fd5b506102416004803603604081101561020b57600080fd5b81019080803573ffffffffffffffffffffffffffffffffffffffff16906020019092919080359060200190929190505050610ccc565b60405180821515815260200191505060405180910390f35b34801561026557600080fd5b506102e4600480360360e081101561027c57600080fd5b81019080803573ffffffffffffffffffffffffffffffffffffffff169060200190929190803590602001909291908035906020019092919080359060200190929190803590602001909291908035906020019092919080359060200190929190505050610cfb565b005b3480156102f257600080fd5b506103556004803603604081101561030957600080fd5b81019080803573ffffffffffffffffffffffffffffffffffffffff169060200190929190803573ffffffffffffffffffffffffffffffffffffffff16906020019092919050505061106e565b005b34801561036357600080fd5b506104676004803603608081101561037a57600080fd5b81019080803573ffffffffffffffffffffffffffffffffffffffff169060200190929190803573ffffffffffffffffffffffffffffffffffffffff16906020019092919080359060200190929190803590602001906401000000008111156103e157600080fd5b8201836020820111156103f357600080fd5b8035906020019184600183028401116401000000008311171561041557600080fd5b91908080601f016020809104026020016040519081016040528093929190818152602001838380828437600081840152601f19601f8201169050808301925050505050505091929192905050506111a3565b60405180827bffffffffffffffffffffffffffffffffffffffffffffffffffffffff1916815260200191505060405180910390f35b3480156104a857600080fd5b506104eb600480360360208110156104bf57600080fd5b81019080803573ffffffffffffffffffffffffffffffffffffffff1690602001909291905050506111b7565b6040518080602001828103825283818151815260200191508051906020019060200280838360005b8381101561052e578082015181840152602081019050610513565b505050509050019250505060405180910390f35b34801561054e57600080fd5b506105916004803603602081101561056557600080fd5b81019080803573ffffffffffffffffffffffffffffffffffffffff16906020019092919050505061124e565b005b34801561059f57600080fd5b506105cc600480360360208110156105b657600080fd5b8101908080359060200190929190505050611309565b005b3480156105da57600080fd5b50610607600480360360208110156105f157600080fd5b8101908080359060200190929190505050611736565b005b34801561061557600080fd5b5061061e611caf565b60405180821515815260200191505060405180910390f35b6106626004803603602081101561064c57600080fd5b8101908080359060200190929190505050611d0e565b005b34801561067057600080fd5b50610679612409565b604051808273ffffffffffffffffffffffffffffffffffffffff16815260200191505060405180910390f35b3480156106b157600080fd5b506106ba61242f565b604051808273ffffffffffffffffffffffffffffffffffffffff16815260200191505060405180910390f35b3480156106f257600080fd5b506106fb612455565b604051808273ffffffffffffffffffffffffffffffffffffffff16815260200191505060405180910390f35b34801561073357600080fd5b506107606004803603602081101561074a57600080fd5b810190808035906020019092919050505061247f565b005b34801561076e57600080fd5b506107776128ac565b005b34801561078557600080fd5b506107b26004803603602081101561079c57600080fd5b8101908080359060200190929190505050612a19565b6040518082815260200191505060405180910390f35b3480156107d457600080fd5b506107dd612a3a565b6040518082815260200191505060405180910390f35b3480156107ff57600080fd5b50610808612a40565b604051808273ffffffffffffffffffffffffffffffffffffffff16815260200191505060405180910390f35b34801561084057600080fd5b50610849612a69565b6040518082815260200191505060405180910390f35b34801561086b57600080fd5b506108b86004803603604081101561088257600080fd5b81019080803573ffffffffffffffffffffffffffffffffffffffff16906020019092919080359060200190929190505050612a6f565b6040518082815260200191505060405180910390f35b3480156108da57600080fd5b506108e3612a9d565b6040518082815260200191505060405180910390f35b34801561090557600080fd5b5061090e612aa3565b6040518080602001828103825283818151815260200191508051906020019060200280838360005b83811015610951578082015181840152602081019050610936565b505050509050019250505060405180910390f35b34801561097157600080fd5b506109a86004803603604081101561098857600080fd5b810190808035906020019092919080359060200190929190505050612afb565b005b3480156109b657600080fd5b506109e3600480360360208110156109cd57600080fd5b8101908080359060200190929190505050612c11565b6040518082815260200191505060405180910390f35b348015610a0557600080fd5b50610a0e612e1a565b6040518082815260200191505060405180910390f35b348015610a3057600080fd5b50610a5d60048036036020811015610a4757600080fd5b8101908080359060200190929190505050612e20565b005b348015610a6b57600080fd5b50610a9860048036036020811015610a8257600080fd5b8101908080359060200190929190505050613249565b604051808d73ffffffffffffffffffffffffffffffffffffffff1681526020018c81526020018b73ffffffffffffffffffffffffffffffffffffffff1681526020018a73ffffffffffffffffffffffffffffffffffffffff1681526020018981526020018881526020018781526020018681526020018581526020018481526020018363ffffffff1681526020018281526020019c5050505050505050505050505060405180910390f35b348015610b4f57600080fd5b50610b7c60048036036020811015610b6657600080fd5b8101908080359060200190929190505050613319565b6040518082815260200191505060405180910390f35b348015610b9e57600080fd5b50610be160048036036020811015610bb557600080fd5b81019080803573ffffffffffffffffffffffffffffffffffffffff16906020019092919050505061333a565b005b348015610bef57600080fd5b50610c4e600480360360c0811015610c0657600080fd5b8101908080359060200190929190803590602001909291908035906020019092919080359060200190929190803590602001909291908035906020019092919050505061352c565b005b348015610c5c57600080fd5b50610cca60048036036060811015610c7357600080fd5b810190808035906020019092919080604001906002806020026040519081016040528092919082600260200280828437600081840152601f19601f8201169050808301925050505050509192919290505050613abe565b005b60076020528160005260406000206020528060005260406000206000915091509054906101000a900460ff1681565b428110158015610d0a57508181115b610d7c576040517f08c379a000000000000000000000000000000000000000000000000000000000815260040180806020018281038252600a8152602001807f54696d65206572726f720000000000000000000000000000000000000000000081525060200191505060405180910390fd5b84831015610df2576040517f08c379a000000000000000000000000000000000000000000000000000000000815260040180806020018281038252600b8152602001807f5072696365206572726f7200000000000000000000000000000000000000000081525060200191505060405180910390fd5b610dfc600b613bdd565b6000610e08600b613bf3565b90506000600c60008381526020019081526020016000209050888160000160006101000a81548173ffffffffffffffffffffffffffffffffffffffff021916908373ffffffffffffffffffffffffffffffffffffffff160217905550878160010181905550338160020160006101000a81548173ffffffffffffffffffffffffffffffffffffffff021916908373ffffffffffffffffffffffffffffffffffffffff1602179055508681600401819055508481600501819055508581600601819055508381600901819055508281600b0181905550610ee681613c01565b60008990508073ffffffffffffffffffffffffffffffffffffffff166342842e0e33308c6040518463ffffffff1660e01b8152600401808473ffffffffffffffffffffffffffffffffffffffff1681526020018373ffffffffffffffffffffffffffffffffffffffff1681526020018281526020019350505050600060405180830381600087803b158015610f7a57600080fd5b505af1158015610f8e573d6000803e3d6000fd5b50505050610f9c3384613c80565b600a839080600181540180825580915050600190039060005260206000200160009091909190915055827f2bdf3c6eed5e2202a7316215e5cf47a3187124f52e73786d8772a16856229df28b8b338c8c8b8b6000604051808973ffffffffffffffffffffffffffffffffffffffff1681526020018881526020018773ffffffffffffffffffffffffffffffffffffffff1681526020018681526020018581526020018481526020018381526020018281526020019850505050505050505060405180910390a250505050505050505050565b611076613d81565b73ffffffffffffffffffffffffffffffffffffffff16611094612a40565b73ffffffffffffffffffffffffffffffffffffffff161461111d576040517f08c379a00000000000000000000000000000000000000000000000000000000081526004018080602001828103825260208152602001807f4f776e61626c653a2063616c6c6572206973206e6f7420746865206f776e657281525060200191505060405180910390fd5b81600260006101000a81548173ffffffffffffffffffffffffffffffffffffffff021916908373ffffffffffffffffffffffffffffffffffffffff16021790555080600660006101000a81548173ffffffffffffffffffffffffffffffffffffffff021916908373ffffffffffffffffffffffffffffffffffffffff1602179055505050565b600063150b7a0260e01b9050949350505050565b6060600860008373ffffffffffffffffffffffffffffffffffffffff1673ffffffffffffffffffffffffffffffffffffffff16815260200190815260200160002080548060200260200160405190810160405280929190818152602001828054801561124257602002820191906000526020600020905b81548152602001906001019080831161122e575b50505050509050919050565b611256613d81565b73ffffffffffffffffffffffffffffffffffffffff16611274612a40565b73ffffffffffffffffffffffffffffffffffffffff16146112fd576040517f08c379a00000000000000000000000000000000000000000000000000000000081526004018080602001828103825260208152602001807f4f776e61626c653a2063616c6c6572206973206e6f7420746865206f776e657281525060200191505060405180910390fd5b61130681613d89565b50565b6000600c60008381526020019081526020016000209050600073ffffffffffffffffffffffffffffffffffffffff168160000160009054906101000a900473ffffffffffffffffffffffffffffffffffffffff1673ffffffffffffffffffffffffffffffffffffffff1614156113e7576040517f08c379a000000000000000000000000000000000000000000000000000000000815260040180806020018281038252600d8152602001807f426964206e6f742065786973740000000000000000000000000000000000000081525060200191505060405180910390fd5b3373ffffffffffffffffffffffffffffffffffffffff168160030160009054906101000a900473ffffffffffffffffffffffffffffffffffffffff1673ffffffffffffffffffffffffffffffffffffffff16146114ac576040517f08c379a000000000000000000000000000000000000000000000000000000000815260040180806020018281038252600a8152602001807f4e6f74206269646465720000000000000000000000000000000000000000000081525060200191505060405180910390fd5b600181600a0160009054906101000a900463ffffffff1663ffffffff161461153c576040517f08c379a00000000000000000000000000000000000000000000000000000000081526004018080602001828103825260138152602001807f5769746864726177206e6f74206f6e206269640000000000000000000000000081525060200191505060405180910390fd5b4281600b0154106115b5576040517f08c379a000000000000000000000000000000000000000000000000000000000815260040180806020018281038252600a8152602001807f4f6e2061756374696f6e0000000000000000000000000000000000000000000081525060200191505060405180910390fd5b6000816007015490508160050154811015611638576040517f08c379a00000000000000000000000000000000000000000000000000000000081526004018080602001828103825260168152602001807f4e6f74206f76657220726573657276652070726963650000000000000000000081525060200191505060405180910390fd5b600482600a0160006101000a81548163ffffffff021916908363ffffffff1602179055506000611669848484613eae565b9050837f3adab6caf02fc8ed19c37ac74c2b5ed43da3a96aa55119b621fa6806dbae3f598460020160009054906101000a900473ffffffffffffffffffffffffffffffffffffffff168560030160009054906101000a900473ffffffffffffffffffffffffffffffffffffffff16846004604051808573ffffffffffffffffffffffffffffffffffffffff1681526020018473ffffffffffffffffffffffffffffffffffffffff16815260200183815260200182815260200194505050505060405180910390a250505050565b6000600c60008381526020019081526020016000209050600073ffffffffffffffffffffffffffffffffffffffff168160000160009054906101000a900473ffffffffffffffffffffffffffffffffffffffff1673ffffffffffffffffffffffffffffffffffffffff161415611814576040517f08c379a000000000000000000000000000000000000000000000000000000000815260040180806020018281038252600d8152602001807f426964206e6f742065786973740000000000000000000000000000000000000081525060200191505060405180910390fd5b3373ffffffffffffffffffffffffffffffffffffffff168160020160009054906101000a900473ffffffffffffffffffffffffffffffffffffffff1673ffffffffffffffffffffffffffffffffffffffff16146118d9576040517f08c379a00000000000000000000000000000000000000000000000000000000081526004018080602001828103825260158152602001807f4e6f742061756374696f6e2069642073656c6c6572000000000000000000000081525060200191505060405180910390fd5b8060050154816007015410611956576040517f08c379a000000000000000000000000000000000000000000000000000000000815260040180806020018281038252600b8152602001807f426964207375636365737300000000000000000000000000000000000000000081525060200191505060405180910390fd5b600081600a0160009054906101000a900463ffffffff16905060008163ffffffff16148061198a575060018163ffffffff16145b8061199b575060028163ffffffff16145b611a0d576040517f08c379a000000000000000000000000000000000000000000000000000000000815260040180806020018281038252600c8152602001807f41756374696f6e206f766572000000000000000000000000000000000000000081525060200191505060405180910390fd5b600060018263ffffffff161415611b2d574283600b015410611a97576040517f08c379a000000000000000000000000000000000000000000000000000000000815260040180806020018281038252600a8152602001807f4f6e2061756374696f6e0000000000000000000000000000000000000000000081525060200191505060405180910390fd5b82600701549050611ad08360030160009054906101000a900473ffffffffffffffffffffffffffffffffffffffff16846007015461475b565b611afe8360020160009054906101000a900473ffffffffffffffffffffffffffffffffffffffff168561483c565b611b2c8360030160009054906101000a900473ffffffffffffffffffffffffffffffffffffffff168561483c565b5b60008360000160009054906101000a900473ffffffffffffffffffffffffffffffffffffffff1690508073ffffffffffffffffffffffffffffffffffffffff166342842e0e303387600101546040518463ffffffff1660e01b8152600401808473ffffffffffffffffffffffffffffffffffffffff1681526020018373ffffffffffffffffffffffffffffffffffffffff1681526020018281526020019350505050600060405180830381600087803b158015611be957600080fd5b505af1158015611bfd573d6000803e3d6000fd5b50505050600584600a0160006101000a81548163ffffffff021916908363ffffffff160217905550847f3f1f59fa21f43111fdaa397568b78db1da1f47786a37d225bb05aa15ff3fe83c8560020160009054906101000a900473ffffffffffffffffffffffffffffffffffffffff16846005604051808473ffffffffffffffffffffffffffffffffffffffff168152602001838152602001828152602001935050505060405180910390a25050505050565b6000600160009054906101000a900473ffffffffffffffffffffffffffffffffffffffff1673ffffffffffffffffffffffffffffffffffffffff16611cf2613d81565b73ffffffffffffffffffffffffffffffffffffffff1614905090565b6000600c60008381526020019081526020016000209050600073ffffffffffffffffffffffffffffffffffffffff168160000160009054906101000a900473ffffffffffffffffffffffffffffffffffffffff1673ffffffffffffffffffffffffffffffffffffffff161415611dec576040517f08c379a000000000000000000000000000000000000000000000000000000000815260040180806020018281038252600d8152602001807f426964206e6f742065786973740000000000000000000000000000000000000081525060200191505060405180910390fd5b8060090154421015611e66576040517f08c379a00000000000000000000000000000000000000000000000000000000081526004018080602001828103825260118152602001807f41756374696f6e206e6f7420737461727400000000000000000000000000000081525060200191505060405180910390fd5b80600b0154421115611ee0576040517f08c379a000000000000000000000000000000000000000000000000000000000815260040180806020018281038252600c8152602001807f41756374696f6e206f766572000000000000000000000000000000000000000081525060200191505060405180910390fd5b600081600a0160009054906101000a900463ffffffff1663ffffffff161480611f235750600181600a0160009054906101000a900463ffffffff1663ffffffff16145b611f95576040517f08c379a000000000000000000000000000000000000000000000000000000000815260040180806020018281038252600e8152602001807f4e6f74206f6e2061756374696f6e00000000000000000000000000000000000081525060200191505060405180910390fd5b8060020160009054906101000a900473ffffffffffffffffffffffffffffffffffffffff1673ffffffffffffffffffffffffffffffffffffffff163373ffffffffffffffffffffffffffffffffffffffff16141561205b576040517f08c379a00000000000000000000000000000000000000000000000000000000081526004018080602001828103825260128152602001807f53656c6c65722063616e206e6f7420626964000000000000000000000000000081525060200191505060405180910390fd5b8060030160009054906101000a900473ffffffffffffffffffffffffffffffffffffffff1673ffffffffffffffffffffffffffffffffffffffff163373ffffffffffffffffffffffffffffffffffffffff161415612121576040517f08c379a00000000000000000000000000000000000000000000000000000000081526004018080602001828103825260198152602001807f4269646465722063616e206e6f7420726570656174206269640000000000000081525060200191505060405180910390fd5b60008160070154905060008260080154146121b2576121688260030160009054906101000a900473ffffffffffffffffffffffffffffffffffffffff16836007015461475b565b6121ab60055461219d61218a6005548660060154614a5f90919063ffffffff16565b8560070154614ae790919063ffffffff16565b614b6d90919063ffffffff16565b90506121ba565b816004015490505b80341461222f576040517f08c379a000000000000000000000000000000000000000000000000000000000815260040180806020018281038252600b8152602001807f56616c7565206572726f7200000000000000000000000000000000000000000081525060200191505060405180910390fd5b808260070181905550600d546122524284600b0154614bf690919063ffffffff16565b116122755761226c600d5442614a5f90919063ffffffff16565b82600b01819055505b600073ffffffffffffffffffffffffffffffffffffffff168260030160009054906101000a900473ffffffffffffffffffffffffffffffffffffffff1673ffffffffffffffffffffffffffffffffffffffff16146122fc576122fb8260030160009054906101000a900473ffffffffffffffffffffffffffffffffffffffff168461483c565b5b6123063384613c80565b338260030160006101000a81548173ffffffffffffffffffffffffffffffffffffffff021916908373ffffffffffffffffffffffffffffffffffffffff160217905550600182600a0160006101000a81548163ffffffff021916908363ffffffff16021790555061238560018360080154614a5f90919063ffffffff16565b8260080181905550827f21d49e1c269f967398b585ded56a8f3cbd23b4e2ba8ef4d2221afce47c11688b3383856008015486600b01546001604051808673ffffffffffffffffffffffffffffffffffffffff1681526020018581526020018481526020018381526020018281526020019550505050505060405180910390a2505050565b600660009054906101000a900473ffffffffffffffffffffffffffffffffffffffff1681565b600260009054906101000a900473ffffffffffffffffffffffffffffffffffffffff1681565b6000600160009054906101000a900473ffffffffffffffffffffffffffffffffffffffff16905090565b6000600c60008381526020019081526020016000209050600073ffffffffffffffffffffffffffffffffffffffff168160000160009054906101000a900473ffffffffffffffffffffffffffffffffffffffff1673ffffffffffffffffffffffffffffffffffffffff16141561255d576040517f08c379a000000000000000000000000000000000000000000000000000000000815260040180806020018281038252600d8152602001807f426964206e6f742065786973740000000000000000000000000000000000000081525060200191505060405180910390fd5b8060020160009054906101000a900473ffffffffffffffffffffffffffffffffffffffff1673ffffffffffffffffffffffffffffffffffffffff163373ffffffffffffffffffffffffffffffffffffffff1614612622576040517f08c379a000000000000000000000000000000000000000000000000000000000815260040180806020018281038252600a8152602001807f4e6f742073656c6c65720000000000000000000000000000000000000000000081525060200191505060405180910390fd5b600181600a0160009054906101000a900463ffffffff1663ffffffff16146126b2576040517f08c379a000000000000000000000000000000000000000000000000000000000815260040180806020018281038252600a8152602001807f4e6f74206f6e206269640000000000000000000000000000000000000000000081525060200191505060405180910390fd5b4281600b01541061272b576040517f08c379a000000000000000000000000000000000000000000000000000000000815260040180806020018281038252600a8152602001807f4f6e2061756374696f6e0000000000000000000000000000000000000000000081525060200191505060405180910390fd5b600381600a0160006101000a81548163ffffffff021916908363ffffffff16021790555060008160070154905081600501548110156127d2576040517f08c379a00000000000000000000000000000000000000000000000000000000081526004018080602001828103825260168152602001807f4e6f74206f76657220726573657276652070726963650000000000000000000081525060200191505060405180910390fd5b60006127df848484613eae565b9050837fe45aad7bbda605dc91417d226d02fe8a5ce539c5f855ccbe10d30fc8f5a10eed8460020160009054906101000a900473ffffffffffffffffffffffffffffffffffffffff168560030160009054906101000a900473ffffffffffffffffffffffffffffffffffffffff16846003604051808573ffffffffffffffffffffffffffffffffffffffff1681526020018473ffffffffffffffffffffffffffffffffffffffff16815260200183815260200182815260200194505050505060405180910390a250505050565b6128b4613d81565b73ffffffffffffffffffffffffffffffffffffffff166128d2612a40565b73ffffffffffffffffffffffffffffffffffffffff161461295b576040517f08c379a00000000000000000000000000000000000000000000000000000000081526004018080602001828103825260208152602001807f4f776e61626c653a2063616c6c6572206973206e6f7420746865206f776e657281525060200191505060405180910390fd5b600073ffffffffffffffffffffffffffffffffffffffff1660008054906101000a900473ffffffffffffffffffffffffffffffffffffffff1673ffffffffffffffffffffffffffffffffffffffff167f8be0079c531659141344cd1fd0a4f28419497f9722a3daafe3b4186f6b6457e060405160405180910390a360008060006101000a81548173ffffffffffffffffffffffffffffffffffffffff021916908373ffffffffffffffffffffffffffffffffffffffff160217905550565b600a8181548110612a2657fe5b906000526020600020016000915090505481565b60035481565b60008060009054906101000a900473ffffffffffffffffffffffffffffffffffffffff16905090565b600e5481565b60086020528160005260406000208181548110612a8857fe5b90600052602060002001600091509150505481565b600d5481565b6060600a805480602002602001604051908101604052809291908181526020018280548015612af157602002820191906000526020600020905b815481526020019060010190808311612add575b5050505050905090565b612b03613d81565b73ffffffffffffffffffffffffffffffffffffffff16612b21612a40565b73ffffffffffffffffffffffffffffffffffffffff1614612baa576040517f08c379a00000000000000000000000000000000000000000000000000000000081526004018080602001828103825260208152602001807f4f776e61626c653a2063616c6c6572206973206e6f7420746865206f776e657281525060200191505060405180910390fd5b7f4ff4b7f9ae1a34069639f29f94106c930a6adba9afeb7263bafe87316aeeb948600d54600e54604051808381526020018281526020019250505060405180910390a160008214612bfd5781600d819055505b60008114612c0d5780600e819055505b5050565b6000612c1b614c79565b600c6000848152602001908152602001600020604051806101800160405290816000820160009054906101000a900473ffffffffffffffffffffffffffffffffffffffff1673ffffffffffffffffffffffffffffffffffffffff1673ffffffffffffffffffffffffffffffffffffffff168152602001600182015481526020016002820160009054906101000a900473ffffffffffffffffffffffffffffffffffffffff1673ffffffffffffffffffffffffffffffffffffffff1673ffffffffffffffffffffffffffffffffffffffff1681526020016003820160009054906101000a900473ffffffffffffffffffffffffffffffffffffffff1673ffffffffffffffffffffffffffffffffffffffff1673ffffffffffffffffffffffffffffffffffffffff168152602001600482015481526020016005820154815260200160068201548152602001600782015481526020016008820154815260200160098201548152602001600a820160009054906101000a900463ffffffff1663ffffffff1663ffffffff168152602001600b82015481525050905060008160e001519050600082610100015114612e1057612e0d600554612dff612dec6005548660c00151614a5f90919063ffffffff16565b8560e00151614ae790919063ffffffff16565b614b6d90919063ffffffff16565b90505b8092505050919050565b60055481565b6000600c60008381526020019081526020016000209050600073ffffffffffffffffffffffffffffffffffffffff168160000160009054906101000a900473ffffffffffffffffffffffffffffffffffffffff1673ffffffffffffffffffffffffffffffffffffffff161415612efe576040517f08c379a000000000000000000000000000000000000000000000000000000000815260040180806020018281038252600d8152602001807f426964206e6f742065786973740000000000000000000000000000000000000081525060200191505060405180910390fd5b8060030160009054906101000a900473ffffffffffffffffffffffffffffffffffffffff1673ffffffffffffffffffffffffffffffffffffffff163373ffffffffffffffffffffffffffffffffffffffff1614612fc3576040517f08c379a000000000000000000000000000000000000000000000000000000000815260040180806020018281038252600a8152602001807f4e6f74206269646465720000000000000000000000000000000000000000000081525060200191505060405180910390fd5b8060050154816007015410613040576040517f08c379a000000000000000000000000000000000000000000000000000000000815260040180806020018281038252600b8152602001807f426964207375636365737300000000000000000000000000000000000000000081525060200191505060405180910390fd5b600181600a0160009054906101000a900463ffffffff1663ffffffff16146130d0576040517f08c379a00000000000000000000000000000000000000000000000000000000081526004018080602001828103825260168152602001807f526576657273652063616e206e6f74206f6e206269640000000000000000000081525060200191505060405180910390fd5b426130ea600e5483600b0154614a5f90919063ffffffff16565b111561315e576040517f08c379a00000000000000000000000000000000000000000000000000000000081526004018080602001828103825260158152602001807f4e6f74206f76657220726576657273652074696d65000000000000000000000081525060200191505060405180910390fd5b61316c33826007015461475b565b600281600a0160006101000a81548163ffffffff021916908363ffffffff1602179055506131be8160030160009054906101000a900473ffffffffffffffffffffffffffffffffffffffff168361483c565b817fba5068295b963c01e54acedeb13de943df2c73d23a25efae68d4296b11db748e8260030160009054906101000a900473ffffffffffffffffffffffffffffffffffffffff1683600701546002604051808473ffffffffffffffffffffffffffffffffffffffff168152602001838152602001828152602001935050505060405180910390a25050565b600c6020528060005260406000206000915090508060000160009054906101000a900473ffffffffffffffffffffffffffffffffffffffff16908060010154908060020160009054906101000a900473ffffffffffffffffffffffffffffffffffffffff16908060030160009054906101000a900473ffffffffffffffffffffffffffffffffffffffff169080600401549080600501549080600601549080600701549080600801549080600901549080600a0160009054906101000a900463ffffffff169080600b015490508c565b6004818154811061332657fe5b906000526020600020016000915090505481565b613342613d81565b73ffffffffffffffffffffffffffffffffffffffff16613360612a40565b73ffffffffffffffffffffffffffffffffffffffff16146133e9576040517f08c379a00000000000000000000000000000000000000000000000000000000081526004018080602001828103825260208152602001807f4f776e61626c653a2063616c6c6572206973206e6f7420746865206f776e657281525060200191505060405180910390fd5b600073ffffffffffffffffffffffffffffffffffffffff168173ffffffffffffffffffffffffffffffffffffffff16141561346f576040517f08c379a0000000000000000000000000000000000000000000000000000000008152600401808060200182810382526026815260200180614d236026913960400191505060405180910390fd5b8073ffffffffffffffffffffffffffffffffffffffff1660008054906101000a900473ffffffffffffffffffffffffffffffffffffffff1673ffffffffffffffffffffffffffffffffffffffff167f8be0079c531659141344cd1fd0a4f28419497f9722a3daafe3b4186f6b6457e060405160405180910390a3806000806101000a81548173ffffffffffffffffffffffffffffffffffffffff021916908373ffffffffffffffffffffffffffffffffffffffff16021790555050565b42811015801561353b57508181115b6135ad576040517f08c379a000000000000000000000000000000000000000000000000000000000815260040180806020018281038252600a8152602001807f54696d65206572726f720000000000000000000000000000000000000000000081525060200191505060405180910390fd5b84831015613623576040517f08c379a000000000000000000000000000000000000000000000000000000000815260040180806020018281038252600b8152602001807f5072696365206572726f7200000000000000000000000000000000000000000081525060200191505060405180910390fd5b6000600c60008881526020019081526020016000209050600073ffffffffffffffffffffffffffffffffffffffff168160000160009054906101000a900473ffffffffffffffffffffffffffffffffffffffff1673ffffffffffffffffffffffffffffffffffffffff161415613701576040517f08c379a000000000000000000000000000000000000000000000000000000000815260040180806020018281038252600d8152602001807f426964206e6f742065786973740000000000000000000000000000000000000081525060200191505060405180910390fd5b600581600a0160009054906101000a900463ffffffff1663ffffffff161415613792576040517f08c379a00000000000000000000000000000000000000000000000000000000081526004018080602001828103825260188152602001807f53656c6c657220686173206265656e2063616e63656c6564000000000000000081525060200191505060405180910390fd5b80600b0154421161380b576040517f08c379a00000000000000000000000000000000000000000000000000000000081526004018080602001828103825260108152602001807f41756374696f6e206e6f74206f7665720000000000000000000000000000000081525060200191505060405180910390fd5b8060050154816007015410613888576040517f08c379a000000000000000000000000000000000000000000000000000000000815260040180806020018281038252600b8152602001807f426964207375636365737300000000000000000000000000000000000000000081525060200191505060405180910390fd5b3373ffffffffffffffffffffffffffffffffffffffff168160020160009054906101000a900473ffffffffffffffffffffffffffffffffffffffff1673ffffffffffffffffffffffffffffffffffffffff161461394d576040517f08c379a00000000000000000000000000000000000000000000000000000000081526004018080602001828103825260158152602001807f4e6f742061756374696f6e2069642073656c6c6572000000000000000000000081525060200191505060405180910390fd5b6000600182600a0160009054906101000a900463ffffffff1663ffffffff1614156139da57816007015490506139ab8260030160009054906101000a900473ffffffffffffffffffffffffffffffffffffffff16836007015461475b565b6139d98260030160009054906101000a900473ffffffffffffffffffffffffffffffffffffffff168961483c565b5b338260020160006101000a81548173ffffffffffffffffffffffffffffffffffffffff021916908373ffffffffffffffffffffffffffffffffffffffff1602179055508682600401819055508482600501819055508582600601819055508382600901819055508282600b0181905550613a5382613c01565b877fb0105f505934a6f454ab99ff856e578ea6c4669855b50c90dc425b4b825bc9048289898888600060405180878152602001868152602001858152602001848152602001838152602001828152602001965050505050505060405180910390a25050505050505050565b613ac6613d81565b73ffffffffffffffffffffffffffffffffffffffff16613ae4612a40565b73ffffffffffffffffffffffffffffffffffffffff1614613b6d576040517f08c379a00000000000000000000000000000000000000000000000000000000081526004018080602001828103825260208152602001807f4f776e61626c653a2063616c6c6572206973206e6f7420746865206f776e657281525060200191505060405180910390fd5b60008214613b7d57816003819055505b80600060028110613b8a57fe5b60200201516004600081548110613b9d57fe5b906000526020600020018190555080600160028110613bb857fe5b60200201516004600181548110613bcb57fe5b90600052602060002001819055505050565b6001816000016000828254019250508190555050565b600081600001549050919050565b60008160070181905550600081600a0160006101000a81548163ffffffff021916908363ffffffff1602179055506000816008018190555060008160030160006101000a81548173ffffffffffffffffffffffffffffffffffffffff021916908373ffffffffffffffffffffffffffffffffffffffff16021790555050565b600860008373ffffffffffffffffffffffffffffffffffffffff1673ffffffffffffffffffffffffffffffffffffffff16815260200190815260200160002080549050600960008473ffffffffffffffffffffffffffffffffffffffff1673ffffffffffffffffffffffffffffffffffffffff168152602001908152602001600020600083815260200190815260200160002081905550600860008373ffffffffffffffffffffffffffffffffffffffff1673ffffffffffffffffffffffffffffffffffffffff1681526020019081526020016000208190806001815401808255809150506001900390600052602060002001600090919091909150555050565b600033905090565b600073ffffffffffffffffffffffffffffffffffffffff168173ffffffffffffffffffffffffffffffffffffffff161415613e0f576040517f08c379a000000000000000000000000000000000000000000000000000000000815260040180806020018281038252602d815260200180614d49602d913960400191505060405180910390fd5b8073ffffffffffffffffffffffffffffffffffffffff16600073ffffffffffffffffffffffffffffffffffffffff167f74da04524d50c64947f5dd5381ef1a4dca5cba8ed1d816243f9e48aa0b5617ed60405160405180910390a380600160006101000a81548173ffffffffffffffffffffffffffffffffffffffff021916908373ffffffffffffffffffffffffffffffffffffffff16021790555050565b60008082905060008460000160009054906101000a900473ffffffffffffffffffffffffffffffffffffffff1690508073ffffffffffffffffffffffffffffffffffffffff166342842e0e308760030160009054906101000a900473ffffffffffffffffffffffffffffffffffffffff1688600101546040518463ffffffff1660e01b8152600401808473ffffffffffffffffffffffffffffffffffffffff1681526020018373ffffffffffffffffffffffffffffffffffffffff1681526020018281526020019350505050600060405180830381600087803b158015613f9457600080fd5b505af1158015613fa8573d6000803e3d6000fd5b505050506000613fd7600554613fc960035486614ae790919063ffffffff16565b614b6d90919063ffffffff16565b90506000614007600660009054906101000a900473ffffffffffffffffffffffffffffffffffffffff168361475b565b8660000160009054906101000a900473ffffffffffffffffffffffffffffffffffffffff1673ffffffffffffffffffffffffffffffffffffffff16600260009054906101000a900473ffffffffffffffffffffffffffffffffffffffff1673ffffffffffffffffffffffffffffffffffffffff16141561467b576000600260009054906101000a900473ffffffffffffffffffffffffffffffffffffffff1673ffffffffffffffffffffffffffffffffffffffff1663abb03ba689600101546040518263ffffffff1660e01b81526004018082815260200191505060606040518083038186803b1580156140fa57600080fd5b505afa15801561410e573d6000803e3d6000fd5b505050506040513d606081101561412457600080fd5b81019080805190602001909291908051906020019092919080519060200190929190505050505090506000606080600260009054906101000a900473ffffffffffffffffffffffffffffffffffffffff1673ffffffffffffffffffffffffffffffffffffffff1663e726d96b856040518263ffffffff1660e01b81526004018082815260200191505060006040518083038186803b1580156141c557600080fd5b505afa1580156141d9573d6000803e3d6000fd5b505050506040513d6000823e3d601f19601f8201168201806040525060e081101561420357600080fd5b81019080805190602001909291908051906020019092919080519060200190929190805190602001909291908051604051939291908464010000000082111561424b57600080fd5b8382019150602082018581111561426157600080fd5b825186602082028301116401000000008211171561427e57600080fd5b8083526020830192505050908051906020019060200280838360005b838110156142b557808201518184015260208101905061429a565b50505050905001604052602001805160405193929190846401000000008211156142de57600080fd5b838201915060208201858111156142f457600080fd5b825186602082028301116401000000008211171561431157600080fd5b8083526020830192505050908051906020019060200280838360005b8381101561434857808201518184015260208101905061432d565b505050509050016040526020018051604051939291908464010000000082111561437157600080fd5b8382019150602082018581111561438757600080fd5b82518660018202830111640100000000821117156143a457600080fd5b8083526020830192505050908051906020019080838360005b838110156143d85780820151818401526020810190506143bd565b50505050905090810190601f1680156144055780820380516001836020036101000a031916815260200191505b50604052505050509550955095505050506000600760008d60000160009054906101000a900473ffffffffffffffffffffffffffffffffffffffff1673ffffffffffffffffffffffffffffffffffffffff1673ffffffffffffffffffffffffffffffffffffffff16815260200190815260200160002060008d60010154815260200190815260200160002060009054906101000a900460ff1690506145036005546144f5836144cc5760046000815481106144bc57fe5b90600052602060002001546144e6565b60046001815481106144da57fe5b90600052602060002001545b8c614ae790919063ffffffff16565b614b6d90919063ffffffff16565b955060008351141561451e57614519848761475b565b6145e4565b60005b82518110156145e257600081141561457b576145768561457160055461456387868151811061454c57fe5b60200260200101518c614ae790919063ffffffff16565b614b6d90919063ffffffff16565b61475b565b6145d5565b6145d484600183038151811061458d57fe5b60200260200101516145cf6005546145c18786815181106145aa57fe5b60200260200101518c614ae790919063ffffffff16565b614b6d90919063ffffffff16565b61475b565b5b8080600101915050614521565b505b6001600760008e60000160009054906101000a900473ffffffffffffffffffffffffffffffffffffffff1673ffffffffffffffffffffffffffffffffffffffff1673ffffffffffffffffffffffffffffffffffffffff16815260200190815260200160002060008e60010154815260200190815260200160002060006101000a81548160ff02191690831515021790555050505050505b6146cd8760020160009054906101000a900473ffffffffffffffffffffffffffffffffffffffff166146c8836146ba8689614bf690919063ffffffff16565b614bf690919063ffffffff16565b61475b565b6146fb8760020160009054906101000a900473ffffffffffffffffffffffffffffffffffffffff168961483c565b6147298760030160009054906101000a900473ffffffffffffffffffffffffffffffffffffffff168961483c565b61474e816147408487614bf690919063ffffffff16565b614bf690919063ffffffff16565b9450505050509392505050565b60008273ffffffffffffffffffffffffffffffffffffffff168260405180600001905060006040518083038185875af1925050503d80600081146147bb576040519150601f19603f3d011682016040523d82523d6000602084013e6147c0565b606091505b5050905080614837576040517f08c379a00000000000000000000000000000000000000000000000000000000081526004018080602001828103825260128152602001807f5452414e5346455220455448204552524f52000000000000000000000000000081525060200191505060405180910390fd5b505050565b60006148946001600860008673ffffffffffffffffffffffffffffffffffffffff1673ffffffffffffffffffffffffffffffffffffffff16815260200190815260200160002080549050614bf690919063ffffffff16565b90506000600960008573ffffffffffffffffffffffffffffffffffffffff1673ffffffffffffffffffffffffffffffffffffffff16815260200190815260200160002060008481526020019081526020016000205490508082146149fb576000600860008673ffffffffffffffffffffffffffffffffffffffff1673ffffffffffffffffffffffffffffffffffffffff168152602001908152602001600020838154811061493e57fe5b9060005260206000200154905080600860008773ffffffffffffffffffffffffffffffffffffffff1673ffffffffffffffffffffffffffffffffffffffff168152602001908152602001600020838154811061499657fe5b906000526020600020018190555081600960008773ffffffffffffffffffffffffffffffffffffffff1673ffffffffffffffffffffffffffffffffffffffff168152602001908152602001600020600083815260200190815260200160002081905550505b600860008573ffffffffffffffffffffffffffffffffffffffff1673ffffffffffffffffffffffffffffffffffffffff168152602001908152602001600020805480614a4357fe5b6001900381819060005260206000200160009055905550505050565b600080828401905083811015614add576040517f08c379a000000000000000000000000000000000000000000000000000000000815260040180806020018281038252601b8152602001807f536166654d6174683a206164646974696f6e206f766572666c6f77000000000081525060200191505060405180910390fd5b8091505092915050565b600080831415614afa5760009050614b67565b6000828402905082848281614b0b57fe5b0414614b62576040517f08c379a0000000000000000000000000000000000000000000000000000000008152600401808060200182810382526021815260200180614d766021913960400191505060405180910390fd5b809150505b92915050565b6000808211614be4576040517f08c379a000000000000000000000000000000000000000000000000000000000815260040180806020018281038252601a8152602001807f536166654d6174683a206469766973696f6e206279207a65726f00000000000081525060200191505060405180910390fd5b818381614bed57fe5b04905092915050565b600082821115614c6e576040517f08c379a000000000000000000000000000000000000000000000000000000000815260040180806020018281038252601e8152602001807f536166654d6174683a207375627472616374696f6e206f766572666c6f77000081525060200191505060405180910390fd5b818303905092915050565b604051806101800160405280600073ffffffffffffffffffffffffffffffffffffffff16815260200160008152602001600073ffffffffffffffffffffffffffffffffffffffff168152602001600073ffffffffffffffffffffffffffffffffffffffff168152602001600081526020016000815260200160008152602001600081526020016000815260200160008152602001600063ffffffff16815260200160008152509056fe4f776e61626c653a206e6577206f776e657220697320746865207a65726f20616464726573736f70657261746f723a207a65726f206164647265737320676976656e20666f72206e6577206f70657261746f72536166654d6174683a206d756c7469706c69636174696f6e206f766572666c6f77a2646970667358221220ed79da747bf031b3674d1babb4960018c584c30b251df4759e97614dcb29795a64736f6c634300060c0033",
  "immutableReferences": {},
  "source": "pragma solidity ^0.6.2;\n\nimport \"@openzeppelin/contracts/token/ERC721/IERC721.sol\";\nimport \"@openzeppelin/contracts/math/SafeMath.sol\";\nimport \"@openzeppelin/contracts/utils/Counters.sol\";\nimport \"@openzeppelin/contracts/utils/Pausable.sol\";\nimport \"./interfaces/IAgERC721.sol\";\nimport './base/BaseAuction.sol';\n\n/// @title English auction\n/// @author yzbbanban\n/// @notice buy token\n/// @dev \ncontract EnglishAuction is BaseAuction{\n\n    event Auction(uint256 indexed _auctionId, address _token, uint256 _tokenId,address _seller, \n                    uint256 _openingBid,uint256 _bidIncrements,uint256 _startTime, uint256 _expirationTime,\n                    uint32 _auctionStatus);\n    event ReAuction(uint256 indexed _auctionId,uint256 _bidPrice,uint256 _openingBid, uint256 _bidIncrements,\n                    uint256 _startTime, uint256 _expirationTime,uint32 _auctionStatus);\n    event LastParam(uint256 _extendTime, uint256 _reverseTime);\n    event Bid(uint256 indexed _auctionId, address _bidder,uint256 _bidPrice, uint256 _bidCount,uint256 _expirationTime,uint32 _auctionStatus);\n    event Selling(uint256 indexed _auctionId, address _seller, address _bidder, uint256 _bidPrice, uint32 _auctionStatus);\n    event Reverse(uint256 indexed _auctionId, address _bidder, uint256 _bidPrice, uint32 _auctionStatus);\n    event Withdraw(uint256 indexed _auctionId, address _seller, address _bidder, uint256 _bidPrice, uint32 _auctionStatus);\n    event Cancel(uint256 indexed _auctionId, address _seller,uint256 _bidPrice, uint32 _auctionStatus);\n\n    using Counters for Counters.Counter;\n    Counters.Counter private _auctionIds;\n    using SafeMath for uint256;\n\n    mapping(uint256 => BidInfo) public bidInfos;\n    uint256 public extendTime = 15 minutes;\n    uint256 public reverseTime = 5 days;\n\n    constructor(IAgERC721 _artGee, address _platform) public{\n        artGee = _artGee;\n        platform = _platform;\n    }\n\n    struct BidInfo{\n        address token;\n        uint256 tokenId;\n        address seller;\n        address bidder;//change\n        uint256 openingBid;\n        uint256 reservePrice;\n        uint256 bidIncrements;\n        uint256 bidPrice;//change\n        uint256 bidCount;//change\n        uint256 startTime;\n        uint32 auctionStatus;// 0 init; 1 bid; 2 bidder reverse;3 seller finish; 4 bidder finish 5 seller cancel\n        uint256 expirationTime;//change\n    }\n\n    function setReverseTime(uint256 _extendTime, uint256 _reverseTime) public onlyOwner(){\n        emit LastParam(extendTime, reverseTime);\n        if(_extendTime != 0){\n            extendTime = _extendTime;\n        }\n        if(_reverseTime != 0){\n            reverseTime = _reverseTime;\n        }\n    }\n\n    //seller\n    function auction(address _token, uint256 _tokenId,\n                    uint256 _openingBid, uint256 _bidIncrements,\n                    uint256 _reservePrice, uint256 _startTime,uint256 _expirationTime\n                     ) public{\n        require(_expirationTime >= block.timestamp && _expirationTime > _startTime,\"Time error\");\n        require(_reservePrice >= _openingBid, \"Price error\");\n        _auctionIds.increment();\n        uint256 auctionId = _auctionIds.current();\n        BidInfo storage bidInfo = bidInfos[auctionId];\n        bidInfo.token = _token;\n        bidInfo.tokenId = _tokenId;\n        bidInfo.seller = msg.sender;\n        bidInfo.openingBid = _openingBid;\n        bidInfo.reservePrice = _reservePrice;\n        bidInfo.bidIncrements = _bidIncrements;\n        bidInfo.startTime = _startTime;\n        //1 day later\n        bidInfo.expirationTime = _expirationTime;\n        _initAuction(bidInfo);\n        //add tokenId\n        IERC721 ierc721 = IERC721(_token);\n        ierc721.safeTransferFrom(msg.sender, address(this), _tokenId);\n        // add my auction\n        _addMyAuction(msg.sender,auctionId);\n        artList.push(auctionId);\n        emit Auction(auctionId,_token, _tokenId, msg.sender, _openingBid, \n                    _bidIncrements, _startTime,_expirationTime,0);\n    }\n\n    //seller\n    function reAuction(uint256 _auctionId, \n                        uint256 _openingBid, uint256 _bidIncrements,\n                        uint256 _reservePrice, uint256 _startTime, uint256 _expirationTime) public{\n        require(_expirationTime >= block.timestamp && _expirationTime > _startTime,\"Time error\");\n        require(_reservePrice >= _openingBid, \"Price error\");\n        BidInfo storage bidInfo = bidInfos[_auctionId];\n        require(bidInfo.token != address(0),\"Bid not exist\");\n        require(bidInfo.auctionStatus != 5,\"Seller has been canceled\");\n        //must wait for auction over\n        require(block.timestamp > bidInfo.expirationTime, \"Auction not over\");\n        //bid price must < reverse price\n        require(bidInfo.bidPrice < bidInfo.reservePrice,\"Bid success\");\n        require(bidInfo.seller == msg.sender,\"Not auction id seller\");\n        //bidder has already reverse\n        uint256 refund = 0;\n        if(bidInfo.auctionStatus == 1){\n            //sende coin to bidder\n            refund = bidInfo.bidPrice;\n            transferMain(bidInfo.bidder, bidInfo.bidPrice);\n            // remove bidder's auctionId\n            _removeMyAuction(bidInfo.bidder, _auctionId);\n        }\n        bidInfo.seller = msg.sender;\n        bidInfo.openingBid = _openingBid;\n        bidInfo.reservePrice = _reservePrice;\n        bidInfo.bidIncrements = _bidIncrements;\n        bidInfo.startTime = _startTime;\n        //1 day later\n        bidInfo.expirationTime = _expirationTime;\n        _initAuction(bidInfo);     \n        emit ReAuction(_auctionId, refund,\n                        _openingBid, _bidIncrements, _startTime,_expirationTime,0);\n    }\n\n    //bidder\n    function bid(uint256 _auctionId) payable public{\n        BidInfo storage bidInfo = bidInfos[_auctionId];\n        require(bidInfo.token != address(0),\"Bid not exist\");\n        require(block.timestamp >= bidInfo.startTime,\"Auction not start\");\n        //now time > expiration time then auction over\n        require(block.timestamp <= bidInfo.expirationTime, \"Auction over\");\n        require(bidInfo.auctionStatus == 0 || bidInfo.auctionStatus == 1, \"Not on auction\");\n        require(msg.sender != bidInfo.seller, \"Seller can not bid\");\n        require(msg.sender != bidInfo.bidder, \"Bidder can not repeat bid\");\n        uint256 nowBidPrice = bidInfo.bidPrice;\n        //transfer to last bidder\n        if(bidInfo.bidCount!=0){\n            transferMain(bidInfo.bidder, bidInfo.bidPrice);\n            nowBidPrice = bidInfo.bidPrice.mul(bidInfo.bidIncrements.add(basePercent)).div(basePercent);\n        }else{\n            nowBidPrice = bidInfo.openingBid;\n        }\n        require(msg.value == nowBidPrice, \"Value error\");\n        //update price\n        bidInfo.bidPrice = nowBidPrice;\n        // expiration time - (startTime + 1day) => update expiration\n        if(bidInfo.expirationTime.sub(block.timestamp) <= extendTime){\n            bidInfo.expirationTime = block.timestamp.add(extendTime);\n        }\n        // add bidder auction id and remove seller auction id\n        if(bidInfo.bidder != address(0)){\n            _removeMyAuction(bidInfo.bidder, _auctionId);\n        }\n        _addMyAuction(msg.sender,_auctionId);\n        //reset bidder\n        bidInfo.bidder = msg.sender;\n        //add bid count\n        bidInfo.auctionStatus = 1;\n        bidInfo.bidCount = bidInfo.bidCount.add(1);\n        emit Bid(_auctionId, msg.sender, nowBidPrice, bidInfo.bidCount,bidInfo.expirationTime, 1);\n    }\n    \n    function getCurrentPrice(uint256 _auctionId) view public returns(uint256 _nowBidPrice){\n        BidInfo memory bidInfo = bidInfos[_auctionId];\n        uint256 nowBidPrice = bidInfo.bidPrice;\n        if(bidInfo.bidCount!=0){\n            nowBidPrice = bidInfo.bidPrice.mul(bidInfo.bidIncrements.add(basePercent)).div(basePercent);\n        }\n        return nowBidPrice;\n    }\n    \n    //sell cancel\n    function cancel(uint256 _auctionId) public{\n        BidInfo storage bidInfo = bidInfos[_auctionId];\n        require(bidInfo.token != address(0),\"Bid not exist\");\n        require(bidInfo.seller == msg.sender,\"Not auction id seller\");    \n        require(bidInfo.bidPrice < bidInfo.reservePrice,\"Bid success\");\n        //init ,has bidded, bidder has reverse\n        uint32 nowStatus = bidInfo.auctionStatus;\n        require(nowStatus == 0 || nowStatus == 1 || nowStatus == 2, \"Auction over\");\n        uint256 refund = 0;\n        if(nowStatus == 1){\n            require(bidInfo.expirationTime < block.timestamp, \"On auction\");\n            refund = bidInfo.bidPrice;\n            //has bid send coin to bidder\n            transferMain(bidInfo.bidder, bidInfo.bidPrice);\n            //remove seller list\n            _removeMyAuction(bidInfo.seller, _auctionId);\n            //remove bidder list\n            _removeMyAuction(bidInfo.bidder, _auctionId);\n        }\n        IERC721 ierc721 = IERC721(bidInfo.token);\n        ierc721.safeTransferFrom(address(this),msg.sender, bidInfo.tokenId);\n        bidInfo.auctionStatus = 5;\n        emit Cancel(_auctionId, bidInfo.seller, refund, 5);\n    }\n\n    //seller executor\n    function sellingSettlementPrice(uint256 _auctionId) public{\n        BidInfo storage bidInfo = bidInfos[_auctionId];\n        require(bidInfo.token != address(0),\"Bid not exist\");\n        require(msg.sender == bidInfo.seller, \"Not seller\");\n        require(bidInfo.auctionStatus == 1, \"Not on bid\");\n        require(bidInfo.expirationTime < block.timestamp, \"On auction\");\n        bidInfo.auctionStatus = 3;\n        uint256 amount = bidInfo.bidPrice;\n        require(amount >= bidInfo.reservePrice,\"Not over reserve price\");\n        //721 transfer current bidder , get bidder price\n        uint256 am = _share(_auctionId, bidInfo, amount);\n        emit Selling(_auctionId,bidInfo.seller,bidInfo.bidder,am,3);\n    }\n\n    //bidder execute\n    function bidderReverse(uint256 _auctionId) public{\n        BidInfo storage bidInfo = bidInfos[_auctionId];\n        require(bidInfo.token != address(0),\"Bid not exist\");\n        require(msg.sender == bidInfo.bidder, \"Not bidder\");\n        require(bidInfo.bidPrice < bidInfo.reservePrice,\"Bid success\");\n        // if bidder wanner his coin, current time must over than `reverseTime`\n        require(bidInfo.auctionStatus == 1, \"Reverse can not on bid\");\n        require(bidInfo.expirationTime.add(reverseTime) <= block.timestamp, \"Not over reverse time\");\n        //coin send to bidder\n        transferMain(msg.sender, bidInfo.bidPrice);\n        bidInfo.auctionStatus = 2;\n        //remove bidder list\n        _removeMyAuction(bidInfo.bidder, _auctionId);\n        emit Reverse(_auctionId, bidInfo.bidder, bidInfo.bidPrice, 2);\n    }\n\n    //auction success bidder execute\n    function withdraw(uint256 _auctionId) public{\n        BidInfo storage bidInfo = bidInfos[_auctionId];\n        require(bidInfo.token != address(0),\"Bid not exist\");\n        require(bidInfo.bidder == msg.sender,\"Not bidder\");\n        require(bidInfo.auctionStatus == 1, \"Withdraw not on bid\");\n        require(bidInfo.expirationTime < block.timestamp, \"On auction\");\n        uint256 amount = bidInfo.bidPrice;\n        require(amount >= bidInfo.reservePrice,\"Not over reserve price\");\n        bidInfo.auctionStatus = 4;\n        //721 transfer current bidder , get bidder price\n        uint256 am = _share(_auctionId, bidInfo, amount);\n        emit Withdraw(_auctionId,bidInfo.seller,bidInfo.bidder,am,4);\n    }\n\n    function _share(uint256 _auctionId, BidInfo storage bidInfo,uint256 _price) internal returns(uint256 _amount){\n        uint256 amount = _price;\n        IERC721 ierc721 = IERC721(bidInfo.token);\n        ierc721.safeTransferFrom(address(this), bidInfo.bidder, bidInfo.tokenId);\n        //fee to platform\n        uint256 _fee = amount.mul(feePercent).div(basePercent);\n        uint256 _artistFee = 0; \n        transferMain(platform,_fee);\n        //artist share in the benefit \n        if(address(artGee) == bidInfo.token){\n            (uint256 artId,,)=artGee.tokenArts(bidInfo.tokenId);\n            (,,,address creator,\n                address[] memory assistants,\n                uint256[] memory benefits,)=artGee.getSourceDigitalArt(artId);\n            bool isNotFirst = isNotFirstAuction[bidInfo.token][bidInfo.tokenId];\n            //first time 20% to artist,other time 10% \n            _artistFee = amount.mul(isNotFirst ? artPercent[1]:artPercent[0]).div(basePercent);\n            if(assistants.length == 0){\n                //send to creator\n                transferMain(creator,_artistFee);\n            }else{\n                //send to creator and other assistant\n                for (uint256 index = 0; index < benefits.length; index++) {\n                    if(index==0){\n                        // to creator\n                        transferMain(creator,_artistFee.mul(benefits[index]).div(basePercent));\n                    }else{\n                        // to assistants\n                        transferMain(assistants[index-1],_artistFee.mul(benefits[index]).div(basePercent));\n                    }\n                }\n            }\n            isNotFirstAuction[bidInfo.token][bidInfo.tokenId] = true;\n        }\n        // to seller\n        transferMain(bidInfo.seller, amount.sub(_fee).sub(_artistFee));\n        //remove seller list\n        _removeMyAuction(bidInfo.seller, _auctionId);\n        //remove bidder list\n        _removeMyAuction(bidInfo.bidder, _auctionId);\n        return amount.sub(_fee).sub(_artistFee);\n    }\n\n    function _initAuction(BidInfo storage bidInfo) internal {\n        bidInfo.bidPrice = 0;\n        bidInfo.auctionStatus = 0;\n        bidInfo.bidCount = 0;\n        bidInfo.bidder = address(0);  \n    }\n}",
  "sourcePath": "/Users/wangban/Downloads/money/coin/other/artgee/ArtGee-Contract/contracts/EnglishAuction.sol",
  "compiler": {
    "name": "solc",
    "version": "0.6.12+commit.27d51765.Emscripten.clang"
  },
  "schemaVersion": "3.3.2",
  "updatedAt": "2021-04-18T02:35:24.377Z",
  "devdoc": {
    "author": "yzbbanban",
    "kind": "dev",
    "methods": {
      "onERC721Received(address,address,uint256,bytes)": {
        "details": "See {IERC721Receiver-onERC721Received}. Always returns `IERC721Receiver.onERC721Received.selector`."
      },
      "owner()": {
        "details": "Returns the address of the current owner."
      },
      "renounceOwnership()": {
        "details": "Leaves the contract without owner. It will not be possible to call `onlyOwner` functions anymore. Can only be called by the current owner. NOTE: Renouncing ownership will leave the contract without an owner, thereby removing any functionality that is only available to the owner."
      },
      "transferOwnership(address)": {
        "details": "Transfers ownership of the contract to a new account (`newOwner`). Can only be called by the current owner."
      }
    },
    "title": "English auction",
    "version": 1
  },
  "userdoc": {
    "kind": "user",
    "methods": {},
    "notice": "buy token",
    "version": 1
  }
}