{
  "contractName": "EnglishAuction",
  "abi": [
    {
      "inputs": [
        {
          "internalType": "contract IAgERC721",
          "name": "_artGee",
          "type": "address"
        },
        {
          "internalType": "address",
          "name": "_platform",
          "type": "address"
        }
      ],
      "stateMutability": "nonpayable",
      "type": "constructor"
    },
    {
      "anonymous": false,
      "inputs": [
        {
          "indexed": true,
          "internalType": "uint256",
          "name": "_auctionId",
          "type": "uint256"
        },
        {
          "indexed": false,
          "internalType": "address",
          "name": "_token",
          "type": "address"
        },
        {
          "indexed": false,
          "internalType": "uint256",
          "name": "_tokenId",
          "type": "uint256"
        },
        {
          "indexed": false,
          "internalType": "address",
          "name": "_seller",
          "type": "address"
        },
        {
          "indexed": false,
          "internalType": "uint256",
          "name": "_openingBid",
          "type": "uint256"
        },
        {
          "indexed": false,
          "internalType": "uint256",
          "name": "_bidIncrements",
          "type": "uint256"
        },
        {
          "indexed": false,
          "internalType": "uint256",
          "name": "_startTime",
          "type": "uint256"
        },
        {
          "indexed": false,
          "internalType": "uint256",
          "name": "_expirationTime",
          "type": "uint256"
        },
        {
          "indexed": false,
          "internalType": "uint32",
          "name": "_auctionStatus",
          "type": "uint32"
        }
      ],
      "name": "Auction",
      "type": "event"
    },
    {
      "anonymous": false,
      "inputs": [
        {
          "indexed": true,
          "internalType": "uint256",
          "name": "_auctionId",
          "type": "uint256"
        },
        {
          "indexed": false,
          "internalType": "address",
          "name": "_bidder",
          "type": "address"
        },
        {
          "indexed": false,
          "internalType": "uint256",
          "name": "_bidPrice",
          "type": "uint256"
        },
        {
          "indexed": false,
          "internalType": "uint256",
          "name": "_bidCount",
          "type": "uint256"
        },
        {
          "indexed": false,
          "internalType": "uint32",
          "name": "_auctionStatus",
          "type": "uint32"
        }
      ],
      "name": "Bid",
      "type": "event"
    },
    {
      "anonymous": false,
      "inputs": [
        {
          "indexed": true,
          "internalType": "uint256",
          "name": "_auctionId",
          "type": "uint256"
        },
        {
          "indexed": false,
          "internalType": "address",
          "name": "_seller",
          "type": "address"
        },
        {
          "indexed": false,
          "internalType": "address",
          "name": "_token",
          "type": "address"
        },
        {
          "indexed": false,
          "internalType": "uint256",
          "name": "_tokenId",
          "type": "uint256"
        },
        {
          "indexed": false,
          "internalType": "uint256",
          "name": "_bidPrice",
          "type": "uint256"
        },
        {
          "indexed": false,
          "internalType": "uint32",
          "name": "_auctionStatus",
          "type": "uint32"
        }
      ],
      "name": "Cancel",
      "type": "event"
    },
    {
      "anonymous": false,
      "inputs": [
        {
          "indexed": false,
          "internalType": "uint256",
          "name": "_extendTime",
          "type": "uint256"
        },
        {
          "indexed": false,
          "internalType": "uint256",
          "name": "_reverseTime",
          "type": "uint256"
        }
      ],
      "name": "LastParam",
      "type": "event"
    },
    {
      "anonymous": false,
      "inputs": [
        {
          "indexed": true,
          "internalType": "address",
          "name": "previousOperator",
          "type": "address"
        },
        {
          "indexed": true,
          "internalType": "address",
          "name": "newOperator",
          "type": "address"
        }
      ],
      "name": "OperatorTransferred",
      "type": "event"
    },
    {
      "anonymous": false,
      "inputs": [
        {
          "indexed": true,
          "internalType": "address",
          "name": "previousOwner",
          "type": "address"
        },
        {
          "indexed": true,
          "internalType": "address",
          "name": "newOwner",
          "type": "address"
        }
      ],
      "name": "OwnershipTransferred",
      "type": "event"
    },
    {
      "anonymous": false,
      "inputs": [
        {
          "indexed": true,
          "internalType": "uint256",
          "name": "_auctionId",
          "type": "uint256"
        },
        {
          "indexed": false,
          "internalType": "address",
          "name": "_token",
          "type": "address"
        },
        {
          "indexed": false,
          "internalType": "uint256",
          "name": "_tokenId",
          "type": "uint256"
        },
        {
          "indexed": false,
          "internalType": "address",
          "name": "_seller",
          "type": "address"
        },
        {
          "indexed": false,
          "internalType": "uint256",
          "name": "_openingBid",
          "type": "uint256"
        },
        {
          "indexed": false,
          "internalType": "uint256",
          "name": "_bidIncrements",
          "type": "uint256"
        },
        {
          "indexed": false,
          "internalType": "uint256",
          "name": "_startTime",
          "type": "uint256"
        },
        {
          "indexed": false,
          "internalType": "uint256",
          "name": "_expirationTime",
          "type": "uint256"
        },
        {
          "indexed": false,
          "internalType": "uint32",
          "name": "_auctionStatus",
          "type": "uint32"
        }
      ],
      "name": "ReAuction",
      "type": "event"
    },
    {
      "anonymous": false,
      "inputs": [
        {
          "indexed": true,
          "internalType": "uint256",
          "name": "_auctionId",
          "type": "uint256"
        },
        {
          "indexed": false,
          "internalType": "address",
          "name": "_bidder",
          "type": "address"
        },
        {
          "indexed": false,
          "internalType": "uint256",
          "name": "_bidPrice",
          "type": "uint256"
        },
        {
          "indexed": false,
          "internalType": "uint32",
          "name": "_auctionStatus",
          "type": "uint32"
        }
      ],
      "name": "Reverse",
      "type": "event"
    },
    {
      "anonymous": false,
      "inputs": [
        {
          "indexed": true,
          "internalType": "uint256",
          "name": "_auctionId",
          "type": "uint256"
        },
        {
          "indexed": false,
          "internalType": "address",
          "name": "_bidder",
          "type": "address"
        },
        {
          "indexed": false,
          "internalType": "uint256",
          "name": "_bidPrice",
          "type": "uint256"
        },
        {
          "indexed": false,
          "internalType": "uint32",
          "name": "_auctionStatus",
          "type": "uint32"
        }
      ],
      "name": "Selling",
      "type": "event"
    },
    {
      "anonymous": false,
      "inputs": [
        {
          "indexed": true,
          "internalType": "uint256",
          "name": "_auctionId",
          "type": "uint256"
        },
        {
          "indexed": false,
          "internalType": "address",
          "name": "_bidder",
          "type": "address"
        },
        {
          "indexed": false,
          "internalType": "uint256",
          "name": "_bidPrice",
          "type": "uint256"
        },
        {
          "indexed": false,
          "internalType": "uint32",
          "name": "_auctionStatus",
          "type": "uint32"
        }
      ],
      "name": "Withdraw",
      "type": "event"
    },
    {
      "inputs": [
        {
          "internalType": "uint256",
          "name": "",
          "type": "uint256"
        }
      ],
      "name": "artList",
      "outputs": [
        {
          "internalType": "uint256",
          "name": "",
          "type": "uint256"
        }
      ],
      "stateMutability": "view",
      "type": "function"
    },
    {
      "inputs": [
        {
          "internalType": "uint256",
          "name": "",
          "type": "uint256"
        }
      ],
      "name": "artPercent",
      "outputs": [
        {
          "internalType": "uint256",
          "name": "",
          "type": "uint256"
        }
      ],
      "stateMutability": "view",
      "type": "function"
    },
    {
      "inputs": [],
      "name": "basePercent",
      "outputs": [
        {
          "internalType": "uint256",
          "name": "",
          "type": "uint256"
        }
      ],
      "stateMutability": "view",
      "type": "function"
    },
    {
      "inputs": [
        {
          "internalType": "uint256",
          "name": "",
          "type": "uint256"
        }
      ],
      "name": "bidInfos",
      "outputs": [
        {
          "internalType": "address",
          "name": "token",
          "type": "address"
        },
        {
          "internalType": "uint256",
          "name": "tokenId",
          "type": "uint256"
        },
        {
          "internalType": "address",
          "name": "seller",
          "type": "address"
        },
        {
          "internalType": "address",
          "name": "bidder",
          "type": "address"
        },
        {
          "internalType": "uint256",
          "name": "openingBid",
          "type": "uint256"
        },
        {
          "internalType": "uint256",
          "name": "reservePrice",
          "type": "uint256"
        },
        {
          "internalType": "uint256",
          "name": "bidIncrements",
          "type": "uint256"
        },
        {
          "internalType": "uint256",
          "name": "bidPrice",
          "type": "uint256"
        },
        {
          "internalType": "uint256",
          "name": "bidCount",
          "type": "uint256"
        },
        {
          "internalType": "uint256",
          "name": "startTime",
          "type": "uint256"
        },
        {
          "internalType": "uint32",
          "name": "auctionStatus",
          "type": "uint32"
        },
        {
          "internalType": "uint256",
          "name": "expirationTime",
          "type": "uint256"
        }
      ],
      "stateMutability": "view",
      "type": "function"
    },
    {
      "inputs": [],
      "name": "extendTime",
      "outputs": [
        {
          "internalType": "uint256",
          "name": "",
          "type": "uint256"
        }
      ],
      "stateMutability": "view",
      "type": "function"
    },
    {
      "inputs": [],
      "name": "feePercent",
      "outputs": [
        {
          "internalType": "uint256",
          "name": "",
          "type": "uint256"
        }
      ],
      "stateMutability": "view",
      "type": "function"
    },
    {
      "inputs": [
        {
          "internalType": "address",
          "name": "",
          "type": "address"
        },
        {
          "internalType": "uint256",
          "name": "",
          "type": "uint256"
        }
      ],
      "name": "isNotFirstAuction",
      "outputs": [
        {
          "internalType": "bool",
          "name": "",
          "type": "bool"
        }
      ],
      "stateMutability": "view",
      "type": "function"
    },
    {
      "inputs": [],
      "name": "isOperator",
      "outputs": [
        {
          "internalType": "bool",
          "name": "",
          "type": "bool"
        }
      ],
      "stateMutability": "view",
      "type": "function"
    },
    {
      "inputs": [
        {
          "internalType": "address",
          "name": "",
          "type": "address"
        },
        {
          "internalType": "uint256",
          "name": "",
          "type": "uint256"
        }
      ],
      "name": "myBidInfos",
      "outputs": [
        {
          "internalType": "uint256",
          "name": "",
          "type": "uint256"
        }
      ],
      "stateMutability": "view",
      "type": "function"
    },
    {
      "inputs": [],
      "name": "operator",
      "outputs": [
        {
          "internalType": "address",
          "name": "",
          "type": "address"
        }
      ],
      "stateMutability": "view",
      "type": "function"
    },
    {
      "inputs": [],
      "name": "owner",
      "outputs": [
        {
          "internalType": "address",
          "name": "",
          "type": "address"
        }
      ],
      "stateMutability": "view",
      "type": "function"
    },
    {
      "inputs": [],
      "name": "platform",
      "outputs": [
        {
          "internalType": "address",
          "name": "",
          "type": "address"
        }
      ],
      "stateMutability": "view",
      "type": "function"
    },
    {
      "inputs": [],
      "name": "renounceOwnership",
      "outputs": [],
      "stateMutability": "nonpayable",
      "type": "function"
    },
    {
      "inputs": [],
      "name": "reverseTime",
      "outputs": [
        {
          "internalType": "uint256",
          "name": "",
          "type": "uint256"
        }
      ],
      "stateMutability": "view",
      "type": "function"
    },
    {
      "inputs": [
        {
          "internalType": "address",
          "name": "newOperator_",
          "type": "address"
        }
      ],
      "name": "transferOperator",
      "outputs": [],
      "stateMutability": "nonpayable",
      "type": "function"
    },
    {
      "inputs": [
        {
          "internalType": "address",
          "name": "newOwner",
          "type": "address"
        }
      ],
      "name": "transferOwnership",
      "outputs": [],
      "stateMutability": "nonpayable",
      "type": "function"
    },
    {
      "stateMutability": "payable",
      "type": "receive"
    },
    {
      "inputs": [
        {
          "internalType": "address",
          "name": "_owner",
          "type": "address"
        }
      ],
      "name": "getMyArtList",
      "outputs": [
        {
          "internalType": "uint256[]",
          "name": "",
          "type": "uint256[]"
        }
      ],
      "stateMutability": "view",
      "type": "function"
    },
    {
      "inputs": [],
      "name": "getArtList",
      "outputs": [
        {
          "internalType": "uint256[]",
          "name": "_artList",
          "type": "uint256[]"
        }
      ],
      "stateMutability": "view",
      "type": "function"
    },
    {
      "inputs": [
        {
          "internalType": "uint256",
          "name": "_extendTime",
          "type": "uint256"
        },
        {
          "internalType": "uint256",
          "name": "_reverseTime",
          "type": "uint256"
        }
      ],
      "name": "setReverseTime",
      "outputs": [],
      "stateMutability": "nonpayable",
      "type": "function"
    },
    {
      "inputs": [
        {
          "internalType": "contract IAgERC721",
          "name": "_artGee",
          "type": "address"
        },
        {
          "internalType": "address",
          "name": "_platform",
          "type": "address"
        }
      ],
      "name": "setArtgee",
      "outputs": [],
      "stateMutability": "nonpayable",
      "type": "function"
    },
    {
      "inputs": [
        {
          "internalType": "uint256[2]",
          "name": "_artPercents",
          "type": "uint256[2]"
        }
      ],
      "name": "setArtPercent",
      "outputs": [],
      "stateMutability": "nonpayable",
      "type": "function"
    },
    {
      "inputs": [
        {
          "internalType": "address",
          "name": "_token",
          "type": "address"
        },
        {
          "internalType": "uint256",
          "name": "_tokenId",
          "type": "uint256"
        },
        {
          "internalType": "uint256",
          "name": "_openingBid",
          "type": "uint256"
        },
        {
          "internalType": "uint256",
          "name": "_bidIncrements",
          "type": "uint256"
        },
        {
          "internalType": "uint256",
          "name": "_reservePrice",
          "type": "uint256"
        },
        {
          "internalType": "uint256",
          "name": "_startTime",
          "type": "uint256"
        },
        {
          "internalType": "uint256",
          "name": "_expirationTime",
          "type": "uint256"
        }
      ],
      "name": "auction",
      "outputs": [],
      "stateMutability": "nonpayable",
      "type": "function"
    },
    {
      "inputs": [
        {
          "internalType": "uint256",
          "name": "_auctionId",
          "type": "uint256"
        },
        {
          "internalType": "uint256",
          "name": "_openingBid",
          "type": "uint256"
        },
        {
          "internalType": "uint256",
          "name": "_bidIncrements",
          "type": "uint256"
        },
        {
          "internalType": "uint256",
          "name": "_reservePrice",
          "type": "uint256"
        },
        {
          "internalType": "uint256",
          "name": "_startTime",
          "type": "uint256"
        },
        {
          "internalType": "uint256",
          "name": "_expirationTime",
          "type": "uint256"
        }
      ],
      "name": "reAuction",
      "outputs": [],
      "stateMutability": "nonpayable",
      "type": "function"
    },
    {
      "inputs": [
        {
          "internalType": "uint256",
          "name": "_auctionId",
          "type": "uint256"
        }
      ],
      "name": "bid",
      "outputs": [],
      "stateMutability": "payable",
      "type": "function"
    },
    {
      "inputs": [
        {
          "internalType": "uint256",
          "name": "_auctionId",
          "type": "uint256"
        }
      ],
      "name": "getCurrentPrice",
      "outputs": [
        {
          "internalType": "uint256",
          "name": "_nowBidPrice",
          "type": "uint256"
        }
      ],
      "stateMutability": "view",
      "type": "function"
    },
    {
      "inputs": [
        {
          "internalType": "uint256",
          "name": "_auctionId",
          "type": "uint256"
        }
      ],
      "name": "cancel",
      "outputs": [],
      "stateMutability": "nonpayable",
      "type": "function"
    },
    {
      "inputs": [
        {
          "internalType": "uint256",
          "name": "_auctionId",
          "type": "uint256"
        }
      ],
      "name": "sellingSettlementPrice",
      "outputs": [],
      "stateMutability": "nonpayable",
      "type": "function"
    },
    {
      "inputs": [
        {
          "internalType": "uint256",
          "name": "_auctionId",
          "type": "uint256"
        }
      ],
      "name": "bidderReverse",
      "outputs": [],
      "stateMutability": "nonpayable",
      "type": "function"
    },
    {
      "inputs": [
        {
          "internalType": "uint256",
          "name": "_auctionId",
          "type": "uint256"
        }
      ],
      "name": "withdraw",
      "outputs": [],
      "stateMutability": "nonpayable",
      "type": "function"
    },
    {
      "inputs": [
        {
          "internalType": "address",
          "name": "",
          "type": "address"
        },
        {
          "internalType": "address",
          "name": "",
          "type": "address"
        },
        {
          "internalType": "uint256",
          "name": "",
          "type": "uint256"
        },
        {
          "internalType": "bytes",
          "name": "",
          "type": "bytes"
        }
      ],
      "name": "onERC721Received",
      "outputs": [
        {
          "internalType": "bytes4",
          "name": "",
          "type": "bytes4"
        }
      ],
      "stateMutability": "pure",
      "type": "function"
    }
  ],
  "bytecode": "0x6080604052610384600455620697806005556064600655604051806040016040528060c860ff168152602001606460ff16815250600790600262000045929190620002a9565b506103e86008553480156200005957600080fd5b506040516200521538038062005215833981810160405260408110156200007f57600080fd5b8101908080519060200190929190805190602001909291905050506000620000ac620002a160201b60201c565b9050806000806101000a81548173ffffffffffffffffffffffffffffffffffffffff021916908373ffffffffffffffffffffffffffffffffffffffff1602179055508073ffffffffffffffffffffffffffffffffffffffff16600073ffffffffffffffffffffffffffffffffffffffff167f8be0079c531659141344cd1fd0a4f28419497f9722a3daafe3b4186f6b6457e060405160405180910390a3506200015a620002a160201b60201c565b600160006101000a81548173ffffffffffffffffffffffffffffffffffffffff021916908373ffffffffffffffffffffffffffffffffffffffff160217905550600160009054906101000a900473ffffffffffffffffffffffffffffffffffffffff1673ffffffffffffffffffffffffffffffffffffffff16600073ffffffffffffffffffffffffffffffffffffffff167f74da04524d50c64947f5dd5381ef1a4dca5cba8ed1d816243f9e48aa0b5617ed60405160405180910390a381600d60006101000a81548173ffffffffffffffffffffffffffffffffffffffff021916908373ffffffffffffffffffffffffffffffffffffffff16021790555080600960006101000a81548173ffffffffffffffffffffffffffffffffffffffff021916908373ffffffffffffffffffffffffffffffffffffffff16021790555050506200031f565b600033905090565b828054828255906000526020600020908101928215620002ed579160200282015b82811115620002ec578251829060ff16905591602001919060010190620002ca565b5b509050620002fc919062000300565b5090565b5b808211156200031b57600081600090555060010162000301565b5090565b614ee6806200032f6000396000f3fe6080604052600436106101d15760003560e01c806376467423116100f7578063b8980b6411610095578063f288f46f11610064578063f288f46f14610a85578063f2ec6fad14610b69578063f2fde38b14610bb8578063f628c50514610c09576101d8565b8063b8980b641461098b578063c55d0f56146109d0578063c5ac0ded14610a1f578063cb350d2614610a4a576101d8565b80638e4bb9a1116100d15780638e4bb9a11461085a578063a525d19914610885578063abb6ae89146108f4578063b76b63ec1461091f576101d8565b8063764674231461079f5780637fd6f15c146107ee5780638da5cb5b14610819576101d8565b80632e1a7d4d1161016f5780634bde38c81161013e5780634bde38c8146106cb578063570ca7351461070c5780635b4458a01461074d578063715018a614610788576101d8565b80632e1a7d4d146105fa57806340e58ee5146106355780634456eda214610670578063454a2ab31461069d576101d8565b8063150b7a02116101ab578063150b7a021461034c57806316c1f0471461049157806319e9e3c81461050357806329605e77146105a9576101d8565b80630773b15b146101dd57806309858e431461024e578063122e986f146102db576101d8565b366101d857005b600080fd5b3480156101e957600080fd5b506102366004803603604081101561020057600080fd5b81019080803573ffffffffffffffffffffffffffffffffffffffff16906020019092919080359060200190929190505050610c76565b60405180821515815260200191505060405180910390f35b34801561025a57600080fd5b506102d9600480360360e081101561027157600080fd5b81019080803573ffffffffffffffffffffffffffffffffffffffff169060200190929190803590602001909291908035906020019092919080359060200190929190803590602001909291908035906020019092919080359060200190929190505050610ca5565b005b3480156102e757600080fd5b5061034a600480360360408110156102fe57600080fd5b81019080803573ffffffffffffffffffffffffffffffffffffffff169060200190929190803573ffffffffffffffffffffffffffffffffffffffff169060200190929190505050611014565b005b34801561035857600080fd5b5061045c6004803603608081101561036f57600080fd5b81019080803573ffffffffffffffffffffffffffffffffffffffff169060200190929190803573ffffffffffffffffffffffffffffffffffffffff16906020019092919080359060200190929190803590602001906401000000008111156103d657600080fd5b8201836020820111156103e857600080fd5b8035906020019184600183028401116401000000008311171561040a57600080fd5b91908080601f016020809104026020016040519081016040528093929190818152602001838380828437600081840152601f19601f820116905080830192505050505050509192919290505050611149565b60405180827bffffffffffffffffffffffffffffffffffffffffffffffffffffffff1916815260200191505060405180910390f35b34801561049d57600080fd5b50610501600480360360408110156104b457600080fd5b8101908080604001906002806020026040519081016040528092919082600260200280828437600081840152601f19601f820116905080830192505050505050919291929050505061115d565b005b34801561050f57600080fd5b506105526004803603602081101561052657600080fd5b81019080803573ffffffffffffffffffffffffffffffffffffffff16906020019092919050505061126b565b6040518080602001828103825283818151815260200191508051906020019060200280838360005b8381101561059557808201518184015260208101905061057a565b505050509050019250505060405180910390f35b3480156105b557600080fd5b506105f8600480360360208110156105cc57600080fd5b81019080803573ffffffffffffffffffffffffffffffffffffffff169060200190929190505050611302565b005b34801561060657600080fd5b506106336004803603602081101561061d57600080fd5b81019080803590602001909291905050506113bd565b005b34801561064157600080fd5b5061066e6004803603602081101561065857600080fd5b8101908080359060200190929190505050611f6d565b005b34801561067c57600080fd5b506106856124d7565b60405180821515815260200191505060405180910390f35b6106c9600480360360208110156106b357600080fd5b8101908080359060200190929190505050612536565b005b3480156106d757600080fd5b506106e0612ad8565b604051808273ffffffffffffffffffffffffffffffffffffffff16815260200191505060405180910390f35b34801561071857600080fd5b50610721612afe565b604051808273ffffffffffffffffffffffffffffffffffffffff16815260200191505060405180910390f35b34801561075957600080fd5b506107866004803603602081101561077057600080fd5b8101908080359060200190929190505050612b28565b005b34801561079457600080fd5b5061079d6136d8565b005b3480156107ab57600080fd5b506107d8600480360360208110156107c257600080fd5b8101908080359060200190929190505050613845565b6040518082815260200191505060405180910390f35b3480156107fa57600080fd5b50610803613866565b6040518082815260200191505060405180910390f35b34801561082557600080fd5b5061082e61386c565b604051808273ffffffffffffffffffffffffffffffffffffffff16815260200191505060405180910390f35b34801561086657600080fd5b5061086f613895565b6040518082815260200191505060405180910390f35b34801561089157600080fd5b506108de600480360360408110156108a857600080fd5b81019080803573ffffffffffffffffffffffffffffffffffffffff1690602001909291908035906020019092919050505061389b565b6040518082815260200191505060405180910390f35b34801561090057600080fd5b506109096138c9565b6040518082815260200191505060405180910390f35b34801561092b57600080fd5b506109346138cf565b6040518080602001828103825283818151815260200191508051906020019060200280838360005b8381101561097757808201518184015260208101905061095c565b505050509050019250505060405180910390f35b34801561099757600080fd5b506109ce600480360360408110156109ae57600080fd5b810190808035906020019092919080359060200190929190505050613927565b005b3480156109dc57600080fd5b50610a09600480360360208110156109f357600080fd5b8101908080359060200190929190505050613a3d565b6040518082815260200191505060405180910390f35b348015610a2b57600080fd5b50610a34613c46565b6040518082815260200191505060405180910390f35b348015610a5657600080fd5b50610a8360048036036020811015610a6d57600080fd5b8101908080359060200190929190505050613c4c565b005b348015610a9157600080fd5b50610abe60048036036020811015610aa857600080fd5b8101908080359060200190929190505050613fae565b604051808d73ffffffffffffffffffffffffffffffffffffffff1681526020018c81526020018b73ffffffffffffffffffffffffffffffffffffffff1681526020018a73ffffffffffffffffffffffffffffffffffffffff1681526020018981526020018881526020018781526020018681526020018581526020018481526020018363ffffffff1681526020018281526020019c5050505050505050505050505060405180910390f35b348015610b7557600080fd5b50610ba260048036036020811015610b8c57600080fd5b810190808035906020019092919050505061407e565b6040518082815260200191505060405180910390f35b348015610bc457600080fd5b50610c0760048036036020811015610bdb57600080fd5b81019080803573ffffffffffffffffffffffffffffffffffffffff16906020019092919050505061409f565b005b348015610c1557600080fd5b50610c74600480360360c0811015610c2c57600080fd5b81019080803590602001909291908035906020019092919080359060200190929190803590602001909291908035906020019092919080359060200190929190505050614291565b005b600a6020528160005260406000206020528060005260406000206000915091509054906101000a900460ff1681565b428110158015610cb457508181115b610d26576040517f08c379a000000000000000000000000000000000000000000000000000000000815260040180806020018281038252600a8152602001807f54696d65206572726f720000000000000000000000000000000000000000000081525060200191505060405180910390fd5b610d306002614623565b6000610d3c6002614639565b90506000600360008381526020019081526020016000209050888160000160006101000a81548173ffffffffffffffffffffffffffffffffffffffff021916908373ffffffffffffffffffffffffffffffffffffffff160217905550878160010181905550338160020160006101000a81548173ffffffffffffffffffffffffffffffffffffffff021916908373ffffffffffffffffffffffffffffffffffffffff16021790555086816004018190555086816007018190555084816005018190555060008160030160006101000a81548173ffffffffffffffffffffffffffffffffffffffff021916908373ffffffffffffffffffffffffffffffffffffffff160217905550600081600801819055508581600601819055508381600901819055508281600b0181905550600081600a0160006101000a81548163ffffffff021916908363ffffffff16021790555060008990508073ffffffffffffffffffffffffffffffffffffffff166342842e0e33308c6040518463ffffffff1660e01b8152600401808473ffffffffffffffffffffffffffffffffffffffff1681526020018373ffffffffffffffffffffffffffffffffffffffff1681526020018281526020019350505050600060405180830381600087803b158015610f2057600080fd5b505af1158015610f34573d6000803e3d6000fd5b50505050610f423384614647565b600e839080600181540180825580915050600190039060005260206000200160009091909190915055827f2bdf3c6eed5e2202a7316215e5cf47a3187124f52e73786d8772a16856229df28b8b338c8c8b8b6000604051808973ffffffffffffffffffffffffffffffffffffffff1681526020018881526020018773ffffffffffffffffffffffffffffffffffffffff1681526020018681526020018581526020018481526020018381526020018281526020019850505050505050505060405180910390a250505050505050505050565b61101c614748565b73ffffffffffffffffffffffffffffffffffffffff1661103a61386c565b73ffffffffffffffffffffffffffffffffffffffff16146110c3576040517f08c379a00000000000000000000000000000000000000000000000000000000081526004018080602001828103825260208152602001807f4f776e61626c653a2063616c6c6572206973206e6f7420746865206f776e657281525060200191505060405180910390fd5b81600d60006101000a81548173ffffffffffffffffffffffffffffffffffffffff021916908373ffffffffffffffffffffffffffffffffffffffff16021790555080600960006101000a81548173ffffffffffffffffffffffffffffffffffffffff021916908373ffffffffffffffffffffffffffffffffffffffff1602179055505050565b600063150b7a0260e01b9050949350505050565b611165614748565b73ffffffffffffffffffffffffffffffffffffffff1661118361386c565b73ffffffffffffffffffffffffffffffffffffffff161461120c576040517f08c379a00000000000000000000000000000000000000000000000000000000081526004018080602001828103825260208152602001807f4f776e61626c653a2063616c6c6572206973206e6f7420746865206f776e657281525060200191505060405180910390fd5b8060006002811061121957fe5b6020020151600760008154811061122c57fe5b90600052602060002001819055508060016002811061124757fe5b6020020151600760018154811061125a57fe5b906000526020600020018190555050565b6060600b60008373ffffffffffffffffffffffffffffffffffffffff1673ffffffffffffffffffffffffffffffffffffffff1681526020019081526020016000208054806020026020016040519081016040528092919081815260200182805480156112f657602002820191906000526020600020905b8154815260200190600101908083116112e2575b50505050509050919050565b61130a614748565b73ffffffffffffffffffffffffffffffffffffffff1661132861386c565b73ffffffffffffffffffffffffffffffffffffffff16146113b1576040517f08c379a00000000000000000000000000000000000000000000000000000000081526004018080602001828103825260208152602001807f4f776e61626c653a2063616c6c6572206973206e6f7420746865206f776e657281525060200191505060405180910390fd5b6113ba81614750565b50565b60006003600083815260200190815260200160002090503373ffffffffffffffffffffffffffffffffffffffff168160030160009054906101000a900473ffffffffffffffffffffffffffffffffffffffff1673ffffffffffffffffffffffffffffffffffffffff1614611499576040517f08c379a000000000000000000000000000000000000000000000000000000000815260040180806020018281038252600a8152602001807f4e6f74206269646465720000000000000000000000000000000000000000000081525060200191505060405180910390fd5b600181600a0160009054906101000a900463ffffffff1663ffffffff1614611529576040517f08c379a00000000000000000000000000000000000000000000000000000000081526004018080602001828103825260138152602001807f5769746864726177206e6f74206f6e206269640000000000000000000000000081525060200191505060405180910390fd5b4281600b0154106115a2576040517f08c379a000000000000000000000000000000000000000000000000000000000815260040180806020018281038252600a8152602001807f4f6e2061756374696f6e0000000000000000000000000000000000000000000081525060200191505060405180910390fd5b6000816007015490508160050154811015611625576040517f08c379a00000000000000000000000000000000000000000000000000000000081526004018080602001828103825260168152602001807f4e6f74206f76657220726573657276652070726963650000000000000000000081525060200191505060405180910390fd5b600482600a0160006101000a81548163ffffffff021916908363ffffffff16021790555060008260000160009054906101000a900473ffffffffffffffffffffffffffffffffffffffff1690508073ffffffffffffffffffffffffffffffffffffffff166342842e0e308560030160009054906101000a900473ffffffffffffffffffffffffffffffffffffffff1686600101546040518463ffffffff1660e01b8152600401808473ffffffffffffffffffffffffffffffffffffffff1681526020018373ffffffffffffffffffffffffffffffffffffffff1681526020018281526020019350505050600060405180830381600087803b15801561172957600080fd5b505af115801561173d573d6000803e3d6000fd5b50505050600061176c60085461175e6006548661487590919063ffffffff16565b6148fb90919063ffffffff16565b9050600061179c600960009054906101000a900473ffffffffffffffffffffffffffffffffffffffff1683614984565b8460000160009054906101000a900473ffffffffffffffffffffffffffffffffffffffff1673ffffffffffffffffffffffffffffffffffffffff16600d60009054906101000a900473ffffffffffffffffffffffffffffffffffffffff1673ffffffffffffffffffffffffffffffffffffffff161415611e10576000600d60009054906101000a900473ffffffffffffffffffffffffffffffffffffffff1673ffffffffffffffffffffffffffffffffffffffff1663abb03ba687600101546040518263ffffffff1660e01b81526004018082815260200191505060606040518083038186803b15801561188f57600080fd5b505afa1580156118a3573d6000803e3d6000fd5b505050506040513d60608110156118b957600080fd5b81019080805190602001909291908051906020019092919080519060200190929190505050505090506000606080600d60009054906101000a900473ffffffffffffffffffffffffffffffffffffffff1673ffffffffffffffffffffffffffffffffffffffff1663e726d96b856040518263ffffffff1660e01b81526004018082815260200191505060006040518083038186803b15801561195a57600080fd5b505afa15801561196e573d6000803e3d6000fd5b505050506040513d6000823e3d601f19601f8201168201806040525060e081101561199857600080fd5b8101908080519060200190929190805190602001909291908051906020019092919080519060200190929190805160405193929190846401000000008211156119e057600080fd5b838201915060208201858111156119f657600080fd5b8251866020820283011164010000000082111715611a1357600080fd5b8083526020830192505050908051906020019060200280838360005b83811015611a4a578082015181840152602081019050611a2f565b5050505090500160405260200180516040519392919084640100000000821115611a7357600080fd5b83820191506020820185811115611a8957600080fd5b8251866020820283011164010000000082111715611aa657600080fd5b8083526020830192505050908051906020019060200280838360005b83811015611add578082015181840152602081019050611ac2565b5050505090500160405260200180516040519392919084640100000000821115611b0657600080fd5b83820191506020820185811115611b1c57600080fd5b8251866001820283011164010000000082111715611b3957600080fd5b8083526020830192505050908051906020019080838360005b83811015611b6d578082015181840152602081019050611b52565b50505050905090810190601f168015611b9a5780820380516001836020036101000a031916815260200191505b50604052505050509550955095505050506000600a60008b60000160009054906101000a900473ffffffffffffffffffffffffffffffffffffffff1673ffffffffffffffffffffffffffffffffffffffff1673ffffffffffffffffffffffffffffffffffffffff16815260200190815260200160002060008b60010154815260200190815260200160002060009054906101000a900460ff169050611c98600854611c8a83611c61576007600081548110611c5157fe5b9060005260206000200154611c7b565b6007600181548110611c6f57fe5b90600052602060002001545b8c61487590919063ffffffff16565b6148fb90919063ffffffff16565b9550600083511415611cb357611cae8487614984565b611d79565b60005b8251811015611d77576000811415611d1057611d0b85611d06600854611cf8878681518110611ce157fe5b60200260200101518c61487590919063ffffffff16565b6148fb90919063ffffffff16565b614984565b611d6a565b611d69846001830381518110611d2257fe5b6020026020010151611d64600854611d56878681518110611d3f57fe5b60200260200101518c61487590919063ffffffff16565b6148fb90919063ffffffff16565b614984565b5b8080600101915050611cb6565b505b6001600a60008c60000160009054906101000a900473ffffffffffffffffffffffffffffffffffffffff1673ffffffffffffffffffffffffffffffffffffffff1673ffffffffffffffffffffffffffffffffffffffff16815260200190815260200160002060008c60010154815260200190815260200160002060006101000a81548160ff02191690831515021790555050505050505b611e628560020160009054906101000a900473ffffffffffffffffffffffffffffffffffffffff16611e5d83611e4f8689614a6590919063ffffffff16565b614a6590919063ffffffff16565b614984565b611e908560020160009054906101000a900473ffffffffffffffffffffffffffffffffffffffff1687614ae8565b611ebe8560030160009054906101000a900473ffffffffffffffffffffffffffffffffffffffff1687614ae8565b857fdbdada1701c03bed554eb237ef0090f726867fc1cf258edfb3ff2aca6bf0bb588660030160009054906101000a900473ffffffffffffffffffffffffffffffffffffffff16611f2a84611f1c878a614a6590919063ffffffff16565b614a6590919063ffffffff16565b6004604051808473ffffffffffffffffffffffffffffffffffffffff168152602001838152602001828152602001935050505060405180910390a2505050505050565b60006003600083815260200190815260200160002090503373ffffffffffffffffffffffffffffffffffffffff168160020160009054906101000a900473ffffffffffffffffffffffffffffffffffffffff1673ffffffffffffffffffffffffffffffffffffffff1614612049576040517f08c379a00000000000000000000000000000000000000000000000000000000081526004018080602001828103825260158152602001807f4e6f742061756374696f6e2069642073656c6c6572000000000000000000000081525060200191505060405180910390fd5b4281600b0154106120c2576040517f08c379a000000000000000000000000000000000000000000000000000000000815260040180806020018281038252600a8152602001807f4f6e2061756374696f6e0000000000000000000000000000000000000000000081525060200191505060405180910390fd5b806005015481600701541061213f576040517f08c379a000000000000000000000000000000000000000000000000000000000815260040180806020018281038252600b8152602001807f426964207375636365737300000000000000000000000000000000000000000081525060200191505060405180910390fd5b600081600a0160009054906101000a900463ffffffff1663ffffffff1614806121825750600181600a0160009054906101000a900463ffffffff1663ffffffff16145b6121f4576040517f08c379a00000000000000000000000000000000000000000000000000000000081526004018080602001828103825260078152602001807f486173206269640000000000000000000000000000000000000000000000000081525060200191505060405180910390fd5b600073ffffffffffffffffffffffffffffffffffffffff168160030160009054906101000a900473ffffffffffffffffffffffffffffffffffffffff1673ffffffffffffffffffffffffffffffffffffffff161461227b5761227a8160030160009054906101000a900473ffffffffffffffffffffffffffffffffffffffff1683614ae8565b5b6000600182600a0160009054906101000a900463ffffffff1663ffffffff16141561230857816007015490506122d98260030160009054906101000a900473ffffffffffffffffffffffffffffffffffffffff168360070154614984565b6123078260020160009054906101000a900473ffffffffffffffffffffffffffffffffffffffff1684614ae8565b5b60008260000160009054906101000a900473ffffffffffffffffffffffffffffffffffffffff1690508073ffffffffffffffffffffffffffffffffffffffff166342842e0e303386600101546040518463ffffffff1660e01b8152600401808473ffffffffffffffffffffffffffffffffffffffff1681526020018373ffffffffffffffffffffffffffffffffffffffff1681526020018281526020019350505050600060405180830381600087803b1580156123c457600080fd5b505af11580156123d8573d6000803e3d6000fd5b50505050600583600a0160006101000a81548163ffffffff021916908363ffffffff160217905550837f56014932f028bcb7dfcfdf013d04a4d6b33caccc3eccf2c71908b7e4fbf4be1d8460020160009054906101000a900473ffffffffffffffffffffffffffffffffffffffff168560000160009054906101000a900473ffffffffffffffffffffffffffffffffffffffff168660010154866005604051808673ffffffffffffffffffffffffffffffffffffffff1681526020018573ffffffffffffffffffffffffffffffffffffffff1681526020018481526020018381526020018281526020019550505050505060405180910390a250505050565b6000600160009054906101000a900473ffffffffffffffffffffffffffffffffffffffff1673ffffffffffffffffffffffffffffffffffffffff1661251a614748565b73ffffffffffffffffffffffffffffffffffffffff1614905090565b600060036000838152602001908152602001600020905080600b01544211156125c7576040517f08c379a000000000000000000000000000000000000000000000000000000000815260040180806020018281038252600c8152602001807f41756374696f6e206f766572000000000000000000000000000000000000000081525060200191505060405180910390fd5b600081600a0160009054906101000a900463ffffffff1663ffffffff16148061260a5750600181600a0160009054906101000a900463ffffffff1663ffffffff16145b61267c576040517f08c379a000000000000000000000000000000000000000000000000000000000815260040180806020018281038252600e8152602001807f4e6f74206f6e2061756374696f6e00000000000000000000000000000000000081525060200191505060405180910390fd5b8060020160009054906101000a900473ffffffffffffffffffffffffffffffffffffffff1673ffffffffffffffffffffffffffffffffffffffff163373ffffffffffffffffffffffffffffffffffffffff161415612742576040517f08c379a00000000000000000000000000000000000000000000000000000000081526004018080602001828103825260128152602001807f53656c6c65722063616e206e6f7420626964000000000000000000000000000081525060200191505060405180910390fd5b8060030160009054906101000a900473ffffffffffffffffffffffffffffffffffffffff1673ffffffffffffffffffffffffffffffffffffffff163373ffffffffffffffffffffffffffffffffffffffff161415612808576040517f08c379a00000000000000000000000000000000000000000000000000000000081526004018080602001828103825260198152602001807f4269646465722063616e206e6f7420726570656174206269640000000000000081525060200191505060405180910390fd5b60008160070154905060008260080154146128955761284f8260030160009054906101000a900473ffffffffffffffffffffffffffffffffffffffff168360070154614984565b6128926008546128846128716008548660060154614d0b90919063ffffffff16565b856007015461487590919063ffffffff16565b6148fb90919063ffffffff16565b90505b80341461290a576040517f08c379a000000000000000000000000000000000000000000000000000000000815260040180806020018281038252600b8152602001807f56616c7565206572726f7200000000000000000000000000000000000000000081525060200191505060405180910390fd5b80826007018190555060045461292d4284600b0154614a6590919063ffffffff16565b116129505761294760045442614d0b90919063ffffffff16565b82600b01819055505b600073ffffffffffffffffffffffffffffffffffffffff168260030160009054906101000a900473ffffffffffffffffffffffffffffffffffffffff1673ffffffffffffffffffffffffffffffffffffffff16146129d7576129d68260030160009054906101000a900473ffffffffffffffffffffffffffffffffffffffff1684614ae8565b5b6129e13384614647565b338260030160006101000a81548173ffffffffffffffffffffffffffffffffffffffff021916908373ffffffffffffffffffffffffffffffffffffffff160217905550600182600a0160006101000a81548163ffffffff021916908363ffffffff160217905550612a6060018360080154614d0b90919063ffffffff16565b8260080181905550827feedb6adad92a1863f9c1749992decb8b66c1f0c52c780493a614f06837e3f1fe338385600801546001604051808573ffffffffffffffffffffffffffffffffffffffff16815260200184815260200183815260200182815260200194505050505060405180910390a2505050565b600960009054906101000a900473ffffffffffffffffffffffffffffffffffffffff1681565b6000600160009054906101000a900473ffffffffffffffffffffffffffffffffffffffff16905090565b60006003600083815260200190815260200160002090508060020160009054906101000a900473ffffffffffffffffffffffffffffffffffffffff1673ffffffffffffffffffffffffffffffffffffffff163373ffffffffffffffffffffffffffffffffffffffff1614612c04576040517f08c379a000000000000000000000000000000000000000000000000000000000815260040180806020018281038252600a8152602001807f4e6f742073656c6c65720000000000000000000000000000000000000000000081525060200191505060405180910390fd5b600181600a0160009054906101000a900463ffffffff1663ffffffff1614612c94576040517f08c379a000000000000000000000000000000000000000000000000000000000815260040180806020018281038252600a8152602001807f4e6f74206f6e206269640000000000000000000000000000000000000000000081525060200191505060405180910390fd5b4281600b015410612d0d576040517f08c379a000000000000000000000000000000000000000000000000000000000815260040180806020018281038252600a8152602001807f4f6e2061756374696f6e0000000000000000000000000000000000000000000081525060200191505060405180910390fd5b600381600a0160006101000a81548163ffffffff021916908363ffffffff1602179055506000816007015490508160050154811015612db4576040517f08c379a00000000000000000000000000000000000000000000000000000000081526004018080602001828103825260168152602001807f4e6f74206f76657220726573657276652070726963650000000000000000000081525060200191505060405180910390fd5b60008260000160009054906101000a900473ffffffffffffffffffffffffffffffffffffffff1690508073ffffffffffffffffffffffffffffffffffffffff166342842e0e308560030160009054906101000a900473ffffffffffffffffffffffffffffffffffffffff1686600101546040518463ffffffff1660e01b8152600401808473ffffffffffffffffffffffffffffffffffffffff1681526020018373ffffffffffffffffffffffffffffffffffffffff1681526020018281526020019350505050600060405180830381600087803b158015612e9457600080fd5b505af1158015612ea8573d6000803e3d6000fd5b505050506000612ed7600854612ec96006548661487590919063ffffffff16565b6148fb90919063ffffffff16565b90506000612f07600960009054906101000a900473ffffffffffffffffffffffffffffffffffffffff1683614984565b8460000160009054906101000a900473ffffffffffffffffffffffffffffffffffffffff1673ffffffffffffffffffffffffffffffffffffffff16600d60009054906101000a900473ffffffffffffffffffffffffffffffffffffffff1673ffffffffffffffffffffffffffffffffffffffff16141561357b576000600d60009054906101000a900473ffffffffffffffffffffffffffffffffffffffff1673ffffffffffffffffffffffffffffffffffffffff1663abb03ba687600101546040518263ffffffff1660e01b81526004018082815260200191505060606040518083038186803b158015612ffa57600080fd5b505afa15801561300e573d6000803e3d6000fd5b505050506040513d606081101561302457600080fd5b81019080805190602001909291908051906020019092919080519060200190929190505050505090506000606080600d60009054906101000a900473ffffffffffffffffffffffffffffffffffffffff1673ffffffffffffffffffffffffffffffffffffffff1663e726d96b856040518263ffffffff1660e01b81526004018082815260200191505060006040518083038186803b1580156130c557600080fd5b505afa1580156130d9573d6000803e3d6000fd5b505050506040513d6000823e3d601f19601f8201168201806040525060e081101561310357600080fd5b81019080805190602001909291908051906020019092919080519060200190929190805190602001909291908051604051939291908464010000000082111561314b57600080fd5b8382019150602082018581111561316157600080fd5b825186602082028301116401000000008211171561317e57600080fd5b8083526020830192505050908051906020019060200280838360005b838110156131b557808201518184015260208101905061319a565b50505050905001604052602001805160405193929190846401000000008211156131de57600080fd5b838201915060208201858111156131f457600080fd5b825186602082028301116401000000008211171561321157600080fd5b8083526020830192505050908051906020019060200280838360005b8381101561324857808201518184015260208101905061322d565b505050509050016040526020018051604051939291908464010000000082111561327157600080fd5b8382019150602082018581111561328757600080fd5b82518660018202830111640100000000821117156132a457600080fd5b8083526020830192505050908051906020019080838360005b838110156132d85780820151818401526020810190506132bd565b50505050905090810190601f1680156133055780820380516001836020036101000a031916815260200191505b50604052505050509550955095505050506000600a60008b60000160009054906101000a900473ffffffffffffffffffffffffffffffffffffffff1673ffffffffffffffffffffffffffffffffffffffff1673ffffffffffffffffffffffffffffffffffffffff16815260200190815260200160002060008b60010154815260200190815260200160002060009054906101000a900460ff1690506134036008546133f5836133cc5760076000815481106133bc57fe5b90600052602060002001546133e6565b60076001815481106133da57fe5b90600052602060002001545b8c61487590919063ffffffff16565b6148fb90919063ffffffff16565b955060008351141561341e576134198487614984565b6134e4565b60005b82518110156134e257600081141561347b576134768561347160085461346387868151811061344c57fe5b60200260200101518c61487590919063ffffffff16565b6148fb90919063ffffffff16565b614984565b6134d5565b6134d484600183038151811061348d57fe5b60200260200101516134cf6008546134c18786815181106134aa57fe5b60200260200101518c61487590919063ffffffff16565b6148fb90919063ffffffff16565b614984565b5b8080600101915050613421565b505b6001600a60008c60000160009054906101000a900473ffffffffffffffffffffffffffffffffffffffff1673ffffffffffffffffffffffffffffffffffffffff1673ffffffffffffffffffffffffffffffffffffffff16815260200190815260200160002060008c60010154815260200190815260200160002060006101000a81548160ff02191690831515021790555050505050505b6135a98560020160009054906101000a900473ffffffffffffffffffffffffffffffffffffffff1687614ae8565b6135d78560030160009054906101000a900473ffffffffffffffffffffffffffffffffffffffff1687614ae8565b6136298560020160009054906101000a900473ffffffffffffffffffffffffffffffffffffffff16613624836136168689614a6590919063ffffffff16565b614a6590919063ffffffff16565b614984565b857ff132efb946ce538e39da16b14ba507efb720da775af1c929ef95099bf063b2c78660030160009054906101000a900473ffffffffffffffffffffffffffffffffffffffff1661369584613687878a614a6590919063ffffffff16565b614a6590919063ffffffff16565b6003604051808473ffffffffffffffffffffffffffffffffffffffff168152602001838152602001828152602001935050505060405180910390a2505050505050565b6136e0614748565b73ffffffffffffffffffffffffffffffffffffffff166136fe61386c565b73ffffffffffffffffffffffffffffffffffffffff1614613787576040517f08c379a00000000000000000000000000000000000000000000000000000000081526004018080602001828103825260208152602001807f4f776e61626c653a2063616c6c6572206973206e6f7420746865206f776e657281525060200191505060405180910390fd5b600073ffffffffffffffffffffffffffffffffffffffff1660008054906101000a900473ffffffffffffffffffffffffffffffffffffffff1673ffffffffffffffffffffffffffffffffffffffff167f8be0079c531659141344cd1fd0a4f28419497f9722a3daafe3b4186f6b6457e060405160405180910390a360008060006101000a81548173ffffffffffffffffffffffffffffffffffffffff021916908373ffffffffffffffffffffffffffffffffffffffff160217905550565b600e818154811061385257fe5b906000526020600020016000915090505481565b60065481565b60008060009054906101000a900473ffffffffffffffffffffffffffffffffffffffff16905090565b60055481565b600b60205281600052604060002081815481106138b457fe5b90600052602060002001600091509150505481565b60045481565b6060600e80548060200260200160405190810160405280929190818152602001828054801561391d57602002820191906000526020600020905b815481526020019060010190808311613909575b5050505050905090565b61392f614748565b73ffffffffffffffffffffffffffffffffffffffff1661394d61386c565b73ffffffffffffffffffffffffffffffffffffffff16146139d6576040517f08c379a00000000000000000000000000000000000000000000000000000000081526004018080602001828103825260208152602001807f4f776e61626c653a2063616c6c6572206973206e6f7420746865206f776e657281525060200191505060405180910390fd5b7f4ff4b7f9ae1a34069639f29f94106c930a6adba9afeb7263bafe87316aeeb948600454600554604051808381526020018281526020019250505060405180910390a160008214613a2957816004819055505b60008114613a3957806005819055505b5050565b6000613a47614d93565b60036000848152602001908152602001600020604051806101800160405290816000820160009054906101000a900473ffffffffffffffffffffffffffffffffffffffff1673ffffffffffffffffffffffffffffffffffffffff1673ffffffffffffffffffffffffffffffffffffffff168152602001600182015481526020016002820160009054906101000a900473ffffffffffffffffffffffffffffffffffffffff1673ffffffffffffffffffffffffffffffffffffffff1673ffffffffffffffffffffffffffffffffffffffff1681526020016003820160009054906101000a900473ffffffffffffffffffffffffffffffffffffffff1673ffffffffffffffffffffffffffffffffffffffff1673ffffffffffffffffffffffffffffffffffffffff168152602001600482015481526020016005820154815260200160068201548152602001600782015481526020016008820154815260200160098201548152602001600a820160009054906101000a900463ffffffff1663ffffffff1663ffffffff168152602001600b82015481525050905060008160e001519050600082610100015114613c3c57613c39600854613c2b613c186008548660c00151614d0b90919063ffffffff16565b8560e0015161487590919063ffffffff16565b6148fb90919063ffffffff16565b90505b8092505050919050565b60085481565b60006003600083815260200190815260200160002090508060030160009054906101000a900473ffffffffffffffffffffffffffffffffffffffff1673ffffffffffffffffffffffffffffffffffffffff163373ffffffffffffffffffffffffffffffffffffffff1614613d28576040517f08c379a000000000000000000000000000000000000000000000000000000000815260040180806020018281038252600a8152602001807f4e6f74206269646465720000000000000000000000000000000000000000000081525060200191505060405180910390fd5b42613d4260055483600b0154614d0b90919063ffffffff16565b1115613db6576040517f08c379a00000000000000000000000000000000000000000000000000000000081526004018080602001828103825260158152602001807f4e6f74206f76657220726576657273652074696d65000000000000000000000081525060200191505060405180910390fd5b600181600a0160009054906101000a900463ffffffff1663ffffffff1614613e46576040517f08c379a00000000000000000000000000000000000000000000000000000000081526004018080602001828103825260128152602001807f52657665727365206e6f74206f6e20626964000000000000000000000000000081525060200191505060405180910390fd5b8060050154816007015410613ec3576040517f08c379a000000000000000000000000000000000000000000000000000000000815260040180806020018281038252600b8152602001807f426964207375636365737300000000000000000000000000000000000000000081525060200191505060405180910390fd5b613ed1338260070154614984565b600281600a0160006101000a81548163ffffffff021916908363ffffffff160217905550613f238160030160009054906101000a900473ffffffffffffffffffffffffffffffffffffffff1683614ae8565b817fba5068295b963c01e54acedeb13de943df2c73d23a25efae68d4296b11db748e8260030160009054906101000a900473ffffffffffffffffffffffffffffffffffffffff1683600701546002604051808473ffffffffffffffffffffffffffffffffffffffff168152602001838152602001828152602001935050505060405180910390a25050565b60036020528060005260406000206000915090508060000160009054906101000a900473ffffffffffffffffffffffffffffffffffffffff16908060010154908060020160009054906101000a900473ffffffffffffffffffffffffffffffffffffffff16908060030160009054906101000a900473ffffffffffffffffffffffffffffffffffffffff169080600401549080600501549080600601549080600701549080600801549080600901549080600a0160009054906101000a900463ffffffff169080600b015490508c565b6007818154811061408b57fe5b906000526020600020016000915090505481565b6140a7614748565b73ffffffffffffffffffffffffffffffffffffffff166140c561386c565b73ffffffffffffffffffffffffffffffffffffffff161461414e576040517f08c379a00000000000000000000000000000000000000000000000000000000081526004018080602001828103825260208152602001807f4f776e61626c653a2063616c6c6572206973206e6f7420746865206f776e657281525060200191505060405180910390fd5b600073ffffffffffffffffffffffffffffffffffffffff168173ffffffffffffffffffffffffffffffffffffffff1614156141d4576040517f08c379a0000000000000000000000000000000000000000000000000000000008152600401808060200182810382526026815260200180614e3d6026913960400191505060405180910390fd5b8073ffffffffffffffffffffffffffffffffffffffff1660008054906101000a900473ffffffffffffffffffffffffffffffffffffffff1673ffffffffffffffffffffffffffffffffffffffff167f8be0079c531659141344cd1fd0a4f28419497f9722a3daafe3b4186f6b6457e060405160405180910390a3806000806101000a81548173ffffffffffffffffffffffffffffffffffffffff021916908373ffffffffffffffffffffffffffffffffffffffff16021790555050565b600060036000888152602001908152602001600020905080600b01544211614321576040517f08c379a00000000000000000000000000000000000000000000000000000000081526004018080602001828103825260108152602001807f41756374696f6e206e6f74206f7665720000000000000000000000000000000081525060200191505060405180910390fd5b3373ffffffffffffffffffffffffffffffffffffffff168160020160009054906101000a900473ffffffffffffffffffffffffffffffffffffffff1673ffffffffffffffffffffffffffffffffffffffff16146143e6576040517f08c379a00000000000000000000000000000000000000000000000000000000081526004018080602001828103825260158152602001807f4e6f742061756374696f6e2069642073656c6c6572000000000000000000000081525060200191505060405180910390fd5b600181600a0160009054906101000a900463ffffffff1663ffffffff16141561446a5761443b8160030160009054906101000a900473ffffffffffffffffffffffffffffffffffffffff168260070154614984565b6144698160030160009054906101000a900473ffffffffffffffffffffffffffffffffffffffff1688614ae8565b5b338160020160006101000a81548173ffffffffffffffffffffffffffffffffffffffff021916908373ffffffffffffffffffffffffffffffffffffffff1602179055508581600401819055508581600701819055508381600501819055508481600601819055508281600901819055508181600b0181905550600081600a0160006101000a81548163ffffffff021916908363ffffffff1602179055506000816008018190555060008160030160006101000a81548173ffffffffffffffffffffffffffffffffffffffff021916908373ffffffffffffffffffffffffffffffffffffffff160217905550867ff8f855f13d620c1d45ad0c33d9e584459dfb0b613ce2c5cbca3cffb8fb9c68708260000160009054906101000a900473ffffffffffffffffffffffffffffffffffffffff168360010154338a8a89896000604051808973ffffffffffffffffffffffffffffffffffffffff1681526020018881526020018773ffffffffffffffffffffffffffffffffffffffff1681526020018681526020018581526020018481526020018381526020018281526020019850505050505050505060405180910390a250505050505050565b6001816000016000828254019250508190555050565b600081600001549050919050565b600b60008373ffffffffffffffffffffffffffffffffffffffff1673ffffffffffffffffffffffffffffffffffffffff16815260200190815260200160002080549050600c60008473ffffffffffffffffffffffffffffffffffffffff1673ffffffffffffffffffffffffffffffffffffffff168152602001908152602001600020600083815260200190815260200160002081905550600b60008373ffffffffffffffffffffffffffffffffffffffff1673ffffffffffffffffffffffffffffffffffffffff1681526020019081526020016000208190806001815401808255809150506001900390600052602060002001600090919091909150555050565b600033905090565b600073ffffffffffffffffffffffffffffffffffffffff168173ffffffffffffffffffffffffffffffffffffffff1614156147d6576040517f08c379a000000000000000000000000000000000000000000000000000000000815260040180806020018281038252602d815260200180614e63602d913960400191505060405180910390fd5b8073ffffffffffffffffffffffffffffffffffffffff16600073ffffffffffffffffffffffffffffffffffffffff167f74da04524d50c64947f5dd5381ef1a4dca5cba8ed1d816243f9e48aa0b5617ed60405160405180910390a380600160006101000a81548173ffffffffffffffffffffffffffffffffffffffff021916908373ffffffffffffffffffffffffffffffffffffffff16021790555050565b60008083141561488857600090506148f5565b600082840290508284828161489957fe5b04146148f0576040517f08c379a0000000000000000000000000000000000000000000000000000000008152600401808060200182810382526021815260200180614e906021913960400191505060405180910390fd5b809150505b92915050565b6000808211614972576040517f08c379a000000000000000000000000000000000000000000000000000000000815260040180806020018281038252601a8152602001807f536166654d6174683a206469766973696f6e206279207a65726f00000000000081525060200191505060405180910390fd5b81838161497b57fe5b04905092915050565b60008273ffffffffffffffffffffffffffffffffffffffff168260405180600001905060006040518083038185875af1925050503d80600081146149e4576040519150601f19603f3d011682016040523d82523d6000602084013e6149e9565b606091505b5050905080614a60576040517f08c379a00000000000000000000000000000000000000000000000000000000081526004018080602001828103825260128152602001807f5452414e5346455220455448204552524f52000000000000000000000000000081525060200191505060405180910390fd5b505050565b600082821115614add576040517f08c379a000000000000000000000000000000000000000000000000000000000815260040180806020018281038252601e8152602001807f536166654d6174683a207375627472616374696f6e206f766572666c6f77000081525060200191505060405180910390fd5b818303905092915050565b6000614b406001600b60008673ffffffffffffffffffffffffffffffffffffffff1673ffffffffffffffffffffffffffffffffffffffff16815260200190815260200160002080549050614a6590919063ffffffff16565b90506000600c60008573ffffffffffffffffffffffffffffffffffffffff1673ffffffffffffffffffffffffffffffffffffffff1681526020019081526020016000206000848152602001908152602001600020549050808214614ca7576000600b60008673ffffffffffffffffffffffffffffffffffffffff1673ffffffffffffffffffffffffffffffffffffffff1681526020019081526020016000208381548110614bea57fe5b9060005260206000200154905080600b60008773ffffffffffffffffffffffffffffffffffffffff1673ffffffffffffffffffffffffffffffffffffffff1681526020019081526020016000208381548110614c4257fe5b906000526020600020018190555081600c60008773ffffffffffffffffffffffffffffffffffffffff1673ffffffffffffffffffffffffffffffffffffffff168152602001908152602001600020600083815260200190815260200160002081905550505b600b60008573ffffffffffffffffffffffffffffffffffffffff1673ffffffffffffffffffffffffffffffffffffffff168152602001908152602001600020805480614cef57fe5b6001900381819060005260206000200160009055905550505050565b600080828401905083811015614d89576040517f08c379a000000000000000000000000000000000000000000000000000000000815260040180806020018281038252601b8152602001807f536166654d6174683a206164646974696f6e206f766572666c6f77000000000081525060200191505060405180910390fd5b8091505092915050565b604051806101800160405280600073ffffffffffffffffffffffffffffffffffffffff16815260200160008152602001600073ffffffffffffffffffffffffffffffffffffffff168152602001600073ffffffffffffffffffffffffffffffffffffffff168152602001600081526020016000815260200160008152602001600081526020016000815260200160008152602001600063ffffffff16815260200160008152509056fe4f776e61626c653a206e6577206f776e657220697320746865207a65726f20616464726573736f70657261746f723a207a65726f206164647265737320676976656e20666f72206e6577206f70657261746f72536166654d6174683a206d756c7469706c69636174696f6e206f766572666c6f77a264697066735822122022d1fde0ea8e1e23fce6fb5769b8cb5646c29e34f3d0f692e26c2a1878938db564736f6c634300060c0033",
  "immutableReferences": {},
  "source": "pragma solidity ^0.6.2;\n\nimport \"./owner/Operator.sol\";\nimport \"@openzeppelin/contracts/token/ERC721/IERC721.sol\";\nimport \"@openzeppelin/contracts/math/SafeMath.sol\";\nimport \"@openzeppelin/contracts/utils/Counters.sol\";\nimport \"@openzeppelin/contracts/utils/Pausable.sol\";\nimport \"./interfaces/IAgERC721.sol\";\n\n\n/// @title English auction\n/// @author yzbbanban\n/// @notice buy token\n/// @dev \ncontract EnglishAuction is Operator{\n\n    event Auction(uint256 indexed _auctionId, address _token, \n                    uint256 _tokenId,address _seller, \n                    uint256 _openingBid,uint256 _bidIncrements,uint256 _startTime, uint256 _expirationTime,\n                    uint32 _auctionStatus);\n    event ReAuction(uint256 indexed _auctionId, address _token, \n                    uint256 _tokenId, address _seller, \n                    uint256 _openingBid, uint256 _bidIncrements, uint256 _startTime, uint256 _expirationTime,\n                    uint32 _auctionStatus);\n    event LastParam(uint256 _extendTime, uint256 _reverseTime);\n    event Bid(uint256 indexed _auctionId, address _bidder,\n                uint256 _bidPrice, uint256 _bidCount,uint32 _auctionStatus);\n    event Selling(uint256 indexed _auctionId, address _bidder, uint256 _bidPrice, uint32 _auctionStatus);\n    event Reverse(uint256 indexed _auctionId, address _bidder, uint256 _bidPrice, uint32 _auctionStatus);\n    event Withdraw(uint256 indexed _auctionId, address _bidder, uint256 _bidPrice, uint32 _auctionStatus);\n    event Cancel(uint256 indexed _auctionId, address _seller, address _token, uint256 _tokenId, \n                uint256 _bidPrice, uint32 _auctionStatus);\n\n    using Counters for Counters.Counter;\n    Counters.Counter private _auctionIds;\n    using SafeMath for uint256;\n\n    mapping(uint256 => BidInfo) public bidInfos;\n    uint256 public extendTime = 15 minutes;\n    uint256 public reverseTime = 5 days;\n    \n    uint256 public feePercent = 100; //10%\n    uint256[] public artPercent = [200,100]; //first 20%; other time 10%\n    uint256 public basePercent = 1000;\n    address public platform;\n    mapping(address => mapping(uint256 => bool)) public isNotFirstAuction;\n    //my bids \n    mapping(address => uint256[]) public myBidInfos;\n    //my => auction id => index\n    mapping(address => mapping(uint256 => uint256)) myBidInfoIndex;\n\n    IAgERC721 artGee;\n\n    uint256[] public artList;\n\n    constructor(IAgERC721 _artGee, address _platform) public{\n        artGee = _artGee;\n        platform = _platform;\n    }\n\n    struct BidInfo{\n        address token;\n        uint256 tokenId;\n        address seller;\n        address bidder;//change\n        uint256 openingBid;\n        uint256 reservePrice;\n        uint256 bidIncrements;\n        uint256 bidPrice;//change\n        uint256 bidCount;//change\n        uint256 startTime;\n        uint32 auctionStatus;// 0 init; 1 bid; 2 bidder reverse;3 seller finish; 4 bidder finish 5 seller cancel\n        uint256 expirationTime;//change\n    }\n\n    function getMyArtList(address _owner) view public returns(uint256[] memory){\n        return myBidInfos[_owner];\n    }\n    \n    function getArtList() view public returns(uint256[] memory _artList){\n        return artList;\n    }\n\n    function setReverseTime(uint256 _extendTime, uint256 _reverseTime) public onlyOwner(){\n        emit LastParam(extendTime, reverseTime);\n        if(_extendTime != 0){\n            extendTime = _extendTime;\n        }\n        if(_reverseTime != 0){\n            reverseTime = _reverseTime;\n        }\n    }\n\n    function setArtgee(IAgERC721 _artGee,address _platform) public onlyOwner(){\n        artGee = _artGee;\n        platform = _platform;\n    }\n    function setArtPercent(uint256[2] memory _artPercents) public onlyOwner(){\n        artPercent[0] = _artPercents[0];\n        artPercent[1] = _artPercents[1];\n    }\n\n    //seller\n    function auction(address _token, uint256 _tokenId,\n                    uint256 _openingBid, uint256 _bidIncrements,\n                    uint256 _reservePrice, uint256 _startTime,uint256 _expirationTime\n                     ) public{\n        require(_expirationTime >= block.timestamp && _expirationTime > _startTime,\"Time error\");\n        _auctionIds.increment();\n        uint256 auctionId = _auctionIds.current();\n        BidInfo storage bidInfo = bidInfos[auctionId];\n        bidInfo.token = _token;\n        bidInfo.tokenId = _tokenId;\n        bidInfo.seller = msg.sender;\n        bidInfo.openingBid = _openingBid;\n        bidInfo.bidPrice = _openingBid;\n        bidInfo.reservePrice = _reservePrice;\n        bidInfo.bidder = address(0);        \n        bidInfo.bidCount = 0;\n        bidInfo.bidIncrements = _bidIncrements;\n        bidInfo.startTime = _startTime;\n        //1 day later\n        bidInfo.expirationTime = _expirationTime;\n        bidInfo.auctionStatus = 0;\n        //add tokenId\n        IERC721 ierc721 = IERC721(_token);\n        ierc721.safeTransferFrom(msg.sender, address(this), _tokenId);\n        // add my auction\n        _addMyAuction(msg.sender,auctionId);\n        artList.push(auctionId);\n        emit Auction(auctionId,_token, _tokenId, msg.sender, _openingBid, \n                    _bidIncrements, _startTime,_expirationTime,0);\n    }\n\n    //seller\n    function reAuction(uint256 _auctionId, \n                        uint256 _openingBid, uint256 _bidIncrements,\n                        uint256 _reservePrice, uint256 _startTime, uint256 _expirationTime) public{\n        BidInfo storage bidInfo = bidInfos[_auctionId];\n        //must wait for auction over\n        require(block.timestamp > bidInfo.expirationTime, \"Auction not over\");\n        require(bidInfo.seller == msg.sender,\"Not auction id seller\");\n        //bidder has already reverse\n        if(bidInfo.auctionStatus == 1){\n            //sende coin to bidder\n            transferMain(bidInfo.bidder, bidInfo.bidPrice);\n            // remove bidder's auctionId\n            _removeMyAuction(bidInfo.bidder, _auctionId);\n        }\n        bidInfo.seller = msg.sender;\n        bidInfo.openingBid = _openingBid;\n        bidInfo.bidPrice = _openingBid;\n        bidInfo.reservePrice = _reservePrice;\n        bidInfo.bidIncrements = _bidIncrements;\n        bidInfo.startTime = _startTime;\n        //1 day later\n        bidInfo.expirationTime = _expirationTime;\n        bidInfo.auctionStatus = 0;\n        bidInfo.bidCount = 0;\n        bidInfo.bidder = address(0);        \n        emit ReAuction(_auctionId, bidInfo.token, bidInfo.tokenId, msg.sender, \n                        _openingBid, _bidIncrements, _startTime,_expirationTime,0);\n    }\n\n    //bidder\n    function bid(uint256 _auctionId) payable public{\n        BidInfo storage bidInfo = bidInfos[_auctionId];\n        //now time > expiration time then auction over\n        require(block.timestamp <= bidInfo.expirationTime, \"Auction over\");\n        require(bidInfo.auctionStatus == 0 || bidInfo.auctionStatus == 1, \"Not on auction\");\n        require(msg.sender != bidInfo.seller, \"Seller can not bid\");\n        require(msg.sender != bidInfo.bidder, \"Bidder can not repeat bid\");\n        uint256 nowBidPrice = bidInfo.bidPrice;\n        //transfer to last bidder\n        if(bidInfo.bidCount!=0){\n            transferMain(bidInfo.bidder, bidInfo.bidPrice);\n            nowBidPrice = bidInfo.bidPrice.mul(bidInfo.bidIncrements.add(basePercent)).div(basePercent);\n        }\n        require(msg.value == nowBidPrice, \"Value error\");\n        //update price\n        bidInfo.bidPrice = nowBidPrice;\n        // expiration time - (startTime + 1day) => update expiration\n        if(bidInfo.expirationTime.sub(block.timestamp) <= extendTime){\n            bidInfo.expirationTime = block.timestamp.add(extendTime);\n        }\n        // add bidder auction id and remove seller auction id\n        if(bidInfo.bidder != address(0)){\n            _removeMyAuction(bidInfo.bidder, _auctionId);\n        }\n        _addMyAuction(msg.sender,_auctionId);\n        //reset bidder\n        bidInfo.bidder = msg.sender;\n        //add bid count\n        bidInfo.auctionStatus = 1;\n        bidInfo.bidCount = bidInfo.bidCount.add(1);\n        emit Bid(_auctionId, msg.sender, nowBidPrice, bidInfo.bidCount, 1);\n    }\n    \n    function getCurrentPrice(uint256 _auctionId) view public returns(uint256 _nowBidPrice){\n        BidInfo memory bidInfo = bidInfos[_auctionId];\n        uint256 nowBidPrice = bidInfo.bidPrice;\n        if(bidInfo.bidCount!=0){\n            nowBidPrice = bidInfo.bidPrice.mul(bidInfo.bidIncrements.add(basePercent)).div(basePercent);\n        }\n        return nowBidPrice;\n    }\n    \n    //sell cancel\n    function cancel(uint256 _auctionId) public{\n        BidInfo storage bidInfo = bidInfos[_auctionId];\n        require(bidInfo.seller == msg.sender,\"Not auction id seller\");\n        // must end\n        require(bidInfo.expirationTime < block.timestamp, \"On auction\");\n        require(bidInfo.bidPrice < bidInfo.reservePrice,\"Bid success\");\n        require(bidInfo.auctionStatus == 0 || bidInfo.auctionStatus == 1, \"Has bid\");\n        if(bidInfo.bidder != address(0)){\n            //remove bidder list\n            _removeMyAuction(bidInfo.bidder, _auctionId);\n        }\n        uint256 refund = 0;\n        if(bidInfo.auctionStatus == 1){\n            refund = bidInfo.bidPrice;\n            //has bid send coin to bidder\n            transferMain(bidInfo.bidder, bidInfo.bidPrice);\n            //remove seller list\n            _removeMyAuction(bidInfo.seller, _auctionId);\n        }\n        IERC721 ierc721 = IERC721(bidInfo.token);\n        ierc721.safeTransferFrom(address(this),msg.sender, bidInfo.tokenId);\n        bidInfo.auctionStatus = 5;\n        emit Cancel(_auctionId, bidInfo.seller, bidInfo.token, bidInfo.tokenId, refund, 5);\n    }\n\n    //seller executor\n    function sellingSettlementPrice(uint256 _auctionId) public{\n        BidInfo storage bidInfo = bidInfos[_auctionId];\n        require(msg.sender == bidInfo.seller, \"Not seller\");\n        require(bidInfo.auctionStatus == 1, \"Not on bid\");\n        require(bidInfo.expirationTime < block.timestamp, \"On auction\");\n        bidInfo.auctionStatus = 3;\n        uint256 amount = bidInfo.bidPrice;\n        require(amount >= bidInfo.reservePrice,\"Not over reserve price\");\n        //721 transfer current bidder , get bidder price\n        IERC721 ierc721 = IERC721(bidInfo.token);\n        ierc721.safeTransferFrom(address(this), bidInfo.bidder, bidInfo.tokenId);\n        //fee to platform\n        uint256 _fee = amount.mul(feePercent).div(basePercent);\n        uint256 _artistFee = 0; \n        transferMain(platform,_fee);\n        //artist share in the benefit \n        if(address(artGee) == bidInfo.token){\n            (uint256 artId,,)=artGee.tokenArts(bidInfo.tokenId);\n            (,,,address creator,\n                address[] memory assistants,\n                uint256[] memory benefits,)=artGee.getSourceDigitalArt(artId);\n            bool isNotFirst = isNotFirstAuction[bidInfo.token][bidInfo.tokenId];\n            //first time 20% to artist,other time 10% \n            _artistFee = amount.mul(isNotFirst ? artPercent[1]:artPercent[0]).div(basePercent);\n            if(assistants.length == 0){\n                //send to creator\n                transferMain(creator,_artistFee);\n            }else{\n                //send to creator and other assistant\n                for (uint256 index = 0; index < benefits.length; index++) {\n                    if(index==0){\n                        // to creator\n                        transferMain(creator,_artistFee.mul(benefits[index]).div(basePercent));\n                    }else{\n                        // to assistants\n                        transferMain(assistants[index-1],_artistFee.mul(benefits[index]).div(basePercent));\n                    }\n                }\n            }\n            isNotFirstAuction[bidInfo.token][bidInfo.tokenId] = true;\n        }\n        //remove seller list\n        _removeMyAuction(bidInfo.seller, _auctionId);\n        //remove bidder list\n        _removeMyAuction(bidInfo.bidder, _auctionId);\n        // to seller\n        transferMain(bidInfo.seller, amount.sub(_fee).sub(_artistFee));\n        emit Selling(_auctionId,bidInfo.bidder,amount.sub(_fee).sub(_artistFee),3);\n    }\n\n    //bidder execute\n    function bidderReverse(uint256 _auctionId) public{\n        BidInfo storage bidInfo = bidInfos[_auctionId];\n        require(msg.sender == bidInfo.bidder, \"Not bidder\");\n        require(bidInfo.expirationTime.add(reverseTime) <= block.timestamp, \"Not over reverse time\");\n        require(bidInfo.auctionStatus == 1, \"Reverse not on bid\");\n        require(bidInfo.bidPrice < bidInfo.reservePrice,\"Bid success\");\n        // if bidder wanner his coin, current time must over than `reverseTime`\n        //coin send to bidder\n        transferMain(msg.sender, bidInfo.bidPrice);\n        bidInfo.auctionStatus = 2;\n        //remove bidder list\n        _removeMyAuction(bidInfo.bidder, _auctionId);\n        emit Reverse(_auctionId, bidInfo.bidder, bidInfo.bidPrice, 2);\n    }\n\n    //auction success bidder execute\n    function withdraw(uint256 _auctionId) public{\n        BidInfo storage bidInfo = bidInfos[_auctionId];\n        require(bidInfo.bidder == msg.sender,\"Not bidder\");\n        require(bidInfo.auctionStatus == 1, \"Withdraw not on bid\");\n        require(bidInfo.expirationTime < block.timestamp, \"On auction\");\n        uint256 amount = bidInfo.bidPrice;\n        require(amount >= bidInfo.reservePrice,\"Not over reserve price\");\n        bidInfo.auctionStatus = 4;\n        //721 transfer current bidder , get bidder price\n        IERC721 ierc721 = IERC721(bidInfo.token);\n        ierc721.safeTransferFrom(address(this), bidInfo.bidder, bidInfo.tokenId);\n        //fee to platform\n        uint256 _fee = amount.mul(feePercent).div(basePercent);\n        uint256 _artistFee = 0; \n        transferMain(platform,_fee);\n        //artist share in the benefit \n        if(address(artGee) == bidInfo.token){\n            (uint256 artId,,)=artGee.tokenArts(bidInfo.tokenId);\n            (,,,address creator,\n                address[] memory assistants,\n                uint256[] memory benefits,)=artGee.getSourceDigitalArt(artId);\n            bool isNotFirst = isNotFirstAuction[bidInfo.token][bidInfo.tokenId];\n            //first time 20% to artist,other time 10% \n            _artistFee = amount.mul(isNotFirst ? artPercent[1]:artPercent[0]).div(basePercent);\n            if(assistants.length == 0){\n                //send to creator\n                transferMain(creator,_artistFee);\n            }else{\n                //send to creator and other assistant\n                for (uint256 index = 0; index < benefits.length; index++) {\n                    if(index==0){\n                        // to creator\n                        transferMain(creator,_artistFee.mul(benefits[index]).div(basePercent));\n                    }else{\n                        // to assistants\n                        transferMain(assistants[index-1],_artistFee.mul(benefits[index]).div(basePercent));\n                    }\n                }\n            }\n            isNotFirstAuction[bidInfo.token][bidInfo.tokenId] = true;\n        }\n        // to seller\n        transferMain(bidInfo.seller, amount.sub(_fee).sub(_artistFee));\n        //remove seller list\n        _removeMyAuction(bidInfo.seller, _auctionId);\n        //remove bidder list\n        _removeMyAuction(bidInfo.bidder, _auctionId);\n        emit Withdraw(_auctionId,bidInfo.bidder,amount.sub(_fee).sub(_artistFee),4);\n    }\n\n    function _addMyAuction(address _owner,uint256 _auctionId) internal{\n        myBidInfoIndex[_owner][_auctionId] = myBidInfos[_owner].length;\n        myBidInfos[_owner].push(_auctionId);\n    }\n\n    function _removeMyAuction(address _owner, uint256 _auctionId) internal{\n        uint256 lastIndex = myBidInfos[_owner].length.sub(1);\n        uint256 currentIndex = myBidInfoIndex[_owner][_auctionId];\n        if(lastIndex != currentIndex){\n            uint256 lastAuctionId = myBidInfos[_owner][lastIndex];\n            myBidInfos[_owner][currentIndex] = lastAuctionId;\n            myBidInfoIndex[_owner][lastAuctionId] = currentIndex;\n        }\n        myBidInfos[_owner].pop();\n    }\n\n    function transferMain(address _address, uint256 _value) internal{\n        (bool res, ) = address(uint160(_address)).call{value:_value}(\"\");\n        require(res,\"TRANSFER ETH ERROR\");\n    }\n\n    /**\n     * @dev See {IERC721Receiver-onERC721Received}.\n     *\n     * Always returns `IERC721Receiver.onERC721Received.selector`.\n     */\n    function onERC721Received(address, address, uint256, bytes memory) public pure returns (bytes4) {\n        return this.onERC721Received.selector;\n    }\n\n    receive () external payable {}\n}",
  "sourcePath": "/Users/wangban/Downloads/money/coin/other/artgee/ArtGee-Contract/contracts/EnglishAuction.sol",
  "compiler": {
    "name": "solc",
    "version": "0.6.12+commit.27d51765.Emscripten.clang"
  },
  "schemaVersion": "3.3.2",
  "updatedAt": "2021-04-15T13:44:32.392Z",
  "devdoc": {
    "author": "yzbbanban",
    "kind": "dev",
    "methods": {
      "onERC721Received(address,address,uint256,bytes)": {
        "details": "See {IERC721Receiver-onERC721Received}. Always returns `IERC721Receiver.onERC721Received.selector`."
      },
      "owner()": {
        "details": "Returns the address of the current owner."
      },
      "renounceOwnership()": {
        "details": "Leaves the contract without owner. It will not be possible to call `onlyOwner` functions anymore. Can only be called by the current owner. NOTE: Renouncing ownership will leave the contract without an owner, thereby removing any functionality that is only available to the owner."
      },
      "transferOwnership(address)": {
        "details": "Transfers ownership of the contract to a new account (`newOwner`). Can only be called by the current owner."
      }
    },
    "title": "English auction",
    "version": 1
  },
  "userdoc": {
    "kind": "user",
    "methods": {},
    "notice": "buy token",
    "version": 1
  }
}