{
  "contractName": "EnglishAuction",
  "abi": [
    {
      "inputs": [
        {
          "internalType": "contract IAgERC721",
          "name": "_artGee",
          "type": "address"
        },
        {
          "internalType": "address",
          "name": "_platform",
          "type": "address"
        }
      ],
      "stateMutability": "nonpayable",
      "type": "constructor"
    },
    {
      "anonymous": false,
      "inputs": [
        {
          "indexed": true,
          "internalType": "uint256",
          "name": "_auctionId",
          "type": "uint256"
        },
        {
          "indexed": false,
          "internalType": "address",
          "name": "_token",
          "type": "address"
        },
        {
          "indexed": false,
          "internalType": "uint256",
          "name": "_tokenId",
          "type": "uint256"
        },
        {
          "indexed": false,
          "internalType": "address",
          "name": "_seller",
          "type": "address"
        },
        {
          "indexed": false,
          "internalType": "uint256",
          "name": "_openingBid",
          "type": "uint256"
        },
        {
          "indexed": false,
          "internalType": "uint256",
          "name": "_bidIncrements",
          "type": "uint256"
        },
        {
          "indexed": false,
          "internalType": "uint256",
          "name": "_startTime",
          "type": "uint256"
        },
        {
          "indexed": false,
          "internalType": "uint256",
          "name": "_expirationTime",
          "type": "uint256"
        },
        {
          "indexed": false,
          "internalType": "uint32",
          "name": "_auctionStatus",
          "type": "uint32"
        }
      ],
      "name": "Auction",
      "type": "event"
    },
    {
      "anonymous": false,
      "inputs": [
        {
          "indexed": true,
          "internalType": "uint256",
          "name": "_auctionId",
          "type": "uint256"
        },
        {
          "indexed": false,
          "internalType": "address",
          "name": "_bidder",
          "type": "address"
        },
        {
          "indexed": false,
          "internalType": "uint256",
          "name": "_bidPrice",
          "type": "uint256"
        },
        {
          "indexed": false,
          "internalType": "uint256",
          "name": "_bidCount",
          "type": "uint256"
        },
        {
          "indexed": false,
          "internalType": "uint256",
          "name": "_expirationTime",
          "type": "uint256"
        },
        {
          "indexed": false,
          "internalType": "uint32",
          "name": "_auctionStatus",
          "type": "uint32"
        }
      ],
      "name": "Bid",
      "type": "event"
    },
    {
      "anonymous": false,
      "inputs": [
        {
          "indexed": true,
          "internalType": "uint256",
          "name": "_auctionId",
          "type": "uint256"
        },
        {
          "indexed": false,
          "internalType": "address",
          "name": "_seller",
          "type": "address"
        },
        {
          "indexed": false,
          "internalType": "uint256",
          "name": "_bidPrice",
          "type": "uint256"
        },
        {
          "indexed": false,
          "internalType": "uint32",
          "name": "_auctionStatus",
          "type": "uint32"
        },
        {
          "indexed": false,
          "internalType": "uint256",
          "name": "_bidCount",
          "type": "uint256"
        }
      ],
      "name": "Cancel",
      "type": "event"
    },
    {
      "anonymous": false,
      "inputs": [
        {
          "indexed": false,
          "internalType": "uint256",
          "name": "_extendTime",
          "type": "uint256"
        },
        {
          "indexed": false,
          "internalType": "uint256",
          "name": "_reverseTime",
          "type": "uint256"
        }
      ],
      "name": "LastParam",
      "type": "event"
    },
    {
      "anonymous": false,
      "inputs": [
        {
          "indexed": true,
          "internalType": "address",
          "name": "previousOperator",
          "type": "address"
        },
        {
          "indexed": true,
          "internalType": "address",
          "name": "newOperator",
          "type": "address"
        }
      ],
      "name": "OperatorTransferred",
      "type": "event"
    },
    {
      "anonymous": false,
      "inputs": [
        {
          "indexed": true,
          "internalType": "address",
          "name": "previousOwner",
          "type": "address"
        },
        {
          "indexed": true,
          "internalType": "address",
          "name": "newOwner",
          "type": "address"
        }
      ],
      "name": "OwnershipTransferred",
      "type": "event"
    },
    {
      "anonymous": false,
      "inputs": [
        {
          "indexed": false,
          "internalType": "address",
          "name": "account",
          "type": "address"
        }
      ],
      "name": "Paused",
      "type": "event"
    },
    {
      "anonymous": false,
      "inputs": [
        {
          "indexed": true,
          "internalType": "uint256",
          "name": "_auctionId",
          "type": "uint256"
        },
        {
          "indexed": false,
          "internalType": "uint256",
          "name": "_bidPrice",
          "type": "uint256"
        },
        {
          "indexed": false,
          "internalType": "uint256",
          "name": "_openingBid",
          "type": "uint256"
        },
        {
          "indexed": false,
          "internalType": "uint256",
          "name": "_bidIncrements",
          "type": "uint256"
        },
        {
          "indexed": false,
          "internalType": "uint256",
          "name": "_startTime",
          "type": "uint256"
        },
        {
          "indexed": false,
          "internalType": "uint256",
          "name": "_expirationTime",
          "type": "uint256"
        },
        {
          "indexed": false,
          "internalType": "uint32",
          "name": "_auctionStatus",
          "type": "uint32"
        }
      ],
      "name": "ReAuction",
      "type": "event"
    },
    {
      "anonymous": false,
      "inputs": [
        {
          "indexed": true,
          "internalType": "uint256",
          "name": "_auctionId",
          "type": "uint256"
        },
        {
          "indexed": false,
          "internalType": "address",
          "name": "_bidder",
          "type": "address"
        },
        {
          "indexed": false,
          "internalType": "uint256",
          "name": "_bidPrice",
          "type": "uint256"
        },
        {
          "indexed": false,
          "internalType": "uint32",
          "name": "_auctionStatus",
          "type": "uint32"
        },
        {
          "indexed": false,
          "internalType": "uint256",
          "name": "_bidCount",
          "type": "uint256"
        }
      ],
      "name": "Reverse",
      "type": "event"
    },
    {
      "anonymous": false,
      "inputs": [
        {
          "indexed": true,
          "internalType": "uint256",
          "name": "_auctionId",
          "type": "uint256"
        },
        {
          "indexed": false,
          "internalType": "address",
          "name": "_seller",
          "type": "address"
        },
        {
          "indexed": false,
          "internalType": "address",
          "name": "_bidder",
          "type": "address"
        },
        {
          "indexed": false,
          "internalType": "uint256",
          "name": "_bidPrice",
          "type": "uint256"
        },
        {
          "indexed": false,
          "internalType": "uint32",
          "name": "_auctionStatus",
          "type": "uint32"
        },
        {
          "indexed": false,
          "internalType": "uint256",
          "name": "_bidCount",
          "type": "uint256"
        }
      ],
      "name": "Selling",
      "type": "event"
    },
    {
      "anonymous": false,
      "inputs": [
        {
          "indexed": false,
          "internalType": "address",
          "name": "account",
          "type": "address"
        }
      ],
      "name": "Unpaused",
      "type": "event"
    },
    {
      "anonymous": false,
      "inputs": [
        {
          "indexed": true,
          "internalType": "uint256",
          "name": "_auctionId",
          "type": "uint256"
        },
        {
          "indexed": false,
          "internalType": "address",
          "name": "_seller",
          "type": "address"
        },
        {
          "indexed": false,
          "internalType": "address",
          "name": "_bidder",
          "type": "address"
        },
        {
          "indexed": false,
          "internalType": "uint256",
          "name": "_bidPrice",
          "type": "uint256"
        },
        {
          "indexed": false,
          "internalType": "uint32",
          "name": "_auctionStatus",
          "type": "uint32"
        },
        {
          "indexed": false,
          "internalType": "uint256",
          "name": "_bidCount",
          "type": "uint256"
        }
      ],
      "name": "Withdraw",
      "type": "event"
    },
    {
      "inputs": [],
      "name": "artGee",
      "outputs": [
        {
          "internalType": "contract IAgERC721",
          "name": "",
          "type": "address"
        }
      ],
      "stateMutability": "view",
      "type": "function",
      "constant": true
    },
    {
      "inputs": [
        {
          "internalType": "uint256",
          "name": "",
          "type": "uint256"
        }
      ],
      "name": "artPercent",
      "outputs": [
        {
          "internalType": "uint256",
          "name": "",
          "type": "uint256"
        }
      ],
      "stateMutability": "view",
      "type": "function",
      "constant": true
    },
    {
      "inputs": [],
      "name": "basePercent",
      "outputs": [
        {
          "internalType": "uint256",
          "name": "",
          "type": "uint256"
        }
      ],
      "stateMutability": "view",
      "type": "function",
      "constant": true
    },
    {
      "inputs": [
        {
          "internalType": "uint256",
          "name": "",
          "type": "uint256"
        }
      ],
      "name": "bidInfos",
      "outputs": [
        {
          "internalType": "address",
          "name": "token",
          "type": "address"
        },
        {
          "internalType": "uint256",
          "name": "tokenId",
          "type": "uint256"
        },
        {
          "internalType": "address",
          "name": "seller",
          "type": "address"
        },
        {
          "internalType": "address",
          "name": "bidder",
          "type": "address"
        },
        {
          "internalType": "uint256",
          "name": "openingBid",
          "type": "uint256"
        },
        {
          "internalType": "uint256",
          "name": "reservePrice",
          "type": "uint256"
        },
        {
          "internalType": "uint256",
          "name": "bidIncrements",
          "type": "uint256"
        },
        {
          "internalType": "uint256",
          "name": "bidPrice",
          "type": "uint256"
        },
        {
          "internalType": "uint256",
          "name": "bidCount",
          "type": "uint256"
        },
        {
          "internalType": "uint256",
          "name": "startTime",
          "type": "uint256"
        },
        {
          "internalType": "uint32",
          "name": "auctionStatus",
          "type": "uint32"
        },
        {
          "internalType": "uint256",
          "name": "expirationTime",
          "type": "uint256"
        }
      ],
      "stateMutability": "view",
      "type": "function",
      "constant": true
    },
    {
      "inputs": [],
      "name": "extendTime",
      "outputs": [
        {
          "internalType": "uint256",
          "name": "",
          "type": "uint256"
        }
      ],
      "stateMutability": "view",
      "type": "function",
      "constant": true
    },
    {
      "inputs": [],
      "name": "feePercent",
      "outputs": [
        {
          "internalType": "uint256",
          "name": "",
          "type": "uint256"
        }
      ],
      "stateMutability": "view",
      "type": "function",
      "constant": true
    },
    {
      "inputs": [
        {
          "internalType": "address",
          "name": "_owner",
          "type": "address"
        }
      ],
      "name": "getMyArtList",
      "outputs": [
        {
          "internalType": "uint256[]",
          "name": "",
          "type": "uint256[]"
        }
      ],
      "stateMutability": "view",
      "type": "function",
      "constant": true
    },
    {
      "inputs": [
        {
          "internalType": "address",
          "name": "",
          "type": "address"
        },
        {
          "internalType": "uint256",
          "name": "",
          "type": "uint256"
        }
      ],
      "name": "isNotFirstAuction",
      "outputs": [
        {
          "internalType": "bool",
          "name": "",
          "type": "bool"
        }
      ],
      "stateMutability": "view",
      "type": "function",
      "constant": true
    },
    {
      "inputs": [],
      "name": "isOperator",
      "outputs": [
        {
          "internalType": "bool",
          "name": "",
          "type": "bool"
        }
      ],
      "stateMutability": "view",
      "type": "function",
      "constant": true
    },
    {
      "inputs": [
        {
          "internalType": "address",
          "name": "",
          "type": "address"
        },
        {
          "internalType": "uint256",
          "name": "",
          "type": "uint256"
        }
      ],
      "name": "myBidInfos",
      "outputs": [
        {
          "internalType": "uint256",
          "name": "",
          "type": "uint256"
        }
      ],
      "stateMutability": "view",
      "type": "function",
      "constant": true
    },
    {
      "inputs": [
        {
          "internalType": "address",
          "name": "",
          "type": "address"
        },
        {
          "internalType": "address",
          "name": "",
          "type": "address"
        },
        {
          "internalType": "uint256",
          "name": "",
          "type": "uint256"
        },
        {
          "internalType": "bytes",
          "name": "",
          "type": "bytes"
        }
      ],
      "name": "onERC721Received",
      "outputs": [
        {
          "internalType": "bytes4",
          "name": "",
          "type": "bytes4"
        }
      ],
      "stateMutability": "pure",
      "type": "function",
      "constant": true
    },
    {
      "inputs": [],
      "name": "operator",
      "outputs": [
        {
          "internalType": "address",
          "name": "",
          "type": "address"
        }
      ],
      "stateMutability": "view",
      "type": "function",
      "constant": true
    },
    {
      "inputs": [],
      "name": "owner",
      "outputs": [
        {
          "internalType": "address",
          "name": "",
          "type": "address"
        }
      ],
      "stateMutability": "view",
      "type": "function",
      "constant": true
    },
    {
      "inputs": [],
      "name": "paused",
      "outputs": [
        {
          "internalType": "bool",
          "name": "",
          "type": "bool"
        }
      ],
      "stateMutability": "view",
      "type": "function",
      "constant": true
    },
    {
      "inputs": [],
      "name": "platform",
      "outputs": [
        {
          "internalType": "address",
          "name": "",
          "type": "address"
        }
      ],
      "stateMutability": "view",
      "type": "function",
      "constant": true
    },
    {
      "inputs": [],
      "name": "renounceOwnership",
      "outputs": [],
      "stateMutability": "nonpayable",
      "type": "function"
    },
    {
      "inputs": [],
      "name": "reverseTime",
      "outputs": [
        {
          "internalType": "uint256",
          "name": "",
          "type": "uint256"
        }
      ],
      "stateMutability": "view",
      "type": "function",
      "constant": true
    },
    {
      "inputs": [
        {
          "internalType": "uint256",
          "name": "_feePercent",
          "type": "uint256"
        },
        {
          "internalType": "uint256[2]",
          "name": "_artPercents",
          "type": "uint256[2]"
        }
      ],
      "name": "setArtPercent",
      "outputs": [],
      "stateMutability": "nonpayable",
      "type": "function"
    },
    {
      "inputs": [
        {
          "internalType": "contract IAgERC721",
          "name": "_artGee",
          "type": "address"
        },
        {
          "internalType": "address",
          "name": "_platform",
          "type": "address"
        }
      ],
      "name": "setArtgee",
      "outputs": [],
      "stateMutability": "nonpayable",
      "type": "function"
    },
    {
      "inputs": [
        {
          "internalType": "address",
          "name": "newOperator_",
          "type": "address"
        }
      ],
      "name": "transferOperator",
      "outputs": [],
      "stateMutability": "nonpayable",
      "type": "function"
    },
    {
      "inputs": [
        {
          "internalType": "address",
          "name": "newOwner",
          "type": "address"
        }
      ],
      "name": "transferOwnership",
      "outputs": [],
      "stateMutability": "nonpayable",
      "type": "function"
    },
    {
      "stateMutability": "payable",
      "type": "receive",
      "payable": true
    },
    {
      "inputs": [
        {
          "internalType": "uint256",
          "name": "_extendTime",
          "type": "uint256"
        },
        {
          "internalType": "uint256",
          "name": "_reverseTime",
          "type": "uint256"
        }
      ],
      "name": "setReverseTime",
      "outputs": [],
      "stateMutability": "nonpayable",
      "type": "function"
    },
    {
      "inputs": [],
      "name": "getCurrentArtList",
      "outputs": [
        {
          "internalType": "uint256",
          "name": "",
          "type": "uint256"
        }
      ],
      "stateMutability": "view",
      "type": "function",
      "constant": true
    },
    {
      "inputs": [
        {
          "internalType": "address",
          "name": "_token",
          "type": "address"
        },
        {
          "internalType": "uint256",
          "name": "_tokenId",
          "type": "uint256"
        },
        {
          "internalType": "uint256",
          "name": "_openingBid",
          "type": "uint256"
        },
        {
          "internalType": "uint256",
          "name": "_bidIncrements",
          "type": "uint256"
        },
        {
          "internalType": "uint256",
          "name": "_reservePrice",
          "type": "uint256"
        },
        {
          "internalType": "uint256",
          "name": "_startTime",
          "type": "uint256"
        },
        {
          "internalType": "uint256",
          "name": "_expirationTime",
          "type": "uint256"
        }
      ],
      "name": "auction",
      "outputs": [],
      "stateMutability": "nonpayable",
      "type": "function"
    },
    {
      "inputs": [
        {
          "internalType": "uint256",
          "name": "_auctionId",
          "type": "uint256"
        },
        {
          "internalType": "uint256",
          "name": "_openingBid",
          "type": "uint256"
        },
        {
          "internalType": "uint256",
          "name": "_bidIncrements",
          "type": "uint256"
        },
        {
          "internalType": "uint256",
          "name": "_reservePrice",
          "type": "uint256"
        },
        {
          "internalType": "uint256",
          "name": "_startTime",
          "type": "uint256"
        },
        {
          "internalType": "uint256",
          "name": "_expirationTime",
          "type": "uint256"
        }
      ],
      "name": "reAuction",
      "outputs": [],
      "stateMutability": "nonpayable",
      "type": "function"
    },
    {
      "inputs": [
        {
          "internalType": "uint256",
          "name": "_auctionId",
          "type": "uint256"
        }
      ],
      "name": "bid",
      "outputs": [],
      "stateMutability": "payable",
      "type": "function",
      "payable": true
    },
    {
      "inputs": [
        {
          "internalType": "uint256",
          "name": "_auctionId",
          "type": "uint256"
        }
      ],
      "name": "getCurrentPrice",
      "outputs": [
        {
          "internalType": "uint256",
          "name": "_nowBidPrice",
          "type": "uint256"
        }
      ],
      "stateMutability": "view",
      "type": "function",
      "constant": true
    },
    {
      "inputs": [
        {
          "internalType": "uint256",
          "name": "_auctionId",
          "type": "uint256"
        }
      ],
      "name": "cancel",
      "outputs": [],
      "stateMutability": "nonpayable",
      "type": "function"
    },
    {
      "inputs": [
        {
          "internalType": "uint256",
          "name": "_auctionId",
          "type": "uint256"
        }
      ],
      "name": "sellingSettlementPrice",
      "outputs": [],
      "stateMutability": "nonpayable",
      "type": "function"
    },
    {
      "inputs": [
        {
          "internalType": "uint256",
          "name": "_auctionId",
          "type": "uint256"
        }
      ],
      "name": "bidderReverse",
      "outputs": [],
      "stateMutability": "nonpayable",
      "type": "function"
    },
    {
      "inputs": [
        {
          "internalType": "uint256",
          "name": "_auctionId",
          "type": "uint256"
        }
      ],
      "name": "withdraw",
      "outputs": [],
      "stateMutability": "nonpayable",
      "type": "function"
    },
    {
      "inputs": [],
      "name": "setPaused",
      "outputs": [],
      "stateMutability": "nonpayable",
      "type": "function"
    },
    {
      "inputs": [],
      "name": "setUnpaused",
      "outputs": [],
      "stateMutability": "nonpayable",
      "type": "function"
    }
  ],
  "bytecode": "0x60806040526064600355604051806040016040528060c860ff168152602001606460ff16815250600490600262000038929190620002cc565b506103e8600555610384600e5562069780600f553480156200005957600080fd5b5060405162005b5538038062005b55833981810160405260408110156200007f57600080fd5b8101908080519060200190929190805190602001909291905050506000620000ac620002c460201b60201c565b9050806000806101000a81548173ffffffffffffffffffffffffffffffffffffffff021916908373ffffffffffffffffffffffffffffffffffffffff1602179055508073ffffffffffffffffffffffffffffffffffffffff16600073ffffffffffffffffffffffffffffffffffffffff167f8be0079c531659141344cd1fd0a4f28419497f9722a3daafe3b4186f6b6457e060405160405180910390a3506200015a620002c460201b60201c565b600160006101000a81548173ffffffffffffffffffffffffffffffffffffffff021916908373ffffffffffffffffffffffffffffffffffffffff160217905550600160009054906101000a900473ffffffffffffffffffffffffffffffffffffffff1673ffffffffffffffffffffffffffffffffffffffff16600073ffffffffffffffffffffffffffffffffffffffff167f74da04524d50c64947f5dd5381ef1a4dca5cba8ed1d816243f9e48aa0b5617ed60405160405180910390a36000600a60006101000a81548160ff0219169083151502179055506001600b8190555081600260006101000a81548173ffffffffffffffffffffffffffffffffffffffff021916908373ffffffffffffffffffffffffffffffffffffffff16021790555080600660006101000a81548173ffffffffffffffffffffffffffffffffffffffff021916908373ffffffffffffffffffffffffffffffffffffffff160217905550505062000342565b600033905090565b82805482825590600052602060002090810192821562000310579160200282015b828111156200030f578251829060ff16905591602001919060010190620002ed565b5b5090506200031f919062000323565b5090565b5b808211156200033e57600081600090555060010162000324565b5090565b61580380620003526000396000f3fe6080604052600436106101f25760003560e01c80635c975abb1161010d578063c55d0f56116100a0578063f288f46f1161006f578063f288f46f14610a40578063f2ec6fad14610b24578063f2fde38b14610b73578063f628c50514610bc4578063fc83966314610c31576101f9565b8063c55d0f5614610960578063c5ac0ded146109af578063cb350d26146109da578063d805cad914610a15576101f9565b80638e4bb9a1116100dc5780638e4bb9a114610856578063a525d19914610881578063abb6ae89146108f0578063b8980b641461091b576101f9565b80635c975abb146107a6578063715018a6146107d35780637fd6f15c146107ea5780638da5cb5b14610815576101f9565b80633c89edce116101855780634bde38c8116101545780634bde38c8146106a85780635313a89c146106e9578063570ca7351461072a5780635b4458a01461076b576101f9565b80633c89edce146105fb57806340e58ee5146106125780634456eda21461064d578063454a2ab31461067a576101f9565b806319e9e3c8116101c157806319e9e3c8146104b257806329605e77146105585780632e1a7d4d146105a957806337a66d85146105e4576101f9565b80630773b15b146101fe57806309858e431461026f578063122e986f146102fc578063150b7a021461036d576101f9565b366101f957005b600080fd5b34801561020a57600080fd5b506102576004803603604081101561022157600080fd5b81019080803573ffffffffffffffffffffffffffffffffffffffff16906020019092919080359060200190929190505050610cad565b60405180821515815260200191505060405180910390f35b34801561027b57600080fd5b506102fa600480360360e081101561029257600080fd5b81019080803573ffffffffffffffffffffffffffffffffffffffff169060200190929190803590602001909291908035906020019092919080359060200190929190803590602001909291908035906020019092919080359060200190929190505050610cdc565b005b34801561030857600080fd5b5061036b6004803603604081101561031f57600080fd5b81019080803573ffffffffffffffffffffffffffffffffffffffff169060200190929190803573ffffffffffffffffffffffffffffffffffffffff1690602001909291905050506111a0565b005b34801561037957600080fd5b5061047d6004803603608081101561039057600080fd5b81019080803573ffffffffffffffffffffffffffffffffffffffff169060200190929190803573ffffffffffffffffffffffffffffffffffffffff16906020019092919080359060200190929190803590602001906401000000008111156103f757600080fd5b82018360208201111561040957600080fd5b8035906020019184600183028401116401000000008311171561042b57600080fd5b91908080601f016020809104026020016040519081016040528093929190818152602001838380828437600081840152601f19601f8201169050808301925050505050505091929192905050506112d5565b60405180827bffffffffffffffffffffffffffffffffffffffffffffffffffffffff1916815260200191505060405180910390f35b3480156104be57600080fd5b50610501600480360360208110156104d557600080fd5b81019080803573ffffffffffffffffffffffffffffffffffffffff1690602001909291905050506112e9565b6040518080602001828103825283818151815260200191508051906020019060200280838360005b83811015610544578082015181840152602081019050610529565b505050509050019250505060405180910390f35b34801561056457600080fd5b506105a76004803603602081101561057b57600080fd5b81019080803573ffffffffffffffffffffffffffffffffffffffff169060200190929190505050611380565b005b3480156105b557600080fd5b506105e2600480360360208110156105cc57600080fd5b810190808035906020019092919050505061143b565b005b3480156105f057600080fd5b506105f9611978565b005b34801561060757600080fd5b50610610611a31565b005b34801561061e57600080fd5b5061064b6004803603602081101561063557600080fd5b8101908080359060200190929190505050611aea565b005b34801561065957600080fd5b50610662612173565b60405180821515815260200191505060405180910390f35b6106a66004803603602081101561069057600080fd5b81019080803590602001909291905050506121d2565b005b3480156106b457600080fd5b506106bd6129a9565b604051808273ffffffffffffffffffffffffffffffffffffffff16815260200191505060405180910390f35b3480156106f557600080fd5b506106fe6129cf565b604051808273ffffffffffffffffffffffffffffffffffffffff16815260200191505060405180910390f35b34801561073657600080fd5b5061073f6129f5565b604051808273ffffffffffffffffffffffffffffffffffffffff16815260200191505060405180910390f35b34801561077757600080fd5b506107a46004803603602081101561078e57600080fd5b8101908080359060200190929190505050612a1f565b005b3480156107b257600080fd5b506107bb612f5c565b60405180821515815260200191505060405180910390f35b3480156107df57600080fd5b506107e8612f73565b005b3480156107f657600080fd5b506107ff6130e0565b6040518082815260200191505060405180910390f35b34801561082157600080fd5b5061082a6130e6565b604051808273ffffffffffffffffffffffffffffffffffffffff16815260200191505060405180910390f35b34801561086257600080fd5b5061086b61310f565b6040518082815260200191505060405180910390f35b34801561088d57600080fd5b506108da600480360360408110156108a457600080fd5b81019080803573ffffffffffffffffffffffffffffffffffffffff16906020019092919080359060200190929190505050613115565b6040518082815260200191505060405180910390f35b3480156108fc57600080fd5b50610905613143565b6040518082815260200191505060405180910390f35b34801561092757600080fd5b5061095e6004803603604081101561093e57600080fd5b810190808035906020019092919080359060200190929190505050613149565b005b34801561096c57600080fd5b506109996004803603602081101561098357600080fd5b810190808035906020019092919050505061325f565b6040518082815260200191505060405180910390f35b3480156109bb57600080fd5b506109c46134c7565b6040518082815260200191505060405180910390f35b3480156109e657600080fd5b50610a13600480360360208110156109fd57600080fd5b81019080803590602001909291905050506134cd565b005b348015610a2157600080fd5b50610a2a613a06565b6040518082815260200191505060405180910390f35b348015610a4c57600080fd5b50610a7960048036036020811015610a6357600080fd5b8101908080359060200190929190505050613a17565b604051808d73ffffffffffffffffffffffffffffffffffffffff1681526020018c81526020018b73ffffffffffffffffffffffffffffffffffffffff1681526020018a73ffffffffffffffffffffffffffffffffffffffff1681526020018981526020018881526020018781526020018681526020018581526020018481526020018363ffffffff1681526020018281526020019c5050505050505050505050505060405180910390f35b348015610b3057600080fd5b50610b5d60048036036020811015610b4757600080fd5b8101908080359060200190929190505050613ae7565b6040518082815260200191505060405180910390f35b348015610b7f57600080fd5b50610bc260048036036020811015610b9657600080fd5b81019080803573ffffffffffffffffffffffffffffffffffffffff169060200190929190505050613b08565b005b348015610bd057600080fd5b50610c2f600480360360c0811015610be757600080fd5b81019080803590602001909291908035906020019092919080359060200190929190803590602001909291908035906020019092919080359060200190929190505050613cfa565b005b348015610c3d57600080fd5b50610cab60048036036060811015610c5457600080fd5b810190808035906020019092919080604001906002806020026040519081016040528092919082600260200280828437600081840152601f19601f8201169050808301925050505050509192919290505050614390565b005b60076020528160005260406000206020528060005260406000206000915091509054906101000a900460ff1681565b6002600b541415610d55576040517f08c379a000000000000000000000000000000000000000000000000000000000815260040180806020018281038252601f8152602001807f5265656e7472616e637947756172643a207265656e7472616e742063616c6c0081525060200191505060405180910390fd5b6002600b81905550610d65612f5c565b15610dd8576040517f08c379a00000000000000000000000000000000000000000000000000000000081526004018080602001828103825260108152602001807f5061757361626c653a207061757365640000000000000000000000000000000081525060200191505060405180910390fd5b60008511610e4e576040517f08c379a000000000000000000000000000000000000000000000000000000000815260040180806020018281038252600b8152602001807f4d757374206f766572203000000000000000000000000000000000000000000081525060200191505060405180910390fd5b428110158015610e5d57508181115b610ecf576040517f08c379a000000000000000000000000000000000000000000000000000000000815260040180806020018281038252600a8152602001807f54696d65206572726f720000000000000000000000000000000000000000000081525060200191505060405180910390fd5b84831015610f45576040517f08c379a000000000000000000000000000000000000000000000000000000000815260040180806020018281038252600b8152602001807f5072696365206572726f7200000000000000000000000000000000000000000081525060200191505060405180910390fd5b610f4f600c6144af565b6000610f5b600c6144c5565b90506000600d60008381526020019081526020016000209050888160000160006101000a81548173ffffffffffffffffffffffffffffffffffffffff021916908373ffffffffffffffffffffffffffffffffffffffff160217905550878160010181905550338160020160006101000a81548173ffffffffffffffffffffffffffffffffffffffff021916908373ffffffffffffffffffffffffffffffffffffffff1602179055508681600401819055508481600501819055508581600601819055508381600901819055508281600b0181905550611039816144d3565b60008990508073ffffffffffffffffffffffffffffffffffffffff166342842e0e33308c6040518463ffffffff1660e01b8152600401808473ffffffffffffffffffffffffffffffffffffffff1681526020018373ffffffffffffffffffffffffffffffffffffffff1681526020018281526020019350505050600060405180830381600087803b1580156110cd57600080fd5b505af11580156110e1573d6000803e3d6000fd5b505050506110ef3384614552565b827f2bdf3c6eed5e2202a7316215e5cf47a3187124f52e73786d8772a16856229df28b8b338c8c8b8b6000604051808973ffffffffffffffffffffffffffffffffffffffff1681526020018881526020018773ffffffffffffffffffffffffffffffffffffffff1681526020018681526020018581526020018481526020018381526020018281526020019850505050505050505060405180910390a25050506001600b8190555050505050505050565b6111a8614653565b73ffffffffffffffffffffffffffffffffffffffff166111c66130e6565b73ffffffffffffffffffffffffffffffffffffffff161461124f576040517f08c379a00000000000000000000000000000000000000000000000000000000081526004018080602001828103825260208152602001807f4f776e61626c653a2063616c6c6572206973206e6f7420746865206f776e657281525060200191505060405180910390fd5b81600260006101000a81548173ffffffffffffffffffffffffffffffffffffffff021916908373ffffffffffffffffffffffffffffffffffffffff16021790555080600660006101000a81548173ffffffffffffffffffffffffffffffffffffffff021916908373ffffffffffffffffffffffffffffffffffffffff1602179055505050565b600063150b7a0260e01b9050949350505050565b6060600860008373ffffffffffffffffffffffffffffffffffffffff1673ffffffffffffffffffffffffffffffffffffffff16815260200190815260200160002080548060200260200160405190810160405280929190818152602001828054801561137457602002820191906000526020600020905b815481526020019060010190808311611360575b50505050509050919050565b611388614653565b73ffffffffffffffffffffffffffffffffffffffff166113a66130e6565b73ffffffffffffffffffffffffffffffffffffffff161461142f576040517f08c379a00000000000000000000000000000000000000000000000000000000081526004018080602001828103825260208152602001807f4f776e61626c653a2063616c6c6572206973206e6f7420746865206f776e657281525060200191505060405180910390fd5b6114388161465b565b50565b6002600b5414156114b4576040517f08c379a000000000000000000000000000000000000000000000000000000000815260040180806020018281038252601f8152602001807f5265656e7472616e637947756172643a207265656e7472616e742063616c6c0081525060200191505060405180910390fd5b6002600b819055506114c4612f5c565b15611537576040517f08c379a00000000000000000000000000000000000000000000000000000000081526004018080602001828103825260108152602001807f5061757361626c653a207061757365640000000000000000000000000000000081525060200191505060405180910390fd5b6000600d60008381526020019081526020016000209050600073ffffffffffffffffffffffffffffffffffffffff168160000160009054906101000a900473ffffffffffffffffffffffffffffffffffffffff1673ffffffffffffffffffffffffffffffffffffffff161415611615576040517f08c379a000000000000000000000000000000000000000000000000000000000815260040180806020018281038252600d8152602001807f426964206e6f742065786973740000000000000000000000000000000000000081525060200191505060405180910390fd5b3373ffffffffffffffffffffffffffffffffffffffff168160030160009054906101000a900473ffffffffffffffffffffffffffffffffffffffff1673ffffffffffffffffffffffffffffffffffffffff16146116da576040517f08c379a000000000000000000000000000000000000000000000000000000000815260040180806020018281038252600a8152602001807f4e6f74206269646465720000000000000000000000000000000000000000000081525060200191505060405180910390fd5b600181600a0160009054906101000a900463ffffffff1663ffffffff161461176a576040517f08c379a00000000000000000000000000000000000000000000000000000000081526004018080602001828103825260138152602001807f5769746864726177206e6f74206f6e206269640000000000000000000000000081525060200191505060405180910390fd5b4281600b0154106117e3576040517f08c379a000000000000000000000000000000000000000000000000000000000815260040180806020018281038252600a8152602001807f4f6e2061756374696f6e0000000000000000000000000000000000000000000081525060200191505060405180910390fd5b6000816007015490508160050154811015611866576040517f08c379a00000000000000000000000000000000000000000000000000000000081526004018080602001828103825260168152602001807f4e6f74206f76657220726573657276652070726963650000000000000000000081525060200191505060405180910390fd5b600482600a0160006101000a81548163ffffffff021916908363ffffffff1602179055506000611897848484614780565b9050837f1981b41de05df47ed8eea1bee903f715326695ff8ecbb09cc314773c2f8f1b818460020160009054906101000a900473ffffffffffffffffffffffffffffffffffffffff168560030160009054906101000a900473ffffffffffffffffffffffffffffffffffffffff168460048860080154604051808673ffffffffffffffffffffffffffffffffffffffff1681526020018573ffffffffffffffffffffffffffffffffffffffff1681526020018481526020018381526020018281526020019550505050505060405180910390a25050506001600b8190555050565b611980614653565b73ffffffffffffffffffffffffffffffffffffffff1661199e6130e6565b73ffffffffffffffffffffffffffffffffffffffff1614611a27576040517f08c379a00000000000000000000000000000000000000000000000000000000081526004018080602001828103825260208152602001807f4f776e61626c653a2063616c6c6572206973206e6f7420746865206f776e657281525060200191505060405180910390fd5b611a2f61502d565b565b611a39614653565b73ffffffffffffffffffffffffffffffffffffffff16611a576130e6565b73ffffffffffffffffffffffffffffffffffffffff1614611ae0576040517f08c379a00000000000000000000000000000000000000000000000000000000081526004018080602001828103825260208152602001807f4f776e61626c653a2063616c6c6572206973206e6f7420746865206f776e657281525060200191505060405180910390fd5b611ae8615119565b565b6002600b541415611b63576040517f08c379a000000000000000000000000000000000000000000000000000000000815260040180806020018281038252601f8152602001807f5265656e7472616e637947756172643a207265656e7472616e742063616c6c0081525060200191505060405180910390fd5b6002600b81905550611b73612f5c565b15611be6576040517f08c379a00000000000000000000000000000000000000000000000000000000081526004018080602001828103825260108152602001807f5061757361626c653a207061757365640000000000000000000000000000000081525060200191505060405180910390fd5b6000600d60008381526020019081526020016000209050600073ffffffffffffffffffffffffffffffffffffffff168160000160009054906101000a900473ffffffffffffffffffffffffffffffffffffffff1673ffffffffffffffffffffffffffffffffffffffff161415611cc4576040517f08c379a000000000000000000000000000000000000000000000000000000000815260040180806020018281038252600d8152602001807f426964206e6f742065786973740000000000000000000000000000000000000081525060200191505060405180910390fd5b3373ffffffffffffffffffffffffffffffffffffffff168160020160009054906101000a900473ffffffffffffffffffffffffffffffffffffffff1673ffffffffffffffffffffffffffffffffffffffff1614611d89576040517f08c379a00000000000000000000000000000000000000000000000000000000081526004018080602001828103825260158152602001807f4e6f742061756374696f6e2069642073656c6c6572000000000000000000000081525060200191505060405180910390fd5b8060050154816007015410611e06576040517f08c379a000000000000000000000000000000000000000000000000000000000815260040180806020018281038252600b8152602001807f426964207375636365737300000000000000000000000000000000000000000081525060200191505060405180910390fd5b600081600a0160009054906101000a900463ffffffff16905060008163ffffffff161480611e3a575060018163ffffffff16145b80611e4b575060028163ffffffff16145b611ebd576040517f08c379a00000000000000000000000000000000000000000000000000000000081526004018080602001828103825260198152602001807f41756374696f6e2063616e63656c206f7220737563636573730000000000000081525060200191505060405180910390fd5b600060018263ffffffff161415611fdd574283600b015410611f47576040517f08c379a000000000000000000000000000000000000000000000000000000000815260040180806020018281038252600a8152602001807f4f6e2061756374696f6e0000000000000000000000000000000000000000000081525060200191505060405180910390fd5b82600701549050611f808360030160009054906101000a900473ffffffffffffffffffffffffffffffffffffffff168460070154615204565b611fae8360020160009054906101000a900473ffffffffffffffffffffffffffffffffffffffff1685615273565b611fdc8360030160009054906101000a900473ffffffffffffffffffffffffffffffffffffffff1685615273565b5b60008360000160009054906101000a900473ffffffffffffffffffffffffffffffffffffffff1690508073ffffffffffffffffffffffffffffffffffffffff166342842e0e303387600101546040518463ffffffff1660e01b8152600401808473ffffffffffffffffffffffffffffffffffffffff1681526020018373ffffffffffffffffffffffffffffffffffffffff1681526020018281526020019350505050600060405180830381600087803b15801561209957600080fd5b505af11580156120ad573d6000803e3d6000fd5b50505050600584600a0160006101000a81548163ffffffff021916908363ffffffff160217905550847fa6003a9265788185ea9814aebc679ec808f3ee8ceaa6fb959f0abe2d35a6c3928560020160009054906101000a900473ffffffffffffffffffffffffffffffffffffffff168460058860080154604051808573ffffffffffffffffffffffffffffffffffffffff16815260200184815260200183815260200182815260200194505050505060405180910390a2505050506001600b8190555050565b6000600160009054906101000a900473ffffffffffffffffffffffffffffffffffffffff1673ffffffffffffffffffffffffffffffffffffffff166121b6614653565b73ffffffffffffffffffffffffffffffffffffffff1614905090565b6002600b54141561224b576040517f08c379a000000000000000000000000000000000000000000000000000000000815260040180806020018281038252601f8152602001807f5265656e7472616e637947756172643a207265656e7472616e742063616c6c0081525060200191505060405180910390fd5b6002600b8190555061225b612f5c565b156122ce576040517f08c379a00000000000000000000000000000000000000000000000000000000081526004018080602001828103825260108152602001807f5061757361626c653a207061757365640000000000000000000000000000000081525060200191505060405180910390fd5b6000600d60008381526020019081526020016000209050600073ffffffffffffffffffffffffffffffffffffffff168160000160009054906101000a900473ffffffffffffffffffffffffffffffffffffffff1673ffffffffffffffffffffffffffffffffffffffff1614156123ac576040517f08c379a000000000000000000000000000000000000000000000000000000000815260040180806020018281038252600d8152602001807f426964206e6f742065786973740000000000000000000000000000000000000081525060200191505060405180910390fd5b8060090154421015612426576040517f08c379a00000000000000000000000000000000000000000000000000000000081526004018080602001828103825260118152602001807f41756374696f6e206e6f7420737461727400000000000000000000000000000081525060200191505060405180910390fd5b80600b01544211156124a0576040517f08c379a000000000000000000000000000000000000000000000000000000000815260040180806020018281038252600c8152602001807f41756374696f6e206f766572000000000000000000000000000000000000000081525060200191505060405180910390fd5b600081600a0160009054906101000a900463ffffffff1663ffffffff1614806124e35750600181600a0160009054906101000a900463ffffffff1663ffffffff16145b612555576040517f08c379a000000000000000000000000000000000000000000000000000000000815260040180806020018281038252600e8152602001807f4e6f74206f6e2061756374696f6e00000000000000000000000000000000000081525060200191505060405180910390fd5b8060020160009054906101000a900473ffffffffffffffffffffffffffffffffffffffff1673ffffffffffffffffffffffffffffffffffffffff163373ffffffffffffffffffffffffffffffffffffffff16141561261b576040517f08c379a00000000000000000000000000000000000000000000000000000000081526004018080602001828103825260128152602001807f53656c6c65722063616e206e6f7420626964000000000000000000000000000081525060200191505060405180910390fd5b8060030160009054906101000a900473ffffffffffffffffffffffffffffffffffffffff1673ffffffffffffffffffffffffffffffffffffffff163373ffffffffffffffffffffffffffffffffffffffff1614156126e1576040517f08c379a00000000000000000000000000000000000000000000000000000000081526004018080602001828103825260198152602001807f4269646465722063616e206e6f7420726570656174206269640000000000000081525060200191505060405180910390fd5b600081600701549050600082600801541461274a576127288260030160009054906101000a900473ffffffffffffffffffffffffffffffffffffffff168360070154615204565b6127438260060154836007015461549690919063ffffffff16565b9050612752565b816004015490505b8034146127c7576040517f08c379a000000000000000000000000000000000000000000000000000000000815260040180806020018281038252600b8152602001807f56616c7565206572726f7200000000000000000000000000000000000000000081525060200191505060405180910390fd5b808260070181905550600e546127ea4284600b015461551e90919063ffffffff16565b1161280d57612804600e544261549690919063ffffffff16565b82600b01819055505b600073ffffffffffffffffffffffffffffffffffffffff168260030160009054906101000a900473ffffffffffffffffffffffffffffffffffffffff1673ffffffffffffffffffffffffffffffffffffffff1614612894576128938260030160009054906101000a900473ffffffffffffffffffffffffffffffffffffffff1684615273565b5b61289e3384614552565b338260030160006101000a81548173ffffffffffffffffffffffffffffffffffffffff021916908373ffffffffffffffffffffffffffffffffffffffff160217905550600182600a0160006101000a81548163ffffffff021916908363ffffffff16021790555061291d6001836008015461549690919063ffffffff16565b8260080181905550827f21d49e1c269f967398b585ded56a8f3cbd23b4e2ba8ef4d2221afce47c11688b3383856008015486600b01546001604051808673ffffffffffffffffffffffffffffffffffffffff1681526020018581526020018481526020018381526020018281526020019550505050505060405180910390a250506001600b8190555050565b600660009054906101000a900473ffffffffffffffffffffffffffffffffffffffff1681565b600260009054906101000a900473ffffffffffffffffffffffffffffffffffffffff1681565b6000600160009054906101000a900473ffffffffffffffffffffffffffffffffffffffff16905090565b6002600b541415612a98576040517f08c379a000000000000000000000000000000000000000000000000000000000815260040180806020018281038252601f8152602001807f5265656e7472616e637947756172643a207265656e7472616e742063616c6c0081525060200191505060405180910390fd5b6002600b81905550612aa8612f5c565b15612b1b576040517f08c379a00000000000000000000000000000000000000000000000000000000081526004018080602001828103825260108152602001807f5061757361626c653a207061757365640000000000000000000000000000000081525060200191505060405180910390fd5b6000600d60008381526020019081526020016000209050600073ffffffffffffffffffffffffffffffffffffffff168160000160009054906101000a900473ffffffffffffffffffffffffffffffffffffffff1673ffffffffffffffffffffffffffffffffffffffff161415612bf9576040517f08c379a000000000000000000000000000000000000000000000000000000000815260040180806020018281038252600d8152602001807f426964206e6f742065786973740000000000000000000000000000000000000081525060200191505060405180910390fd5b8060020160009054906101000a900473ffffffffffffffffffffffffffffffffffffffff1673ffffffffffffffffffffffffffffffffffffffff163373ffffffffffffffffffffffffffffffffffffffff1614612cbe576040517f08c379a000000000000000000000000000000000000000000000000000000000815260040180806020018281038252600a8152602001807f4e6f742073656c6c65720000000000000000000000000000000000000000000081525060200191505060405180910390fd5b600181600a0160009054906101000a900463ffffffff1663ffffffff1614612d4e576040517f08c379a000000000000000000000000000000000000000000000000000000000815260040180806020018281038252600a8152602001807f4e6f74206f6e206269640000000000000000000000000000000000000000000081525060200191505060405180910390fd5b4281600b015410612dc7576040517f08c379a000000000000000000000000000000000000000000000000000000000815260040180806020018281038252600a8152602001807f4f6e2061756374696f6e0000000000000000000000000000000000000000000081525060200191505060405180910390fd5b600381600a0160006101000a81548163ffffffff021916908363ffffffff1602179055506000816007015490508160050154811015612e6e576040517f08c379a00000000000000000000000000000000000000000000000000000000081526004018080602001828103825260168152602001807f4e6f74206f76657220726573657276652070726963650000000000000000000081525060200191505060405180910390fd5b6000612e7b848484614780565b9050837f7b8cb770ede1e0fa422e4e20a9b57071e26b1456f74ff39a55a64f8ca651cd498460020160009054906101000a900473ffffffffffffffffffffffffffffffffffffffff168560030160009054906101000a900473ffffffffffffffffffffffffffffffffffffffff168460038860080154604051808673ffffffffffffffffffffffffffffffffffffffff1681526020018573ffffffffffffffffffffffffffffffffffffffff1681526020018481526020018381526020018281526020019550505050505060405180910390a25050506001600b8190555050565b6000600a60009054906101000a900460ff16905090565b612f7b614653565b73ffffffffffffffffffffffffffffffffffffffff16612f996130e6565b73ffffffffffffffffffffffffffffffffffffffff1614613022576040517f08c379a00000000000000000000000000000000000000000000000000000000081526004018080602001828103825260208152602001807f4f776e61626c653a2063616c6c6572206973206e6f7420746865206f776e657281525060200191505060405180910390fd5b600073ffffffffffffffffffffffffffffffffffffffff1660008054906101000a900473ffffffffffffffffffffffffffffffffffffffff1673ffffffffffffffffffffffffffffffffffffffff167f8be0079c531659141344cd1fd0a4f28419497f9722a3daafe3b4186f6b6457e060405160405180910390a360008060006101000a81548173ffffffffffffffffffffffffffffffffffffffff021916908373ffffffffffffffffffffffffffffffffffffffff160217905550565b60035481565b60008060009054906101000a900473ffffffffffffffffffffffffffffffffffffffff16905090565b600f5481565b6008602052816000526040600020818154811061312e57fe5b90600052602060002001600091509150505481565b600e5481565b613151614653565b73ffffffffffffffffffffffffffffffffffffffff1661316f6130e6565b73ffffffffffffffffffffffffffffffffffffffff16146131f8576040517f08c379a00000000000000000000000000000000000000000000000000000000081526004018080602001828103825260208152602001807f4f776e61626c653a2063616c6c6572206973206e6f7420746865206f776e657281525060200191505060405180910390fd5b7f4ff4b7f9ae1a34069639f29f94106c930a6adba9afeb7263bafe87316aeeb948600e54600f54604051808381526020018281526020019250505060405180910390a16000821461324b5781600e819055505b6000811461325b5780600f819055505b5050565b60006132696156b0565b600d6000848152602001908152602001600020604051806101800160405290816000820160009054906101000a900473ffffffffffffffffffffffffffffffffffffffff1673ffffffffffffffffffffffffffffffffffffffff1673ffffffffffffffffffffffffffffffffffffffff168152602001600182015481526020016002820160009054906101000a900473ffffffffffffffffffffffffffffffffffffffff1673ffffffffffffffffffffffffffffffffffffffff1673ffffffffffffffffffffffffffffffffffffffff1681526020016003820160009054906101000a900473ffffffffffffffffffffffffffffffffffffffff1673ffffffffffffffffffffffffffffffffffffffff1673ffffffffffffffffffffffffffffffffffffffff168152602001600482015481526020016005820154815260200160068201548152602001600782015481526020016008820154815260200160098201548152602001600a820160009054906101000a900463ffffffff1663ffffffff1663ffffffff168152602001600b82015481525050905042816101600151101561347d576040517f08c379a000000000000000000000000000000000000000000000000000000000815260040180806020018281038252600e8152602001807f4e6f74206f6e2061756374696f6e00000000000000000000000000000000000081525060200191505060405180910390fd5b60008160e0015190506000826101000151146134b5576134ae8260c001518360e0015161549690919063ffffffff16565b90506134bd565b816080015190505b8092505050919050565b60055481565b6002600b541415613546576040517f08c379a000000000000000000000000000000000000000000000000000000000815260040180806020018281038252601f8152602001807f5265656e7472616e637947756172643a207265656e7472616e742063616c6c0081525060200191505060405180910390fd5b6002600b81905550613556612f5c565b156135c9576040517f08c379a00000000000000000000000000000000000000000000000000000000081526004018080602001828103825260108152602001807f5061757361626c653a207061757365640000000000000000000000000000000081525060200191505060405180910390fd5b6000600d60008381526020019081526020016000209050600073ffffffffffffffffffffffffffffffffffffffff168160000160009054906101000a900473ffffffffffffffffffffffffffffffffffffffff1673ffffffffffffffffffffffffffffffffffffffff1614156136a7576040517f08c379a000000000000000000000000000000000000000000000000000000000815260040180806020018281038252600d8152602001807f426964206e6f742065786973740000000000000000000000000000000000000081525060200191505060405180910390fd5b8060030160009054906101000a900473ffffffffffffffffffffffffffffffffffffffff1673ffffffffffffffffffffffffffffffffffffffff163373ffffffffffffffffffffffffffffffffffffffff161461376c576040517f08c379a000000000000000000000000000000000000000000000000000000000815260040180806020018281038252600a8152602001807f4e6f74206269646465720000000000000000000000000000000000000000000081525060200191505060405180910390fd5b80600501548160070154106137e9576040517f08c379a000000000000000000000000000000000000000000000000000000000815260040180806020018281038252600b8152602001807f426964207375636365737300000000000000000000000000000000000000000081525060200191505060405180910390fd5b600181600a0160009054906101000a900463ffffffff1663ffffffff1614613879576040517f08c379a00000000000000000000000000000000000000000000000000000000081526004018080602001828103825260138152602001807f52657665727365206d757374206f6e206269640000000000000000000000000081525060200191505060405180910390fd5b42613893600f5483600b015461549690919063ffffffff16565b1115613907576040517f08c379a00000000000000000000000000000000000000000000000000000000081526004018080602001828103825260158152602001807f4e6f74206f76657220726576657273652074696d65000000000000000000000081525060200191505060405180910390fd5b613915338260070154615204565b600281600a0160006101000a81548163ffffffff021916908363ffffffff1602179055506139678160030160009054906101000a900473ffffffffffffffffffffffffffffffffffffffff1683615273565b817fc75bdd972bbaf239d88d728e4b6b5c866745e5aabbb90f310174a9ab883dae028260030160009054906101000a900473ffffffffffffffffffffffffffffffffffffffff16836007015460028560080154604051808573ffffffffffffffffffffffffffffffffffffffff16815260200184815260200183815260200182815260200194505050505060405180910390a2506001600b8190555050565b6000613a12600c6144c5565b905090565b600d6020528060005260406000206000915090508060000160009054906101000a900473ffffffffffffffffffffffffffffffffffffffff16908060010154908060020160009054906101000a900473ffffffffffffffffffffffffffffffffffffffff16908060030160009054906101000a900473ffffffffffffffffffffffffffffffffffffffff169080600401549080600501549080600601549080600701549080600801549080600901549080600a0160009054906101000a900463ffffffff169080600b015490508c565b60048181548110613af457fe5b906000526020600020016000915090505481565b613b10614653565b73ffffffffffffffffffffffffffffffffffffffff16613b2e6130e6565b73ffffffffffffffffffffffffffffffffffffffff1614613bb7576040517f08c379a00000000000000000000000000000000000000000000000000000000081526004018080602001828103825260208152602001807f4f776e61626c653a2063616c6c6572206973206e6f7420746865206f776e657281525060200191505060405180910390fd5b600073ffffffffffffffffffffffffffffffffffffffff168173ffffffffffffffffffffffffffffffffffffffff161415613c3d576040517f08c379a000000000000000000000000000000000000000000000000000000000815260040180806020018281038252602681526020018061575a6026913960400191505060405180910390fd5b8073ffffffffffffffffffffffffffffffffffffffff1660008054906101000a900473ffffffffffffffffffffffffffffffffffffffff1673ffffffffffffffffffffffffffffffffffffffff167f8be0079c531659141344cd1fd0a4f28419497f9722a3daafe3b4186f6b6457e060405160405180910390a3806000806101000a81548173ffffffffffffffffffffffffffffffffffffffff021916908373ffffffffffffffffffffffffffffffffffffffff16021790555050565b6002600b541415613d73576040517f08c379a000000000000000000000000000000000000000000000000000000000815260040180806020018281038252601f8152602001807f5265656e7472616e637947756172643a207265656e7472616e742063616c6c0081525060200191505060405180910390fd5b6002600b81905550613d83612f5c565b15613df6576040517f08c379a00000000000000000000000000000000000000000000000000000000081526004018080602001828103825260108152602001807f5061757361626c653a207061757365640000000000000000000000000000000081525060200191505060405180910390fd5b428110158015613e0557508181115b613e77576040517f08c379a000000000000000000000000000000000000000000000000000000000815260040180806020018281038252600a8152602001807f54696d65206572726f720000000000000000000000000000000000000000000081525060200191505060405180910390fd5b84831015613eed576040517f08c379a000000000000000000000000000000000000000000000000000000000815260040180806020018281038252600b8152602001807f5072696365206572726f7200000000000000000000000000000000000000000081525060200191505060405180910390fd5b6000600d60008881526020019081526020016000209050600073ffffffffffffffffffffffffffffffffffffffff168160000160009054906101000a900473ffffffffffffffffffffffffffffffffffffffff1673ffffffffffffffffffffffffffffffffffffffff161415613fcb576040517f08c379a000000000000000000000000000000000000000000000000000000000815260040180806020018281038252600d8152602001807f426964206e6f742065786973740000000000000000000000000000000000000081525060200191505060405180910390fd5b600581600a0160009054906101000a900463ffffffff1663ffffffff16141561405c576040517f08c379a00000000000000000000000000000000000000000000000000000000081526004018080602001828103825260188152602001807f53656c6c657220686173206265656e2063616e63656c6564000000000000000081525060200191505060405180910390fd5b80600501548160070154106140d9576040517f08c379a000000000000000000000000000000000000000000000000000000000815260040180806020018281038252600b8152602001807f426964207375636365737300000000000000000000000000000000000000000081525060200191505060405180910390fd5b3373ffffffffffffffffffffffffffffffffffffffff168160020160009054906101000a900473ffffffffffffffffffffffffffffffffffffffff1673ffffffffffffffffffffffffffffffffffffffff161461419e576040517f08c379a00000000000000000000000000000000000000000000000000000000081526004018080602001828103825260158152602001807f4e6f742061756374696f6e2069642073656c6c6572000000000000000000000081525060200191505060405180910390fd5b6000600182600a0160009054906101000a900463ffffffff1663ffffffff1614156142a45781600b0154421161423c576040517f08c379a00000000000000000000000000000000000000000000000000000000081526004018080602001828103825260108152602001807f41756374696f6e206e6f74206f7665720000000000000000000000000000000081525060200191505060405180910390fd5b816007015490506142758260030160009054906101000a900473ffffffffffffffffffffffffffffffffffffffff168360070154615204565b6142a38260030160009054906101000a900473ffffffffffffffffffffffffffffffffffffffff1689615273565b5b338260020160006101000a81548173ffffffffffffffffffffffffffffffffffffffff021916908373ffffffffffffffffffffffffffffffffffffffff1602179055508682600401819055508482600501819055508582600601819055508382600901819055508282600b018190555061431d826144d3565b877fb0105f505934a6f454ab99ff856e578ea6c4669855b50c90dc425b4b825bc9048289898888600060405180878152602001868152602001858152602001848152602001838152602001828152602001965050505050505060405180910390a250506001600b81905550505050505050565b614398614653565b73ffffffffffffffffffffffffffffffffffffffff166143b66130e6565b73ffffffffffffffffffffffffffffffffffffffff161461443f576040517f08c379a00000000000000000000000000000000000000000000000000000000081526004018080602001828103825260208152602001807f4f776e61626c653a2063616c6c6572206973206e6f7420746865206f776e657281525060200191505060405180910390fd5b6000821461444f57816003819055505b8060006002811061445c57fe5b6020020151600460008154811061446f57fe5b90600052602060002001819055508060016002811061448a57fe5b6020020151600460018154811061449d57fe5b90600052602060002001819055505050565b6001816000016000828254019250508190555050565b600081600001549050919050565b60008160070181905550600081600a0160006101000a81548163ffffffff021916908363ffffffff1602179055506000816008018190555060008160030160006101000a81548173ffffffffffffffffffffffffffffffffffffffff021916908373ffffffffffffffffffffffffffffffffffffffff16021790555050565b600860008373ffffffffffffffffffffffffffffffffffffffff1673ffffffffffffffffffffffffffffffffffffffff16815260200190815260200160002080549050600960008473ffffffffffffffffffffffffffffffffffffffff1673ffffffffffffffffffffffffffffffffffffffff168152602001908152602001600020600083815260200190815260200160002081905550600860008373ffffffffffffffffffffffffffffffffffffffff1673ffffffffffffffffffffffffffffffffffffffff1681526020019081526020016000208190806001815401808255809150506001900390600052602060002001600090919091909150555050565b600033905090565b600073ffffffffffffffffffffffffffffffffffffffff168173ffffffffffffffffffffffffffffffffffffffff1614156146e1576040517f08c379a000000000000000000000000000000000000000000000000000000000815260040180806020018281038252602d815260200180615780602d913960400191505060405180910390fd5b8073ffffffffffffffffffffffffffffffffffffffff16600073ffffffffffffffffffffffffffffffffffffffff167f74da04524d50c64947f5dd5381ef1a4dca5cba8ed1d816243f9e48aa0b5617ed60405160405180910390a380600160006101000a81548173ffffffffffffffffffffffffffffffffffffffff021916908373ffffffffffffffffffffffffffffffffffffffff16021790555050565b60008082905060008460000160009054906101000a900473ffffffffffffffffffffffffffffffffffffffff1690508073ffffffffffffffffffffffffffffffffffffffff166342842e0e308760030160009054906101000a900473ffffffffffffffffffffffffffffffffffffffff1688600101546040518463ffffffff1660e01b8152600401808473ffffffffffffffffffffffffffffffffffffffff1681526020018373ffffffffffffffffffffffffffffffffffffffff1681526020018281526020019350505050600060405180830381600087803b15801561486657600080fd5b505af115801561487a573d6000803e3d6000fd5b5050505060006148a960055461489b600354866155a190919063ffffffff16565b61562790919063ffffffff16565b905060006148d9600660009054906101000a900473ffffffffffffffffffffffffffffffffffffffff1683615204565b8660000160009054906101000a900473ffffffffffffffffffffffffffffffffffffffff1673ffffffffffffffffffffffffffffffffffffffff16600260009054906101000a900473ffffffffffffffffffffffffffffffffffffffff1673ffffffffffffffffffffffffffffffffffffffff161415614f4d576000600260009054906101000a900473ffffffffffffffffffffffffffffffffffffffff1673ffffffffffffffffffffffffffffffffffffffff1663abb03ba689600101546040518263ffffffff1660e01b81526004018082815260200191505060606040518083038186803b1580156149cc57600080fd5b505afa1580156149e0573d6000803e3d6000fd5b505050506040513d60608110156149f657600080fd5b81019080805190602001909291908051906020019092919080519060200190929190505050505090506000606080600260009054906101000a900473ffffffffffffffffffffffffffffffffffffffff1673ffffffffffffffffffffffffffffffffffffffff1663e726d96b856040518263ffffffff1660e01b81526004018082815260200191505060006040518083038186803b158015614a9757600080fd5b505afa158015614aab573d6000803e3d6000fd5b505050506040513d6000823e3d601f19601f8201168201806040525060e0811015614ad557600080fd5b810190808051906020019092919080519060200190929190805190602001909291908051906020019092919080516040519392919084640100000000821115614b1d57600080fd5b83820191506020820185811115614b3357600080fd5b8251866020820283011164010000000082111715614b5057600080fd5b8083526020830192505050908051906020019060200280838360005b83811015614b87578082015181840152602081019050614b6c565b5050505090500160405260200180516040519392919084640100000000821115614bb057600080fd5b83820191506020820185811115614bc657600080fd5b8251866020820283011164010000000082111715614be357600080fd5b8083526020830192505050908051906020019060200280838360005b83811015614c1a578082015181840152602081019050614bff565b5050505090500160405260200180516040519392919084640100000000821115614c4357600080fd5b83820191506020820185811115614c5957600080fd5b8251866001820283011164010000000082111715614c7657600080fd5b8083526020830192505050908051906020019080838360005b83811015614caa578082015181840152602081019050614c8f565b50505050905090810190601f168015614cd75780820380516001836020036101000a031916815260200191505b50604052505050509550955095505050506000600760008d60000160009054906101000a900473ffffffffffffffffffffffffffffffffffffffff1673ffffffffffffffffffffffffffffffffffffffff1673ffffffffffffffffffffffffffffffffffffffff16815260200190815260200160002060008d60010154815260200190815260200160002060009054906101000a900460ff169050614dd5600554614dc783614d9e576004600081548110614d8e57fe5b9060005260206000200154614db8565b6004600181548110614dac57fe5b90600052602060002001545b8c6155a190919063ffffffff16565b61562790919063ffffffff16565b9550600083511415614df057614deb8487615204565b614eb6565b60005b8251811015614eb4576000811415614e4d57614e4885614e43600554614e35878681518110614e1e57fe5b60200260200101518c6155a190919063ffffffff16565b61562790919063ffffffff16565b615204565b614ea7565b614ea6846001830381518110614e5f57fe5b6020026020010151614ea1600554614e93878681518110614e7c57fe5b60200260200101518c6155a190919063ffffffff16565b61562790919063ffffffff16565b615204565b5b8080600101915050614df3565b505b6001600760008e60000160009054906101000a900473ffffffffffffffffffffffffffffffffffffffff1673ffffffffffffffffffffffffffffffffffffffff1673ffffffffffffffffffffffffffffffffffffffff16815260200190815260200160002060008e60010154815260200190815260200160002060006101000a81548160ff02191690831515021790555050505050505b614f9f8760020160009054906101000a900473ffffffffffffffffffffffffffffffffffffffff16614f9a83614f8c868961551e90919063ffffffff16565b61551e90919063ffffffff16565b615204565b614fcd8760020160009054906101000a900473ffffffffffffffffffffffffffffffffffffffff1689615273565b614ffb8760030160009054906101000a900473ffffffffffffffffffffffffffffffffffffffff1689615273565b61502081615012848761551e90919063ffffffff16565b61551e90919063ffffffff16565b9450505050509392505050565b615035612f5c565b156150a8576040517f08c379a00000000000000000000000000000000000000000000000000000000081526004018080602001828103825260108152602001807f5061757361626c653a207061757365640000000000000000000000000000000081525060200191505060405180910390fd5b6001600a60006101000a81548160ff0219169083151502179055507f62e78cea01bee320cd4e420270b5ea74000d11b0c9f74754ebdbfc544b05a2586150ec614653565b604051808273ffffffffffffffffffffffffffffffffffffffff16815260200191505060405180910390a1565b615121612f5c565b615193576040517f08c379a00000000000000000000000000000000000000000000000000000000081526004018080602001828103825260148152602001807f5061757361626c653a206e6f742070617573656400000000000000000000000081525060200191505060405180910390fd5b6000600a60006101000a81548160ff0219169083151502179055507f5db9ee0a495bf2e6ff9c91a7834c1ba4fdd244a5e8aa4e537bd38aeae4b073aa6151d7614653565b604051808273ffffffffffffffffffffffffffffffffffffffff16815260200191505060405180910390a1565b8173ffffffffffffffffffffffffffffffffffffffff1681614e2090604051806000019050600060405180830381858888f193505050503d8060008114615267576040519150601f19603f3d011682016040523d82523d6000602084013e61526c565b606091505b5050505050565b60006152cb6001600860008673ffffffffffffffffffffffffffffffffffffffff1673ffffffffffffffffffffffffffffffffffffffff1681526020019081526020016000208054905061551e90919063ffffffff16565b90506000600960008573ffffffffffffffffffffffffffffffffffffffff1673ffffffffffffffffffffffffffffffffffffffff1681526020019081526020016000206000848152602001908152602001600020549050808214615432576000600860008673ffffffffffffffffffffffffffffffffffffffff1673ffffffffffffffffffffffffffffffffffffffff168152602001908152602001600020838154811061537557fe5b9060005260206000200154905080600860008773ffffffffffffffffffffffffffffffffffffffff1673ffffffffffffffffffffffffffffffffffffffff16815260200190815260200160002083815481106153cd57fe5b906000526020600020018190555081600960008773ffffffffffffffffffffffffffffffffffffffff1673ffffffffffffffffffffffffffffffffffffffff168152602001908152602001600020600083815260200190815260200160002081905550505b600860008573ffffffffffffffffffffffffffffffffffffffff1673ffffffffffffffffffffffffffffffffffffffff16815260200190815260200160002080548061547a57fe5b6001900381819060005260206000200160009055905550505050565b600080828401905083811015615514576040517f08c379a000000000000000000000000000000000000000000000000000000000815260040180806020018281038252601b8152602001807f536166654d6174683a206164646974696f6e206f766572666c6f77000000000081525060200191505060405180910390fd5b8091505092915050565b600082821115615596576040517f08c379a000000000000000000000000000000000000000000000000000000000815260040180806020018281038252601e8152602001807f536166654d6174683a207375627472616374696f6e206f766572666c6f77000081525060200191505060405180910390fd5b818303905092915050565b6000808314156155b45760009050615621565b60008284029050828482816155c557fe5b041461561c576040517f08c379a00000000000000000000000000000000000000000000000000000000081526004018080602001828103825260218152602001806157ad6021913960400191505060405180910390fd5b809150505b92915050565b600080821161569e576040517f08c379a000000000000000000000000000000000000000000000000000000000815260040180806020018281038252601a8152602001807f536166654d6174683a206469766973696f6e206279207a65726f00000000000081525060200191505060405180910390fd5b8183816156a757fe5b04905092915050565b604051806101800160405280600073ffffffffffffffffffffffffffffffffffffffff16815260200160008152602001600073ffffffffffffffffffffffffffffffffffffffff168152602001600073ffffffffffffffffffffffffffffffffffffffff168152602001600081526020016000815260200160008152602001600081526020016000815260200160008152602001600063ffffffff16815260200160008152509056fe4f776e61626c653a206e6577206f776e657220697320746865207a65726f20616464726573736f70657261746f723a207a65726f206164647265737320676976656e20666f72206e6577206f70657261746f72536166654d6174683a206d756c7469706c69636174696f6e206f766572666c6f77a2646970667358221220518d90e6c9bebb73d4185212075c291849b0f33817322d5f98eeb85583b6490e64736f6c634300060c0033",
  "immutableReferences": {},
  "source": "pragma solidity ^0.6.2;\n\nimport \"@openzeppelin/contracts/token/ERC721/IERC721.sol\";\nimport \"@openzeppelin/contracts/math/SafeMath.sol\";\nimport \"@openzeppelin/contracts/utils/Counters.sol\";\nimport \"@openzeppelin/contracts/utils/Pausable.sol\";\nimport \"./interfaces/IAgERC721.sol\";\nimport './base/BaseAuction.sol';\nimport \"@openzeppelin/contracts/utils/ReentrancyGuard.sol\";\n\n/// @title English auction\n/// @author yzbbanban\n/// @notice buy token\n/// @dev \ncontract EnglishAuction is BaseAuction, Pausable, ReentrancyGuard {\n\n    event Auction(uint256 indexed _auctionId, address _token, uint256 _tokenId,address _seller, \n                    uint256 _openingBid,uint256 _bidIncrements,uint256 _startTime, uint256 _expirationTime,\n                    uint32 _auctionStatus);\n    event ReAuction(uint256 indexed _auctionId,uint256 _bidPrice,uint256 _openingBid, uint256 _bidIncrements,\n                    uint256 _startTime, uint256 _expirationTime,uint32 _auctionStatus);\n    event LastParam(uint256 _extendTime, uint256 _reverseTime);\n    event Bid(uint256 indexed _auctionId, address _bidder,uint256 _bidPrice, uint256 _bidCount,uint256 _expirationTime,uint32 _auctionStatus);\n    event Selling(uint256 indexed _auctionId, address _seller, address _bidder, uint256 _bidPrice, uint32 _auctionStatus, uint256 _bidCount);\n    event Reverse(uint256 indexed _auctionId, address _bidder, uint256 _bidPrice, uint32 _auctionStatus, uint256 _bidCount);\n    event Withdraw(uint256 indexed _auctionId, address _seller, address _bidder, uint256 _bidPrice, uint32 _auctionStatus, uint256 _bidCount);\n    event Cancel(uint256 indexed _auctionId, address _seller,uint256 _bidPrice, uint32 _auctionStatus, uint256 _bidCount);\n\n    using Counters for Counters.Counter;\n    Counters.Counter private _auctionIds;\n    using SafeMath for uint256;\n\n    mapping(uint256 => BidInfo) public bidInfos;\n    uint256 public extendTime = 15 minutes;\n    uint256 public reverseTime = 5 days;\n\n    constructor(IAgERC721 _artGee, address _platform) public{\n        artGee = _artGee;\n        platform = _platform;\n    }\n\n    struct BidInfo{\n        address token;\n        uint256 tokenId;\n        address seller;\n        address bidder;//change\n        uint256 openingBid;\n        uint256 reservePrice;\n        uint256 bidIncrements;\n        uint256 bidPrice;//change\n        uint256 bidCount;//change\n        uint256 startTime;\n        uint32 auctionStatus;// 0 init; 1 bid; 2 bidder reverse;3 seller finish; 4 bidder finish 5 seller cancel\n        uint256 expirationTime;//change\n    }\n\n    function setReverseTime(uint256 _extendTime, uint256 _reverseTime) public onlyOwner(){\n        emit LastParam(extendTime, reverseTime);\n        if(_extendTime != 0){\n            extendTime = _extendTime;\n        }\n        if(_reverseTime != 0){\n            reverseTime = _reverseTime;\n        }\n    }\n    \n       \n    function getCurrentArtList() view public returns(uint256){\n        return _auctionIds.current();\n    }\n\n    //seller\n    function auction(address _token, uint256 _tokenId,\n                    uint256 _openingBid, uint256 _bidIncrements,\n                    uint256 _reservePrice, uint256 _startTime,uint256 _expirationTime\n                     ) public nonReentrant whenNotPaused{\n        require(_openingBid > 0 ,\"Must over 0\");\n        require(_expirationTime >= block.timestamp && _expirationTime > _startTime,\"Time error\");\n        require(_reservePrice >= _openingBid, \"Price error\");\n        _auctionIds.increment();\n        uint256 auctionId = _auctionIds.current();\n        BidInfo storage bidInfo = bidInfos[auctionId];\n        bidInfo.token = _token;\n        bidInfo.tokenId = _tokenId;\n        bidInfo.seller = msg.sender;\n        bidInfo.openingBid = _openingBid;\n        bidInfo.reservePrice = _reservePrice;\n        bidInfo.bidIncrements = _bidIncrements;\n        bidInfo.startTime = _startTime;\n        //1 day later\n        bidInfo.expirationTime = _expirationTime;\n        _initAuction(bidInfo);\n        //add tokenId\n        IERC721 ierc721 = IERC721(_token);\n        ierc721.safeTransferFrom(msg.sender, address(this), _tokenId);\n        // add my auction\n        _addMyAuction(msg.sender,auctionId);\n        emit Auction(auctionId,_token, _tokenId, msg.sender, _openingBid, \n                    _bidIncrements, _startTime,_expirationTime,0);\n    }\n\n    //seller\n    function reAuction(uint256 _auctionId, \n                        uint256 _openingBid, uint256 _bidIncrements,\n                        uint256 _reservePrice, uint256 _startTime, uint256 _expirationTime) public nonReentrant whenNotPaused{\n        require(_expirationTime >= block.timestamp && _expirationTime > _startTime,\"Time error\");\n        require(_reservePrice >= _openingBid, \"Price error\");\n        BidInfo storage bidInfo = bidInfos[_auctionId];\n        require(bidInfo.token != address(0),\"Bid not exist\");\n        require(bidInfo.auctionStatus != 5,\"Seller has been canceled\");\n        //bid price must < reverse price\n        require(bidInfo.bidPrice < bidInfo.reservePrice,\"Bid success\");\n        require(bidInfo.seller == msg.sender,\"Not auction id seller\");\n        //bidder has already reverse\n        uint256 refund = 0;\n        if(bidInfo.auctionStatus == 1){\n            //must wait for auction over\n            require(block.timestamp > bidInfo.expirationTime, \"Auction not over\");\n            //sende coin to bidder\n            refund = bidInfo.bidPrice;\n            transferMain(bidInfo.bidder, bidInfo.bidPrice);\n            // remove bidder's auctionId\n            _removeMyAuction(bidInfo.bidder, _auctionId);\n        }\n        bidInfo.seller = msg.sender;\n        bidInfo.openingBid = _openingBid;\n        bidInfo.reservePrice = _reservePrice;\n        bidInfo.bidIncrements = _bidIncrements;\n        bidInfo.startTime = _startTime;\n        //1 day later\n        bidInfo.expirationTime = _expirationTime;\n        _initAuction(bidInfo);     \n        emit ReAuction(_auctionId, refund,\n                        _openingBid, _bidIncrements, _startTime,_expirationTime,0);\n    }\n\n    //bidder\n    function bid(uint256 _auctionId) payable public nonReentrant whenNotPaused{\n        BidInfo storage bidInfo = bidInfos[_auctionId];\n        require(bidInfo.token != address(0),\"Bid not exist\");\n        require(block.timestamp >= bidInfo.startTime,\"Auction not start\");\n        //now time > expiration time then auction over\n        require(block.timestamp <= bidInfo.expirationTime, \"Auction over\");\n        require(bidInfo.auctionStatus == 0 || bidInfo.auctionStatus == 1, \"Not on auction\");\n        require(msg.sender != bidInfo.seller, \"Seller can not bid\");\n        require(msg.sender != bidInfo.bidder, \"Bidder can not repeat bid\");\n        uint256 nowBidPrice = bidInfo.bidPrice;\n        //transfer to last bidder\n        if(bidInfo.bidCount!=0){\n            transferMain(bidInfo.bidder, bidInfo.bidPrice);\n            nowBidPrice = bidInfo.bidPrice.add(bidInfo.bidIncrements);\n        }else{\n            nowBidPrice = bidInfo.openingBid;\n        }\n        require(msg.value == nowBidPrice, \"Value error\");\n        //update price\n        bidInfo.bidPrice = nowBidPrice;\n        // expiration time - (startTime + 1day) => update expiration\n        if(bidInfo.expirationTime.sub(block.timestamp) <= extendTime){\n            bidInfo.expirationTime = block.timestamp.add(extendTime);\n        }\n        // add bidder auction id and remove seller auction id\n        if(bidInfo.bidder != address(0)){\n            _removeMyAuction(bidInfo.bidder, _auctionId);\n        }\n        _addMyAuction(msg.sender,_auctionId);\n        //reset bidder\n        bidInfo.bidder = msg.sender;\n        //add bid count\n        bidInfo.auctionStatus = 1;\n        bidInfo.bidCount = bidInfo.bidCount.add(1);\n        emit Bid(_auctionId, msg.sender, nowBidPrice, bidInfo.bidCount,bidInfo.expirationTime, 1);\n    }\n    \n    function getCurrentPrice(uint256 _auctionId) view public returns(uint256 _nowBidPrice){\n        BidInfo memory bidInfo = bidInfos[_auctionId];\n        require(bidInfo.expirationTime >= block.timestamp, \"Not on auction\");\n        uint256 nowBidPrice = bidInfo.bidPrice;\n        if(bidInfo.bidCount!=0){\n            nowBidPrice = bidInfo.bidPrice.add(bidInfo.bidIncrements);\n        }else{\n            nowBidPrice = bidInfo.openingBid;\n        }\n        return nowBidPrice;\n    }\n    \n    //sell cancel\n    function cancel(uint256 _auctionId) public nonReentrant whenNotPaused{\n        BidInfo storage bidInfo = bidInfos[_auctionId];\n        require(bidInfo.token != address(0),\"Bid not exist\");\n        require(bidInfo.seller == msg.sender,\"Not auction id seller\");    \n        require(bidInfo.bidPrice < bidInfo.reservePrice,\"Bid success\");\n        //init ,has bidded, bidder has reverse\n        uint32 nowStatus = bidInfo.auctionStatus;\n        require(nowStatus == 0 || nowStatus == 1 || nowStatus == 2, \"Auction cancel or success\");\n        uint256 refund = 0;\n        if(nowStatus == 1){\n            require(bidInfo.expirationTime < block.timestamp, \"On auction\");\n            refund = bidInfo.bidPrice;\n            //has bid send coin to bidder\n            transferMain(bidInfo.bidder, bidInfo.bidPrice);\n            //remove seller list\n            _removeMyAuction(bidInfo.seller, _auctionId);\n            //remove bidder list\n            _removeMyAuction(bidInfo.bidder, _auctionId);\n        }\n        IERC721 ierc721 = IERC721(bidInfo.token);\n        ierc721.safeTransferFrom(address(this),msg.sender, bidInfo.tokenId);\n        bidInfo.auctionStatus = 5;\n        emit Cancel(_auctionId, bidInfo.seller, refund, 5,bidInfo.bidCount);\n    }\n\n    //seller executor\n    function sellingSettlementPrice(uint256 _auctionId) public nonReentrant whenNotPaused{\n        BidInfo storage bidInfo = bidInfos[_auctionId];\n        require(bidInfo.token != address(0),\"Bid not exist\");\n        require(msg.sender == bidInfo.seller, \"Not seller\");\n        require(bidInfo.auctionStatus == 1, \"Not on bid\");\n        require(bidInfo.expirationTime < block.timestamp, \"On auction\");\n        bidInfo.auctionStatus = 3;\n        uint256 amount = bidInfo.bidPrice;\n        require(amount >= bidInfo.reservePrice,\"Not over reserve price\");\n        //721 transfer current bidder , get bidder price\n        uint256 am = _share(_auctionId, bidInfo, amount);\n        emit Selling(_auctionId,bidInfo.seller,bidInfo.bidder,am,3,bidInfo.bidCount);\n    }\n\n    //bidder execute\n    function bidderReverse(uint256 _auctionId) public nonReentrant whenNotPaused{\n        BidInfo storage bidInfo = bidInfos[_auctionId];\n        require(bidInfo.token != address(0),\"Bid not exist\");\n        require(msg.sender == bidInfo.bidder, \"Not bidder\");\n        require(bidInfo.bidPrice < bidInfo.reservePrice,\"Bid success\");\n        // if bidder wanner his coin, current time must over than `reverseTime`\n        require(bidInfo.auctionStatus == 1, \"Reverse must on bid\");\n        require(bidInfo.expirationTime.add(reverseTime) <= block.timestamp, \"Not over reverse time\");\n        //coin send to bidder\n        transferMain(msg.sender, bidInfo.bidPrice);\n        bidInfo.auctionStatus = 2;\n        //remove bidder list\n        _removeMyAuction(bidInfo.bidder, _auctionId);\n        emit Reverse(_auctionId, bidInfo.bidder, bidInfo.bidPrice, 2,bidInfo.bidCount);\n    }\n\n    //auction success bidder execute\n    function withdraw(uint256 _auctionId) public nonReentrant whenNotPaused{\n        BidInfo storage bidInfo = bidInfos[_auctionId];\n        require(bidInfo.token != address(0),\"Bid not exist\");\n        require(bidInfo.bidder == msg.sender,\"Not bidder\");\n        require(bidInfo.auctionStatus == 1, \"Withdraw not on bid\");\n        require(bidInfo.expirationTime < block.timestamp, \"On auction\");\n        uint256 amount = bidInfo.bidPrice;\n        require(amount >= bidInfo.reservePrice,\"Not over reserve price\");\n        bidInfo.auctionStatus = 4;\n        //721 transfer current bidder , get bidder price\n        uint256 am = _share(_auctionId, bidInfo, amount);\n        emit Withdraw(_auctionId,bidInfo.seller,bidInfo.bidder,am,4,bidInfo.bidCount);\n    }\n\n    function setPaused() public onlyOwner(){\n        super._pause();\n    }\n\n    function setUnpaused() public onlyOwner(){\n        super._unpause();\n    }\n\n    function _share(uint256 _auctionId, BidInfo storage bidInfo,uint256 _price) internal returns(uint256){\n        uint256 amount = _price;\n        IERC721 ierc721 = IERC721(bidInfo.token);\n        ierc721.safeTransferFrom(address(this), bidInfo.bidder, bidInfo.tokenId);\n        //fee to platform\n        uint256 _fee = amount.mul(feePercent).div(basePercent);\n        uint256 _artistFee = 0; \n        transferMain(platform,_fee);\n        //artist share in the benefit \n        if(address(artGee) == bidInfo.token){\n            (uint256 artId,,)=artGee.tokenArts(bidInfo.tokenId);\n            (,,,address creator,\n                address[] memory assistants,\n                uint256[] memory benefits,)=artGee.getSourceDigitalArt(artId);\n            bool isNotFirst = isNotFirstAuction[bidInfo.token][bidInfo.tokenId];\n            //first time 20% to artist,other time 10% \n            _artistFee = amount.mul(isNotFirst ? artPercent[1]:artPercent[0]).div(basePercent);\n            if(assistants.length == 0){\n                //send to creator\n                transferMain(creator,_artistFee);\n            }else{\n                //send to creator and other assistant\n                for (uint256 index = 0; index < benefits.length; index++) {\n                    if(index==0){\n                        // to creator\n                        transferMain(creator,_artistFee.mul(benefits[index]).div(basePercent));\n                    }else{\n                        // to assistants\n                        transferMain(assistants[index-1],_artistFee.mul(benefits[index]).div(basePercent));\n                    }\n                }\n            }\n            isNotFirstAuction[bidInfo.token][bidInfo.tokenId] = true;\n        }\n        // to seller\n        transferMain(bidInfo.seller, amount.sub(_fee).sub(_artistFee));\n        //remove seller list\n        _removeMyAuction(bidInfo.seller, _auctionId);\n        //remove bidder list\n        _removeMyAuction(bidInfo.bidder, _auctionId);\n        return amount.sub(_fee).sub(_artistFee);\n    }\n\n    function _initAuction(BidInfo storage bidInfo) internal {\n        bidInfo.bidPrice = 0;\n        bidInfo.auctionStatus = 0;\n        bidInfo.bidCount = 0;\n        bidInfo.bidder = address(0);  \n    }\n}",
  "sourcePath": "/Users/wangban/Downloads/money/coin/other/artgee/ArtGee-Contract/contracts/EnglishAuction.sol",
  "compiler": {
    "name": "solc",
    "version": "0.6.12+commit.27d51765.Emscripten.clang"
  },
  "schemaVersion": "3.3.2",
  "updatedAt": "2021-06-11T14:21:30.209Z",
  "networkType": "ethereum",
  "devdoc": {
    "author": "yzbbanban",
    "kind": "dev",
    "methods": {
      "onERC721Received(address,address,uint256,bytes)": {
        "details": "See {IERC721Receiver-onERC721Received}. Always returns `IERC721Receiver.onERC721Received.selector`."
      },
      "owner()": {
        "details": "Returns the address of the current owner."
      },
      "paused()": {
        "details": "Returns true if the contract is paused, and false otherwise."
      },
      "renounceOwnership()": {
        "details": "Leaves the contract without owner. It will not be possible to call `onlyOwner` functions anymore. Can only be called by the current owner. NOTE: Renouncing ownership will leave the contract without an owner, thereby removing any functionality that is only available to the owner."
      },
      "transferOwnership(address)": {
        "details": "Transfers ownership of the contract to a new account (`newOwner`). Can only be called by the current owner."
      }
    },
    "title": "English auction",
    "version": 1
  },
  "userdoc": {
    "kind": "user",
    "methods": {},
    "notice": "buy token",
    "version": 1
  }
}