{
  "contractName": "FixedAuction",
  "abi": [
    {
      "inputs": [
        {
          "internalType": "contract IAgERC721",
          "name": "_artGee",
          "type": "address"
        },
        {
          "internalType": "address",
          "name": "_platform",
          "type": "address"
        }
      ],
      "stateMutability": "nonpayable",
      "type": "constructor"
    },
    {
      "anonymous": false,
      "inputs": [
        {
          "indexed": true,
          "internalType": "uint256",
          "name": "_auctionId",
          "type": "uint256"
        },
        {
          "indexed": false,
          "internalType": "address",
          "name": "_token",
          "type": "address"
        },
        {
          "indexed": false,
          "internalType": "uint256",
          "name": "_tokenId",
          "type": "uint256"
        },
        {
          "indexed": false,
          "internalType": "address",
          "name": "_seller",
          "type": "address"
        },
        {
          "indexed": false,
          "internalType": "uint256",
          "name": "_openingBid",
          "type": "uint256"
        },
        {
          "indexed": false,
          "internalType": "uint256",
          "name": "_fixedPrice",
          "type": "uint256"
        },
        {
          "indexed": false,
          "internalType": "uint32",
          "name": "_auctionStatus",
          "type": "uint32"
        }
      ],
      "name": "Auction",
      "type": "event"
    },
    {
      "anonymous": false,
      "inputs": [
        {
          "indexed": true,
          "internalType": "uint256",
          "name": "_auctionId",
          "type": "uint256"
        },
        {
          "indexed": false,
          "internalType": "address",
          "name": "_bidder",
          "type": "address"
        },
        {
          "indexed": false,
          "internalType": "uint256",
          "name": "_bidPrice",
          "type": "uint256"
        },
        {
          "indexed": false,
          "internalType": "uint256",
          "name": "_bidCount",
          "type": "uint256"
        },
        {
          "indexed": false,
          "internalType": "uint256",
          "name": "_startTime",
          "type": "uint256"
        },
        {
          "indexed": false,
          "internalType": "uint256",
          "name": "_expirationTime",
          "type": "uint256"
        },
        {
          "indexed": false,
          "internalType": "uint32",
          "name": "_auctionStatus",
          "type": "uint32"
        }
      ],
      "name": "Bid",
      "type": "event"
    },
    {
      "anonymous": false,
      "inputs": [
        {
          "indexed": true,
          "internalType": "uint256",
          "name": "_auctionId",
          "type": "uint256"
        },
        {
          "indexed": false,
          "internalType": "address",
          "name": "_seller",
          "type": "address"
        },
        {
          "indexed": false,
          "internalType": "uint256",
          "name": "_bidPrice",
          "type": "uint256"
        },
        {
          "indexed": false,
          "internalType": "uint32",
          "name": "_auctionStatus",
          "type": "uint32"
        },
        {
          "indexed": false,
          "internalType": "uint256",
          "name": "_bidCount",
          "type": "uint256"
        }
      ],
      "name": "Cancel",
      "type": "event"
    },
    {
      "anonymous": false,
      "inputs": [
        {
          "indexed": true,
          "internalType": "uint256",
          "name": "_auctionId",
          "type": "uint256"
        },
        {
          "indexed": false,
          "internalType": "address",
          "name": "_bidder",
          "type": "address"
        },
        {
          "indexed": false,
          "internalType": "uint256",
          "name": "_bidPrice",
          "type": "uint256"
        },
        {
          "indexed": false,
          "internalType": "uint32",
          "name": "_auctionStatus",
          "type": "uint32"
        },
        {
          "indexed": false,
          "internalType": "uint256",
          "name": "_bidCount",
          "type": "uint256"
        }
      ],
      "name": "Fixed",
      "type": "event"
    },
    {
      "anonymous": false,
      "inputs": [
        {
          "indexed": false,
          "internalType": "uint256",
          "name": "_limitTime",
          "type": "uint256"
        },
        {
          "indexed": false,
          "internalType": "uint256",
          "name": "_extendTime",
          "type": "uint256"
        },
        {
          "indexed": false,
          "internalType": "uint256",
          "name": "_reverseTime",
          "type": "uint256"
        }
      ],
      "name": "LastParam",
      "type": "event"
    },
    {
      "anonymous": false,
      "inputs": [
        {
          "indexed": true,
          "internalType": "address",
          "name": "previousOperator",
          "type": "address"
        },
        {
          "indexed": true,
          "internalType": "address",
          "name": "newOperator",
          "type": "address"
        }
      ],
      "name": "OperatorTransferred",
      "type": "event"
    },
    {
      "anonymous": false,
      "inputs": [
        {
          "indexed": true,
          "internalType": "address",
          "name": "previousOwner",
          "type": "address"
        },
        {
          "indexed": true,
          "internalType": "address",
          "name": "newOwner",
          "type": "address"
        }
      ],
      "name": "OwnershipTransferred",
      "type": "event"
    },
    {
      "anonymous": false,
      "inputs": [
        {
          "indexed": false,
          "internalType": "address",
          "name": "account",
          "type": "address"
        }
      ],
      "name": "Paused",
      "type": "event"
    },
    {
      "anonymous": false,
      "inputs": [
        {
          "indexed": true,
          "internalType": "uint256",
          "name": "_auctionId",
          "type": "uint256"
        },
        {
          "indexed": false,
          "internalType": "uint256",
          "name": "_openingBid",
          "type": "uint256"
        },
        {
          "indexed": false,
          "internalType": "uint256",
          "name": "_fixedPrice",
          "type": "uint256"
        },
        {
          "indexed": false,
          "internalType": "uint32",
          "name": "_auctionStatus",
          "type": "uint32"
        }
      ],
      "name": "ReAuction",
      "type": "event"
    },
    {
      "anonymous": false,
      "inputs": [
        {
          "indexed": true,
          "internalType": "uint256",
          "name": "_auctionId",
          "type": "uint256"
        },
        {
          "indexed": false,
          "internalType": "address",
          "name": "_bidder",
          "type": "address"
        },
        {
          "indexed": false,
          "internalType": "uint256",
          "name": "_bidPrice",
          "type": "uint256"
        },
        {
          "indexed": false,
          "internalType": "uint32",
          "name": "_auctionStatus",
          "type": "uint32"
        },
        {
          "indexed": false,
          "internalType": "uint256",
          "name": "_bidCount",
          "type": "uint256"
        }
      ],
      "name": "Reverse",
      "type": "event"
    },
    {
      "anonymous": false,
      "inputs": [
        {
          "indexed": true,
          "internalType": "uint256",
          "name": "_auctionId",
          "type": "uint256"
        },
        {
          "indexed": false,
          "internalType": "address",
          "name": "_bidder",
          "type": "address"
        },
        {
          "indexed": false,
          "internalType": "uint256",
          "name": "_bidPrice",
          "type": "uint256"
        },
        {
          "indexed": false,
          "internalType": "uint32",
          "name": "_auctionStatus",
          "type": "uint32"
        },
        {
          "indexed": false,
          "internalType": "uint256",
          "name": "_bidCount",
          "type": "uint256"
        }
      ],
      "name": "Selling",
      "type": "event"
    },
    {
      "anonymous": false,
      "inputs": [
        {
          "indexed": false,
          "internalType": "address",
          "name": "account",
          "type": "address"
        }
      ],
      "name": "Unpaused",
      "type": "event"
    },
    {
      "inputs": [],
      "name": "artGee",
      "outputs": [
        {
          "internalType": "contract IAgERC721",
          "name": "",
          "type": "address"
        }
      ],
      "stateMutability": "view",
      "type": "function"
    },
    {
      "inputs": [
        {
          "internalType": "uint256",
          "name": "",
          "type": "uint256"
        }
      ],
      "name": "artList",
      "outputs": [
        {
          "internalType": "uint256",
          "name": "",
          "type": "uint256"
        }
      ],
      "stateMutability": "view",
      "type": "function"
    },
    {
      "inputs": [
        {
          "internalType": "uint256",
          "name": "",
          "type": "uint256"
        }
      ],
      "name": "artPercent",
      "outputs": [
        {
          "internalType": "uint256",
          "name": "",
          "type": "uint256"
        }
      ],
      "stateMutability": "view",
      "type": "function"
    },
    {
      "inputs": [],
      "name": "basePercent",
      "outputs": [
        {
          "internalType": "uint256",
          "name": "",
          "type": "uint256"
        }
      ],
      "stateMutability": "view",
      "type": "function"
    },
    {
      "inputs": [
        {
          "internalType": "uint256",
          "name": "",
          "type": "uint256"
        }
      ],
      "name": "bidInfos",
      "outputs": [
        {
          "internalType": "address",
          "name": "token",
          "type": "address"
        },
        {
          "internalType": "uint256",
          "name": "tokenId",
          "type": "uint256"
        },
        {
          "internalType": "address",
          "name": "seller",
          "type": "address"
        },
        {
          "internalType": "address",
          "name": "bidder",
          "type": "address"
        },
        {
          "internalType": "uint256",
          "name": "openingBid",
          "type": "uint256"
        },
        {
          "internalType": "uint256",
          "name": "fixedPrice",
          "type": "uint256"
        },
        {
          "internalType": "uint256",
          "name": "bidPrice",
          "type": "uint256"
        },
        {
          "internalType": "uint256",
          "name": "bidCount",
          "type": "uint256"
        },
        {
          "internalType": "uint256",
          "name": "startTime",
          "type": "uint256"
        },
        {
          "internalType": "uint32",
          "name": "auctionStatus",
          "type": "uint32"
        },
        {
          "internalType": "uint256",
          "name": "expirationTime",
          "type": "uint256"
        }
      ],
      "stateMutability": "view",
      "type": "function"
    },
    {
      "inputs": [],
      "name": "extendTime",
      "outputs": [
        {
          "internalType": "uint256",
          "name": "",
          "type": "uint256"
        }
      ],
      "stateMutability": "view",
      "type": "function"
    },
    {
      "inputs": [],
      "name": "feePercent",
      "outputs": [
        {
          "internalType": "uint256",
          "name": "",
          "type": "uint256"
        }
      ],
      "stateMutability": "view",
      "type": "function"
    },
    {
      "inputs": [],
      "name": "getArtList",
      "outputs": [
        {
          "internalType": "uint256[]",
          "name": "_artList",
          "type": "uint256[]"
        }
      ],
      "stateMutability": "view",
      "type": "function"
    },
    {
      "inputs": [
        {
          "internalType": "address",
          "name": "_owner",
          "type": "address"
        }
      ],
      "name": "getMyArtList",
      "outputs": [
        {
          "internalType": "uint256[]",
          "name": "",
          "type": "uint256[]"
        }
      ],
      "stateMutability": "view",
      "type": "function"
    },
    {
      "inputs": [
        {
          "internalType": "address",
          "name": "",
          "type": "address"
        },
        {
          "internalType": "uint256",
          "name": "",
          "type": "uint256"
        }
      ],
      "name": "isNotFirstAuction",
      "outputs": [
        {
          "internalType": "bool",
          "name": "",
          "type": "bool"
        }
      ],
      "stateMutability": "view",
      "type": "function"
    },
    {
      "inputs": [],
      "name": "isOperator",
      "outputs": [
        {
          "internalType": "bool",
          "name": "",
          "type": "bool"
        }
      ],
      "stateMutability": "view",
      "type": "function"
    },
    {
      "inputs": [],
      "name": "limitTime",
      "outputs": [
        {
          "internalType": "uint256",
          "name": "",
          "type": "uint256"
        }
      ],
      "stateMutability": "view",
      "type": "function"
    },
    {
      "inputs": [
        {
          "internalType": "address",
          "name": "",
          "type": "address"
        },
        {
          "internalType": "uint256",
          "name": "",
          "type": "uint256"
        }
      ],
      "name": "myBidInfos",
      "outputs": [
        {
          "internalType": "uint256",
          "name": "",
          "type": "uint256"
        }
      ],
      "stateMutability": "view",
      "type": "function"
    },
    {
      "inputs": [
        {
          "internalType": "address",
          "name": "",
          "type": "address"
        },
        {
          "internalType": "address",
          "name": "",
          "type": "address"
        },
        {
          "internalType": "uint256",
          "name": "",
          "type": "uint256"
        },
        {
          "internalType": "bytes",
          "name": "",
          "type": "bytes"
        }
      ],
      "name": "onERC721Received",
      "outputs": [
        {
          "internalType": "bytes4",
          "name": "",
          "type": "bytes4"
        }
      ],
      "stateMutability": "pure",
      "type": "function"
    },
    {
      "inputs": [],
      "name": "operator",
      "outputs": [
        {
          "internalType": "address",
          "name": "",
          "type": "address"
        }
      ],
      "stateMutability": "view",
      "type": "function"
    },
    {
      "inputs": [],
      "name": "owner",
      "outputs": [
        {
          "internalType": "address",
          "name": "",
          "type": "address"
        }
      ],
      "stateMutability": "view",
      "type": "function"
    },
    {
      "inputs": [],
      "name": "paused",
      "outputs": [
        {
          "internalType": "bool",
          "name": "",
          "type": "bool"
        }
      ],
      "stateMutability": "view",
      "type": "function"
    },
    {
      "inputs": [],
      "name": "platform",
      "outputs": [
        {
          "internalType": "address",
          "name": "",
          "type": "address"
        }
      ],
      "stateMutability": "view",
      "type": "function"
    },
    {
      "inputs": [],
      "name": "renounceOwnership",
      "outputs": [],
      "stateMutability": "nonpayable",
      "type": "function"
    },
    {
      "inputs": [],
      "name": "reverseTime",
      "outputs": [
        {
          "internalType": "uint256",
          "name": "",
          "type": "uint256"
        }
      ],
      "stateMutability": "view",
      "type": "function"
    },
    {
      "inputs": [
        {
          "internalType": "uint256",
          "name": "_feePercent",
          "type": "uint256"
        },
        {
          "internalType": "uint256[2]",
          "name": "_artPercents",
          "type": "uint256[2]"
        }
      ],
      "name": "setArtPercent",
      "outputs": [],
      "stateMutability": "nonpayable",
      "type": "function"
    },
    {
      "inputs": [
        {
          "internalType": "contract IAgERC721",
          "name": "_artGee",
          "type": "address"
        },
        {
          "internalType": "address",
          "name": "_platform",
          "type": "address"
        }
      ],
      "name": "setArtgee",
      "outputs": [],
      "stateMutability": "nonpayable",
      "type": "function"
    },
    {
      "inputs": [
        {
          "internalType": "address",
          "name": "newOperator_",
          "type": "address"
        }
      ],
      "name": "transferOperator",
      "outputs": [],
      "stateMutability": "nonpayable",
      "type": "function"
    },
    {
      "inputs": [
        {
          "internalType": "address",
          "name": "newOwner",
          "type": "address"
        }
      ],
      "name": "transferOwnership",
      "outputs": [],
      "stateMutability": "nonpayable",
      "type": "function"
    },
    {
      "stateMutability": "payable",
      "type": "receive"
    },
    {
      "inputs": [
        {
          "internalType": "uint256",
          "name": "_limitTime",
          "type": "uint256"
        },
        {
          "internalType": "uint256",
          "name": "_extendTime",
          "type": "uint256"
        },
        {
          "internalType": "uint256",
          "name": "_reverseTime",
          "type": "uint256"
        }
      ],
      "name": "setReverseTime",
      "outputs": [],
      "stateMutability": "nonpayable",
      "type": "function"
    },
    {
      "inputs": [
        {
          "internalType": "address",
          "name": "_token",
          "type": "address"
        },
        {
          "internalType": "uint256",
          "name": "_tokenId",
          "type": "uint256"
        },
        {
          "internalType": "uint256",
          "name": "_openingBid",
          "type": "uint256"
        },
        {
          "internalType": "uint256",
          "name": "_fixedPrice",
          "type": "uint256"
        }
      ],
      "name": "auction",
      "outputs": [],
      "stateMutability": "nonpayable",
      "type": "function"
    },
    {
      "inputs": [
        {
          "internalType": "uint256",
          "name": "_auctionId",
          "type": "uint256"
        },
        {
          "internalType": "uint256",
          "name": "_openingBid",
          "type": "uint256"
        },
        {
          "internalType": "uint256",
          "name": "_fixedPrice",
          "type": "uint256"
        }
      ],
      "name": "reAuction",
      "outputs": [],
      "stateMutability": "nonpayable",
      "type": "function"
    },
    {
      "inputs": [
        {
          "internalType": "uint256",
          "name": "_auctionId",
          "type": "uint256"
        }
      ],
      "name": "bid",
      "outputs": [],
      "stateMutability": "payable",
      "type": "function"
    },
    {
      "inputs": [
        {
          "internalType": "uint256",
          "name": "_auctionId",
          "type": "uint256"
        }
      ],
      "name": "getCurrentPrice",
      "outputs": [
        {
          "internalType": "uint256",
          "name": "_nowBidPrice",
          "type": "uint256"
        }
      ],
      "stateMutability": "view",
      "type": "function"
    },
    {
      "inputs": [
        {
          "internalType": "uint256",
          "name": "_auctionId",
          "type": "uint256"
        }
      ],
      "name": "cancel",
      "outputs": [],
      "stateMutability": "nonpayable",
      "type": "function"
    },
    {
      "inputs": [
        {
          "internalType": "uint256",
          "name": "_auctionId",
          "type": "uint256"
        }
      ],
      "name": "sellingSettlementPrice",
      "outputs": [],
      "stateMutability": "nonpayable",
      "type": "function"
    },
    {
      "inputs": [
        {
          "internalType": "uint256",
          "name": "_auctionId",
          "type": "uint256"
        }
      ],
      "name": "bidderReverse",
      "outputs": [],
      "stateMutability": "nonpayable",
      "type": "function"
    },
    {
      "inputs": [
        {
          "internalType": "uint256",
          "name": "_auctionId",
          "type": "uint256"
        }
      ],
      "name": "fixedWithdraw",
      "outputs": [],
      "stateMutability": "payable",
      "type": "function"
    },
    {
      "inputs": [],
      "name": "setPaused",
      "outputs": [],
      "stateMutability": "nonpayable",
      "type": "function"
    },
    {
      "inputs": [],
      "name": "setUnpaused",
      "outputs": [],
      "stateMutability": "nonpayable",
      "type": "function"
    }
  ],
  "bytecode": "0x60806040526064600355604051806040016040528060c860ff168152602001606460ff16815250600490600262000038929190620002d3565b506103e860055562015180600f55610384601055620697806011553480156200006057600080fd5b50604051620058d3380380620058d3833981810160405260408110156200008657600080fd5b8101908080519060200190929190805190602001909291905050506000620000b3620002cb60201b60201c565b9050806000806101000a81548173ffffffffffffffffffffffffffffffffffffffff021916908373ffffffffffffffffffffffffffffffffffffffff1602179055508073ffffffffffffffffffffffffffffffffffffffff16600073ffffffffffffffffffffffffffffffffffffffff167f8be0079c531659141344cd1fd0a4f28419497f9722a3daafe3b4186f6b6457e060405160405180910390a35062000161620002cb60201b60201c565b600160006101000a81548173ffffffffffffffffffffffffffffffffffffffff021916908373ffffffffffffffffffffffffffffffffffffffff160217905550600160009054906101000a900473ffffffffffffffffffffffffffffffffffffffff1673ffffffffffffffffffffffffffffffffffffffff16600073ffffffffffffffffffffffffffffffffffffffff167f74da04524d50c64947f5dd5381ef1a4dca5cba8ed1d816243f9e48aa0b5617ed60405160405180910390a36000600b60006101000a81548160ff0219169083151502179055506001600c8190555081600260006101000a81548173ffffffffffffffffffffffffffffffffffffffff021916908373ffffffffffffffffffffffffffffffffffffffff16021790555080600660006101000a81548173ffffffffffffffffffffffffffffffffffffffff021916908373ffffffffffffffffffffffffffffffffffffffff160217905550505062000349565b600033905090565b82805482825590600052602060002090810192821562000317579160200282015b8281111562000316578251829060ff16905591602001919060010190620002f4565b5b5090506200032691906200032a565b5090565b5b80821115620003455760008160009055506001016200032b565b5090565b61557a80620003596000396000f3fe6080604052600436106102085760003560e01c80637fd6f15c11610118578063c5ac0ded116100a0578063f16a81a21161006f578063f16a81a214610af0578063f288f46f14610b3f578063f2ec6fad14610c1c578063f2fde38b14610c6b578063fc83966314610cbc5761020f565b8063c5ac0ded14610a0d578063cb350d2614610a38578063d5422f8614610a73578063d961eb1d14610ac25761020f565b8063abb6ae89116100e7578063abb6ae891461088d578063b3b95e30146108b8578063b76b63ec146108e3578063baa283d31461094f578063c55d0f56146109be5761020f565b80637fd6f15c146107875780638da5cb5b146107b25780638e4bb9a1146107f3578063a525d1991461081e5761020f565b80634456eda21161019b578063570ca7351161016a578063570ca735146106785780635b4458a0146106b95780635c975abb146106f4578063715018a61461072157806376467423146107385761020f565b80634456eda21461059b578063454a2ab3146105c85780634bde38c8146105f65780635313a89c146106375761020f565b806329605e77116101d757806329605e77146104e157806337a66d85146105325780633c89edce1461054957806340e58ee5146105605761020f565b80630773b15b14610214578063122e986f14610285578063150b7a02146102f657806319e9e3c81461043b5761020f565b3661020f57005b600080fd5b34801561022057600080fd5b5061026d6004803603604081101561023757600080fd5b81019080803573ffffffffffffffffffffffffffffffffffffffff16906020019092919080359060200190929190505050610d38565b60405180821515815260200191505060405180910390f35b34801561029157600080fd5b506102f4600480360360408110156102a857600080fd5b81019080803573ffffffffffffffffffffffffffffffffffffffff169060200190929190803573ffffffffffffffffffffffffffffffffffffffff169060200190929190505050610d67565b005b34801561030257600080fd5b506104066004803603608081101561031957600080fd5b81019080803573ffffffffffffffffffffffffffffffffffffffff169060200190929190803573ffffffffffffffffffffffffffffffffffffffff169060200190929190803590602001909291908035906020019064010000000081111561038057600080fd5b82018360208201111561039257600080fd5b803590602001918460018302840111640100000000831117156103b457600080fd5b91908080601f016020809104026020016040519081016040528093929190818152602001838380828437600081840152601f19601f820116905080830192505050505050509192919290505050610e9c565b60405180827bffffffffffffffffffffffffffffffffffffffffffffffffffffffff1916815260200191505060405180910390f35b34801561044757600080fd5b5061048a6004803603602081101561045e57600080fd5b81019080803573ffffffffffffffffffffffffffffffffffffffff169060200190929190505050610eb0565b6040518080602001828103825283818151815260200191508051906020019060200280838360005b838110156104cd5780820151818401526020810190506104b2565b505050509050019250505060405180910390f35b3480156104ed57600080fd5b506105306004803603602081101561050457600080fd5b81019080803573ffffffffffffffffffffffffffffffffffffffff169060200190929190505050610f47565b005b34801561053e57600080fd5b50610547611002565b005b34801561055557600080fd5b5061055e6110bb565b005b34801561056c57600080fd5b506105996004803603602081101561058357600080fd5b8101908080359060200190929190505050611174565b005b3480156105a757600080fd5b506105b0611780565b60405180821515815260200191505060405180910390f35b6105f4600480360360208110156105de57600080fd5b81019080803590602001909291905050506117df565b005b34801561060257600080fd5b5061060b6120b9565b604051808273ffffffffffffffffffffffffffffffffffffffff16815260200191505060405180910390f35b34801561064357600080fd5b5061064c6120df565b604051808273ffffffffffffffffffffffffffffffffffffffff16815260200191505060405180910390f35b34801561068457600080fd5b5061068d612105565b604051808273ffffffffffffffffffffffffffffffffffffffff16815260200191505060405180910390f35b3480156106c557600080fd5b506106f2600480360360208110156106dc57600080fd5b810190808035906020019092919050505061212f565b005b34801561070057600080fd5b50610709612531565b60405180821515815260200191505060405180910390f35b34801561072d57600080fd5b50610736612548565b005b34801561074457600080fd5b506107716004803603602081101561075b57600080fd5b81019080803590602001909291905050506126b5565b6040518082815260200191505060405180910390f35b34801561079357600080fd5b5061079c6126d6565b6040518082815260200191505060405180910390f35b3480156107be57600080fd5b506107c76126dc565b604051808273ffffffffffffffffffffffffffffffffffffffff16815260200191505060405180910390f35b3480156107ff57600080fd5b50610808612705565b6040518082815260200191505060405180910390f35b34801561082a57600080fd5b506108776004803603604081101561084157600080fd5b81019080803573ffffffffffffffffffffffffffffffffffffffff1690602001909291908035906020019092919050505061270b565b6040518082815260200191505060405180910390f35b34801561089957600080fd5b506108a2612739565b6040518082815260200191505060405180910390f35b3480156108c457600080fd5b506108cd61273f565b6040518082815260200191505060405180910390f35b3480156108ef57600080fd5b506108f8612745565b6040518080602001828103825283818151815260200191508051906020019060200280838360005b8381101561093b578082015181840152602081019050610920565b505050509050019250505060405180910390f35b34801561095b57600080fd5b506109bc6004803603608081101561097257600080fd5b81019080803573ffffffffffffffffffffffffffffffffffffffff16906020019092919080359060200190929190803590602001909291908035906020019092919050505061279d565b005b3480156109ca57600080fd5b506109f7600480360360208110156109e157600080fd5b8101908080359060200190929190505050612b47565b6040518082815260200191505060405180910390f35b348015610a1957600080fd5b50610a22612ced565b6040518082815260200191505060405180910390f35b348015610a4457600080fd5b50610a7160048036036020811015610a5b57600080fd5b8101908080359060200190929190505050612cf3565b005b348015610a7f57600080fd5b50610ac060048036036060811015610a9657600080fd5b810190808035906020019092919080359060200190929190803590602001909291905050506131af565b005b610aee60048036036020811015610ad857600080fd5b810190808035906020019092919050505061376a565b005b348015610afc57600080fd5b50610b3d60048036036060811015610b1357600080fd5b81019080803590602001909291908035906020019092919080359060200190929190505050613c72565b005b348015610b4b57600080fd5b50610b7860048036036020811015610b6257600080fd5b8101908080359060200190929190505050613da3565b604051808c73ffffffffffffffffffffffffffffffffffffffff1681526020018b81526020018a73ffffffffffffffffffffffffffffffffffffffff1681526020018973ffffffffffffffffffffffffffffffffffffffff1681526020018881526020018781526020018681526020018581526020018481526020018363ffffffff1681526020018281526020019b50505050505050505050505060405180910390f35b348015610c2857600080fd5b50610c5560048036036020811015610c3f57600080fd5b8101908080359060200190929190505050613e6d565b6040518082815260200191505060405180910390f35b348015610c7757600080fd5b50610cba60048036036020811015610c8e57600080fd5b81019080803573ffffffffffffffffffffffffffffffffffffffff169060200190929190505050613e8e565b005b348015610cc857600080fd5b50610d3660048036036060811015610cdf57600080fd5b810190808035906020019092919080604001906002806020026040519081016040528092919082600260200280828437600081840152601f19601f8201169050808301925050505050509192919290505050614080565b005b60076020528160005260406000206020528060005260406000206000915091509054906101000a900460ff1681565b610d6f61419f565b73ffffffffffffffffffffffffffffffffffffffff16610d8d6126dc565b73ffffffffffffffffffffffffffffffffffffffff1614610e16576040517f08c379a00000000000000000000000000000000000000000000000000000000081526004018080602001828103825260208152602001807f4f776e61626c653a2063616c6c6572206973206e6f7420746865206f776e657281525060200191505060405180910390fd5b81600260006101000a81548173ffffffffffffffffffffffffffffffffffffffff021916908373ffffffffffffffffffffffffffffffffffffffff16021790555080600660006101000a81548173ffffffffffffffffffffffffffffffffffffffff021916908373ffffffffffffffffffffffffffffffffffffffff1602179055505050565b600063150b7a0260e01b9050949350505050565b6060600860008373ffffffffffffffffffffffffffffffffffffffff1673ffffffffffffffffffffffffffffffffffffffff168152602001908152602001600020805480602002602001604051908101604052809291908181526020018280548015610f3b57602002820191906000526020600020905b815481526020019060010190808311610f27575b50505050509050919050565b610f4f61419f565b73ffffffffffffffffffffffffffffffffffffffff16610f6d6126dc565b73ffffffffffffffffffffffffffffffffffffffff1614610ff6576040517f08c379a00000000000000000000000000000000000000000000000000000000081526004018080602001828103825260208152602001807f4f776e61626c653a2063616c6c6572206973206e6f7420746865206f776e657281525060200191505060405180910390fd5b610fff816141a7565b50565b61100a61419f565b73ffffffffffffffffffffffffffffffffffffffff166110286126dc565b73ffffffffffffffffffffffffffffffffffffffff16146110b1576040517f08c379a00000000000000000000000000000000000000000000000000000000081526004018080602001828103825260208152602001807f4f776e61626c653a2063616c6c6572206973206e6f7420746865206f776e657281525060200191505060405180910390fd5b6110b96142cc565b565b6110c361419f565b73ffffffffffffffffffffffffffffffffffffffff166110e16126dc565b73ffffffffffffffffffffffffffffffffffffffff161461116a576040517f08c379a00000000000000000000000000000000000000000000000000000000081526004018080602001828103825260208152602001807f4f776e61626c653a2063616c6c6572206973206e6f7420746865206f776e657281525060200191505060405180910390fd5b6111726143b8565b565b6002600c5414156111ed576040517f08c379a000000000000000000000000000000000000000000000000000000000815260040180806020018281038252601f8152602001807f5265656e7472616e637947756172643a207265656e7472616e742063616c6c0081525060200191505060405180910390fd5b6002600c819055506111fd612531565b15611270576040517f08c379a00000000000000000000000000000000000000000000000000000000081526004018080602001828103825260108152602001807f5061757361626c653a207061757365640000000000000000000000000000000081525060200191505060405180910390fd5b6000600e60008381526020019081526020016000209050600073ffffffffffffffffffffffffffffffffffffffff168160000160009054906101000a900473ffffffffffffffffffffffffffffffffffffffff1673ffffffffffffffffffffffffffffffffffffffff16141561134e576040517f08c379a000000000000000000000000000000000000000000000000000000000815260040180806020018281038252600d8152602001807f426964206e6f742065786973740000000000000000000000000000000000000081525060200191505060405180910390fd5b3373ffffffffffffffffffffffffffffffffffffffff168160020160009054906101000a900473ffffffffffffffffffffffffffffffffffffffff1673ffffffffffffffffffffffffffffffffffffffff1614611413576040517f08c379a00000000000000000000000000000000000000000000000000000000081526004018080602001828103825260158152602001807f4e6f742061756374696f6e2069642073656c6c6572000000000000000000000081525060200191505060405180910390fd5b60008160090160009054906101000a900463ffffffff16905060008163ffffffff161480611447575060018163ffffffff16145b80611458575060028163ffffffff16145b6114ca576040517f08c379a00000000000000000000000000000000000000000000000000000000081526004018080602001828103825260198152602001807f41756374696f6e2063616e63656c206f7220737563636573730000000000000081525060200191505060405180910390fd5b600060018263ffffffff1614156115ea574283600a015410611554576040517f08c379a000000000000000000000000000000000000000000000000000000000815260040180806020018281038252600a8152602001807f4f6e2061756374696f6e0000000000000000000000000000000000000000000081525060200191505060405180910390fd5b8260060154905061158d8360030160009054906101000a900473ffffffffffffffffffffffffffffffffffffffff1684600601546144a3565b6115bb8360020160009054906101000a900473ffffffffffffffffffffffffffffffffffffffff1685614584565b6115e98360030160009054906101000a900473ffffffffffffffffffffffffffffffffffffffff1685614584565b5b60008360000160009054906101000a900473ffffffffffffffffffffffffffffffffffffffff1690508073ffffffffffffffffffffffffffffffffffffffff166342842e0e303387600101546040518463ffffffff1660e01b8152600401808473ffffffffffffffffffffffffffffffffffffffff1681526020018373ffffffffffffffffffffffffffffffffffffffff1681526020018281526020019350505050600060405180830381600087803b1580156116a657600080fd5b505af11580156116ba573d6000803e3d6000fd5b5050505060058460090160006101000a81548163ffffffff021916908363ffffffff160217905550847fa6003a9265788185ea9814aebc679ec808f3ee8ceaa6fb959f0abe2d35a6c3928560020160009054906101000a900473ffffffffffffffffffffffffffffffffffffffff168460058860070154604051808573ffffffffffffffffffffffffffffffffffffffff16815260200184815260200183815260200182815260200194505050505060405180910390a2505050506001600c8190555050565b6000600160009054906101000a900473ffffffffffffffffffffffffffffffffffffffff1673ffffffffffffffffffffffffffffffffffffffff166117c361419f565b73ffffffffffffffffffffffffffffffffffffffff1614905090565b6002600c541415611858576040517f08c379a000000000000000000000000000000000000000000000000000000000815260040180806020018281038252601f8152602001807f5265656e7472616e637947756172643a207265656e7472616e742063616c6c0081525060200191505060405180910390fd5b6002600c81905550611868612531565b156118db576040517f08c379a00000000000000000000000000000000000000000000000000000000081526004018080602001828103825260108152602001807f5061757361626c653a207061757365640000000000000000000000000000000081525060200191505060405180910390fd5b6000600e60008381526020019081526020016000209050600073ffffffffffffffffffffffffffffffffffffffff168160000160009054906101000a900473ffffffffffffffffffffffffffffffffffffffff1673ffffffffffffffffffffffffffffffffffffffff1614156119b9576040517f08c379a000000000000000000000000000000000000000000000000000000000815260040180806020018281038252600d8152602001807f426964206e6f742065786973740000000000000000000000000000000000000081525060200191505060405180910390fd5b8060080154421015611a33576040517f08c379a00000000000000000000000000000000000000000000000000000000081526004018080602001828103825260118152602001807f41756374696f6e206e6f7420737461727400000000000000000000000000000081525060200191505060405180910390fd5b60008160090160009054906101000a900463ffffffff1663ffffffff161480611a76575060018160090160009054906101000a900463ffffffff1663ffffffff16145b611ae8576040517f08c379a000000000000000000000000000000000000000000000000000000000815260040180806020018281038252600e8152602001807f4e6f74206f6e2061756374696f6e00000000000000000000000000000000000081525060200191505060405180910390fd5b8060020160009054906101000a900473ffffffffffffffffffffffffffffffffffffffff1673ffffffffffffffffffffffffffffffffffffffff163373ffffffffffffffffffffffffffffffffffffffff161415611bae576040517f08c379a00000000000000000000000000000000000000000000000000000000081526004018080602001828103825260128152602001807f53656c6c65722063616e206e6f7420626964000000000000000000000000000081525060200191505060405180910390fd5b8060030160009054906101000a900473ffffffffffffffffffffffffffffffffffffffff1673ffffffffffffffffffffffffffffffffffffffff163373ffffffffffffffffffffffffffffffffffffffff161415611c74576040517f08c379a00000000000000000000000000000000000000000000000000000000081526004018080602001828103825260198152602001807f4269646465722063616e206e6f7420726570656174206269640000000000000081525060200191505060405180910390fd5b600042905060003490506000836007015414611df15782600a0154421115611d04576040517f08c379a000000000000000000000000000000000000000000000000000000000815260040180806020018281038252600c8152602001807f41756374696f6e206f766572000000000000000000000000000000000000000081525060200191505060405180910390fd5b611d368360030160009054906101000a900473ffffffffffffffffffffffffffffffffffffffff1684600601546144a3565b82600601548111611daf576040517f08c379a000000000000000000000000000000000000000000000000000000000815260040180806020018281038252600b8152602001807f56616c7565206572726f7200000000000000000000000000000000000000000081525060200191505060405180910390fd5b601054611dc94285600a01546147a790919063ffffffff16565b11611dec57611de36010544261482a90919063ffffffff16565b83600a01819055505b611e92565b8260040154811015611e6b576040517f08c379a000000000000000000000000000000000000000000000000000000000815260040180806020018281038252600b8152602001807f56616c7565206572726f7200000000000000000000000000000000000000000081525060200191505060405180910390fd5b818360080181905550611e89600f548361482a90919063ffffffff16565b83600a01819055505b82600501543410611f0b576040517f08c379a00000000000000000000000000000000000000000000000000000000081526004018080602001828103825260108152602001807f4f7665722066697865642070726963650000000000000000000000000000000081525060200191505060405180910390fd5b808360060181905550600073ffffffffffffffffffffffffffffffffffffffff168360030160009054906101000a900473ffffffffffffffffffffffffffffffffffffffff1673ffffffffffffffffffffffffffffffffffffffff1614611f9b57611f9a8360030160009054906101000a900473ffffffffffffffffffffffffffffffffffffffff1685614584565b5b611fa533856148b2565b338360030160006101000a81548173ffffffffffffffffffffffffffffffffffffffff021916908373ffffffffffffffffffffffffffffffffffffffff16021790555060018360090160006101000a81548163ffffffff021916908363ffffffff1602179055506120246001846007015461482a90919063ffffffff16565b8360070181905550837f159b4e3d887a9af232cd33c09cd3e930d3e93ce0a522362da54ebce400c566ff338386600701548688600a01546001604051808773ffffffffffffffffffffffffffffffffffffffff168152602001868152602001858152602001848152602001838152602001828152602001965050505050505060405180910390a25050506001600c8190555050565b600660009054906101000a900473ffffffffffffffffffffffffffffffffffffffff1681565b600260009054906101000a900473ffffffffffffffffffffffffffffffffffffffff1681565b6000600160009054906101000a900473ffffffffffffffffffffffffffffffffffffffff16905090565b6002600c5414156121a8576040517f08c379a000000000000000000000000000000000000000000000000000000000815260040180806020018281038252601f8152602001807f5265656e7472616e637947756172643a207265656e7472616e742063616c6c0081525060200191505060405180910390fd5b6002600c819055506121b8612531565b1561222b576040517f08c379a00000000000000000000000000000000000000000000000000000000081526004018080602001828103825260108152602001807f5061757361626c653a207061757365640000000000000000000000000000000081525060200191505060405180910390fd5b6000600e60008381526020019081526020016000209050600073ffffffffffffffffffffffffffffffffffffffff168160000160009054906101000a900473ffffffffffffffffffffffffffffffffffffffff1673ffffffffffffffffffffffffffffffffffffffff161415612309576040517f08c379a000000000000000000000000000000000000000000000000000000000815260040180806020018281038252600d8152602001807f426964206e6f742065786973740000000000000000000000000000000000000081525060200191505060405180910390fd5b8060020160009054906101000a900473ffffffffffffffffffffffffffffffffffffffff1673ffffffffffffffffffffffffffffffffffffffff163373ffffffffffffffffffffffffffffffffffffffff16146123ce576040517f08c379a000000000000000000000000000000000000000000000000000000000815260040180806020018281038252600a8152602001807f4e6f742073656c6c65720000000000000000000000000000000000000000000081525060200191505060405180910390fd5b60018160090160009054906101000a900463ffffffff1663ffffffff161461245e576040517f08c379a000000000000000000000000000000000000000000000000000000000815260040180806020018281038252600a8152602001807f4e6f74206f6e206269640000000000000000000000000000000000000000000081525060200191505060405180910390fd5b60038160090160006101000a81548163ffffffff021916908363ffffffff1602179055506000612493838384600601546149b3565b9050827f3a305472943ce502ec193dbd8baeb3824f8b21b4f9b0bc0fffe1c40542981a3e8360030160009054906101000a900473ffffffffffffffffffffffffffffffffffffffff168360038660070154604051808573ffffffffffffffffffffffffffffffffffffffff16815260200184815260200183815260200182815260200194505050505060405180910390a250506001600c8190555050565b6000600b60009054906101000a900460ff16905090565b61255061419f565b73ffffffffffffffffffffffffffffffffffffffff1661256e6126dc565b73ffffffffffffffffffffffffffffffffffffffff16146125f7576040517f08c379a00000000000000000000000000000000000000000000000000000000081526004018080602001828103825260208152602001807f4f776e61626c653a2063616c6c6572206973206e6f7420746865206f776e657281525060200191505060405180910390fd5b600073ffffffffffffffffffffffffffffffffffffffff1660008054906101000a900473ffffffffffffffffffffffffffffffffffffffff1673ffffffffffffffffffffffffffffffffffffffff167f8be0079c531659141344cd1fd0a4f28419497f9722a3daafe3b4186f6b6457e060405160405180910390a360008060006101000a81548173ffffffffffffffffffffffffffffffffffffffff021916908373ffffffffffffffffffffffffffffffffffffffff160217905550565b600a81815481106126c257fe5b906000526020600020016000915090505481565b60035481565b60008060009054906101000a900473ffffffffffffffffffffffffffffffffffffffff16905090565b60115481565b6008602052816000526040600020818154811061272457fe5b90600052602060002001600091509150505481565b60105481565b600f5481565b6060600a80548060200260200160405190810160405280929190818152602001828054801561279357602002820191906000526020600020905b81548152602001906001019080831161277f575b5050505050905090565b6002600c541415612816576040517f08c379a000000000000000000000000000000000000000000000000000000000815260040180806020018281038252601f8152602001807f5265656e7472616e637947756172643a207265656e7472616e742063616c6c0081525060200191505060405180910390fd5b6002600c81905550612826612531565b15612899576040517f08c379a00000000000000000000000000000000000000000000000000000000081526004018080602001828103825260108152602001807f5061757361626c653a207061757365640000000000000000000000000000000081525060200191505060405180910390fd5b8082106128f1576040517f08c379a000000000000000000000000000000000000000000000000000000000815260040180806020018281038252602c815260200180615519602c913960400191505060405180910390fd5b6128fb600d61523c565b6000612907600d615252565b90506000600e60008381526020019081526020016000209050858160000160006101000a81548173ffffffffffffffffffffffffffffffffffffffff021916908373ffffffffffffffffffffffffffffffffffffffff160217905550848160010181905550338160020160006101000a81548173ffffffffffffffffffffffffffffffffffffffff021916908373ffffffffffffffffffffffffffffffffffffffff1602179055508381600401819055508281600501819055506129ca81615260565b60008690508073ffffffffffffffffffffffffffffffffffffffff166342842e0e3330896040518463ffffffff1660e01b8152600401808473ffffffffffffffffffffffffffffffffffffffff1681526020018373ffffffffffffffffffffffffffffffffffffffff1681526020018281526020019350505050600060405180830381600087803b158015612a5e57600080fd5b505af1158015612a72573d6000803e3d6000fd5b50505050612a8033846148b2565b600a839080600181540180825580915050600190039060005260206000200160009091909190915055827fa935c187f4e3a61d01822839a7186a6069d4d2791f5190931644c701391e869888883389896000604051808773ffffffffffffffffffffffffffffffffffffffff1681526020018681526020018573ffffffffffffffffffffffffffffffffffffffff168152602001848152602001838152602001828152602001965050505050505060405180910390a25050506001600c8190555050505050565b6000612b51615402565b600e6000848152602001908152602001600020604051806101600160405290816000820160009054906101000a900473ffffffffffffffffffffffffffffffffffffffff1673ffffffffffffffffffffffffffffffffffffffff1673ffffffffffffffffffffffffffffffffffffffff168152602001600182015481526020016002820160009054906101000a900473ffffffffffffffffffffffffffffffffffffffff1673ffffffffffffffffffffffffffffffffffffffff1673ffffffffffffffffffffffffffffffffffffffff1681526020016003820160009054906101000a900473ffffffffffffffffffffffffffffffffffffffff1673ffffffffffffffffffffffffffffffffffffffff1673ffffffffffffffffffffffffffffffffffffffff16815260200160048201548152602001600582015481526020016006820154815260200160078201548152602001600882015481526020016009820160009054906101000a900463ffffffff1663ffffffff1663ffffffff168152602001600a8201548152505090508060c00151915050919050565b60055481565b6002600c541415612d6c576040517f08c379a000000000000000000000000000000000000000000000000000000000815260040180806020018281038252601f8152602001807f5265656e7472616e637947756172643a207265656e7472616e742063616c6c0081525060200191505060405180910390fd5b6002600c81905550612d7c612531565b15612def576040517f08c379a00000000000000000000000000000000000000000000000000000000081526004018080602001828103825260108152602001807f5061757361626c653a207061757365640000000000000000000000000000000081525060200191505060405180910390fd5b6000600e60008381526020019081526020016000209050600073ffffffffffffffffffffffffffffffffffffffff168160000160009054906101000a900473ffffffffffffffffffffffffffffffffffffffff1673ffffffffffffffffffffffffffffffffffffffff161415612ecd576040517f08c379a000000000000000000000000000000000000000000000000000000000815260040180806020018281038252600d8152602001807f426964206e6f742065786973740000000000000000000000000000000000000081525060200191505060405180910390fd5b8060030160009054906101000a900473ffffffffffffffffffffffffffffffffffffffff1673ffffffffffffffffffffffffffffffffffffffff163373ffffffffffffffffffffffffffffffffffffffff1614612f92576040517f08c379a000000000000000000000000000000000000000000000000000000000815260040180806020018281038252600a8152602001807f4e6f74206269646465720000000000000000000000000000000000000000000081525060200191505060405180910390fd5b60018160090160009054906101000a900463ffffffff1663ffffffff1614613022576040517f08c379a00000000000000000000000000000000000000000000000000000000081526004018080602001828103825260138152602001807f52657665727365206d757374206f6e206269640000000000000000000000000081525060200191505060405180910390fd5b4261303c60115483600a015461482a90919063ffffffff16565b11156130b0576040517f08c379a00000000000000000000000000000000000000000000000000000000081526004018080602001828103825260158152602001807f4e6f74206f76657220726576657273652074696d65000000000000000000000081525060200191505060405180910390fd5b6130be3382600601546144a3565b60028160090160006101000a81548163ffffffff021916908363ffffffff1602179055506131108160030160009054906101000a900473ffffffffffffffffffffffffffffffffffffffff1683614584565b817fc75bdd972bbaf239d88d728e4b6b5c866745e5aabbb90f310174a9ab883dae028260030160009054906101000a900473ffffffffffffffffffffffffffffffffffffffff16836006015460028560070154604051808573ffffffffffffffffffffffffffffffffffffffff16815260200184815260200183815260200182815260200194505050505060405180910390a2506001600c8190555050565b6002600c541415613228576040517f08c379a000000000000000000000000000000000000000000000000000000000815260040180806020018281038252601f8152602001807f5265656e7472616e637947756172643a207265656e7472616e742063616c6c0081525060200191505060405180910390fd5b6002600c81905550613238612531565b156132ab576040517f08c379a00000000000000000000000000000000000000000000000000000000081526004018080602001828103825260108152602001807f5061757361626c653a207061757365640000000000000000000000000000000081525060200191505060405180910390fd5b808210613303576040517f08c379a000000000000000000000000000000000000000000000000000000000815260040180806020018281038252602c815260200180615519602c913960400191505060405180910390fd5b6000600e60008581526020019081526020016000209050600073ffffffffffffffffffffffffffffffffffffffff168160000160009054906101000a900473ffffffffffffffffffffffffffffffffffffffff1673ffffffffffffffffffffffffffffffffffffffff1614156133e1576040517f08c379a000000000000000000000000000000000000000000000000000000000815260040180806020018281038252600d8152602001807f426964206e6f742065786973740000000000000000000000000000000000000081525060200191505060405180910390fd5b60008160090160009054906101000a900463ffffffff16905060058163ffffffff161415613477576040517f08c379a00000000000000000000000000000000000000000000000000000000081526004018080602001828103825260188152602001807f53656c6c657220686173206265656e2063616e63656c6564000000000000000081525060200191505060405180910390fd5b60038163ffffffff16141580613494575060048163ffffffff1614155b613506576040517f08c379a000000000000000000000000000000000000000000000000000000000815260040180806020018281038252600f8152602001807f41756374696f6e2073756363657373000000000000000000000000000000000081525060200191505060405180910390fd5b3373ffffffffffffffffffffffffffffffffffffffff168260020160009054906101000a900473ffffffffffffffffffffffffffffffffffffffff1673ffffffffffffffffffffffffffffffffffffffff16146135cb576040517f08c379a00000000000000000000000000000000000000000000000000000000081526004018080602001828103825260158152602001807f4e6f742061756374696f6e2069642073656c6c6572000000000000000000000081525060200191505060405180910390fd5b60018163ffffffff1614156136b45781600a01544211613653576040517f08c379a00000000000000000000000000000000000000000000000000000000081526004018080602001828103825260108152602001807f41756374696f6e206e6f74206f7665720000000000000000000000000000000081525060200191505060405180910390fd5b6136858260030160009054906101000a900473ffffffffffffffffffffffffffffffffffffffff1683600601546144a3565b6136b38260030160009054906101000a900473ffffffffffffffffffffffffffffffffffffffff1686614584565b5b338260020160006101000a81548173ffffffffffffffffffffffffffffffffffffffff021916908373ffffffffffffffffffffffffffffffffffffffff16021790555083826004018190555082826005018190555061371282615260565b847f134047c67290f320c5983777b384d499b5eddcd944d8c7d6f3aca7e5549c8b388585600060405180848152602001838152602001828152602001935050505060405180910390a250506001600c81905550505050565b6002600c5414156137e3576040517f08c379a000000000000000000000000000000000000000000000000000000000815260040180806020018281038252601f8152602001807f5265656e7472616e637947756172643a207265656e7472616e742063616c6c0081525060200191505060405180910390fd5b6002600c819055506137f3612531565b15613866576040517f08c379a00000000000000000000000000000000000000000000000000000000081526004018080602001828103825260108152602001807f5061757361626c653a207061757365640000000000000000000000000000000081525060200191505060405180910390fd5b6000600e60008381526020019081526020016000209050600073ffffffffffffffffffffffffffffffffffffffff168160000160009054906101000a900473ffffffffffffffffffffffffffffffffffffffff1673ffffffffffffffffffffffffffffffffffffffff161415613944576040517f08c379a000000000000000000000000000000000000000000000000000000000815260040180806020018281038252600d8152602001807f426964206e6f742065786973740000000000000000000000000000000000000081525060200191505060405180910390fd5b60018160090160009054906101000a900463ffffffff1663ffffffff161480613987575060008160090160009054906101000a900463ffffffff1663ffffffff16145b6139f9576040517f08c379a000000000000000000000000000000000000000000000000000000000815260040180806020018281038252601e8152602001807f5769746864726177206e6f74206f6e20626964206f72206f6e2073656c6c000081525060200191505060405180910390fd5b6000816007015414613a80574281600a01541015613a7f576040517f08c379a000000000000000000000000000000000000000000000000000000000815260040180806020018281038252600e8152602001807f4e6f74206f6e2061756374696f6e00000000000000000000000000000000000081525060200191505060405180910390fd5b5b60018160090160009054906101000a900463ffffffff1663ffffffff161415613ad657613ad58160030160009054906101000a900473ffffffffffffffffffffffffffffffffffffffff1682600601546144a3565b5b34816005015414613b4f576040517f08c379a000000000000000000000000000000000000000000000000000000000815260040180806020018281038252600f8152602001807f4e6f74206669786564207072696365000000000000000000000000000000000081525060200191505060405180910390fd5b60048160090160006101000a81548163ffffffff021916908363ffffffff160217905550806005015481600601819055506000613b91838384600501546149b3565b9050338260030160006101000a81548173ffffffffffffffffffffffffffffffffffffffff021916908373ffffffffffffffffffffffffffffffffffffffff160217905550827f02f630da6db0d5cd1a04ce85cd3032287f076235c3bfbf0f7098bb162184ddb58360030160009054906101000a900473ffffffffffffffffffffffffffffffffffffffff168360048660070154604051808573ffffffffffffffffffffffffffffffffffffffff16815260200184815260200183815260200182815260200194505050505060405180910390a250506001600c8190555050565b613c7a61419f565b73ffffffffffffffffffffffffffffffffffffffff16613c986126dc565b73ffffffffffffffffffffffffffffffffffffffff1614613d21576040517f08c379a00000000000000000000000000000000000000000000000000000000081526004018080602001828103825260208152602001807f4f776e61626c653a2063616c6c6572206973206e6f7420746865206f776e657281525060200191505060405180910390fd5b7f83ab88e3788c7fcd47f116ebeeb2ed3108eada6f186aaab497d45115e03ed1cd600f5460105460115460405180848152602001838152602001828152602001935050505060405180910390a160008314613d7e5782600f819055505b60008214613d8e57816010819055505b60008114613d9e57806011819055505b505050565b600e6020528060005260406000206000915090508060000160009054906101000a900473ffffffffffffffffffffffffffffffffffffffff16908060010154908060020160009054906101000a900473ffffffffffffffffffffffffffffffffffffffff16908060030160009054906101000a900473ffffffffffffffffffffffffffffffffffffffff16908060040154908060050154908060060154908060070154908060080154908060090160009054906101000a900463ffffffff169080600a015490508b565b60048181548110613e7a57fe5b906000526020600020016000915090505481565b613e9661419f565b73ffffffffffffffffffffffffffffffffffffffff16613eb46126dc565b73ffffffffffffffffffffffffffffffffffffffff1614613f3d576040517f08c379a00000000000000000000000000000000000000000000000000000000081526004018080602001828103825260208152602001807f4f776e61626c653a2063616c6c6572206973206e6f7420746865206f776e657281525060200191505060405180910390fd5b600073ffffffffffffffffffffffffffffffffffffffff168173ffffffffffffffffffffffffffffffffffffffff161415613fc3576040517f08c379a00000000000000000000000000000000000000000000000000000000081526004018080602001828103825260268152602001806154a56026913960400191505060405180910390fd5b8073ffffffffffffffffffffffffffffffffffffffff1660008054906101000a900473ffffffffffffffffffffffffffffffffffffffff1673ffffffffffffffffffffffffffffffffffffffff167f8be0079c531659141344cd1fd0a4f28419497f9722a3daafe3b4186f6b6457e060405160405180910390a3806000806101000a81548173ffffffffffffffffffffffffffffffffffffffff021916908373ffffffffffffffffffffffffffffffffffffffff16021790555050565b61408861419f565b73ffffffffffffffffffffffffffffffffffffffff166140a66126dc565b73ffffffffffffffffffffffffffffffffffffffff161461412f576040517f08c379a00000000000000000000000000000000000000000000000000000000081526004018080602001828103825260208152602001807f4f776e61626c653a2063616c6c6572206973206e6f7420746865206f776e657281525060200191505060405180910390fd5b6000821461413f57816003819055505b8060006002811061414c57fe5b6020020151600460008154811061415f57fe5b90600052602060002001819055508060016002811061417a57fe5b6020020151600460018154811061418d57fe5b90600052602060002001819055505050565b600033905090565b600073ffffffffffffffffffffffffffffffffffffffff168173ffffffffffffffffffffffffffffffffffffffff16141561422d576040517f08c379a000000000000000000000000000000000000000000000000000000000815260040180806020018281038252602d8152602001806154cb602d913960400191505060405180910390fd5b8073ffffffffffffffffffffffffffffffffffffffff16600073ffffffffffffffffffffffffffffffffffffffff167f74da04524d50c64947f5dd5381ef1a4dca5cba8ed1d816243f9e48aa0b5617ed60405160405180910390a380600160006101000a81548173ffffffffffffffffffffffffffffffffffffffff021916908373ffffffffffffffffffffffffffffffffffffffff16021790555050565b6142d4612531565b15614347576040517f08c379a00000000000000000000000000000000000000000000000000000000081526004018080602001828103825260108152602001807f5061757361626c653a207061757365640000000000000000000000000000000081525060200191505060405180910390fd5b6001600b60006101000a81548160ff0219169083151502179055507f62e78cea01bee320cd4e420270b5ea74000d11b0c9f74754ebdbfc544b05a25861438b61419f565b604051808273ffffffffffffffffffffffffffffffffffffffff16815260200191505060405180910390a1565b6143c0612531565b614432576040517f08c379a00000000000000000000000000000000000000000000000000000000081526004018080602001828103825260148152602001807f5061757361626c653a206e6f742070617573656400000000000000000000000081525060200191505060405180910390fd5b6000600b60006101000a81548160ff0219169083151502179055507f5db9ee0a495bf2e6ff9c91a7834c1ba4fdd244a5e8aa4e537bd38aeae4b073aa61447661419f565b604051808273ffffffffffffffffffffffffffffffffffffffff16815260200191505060405180910390a1565b60008273ffffffffffffffffffffffffffffffffffffffff168260405180600001905060006040518083038185875af1925050503d8060008114614503576040519150601f19603f3d011682016040523d82523d6000602084013e614508565b606091505b505090508061457f576040517f08c379a00000000000000000000000000000000000000000000000000000000081526004018080602001828103825260128152602001807f5452414e5346455220455448204552524f52000000000000000000000000000081525060200191505060405180910390fd5b505050565b60006145dc6001600860008673ffffffffffffffffffffffffffffffffffffffff1673ffffffffffffffffffffffffffffffffffffffff168152602001908152602001600020805490506147a790919063ffffffff16565b90506000600960008573ffffffffffffffffffffffffffffffffffffffff1673ffffffffffffffffffffffffffffffffffffffff1681526020019081526020016000206000848152602001908152602001600020549050808214614743576000600860008673ffffffffffffffffffffffffffffffffffffffff1673ffffffffffffffffffffffffffffffffffffffff168152602001908152602001600020838154811061468657fe5b9060005260206000200154905080600860008773ffffffffffffffffffffffffffffffffffffffff1673ffffffffffffffffffffffffffffffffffffffff16815260200190815260200160002083815481106146de57fe5b906000526020600020018190555081600960008773ffffffffffffffffffffffffffffffffffffffff1673ffffffffffffffffffffffffffffffffffffffff168152602001908152602001600020600083815260200190815260200160002081905550505b600860008573ffffffffffffffffffffffffffffffffffffffff1673ffffffffffffffffffffffffffffffffffffffff16815260200190815260200160002080548061478b57fe5b6001900381819060005260206000200160009055905550505050565b60008282111561481f576040517f08c379a000000000000000000000000000000000000000000000000000000000815260040180806020018281038252601e8152602001807f536166654d6174683a207375627472616374696f6e206f766572666c6f77000081525060200191505060405180910390fd5b818303905092915050565b6000808284019050838110156148a8576040517f08c379a000000000000000000000000000000000000000000000000000000000815260040180806020018281038252601b8152602001807f536166654d6174683a206164646974696f6e206f766572666c6f77000000000081525060200191505060405180910390fd5b8091505092915050565b600860008373ffffffffffffffffffffffffffffffffffffffff1673ffffffffffffffffffffffffffffffffffffffff16815260200190815260200160002080549050600960008473ffffffffffffffffffffffffffffffffffffffff1673ffffffffffffffffffffffffffffffffffffffff168152602001908152602001600020600083815260200190815260200160002081905550600860008373ffffffffffffffffffffffffffffffffffffffff1673ffffffffffffffffffffffffffffffffffffffff1681526020019081526020016000208190806001815401808255809150506001900390600052602060002001600090919091909150555050565b60008082905060008460000160009054906101000a900473ffffffffffffffffffffffffffffffffffffffff1690508073ffffffffffffffffffffffffffffffffffffffff166342842e0e303388600101546040518463ffffffff1660e01b8152600401808473ffffffffffffffffffffffffffffffffffffffff1681526020018373ffffffffffffffffffffffffffffffffffffffff1681526020018281526020019350505050600060405180830381600087803b158015614a7557600080fd5b505af1158015614a89573d6000803e3d6000fd5b505050506000614ab8600554614aaa600354866152f390919063ffffffff16565b61537990919063ffffffff16565b90506000614ae8600660009054906101000a900473ffffffffffffffffffffffffffffffffffffffff16836144a3565b8660000160009054906101000a900473ffffffffffffffffffffffffffffffffffffffff1673ffffffffffffffffffffffffffffffffffffffff16600260009054906101000a900473ffffffffffffffffffffffffffffffffffffffff1673ffffffffffffffffffffffffffffffffffffffff16141561515c576000600260009054906101000a900473ffffffffffffffffffffffffffffffffffffffff1673ffffffffffffffffffffffffffffffffffffffff1663abb03ba689600101546040518263ffffffff1660e01b81526004018082815260200191505060606040518083038186803b158015614bdb57600080fd5b505afa158015614bef573d6000803e3d6000fd5b505050506040513d6060811015614c0557600080fd5b81019080805190602001909291908051906020019092919080519060200190929190505050505090506000606080600260009054906101000a900473ffffffffffffffffffffffffffffffffffffffff1673ffffffffffffffffffffffffffffffffffffffff1663e726d96b856040518263ffffffff1660e01b81526004018082815260200191505060006040518083038186803b158015614ca657600080fd5b505afa158015614cba573d6000803e3d6000fd5b505050506040513d6000823e3d601f19601f8201168201806040525060e0811015614ce457600080fd5b810190808051906020019092919080519060200190929190805190602001909291908051906020019092919080516040519392919084640100000000821115614d2c57600080fd5b83820191506020820185811115614d4257600080fd5b8251866020820283011164010000000082111715614d5f57600080fd5b8083526020830192505050908051906020019060200280838360005b83811015614d96578082015181840152602081019050614d7b565b5050505090500160405260200180516040519392919084640100000000821115614dbf57600080fd5b83820191506020820185811115614dd557600080fd5b8251866020820283011164010000000082111715614df257600080fd5b8083526020830192505050908051906020019060200280838360005b83811015614e29578082015181840152602081019050614e0e565b5050505090500160405260200180516040519392919084640100000000821115614e5257600080fd5b83820191506020820185811115614e6857600080fd5b8251866001820283011164010000000082111715614e8557600080fd5b8083526020830192505050908051906020019080838360005b83811015614eb9578082015181840152602081019050614e9e565b50505050905090810190601f168015614ee65780820380516001836020036101000a031916815260200191505b50604052505050509550955095505050506000600760008d60000160009054906101000a900473ffffffffffffffffffffffffffffffffffffffff1673ffffffffffffffffffffffffffffffffffffffff1673ffffffffffffffffffffffffffffffffffffffff16815260200190815260200160002060008d60010154815260200190815260200160002060009054906101000a900460ff169050614fe4600554614fd683614fad576004600081548110614f9d57fe5b9060005260206000200154614fc7565b6004600181548110614fbb57fe5b90600052602060002001545b8c6152f390919063ffffffff16565b61537990919063ffffffff16565b9550600083511415614fff57614ffa84876144a3565b6150c5565b60005b82518110156150c357600081141561505c576150578561505260055461504487868151811061502d57fe5b60200260200101518c6152f390919063ffffffff16565b61537990919063ffffffff16565b6144a3565b6150b6565b6150b584600183038151811061506e57fe5b60200260200101516150b06005546150a287868151811061508b57fe5b60200260200101518c6152f390919063ffffffff16565b61537990919063ffffffff16565b6144a3565b5b8080600101915050615002565b505b6001600760008e60000160009054906101000a900473ffffffffffffffffffffffffffffffffffffffff1673ffffffffffffffffffffffffffffffffffffffff1673ffffffffffffffffffffffffffffffffffffffff16815260200190815260200160002060008e60010154815260200190815260200160002060006101000a81548160ff02191690831515021790555050505050505b6151ae8760020160009054906101000a900473ffffffffffffffffffffffffffffffffffffffff166151a98361519b86896147a790919063ffffffff16565b6147a790919063ffffffff16565b6144a3565b6151dc8760020160009054906101000a900473ffffffffffffffffffffffffffffffffffffffff1689614584565b61520a8760030160009054906101000a900473ffffffffffffffffffffffffffffffffffffffff1689614584565b61522f8161522184876147a790919063ffffffff16565b6147a790919063ffffffff16565b9450505050509392505050565b6001816000016000828254019250508190555050565b600081600001549050919050565b6000816006018190555060008160030160006101000a81548173ffffffffffffffffffffffffffffffffffffffff021916908373ffffffffffffffffffffffffffffffffffffffff1602179055506000816007018190555060008160080181905550600081600a018190555060008160090160006101000a81548163ffffffff021916908363ffffffff16021790555050565b6000808314156153065760009050615373565b600082840290508284828161531757fe5b041461536e576040517f08c379a00000000000000000000000000000000000000000000000000000000081526004018080602001828103825260218152602001806154f86021913960400191505060405180910390fd5b809150505b92915050565b60008082116153f0576040517f08c379a000000000000000000000000000000000000000000000000000000000815260040180806020018281038252601a8152602001807f536166654d6174683a206469766973696f6e206279207a65726f00000000000081525060200191505060405180910390fd5b8183816153f957fe5b04905092915050565b604051806101600160405280600073ffffffffffffffffffffffffffffffffffffffff16815260200160008152602001600073ffffffffffffffffffffffffffffffffffffffff168152602001600073ffffffffffffffffffffffffffffffffffffffff1681526020016000815260200160008152602001600081526020016000815260200160008152602001600063ffffffff16815260200160008152509056fe4f776e61626c653a206e6577206f776e657220697320746865207a65726f20616464726573736f70657261746f723a207a65726f206164647265737320676976656e20666f72206e6577206f70657261746f72536166654d6174683a206d756c7469706c69636174696f6e206f766572666c6f774f70656e696e6720626964207072696365206d757374206c6f776572207468616e2066697865645072696365a26469706673582212206c7844b2ae7917e062657636ec483affb2e9a5b3f855b62f5ea9ce95b7d7f88e64736f6c634300060c0033",
  "immutableReferences": {},
  "source": "pragma solidity ^0.6.2;\n\nimport \"@openzeppelin/contracts/token/ERC721/IERC721.sol\";\nimport \"@openzeppelin/contracts/math/SafeMath.sol\";\nimport \"@openzeppelin/contracts/utils/Counters.sol\";\nimport \"@openzeppelin/contracts/utils/Pausable.sol\";\nimport \"./interfaces/IAgERC721.sol\";\nimport './base/BaseAuction.sol';\nimport \"@openzeppelin/contracts/utils/ReentrancyGuard.sol\";\n\n/// @title fixed auction\n/// @author yzbbanban\n/// @notice buy token\n/// @dev \ncontract FixedAuction is BaseAuction, Pausable, ReentrancyGuard{\n    event Auction(uint256 indexed _auctionId, address _token, \n                    uint256 _tokenId, address _seller, \n                    uint256 _openingBid, uint256 _fixedPrice,uint32 _auctionStatus);\n    event ReAuction(uint256 indexed _auctionId,\n                    uint256 _openingBid, uint256 _fixedPrice,uint32 _auctionStatus);\n    event LastParam(uint256 _limitTime, uint256 _extendTime, uint256 _reverseTime);\n    event Bid(uint256 indexed _auctionId, address _bidder,\n                uint256 _bidPrice, uint256 _bidCount,uint256 _startTime, uint256 _expirationTime,uint32 _auctionStatus);\n    event Selling(uint256 indexed _auctionId, address _bidder, uint256 _bidPrice, uint32 _auctionStatus, uint256 _bidCount);\n    event Reverse(uint256 indexed _auctionId, address _bidder, uint256 _bidPrice, uint32 _auctionStatus, uint256 _bidCount);\n    event Fixed(uint256 indexed _auctionId, address _bidder, uint256 _bidPrice, uint32 _auctionStatus, uint256 _bidCount);\n    event Cancel(uint256 indexed _auctionId, address _seller,uint256 _bidPrice, uint32 _auctionStatus, uint256 _bidCount);\n\n    using Counters for Counters.Counter;\n    Counters.Counter private _auctionIds;\n    using SafeMath for uint256;\n\n    mapping(uint256 => BidInfo) public bidInfos;\n    uint256 public limitTime = 1 days;\n    uint256 public extendTime = 15 minutes;\n    uint256 public reverseTime = 5 days;\n    \n    constructor(IAgERC721 _artGee, address _platform) public{\n        artGee = _artGee;\n        platform = _platform;\n    }\n\n    struct BidInfo{\n        address token;\n        uint256 tokenId;\n        address seller;\n        address bidder;//change\n        uint256 openingBid;\n        uint256 fixedPrice;\n        uint256 bidPrice;//change\n        uint256 bidCount;//change\n        uint256 startTime;\n        uint32 auctionStatus;// 0 init; 1 bid; 2 bidder reverse;3 seller finish; 4 bidder finish 5 seller cancel\n        uint256 expirationTime;//change\n    }\n\n    function setReverseTime(uint256 _limitTime,uint256 _extendTime, uint256 _reverseTime) public onlyOwner(){\n        emit LastParam(limitTime, extendTime, reverseTime);\n        if(_limitTime != 0){\n            limitTime = _limitTime;\n        }\n        if(_extendTime != 0){\n            extendTime = _extendTime;\n        }\n        if(_reverseTime != 0){\n            reverseTime = _reverseTime;\n        }\n    }\n\n    function auction(address _token, uint256 _tokenId, \n                    uint256 _openingBid,\n                    uint256 _fixedPrice) public nonReentrant whenNotPaused{\n        require(_openingBid < _fixedPrice,\"Opening bid price must lower than fixedPrice\");\n        _auctionIds.increment();\n        uint256 auctionId = _auctionIds.current();\n        BidInfo storage bidInfo = bidInfos[auctionId];\n        bidInfo.token = _token;\n        bidInfo.tokenId = _tokenId;\n        bidInfo.seller = msg.sender;\n        bidInfo.openingBid = _openingBid;\n        bidInfo.fixedPrice = _fixedPrice;\n         _initAuction(bidInfo);\n        //add tokenId\n        IERC721 ierc721 = IERC721(_token);\n        ierc721.safeTransferFrom(msg.sender, address(this), _tokenId);\n        // add my auction\n        _addMyAuction(msg.sender,auctionId);\n        artList.push(auctionId);\n        emit Auction(auctionId,_token, _tokenId, msg.sender, _openingBid,_fixedPrice, 0);\n    }\n\n    function reAuction(uint256 _auctionId, uint256 _openingBid, \n                    uint256 _fixedPrice) public nonReentrant whenNotPaused{\n        require(_openingBid < _fixedPrice,\"Opening bid price must lower than fixedPrice\");\n        BidInfo storage bidInfo = bidInfos[_auctionId];\n        require(bidInfo.token != address(0),\"Bid not exist\");\n        uint32 nowStatus = bidInfo.auctionStatus;\n        require(nowStatus != 5,\"Seller has been canceled\");\n        require(nowStatus != 3 || nowStatus != 4,\"Auction success\");\n        //must wait for auction over\n        require(bidInfo.seller == msg.sender,\"Not auction id seller\");\n        //bidder has already reverse\n        if(nowStatus == 1){\n            require(block.timestamp > bidInfo.expirationTime, \"Auction not over\");\n            //sende coin to bidder\n            transferMain(bidInfo.bidder, bidInfo.bidPrice);\n            //remove bidder's auctionId\n            _removeMyAuction(bidInfo.bidder, _auctionId);\n        }\n        bidInfo.seller = msg.sender;\n        bidInfo.openingBid = _openingBid;\n        bidInfo.fixedPrice = _fixedPrice;\n        _initAuction(bidInfo);\n        emit ReAuction(_auctionId, _openingBid, _fixedPrice, 0);\n    }\n\n    function bid(uint256 _auctionId) payable public nonReentrant whenNotPaused{\n        BidInfo storage bidInfo = bidInfos[_auctionId];\n        require(bidInfo.token != address(0),\"Bid not exist\");\n        require(block.timestamp >= bidInfo.startTime,\"Auction not start\");\n        //now time > expiration time then auction over\n        require(bidInfo.auctionStatus == 0 || bidInfo.auctionStatus == 1, \"Not on auction\");\n        require(msg.sender != bidInfo.seller, \"Seller can not bid\");\n        require(msg.sender != bidInfo.bidder, \"Bidder can not repeat bid\");\n        uint256 t = block.timestamp;\n        uint256 nowBidPrice = msg.value;\n        //transfer to last bidder\n        if(bidInfo.bidCount != 0){\n            require(block.timestamp <= bidInfo.expirationTime, \"Auction over\");\n            transferMain(bidInfo.bidder, bidInfo.bidPrice);\n            require(nowBidPrice > bidInfo.bidPrice, \"Value error\");\n            // expiration time - (startTime + 1day) => update expiration\n            if(bidInfo.expirationTime.sub(block.timestamp) <= extendTime){\n                bidInfo.expirationTime = block.timestamp.add(extendTime);\n            }\n        }else{\n            require(nowBidPrice >= bidInfo.openingBid, \"Value error\");\n            bidInfo.startTime = t;\n            //1 day later\n            bidInfo.expirationTime = t.add(limitTime);\n        }\n        require(msg.value < bidInfo.fixedPrice, \"Over fixed price\");\n        //update price\n        bidInfo.bidPrice = nowBidPrice;\n        \n        // add bidder auction id and remove seller auction id\n        if(bidInfo.bidder != address(0)){\n            _removeMyAuction(bidInfo.bidder, _auctionId);\n        }\n        _addMyAuction(msg.sender,_auctionId);\n        //reset bidder\n        bidInfo.bidder = msg.sender;\n        //add bid count\n        bidInfo.auctionStatus = 1;\n        bidInfo.bidCount = bidInfo.bidCount.add(1);\n        emit Bid(_auctionId, msg.sender, nowBidPrice, bidInfo.bidCount,t,bidInfo.expirationTime, 1);\n    }\n\n    function getCurrentPrice(uint256 _auctionId) view public returns(uint256 _nowBidPrice){\n        BidInfo memory bidInfo = bidInfos[_auctionId];\n        return bidInfo.bidPrice;\n    }\n    \n    //seller cancel\n    function cancel(uint256 _auctionId) public nonReentrant whenNotPaused{\n        BidInfo storage bidInfo = bidInfos[_auctionId];\n        require(bidInfo.token != address(0),\"Bid not exist\");\n        require(bidInfo.seller == msg.sender,\"Not auction id seller\");\n        uint32 nowStatus = bidInfo.auctionStatus;\n        require(nowStatus == 0 || nowStatus == 1 || nowStatus == 2, \"Auction cancel or success\");\n        uint256 refund = 0;\n        if(nowStatus == 1){\n            // must end\n            require(bidInfo.expirationTime < block.timestamp, \"On auction\");\n            refund = bidInfo.bidPrice;\n            //has bid send coin to bidder\n            transferMain(bidInfo.bidder, bidInfo.bidPrice);\n            //remove seller list\n            _removeMyAuction(bidInfo.seller, _auctionId);\n            //remove bidder list\n            _removeMyAuction(bidInfo.bidder, _auctionId);\n        }\n        IERC721 ierc721 = IERC721(bidInfo.token);\n        ierc721.safeTransferFrom(address(this),msg.sender, bidInfo.tokenId);\n        bidInfo.auctionStatus = 5;\n        emit Cancel(_auctionId, bidInfo.seller, refund, 5, bidInfo.bidCount);\n    }\n\n    //seller executor\n    function sellingSettlementPrice(uint256 _auctionId) public nonReentrant whenNotPaused{\n        BidInfo storage bidInfo = bidInfos[_auctionId];\n        require(bidInfo.token != address(0),\"Bid not exist\");\n        require(msg.sender == bidInfo.seller, \"Not seller\");\n        require(bidInfo.auctionStatus == 1, \"Not on bid\");\n        bidInfo.auctionStatus = 3;\n        uint256 amount = _share(_auctionId,bidInfo,bidInfo.bidPrice);\n        emit Selling(_auctionId,bidInfo.bidder,amount,3,bidInfo.bidCount);\n    }\n\n    //bidder execute\n    function bidderReverse(uint256 _auctionId) public nonReentrant whenNotPaused{\n        BidInfo storage bidInfo = bidInfos[_auctionId];\n        require(bidInfo.token != address(0),\"Bid not exist\");\n        require(msg.sender == bidInfo.bidder, \"Not bidder\");\n        // if bidder wanner his coin, current time must over than `reverseTime`\n        require(bidInfo.auctionStatus == 1, \"Reverse must on bid\");\n        require(bidInfo.expirationTime.add(reverseTime) <= block.timestamp, \"Not over reverse time\");\n        //coin send to bidder\n        transferMain(msg.sender, bidInfo.bidPrice);\n        bidInfo.auctionStatus = 2;\n        _removeMyAuction(bidInfo.bidder, _auctionId);\n        emit Reverse(_auctionId, bidInfo.bidder, bidInfo.bidPrice,2,bidInfo.bidCount);\n    }\n\n    //auction success bidder execute\n    function fixedWithdraw(uint256 _auctionId) payable public nonReentrant whenNotPaused{\n        BidInfo storage bidInfo = bidInfos[_auctionId];\n        require(bidInfo.token != address(0),\"Bid not exist\");\n        require(bidInfo.auctionStatus == 1 || bidInfo.auctionStatus == 0, \"Withdraw not on bid or on sell\");\n        if(bidInfo.bidCount != 0){\n            require(bidInfo.expirationTime >= block.timestamp, \"Not on auction\");\n        }\n        if(bidInfo.auctionStatus == 1){\n            //send to last bidder\n            transferMain(bidInfo.bidder, bidInfo.bidPrice);\n        }\n        require(bidInfo.fixedPrice == msg.value,\"Not fixed price\");\n        bidInfo.auctionStatus = 4;\n        bidInfo.bidPrice = bidInfo.fixedPrice;\n        uint256 amount = _share(_auctionId,bidInfo,bidInfo.fixedPrice);\n        // to seller\n        bidInfo.bidder = msg.sender;\n        emit Fixed(_auctionId,bidInfo.bidder,amount,4,bidInfo.bidCount);\n    }\n\n    function setPaused() public onlyOwner(){\n        super._pause();\n    }\n\n    function setUnpaused() public onlyOwner(){\n        super._unpause();\n    }\n\n    function _share(uint256 _auctionId, BidInfo storage bidInfo, uint256 _price) internal returns(uint256 _amount){\n        uint256 amount = _price;\n        //721 transfer current bidder , get bidder price\n        IERC721 ierc721 = IERC721(bidInfo.token);\n        ierc721.safeTransferFrom(address(this), msg.sender, bidInfo.tokenId);\n        //fee to platform\n        uint256 _fee = amount.mul(feePercent).div(basePercent);\n        uint256 _artistFee = 0; \n        transferMain(platform,_fee);\n        //artist share in the benefit \n        if(address(artGee) == bidInfo.token){\n            (uint256 artId,,)=artGee.tokenArts(bidInfo.tokenId);\n            (,,,address creator,\n                address[] memory assistants,\n                uint256[] memory benefits,)=artGee.getSourceDigitalArt(artId);\n            bool isNotFirst = isNotFirstAuction[bidInfo.token][bidInfo.tokenId];\n            //first time 20% to artist,other time 10% \n            _artistFee = amount.mul(isNotFirst ? artPercent[1]:artPercent[0]).div(basePercent);\n            if(assistants.length == 0){\n                //send to creator\n                transferMain(creator,_artistFee);\n            }else{\n                //send to creator and other assistant\n                for (uint256 index = 0; index < benefits.length; index++) {\n                    if(index==0){\n                        // to creator\n                        transferMain(creator,_artistFee.mul(benefits[index]).div(basePercent));\n                    }else{\n                        // to assistants\n                        transferMain(assistants[index-1],_artistFee.mul(benefits[index]).div(basePercent));\n                    }\n                }\n            }\n            isNotFirstAuction[bidInfo.token][bidInfo.tokenId] = true;\n        }\n        transferMain(bidInfo.seller, amount.sub(_fee).sub(_artistFee));\n        _removeMyAuction(bidInfo.seller, _auctionId);\n        //remove bidder list\n        _removeMyAuction(bidInfo.bidder, _auctionId);\n        return amount.sub(_fee).sub(_artistFee);\n    }\n\n    function _initAuction(BidInfo storage bidInfo) internal {\n        bidInfo.bidPrice = 0;\n        bidInfo.bidder = address(0);        \n        bidInfo.bidCount = 0;\n        bidInfo.startTime = 0;\n        bidInfo.expirationTime = 0;\n        bidInfo.auctionStatus = 0; \n    }\n}",
  "sourcePath": "/Users/wangban/Downloads/money/coin/other/artgee/ArtGee-Contract/contracts/FixedAuction.sol",
  "compiler": {
    "name": "solc",
    "version": "0.6.12+commit.27d51765.Emscripten.clang"
  },
  "schemaVersion": "3.3.2",
  "updatedAt": "2021-05-27T14:02:38.665Z",
  "devdoc": {
    "author": "yzbbanban",
    "kind": "dev",
    "methods": {
      "onERC721Received(address,address,uint256,bytes)": {
        "details": "See {IERC721Receiver-onERC721Received}. Always returns `IERC721Receiver.onERC721Received.selector`."
      },
      "owner()": {
        "details": "Returns the address of the current owner."
      },
      "paused()": {
        "details": "Returns true if the contract is paused, and false otherwise."
      },
      "renounceOwnership()": {
        "details": "Leaves the contract without owner. It will not be possible to call `onlyOwner` functions anymore. Can only be called by the current owner. NOTE: Renouncing ownership will leave the contract without an owner, thereby removing any functionality that is only available to the owner."
      },
      "transferOwnership(address)": {
        "details": "Transfers ownership of the contract to a new account (`newOwner`). Can only be called by the current owner."
      }
    },
    "title": "fixed auction",
    "version": 1
  },
  "userdoc": {
    "kind": "user",
    "methods": {},
    "notice": "buy token",
    "version": 1
  }
}