{
  "contractName": "FixedAuction",
  "abi": [
    {
      "inputs": [
        {
          "internalType": "contract IAgERC721",
          "name": "_artGee",
          "type": "address"
        },
        {
          "internalType": "address",
          "name": "_platform",
          "type": "address"
        }
      ],
      "stateMutability": "nonpayable",
      "type": "constructor"
    },
    {
      "anonymous": false,
      "inputs": [
        {
          "indexed": true,
          "internalType": "uint256",
          "name": "_auctionId",
          "type": "uint256"
        },
        {
          "indexed": false,
          "internalType": "address",
          "name": "_token",
          "type": "address"
        },
        {
          "indexed": false,
          "internalType": "uint256",
          "name": "_tokenId",
          "type": "uint256"
        },
        {
          "indexed": false,
          "internalType": "address",
          "name": "_seller",
          "type": "address"
        },
        {
          "indexed": false,
          "internalType": "uint256",
          "name": "_openingBid",
          "type": "uint256"
        },
        {
          "indexed": false,
          "internalType": "uint256",
          "name": "_fixedPrice",
          "type": "uint256"
        },
        {
          "indexed": false,
          "internalType": "uint256",
          "name": "startTime",
          "type": "uint256"
        },
        {
          "indexed": false,
          "internalType": "uint32",
          "name": "_auctionStatus",
          "type": "uint32"
        }
      ],
      "name": "Auction",
      "type": "event"
    },
    {
      "anonymous": false,
      "inputs": [
        {
          "indexed": true,
          "internalType": "uint256",
          "name": "_auctionId",
          "type": "uint256"
        },
        {
          "indexed": false,
          "internalType": "address",
          "name": "_bidder",
          "type": "address"
        },
        {
          "indexed": false,
          "internalType": "uint256",
          "name": "_bidPrice",
          "type": "uint256"
        },
        {
          "indexed": false,
          "internalType": "uint256",
          "name": "_bidCount",
          "type": "uint256"
        },
        {
          "indexed": false,
          "internalType": "uint256",
          "name": "_expirationTime",
          "type": "uint256"
        },
        {
          "indexed": false,
          "internalType": "uint32",
          "name": "_auctionStatus",
          "type": "uint32"
        }
      ],
      "name": "Bid",
      "type": "event"
    },
    {
      "anonymous": false,
      "inputs": [
        {
          "indexed": true,
          "internalType": "uint256",
          "name": "_auctionId",
          "type": "uint256"
        },
        {
          "indexed": false,
          "internalType": "address",
          "name": "_seller",
          "type": "address"
        },
        {
          "indexed": false,
          "internalType": "uint256",
          "name": "_bidPrice",
          "type": "uint256"
        },
        {
          "indexed": false,
          "internalType": "uint32",
          "name": "_auctionStatus",
          "type": "uint32"
        }
      ],
      "name": "Cancel",
      "type": "event"
    },
    {
      "anonymous": false,
      "inputs": [
        {
          "indexed": true,
          "internalType": "uint256",
          "name": "_auctionId",
          "type": "uint256"
        },
        {
          "indexed": false,
          "internalType": "address",
          "name": "_bidder",
          "type": "address"
        },
        {
          "indexed": false,
          "internalType": "uint256",
          "name": "_bidPrice",
          "type": "uint256"
        },
        {
          "indexed": false,
          "internalType": "uint32",
          "name": "_auctionStatus",
          "type": "uint32"
        }
      ],
      "name": "Fixed",
      "type": "event"
    },
    {
      "anonymous": false,
      "inputs": [
        {
          "indexed": false,
          "internalType": "uint256",
          "name": "_limitTime",
          "type": "uint256"
        },
        {
          "indexed": false,
          "internalType": "uint256",
          "name": "_extendTime",
          "type": "uint256"
        },
        {
          "indexed": false,
          "internalType": "uint256",
          "name": "_reverseTime",
          "type": "uint256"
        }
      ],
      "name": "LastParam",
      "type": "event"
    },
    {
      "anonymous": false,
      "inputs": [
        {
          "indexed": true,
          "internalType": "address",
          "name": "previousOperator",
          "type": "address"
        },
        {
          "indexed": true,
          "internalType": "address",
          "name": "newOperator",
          "type": "address"
        }
      ],
      "name": "OperatorTransferred",
      "type": "event"
    },
    {
      "anonymous": false,
      "inputs": [
        {
          "indexed": true,
          "internalType": "address",
          "name": "previousOwner",
          "type": "address"
        },
        {
          "indexed": true,
          "internalType": "address",
          "name": "newOwner",
          "type": "address"
        }
      ],
      "name": "OwnershipTransferred",
      "type": "event"
    },
    {
      "anonymous": false,
      "inputs": [
        {
          "indexed": true,
          "internalType": "uint256",
          "name": "_auctionId",
          "type": "uint256"
        },
        {
          "indexed": false,
          "internalType": "uint256",
          "name": "_openingBid",
          "type": "uint256"
        },
        {
          "indexed": false,
          "internalType": "uint256",
          "name": "_fixedPrice",
          "type": "uint256"
        },
        {
          "indexed": false,
          "internalType": "uint256",
          "name": "startTime",
          "type": "uint256"
        },
        {
          "indexed": false,
          "internalType": "uint32",
          "name": "_auctionStatus",
          "type": "uint32"
        }
      ],
      "name": "ReAuction",
      "type": "event"
    },
    {
      "anonymous": false,
      "inputs": [
        {
          "indexed": true,
          "internalType": "uint256",
          "name": "_auctionId",
          "type": "uint256"
        },
        {
          "indexed": false,
          "internalType": "address",
          "name": "_bidder",
          "type": "address"
        },
        {
          "indexed": false,
          "internalType": "uint256",
          "name": "_bidPrice",
          "type": "uint256"
        },
        {
          "indexed": false,
          "internalType": "uint32",
          "name": "_auctionStatus",
          "type": "uint32"
        }
      ],
      "name": "Reverse",
      "type": "event"
    },
    {
      "anonymous": false,
      "inputs": [
        {
          "indexed": true,
          "internalType": "uint256",
          "name": "_auctionId",
          "type": "uint256"
        },
        {
          "indexed": false,
          "internalType": "address",
          "name": "_bidder",
          "type": "address"
        },
        {
          "indexed": false,
          "internalType": "uint256",
          "name": "_bidPrice",
          "type": "uint256"
        },
        {
          "indexed": false,
          "internalType": "uint32",
          "name": "_auctionStatus",
          "type": "uint32"
        }
      ],
      "name": "Selling",
      "type": "event"
    },
    {
      "inputs": [
        {
          "internalType": "uint256",
          "name": "",
          "type": "uint256"
        }
      ],
      "name": "artList",
      "outputs": [
        {
          "internalType": "uint256",
          "name": "",
          "type": "uint256"
        }
      ],
      "stateMutability": "view",
      "type": "function"
    },
    {
      "inputs": [
        {
          "internalType": "uint256",
          "name": "",
          "type": "uint256"
        }
      ],
      "name": "artPercent",
      "outputs": [
        {
          "internalType": "uint256",
          "name": "",
          "type": "uint256"
        }
      ],
      "stateMutability": "view",
      "type": "function"
    },
    {
      "inputs": [],
      "name": "basePercent",
      "outputs": [
        {
          "internalType": "uint256",
          "name": "",
          "type": "uint256"
        }
      ],
      "stateMutability": "view",
      "type": "function"
    },
    {
      "inputs": [
        {
          "internalType": "uint256",
          "name": "",
          "type": "uint256"
        }
      ],
      "name": "bidInfos",
      "outputs": [
        {
          "internalType": "address",
          "name": "token",
          "type": "address"
        },
        {
          "internalType": "uint256",
          "name": "tokenId",
          "type": "uint256"
        },
        {
          "internalType": "address",
          "name": "seller",
          "type": "address"
        },
        {
          "internalType": "address",
          "name": "bidder",
          "type": "address"
        },
        {
          "internalType": "uint256",
          "name": "openingBid",
          "type": "uint256"
        },
        {
          "internalType": "uint256",
          "name": "fixedPrice",
          "type": "uint256"
        },
        {
          "internalType": "uint256",
          "name": "bidPrice",
          "type": "uint256"
        },
        {
          "internalType": "uint256",
          "name": "bidCount",
          "type": "uint256"
        },
        {
          "internalType": "uint256",
          "name": "startTime",
          "type": "uint256"
        },
        {
          "internalType": "uint32",
          "name": "auctionStatus",
          "type": "uint32"
        },
        {
          "internalType": "uint256",
          "name": "expirationTime",
          "type": "uint256"
        }
      ],
      "stateMutability": "view",
      "type": "function"
    },
    {
      "inputs": [],
      "name": "extendTime",
      "outputs": [
        {
          "internalType": "uint256",
          "name": "",
          "type": "uint256"
        }
      ],
      "stateMutability": "view",
      "type": "function"
    },
    {
      "inputs": [],
      "name": "feePercent",
      "outputs": [
        {
          "internalType": "uint256",
          "name": "",
          "type": "uint256"
        }
      ],
      "stateMutability": "view",
      "type": "function"
    },
    {
      "inputs": [
        {
          "internalType": "address",
          "name": "",
          "type": "address"
        },
        {
          "internalType": "uint256",
          "name": "",
          "type": "uint256"
        }
      ],
      "name": "isNotFirstAuction",
      "outputs": [
        {
          "internalType": "bool",
          "name": "",
          "type": "bool"
        }
      ],
      "stateMutability": "view",
      "type": "function"
    },
    {
      "inputs": [],
      "name": "isOperator",
      "outputs": [
        {
          "internalType": "bool",
          "name": "",
          "type": "bool"
        }
      ],
      "stateMutability": "view",
      "type": "function"
    },
    {
      "inputs": [],
      "name": "limitTime",
      "outputs": [
        {
          "internalType": "uint256",
          "name": "",
          "type": "uint256"
        }
      ],
      "stateMutability": "view",
      "type": "function"
    },
    {
      "inputs": [],
      "name": "operator",
      "outputs": [
        {
          "internalType": "address",
          "name": "",
          "type": "address"
        }
      ],
      "stateMutability": "view",
      "type": "function"
    },
    {
      "inputs": [],
      "name": "owner",
      "outputs": [
        {
          "internalType": "address",
          "name": "",
          "type": "address"
        }
      ],
      "stateMutability": "view",
      "type": "function"
    },
    {
      "inputs": [],
      "name": "platform",
      "outputs": [
        {
          "internalType": "address",
          "name": "",
          "type": "address"
        }
      ],
      "stateMutability": "view",
      "type": "function"
    },
    {
      "inputs": [],
      "name": "renounceOwnership",
      "outputs": [],
      "stateMutability": "nonpayable",
      "type": "function"
    },
    {
      "inputs": [],
      "name": "reverseTime",
      "outputs": [
        {
          "internalType": "uint256",
          "name": "",
          "type": "uint256"
        }
      ],
      "stateMutability": "view",
      "type": "function"
    },
    {
      "inputs": [
        {
          "internalType": "address",
          "name": "newOperator_",
          "type": "address"
        }
      ],
      "name": "transferOperator",
      "outputs": [],
      "stateMutability": "nonpayable",
      "type": "function"
    },
    {
      "inputs": [
        {
          "internalType": "address",
          "name": "newOwner",
          "type": "address"
        }
      ],
      "name": "transferOwnership",
      "outputs": [],
      "stateMutability": "nonpayable",
      "type": "function"
    },
    {
      "stateMutability": "payable",
      "type": "receive"
    },
    {
      "inputs": [
        {
          "internalType": "address",
          "name": "_owner",
          "type": "address"
        }
      ],
      "name": "getMyArtList",
      "outputs": [
        {
          "internalType": "uint256[]",
          "name": "",
          "type": "uint256[]"
        }
      ],
      "stateMutability": "view",
      "type": "function"
    },
    {
      "inputs": [],
      "name": "getArtList",
      "outputs": [
        {
          "internalType": "uint256[]",
          "name": "_artList",
          "type": "uint256[]"
        }
      ],
      "stateMutability": "view",
      "type": "function"
    },
    {
      "inputs": [
        {
          "internalType": "uint256",
          "name": "_limitTime",
          "type": "uint256"
        },
        {
          "internalType": "uint256",
          "name": "_extendTime",
          "type": "uint256"
        },
        {
          "internalType": "uint256",
          "name": "_reverseTime",
          "type": "uint256"
        }
      ],
      "name": "setReverseTime",
      "outputs": [],
      "stateMutability": "nonpayable",
      "type": "function"
    },
    {
      "inputs": [
        {
          "internalType": "contract IAgERC721",
          "name": "_artGee",
          "type": "address"
        },
        {
          "internalType": "address",
          "name": "_platform",
          "type": "address"
        }
      ],
      "name": "setArtgee",
      "outputs": [],
      "stateMutability": "nonpayable",
      "type": "function"
    },
    {
      "inputs": [
        {
          "internalType": "address",
          "name": "_token",
          "type": "address"
        },
        {
          "internalType": "uint256",
          "name": "_tokenId",
          "type": "uint256"
        },
        {
          "internalType": "uint256",
          "name": "_openingBid",
          "type": "uint256"
        },
        {
          "internalType": "uint256",
          "name": "_fixedPrice",
          "type": "uint256"
        }
      ],
      "name": "auction",
      "outputs": [],
      "stateMutability": "nonpayable",
      "type": "function"
    },
    {
      "inputs": [
        {
          "internalType": "uint256",
          "name": "_auctionId",
          "type": "uint256"
        },
        {
          "internalType": "uint256",
          "name": "_openingBid",
          "type": "uint256"
        },
        {
          "internalType": "uint256",
          "name": "_fixedPrice",
          "type": "uint256"
        }
      ],
      "name": "reAuction",
      "outputs": [],
      "stateMutability": "nonpayable",
      "type": "function"
    },
    {
      "inputs": [
        {
          "internalType": "uint256",
          "name": "_auctionId",
          "type": "uint256"
        }
      ],
      "name": "bid",
      "outputs": [],
      "stateMutability": "payable",
      "type": "function"
    },
    {
      "inputs": [
        {
          "internalType": "uint256",
          "name": "_auctionId",
          "type": "uint256"
        }
      ],
      "name": "getCurrentPrice",
      "outputs": [
        {
          "internalType": "uint256",
          "name": "_nowBidPrice",
          "type": "uint256"
        }
      ],
      "stateMutability": "view",
      "type": "function"
    },
    {
      "inputs": [
        {
          "internalType": "uint256",
          "name": "_auctionId",
          "type": "uint256"
        }
      ],
      "name": "cancel",
      "outputs": [],
      "stateMutability": "nonpayable",
      "type": "function"
    },
    {
      "inputs": [
        {
          "internalType": "uint256",
          "name": "_auctionId",
          "type": "uint256"
        }
      ],
      "name": "sellingSettlementPrice",
      "outputs": [],
      "stateMutability": "nonpayable",
      "type": "function"
    },
    {
      "inputs": [
        {
          "internalType": "uint256",
          "name": "_auctionId",
          "type": "uint256"
        }
      ],
      "name": "bidderReverse",
      "outputs": [],
      "stateMutability": "nonpayable",
      "type": "function"
    },
    {
      "inputs": [
        {
          "internalType": "uint256",
          "name": "_auctionId",
          "type": "uint256"
        }
      ],
      "name": "fixedWithdraw",
      "outputs": [],
      "stateMutability": "payable",
      "type": "function"
    },
    {
      "inputs": [
        {
          "internalType": "address",
          "name": "",
          "type": "address"
        },
        {
          "internalType": "address",
          "name": "",
          "type": "address"
        },
        {
          "internalType": "uint256",
          "name": "",
          "type": "uint256"
        },
        {
          "internalType": "bytes",
          "name": "",
          "type": "bytes"
        }
      ],
      "name": "onERC721Received",
      "outputs": [
        {
          "internalType": "bytes4",
          "name": "",
          "type": "bytes4"
        }
      ],
      "stateMutability": "pure",
      "type": "function"
    }
  ],
  "bytecode": "0x608060405262015180600455610384600555620697806006556064600755604051806040016040528060c860ff168152602001606460ff1681525060089060026200004c929190620002b0565b506103e86009553480156200006057600080fd5b5060405162004c4a38038062004c4a833981810160405260408110156200008657600080fd5b8101908080519060200190929190805190602001909291905050506000620000b3620002a860201b60201c565b9050806000806101000a81548173ffffffffffffffffffffffffffffffffffffffff021916908373ffffffffffffffffffffffffffffffffffffffff1602179055508073ffffffffffffffffffffffffffffffffffffffff16600073ffffffffffffffffffffffffffffffffffffffff167f8be0079c531659141344cd1fd0a4f28419497f9722a3daafe3b4186f6b6457e060405160405180910390a35062000161620002a860201b60201c565b600160006101000a81548173ffffffffffffffffffffffffffffffffffffffff021916908373ffffffffffffffffffffffffffffffffffffffff160217905550600160009054906101000a900473ffffffffffffffffffffffffffffffffffffffff1673ffffffffffffffffffffffffffffffffffffffff16600073ffffffffffffffffffffffffffffffffffffffff167f74da04524d50c64947f5dd5381ef1a4dca5cba8ed1d816243f9e48aa0b5617ed60405160405180910390a381600e60006101000a81548173ffffffffffffffffffffffffffffffffffffffff021916908373ffffffffffffffffffffffffffffffffffffffff16021790555080600a60006101000a81548173ffffffffffffffffffffffffffffffffffffffff021916908373ffffffffffffffffffffffffffffffffffffffff160217905550505062000326565b600033905090565b828054828255906000526020600020908101928215620002f4579160200282015b82811115620002f3578251829060ff16905591602001919060010190620002d1565b5b50905062000303919062000307565b5090565b5b808211156200032257600081600090555060010162000308565b5090565b61491480620003366000396000f3fe6080604052600436106101c65760003560e01c80638da5cb5b116100f7578063c5ac0ded11610095578063f16a81a211610064578063f16a81a2146109a3578063f288f46f146109f2578063f2ec6fad14610acf578063f2fde38b14610b1e576101cd565b8063c5ac0ded146108c0578063cb350d26146108eb578063d5422f8614610926578063d961eb1d14610975576101cd565b8063b3b95e30116100d1578063b3b95e301461076b578063b76b63ec14610796578063baa283d314610802578063c55d0f5614610871576101cd565b80638da5cb5b146106d45780638e4bb9a114610715578063abb6ae8914610740576101cd565b8063454a2ab3116101645780635b4458a01161013e5780635b4458a014610608578063715018a614610643578063764674231461065a5780637fd6f15c146106a9576101cd565b8063454a2ab3146105585780634bde38c814610586578063570ca735146105c7576101cd565b806319e9e3c8116101a057806319e9e3c8146103f957806329605e771461049f57806340e58ee5146104f05780634456eda21461052b576101cd565b80630773b15b146101d2578063122e986f14610243578063150b7a02146102b4576101cd565b366101cd57005b600080fd5b3480156101de57600080fd5b5061022b600480360360408110156101f557600080fd5b81019080803573ffffffffffffffffffffffffffffffffffffffff16906020019092919080359060200190929190505050610b6f565b60405180821515815260200191505060405180910390f35b34801561024f57600080fd5b506102b26004803603604081101561026657600080fd5b81019080803573ffffffffffffffffffffffffffffffffffffffff169060200190929190803573ffffffffffffffffffffffffffffffffffffffff169060200190929190505050610b9e565b005b3480156102c057600080fd5b506103c4600480360360808110156102d757600080fd5b81019080803573ffffffffffffffffffffffffffffffffffffffff169060200190929190803573ffffffffffffffffffffffffffffffffffffffff169060200190929190803590602001909291908035906020019064010000000081111561033e57600080fd5b82018360208201111561035057600080fd5b8035906020019184600183028401116401000000008311171561037257600080fd5b91908080601f016020809104026020016040519081016040528093929190818152602001838380828437600081840152601f19601f820116905080830192505050505050509192919290505050610cd3565b60405180827bffffffffffffffffffffffffffffffffffffffffffffffffffffffff1916815260200191505060405180910390f35b34801561040557600080fd5b506104486004803603602081101561041c57600080fd5b81019080803573ffffffffffffffffffffffffffffffffffffffff169060200190929190505050610ce7565b6040518080602001828103825283818151815260200191508051906020019060200280838360005b8381101561048b578082015181840152602081019050610470565b505050509050019250505060405180910390f35b3480156104ab57600080fd5b506104ee600480360360208110156104c257600080fd5b81019080803573ffffffffffffffffffffffffffffffffffffffff169060200190929190505050610d7e565b005b3480156104fc57600080fd5b506105296004803603602081101561051357600080fd5b8101908080359060200190929190505050610e39565b005b34801561053757600080fd5b506105406112d8565b60405180821515815260200191505060405180910390f35b6105846004803603602081101561056e57600080fd5b8101908080359060200190929190505050611337565b005b34801561059257600080fd5b5061059b611993565b604051808273ffffffffffffffffffffffffffffffffffffffff16815260200191505060405180910390f35b3480156105d357600080fd5b506105dc6119b9565b604051808273ffffffffffffffffffffffffffffffffffffffff16815260200191505060405180910390f35b34801561061457600080fd5b506106416004803603602081101561062b57600080fd5b81019080803590602001909291905050506119e3565b005b34801561064f57600080fd5b50610658612444565b005b34801561066657600080fd5b506106936004803603602081101561067d57600080fd5b81019080803590602001909291905050506125b1565b6040518082815260200191505060405180910390f35b3480156106b557600080fd5b506106be6125d2565b6040518082815260200191505060405180910390f35b3480156106e057600080fd5b506106e96125d8565b604051808273ffffffffffffffffffffffffffffffffffffffff16815260200191505060405180910390f35b34801561072157600080fd5b5061072a612601565b6040518082815260200191505060405180910390f35b34801561074c57600080fd5b50610755612607565b6040518082815260200191505060405180910390f35b34801561077757600080fd5b5061078061260d565b6040518082815260200191505060405180910390f35b3480156107a257600080fd5b506107ab612613565b6040518080602001828103825283818151815260200191508051906020019060200280838360005b838110156107ee5780820151818401526020810190506107d3565b505050509050019250505060405180910390f35b34801561080e57600080fd5b5061086f6004803603608081101561082557600080fd5b81019080803573ffffffffffffffffffffffffffffffffffffffff16906020019092919080359060200190929190803590602001909291908035906020019092919050505061266b565b005b34801561087d57600080fd5b506108aa6004803603602081101561089457600080fd5b810190808035906020019092919050505061298e565b6040518082815260200191505060405180910390f35b3480156108cc57600080fd5b506108d5612b34565b6040518082815260200191505060405180910390f35b3480156108f757600080fd5b506109246004803603602081101561090e57600080fd5b8101908080359060200190929190505050612b3a565b005b34801561093257600080fd5b506109736004803603606081101561094957600080fd5b81019080803590602001909291908035906020019092919080359060200190929190505050612e1f565b005b6109a16004803603602081101561098b57600080fd5b810190808035906020019092919050505061314b565b005b3480156109af57600080fd5b506109f0600480360360608110156109c657600080fd5b81019080803590602001909291908035906020019092919080359060200190929190505050613c1e565b005b3480156109fe57600080fd5b50610a2b60048036036020811015610a1557600080fd5b8101908080359060200190929190505050613d4f565b604051808c73ffffffffffffffffffffffffffffffffffffffff1681526020018b81526020018a73ffffffffffffffffffffffffffffffffffffffff1681526020018973ffffffffffffffffffffffffffffffffffffffff1681526020018881526020018781526020018681526020018581526020018481526020018363ffffffff1681526020018281526020019b50505050505050505050505060405180910390f35b348015610adb57600080fd5b50610b0860048036036020811015610af257600080fd5b8101908080359060200190929190505050613e19565b6040518082815260200191505060405180910390f35b348015610b2a57600080fd5b50610b6d60048036036020811015610b4157600080fd5b81019080803573ffffffffffffffffffffffffffffffffffffffff169060200190929190505050613e3a565b005b600b6020528160005260406000206020528060005260406000206000915091509054906101000a900460ff1681565b610ba661402c565b73ffffffffffffffffffffffffffffffffffffffff16610bc46125d8565b73ffffffffffffffffffffffffffffffffffffffff1614610c4d576040517f08c379a00000000000000000000000000000000000000000000000000000000081526004018080602001828103825260208152602001807f4f776e61626c653a2063616c6c6572206973206e6f7420746865206f776e657281525060200191505060405180910390fd5b81600e60006101000a81548173ffffffffffffffffffffffffffffffffffffffff021916908373ffffffffffffffffffffffffffffffffffffffff16021790555080600a60006101000a81548173ffffffffffffffffffffffffffffffffffffffff021916908373ffffffffffffffffffffffffffffffffffffffff1602179055505050565b600063150b7a0260e01b9050949350505050565b6060600c60008373ffffffffffffffffffffffffffffffffffffffff1673ffffffffffffffffffffffffffffffffffffffff168152602001908152602001600020805480602002602001604051908101604052809291908181526020018280548015610d7257602002820191906000526020600020905b815481526020019060010190808311610d5e575b50505050509050919050565b610d8661402c565b73ffffffffffffffffffffffffffffffffffffffff16610da46125d8565b73ffffffffffffffffffffffffffffffffffffffff1614610e2d576040517f08c379a00000000000000000000000000000000000000000000000000000000081526004018080602001828103825260208152602001807f4f776e61626c653a2063616c6c6572206973206e6f7420746865206f776e657281525060200191505060405180910390fd5b610e3681614034565b50565b60006003600083815260200190815260200160002090503373ffffffffffffffffffffffffffffffffffffffff168160020160009054906101000a900473ffffffffffffffffffffffffffffffffffffffff1673ffffffffffffffffffffffffffffffffffffffff1614610f15576040517f08c379a00000000000000000000000000000000000000000000000000000000081526004018080602001828103825260158152602001807f4e6f742061756374696f6e2069642073656c6c6572000000000000000000000081525060200191505060405180910390fd5b4281600a015410610f8e576040517f08c379a000000000000000000000000000000000000000000000000000000000815260040180806020018281038252600a8152602001807f4f6e2061756374696f6e0000000000000000000000000000000000000000000081525060200191505060405180910390fd5b60008160090160009054906101000a900463ffffffff1663ffffffff161480610fd1575060018160090160009054906101000a900463ffffffff1663ffffffff16145b611043576040517f08c379a00000000000000000000000000000000000000000000000000000000081526004018080602001828103825260078152602001807f486173206269640000000000000000000000000000000000000000000000000081525060200191505060405180910390fd5b600073ffffffffffffffffffffffffffffffffffffffff168160030160009054906101000a900473ffffffffffffffffffffffffffffffffffffffff1673ffffffffffffffffffffffffffffffffffffffff16146110ca576110c98160030160009054906101000a900473ffffffffffffffffffffffffffffffffffffffff1683614159565b5b600060018260090160009054906101000a900463ffffffff1663ffffffff16141561115757816006015490506111288260030160009054906101000a900473ffffffffffffffffffffffffffffffffffffffff16836006015461437c565b6111568260020160009054906101000a900473ffffffffffffffffffffffffffffffffffffffff1684614159565b5b60008260000160009054906101000a900473ffffffffffffffffffffffffffffffffffffffff1690508073ffffffffffffffffffffffffffffffffffffffff166342842e0e303386600101546040518463ffffffff1660e01b8152600401808473ffffffffffffffffffffffffffffffffffffffff1681526020018373ffffffffffffffffffffffffffffffffffffffff1681526020018281526020019350505050600060405180830381600087803b15801561121357600080fd5b505af1158015611227573d6000803e3d6000fd5b5050505060058360090160006101000a81548163ffffffff021916908363ffffffff160217905550837f3f1f59fa21f43111fdaa397568b78db1da1f47786a37d225bb05aa15ff3fe83c8460020160009054906101000a900473ffffffffffffffffffffffffffffffffffffffff16846005604051808473ffffffffffffffffffffffffffffffffffffffff168152602001838152602001828152602001935050505060405180910390a250505050565b6000600160009054906101000a900473ffffffffffffffffffffffffffffffffffffffff1673ffffffffffffffffffffffffffffffffffffffff1661131b61402c565b73ffffffffffffffffffffffffffffffffffffffff1614905090565b600060036000838152602001908152602001600020905080600a01544211156113c8576040517f08c379a000000000000000000000000000000000000000000000000000000000815260040180806020018281038252600c8152602001807f41756374696f6e206f766572000000000000000000000000000000000000000081525060200191505060405180910390fd5b60008160090160009054906101000a900463ffffffff1663ffffffff16148061140b575060018160090160009054906101000a900463ffffffff1663ffffffff16145b61147d576040517f08c379a000000000000000000000000000000000000000000000000000000000815260040180806020018281038252600e8152602001807f4e6f74206f6e2061756374696f6e00000000000000000000000000000000000081525060200191505060405180910390fd5b8060020160009054906101000a900473ffffffffffffffffffffffffffffffffffffffff1673ffffffffffffffffffffffffffffffffffffffff163373ffffffffffffffffffffffffffffffffffffffff161415611543576040517f08c379a00000000000000000000000000000000000000000000000000000000081526004018080602001828103825260128152602001807f53656c6c65722063616e206e6f7420626964000000000000000000000000000081525060200191505060405180910390fd5b8060030160009054906101000a900473ffffffffffffffffffffffffffffffffffffffff1673ffffffffffffffffffffffffffffffffffffffff163373ffffffffffffffffffffffffffffffffffffffff161415611609576040517f08c379a00000000000000000000000000000000000000000000000000000000081526004018080602001828103825260198152602001807f4269646465722063616e206e6f7420726570656174206269640000000000000081525060200191505060405180910390fd5b60008160060154905060008260070154146116ca576116508260030160009054906101000a900473ffffffffffffffffffffffffffffffffffffffff16836006015461437c565b8034116116c5576040517f08c379a000000000000000000000000000000000000000000000000000000000815260040180806020018281038252600b8152602001807f56616c7565206572726f7200000000000000000000000000000000000000000081525060200191505060405180910390fd5b611740565b80341461173f576040517f08c379a000000000000000000000000000000000000000000000000000000000815260040180806020018281038252600b8152602001807f56616c7565206572726f7200000000000000000000000000000000000000000081525060200191505060405180910390fd5b5b816005015434106117b9576040517f08c379a00000000000000000000000000000000000000000000000000000000081526004018080602001828103825260108152602001807f4f7665722066697865642070726963650000000000000000000000000000000081525060200191505060405180910390fd5b3482600601819055506005546117dc4284600a015461445d90919063ffffffff16565b116117ff576117f6600554426144e090919063ffffffff16565b82600a01819055505b600073ffffffffffffffffffffffffffffffffffffffff168260030160009054906101000a900473ffffffffffffffffffffffffffffffffffffffff1673ffffffffffffffffffffffffffffffffffffffff1614611886576118858260030160009054906101000a900473ffffffffffffffffffffffffffffffffffffffff1684614159565b5b6118903384614568565b338260030160006101000a81548173ffffffffffffffffffffffffffffffffffffffff021916908373ffffffffffffffffffffffffffffffffffffffff16021790555060018260090160006101000a81548163ffffffff021916908363ffffffff16021790555061190f600183600701546144e090919063ffffffff16565b8260070181905550827f21d49e1c269f967398b585ded56a8f3cbd23b4e2ba8ef4d2221afce47c11688b3383856007015486600a01546001604051808673ffffffffffffffffffffffffffffffffffffffff1681526020018581526020018481526020018381526020018281526020019550505050505060405180910390a2505050565b600a60009054906101000a900473ffffffffffffffffffffffffffffffffffffffff1681565b6000600160009054906101000a900473ffffffffffffffffffffffffffffffffffffffff16905090565b60006003600083815260200190815260200160002090508060020160009054906101000a900473ffffffffffffffffffffffffffffffffffffffff1673ffffffffffffffffffffffffffffffffffffffff163373ffffffffffffffffffffffffffffffffffffffff1614611abf576040517f08c379a000000000000000000000000000000000000000000000000000000000815260040180806020018281038252600a8152602001807f4e6f742073656c6c65720000000000000000000000000000000000000000000081525060200191505060405180910390fd5b60018160090160009054906101000a900463ffffffff1663ffffffff1614611b4f576040517f08c379a000000000000000000000000000000000000000000000000000000000815260040180806020018281038252600a8152602001807f4e6f74206f6e206269640000000000000000000000000000000000000000000081525060200191505060405180910390fd5b60038160090160006101000a81548163ffffffff021916908363ffffffff16021790555060008160060154905060008260000160009054906101000a900473ffffffffffffffffffffffffffffffffffffffff1690508073ffffffffffffffffffffffffffffffffffffffff166342842e0e308560030160009054906101000a900473ffffffffffffffffffffffffffffffffffffffff1686600101546040518463ffffffff1660e01b8152600401808473ffffffffffffffffffffffffffffffffffffffff1681526020018373ffffffffffffffffffffffffffffffffffffffff1681526020018281526020019350505050600060405180830381600087803b158015611c5c57600080fd5b505af1158015611c70573d6000803e3d6000fd5b505050506000611c9f600954611c916007548661466990919063ffffffff16565b6146ef90919063ffffffff16565b90506000611ccf600a60009054906101000a900473ffffffffffffffffffffffffffffffffffffffff168361437c565b8460000160009054906101000a900473ffffffffffffffffffffffffffffffffffffffff1673ffffffffffffffffffffffffffffffffffffffff16600e60009054906101000a900473ffffffffffffffffffffffffffffffffffffffff1673ffffffffffffffffffffffffffffffffffffffff161415612343576000600e60009054906101000a900473ffffffffffffffffffffffffffffffffffffffff1673ffffffffffffffffffffffffffffffffffffffff1663abb03ba687600101546040518263ffffffff1660e01b81526004018082815260200191505060606040518083038186803b158015611dc257600080fd5b505afa158015611dd6573d6000803e3d6000fd5b505050506040513d6060811015611dec57600080fd5b81019080805190602001909291908051906020019092919080519060200190929190505050505090506000606080600e60009054906101000a900473ffffffffffffffffffffffffffffffffffffffff1673ffffffffffffffffffffffffffffffffffffffff1663e726d96b856040518263ffffffff1660e01b81526004018082815260200191505060006040518083038186803b158015611e8d57600080fd5b505afa158015611ea1573d6000803e3d6000fd5b505050506040513d6000823e3d601f19601f8201168201806040525060e0811015611ecb57600080fd5b810190808051906020019092919080519060200190929190805190602001909291908051906020019092919080516040519392919084640100000000821115611f1357600080fd5b83820191506020820185811115611f2957600080fd5b8251866020820283011164010000000082111715611f4657600080fd5b8083526020830192505050908051906020019060200280838360005b83811015611f7d578082015181840152602081019050611f62565b5050505090500160405260200180516040519392919084640100000000821115611fa657600080fd5b83820191506020820185811115611fbc57600080fd5b8251866020820283011164010000000082111715611fd957600080fd5b8083526020830192505050908051906020019060200280838360005b83811015612010578082015181840152602081019050611ff5565b505050509050016040526020018051604051939291908464010000000082111561203957600080fd5b8382019150602082018581111561204f57600080fd5b825186600182028301116401000000008211171561206c57600080fd5b8083526020830192505050908051906020019080838360005b838110156120a0578082015181840152602081019050612085565b50505050905090810190601f1680156120cd5780820380516001836020036101000a031916815260200191505b50604052505050509550955095505050506000600b60008b60000160009054906101000a900473ffffffffffffffffffffffffffffffffffffffff1673ffffffffffffffffffffffffffffffffffffffff1673ffffffffffffffffffffffffffffffffffffffff16815260200190815260200160002060008b60010154815260200190815260200160002060009054906101000a900460ff1690506121cb6009546121bd8361219457600860008154811061218457fe5b90600052602060002001546121ae565b60086001815481106121a257fe5b90600052602060002001545b8c61466990919063ffffffff16565b6146ef90919063ffffffff16565b95506000835114156121e6576121e1848761437c565b6122ac565b60005b82518110156122aa5760008114156122435761223e8561223960095461222b87868151811061221457fe5b60200260200101518c61466990919063ffffffff16565b6146ef90919063ffffffff16565b61437c565b61229d565b61229c84600183038151811061225557fe5b602002602001015161229760095461228987868151811061227257fe5b60200260200101518c61466990919063ffffffff16565b6146ef90919063ffffffff16565b61437c565b5b80806001019150506121e9565b505b6001600b60008c60000160009054906101000a900473ffffffffffffffffffffffffffffffffffffffff1673ffffffffffffffffffffffffffffffffffffffff1673ffffffffffffffffffffffffffffffffffffffff16815260200190815260200160002060008c60010154815260200190815260200160002060006101000a81548160ff02191690831515021790555050505050505b6123958560020160009054906101000a900473ffffffffffffffffffffffffffffffffffffffff1661239083612382868961445d90919063ffffffff16565b61445d90919063ffffffff16565b61437c565b857ff132efb946ce538e39da16b14ba507efb720da775af1c929ef95099bf063b2c78660030160009054906101000a900473ffffffffffffffffffffffffffffffffffffffff16612401846123f3878a61445d90919063ffffffff16565b61445d90919063ffffffff16565b6003604051808473ffffffffffffffffffffffffffffffffffffffff168152602001838152602001828152602001935050505060405180910390a2505050505050565b61244c61402c565b73ffffffffffffffffffffffffffffffffffffffff1661246a6125d8565b73ffffffffffffffffffffffffffffffffffffffff16146124f3576040517f08c379a00000000000000000000000000000000000000000000000000000000081526004018080602001828103825260208152602001807f4f776e61626c653a2063616c6c6572206973206e6f7420746865206f776e657281525060200191505060405180910390fd5b600073ffffffffffffffffffffffffffffffffffffffff1660008054906101000a900473ffffffffffffffffffffffffffffffffffffffff1673ffffffffffffffffffffffffffffffffffffffff167f8be0079c531659141344cd1fd0a4f28419497f9722a3daafe3b4186f6b6457e060405160405180910390a360008060006101000a81548173ffffffffffffffffffffffffffffffffffffffff021916908373ffffffffffffffffffffffffffffffffffffffff160217905550565b600f81815481106125be57fe5b906000526020600020016000915090505481565b60075481565b60008060009054906101000a900473ffffffffffffffffffffffffffffffffffffffff16905090565b60065481565b60055481565b60045481565b6060600f80548060200260200160405190810160405280929190818152602001828054801561266157602002820191906000526020600020905b81548152602001906001019080831161264d575b5050505050905090565b8082106126c3576040517f08c379a000000000000000000000000000000000000000000000000000000000815260040180806020018281038252602c8152602001806148b3602c913960400191505060405180910390fd5b6126cd6002614778565b60006126d9600261478e565b90506000600360008381526020019081526020016000209050858160000160006101000a81548173ffffffffffffffffffffffffffffffffffffffff021916908373ffffffffffffffffffffffffffffffffffffffff160217905550848160010181905550338160020160006101000a81548173ffffffffffffffffffffffffffffffffffffffff021916908373ffffffffffffffffffffffffffffffffffffffff16021790555083816004018190555083816006018190555082816005018190555060008160030160006101000a81548173ffffffffffffffffffffffffffffffffffffffff021916908373ffffffffffffffffffffffffffffffffffffffff16021790555060008160070181905550600042905080826008018190555061280d600454826144e090919063ffffffff16565b82600a018190555060008260090160006101000a81548163ffffffff021916908363ffffffff16021790555060008790508073ffffffffffffffffffffffffffffffffffffffff166342842e0e33308a6040518463ffffffff1660e01b8152600401808473ffffffffffffffffffffffffffffffffffffffff1681526020018373ffffffffffffffffffffffffffffffffffffffff1681526020018281526020019350505050600060405180830381600087803b1580156128cd57600080fd5b505af11580156128e1573d6000803e3d6000fd5b505050506128ef3385614568565b837fc8541c31cf704fe8c20970de15353da06fd89c463c3977e26c86c47721ac094f8989338a8a886000604051808873ffffffffffffffffffffffffffffffffffffffff1681526020018781526020018673ffffffffffffffffffffffffffffffffffffffff16815260200185815260200184815260200183815260200182815260200197505050505050505060405180910390a25050505050505050565b600061299861479c565b60036000848152602001908152602001600020604051806101600160405290816000820160009054906101000a900473ffffffffffffffffffffffffffffffffffffffff1673ffffffffffffffffffffffffffffffffffffffff1673ffffffffffffffffffffffffffffffffffffffff168152602001600182015481526020016002820160009054906101000a900473ffffffffffffffffffffffffffffffffffffffff1673ffffffffffffffffffffffffffffffffffffffff1673ffffffffffffffffffffffffffffffffffffffff1681526020016003820160009054906101000a900473ffffffffffffffffffffffffffffffffffffffff1673ffffffffffffffffffffffffffffffffffffffff1673ffffffffffffffffffffffffffffffffffffffff16815260200160048201548152602001600582015481526020016006820154815260200160078201548152602001600882015481526020016009820160009054906101000a900463ffffffff1663ffffffff1663ffffffff168152602001600a8201548152505090508060c00151915050919050565b60095481565b60006003600083815260200190815260200160002090508060030160009054906101000a900473ffffffffffffffffffffffffffffffffffffffff1673ffffffffffffffffffffffffffffffffffffffff163373ffffffffffffffffffffffffffffffffffffffff1614612c16576040517f08c379a000000000000000000000000000000000000000000000000000000000815260040180806020018281038252600a8152602001807f4e6f74206269646465720000000000000000000000000000000000000000000081525060200191505060405180910390fd5b42612c3060065483600a01546144e090919063ffffffff16565b1115612ca4576040517f08c379a000000000000000000000000000000000000000000000000000000000815260040180806020018281038252600a8152602001807f4f6e2061756374696f6e0000000000000000000000000000000000000000000081525060200191505060405180910390fd5b60018160090160009054906101000a900463ffffffff1663ffffffff1614612d34576040517f08c379a00000000000000000000000000000000000000000000000000000000081526004018080602001828103825260128152602001807f52657665727365206e6f74206f6e20626964000000000000000000000000000081525060200191505060405180910390fd5b612d4233826006015461437c565b60028160090160006101000a81548163ffffffff021916908363ffffffff160217905550612d948160030160009054906101000a900473ffffffffffffffffffffffffffffffffffffffff1683614159565b817fba5068295b963c01e54acedeb13de943df2c73d23a25efae68d4296b11db748e8260030160009054906101000a900473ffffffffffffffffffffffffffffffffffffffff1683600601546002604051808473ffffffffffffffffffffffffffffffffffffffff168152602001838152602001828152602001935050505060405180910390a25050565b60006003600085815260200190815260200160002090503373ffffffffffffffffffffffffffffffffffffffff168160020160009054906101000a900473ffffffffffffffffffffffffffffffffffffffff1673ffffffffffffffffffffffffffffffffffffffff1614612efb576040517f08c379a00000000000000000000000000000000000000000000000000000000081526004018080602001828103825260158152602001807f4e6f742061756374696f6e2069642073656c6c6572000000000000000000000081525060200191505060405180910390fd5b80600a01544211612f74576040517f08c379a00000000000000000000000000000000000000000000000000000000081526004018080602001828103825260108152602001807f41756374696f6e206e6f74206f7665720000000000000000000000000000000081525060200191505060405180910390fd5b60018160090160009054906101000a900463ffffffff1663ffffffff161415612fca57612fc98160030160009054906101000a900473ffffffffffffffffffffffffffffffffffffffff16826006015461437c565b5b338160020160006101000a81548173ffffffffffffffffffffffffffffffffffffffff021916908373ffffffffffffffffffffffffffffffffffffffff16021790555082816004018190555082816006018190555081816005018190555060008160030160006101000a81548173ffffffffffffffffffffffffffffffffffffffff021916908373ffffffffffffffffffffffffffffffffffffffff160217905550600042905080826008018190555061308f600454826144e090919063ffffffff16565b82600a018190555060008260090160006101000a81548163ffffffff021916908363ffffffff160217905550600082600701819055506130f38260030160009054906101000a900473ffffffffffffffffffffffffffffffffffffffff1686614159565b847f0b61107c1ef70ee020832bbd4446a24ff3f9567249d602b3a55748500352281185858460006040518085815260200184815260200183815260200182815260200194505050505060405180910390a25050505050565b600060036000838152602001908152602001600020905060018160090160009054906101000a900463ffffffff1663ffffffff1614806131a5575060008160090160009054906101000a900463ffffffff1663ffffffff16145b613217576040517f08c379a000000000000000000000000000000000000000000000000000000000815260040180806020018281038252601e8152602001807f5769746864726177206e6f74206f6e20626964206f72206f6e2073656c6c000081525060200191505060405180910390fd5b4281600a01541015613291576040517f08c379a000000000000000000000000000000000000000000000000000000000815260040180806020018281038252600e8152602001807f4e6f74206f6e2061756374696f6e00000000000000000000000000000000000081525060200191505060405180910390fd5b3481600501541461330a576040517f08c379a000000000000000000000000000000000000000000000000000000000815260040180806020018281038252600f8152602001807f4e6f74206669786564207072696365000000000000000000000000000000000081525060200191505060405180910390fd5b60008160050154905060048260090160006101000a81548163ffffffff021916908363ffffffff16021790555060008260000160009054906101000a900473ffffffffffffffffffffffffffffffffffffffff1690508073ffffffffffffffffffffffffffffffffffffffff166342842e0e303386600101546040518463ffffffff1660e01b8152600401808473ffffffffffffffffffffffffffffffffffffffff1681526020018373ffffffffffffffffffffffffffffffffffffffff1681526020018281526020019350505050600060405180830381600087803b1580156133f357600080fd5b505af1158015613407573d6000803e3d6000fd5b5050505060006134366009546134286007548661466990919063ffffffff16565b6146ef90919063ffffffff16565b90506000613466600a60009054906101000a900473ffffffffffffffffffffffffffffffffffffffff168361437c565b8460000160009054906101000a900473ffffffffffffffffffffffffffffffffffffffff1673ffffffffffffffffffffffffffffffffffffffff16600e60009054906101000a900473ffffffffffffffffffffffffffffffffffffffff1673ffffffffffffffffffffffffffffffffffffffff161415613ada576000600e60009054906101000a900473ffffffffffffffffffffffffffffffffffffffff1673ffffffffffffffffffffffffffffffffffffffff1663abb03ba687600101546040518263ffffffff1660e01b81526004018082815260200191505060606040518083038186803b15801561355957600080fd5b505afa15801561356d573d6000803e3d6000fd5b505050506040513d606081101561358357600080fd5b81019080805190602001909291908051906020019092919080519060200190929190505050505090506000606080600e60009054906101000a900473ffffffffffffffffffffffffffffffffffffffff1673ffffffffffffffffffffffffffffffffffffffff1663e726d96b856040518263ffffffff1660e01b81526004018082815260200191505060006040518083038186803b15801561362457600080fd5b505afa158015613638573d6000803e3d6000fd5b505050506040513d6000823e3d601f19601f8201168201806040525060e081101561366257600080fd5b8101908080519060200190929190805190602001909291908051906020019092919080519060200190929190805160405193929190846401000000008211156136aa57600080fd5b838201915060208201858111156136c057600080fd5b82518660208202830111640100000000821117156136dd57600080fd5b8083526020830192505050908051906020019060200280838360005b838110156137145780820151818401526020810190506136f9565b505050509050016040526020018051604051939291908464010000000082111561373d57600080fd5b8382019150602082018581111561375357600080fd5b825186602082028301116401000000008211171561377057600080fd5b8083526020830192505050908051906020019060200280838360005b838110156137a757808201518184015260208101905061378c565b50505050905001604052602001805160405193929190846401000000008211156137d057600080fd5b838201915060208201858111156137e657600080fd5b825186600182028301116401000000008211171561380357600080fd5b8083526020830192505050908051906020019080838360005b8381101561383757808201518184015260208101905061381c565b50505050905090810190601f1680156138645780820380516001836020036101000a031916815260200191505b50604052505050509550955095505050506000600b60008b60000160009054906101000a900473ffffffffffffffffffffffffffffffffffffffff1673ffffffffffffffffffffffffffffffffffffffff1673ffffffffffffffffffffffffffffffffffffffff16815260200190815260200160002060008b60010154815260200190815260200160002060009054906101000a900460ff1690506139626009546139548361392b57600860008154811061391b57fe5b9060005260206000200154613945565b600860018154811061393957fe5b90600052602060002001545b8c61466990919063ffffffff16565b6146ef90919063ffffffff16565b955060008351141561397d57613978848761437c565b613a43565b60005b8251811015613a415760008114156139da576139d5856139d06009546139c28786815181106139ab57fe5b60200260200101518c61466990919063ffffffff16565b6146ef90919063ffffffff16565b61437c565b613a34565b613a338460018303815181106139ec57fe5b6020026020010151613a2e600954613a20878681518110613a0957fe5b60200260200101518c61466990919063ffffffff16565b6146ef90919063ffffffff16565b61437c565b5b8080600101915050613980565b505b6001600b60008c60000160009054906101000a900473ffffffffffffffffffffffffffffffffffffffff1673ffffffffffffffffffffffffffffffffffffffff1673ffffffffffffffffffffffffffffffffffffffff16815260200190815260200160002060008c60010154815260200190815260200160002060006101000a81548160ff02191690831515021790555050505050505b338560030160006101000a81548173ffffffffffffffffffffffffffffffffffffffff021916908373ffffffffffffffffffffffffffffffffffffffff160217905550613b6f8560020160009054906101000a900473ffffffffffffffffffffffffffffffffffffffff16613b6a83613b5c868961445d90919063ffffffff16565b61445d90919063ffffffff16565b61437c565b857fafbe31d08728285cdb33e3a9a301fa784e9d37b8c432a9bcd4e0cca210afbdb68660030160009054906101000a900473ffffffffffffffffffffffffffffffffffffffff16613bdb84613bcd878a61445d90919063ffffffff16565b61445d90919063ffffffff16565b6004604051808473ffffffffffffffffffffffffffffffffffffffff168152602001838152602001828152602001935050505060405180910390a2505050505050565b613c2661402c565b73ffffffffffffffffffffffffffffffffffffffff16613c446125d8565b73ffffffffffffffffffffffffffffffffffffffff1614613ccd576040517f08c379a00000000000000000000000000000000000000000000000000000000081526004018080602001828103825260208152602001807f4f776e61626c653a2063616c6c6572206973206e6f7420746865206f776e657281525060200191505060405180910390fd5b7f83ab88e3788c7fcd47f116ebeeb2ed3108eada6f186aaab497d45115e03ed1cd60045460055460065460405180848152602001838152602001828152602001935050505060405180910390a160008314613d2a57826004819055505b60008214613d3a57816005819055505b60008114613d4a57806006819055505b505050565b60036020528060005260406000206000915090508060000160009054906101000a900473ffffffffffffffffffffffffffffffffffffffff16908060010154908060020160009054906101000a900473ffffffffffffffffffffffffffffffffffffffff16908060030160009054906101000a900473ffffffffffffffffffffffffffffffffffffffff16908060040154908060050154908060060154908060070154908060080154908060090160009054906101000a900463ffffffff169080600a015490508b565b60088181548110613e2657fe5b906000526020600020016000915090505481565b613e4261402c565b73ffffffffffffffffffffffffffffffffffffffff16613e606125d8565b73ffffffffffffffffffffffffffffffffffffffff1614613ee9576040517f08c379a00000000000000000000000000000000000000000000000000000000081526004018080602001828103825260208152602001807f4f776e61626c653a2063616c6c6572206973206e6f7420746865206f776e657281525060200191505060405180910390fd5b600073ffffffffffffffffffffffffffffffffffffffff168173ffffffffffffffffffffffffffffffffffffffff161415613f6f576040517f08c379a000000000000000000000000000000000000000000000000000000000815260040180806020018281038252602681526020018061483f6026913960400191505060405180910390fd5b8073ffffffffffffffffffffffffffffffffffffffff1660008054906101000a900473ffffffffffffffffffffffffffffffffffffffff1673ffffffffffffffffffffffffffffffffffffffff167f8be0079c531659141344cd1fd0a4f28419497f9722a3daafe3b4186f6b6457e060405160405180910390a3806000806101000a81548173ffffffffffffffffffffffffffffffffffffffff021916908373ffffffffffffffffffffffffffffffffffffffff16021790555050565b600033905090565b600073ffffffffffffffffffffffffffffffffffffffff168173ffffffffffffffffffffffffffffffffffffffff1614156140ba576040517f08c379a000000000000000000000000000000000000000000000000000000000815260040180806020018281038252602d815260200180614865602d913960400191505060405180910390fd5b8073ffffffffffffffffffffffffffffffffffffffff16600073ffffffffffffffffffffffffffffffffffffffff167f74da04524d50c64947f5dd5381ef1a4dca5cba8ed1d816243f9e48aa0b5617ed60405160405180910390a380600160006101000a81548173ffffffffffffffffffffffffffffffffffffffff021916908373ffffffffffffffffffffffffffffffffffffffff16021790555050565b60006141b16001600c60008673ffffffffffffffffffffffffffffffffffffffff1673ffffffffffffffffffffffffffffffffffffffff1681526020019081526020016000208054905061445d90919063ffffffff16565b90506000600d60008573ffffffffffffffffffffffffffffffffffffffff1673ffffffffffffffffffffffffffffffffffffffff1681526020019081526020016000206000848152602001908152602001600020549050808214614318576000600c60008673ffffffffffffffffffffffffffffffffffffffff1673ffffffffffffffffffffffffffffffffffffffff168152602001908152602001600020838154811061425b57fe5b9060005260206000200154905080600c60008773ffffffffffffffffffffffffffffffffffffffff1673ffffffffffffffffffffffffffffffffffffffff16815260200190815260200160002083815481106142b357fe5b906000526020600020018190555081600d60008773ffffffffffffffffffffffffffffffffffffffff1673ffffffffffffffffffffffffffffffffffffffff168152602001908152602001600020600083815260200190815260200160002081905550505b600c60008573ffffffffffffffffffffffffffffffffffffffff1673ffffffffffffffffffffffffffffffffffffffff16815260200190815260200160002080548061436057fe5b6001900381819060005260206000200160009055905550505050565b60008273ffffffffffffffffffffffffffffffffffffffff168260405180600001905060006040518083038185875af1925050503d80600081146143dc576040519150601f19603f3d011682016040523d82523d6000602084013e6143e1565b606091505b5050905080614458576040517f08c379a00000000000000000000000000000000000000000000000000000000081526004018080602001828103825260128152602001807f5452414e5346455220455448204552524f52000000000000000000000000000081525060200191505060405180910390fd5b505050565b6000828211156144d5576040517f08c379a000000000000000000000000000000000000000000000000000000000815260040180806020018281038252601e8152602001807f536166654d6174683a207375627472616374696f6e206f766572666c6f77000081525060200191505060405180910390fd5b818303905092915050565b60008082840190508381101561455e576040517f08c379a000000000000000000000000000000000000000000000000000000000815260040180806020018281038252601b8152602001807f536166654d6174683a206164646974696f6e206f766572666c6f77000000000081525060200191505060405180910390fd5b8091505092915050565b600c60008373ffffffffffffffffffffffffffffffffffffffff1673ffffffffffffffffffffffffffffffffffffffff16815260200190815260200160002080549050600d60008473ffffffffffffffffffffffffffffffffffffffff1673ffffffffffffffffffffffffffffffffffffffff168152602001908152602001600020600083815260200190815260200160002081905550600c60008373ffffffffffffffffffffffffffffffffffffffff1673ffffffffffffffffffffffffffffffffffffffff1681526020019081526020016000208190806001815401808255809150506001900390600052602060002001600090919091909150555050565b60008083141561467c57600090506146e9565b600082840290508284828161468d57fe5b04146146e4576040517f08c379a00000000000000000000000000000000000000000000000000000000081526004018080602001828103825260218152602001806148926021913960400191505060405180910390fd5b809150505b92915050565b6000808211614766576040517f08c379a000000000000000000000000000000000000000000000000000000000815260040180806020018281038252601a8152602001807f536166654d6174683a206469766973696f6e206279207a65726f00000000000081525060200191505060405180910390fd5b81838161476f57fe5b04905092915050565b6001816000016000828254019250508190555050565b600081600001549050919050565b604051806101600160405280600073ffffffffffffffffffffffffffffffffffffffff16815260200160008152602001600073ffffffffffffffffffffffffffffffffffffffff168152602001600073ffffffffffffffffffffffffffffffffffffffff1681526020016000815260200160008152602001600081526020016000815260200160008152602001600063ffffffff16815260200160008152509056fe4f776e61626c653a206e6577206f776e657220697320746865207a65726f20616464726573736f70657261746f723a207a65726f206164647265737320676976656e20666f72206e6577206f70657261746f72536166654d6174683a206d756c7469706c69636174696f6e206f766572666c6f774f70656e696e6720626964207072696365206d757374206c6f776572207468616e2066697865645072696365a264697066735822122003f7d5fed47ac34415c0ae58da8c248cbdc025dfda481aeee17a227c3ff8f17164736f6c634300060c0033",
  "immutableReferences": {},
  "source": "pragma solidity ^0.6.2;\n\nimport \"./owner/Operator.sol\";\nimport \"@openzeppelin/contracts/token/ERC721/IERC721.sol\";\nimport \"@openzeppelin/contracts/math/SafeMath.sol\";\nimport \"@openzeppelin/contracts/utils/Counters.sol\";\nimport \"@openzeppelin/contracts/utils/Pausable.sol\";\nimport \"./interfaces/IAgERC721.sol\";\n\n/// @title fixed auction\n/// @author yzbbanban\n/// @notice buy token\n/// @dev \ncontract FixedAuction is Operator{\n    event Auction(uint256 indexed _auctionId, address _token, \n                    uint256 _tokenId, address _seller, \n                    uint256 _openingBid, uint256 _fixedPrice,uint256 startTime,uint32 _auctionStatus);\n    event ReAuction(uint256 indexed _auctionId,\n                    uint256 _openingBid, uint256 _fixedPrice, uint256 startTime,uint32 _auctionStatus);\n    event LastParam(uint256 _limitTime, uint256 _extendTime, uint256 _reverseTime);\n    event Bid(uint256 indexed _auctionId, address _bidder,\n                uint256 _bidPrice, uint256 _bidCount,uint256 _expirationTime,uint32 _auctionStatus);\n    event Selling(uint256 indexed _auctionId, address _bidder, uint256 _bidPrice, uint32 _auctionStatus);\n    event Reverse(uint256 indexed _auctionId, address _bidder, uint256 _bidPrice, uint32 _auctionStatus);\n    event Fixed(uint256 indexed _auctionId, address _bidder, uint256 _bidPrice, uint32 _auctionStatus);\n    event Cancel(uint256 indexed _auctionId, address _seller,uint256 _bidPrice, uint32 _auctionStatus);\n\n    using Counters for Counters.Counter;\n    Counters.Counter private _auctionIds;\n    using SafeMath for uint256;\n\n    mapping(uint256 => BidInfo) public bidInfos;\n    uint256 public limitTime = 1 days;\n    uint256 public extendTime = 15 minutes;\n    uint256 public reverseTime = 5 days;\n    \n    uint256 public feePercent = 100; //10%\n    uint256[] public artPercent = [200,100]; //first 20%; other time 10%\n    uint256 public basePercent = 1000;\n    address public platform;\n    mapping(address => mapping(uint256 => bool)) public isNotFirstAuction;\n    //my bids \n    mapping(address => uint256[]) myBidInfos;\n    //my => auction id => index\n    mapping(address => mapping(uint256 => uint256)) myBidInfoIndex;\n\n    IAgERC721 artGee;\n\n    uint256[] public artList;\n\n    constructor(IAgERC721 _artGee, address _platform) public{\n        artGee = _artGee;\n        platform = _platform;\n    }\n\n    struct BidInfo{\n        address token;\n        uint256 tokenId;\n        address seller;\n        address bidder;//change\n        uint256 openingBid;\n        uint256 fixedPrice;\n        uint256 bidPrice;//change\n        uint256 bidCount;//change\n        uint256 startTime;\n        uint32 auctionStatus;// 0 init; 1 bid; 2 bidder reverse;3 seller finish; 4 bidder finish 5 seller cancel\n        uint256 expirationTime;//change\n    }\n    \n    function getMyArtList(address _owner) view public returns(uint256[] memory){\n        return myBidInfos[_owner];\n    }\n\n    function getArtList() view public returns(uint256[] memory _artList){\n        return artList;\n    }\n\n    function setReverseTime(uint256 _limitTime,uint256 _extendTime, uint256 _reverseTime) public onlyOwner(){\n        emit LastParam(limitTime, extendTime, reverseTime);\n        if(_limitTime != 0){\n            limitTime = _limitTime;\n        }\n        if(_extendTime != 0){\n            extendTime = _extendTime;\n        }\n        if(_reverseTime != 0){\n            reverseTime = _reverseTime;\n        }\n    }\n\n    function setArtgee(IAgERC721 _artGee,address _platform) public onlyOwner(){\n        artGee = _artGee;\n        platform = _platform;\n    }\n\n    function auction(address _token, uint256 _tokenId, \n                    uint256 _openingBid,\n                    uint256 _fixedPrice) public{\n        require(_openingBid < _fixedPrice,\"Opening bid price must lower than fixedPrice\");\n        _auctionIds.increment();\n        uint256 auctionId = _auctionIds.current();\n        BidInfo storage bidInfo = bidInfos[auctionId];\n        bidInfo.token = _token;\n        bidInfo.tokenId = _tokenId;\n        bidInfo.seller = msg.sender;\n        bidInfo.openingBid = _openingBid;\n        bidInfo.bidPrice = _openingBid;\n        bidInfo.fixedPrice = _fixedPrice;\n        bidInfo.bidder = address(0);        \n        bidInfo.bidCount = 0;\n        uint256 t = block.timestamp;\n        bidInfo.startTime = t;\n        //1 day later\n        bidInfo.expirationTime = t.add(limitTime);\n        bidInfo.auctionStatus = 0;\n        //add tokenId\n        IERC721 ierc721 = IERC721(_token);\n        ierc721.safeTransferFrom(msg.sender, address(this), _tokenId);\n        // add my auction\n        _addMyAuction(msg.sender,auctionId);\n        emit Auction(auctionId,_token, _tokenId, msg.sender, _openingBid,_fixedPrice, t,0);\n    }\n\n    function reAuction(uint256 _auctionId, uint256 _openingBid, \n                    uint256 _fixedPrice) public{\n        BidInfo storage bidInfo = bidInfos[_auctionId];\n        //must wait for auction over\n        require(bidInfo.seller == msg.sender,\"Not auction id seller\");\n        require(block.timestamp > bidInfo.expirationTime, \"Auction not over\");\n        //bidder has already reverse\n        if(bidInfo.auctionStatus == 1){\n            //sende coin to bidder\n            transferMain(bidInfo.bidder, bidInfo.bidPrice);\n        }\n        bidInfo.seller = msg.sender;\n        bidInfo.openingBid = _openingBid;\n        bidInfo.bidPrice = _openingBid;\n        bidInfo.fixedPrice = _fixedPrice;\n        bidInfo.bidder = address(0);        \n        uint256 t = block.timestamp;\n        bidInfo.startTime = t;\n        //1 day later\n        bidInfo.expirationTime = t.add(limitTime);\n        bidInfo.auctionStatus = 0;\n        bidInfo.bidCount = 0;\n        // remove bidder's auctionId\n        _removeMyAuction(bidInfo.bidder, _auctionId);\n        emit ReAuction(_auctionId, _openingBid, _fixedPrice, t,0);\n    }\n\n    function bid(uint256 _auctionId) payable public{\n        BidInfo storage bidInfo = bidInfos[_auctionId];\n        //now time > expiration time then auction over\n        require(block.timestamp <= bidInfo.expirationTime, \"Auction over\");\n        require(bidInfo.auctionStatus == 0 || bidInfo.auctionStatus == 1, \"Not on auction\");\n        require(msg.sender != bidInfo.seller, \"Seller can not bid\");\n        require(msg.sender != bidInfo.bidder, \"Bidder can not repeat bid\");\n        uint256 nowBidPrice = bidInfo.bidPrice;\n        //transfer to last bidder\n        if(bidInfo.bidCount!=0){\n            transferMain(bidInfo.bidder, bidInfo.bidPrice);\n            require(msg.value > nowBidPrice, \"Value error\");\n        }else{\n            require(msg.value == nowBidPrice, \"Value error\");\n        }\n        require(msg.value < bidInfo.fixedPrice, \"Over fixed price\");\n        //update price\n        bidInfo.bidPrice = msg.value;\n        // expiration time - (startTime + 1day) => update expiration\n        if(bidInfo.expirationTime.sub(block.timestamp) <= extendTime){\n            bidInfo.expirationTime = block.timestamp.add(extendTime);\n        }\n        // add bidder auction id and remove seller auction id\n        if(bidInfo.bidder != address(0)){\n            _removeMyAuction(bidInfo.bidder, _auctionId);\n        }\n        _addMyAuction(msg.sender,_auctionId);\n        //reset bidder\n        bidInfo.bidder = msg.sender;\n        //add bid count\n        bidInfo.auctionStatus = 1;\n        bidInfo.bidCount = bidInfo.bidCount.add(1);\n        emit Bid(_auctionId, msg.sender, nowBidPrice, bidInfo.bidCount,bidInfo.expirationTime, 1);\n    }\n\n    function getCurrentPrice(uint256 _auctionId) view public returns(uint256 _nowBidPrice){\n        BidInfo memory bidInfo = bidInfos[_auctionId];\n        return bidInfo.bidPrice;\n    }\n    \n    //seller cancel\n    function cancel(uint256 _auctionId) public{\n        BidInfo storage bidInfo = bidInfos[_auctionId];\n        require(bidInfo.seller == msg.sender,\"Not auction id seller\");\n        // must end\n        require(bidInfo.expirationTime < block.timestamp, \"On auction\");\n        require(bidInfo.auctionStatus == 0 || bidInfo.auctionStatus == 1, \"Has bid\");\n        if(bidInfo.bidder != address(0)){\n            //remove bidder list\n            _removeMyAuction(bidInfo.bidder, _auctionId);\n        }\n        uint256 refund = 0;\n        if(bidInfo.auctionStatus == 1){\n            refund = bidInfo.bidPrice;\n            //has bid send coin to bidder\n            transferMain(bidInfo.bidder, bidInfo.bidPrice);\n            //remove seller list\n            _removeMyAuction(bidInfo.seller, _auctionId);\n        }\n        IERC721 ierc721 = IERC721(bidInfo.token);\n        ierc721.safeTransferFrom(address(this),msg.sender, bidInfo.tokenId);\n        bidInfo.auctionStatus = 5;\n        emit Cancel(_auctionId, bidInfo.seller, refund, 5);\n    }\n\n    //seller executor\n    function sellingSettlementPrice(uint256 _auctionId) public{\n        BidInfo storage bidInfo = bidInfos[_auctionId];\n        require(msg.sender == bidInfo.seller, \"Not seller\");\n        require(bidInfo.auctionStatus == 1, \"Not on bid\");\n        bidInfo.auctionStatus = 3;\n        uint256 amount = bidInfo.bidPrice;\n        //721 transfer current bidder , get bidder price\n        IERC721 ierc721 = IERC721(bidInfo.token);\n        ierc721.safeTransferFrom(address(this), bidInfo.bidder, bidInfo.tokenId);\n        //fee to platform\n        uint256 _fee = amount.mul(feePercent).div(basePercent);\n        uint256 _artistFee = 0; \n        transferMain(platform,_fee);\n        //artist share in the benefit \n        if(address(artGee) == bidInfo.token){\n            (uint256 artId,,)=artGee.tokenArts(bidInfo.tokenId);\n            (,,,address creator,\n                address[] memory assistants,\n                uint256[] memory benefits,)=artGee.getSourceDigitalArt(artId);\n            bool isNotFirst = isNotFirstAuction[bidInfo.token][bidInfo.tokenId];\n            //first time 20% to artist,other time 10% \n            _artistFee = amount.mul(isNotFirst ? artPercent[1]:artPercent[0]).div(basePercent);\n            if(assistants.length == 0){\n                //send to creator\n                transferMain(creator,_artistFee);\n            }else{\n                //send to creator and other assistant\n                for (uint256 index = 0; index < benefits.length; index++) {\n                    if(index==0){\n                        // to creator\n                        transferMain(creator,_artistFee.mul(benefits[index]).div(basePercent));\n                    }else{\n                        // to assistants\n                        transferMain(assistants[index-1],_artistFee.mul(benefits[index]).div(basePercent));\n                    }\n                }\n            }\n            isNotFirstAuction[bidInfo.token][bidInfo.tokenId] = true;\n        }\n        // to seller\n        transferMain(bidInfo.seller, amount.sub(_fee).sub(_artistFee));\n        emit Selling(_auctionId,bidInfo.bidder,amount.sub(_fee).sub(_artistFee),3);\n    }\n\n    //bidder execute\n    function bidderReverse(uint256 _auctionId) public{\n        BidInfo storage bidInfo = bidInfos[_auctionId];\n        require(msg.sender == bidInfo.bidder, \"Not bidder\");\n        // if bidder wanner his coin, current time must over than `reverseTime`\n        require(bidInfo.expirationTime.add(reverseTime) <= block.timestamp, \"On auction\");\n        require(bidInfo.auctionStatus == 1, \"Reverse not on bid\");\n        //coin send to bidder\n        transferMain(msg.sender, bidInfo.bidPrice);\n        bidInfo.auctionStatus = 2;\n        _removeMyAuction(bidInfo.bidder, _auctionId);\n        emit Reverse(_auctionId, bidInfo.bidder, bidInfo.bidPrice,2);\n    }\n\n    //auction success bidder execute\n    function fixedWithdraw(uint256 _auctionId) payable public{\n        BidInfo storage bidInfo = bidInfos[_auctionId];\n        require(bidInfo.auctionStatus == 1 || bidInfo.auctionStatus == 0, \"Withdraw not on bid or on sell\");\n        require(bidInfo.expirationTime >= block.timestamp, \"Not on auction\");\n        require(bidInfo.fixedPrice == msg.value,\"Not fixed price\");\n        uint256 amount = bidInfo.fixedPrice;\n        bidInfo.auctionStatus = 4;\n        //721 transfer current bidder , get bidder price\n        IERC721 ierc721 = IERC721(bidInfo.token);\n        ierc721.safeTransferFrom(address(this), msg.sender, bidInfo.tokenId);\n        //fee to platform\n        uint256 _fee = amount.mul(feePercent).div(basePercent);\n        uint256 _artistFee = 0; \n        transferMain(platform,_fee);\n        //artist share in the benefit \n        if(address(artGee) == bidInfo.token){\n            (uint256 artId,,)=artGee.tokenArts(bidInfo.tokenId);\n            (,,,address creator,\n                address[] memory assistants,\n                uint256[] memory benefits,)=artGee.getSourceDigitalArt(artId);\n            bool isNotFirst = isNotFirstAuction[bidInfo.token][bidInfo.tokenId];\n            //first time 20% to artist,other time 10% \n            _artistFee = amount.mul(isNotFirst ? artPercent[1]:artPercent[0]).div(basePercent);\n            if(assistants.length == 0){\n                //send to creator\n                transferMain(creator,_artistFee);\n            }else{\n                //send to creator and other assistant\n                for (uint256 index = 0; index < benefits.length; index++) {\n                    if(index==0){\n                        // to creator\n                        transferMain(creator,_artistFee.mul(benefits[index]).div(basePercent));\n                    }else{\n                        // to assistants\n                        transferMain(assistants[index-1],_artistFee.mul(benefits[index]).div(basePercent));\n                    }\n                }\n            }\n            isNotFirstAuction[bidInfo.token][bidInfo.tokenId] = true;\n        }\n        // to seller\n        bidInfo.bidder = msg.sender;\n        transferMain(bidInfo.seller, amount.sub(_fee).sub(_artistFee));\n        emit Fixed(_auctionId,bidInfo.bidder,amount.sub(_fee).sub(_artistFee),4);\n    }\n\n    function _addMyAuction(address _owner,uint256 _auctionId) internal{\n        myBidInfoIndex[_owner][_auctionId] = myBidInfos[_owner].length;\n        myBidInfos[_owner].push(_auctionId);\n    }\n\n    function _removeMyAuction(address _owner, uint256 _auctionId) internal{\n        uint256 lastIndex = myBidInfos[_owner].length.sub(1);\n        uint256 currentIndex = myBidInfoIndex[_owner][_auctionId];\n        if(lastIndex != currentIndex){\n            uint256 lastAuctionId = myBidInfos[_owner][lastIndex];\n            myBidInfos[_owner][currentIndex] = lastAuctionId;\n            myBidInfoIndex[_owner][lastAuctionId] = currentIndex;\n        }\n        myBidInfos[_owner].pop();\n    }\n\n    function transferMain(address _address, uint256 _value) internal{\n        (bool res, ) = address(uint160(_address)).call{value:_value}(\"\");\n        require(res,\"TRANSFER ETH ERROR\");\n    }\n\n    /**\n     * @dev See {IERC721Receiver-onERC721Received}.\n     *\n     * Always returns `IERC721Receiver.onERC721Received.selector`.\n     */\n    function onERC721Received(address, address, uint256, bytes memory) public pure returns (bytes4) {\n        return this.onERC721Received.selector;\n    }\n\n    receive () external payable {}\n}",
  "sourcePath": "/Users/wangban/Downloads/money/coin/other/artgee/ArtGee-Contract/contracts/FixedAuction.sol",
  "compiler": {
    "name": "solc",
    "version": "0.6.12+commit.27d51765.Emscripten.clang"
  },
  "schemaVersion": "3.3.2",
  "updatedAt": "2021-04-15T16:06:10.387Z",
  "devdoc": {
    "author": "yzbbanban",
    "kind": "dev",
    "methods": {
      "onERC721Received(address,address,uint256,bytes)": {
        "details": "See {IERC721Receiver-onERC721Received}. Always returns `IERC721Receiver.onERC721Received.selector`."
      },
      "owner()": {
        "details": "Returns the address of the current owner."
      },
      "renounceOwnership()": {
        "details": "Leaves the contract without owner. It will not be possible to call `onlyOwner` functions anymore. Can only be called by the current owner. NOTE: Renouncing ownership will leave the contract without an owner, thereby removing any functionality that is only available to the owner."
      },
      "transferOwnership(address)": {
        "details": "Transfers ownership of the contract to a new account (`newOwner`). Can only be called by the current owner."
      }
    },
    "title": "fixed auction",
    "version": 1
  },
  "userdoc": {
    "kind": "user",
    "methods": {},
    "notice": "buy token",
    "version": 1
  }
}