{
  "contractName": "FixedAuction",
  "abi": [
    {
      "inputs": [
        {
          "internalType": "contract IAgERC721",
          "name": "_artGee",
          "type": "address"
        },
        {
          "internalType": "address",
          "name": "_platform",
          "type": "address"
        }
      ],
      "stateMutability": "nonpayable",
      "type": "constructor"
    },
    {
      "anonymous": false,
      "inputs": [
        {
          "indexed": true,
          "internalType": "uint256",
          "name": "_auctionId",
          "type": "uint256"
        },
        {
          "indexed": false,
          "internalType": "address",
          "name": "_token",
          "type": "address"
        },
        {
          "indexed": false,
          "internalType": "uint256",
          "name": "_tokenId",
          "type": "uint256"
        },
        {
          "indexed": false,
          "internalType": "address",
          "name": "_seller",
          "type": "address"
        },
        {
          "indexed": false,
          "internalType": "uint256",
          "name": "_openingBid",
          "type": "uint256"
        },
        {
          "indexed": false,
          "internalType": "uint256",
          "name": "_fixedPrice",
          "type": "uint256"
        },
        {
          "indexed": false,
          "internalType": "uint32",
          "name": "_auctionStatus",
          "type": "uint32"
        }
      ],
      "name": "Auction",
      "type": "event"
    },
    {
      "anonymous": false,
      "inputs": [
        {
          "indexed": true,
          "internalType": "uint256",
          "name": "_auctionId",
          "type": "uint256"
        },
        {
          "indexed": false,
          "internalType": "address",
          "name": "_bidder",
          "type": "address"
        },
        {
          "indexed": false,
          "internalType": "uint256",
          "name": "_bidPrice",
          "type": "uint256"
        },
        {
          "indexed": false,
          "internalType": "uint256",
          "name": "_bidCount",
          "type": "uint256"
        },
        {
          "indexed": false,
          "internalType": "uint256",
          "name": "_startTime",
          "type": "uint256"
        },
        {
          "indexed": false,
          "internalType": "uint256",
          "name": "_expirationTime",
          "type": "uint256"
        },
        {
          "indexed": false,
          "internalType": "uint32",
          "name": "_auctionStatus",
          "type": "uint32"
        }
      ],
      "name": "Bid",
      "type": "event"
    },
    {
      "anonymous": false,
      "inputs": [
        {
          "indexed": true,
          "internalType": "uint256",
          "name": "_auctionId",
          "type": "uint256"
        },
        {
          "indexed": false,
          "internalType": "address",
          "name": "_seller",
          "type": "address"
        },
        {
          "indexed": false,
          "internalType": "uint256",
          "name": "_bidPrice",
          "type": "uint256"
        },
        {
          "indexed": false,
          "internalType": "uint32",
          "name": "_auctionStatus",
          "type": "uint32"
        }
      ],
      "name": "Cancel",
      "type": "event"
    },
    {
      "anonymous": false,
      "inputs": [
        {
          "indexed": true,
          "internalType": "uint256",
          "name": "_auctionId",
          "type": "uint256"
        },
        {
          "indexed": false,
          "internalType": "address",
          "name": "_bidder",
          "type": "address"
        },
        {
          "indexed": false,
          "internalType": "uint256",
          "name": "_bidPrice",
          "type": "uint256"
        },
        {
          "indexed": false,
          "internalType": "uint32",
          "name": "_auctionStatus",
          "type": "uint32"
        }
      ],
      "name": "Fixed",
      "type": "event"
    },
    {
      "anonymous": false,
      "inputs": [
        {
          "indexed": false,
          "internalType": "uint256",
          "name": "_limitTime",
          "type": "uint256"
        },
        {
          "indexed": false,
          "internalType": "uint256",
          "name": "_extendTime",
          "type": "uint256"
        },
        {
          "indexed": false,
          "internalType": "uint256",
          "name": "_reverseTime",
          "type": "uint256"
        }
      ],
      "name": "LastParam",
      "type": "event"
    },
    {
      "anonymous": false,
      "inputs": [
        {
          "indexed": true,
          "internalType": "address",
          "name": "previousOperator",
          "type": "address"
        },
        {
          "indexed": true,
          "internalType": "address",
          "name": "newOperator",
          "type": "address"
        }
      ],
      "name": "OperatorTransferred",
      "type": "event"
    },
    {
      "anonymous": false,
      "inputs": [
        {
          "indexed": true,
          "internalType": "address",
          "name": "previousOwner",
          "type": "address"
        },
        {
          "indexed": true,
          "internalType": "address",
          "name": "newOwner",
          "type": "address"
        }
      ],
      "name": "OwnershipTransferred",
      "type": "event"
    },
    {
      "anonymous": false,
      "inputs": [
        {
          "indexed": true,
          "internalType": "uint256",
          "name": "_auctionId",
          "type": "uint256"
        },
        {
          "indexed": false,
          "internalType": "uint256",
          "name": "_openingBid",
          "type": "uint256"
        },
        {
          "indexed": false,
          "internalType": "uint256",
          "name": "_fixedPrice",
          "type": "uint256"
        },
        {
          "indexed": false,
          "internalType": "uint32",
          "name": "_auctionStatus",
          "type": "uint32"
        }
      ],
      "name": "ReAuction",
      "type": "event"
    },
    {
      "anonymous": false,
      "inputs": [
        {
          "indexed": true,
          "internalType": "uint256",
          "name": "_auctionId",
          "type": "uint256"
        },
        {
          "indexed": false,
          "internalType": "address",
          "name": "_bidder",
          "type": "address"
        },
        {
          "indexed": false,
          "internalType": "uint256",
          "name": "_bidPrice",
          "type": "uint256"
        },
        {
          "indexed": false,
          "internalType": "uint32",
          "name": "_auctionStatus",
          "type": "uint32"
        }
      ],
      "name": "Reverse",
      "type": "event"
    },
    {
      "anonymous": false,
      "inputs": [
        {
          "indexed": true,
          "internalType": "uint256",
          "name": "_auctionId",
          "type": "uint256"
        },
        {
          "indexed": false,
          "internalType": "address",
          "name": "_bidder",
          "type": "address"
        },
        {
          "indexed": false,
          "internalType": "uint256",
          "name": "_bidPrice",
          "type": "uint256"
        },
        {
          "indexed": false,
          "internalType": "uint32",
          "name": "_auctionStatus",
          "type": "uint32"
        }
      ],
      "name": "Selling",
      "type": "event"
    },
    {
      "inputs": [],
      "name": "artGee",
      "outputs": [
        {
          "internalType": "contract IAgERC721",
          "name": "",
          "type": "address"
        }
      ],
      "stateMutability": "view",
      "type": "function"
    },
    {
      "inputs": [
        {
          "internalType": "uint256",
          "name": "",
          "type": "uint256"
        }
      ],
      "name": "artList",
      "outputs": [
        {
          "internalType": "uint256",
          "name": "",
          "type": "uint256"
        }
      ],
      "stateMutability": "view",
      "type": "function"
    },
    {
      "inputs": [
        {
          "internalType": "uint256",
          "name": "",
          "type": "uint256"
        }
      ],
      "name": "artPercent",
      "outputs": [
        {
          "internalType": "uint256",
          "name": "",
          "type": "uint256"
        }
      ],
      "stateMutability": "view",
      "type": "function"
    },
    {
      "inputs": [],
      "name": "basePercent",
      "outputs": [
        {
          "internalType": "uint256",
          "name": "",
          "type": "uint256"
        }
      ],
      "stateMutability": "view",
      "type": "function"
    },
    {
      "inputs": [
        {
          "internalType": "uint256",
          "name": "",
          "type": "uint256"
        }
      ],
      "name": "bidInfos",
      "outputs": [
        {
          "internalType": "address",
          "name": "token",
          "type": "address"
        },
        {
          "internalType": "uint256",
          "name": "tokenId",
          "type": "uint256"
        },
        {
          "internalType": "address",
          "name": "seller",
          "type": "address"
        },
        {
          "internalType": "address",
          "name": "bidder",
          "type": "address"
        },
        {
          "internalType": "uint256",
          "name": "openingBid",
          "type": "uint256"
        },
        {
          "internalType": "uint256",
          "name": "fixedPrice",
          "type": "uint256"
        },
        {
          "internalType": "uint256",
          "name": "bidPrice",
          "type": "uint256"
        },
        {
          "internalType": "uint256",
          "name": "bidCount",
          "type": "uint256"
        },
        {
          "internalType": "uint256",
          "name": "startTime",
          "type": "uint256"
        },
        {
          "internalType": "uint32",
          "name": "auctionStatus",
          "type": "uint32"
        },
        {
          "internalType": "uint256",
          "name": "expirationTime",
          "type": "uint256"
        }
      ],
      "stateMutability": "view",
      "type": "function"
    },
    {
      "inputs": [],
      "name": "extendTime",
      "outputs": [
        {
          "internalType": "uint256",
          "name": "",
          "type": "uint256"
        }
      ],
      "stateMutability": "view",
      "type": "function"
    },
    {
      "inputs": [],
      "name": "feePercent",
      "outputs": [
        {
          "internalType": "uint256",
          "name": "",
          "type": "uint256"
        }
      ],
      "stateMutability": "view",
      "type": "function"
    },
    {
      "inputs": [],
      "name": "getArtList",
      "outputs": [
        {
          "internalType": "uint256[]",
          "name": "_artList",
          "type": "uint256[]"
        }
      ],
      "stateMutability": "view",
      "type": "function"
    },
    {
      "inputs": [
        {
          "internalType": "address",
          "name": "_owner",
          "type": "address"
        }
      ],
      "name": "getMyArtList",
      "outputs": [
        {
          "internalType": "uint256[]",
          "name": "",
          "type": "uint256[]"
        }
      ],
      "stateMutability": "view",
      "type": "function"
    },
    {
      "inputs": [
        {
          "internalType": "address",
          "name": "",
          "type": "address"
        },
        {
          "internalType": "uint256",
          "name": "",
          "type": "uint256"
        }
      ],
      "name": "isNotFirstAuction",
      "outputs": [
        {
          "internalType": "bool",
          "name": "",
          "type": "bool"
        }
      ],
      "stateMutability": "view",
      "type": "function"
    },
    {
      "inputs": [],
      "name": "isOperator",
      "outputs": [
        {
          "internalType": "bool",
          "name": "",
          "type": "bool"
        }
      ],
      "stateMutability": "view",
      "type": "function"
    },
    {
      "inputs": [],
      "name": "limitTime",
      "outputs": [
        {
          "internalType": "uint256",
          "name": "",
          "type": "uint256"
        }
      ],
      "stateMutability": "view",
      "type": "function"
    },
    {
      "inputs": [
        {
          "internalType": "address",
          "name": "",
          "type": "address"
        },
        {
          "internalType": "uint256",
          "name": "",
          "type": "uint256"
        }
      ],
      "name": "myBidInfos",
      "outputs": [
        {
          "internalType": "uint256",
          "name": "",
          "type": "uint256"
        }
      ],
      "stateMutability": "view",
      "type": "function"
    },
    {
      "inputs": [
        {
          "internalType": "address",
          "name": "",
          "type": "address"
        },
        {
          "internalType": "address",
          "name": "",
          "type": "address"
        },
        {
          "internalType": "uint256",
          "name": "",
          "type": "uint256"
        },
        {
          "internalType": "bytes",
          "name": "",
          "type": "bytes"
        }
      ],
      "name": "onERC721Received",
      "outputs": [
        {
          "internalType": "bytes4",
          "name": "",
          "type": "bytes4"
        }
      ],
      "stateMutability": "pure",
      "type": "function"
    },
    {
      "inputs": [],
      "name": "operator",
      "outputs": [
        {
          "internalType": "address",
          "name": "",
          "type": "address"
        }
      ],
      "stateMutability": "view",
      "type": "function"
    },
    {
      "inputs": [],
      "name": "owner",
      "outputs": [
        {
          "internalType": "address",
          "name": "",
          "type": "address"
        }
      ],
      "stateMutability": "view",
      "type": "function"
    },
    {
      "inputs": [],
      "name": "platform",
      "outputs": [
        {
          "internalType": "address",
          "name": "",
          "type": "address"
        }
      ],
      "stateMutability": "view",
      "type": "function"
    },
    {
      "inputs": [],
      "name": "renounceOwnership",
      "outputs": [],
      "stateMutability": "nonpayable",
      "type": "function"
    },
    {
      "inputs": [],
      "name": "reverseTime",
      "outputs": [
        {
          "internalType": "uint256",
          "name": "",
          "type": "uint256"
        }
      ],
      "stateMutability": "view",
      "type": "function"
    },
    {
      "inputs": [
        {
          "internalType": "uint256",
          "name": "_feePercent",
          "type": "uint256"
        },
        {
          "internalType": "uint256[2]",
          "name": "_artPercents",
          "type": "uint256[2]"
        }
      ],
      "name": "setArtPercent",
      "outputs": [],
      "stateMutability": "nonpayable",
      "type": "function"
    },
    {
      "inputs": [
        {
          "internalType": "contract IAgERC721",
          "name": "_artGee",
          "type": "address"
        },
        {
          "internalType": "address",
          "name": "_platform",
          "type": "address"
        }
      ],
      "name": "setArtgee",
      "outputs": [],
      "stateMutability": "nonpayable",
      "type": "function"
    },
    {
      "inputs": [
        {
          "internalType": "address",
          "name": "newOperator_",
          "type": "address"
        }
      ],
      "name": "transferOperator",
      "outputs": [],
      "stateMutability": "nonpayable",
      "type": "function"
    },
    {
      "inputs": [
        {
          "internalType": "address",
          "name": "newOwner",
          "type": "address"
        }
      ],
      "name": "transferOwnership",
      "outputs": [],
      "stateMutability": "nonpayable",
      "type": "function"
    },
    {
      "stateMutability": "payable",
      "type": "receive"
    },
    {
      "inputs": [
        {
          "internalType": "uint256",
          "name": "_limitTime",
          "type": "uint256"
        },
        {
          "internalType": "uint256",
          "name": "_extendTime",
          "type": "uint256"
        },
        {
          "internalType": "uint256",
          "name": "_reverseTime",
          "type": "uint256"
        }
      ],
      "name": "setReverseTime",
      "outputs": [],
      "stateMutability": "nonpayable",
      "type": "function"
    },
    {
      "inputs": [
        {
          "internalType": "address",
          "name": "_token",
          "type": "address"
        },
        {
          "internalType": "uint256",
          "name": "_tokenId",
          "type": "uint256"
        },
        {
          "internalType": "uint256",
          "name": "_openingBid",
          "type": "uint256"
        },
        {
          "internalType": "uint256",
          "name": "_fixedPrice",
          "type": "uint256"
        }
      ],
      "name": "auction",
      "outputs": [],
      "stateMutability": "nonpayable",
      "type": "function"
    },
    {
      "inputs": [
        {
          "internalType": "uint256",
          "name": "_auctionId",
          "type": "uint256"
        },
        {
          "internalType": "uint256",
          "name": "_openingBid",
          "type": "uint256"
        },
        {
          "internalType": "uint256",
          "name": "_fixedPrice",
          "type": "uint256"
        }
      ],
      "name": "reAuction",
      "outputs": [],
      "stateMutability": "nonpayable",
      "type": "function"
    },
    {
      "inputs": [
        {
          "internalType": "uint256",
          "name": "_auctionId",
          "type": "uint256"
        }
      ],
      "name": "bid",
      "outputs": [],
      "stateMutability": "payable",
      "type": "function"
    },
    {
      "inputs": [
        {
          "internalType": "uint256",
          "name": "_auctionId",
          "type": "uint256"
        }
      ],
      "name": "getCurrentPrice",
      "outputs": [
        {
          "internalType": "uint256",
          "name": "_nowBidPrice",
          "type": "uint256"
        }
      ],
      "stateMutability": "view",
      "type": "function"
    },
    {
      "inputs": [
        {
          "internalType": "uint256",
          "name": "_auctionId",
          "type": "uint256"
        }
      ],
      "name": "cancel",
      "outputs": [],
      "stateMutability": "nonpayable",
      "type": "function"
    },
    {
      "inputs": [
        {
          "internalType": "uint256",
          "name": "_auctionId",
          "type": "uint256"
        }
      ],
      "name": "sellingSettlementPrice",
      "outputs": [],
      "stateMutability": "nonpayable",
      "type": "function"
    },
    {
      "inputs": [
        {
          "internalType": "uint256",
          "name": "_auctionId",
          "type": "uint256"
        }
      ],
      "name": "bidderReverse",
      "outputs": [],
      "stateMutability": "nonpayable",
      "type": "function"
    },
    {
      "inputs": [
        {
          "internalType": "uint256",
          "name": "_auctionId",
          "type": "uint256"
        }
      ],
      "name": "fixedWithdraw",
      "outputs": [],
      "stateMutability": "payable",
      "type": "function"
    }
  ],
  "bytecode": "0x60806040526064600355604051806040016040528060c860ff168152602001606460ff16815250600490600262000038929190620002b0565b506103e860055562015180600d55610384600e5562069780600f553480156200006057600080fd5b50604051620049a5380380620049a5833981810160405260408110156200008657600080fd5b8101908080519060200190929190805190602001909291905050506000620000b3620002a860201b60201c565b9050806000806101000a81548173ffffffffffffffffffffffffffffffffffffffff021916908373ffffffffffffffffffffffffffffffffffffffff1602179055508073ffffffffffffffffffffffffffffffffffffffff16600073ffffffffffffffffffffffffffffffffffffffff167f8be0079c531659141344cd1fd0a4f28419497f9722a3daafe3b4186f6b6457e060405160405180910390a35062000161620002a860201b60201c565b600160006101000a81548173ffffffffffffffffffffffffffffffffffffffff021916908373ffffffffffffffffffffffffffffffffffffffff160217905550600160009054906101000a900473ffffffffffffffffffffffffffffffffffffffff1673ffffffffffffffffffffffffffffffffffffffff16600073ffffffffffffffffffffffffffffffffffffffff167f74da04524d50c64947f5dd5381ef1a4dca5cba8ed1d816243f9e48aa0b5617ed60405160405180910390a381600260006101000a81548173ffffffffffffffffffffffffffffffffffffffff021916908373ffffffffffffffffffffffffffffffffffffffff16021790555080600660006101000a81548173ffffffffffffffffffffffffffffffffffffffff021916908373ffffffffffffffffffffffffffffffffffffffff160217905550505062000326565b600033905090565b828054828255906000526020600020908101928215620002f4579160200282015b82811115620002f3578251829060ff16905591602001919060010190620002d1565b5b50905062000303919062000307565b5090565b5b808211156200032257600081600090555060010162000308565b5090565b61466f80620003366000396000f3fe6080604052600436106101e75760003560e01c80638e4bb9a111610102578063cb350d2611610095578063f288f46f11610064578063f288f46f14610ac3578063f2ec6fad14610ba0578063f2fde38b14610bef578063fc83966314610c40576101ee565b8063cb350d26146109bc578063d5422f86146109f7578063d961eb1d14610a46578063f16a81a214610a74576101ee565b8063b76b63ec116100d1578063b76b63ec14610867578063baa283d3146108d3578063c55d0f5614610942578063c5ac0ded14610991576101ee565b80638e4bb9a114610777578063a525d199146107a2578063abb6ae8914610811578063b3b95e301461083c576101ee565b80634bde38c81161017a578063715018a611610149578063715018a6146106a557806376467423146106bc5780637fd6f15c1461070b5780638da5cb5b14610736576101ee565b80634bde38c8146105a75780635313a89c146105e8578063570ca735146106295780635b4458a01461066a576101ee565b806329605e77116101b657806329605e77146104c057806340e58ee5146105115780634456eda21461054c578063454a2ab314610579576101ee565b80630773b15b146101f3578063122e986f14610264578063150b7a02146102d557806319e9e3c81461041a576101ee565b366101ee57005b600080fd5b3480156101ff57600080fd5b5061024c6004803603604081101561021657600080fd5b81019080803573ffffffffffffffffffffffffffffffffffffffff16906020019092919080359060200190929190505050610cbc565b60405180821515815260200191505060405180910390f35b34801561027057600080fd5b506102d36004803603604081101561028757600080fd5b81019080803573ffffffffffffffffffffffffffffffffffffffff169060200190929190803573ffffffffffffffffffffffffffffffffffffffff169060200190929190505050610ceb565b005b3480156102e157600080fd5b506103e5600480360360808110156102f857600080fd5b81019080803573ffffffffffffffffffffffffffffffffffffffff169060200190929190803573ffffffffffffffffffffffffffffffffffffffff169060200190929190803590602001909291908035906020019064010000000081111561035f57600080fd5b82018360208201111561037157600080fd5b8035906020019184600183028401116401000000008311171561039357600080fd5b91908080601f016020809104026020016040519081016040528093929190818152602001838380828437600081840152601f19601f820116905080830192505050505050509192919290505050610e20565b60405180827bffffffffffffffffffffffffffffffffffffffffffffffffffffffff1916815260200191505060405180910390f35b34801561042657600080fd5b506104696004803603602081101561043d57600080fd5b81019080803573ffffffffffffffffffffffffffffffffffffffff169060200190929190505050610e34565b6040518080602001828103825283818151815260200191508051906020019060200280838360005b838110156104ac578082015181840152602081019050610491565b505050509050019250505060405180910390f35b3480156104cc57600080fd5b5061050f600480360360208110156104e357600080fd5b81019080803573ffffffffffffffffffffffffffffffffffffffff169060200190929190505050610ecb565b005b34801561051d57600080fd5b5061054a6004803603602081101561053457600080fd5b8101908080359060200190929190505050610f86565b005b34801561055857600080fd5b506105616113bb565b60405180821515815260200191505060405180910390f35b6105a56004803603602081101561058f57600080fd5b810190808035906020019092919050505061141a565b005b3480156105b357600080fd5b506105bc611b29565b604051808273ffffffffffffffffffffffffffffffffffffffff16815260200191505060405180910390f35b3480156105f457600080fd5b506105fd611b4f565b604051808273ffffffffffffffffffffffffffffffffffffffff16815260200191505060405180910390f35b34801561063557600080fd5b5061063e611b75565b604051808273ffffffffffffffffffffffffffffffffffffffff16815260200191505060405180910390f35b34801561067657600080fd5b506106a36004803603602081101561068d57600080fd5b8101908080359060200190929190505050611b9f565b005b3480156106b157600080fd5b506106ba611dca565b005b3480156106c857600080fd5b506106f5600480360360208110156106df57600080fd5b8101908080359060200190929190505050611f37565b6040518082815260200191505060405180910390f35b34801561071757600080fd5b50610720611f58565b6040518082815260200191505060405180910390f35b34801561074257600080fd5b5061074b611f5e565b604051808273ffffffffffffffffffffffffffffffffffffffff16815260200191505060405180910390f35b34801561078357600080fd5b5061078c611f87565b6040518082815260200191505060405180910390f35b3480156107ae57600080fd5b506107fb600480360360408110156107c557600080fd5b81019080803573ffffffffffffffffffffffffffffffffffffffff16906020019092919080359060200190929190505050611f8d565b6040518082815260200191505060405180910390f35b34801561081d57600080fd5b50610826611fbb565b6040518082815260200191505060405180910390f35b34801561084857600080fd5b50610851611fc1565b6040518082815260200191505060405180910390f35b34801561087357600080fd5b5061087c611fc7565b6040518080602001828103825283818151815260200191508051906020019060200280838360005b838110156108bf5780820151818401526020810190506108a4565b505050509050019250505060405180910390f35b3480156108df57600080fd5b50610940600480360360808110156108f657600080fd5b81019080803573ffffffffffffffffffffffffffffffffffffffff16906020019092919080359060200190929190803590602001909291908035906020019092919050505061201f565b005b34801561094e57600080fd5b5061097b6004803603602081101561096557600080fd5b81019080803590602001909291905050506122c5565b6040518082815260200191505060405180910390f35b34801561099d57600080fd5b506109a661246b565b6040518082815260200191505060405180910390f35b3480156109c857600080fd5b506109f5600480360360208110156109df57600080fd5b8101908080359060200190929190505050612471565b005b348015610a0357600080fd5b50610a4460048036036060811015610a1a57600080fd5b81019080803590602001909291908035906020019092919080359060200190929190505050612756565b005b610a7260048036036020811015610a5c57600080fd5b8101908080359060200190929190505050612c0d565b005b348015610a8057600080fd5b50610ac160048036036060811015610a9757600080fd5b81019080803590602001909291908035906020019092919080359060200190929190505050612f3e565b005b348015610acf57600080fd5b50610afc60048036036020811015610ae657600080fd5b810190808035906020019092919050505061306f565b604051808c73ffffffffffffffffffffffffffffffffffffffff1681526020018b81526020018a73ffffffffffffffffffffffffffffffffffffffff1681526020018973ffffffffffffffffffffffffffffffffffffffff1681526020018881526020018781526020018681526020018581526020018481526020018363ffffffff1681526020018281526020019b50505050505050505050505060405180910390f35b348015610bac57600080fd5b50610bd960048036036020811015610bc357600080fd5b8101908080359060200190929190505050613139565b6040518082815260200191505060405180910390f35b348015610bfb57600080fd5b50610c3e60048036036020811015610c1257600080fd5b81019080803573ffffffffffffffffffffffffffffffffffffffff16906020019092919050505061315a565b005b348015610c4c57600080fd5b50610cba60048036036060811015610c6357600080fd5b810190808035906020019092919080604001906002806020026040519081016040528092919082600260200280828437600081840152601f19601f820116905080830192505050505050919291929050505061334c565b005b60076020528160005260406000206020528060005260406000206000915091509054906101000a900460ff1681565b610cf361346b565b73ffffffffffffffffffffffffffffffffffffffff16610d11611f5e565b73ffffffffffffffffffffffffffffffffffffffff1614610d9a576040517f08c379a00000000000000000000000000000000000000000000000000000000081526004018080602001828103825260208152602001807f4f776e61626c653a2063616c6c6572206973206e6f7420746865206f776e657281525060200191505060405180910390fd5b81600260006101000a81548173ffffffffffffffffffffffffffffffffffffffff021916908373ffffffffffffffffffffffffffffffffffffffff16021790555080600660006101000a81548173ffffffffffffffffffffffffffffffffffffffff021916908373ffffffffffffffffffffffffffffffffffffffff1602179055505050565b600063150b7a0260e01b9050949350505050565b6060600860008373ffffffffffffffffffffffffffffffffffffffff1673ffffffffffffffffffffffffffffffffffffffff168152602001908152602001600020805480602002602001604051908101604052809291908181526020018280548015610ebf57602002820191906000526020600020905b815481526020019060010190808311610eab575b50505050509050919050565b610ed361346b565b73ffffffffffffffffffffffffffffffffffffffff16610ef1611f5e565b73ffffffffffffffffffffffffffffffffffffffff1614610f7a576040517f08c379a00000000000000000000000000000000000000000000000000000000081526004018080602001828103825260208152602001807f4f776e61626c653a2063616c6c6572206973206e6f7420746865206f776e657281525060200191505060405180910390fd5b610f8381613473565b50565b6000600c600083815260200190815260200160002090503373ffffffffffffffffffffffffffffffffffffffff168160020160009054906101000a900473ffffffffffffffffffffffffffffffffffffffff1673ffffffffffffffffffffffffffffffffffffffff1614611062576040517f08c379a00000000000000000000000000000000000000000000000000000000081526004018080602001828103825260158152602001807f4e6f742061756374696f6e2069642073656c6c6572000000000000000000000081525060200191505060405180910390fd5b60008160090160009054906101000a900463ffffffff16905060008163ffffffff161480611096575060018163ffffffff16145b806110a7575060028163ffffffff16145b611119576040517f08c379a00000000000000000000000000000000000000000000000000000000081526004018080602001828103825260198152602001807f41756374696f6e2063616e63656c206f7220737563636573730000000000000081525060200191505060405180910390fd5b600060018263ffffffff161415611239574283600a0154106111a3576040517f08c379a000000000000000000000000000000000000000000000000000000000815260040180806020018281038252600a8152602001807f4f6e2061756374696f6e0000000000000000000000000000000000000000000081525060200191505060405180910390fd5b826006015490506111dc8360030160009054906101000a900473ffffffffffffffffffffffffffffffffffffffff168460060154613598565b61120a8360020160009054906101000a900473ffffffffffffffffffffffffffffffffffffffff1685613679565b6112388360030160009054906101000a900473ffffffffffffffffffffffffffffffffffffffff1685613679565b5b60008360000160009054906101000a900473ffffffffffffffffffffffffffffffffffffffff1690508073ffffffffffffffffffffffffffffffffffffffff166342842e0e303387600101546040518463ffffffff1660e01b8152600401808473ffffffffffffffffffffffffffffffffffffffff1681526020018373ffffffffffffffffffffffffffffffffffffffff1681526020018281526020019350505050600060405180830381600087803b1580156112f557600080fd5b505af1158015611309573d6000803e3d6000fd5b5050505060058460090160006101000a81548163ffffffff021916908363ffffffff160217905550847f3f1f59fa21f43111fdaa397568b78db1da1f47786a37d225bb05aa15ff3fe83c8560020160009054906101000a900473ffffffffffffffffffffffffffffffffffffffff16846005604051808473ffffffffffffffffffffffffffffffffffffffff168152602001838152602001828152602001935050505060405180910390a25050505050565b6000600160009054906101000a900473ffffffffffffffffffffffffffffffffffffffff1673ffffffffffffffffffffffffffffffffffffffff166113fe61346b565b73ffffffffffffffffffffffffffffffffffffffff1614905090565b6000600c6000838152602001908152602001600020905080600801544210156114ab576040517f08c379a00000000000000000000000000000000000000000000000000000000081526004018080602001828103825260118152602001807f41756374696f6e206e6f7420737461727400000000000000000000000000000081525060200191505060405180910390fd5b60008160090160009054906101000a900463ffffffff1663ffffffff1614806114ee575060018160090160009054906101000a900463ffffffff1663ffffffff16145b611560576040517f08c379a000000000000000000000000000000000000000000000000000000000815260040180806020018281038252600e8152602001807f4e6f74206f6e2061756374696f6e00000000000000000000000000000000000081525060200191505060405180910390fd5b8060020160009054906101000a900473ffffffffffffffffffffffffffffffffffffffff1673ffffffffffffffffffffffffffffffffffffffff163373ffffffffffffffffffffffffffffffffffffffff161415611626576040517f08c379a00000000000000000000000000000000000000000000000000000000081526004018080602001828103825260128152602001807f53656c6c65722063616e206e6f7420626964000000000000000000000000000081525060200191505060405180910390fd5b8060030160009054906101000a900473ffffffffffffffffffffffffffffffffffffffff1673ffffffffffffffffffffffffffffffffffffffff163373ffffffffffffffffffffffffffffffffffffffff1614156116ec576040517f08c379a00000000000000000000000000000000000000000000000000000000081526004018080602001828103825260198152602001807f4269646465722063616e206e6f7420726570656174206269640000000000000081525060200191505060405180910390fd5b6000429050600034905060008360070154146118695782600a015442111561177c576040517f08c379a000000000000000000000000000000000000000000000000000000000815260040180806020018281038252600c8152602001807f41756374696f6e206f766572000000000000000000000000000000000000000081525060200191505060405180910390fd5b6117ae8360030160009054906101000a900473ffffffffffffffffffffffffffffffffffffffff168460060154613598565b82600601548111611827576040517f08c379a000000000000000000000000000000000000000000000000000000000815260040180806020018281038252600b8152602001807f56616c7565206572726f7200000000000000000000000000000000000000000081525060200191505060405180910390fd5b600e546118414285600a015461389c90919063ffffffff16565b116118645761185b600e544261391f90919063ffffffff16565b83600a01819055505b61190a565b82600401548110156118e3576040517f08c379a000000000000000000000000000000000000000000000000000000000815260040180806020018281038252600b8152602001807f56616c7565206572726f7200000000000000000000000000000000000000000081525060200191505060405180910390fd5b818360080181905550611901600d548361391f90919063ffffffff16565b83600a01819055505b82600501543410611983576040517f08c379a00000000000000000000000000000000000000000000000000000000081526004018080602001828103825260108152602001807f4f7665722066697865642070726963650000000000000000000000000000000081525060200191505060405180910390fd5b808360060181905550600073ffffffffffffffffffffffffffffffffffffffff168360030160009054906101000a900473ffffffffffffffffffffffffffffffffffffffff1673ffffffffffffffffffffffffffffffffffffffff1614611a1357611a128360030160009054906101000a900473ffffffffffffffffffffffffffffffffffffffff1685613679565b5b611a1d33856139a7565b338360030160006101000a81548173ffffffffffffffffffffffffffffffffffffffff021916908373ffffffffffffffffffffffffffffffffffffffff16021790555060018360090160006101000a81548163ffffffff021916908363ffffffff160217905550611a9c6001846007015461391f90919063ffffffff16565b8360070181905550837f159b4e3d887a9af232cd33c09cd3e930d3e93ce0a522362da54ebce400c566ff338386600701548688600a01546001604051808773ffffffffffffffffffffffffffffffffffffffff168152602001868152602001858152602001848152602001838152602001828152602001965050505050505060405180910390a250505050565b600660009054906101000a900473ffffffffffffffffffffffffffffffffffffffff1681565b600260009054906101000a900473ffffffffffffffffffffffffffffffffffffffff1681565b6000600160009054906101000a900473ffffffffffffffffffffffffffffffffffffffff16905090565b6000600c600083815260200190815260200160002090508060020160009054906101000a900473ffffffffffffffffffffffffffffffffffffffff1673ffffffffffffffffffffffffffffffffffffffff163373ffffffffffffffffffffffffffffffffffffffff1614611c7b576040517f08c379a000000000000000000000000000000000000000000000000000000000815260040180806020018281038252600a8152602001807f4e6f742073656c6c65720000000000000000000000000000000000000000000081525060200191505060405180910390fd5b60018160090160009054906101000a900463ffffffff1663ffffffff1614611d0b576040517f08c379a000000000000000000000000000000000000000000000000000000000815260040180806020018281038252600a8152602001807f4e6f74206f6e206269640000000000000000000000000000000000000000000081525060200191505060405180910390fd5b60038160090160006101000a81548163ffffffff021916908363ffffffff1602179055506000611d4083838460060154613aa8565b9050827ff132efb946ce538e39da16b14ba507efb720da775af1c929ef95099bf063b2c78360030160009054906101000a900473ffffffffffffffffffffffffffffffffffffffff16836003604051808473ffffffffffffffffffffffffffffffffffffffff168152602001838152602001828152602001935050505060405180910390a2505050565b611dd261346b565b73ffffffffffffffffffffffffffffffffffffffff16611df0611f5e565b73ffffffffffffffffffffffffffffffffffffffff1614611e79576040517f08c379a00000000000000000000000000000000000000000000000000000000081526004018080602001828103825260208152602001807f4f776e61626c653a2063616c6c6572206973206e6f7420746865206f776e657281525060200191505060405180910390fd5b600073ffffffffffffffffffffffffffffffffffffffff1660008054906101000a900473ffffffffffffffffffffffffffffffffffffffff1673ffffffffffffffffffffffffffffffffffffffff167f8be0079c531659141344cd1fd0a4f28419497f9722a3daafe3b4186f6b6457e060405160405180910390a360008060006101000a81548173ffffffffffffffffffffffffffffffffffffffff021916908373ffffffffffffffffffffffffffffffffffffffff160217905550565b600a8181548110611f4457fe5b906000526020600020016000915090505481565b60035481565b60008060009054906101000a900473ffffffffffffffffffffffffffffffffffffffff16905090565b600f5481565b60086020528160005260406000208181548110611fa657fe5b90600052602060002001600091509150505481565b600e5481565b600d5481565b6060600a80548060200260200160405190810160405280929190818152602001828054801561201557602002820191906000526020600020905b815481526020019060010190808311612001575b5050505050905090565b808210612077576040517f08c379a000000000000000000000000000000000000000000000000000000000815260040180806020018281038252602c81526020018061460e602c913960400191505060405180910390fd5b612081600b614331565b600061208d600b614347565b90506000600c60008381526020019081526020016000209050858160000160006101000a81548173ffffffffffffffffffffffffffffffffffffffff021916908373ffffffffffffffffffffffffffffffffffffffff160217905550848160010181905550338160020160006101000a81548173ffffffffffffffffffffffffffffffffffffffff021916908373ffffffffffffffffffffffffffffffffffffffff16021790555083816004018190555082816005018190555061215081614355565b60008690508073ffffffffffffffffffffffffffffffffffffffff166342842e0e3330896040518463ffffffff1660e01b8152600401808473ffffffffffffffffffffffffffffffffffffffff1681526020018373ffffffffffffffffffffffffffffffffffffffff1681526020018281526020019350505050600060405180830381600087803b1580156121e457600080fd5b505af11580156121f8573d6000803e3d6000fd5b5050505061220633846139a7565b600a839080600181540180825580915050600190039060005260206000200160009091909190915055827fa935c187f4e3a61d01822839a7186a6069d4d2791f5190931644c701391e869888883389896000604051808773ffffffffffffffffffffffffffffffffffffffff1681526020018681526020018573ffffffffffffffffffffffffffffffffffffffff168152602001848152602001838152602001828152602001965050505050505060405180910390a250505050505050565b60006122cf6144f7565b600c6000848152602001908152602001600020604051806101600160405290816000820160009054906101000a900473ffffffffffffffffffffffffffffffffffffffff1673ffffffffffffffffffffffffffffffffffffffff1673ffffffffffffffffffffffffffffffffffffffff168152602001600182015481526020016002820160009054906101000a900473ffffffffffffffffffffffffffffffffffffffff1673ffffffffffffffffffffffffffffffffffffffff1673ffffffffffffffffffffffffffffffffffffffff1681526020016003820160009054906101000a900473ffffffffffffffffffffffffffffffffffffffff1673ffffffffffffffffffffffffffffffffffffffff1673ffffffffffffffffffffffffffffffffffffffff16815260200160048201548152602001600582015481526020016006820154815260200160078201548152602001600882015481526020016009820160009054906101000a900463ffffffff1663ffffffff1663ffffffff168152602001600a8201548152505090508060c00151915050919050565b60055481565b6000600c600083815260200190815260200160002090508060030160009054906101000a900473ffffffffffffffffffffffffffffffffffffffff1673ffffffffffffffffffffffffffffffffffffffff163373ffffffffffffffffffffffffffffffffffffffff161461254d576040517f08c379a000000000000000000000000000000000000000000000000000000000815260040180806020018281038252600a8152602001807f4e6f74206269646465720000000000000000000000000000000000000000000081525060200191505060405180910390fd5b60018160090160009054906101000a900463ffffffff1663ffffffff16146125dd576040517f08c379a00000000000000000000000000000000000000000000000000000000081526004018080602001828103825260138152602001807f52657665727365206d757374206f6e206269640000000000000000000000000081525060200191505060405180910390fd5b426125f7600f5483600a015461391f90919063ffffffff16565b111561266b576040517f08c379a00000000000000000000000000000000000000000000000000000000081526004018080602001828103825260158152602001807f4e6f74206f76657220726576657273652074696d65000000000000000000000081525060200191505060405180910390fd5b612679338260060154613598565b60028160090160006101000a81548163ffffffff021916908363ffffffff1602179055506126cb8160030160009054906101000a900473ffffffffffffffffffffffffffffffffffffffff1683613679565b817fba5068295b963c01e54acedeb13de943df2c73d23a25efae68d4296b11db748e8260030160009054906101000a900473ffffffffffffffffffffffffffffffffffffffff1683600601546002604051808473ffffffffffffffffffffffffffffffffffffffff168152602001838152602001828152602001935050505060405180910390a25050565b8082106127ae576040517f08c379a000000000000000000000000000000000000000000000000000000000815260040180806020018281038252602c81526020018061460e602c913960400191505060405180910390fd5b6000600c60008581526020019081526020016000209050600073ffffffffffffffffffffffffffffffffffffffff168160000160009054906101000a900473ffffffffffffffffffffffffffffffffffffffff1673ffffffffffffffffffffffffffffffffffffffff16141561288c576040517f08c379a000000000000000000000000000000000000000000000000000000000815260040180806020018281038252600d8152602001807f426964206e6f742065786973740000000000000000000000000000000000000081525060200191505060405180910390fd5b60008160090160009054906101000a900463ffffffff16905060058163ffffffff161415612922576040517f08c379a00000000000000000000000000000000000000000000000000000000081526004018080602001828103825260188152602001807f53656c6c657220686173206265656e2063616e63656c6564000000000000000081525060200191505060405180910390fd5b60038163ffffffff1614158061293f575060048163ffffffff1614155b6129b1576040517f08c379a000000000000000000000000000000000000000000000000000000000815260040180806020018281038252600f8152602001807f41756374696f6e2073756363657373000000000000000000000000000000000081525060200191505060405180910390fd5b3373ffffffffffffffffffffffffffffffffffffffff168260020160009054906101000a900473ffffffffffffffffffffffffffffffffffffffff1673ffffffffffffffffffffffffffffffffffffffff1614612a76576040517f08c379a00000000000000000000000000000000000000000000000000000000081526004018080602001828103825260158152602001807f4e6f742061756374696f6e2069642073656c6c6572000000000000000000000081525060200191505060405180910390fd5b60018163ffffffff161415612b5f5781600a01544211612afe576040517f08c379a00000000000000000000000000000000000000000000000000000000081526004018080602001828103825260108152602001807f41756374696f6e206e6f74206f7665720000000000000000000000000000000081525060200191505060405180910390fd5b612b308260030160009054906101000a900473ffffffffffffffffffffffffffffffffffffffff168360060154613598565b612b5e8260030160009054906101000a900473ffffffffffffffffffffffffffffffffffffffff1686613679565b5b338260020160006101000a81548173ffffffffffffffffffffffffffffffffffffffff021916908373ffffffffffffffffffffffffffffffffffffffff160217905550838260040181905550828260050181905550612bbd82614355565b847f134047c67290f320c5983777b384d499b5eddcd944d8c7d6f3aca7e5549c8b388585600060405180848152602001838152602001828152602001935050505060405180910390a25050505050565b6000600c6000838152602001908152602001600020905060018160090160009054906101000a900463ffffffff1663ffffffff161480612c67575060008160090160009054906101000a900463ffffffff1663ffffffff16145b612cd9576040517f08c379a000000000000000000000000000000000000000000000000000000000815260040180806020018281038252601e8152602001807f5769746864726177206e6f74206f6e20626964206f72206f6e2073656c6c000081525060200191505060405180910390fd5b6000816007015414612d60574281600a01541015612d5f576040517f08c379a000000000000000000000000000000000000000000000000000000000815260040180806020018281038252600e8152602001807f4e6f74206f6e2061756374696f6e00000000000000000000000000000000000081525060200191505060405180910390fd5b5b60018160090160009054906101000a900463ffffffff1663ffffffff161415612db657612db58160030160009054906101000a900473ffffffffffffffffffffffffffffffffffffffff168260060154613598565b5b34816005015414612e2f576040517f08c379a000000000000000000000000000000000000000000000000000000000815260040180806020018281038252600f8152602001807f4e6f74206669786564207072696365000000000000000000000000000000000081525060200191505060405180910390fd5b60048160090160006101000a81548163ffffffff021916908363ffffffff160217905550806005015481600601819055506000612e7183838460050154613aa8565b9050338260030160006101000a81548173ffffffffffffffffffffffffffffffffffffffff021916908373ffffffffffffffffffffffffffffffffffffffff160217905550827fafbe31d08728285cdb33e3a9a301fa784e9d37b8c432a9bcd4e0cca210afbdb68360030160009054906101000a900473ffffffffffffffffffffffffffffffffffffffff16836004604051808473ffffffffffffffffffffffffffffffffffffffff168152602001838152602001828152602001935050505060405180910390a2505050565b612f4661346b565b73ffffffffffffffffffffffffffffffffffffffff16612f64611f5e565b73ffffffffffffffffffffffffffffffffffffffff1614612fed576040517f08c379a00000000000000000000000000000000000000000000000000000000081526004018080602001828103825260208152602001807f4f776e61626c653a2063616c6c6572206973206e6f7420746865206f776e657281525060200191505060405180910390fd5b7f83ab88e3788c7fcd47f116ebeeb2ed3108eada6f186aaab497d45115e03ed1cd600d54600e54600f5460405180848152602001838152602001828152602001935050505060405180910390a16000831461304a5782600d819055505b6000821461305a5781600e819055505b6000811461306a5780600f819055505b505050565b600c6020528060005260406000206000915090508060000160009054906101000a900473ffffffffffffffffffffffffffffffffffffffff16908060010154908060020160009054906101000a900473ffffffffffffffffffffffffffffffffffffffff16908060030160009054906101000a900473ffffffffffffffffffffffffffffffffffffffff16908060040154908060050154908060060154908060070154908060080154908060090160009054906101000a900463ffffffff169080600a015490508b565b6004818154811061314657fe5b906000526020600020016000915090505481565b61316261346b565b73ffffffffffffffffffffffffffffffffffffffff16613180611f5e565b73ffffffffffffffffffffffffffffffffffffffff1614613209576040517f08c379a00000000000000000000000000000000000000000000000000000000081526004018080602001828103825260208152602001807f4f776e61626c653a2063616c6c6572206973206e6f7420746865206f776e657281525060200191505060405180910390fd5b600073ffffffffffffffffffffffffffffffffffffffff168173ffffffffffffffffffffffffffffffffffffffff16141561328f576040517f08c379a000000000000000000000000000000000000000000000000000000000815260040180806020018281038252602681526020018061459a6026913960400191505060405180910390fd5b8073ffffffffffffffffffffffffffffffffffffffff1660008054906101000a900473ffffffffffffffffffffffffffffffffffffffff1673ffffffffffffffffffffffffffffffffffffffff167f8be0079c531659141344cd1fd0a4f28419497f9722a3daafe3b4186f6b6457e060405160405180910390a3806000806101000a81548173ffffffffffffffffffffffffffffffffffffffff021916908373ffffffffffffffffffffffffffffffffffffffff16021790555050565b61335461346b565b73ffffffffffffffffffffffffffffffffffffffff16613372611f5e565b73ffffffffffffffffffffffffffffffffffffffff16146133fb576040517f08c379a00000000000000000000000000000000000000000000000000000000081526004018080602001828103825260208152602001807f4f776e61626c653a2063616c6c6572206973206e6f7420746865206f776e657281525060200191505060405180910390fd5b6000821461340b57816003819055505b8060006002811061341857fe5b6020020151600460008154811061342b57fe5b90600052602060002001819055508060016002811061344657fe5b6020020151600460018154811061345957fe5b90600052602060002001819055505050565b600033905090565b600073ffffffffffffffffffffffffffffffffffffffff168173ffffffffffffffffffffffffffffffffffffffff1614156134f9576040517f08c379a000000000000000000000000000000000000000000000000000000000815260040180806020018281038252602d8152602001806145c0602d913960400191505060405180910390fd5b8073ffffffffffffffffffffffffffffffffffffffff16600073ffffffffffffffffffffffffffffffffffffffff167f74da04524d50c64947f5dd5381ef1a4dca5cba8ed1d816243f9e48aa0b5617ed60405160405180910390a380600160006101000a81548173ffffffffffffffffffffffffffffffffffffffff021916908373ffffffffffffffffffffffffffffffffffffffff16021790555050565b60008273ffffffffffffffffffffffffffffffffffffffff168260405180600001905060006040518083038185875af1925050503d80600081146135f8576040519150601f19603f3d011682016040523d82523d6000602084013e6135fd565b606091505b5050905080613674576040517f08c379a00000000000000000000000000000000000000000000000000000000081526004018080602001828103825260128152602001807f5452414e5346455220455448204552524f52000000000000000000000000000081525060200191505060405180910390fd5b505050565b60006136d16001600860008673ffffffffffffffffffffffffffffffffffffffff1673ffffffffffffffffffffffffffffffffffffffff1681526020019081526020016000208054905061389c90919063ffffffff16565b90506000600960008573ffffffffffffffffffffffffffffffffffffffff1673ffffffffffffffffffffffffffffffffffffffff1681526020019081526020016000206000848152602001908152602001600020549050808214613838576000600860008673ffffffffffffffffffffffffffffffffffffffff1673ffffffffffffffffffffffffffffffffffffffff168152602001908152602001600020838154811061377b57fe5b9060005260206000200154905080600860008773ffffffffffffffffffffffffffffffffffffffff1673ffffffffffffffffffffffffffffffffffffffff16815260200190815260200160002083815481106137d357fe5b906000526020600020018190555081600960008773ffffffffffffffffffffffffffffffffffffffff1673ffffffffffffffffffffffffffffffffffffffff168152602001908152602001600020600083815260200190815260200160002081905550505b600860008573ffffffffffffffffffffffffffffffffffffffff1673ffffffffffffffffffffffffffffffffffffffff16815260200190815260200160002080548061388057fe5b6001900381819060005260206000200160009055905550505050565b600082821115613914576040517f08c379a000000000000000000000000000000000000000000000000000000000815260040180806020018281038252601e8152602001807f536166654d6174683a207375627472616374696f6e206f766572666c6f77000081525060200191505060405180910390fd5b818303905092915050565b60008082840190508381101561399d576040517f08c379a000000000000000000000000000000000000000000000000000000000815260040180806020018281038252601b8152602001807f536166654d6174683a206164646974696f6e206f766572666c6f77000000000081525060200191505060405180910390fd5b8091505092915050565b600860008373ffffffffffffffffffffffffffffffffffffffff1673ffffffffffffffffffffffffffffffffffffffff16815260200190815260200160002080549050600960008473ffffffffffffffffffffffffffffffffffffffff1673ffffffffffffffffffffffffffffffffffffffff168152602001908152602001600020600083815260200190815260200160002081905550600860008373ffffffffffffffffffffffffffffffffffffffff1673ffffffffffffffffffffffffffffffffffffffff1681526020019081526020016000208190806001815401808255809150506001900390600052602060002001600090919091909150555050565b60008082905060008460000160009054906101000a900473ffffffffffffffffffffffffffffffffffffffff1690508073ffffffffffffffffffffffffffffffffffffffff166342842e0e303388600101546040518463ffffffff1660e01b8152600401808473ffffffffffffffffffffffffffffffffffffffff1681526020018373ffffffffffffffffffffffffffffffffffffffff1681526020018281526020019350505050600060405180830381600087803b158015613b6a57600080fd5b505af1158015613b7e573d6000803e3d6000fd5b505050506000613bad600554613b9f600354866143e890919063ffffffff16565b61446e90919063ffffffff16565b90506000613bdd600660009054906101000a900473ffffffffffffffffffffffffffffffffffffffff1683613598565b8660000160009054906101000a900473ffffffffffffffffffffffffffffffffffffffff1673ffffffffffffffffffffffffffffffffffffffff16600260009054906101000a900473ffffffffffffffffffffffffffffffffffffffff1673ffffffffffffffffffffffffffffffffffffffff161415614251576000600260009054906101000a900473ffffffffffffffffffffffffffffffffffffffff1673ffffffffffffffffffffffffffffffffffffffff1663abb03ba689600101546040518263ffffffff1660e01b81526004018082815260200191505060606040518083038186803b158015613cd057600080fd5b505afa158015613ce4573d6000803e3d6000fd5b505050506040513d6060811015613cfa57600080fd5b81019080805190602001909291908051906020019092919080519060200190929190505050505090506000606080600260009054906101000a900473ffffffffffffffffffffffffffffffffffffffff1673ffffffffffffffffffffffffffffffffffffffff1663e726d96b856040518263ffffffff1660e01b81526004018082815260200191505060006040518083038186803b158015613d9b57600080fd5b505afa158015613daf573d6000803e3d6000fd5b505050506040513d6000823e3d601f19601f8201168201806040525060e0811015613dd957600080fd5b810190808051906020019092919080519060200190929190805190602001909291908051906020019092919080516040519392919084640100000000821115613e2157600080fd5b83820191506020820185811115613e3757600080fd5b8251866020820283011164010000000082111715613e5457600080fd5b8083526020830192505050908051906020019060200280838360005b83811015613e8b578082015181840152602081019050613e70565b5050505090500160405260200180516040519392919084640100000000821115613eb457600080fd5b83820191506020820185811115613eca57600080fd5b8251866020820283011164010000000082111715613ee757600080fd5b8083526020830192505050908051906020019060200280838360005b83811015613f1e578082015181840152602081019050613f03565b5050505090500160405260200180516040519392919084640100000000821115613f4757600080fd5b83820191506020820185811115613f5d57600080fd5b8251866001820283011164010000000082111715613f7a57600080fd5b8083526020830192505050908051906020019080838360005b83811015613fae578082015181840152602081019050613f93565b50505050905090810190601f168015613fdb5780820380516001836020036101000a031916815260200191505b50604052505050509550955095505050506000600760008d60000160009054906101000a900473ffffffffffffffffffffffffffffffffffffffff1673ffffffffffffffffffffffffffffffffffffffff1673ffffffffffffffffffffffffffffffffffffffff16815260200190815260200160002060008d60010154815260200190815260200160002060009054906101000a900460ff1690506140d96005546140cb836140a257600460008154811061409257fe5b90600052602060002001546140bc565b60046001815481106140b057fe5b90600052602060002001545b8c6143e890919063ffffffff16565b61446e90919063ffffffff16565b95506000835114156140f4576140ef8487613598565b6141ba565b60005b82518110156141b85760008114156141515761414c8561414760055461413987868151811061412257fe5b60200260200101518c6143e890919063ffffffff16565b61446e90919063ffffffff16565b613598565b6141ab565b6141aa84600183038151811061416357fe5b60200260200101516141a560055461419787868151811061418057fe5b60200260200101518c6143e890919063ffffffff16565b61446e90919063ffffffff16565b613598565b5b80806001019150506140f7565b505b6001600760008e60000160009054906101000a900473ffffffffffffffffffffffffffffffffffffffff1673ffffffffffffffffffffffffffffffffffffffff1673ffffffffffffffffffffffffffffffffffffffff16815260200190815260200160002060008e60010154815260200190815260200160002060006101000a81548160ff02191690831515021790555050505050505b6142a38760020160009054906101000a900473ffffffffffffffffffffffffffffffffffffffff1661429e83614290868961389c90919063ffffffff16565b61389c90919063ffffffff16565b613598565b6142d18760020160009054906101000a900473ffffffffffffffffffffffffffffffffffffffff1689613679565b6142ff8760030160009054906101000a900473ffffffffffffffffffffffffffffffffffffffff1689613679565b61432481614316848761389c90919063ffffffff16565b61389c90919063ffffffff16565b9450505050509392505050565b6001816000016000828254019250508190555050565b600081600001549050919050565b6000816006018190555060008160030160006101000a81548173ffffffffffffffffffffffffffffffffffffffff021916908373ffffffffffffffffffffffffffffffffffffffff1602179055506000816007018190555060008160080181905550600081600a018190555060008160090160006101000a81548163ffffffff021916908363ffffffff16021790555050565b6000808314156143fb5760009050614468565b600082840290508284828161440c57fe5b0414614463576040517f08c379a00000000000000000000000000000000000000000000000000000000081526004018080602001828103825260218152602001806145ed6021913960400191505060405180910390fd5b809150505b92915050565b60008082116144e5576040517f08c379a000000000000000000000000000000000000000000000000000000000815260040180806020018281038252601a8152602001807f536166654d6174683a206469766973696f6e206279207a65726f00000000000081525060200191505060405180910390fd5b8183816144ee57fe5b04905092915050565b604051806101600160405280600073ffffffffffffffffffffffffffffffffffffffff16815260200160008152602001600073ffffffffffffffffffffffffffffffffffffffff168152602001600073ffffffffffffffffffffffffffffffffffffffff1681526020016000815260200160008152602001600081526020016000815260200160008152602001600063ffffffff16815260200160008152509056fe4f776e61626c653a206e6577206f776e657220697320746865207a65726f20616464726573736f70657261746f723a207a65726f206164647265737320676976656e20666f72206e6577206f70657261746f72536166654d6174683a206d756c7469706c69636174696f6e206f766572666c6f774f70656e696e6720626964207072696365206d757374206c6f776572207468616e2066697865645072696365a264697066735822122010bbbb784a1c3b4b6dc02672478b1d75206ce2791f489b87c18a8f9209e92b9564736f6c634300060c0033",
  "immutableReferences": {},
  "source": "pragma solidity ^0.6.2;\n\nimport \"@openzeppelin/contracts/token/ERC721/IERC721.sol\";\nimport \"@openzeppelin/contracts/math/SafeMath.sol\";\nimport \"@openzeppelin/contracts/utils/Counters.sol\";\nimport \"@openzeppelin/contracts/utils/Pausable.sol\";\nimport \"./interfaces/IAgERC721.sol\";\nimport './base/BaseAuction.sol';\n\n/// @title fixed auction\n/// @author yzbbanban\n/// @notice buy token\n/// @dev \ncontract FixedAuction is BaseAuction {\n    event Auction(uint256 indexed _auctionId, address _token, \n                    uint256 _tokenId, address _seller, \n                    uint256 _openingBid, uint256 _fixedPrice,uint32 _auctionStatus);\n    event ReAuction(uint256 indexed _auctionId,\n                    uint256 _openingBid, uint256 _fixedPrice,uint32 _auctionStatus);\n    event LastParam(uint256 _limitTime, uint256 _extendTime, uint256 _reverseTime);\n    event Bid(uint256 indexed _auctionId, address _bidder,\n                uint256 _bidPrice, uint256 _bidCount,uint256 _startTime, uint256 _expirationTime,uint32 _auctionStatus);\n    event Selling(uint256 indexed _auctionId, address _bidder, uint256 _bidPrice, uint32 _auctionStatus);\n    event Reverse(uint256 indexed _auctionId, address _bidder, uint256 _bidPrice, uint32 _auctionStatus);\n    event Fixed(uint256 indexed _auctionId, address _bidder, uint256 _bidPrice, uint32 _auctionStatus);\n    event Cancel(uint256 indexed _auctionId, address _seller,uint256 _bidPrice, uint32 _auctionStatus);\n\n    using Counters for Counters.Counter;\n    Counters.Counter private _auctionIds;\n    using SafeMath for uint256;\n\n    mapping(uint256 => BidInfo) public bidInfos;\n    uint256 public limitTime = 1 days;\n    uint256 public extendTime = 15 minutes;\n    uint256 public reverseTime = 5 days;\n    \n    constructor(IAgERC721 _artGee, address _platform) public{\n        artGee = _artGee;\n        platform = _platform;\n    }\n\n    struct BidInfo{\n        address token;\n        uint256 tokenId;\n        address seller;\n        address bidder;//change\n        uint256 openingBid;\n        uint256 fixedPrice;\n        uint256 bidPrice;//change\n        uint256 bidCount;//change\n        uint256 startTime;\n        uint32 auctionStatus;// 0 init; 1 bid; 2 bidder reverse;3 seller finish; 4 bidder finish 5 seller cancel\n        uint256 expirationTime;//change\n    }\n\n    function setReverseTime(uint256 _limitTime,uint256 _extendTime, uint256 _reverseTime) public onlyOwner(){\n        emit LastParam(limitTime, extendTime, reverseTime);\n        if(_limitTime != 0){\n            limitTime = _limitTime;\n        }\n        if(_extendTime != 0){\n            extendTime = _extendTime;\n        }\n        if(_reverseTime != 0){\n            reverseTime = _reverseTime;\n        }\n    }\n\n    function auction(address _token, uint256 _tokenId, \n                    uint256 _openingBid,\n                    uint256 _fixedPrice) public{\n        require(_openingBid < _fixedPrice,\"Opening bid price must lower than fixedPrice\");\n        _auctionIds.increment();\n        uint256 auctionId = _auctionIds.current();\n        BidInfo storage bidInfo = bidInfos[auctionId];\n        bidInfo.token = _token;\n        bidInfo.tokenId = _tokenId;\n        bidInfo.seller = msg.sender;\n        bidInfo.openingBid = _openingBid;\n        bidInfo.fixedPrice = _fixedPrice;\n         _initAuction(bidInfo);\n        //add tokenId\n        IERC721 ierc721 = IERC721(_token);\n        ierc721.safeTransferFrom(msg.sender, address(this), _tokenId);\n        // add my auction\n        _addMyAuction(msg.sender,auctionId);\n        artList.push(auctionId);\n        emit Auction(auctionId,_token, _tokenId, msg.sender, _openingBid,_fixedPrice, 0);\n    }\n\n    function reAuction(uint256 _auctionId, uint256 _openingBid, \n                    uint256 _fixedPrice) public{\n        require(_openingBid < _fixedPrice,\"Opening bid price must lower than fixedPrice\");\n        BidInfo storage bidInfo = bidInfos[_auctionId];\n        require(bidInfo.token != address(0),\"Bid not exist\");\n        uint32 nowStatus = bidInfo.auctionStatus;\n        require(nowStatus != 5,\"Seller has been canceled\");\n        require(nowStatus != 3 || nowStatus != 4,\"Auction success\");\n        //must wait for auction over\n        require(bidInfo.seller == msg.sender,\"Not auction id seller\");\n        //bidder has already reverse\n        if(nowStatus == 1){\n            require(block.timestamp > bidInfo.expirationTime, \"Auction not over\");\n            //sende coin to bidder\n            transferMain(bidInfo.bidder, bidInfo.bidPrice);\n            //remove bidder's auctionId\n            _removeMyAuction(bidInfo.bidder, _auctionId);\n        }\n        bidInfo.seller = msg.sender;\n        bidInfo.openingBid = _openingBid;\n        bidInfo.fixedPrice = _fixedPrice;\n        _initAuction(bidInfo);\n        emit ReAuction(_auctionId, _openingBid, _fixedPrice, 0);\n    }\n\n    function bid(uint256 _auctionId) payable public{\n        BidInfo storage bidInfo = bidInfos[_auctionId];\n        require(block.timestamp >= bidInfo.startTime,\"Auction not start\");\n        //now time > expiration time then auction over\n        require(bidInfo.auctionStatus == 0 || bidInfo.auctionStatus == 1, \"Not on auction\");\n        require(msg.sender != bidInfo.seller, \"Seller can not bid\");\n        require(msg.sender != bidInfo.bidder, \"Bidder can not repeat bid\");\n        uint256 t = block.timestamp;\n        uint256 nowBidPrice = msg.value;\n        //transfer to last bidder\n        if(bidInfo.bidCount != 0){\n            require(block.timestamp <= bidInfo.expirationTime, \"Auction over\");\n            transferMain(bidInfo.bidder, bidInfo.bidPrice);\n            require(nowBidPrice > bidInfo.bidPrice, \"Value error\");\n            // expiration time - (startTime + 1day) => update expiration\n            if(bidInfo.expirationTime.sub(block.timestamp) <= extendTime){\n                bidInfo.expirationTime = block.timestamp.add(extendTime);\n            }\n        }else{\n            require(nowBidPrice >= bidInfo.openingBid, \"Value error\");\n            bidInfo.startTime = t;\n            //1 day later\n            bidInfo.expirationTime = t.add(limitTime);\n        }\n        require(msg.value < bidInfo.fixedPrice, \"Over fixed price\");\n        //update price\n        bidInfo.bidPrice = nowBidPrice;\n        \n        // add bidder auction id and remove seller auction id\n        if(bidInfo.bidder != address(0)){\n            _removeMyAuction(bidInfo.bidder, _auctionId);\n        }\n        _addMyAuction(msg.sender,_auctionId);\n        //reset bidder\n        bidInfo.bidder = msg.sender;\n        //add bid count\n        bidInfo.auctionStatus = 1;\n        bidInfo.bidCount = bidInfo.bidCount.add(1);\n        emit Bid(_auctionId, msg.sender, nowBidPrice, bidInfo.bidCount,t,bidInfo.expirationTime, 1);\n    }\n\n    function getCurrentPrice(uint256 _auctionId) view public returns(uint256 _nowBidPrice){\n        BidInfo memory bidInfo = bidInfos[_auctionId];\n        return bidInfo.bidPrice;\n    }\n    \n    //seller cancel\n    function cancel(uint256 _auctionId) public{\n        BidInfo storage bidInfo = bidInfos[_auctionId];\n        require(bidInfo.seller == msg.sender,\"Not auction id seller\");\n        uint32 nowStatus = bidInfo.auctionStatus;\n        require(nowStatus == 0 || nowStatus == 1 || nowStatus == 2, \"Auction cancel or success\");\n        uint256 refund = 0;\n        if(nowStatus == 1){\n            // must end\n            require(bidInfo.expirationTime < block.timestamp, \"On auction\");\n            refund = bidInfo.bidPrice;\n            //has bid send coin to bidder\n            transferMain(bidInfo.bidder, bidInfo.bidPrice);\n            //remove seller list\n            _removeMyAuction(bidInfo.seller, _auctionId);\n            //remove bidder list\n            _removeMyAuction(bidInfo.bidder, _auctionId);\n        }\n        IERC721 ierc721 = IERC721(bidInfo.token);\n        ierc721.safeTransferFrom(address(this),msg.sender, bidInfo.tokenId);\n        bidInfo.auctionStatus = 5;\n        emit Cancel(_auctionId, bidInfo.seller, refund, 5);\n    }\n\n    //seller executor\n    function sellingSettlementPrice(uint256 _auctionId) public{\n        BidInfo storage bidInfo = bidInfos[_auctionId];\n        require(msg.sender == bidInfo.seller, \"Not seller\");\n        require(bidInfo.auctionStatus == 1, \"Not on bid\");\n        bidInfo.auctionStatus = 3;\n        uint256 amount = _share(_auctionId,bidInfo,bidInfo.bidPrice);\n        emit Selling(_auctionId,bidInfo.bidder,amount,3);\n    }\n\n    //bidder execute\n    function bidderReverse(uint256 _auctionId) public{\n        BidInfo storage bidInfo = bidInfos[_auctionId];\n        require(msg.sender == bidInfo.bidder, \"Not bidder\");\n        // if bidder wanner his coin, current time must over than `reverseTime`\n        require(bidInfo.auctionStatus == 1, \"Reverse must on bid\");\n        require(bidInfo.expirationTime.add(reverseTime) <= block.timestamp, \"Not over reverse time\");\n        //coin send to bidder\n        transferMain(msg.sender, bidInfo.bidPrice);\n        bidInfo.auctionStatus = 2;\n        _removeMyAuction(bidInfo.bidder, _auctionId);\n        emit Reverse(_auctionId, bidInfo.bidder, bidInfo.bidPrice,2);\n    }\n\n    //auction success bidder execute\n    function fixedWithdraw(uint256 _auctionId) payable public{\n        BidInfo storage bidInfo = bidInfos[_auctionId];\n        require(bidInfo.auctionStatus == 1 || bidInfo.auctionStatus == 0, \"Withdraw not on bid or on sell\");\n        if(bidInfo.bidCount != 0){\n            require(bidInfo.expirationTime >= block.timestamp, \"Not on auction\");\n        }\n        if(bidInfo.auctionStatus == 1){\n            //send to last bidder\n            transferMain(bidInfo.bidder, bidInfo.bidPrice);\n        }\n        require(bidInfo.fixedPrice == msg.value,\"Not fixed price\");\n        bidInfo.auctionStatus = 4;\n        bidInfo.bidPrice = bidInfo.fixedPrice;\n        uint256 amount = _share(_auctionId,bidInfo,bidInfo.fixedPrice);\n        // to seller\n        bidInfo.bidder = msg.sender;\n        emit Fixed(_auctionId,bidInfo.bidder,amount,4);\n    }\n\n    function _share(uint256 _auctionId, BidInfo storage bidInfo, uint256 _price) internal returns(uint256 _amount){\n        uint256 amount = _price;\n        //721 transfer current bidder , get bidder price\n        IERC721 ierc721 = IERC721(bidInfo.token);\n        ierc721.safeTransferFrom(address(this), msg.sender, bidInfo.tokenId);\n        //fee to platform\n        uint256 _fee = amount.mul(feePercent).div(basePercent);\n        uint256 _artistFee = 0; \n        transferMain(platform,_fee);\n        //artist share in the benefit \n        if(address(artGee) == bidInfo.token){\n            (uint256 artId,,)=artGee.tokenArts(bidInfo.tokenId);\n            (,,,address creator,\n                address[] memory assistants,\n                uint256[] memory benefits,)=artGee.getSourceDigitalArt(artId);\n            bool isNotFirst = isNotFirstAuction[bidInfo.token][bidInfo.tokenId];\n            //first time 20% to artist,other time 10% \n            _artistFee = amount.mul(isNotFirst ? artPercent[1]:artPercent[0]).div(basePercent);\n            if(assistants.length == 0){\n                //send to creator\n                transferMain(creator,_artistFee);\n            }else{\n                //send to creator and other assistant\n                for (uint256 index = 0; index < benefits.length; index++) {\n                    if(index==0){\n                        // to creator\n                        transferMain(creator,_artistFee.mul(benefits[index]).div(basePercent));\n                    }else{\n                        // to assistants\n                        transferMain(assistants[index-1],_artistFee.mul(benefits[index]).div(basePercent));\n                    }\n                }\n            }\n            isNotFirstAuction[bidInfo.token][bidInfo.tokenId] = true;\n        }\n        transferMain(bidInfo.seller, amount.sub(_fee).sub(_artistFee));\n        _removeMyAuction(bidInfo.seller, _auctionId);\n        //remove bidder list\n        _removeMyAuction(bidInfo.bidder, _auctionId);\n        return amount.sub(_fee).sub(_artistFee);\n    }\n\n    function _initAuction(BidInfo storage bidInfo) internal {\n        bidInfo.bidPrice = 0;\n        bidInfo.bidder = address(0);        \n        bidInfo.bidCount = 0;\n        bidInfo.startTime = 0;\n        bidInfo.expirationTime = 0;\n        bidInfo.auctionStatus = 0; \n    }\n}",
  "sourcePath": "/Users/wangban/Downloads/money/coin/other/artgee/ArtGee-Contract/contracts/FixedAuction.sol",
  "compiler": {
    "name": "solc",
    "version": "0.6.12+commit.27d51765.Emscripten.clang"
  },
  "schemaVersion": "3.3.2",
  "updatedAt": "2021-04-18T13:27:46.424Z",
  "devdoc": {
    "author": "yzbbanban",
    "kind": "dev",
    "methods": {
      "onERC721Received(address,address,uint256,bytes)": {
        "details": "See {IERC721Receiver-onERC721Received}. Always returns `IERC721Receiver.onERC721Received.selector`."
      },
      "owner()": {
        "details": "Returns the address of the current owner."
      },
      "renounceOwnership()": {
        "details": "Leaves the contract without owner. It will not be possible to call `onlyOwner` functions anymore. Can only be called by the current owner. NOTE: Renouncing ownership will leave the contract without an owner, thereby removing any functionality that is only available to the owner."
      },
      "transferOwnership(address)": {
        "details": "Transfers ownership of the contract to a new account (`newOwner`). Can only be called by the current owner."
      }
    },
    "title": "fixed auction",
    "version": 1
  },
  "userdoc": {
    "kind": "user",
    "methods": {},
    "notice": "buy token",
    "version": 1
  }
}