{
  "contractName": "FixedAuction",
  "abi": [
    {
      "inputs": [
        {
          "internalType": "contract IAgERC721",
          "name": "_artGee",
          "type": "address"
        }
      ],
      "stateMutability": "nonpayable",
      "type": "constructor"
    },
    {
      "anonymous": false,
      "inputs": [
        {
          "indexed": true,
          "internalType": "uint256",
          "name": "_auctionId",
          "type": "uint256"
        },
        {
          "indexed": false,
          "internalType": "address",
          "name": "_token",
          "type": "address"
        },
        {
          "indexed": false,
          "internalType": "uint256",
          "name": "_tokenId",
          "type": "uint256"
        },
        {
          "indexed": false,
          "internalType": "address",
          "name": "_seller",
          "type": "address"
        },
        {
          "indexed": false,
          "internalType": "uint256",
          "name": "_openingBid",
          "type": "uint256"
        },
        {
          "indexed": false,
          "internalType": "uint256",
          "name": "_fixedPrice",
          "type": "uint256"
        },
        {
          "indexed": false,
          "internalType": "uint256",
          "name": "startTime",
          "type": "uint256"
        }
      ],
      "name": "Auction",
      "type": "event"
    },
    {
      "anonymous": false,
      "inputs": [
        {
          "indexed": true,
          "internalType": "uint256",
          "name": "_auctionId",
          "type": "uint256"
        },
        {
          "indexed": false,
          "internalType": "address",
          "name": "_bidder",
          "type": "address"
        },
        {
          "indexed": false,
          "internalType": "uint256",
          "name": "_openingBid",
          "type": "uint256"
        },
        {
          "indexed": false,
          "internalType": "uint256",
          "name": "_bidCount",
          "type": "uint256"
        },
        {
          "indexed": false,
          "internalType": "uint256",
          "name": "_auctionStatus",
          "type": "uint256"
        }
      ],
      "name": "Bid",
      "type": "event"
    },
    {
      "anonymous": false,
      "inputs": [
        {
          "indexed": true,
          "internalType": "uint256",
          "name": "_auctionId",
          "type": "uint256"
        },
        {
          "indexed": false,
          "internalType": "address",
          "name": "_seller",
          "type": "address"
        },
        {
          "indexed": false,
          "internalType": "address",
          "name": "_token",
          "type": "address"
        },
        {
          "indexed": false,
          "internalType": "uint256",
          "name": "_tokenId",
          "type": "uint256"
        }
      ],
      "name": "Cancel",
      "type": "event"
    },
    {
      "anonymous": false,
      "inputs": [
        {
          "indexed": true,
          "internalType": "uint256",
          "name": "_auctionId",
          "type": "uint256"
        },
        {
          "indexed": false,
          "internalType": "address",
          "name": "_bidder",
          "type": "address"
        },
        {
          "indexed": false,
          "internalType": "uint256",
          "name": "_openingBid",
          "type": "uint256"
        }
      ],
      "name": "Fixed",
      "type": "event"
    },
    {
      "anonymous": false,
      "inputs": [
        {
          "indexed": false,
          "internalType": "uint256",
          "name": "_limitTime",
          "type": "uint256"
        },
        {
          "indexed": false,
          "internalType": "uint256",
          "name": "_extendTime",
          "type": "uint256"
        },
        {
          "indexed": false,
          "internalType": "uint256",
          "name": "_reverseTime",
          "type": "uint256"
        }
      ],
      "name": "LastParam",
      "type": "event"
    },
    {
      "anonymous": false,
      "inputs": [
        {
          "indexed": true,
          "internalType": "address",
          "name": "previousOperator",
          "type": "address"
        },
        {
          "indexed": true,
          "internalType": "address",
          "name": "newOperator",
          "type": "address"
        }
      ],
      "name": "OperatorTransferred",
      "type": "event"
    },
    {
      "anonymous": false,
      "inputs": [
        {
          "indexed": true,
          "internalType": "address",
          "name": "previousOwner",
          "type": "address"
        },
        {
          "indexed": true,
          "internalType": "address",
          "name": "newOwner",
          "type": "address"
        }
      ],
      "name": "OwnershipTransferred",
      "type": "event"
    },
    {
      "anonymous": false,
      "inputs": [
        {
          "indexed": true,
          "internalType": "uint256",
          "name": "_auctionId",
          "type": "uint256"
        },
        {
          "indexed": false,
          "internalType": "address",
          "name": "_token",
          "type": "address"
        },
        {
          "indexed": false,
          "internalType": "uint256",
          "name": "_tokenId",
          "type": "uint256"
        },
        {
          "indexed": false,
          "internalType": "address",
          "name": "_seller",
          "type": "address"
        },
        {
          "indexed": false,
          "internalType": "uint256",
          "name": "_openingBid",
          "type": "uint256"
        },
        {
          "indexed": false,
          "internalType": "uint256",
          "name": "_fixedPrice",
          "type": "uint256"
        },
        {
          "indexed": false,
          "internalType": "uint256",
          "name": "startTime",
          "type": "uint256"
        }
      ],
      "name": "ReAuction",
      "type": "event"
    },
    {
      "anonymous": false,
      "inputs": [
        {
          "indexed": true,
          "internalType": "uint256",
          "name": "_auctionId",
          "type": "uint256"
        },
        {
          "indexed": false,
          "internalType": "address",
          "name": "_bidder",
          "type": "address"
        },
        {
          "indexed": false,
          "internalType": "uint256",
          "name": "_openingBid",
          "type": "uint256"
        },
        {
          "indexed": false,
          "internalType": "uint256",
          "name": "_auctionStatus",
          "type": "uint256"
        }
      ],
      "name": "Reverse",
      "type": "event"
    },
    {
      "anonymous": false,
      "inputs": [
        {
          "indexed": true,
          "internalType": "uint256",
          "name": "_auctionId",
          "type": "uint256"
        },
        {
          "indexed": false,
          "internalType": "address",
          "name": "_bidder",
          "type": "address"
        },
        {
          "indexed": false,
          "internalType": "uint256",
          "name": "_openingBid",
          "type": "uint256"
        }
      ],
      "name": "Selling",
      "type": "event"
    },
    {
      "inputs": [
        {
          "internalType": "uint256",
          "name": "",
          "type": "uint256"
        }
      ],
      "name": "artPercent",
      "outputs": [
        {
          "internalType": "uint256",
          "name": "",
          "type": "uint256"
        }
      ],
      "stateMutability": "view",
      "type": "function"
    },
    {
      "inputs": [],
      "name": "basePercent",
      "outputs": [
        {
          "internalType": "uint256",
          "name": "",
          "type": "uint256"
        }
      ],
      "stateMutability": "view",
      "type": "function"
    },
    {
      "inputs": [
        {
          "internalType": "uint256",
          "name": "",
          "type": "uint256"
        }
      ],
      "name": "bidInfos",
      "outputs": [
        {
          "internalType": "address",
          "name": "token",
          "type": "address"
        },
        {
          "internalType": "uint256",
          "name": "tokenId",
          "type": "uint256"
        },
        {
          "internalType": "address",
          "name": "seller",
          "type": "address"
        },
        {
          "internalType": "address",
          "name": "bidder",
          "type": "address"
        },
        {
          "internalType": "uint256",
          "name": "openingBid",
          "type": "uint256"
        },
        {
          "internalType": "uint256",
          "name": "fixedPrice",
          "type": "uint256"
        },
        {
          "internalType": "uint256",
          "name": "bidPrice",
          "type": "uint256"
        },
        {
          "internalType": "uint256",
          "name": "bidCount",
          "type": "uint256"
        },
        {
          "internalType": "uint256",
          "name": "startTime",
          "type": "uint256"
        },
        {
          "internalType": "uint256",
          "name": "auctionStatus",
          "type": "uint256"
        },
        {
          "internalType": "uint256",
          "name": "expirationTime",
          "type": "uint256"
        }
      ],
      "stateMutability": "view",
      "type": "function"
    },
    {
      "inputs": [],
      "name": "extendTime",
      "outputs": [
        {
          "internalType": "uint256",
          "name": "",
          "type": "uint256"
        }
      ],
      "stateMutability": "view",
      "type": "function"
    },
    {
      "inputs": [],
      "name": "feePercent",
      "outputs": [
        {
          "internalType": "uint256",
          "name": "",
          "type": "uint256"
        }
      ],
      "stateMutability": "view",
      "type": "function"
    },
    {
      "inputs": [],
      "name": "isOperator",
      "outputs": [
        {
          "internalType": "bool",
          "name": "",
          "type": "bool"
        }
      ],
      "stateMutability": "view",
      "type": "function"
    },
    {
      "inputs": [],
      "name": "limitTime",
      "outputs": [
        {
          "internalType": "uint256",
          "name": "",
          "type": "uint256"
        }
      ],
      "stateMutability": "view",
      "type": "function"
    },
    {
      "inputs": [],
      "name": "operator",
      "outputs": [
        {
          "internalType": "address",
          "name": "",
          "type": "address"
        }
      ],
      "stateMutability": "view",
      "type": "function"
    },
    {
      "inputs": [],
      "name": "owner",
      "outputs": [
        {
          "internalType": "address",
          "name": "",
          "type": "address"
        }
      ],
      "stateMutability": "view",
      "type": "function"
    },
    {
      "inputs": [],
      "name": "platform",
      "outputs": [
        {
          "internalType": "address",
          "name": "",
          "type": "address"
        }
      ],
      "stateMutability": "view",
      "type": "function"
    },
    {
      "inputs": [],
      "name": "renounceOwnership",
      "outputs": [],
      "stateMutability": "nonpayable",
      "type": "function"
    },
    {
      "inputs": [],
      "name": "reverseTime",
      "outputs": [
        {
          "internalType": "uint256",
          "name": "",
          "type": "uint256"
        }
      ],
      "stateMutability": "view",
      "type": "function"
    },
    {
      "inputs": [
        {
          "internalType": "address",
          "name": "newOperator_",
          "type": "address"
        }
      ],
      "name": "transferOperator",
      "outputs": [],
      "stateMutability": "nonpayable",
      "type": "function"
    },
    {
      "inputs": [
        {
          "internalType": "address",
          "name": "newOwner",
          "type": "address"
        }
      ],
      "name": "transferOwnership",
      "outputs": [],
      "stateMutability": "nonpayable",
      "type": "function"
    },
    {
      "stateMutability": "payable",
      "type": "receive"
    },
    {
      "inputs": [
        {
          "internalType": "uint256",
          "name": "_limitTime",
          "type": "uint256"
        },
        {
          "internalType": "uint256",
          "name": "_extendTime",
          "type": "uint256"
        },
        {
          "internalType": "uint256",
          "name": "_reverseTime",
          "type": "uint256"
        }
      ],
      "name": "setReverseTime",
      "outputs": [],
      "stateMutability": "nonpayable",
      "type": "function"
    },
    {
      "inputs": [
        {
          "internalType": "contract IAgERC721",
          "name": "_artGee",
          "type": "address"
        },
        {
          "internalType": "address",
          "name": "_platform",
          "type": "address"
        }
      ],
      "name": "setArtgee",
      "outputs": [],
      "stateMutability": "nonpayable",
      "type": "function"
    },
    {
      "inputs": [
        {
          "internalType": "address",
          "name": "_token",
          "type": "address"
        },
        {
          "internalType": "uint256",
          "name": "_tokenId",
          "type": "uint256"
        },
        {
          "internalType": "uint256",
          "name": "_openingBid",
          "type": "uint256"
        },
        {
          "internalType": "uint256",
          "name": "_fixedPrice",
          "type": "uint256"
        }
      ],
      "name": "auction",
      "outputs": [],
      "stateMutability": "nonpayable",
      "type": "function"
    },
    {
      "inputs": [
        {
          "internalType": "uint256",
          "name": "_auctionId",
          "type": "uint256"
        },
        {
          "internalType": "uint256",
          "name": "_openingBid",
          "type": "uint256"
        },
        {
          "internalType": "uint256",
          "name": "_fixedPrice",
          "type": "uint256"
        }
      ],
      "name": "reAuction",
      "outputs": [],
      "stateMutability": "nonpayable",
      "type": "function"
    },
    {
      "inputs": [
        {
          "internalType": "uint256",
          "name": "_auctionId",
          "type": "uint256"
        }
      ],
      "name": "bid",
      "outputs": [],
      "stateMutability": "payable",
      "type": "function"
    },
    {
      "inputs": [
        {
          "internalType": "uint256",
          "name": "_auctionId",
          "type": "uint256"
        }
      ],
      "name": "getCurrentPrice",
      "outputs": [
        {
          "internalType": "uint256",
          "name": "_nowBidPrice",
          "type": "uint256"
        }
      ],
      "stateMutability": "view",
      "type": "function"
    },
    {
      "inputs": [
        {
          "internalType": "uint256",
          "name": "_auctionId",
          "type": "uint256"
        }
      ],
      "name": "cancel",
      "outputs": [],
      "stateMutability": "nonpayable",
      "type": "function"
    },
    {
      "inputs": [
        {
          "internalType": "uint256",
          "name": "_auctionId",
          "type": "uint256"
        }
      ],
      "name": "sellingSettlementPrice",
      "outputs": [],
      "stateMutability": "nonpayable",
      "type": "function"
    },
    {
      "inputs": [
        {
          "internalType": "uint256",
          "name": "_auctionId",
          "type": "uint256"
        }
      ],
      "name": "bidderReverse",
      "outputs": [],
      "stateMutability": "nonpayable",
      "type": "function"
    },
    {
      "inputs": [
        {
          "internalType": "uint256",
          "name": "_auctionId",
          "type": "uint256"
        }
      ],
      "name": "fixedWithdraw",
      "outputs": [],
      "stateMutability": "payable",
      "type": "function"
    },
    {
      "inputs": [
        {
          "internalType": "address",
          "name": "",
          "type": "address"
        },
        {
          "internalType": "address",
          "name": "",
          "type": "address"
        },
        {
          "internalType": "uint256",
          "name": "",
          "type": "uint256"
        },
        {
          "internalType": "bytes",
          "name": "",
          "type": "bytes"
        }
      ],
      "name": "onERC721Received",
      "outputs": [
        {
          "internalType": "bytes4",
          "name": "",
          "type": "bytes4"
        }
      ],
      "stateMutability": "pure",
      "type": "function"
    }
  ],
  "bytecode": "0x608060405262015180600455610384600555620697806006556064600755604051806040016040528060c860ff168152602001606460ff1681525060089060026200004c92919062000264565b506103e86009553480156200006057600080fd5b506040516200417338038062004173833981810160405260208110156200008657600080fd5b81019080805190602001909291905050506000620000a96200025c60201b60201c565b9050806000806101000a81548173ffffffffffffffffffffffffffffffffffffffff021916908373ffffffffffffffffffffffffffffffffffffffff1602179055508073ffffffffffffffffffffffffffffffffffffffff16600073ffffffffffffffffffffffffffffffffffffffff167f8be0079c531659141344cd1fd0a4f28419497f9722a3daafe3b4186f6b6457e060405160405180910390a350620001576200025c60201b60201c565b600160006101000a81548173ffffffffffffffffffffffffffffffffffffffff021916908373ffffffffffffffffffffffffffffffffffffffff160217905550600160009054906101000a900473ffffffffffffffffffffffffffffffffffffffff1673ffffffffffffffffffffffffffffffffffffffff16600073ffffffffffffffffffffffffffffffffffffffff167f74da04524d50c64947f5dd5381ef1a4dca5cba8ed1d816243f9e48aa0b5617ed60405160405180910390a380600e60006101000a81548173ffffffffffffffffffffffffffffffffffffffff021916908373ffffffffffffffffffffffffffffffffffffffff16021790555050620002da565b600033905090565b828054828255906000526020600020908101928215620002a8579160200282015b82811115620002a7578251829060ff1690559160200191906001019062000285565b5b509050620002b79190620002bb565b5090565b5b80821115620002d6576000816000905550600101620002bc565b5090565b613e8980620002ea6000396000f3fe60806040526004361061016a5760003560e01c80638e4bb9a1116100d1578063cb350d261161008a578063f16a81a211610064578063f16a81a214610775578063f288f46f146107c4578063f2ec6fad1461089b578063f2fde38b146108ea57610171565b8063cb350d26146106bd578063d5422f86146106f8578063d961eb1d1461074757610171565b80638e4bb9a114610553578063abb6ae891461057e578063b3b95e30146105a9578063baa283d3146105d4578063c55d0f5614610643578063c5ac0ded1461069257610171565b80634bde38c8116101235780634bde38c814610413578063570ca735146104545780635b4458a014610495578063715018a6146104d05780637fd6f15c146104e75780638da5cb5b1461051257610171565b8063122e986f14610176578063150b7a02146101e757806329605e771461032c57806340e58ee51461037d5780634456eda2146103b8578063454a2ab3146103e557610171565b3661017157005b600080fd5b34801561018257600080fd5b506101e56004803603604081101561019957600080fd5b81019080803573ffffffffffffffffffffffffffffffffffffffff169060200190929190803573ffffffffffffffffffffffffffffffffffffffff16906020019092919050505061093b565b005b3480156101f357600080fd5b506102f76004803603608081101561020a57600080fd5b81019080803573ffffffffffffffffffffffffffffffffffffffff169060200190929190803573ffffffffffffffffffffffffffffffffffffffff169060200190929190803590602001909291908035906020019064010000000081111561027157600080fd5b82018360208201111561028357600080fd5b803590602001918460018302840111640100000000831117156102a557600080fd5b91908080601f016020809104026020016040519081016040528093929190818152602001838380828437600081840152601f19601f820116905080830192505050505050509192919290505050610a70565b60405180827bffffffffffffffffffffffffffffffffffffffffffffffffffffffff1916815260200191505060405180910390f35b34801561033857600080fd5b5061037b6004803603602081101561034f57600080fd5b81019080803573ffffffffffffffffffffffffffffffffffffffff169060200190929190505050610a84565b005b34801561038957600080fd5b506103b6600480360360208110156103a057600080fd5b8101908080359060200190929190505050610b3f565b005b3480156103c457600080fd5b506103cd610ea7565b60405180821515815260200191505060405180910390f35b610411600480360360208110156103fb57600080fd5b8101908080359060200190929190505050610f06565b005b34801561041f57600080fd5b506104286112b0565b604051808273ffffffffffffffffffffffffffffffffffffffff16815260200191505060405180910390f35b34801561046057600080fd5b506104696112d6565b604051808273ffffffffffffffffffffffffffffffffffffffff16815260200191505060405180910390f35b3480156104a157600080fd5b506104ce600480360360208110156104b857600080fd5b8101908080359060200190929190505050611300565b005b3480156104dc57600080fd5b506104e5611c66565b005b3480156104f357600080fd5b506104fc611dd3565b6040518082815260200191505060405180910390f35b34801561051e57600080fd5b50610527611dd9565b604051808273ffffffffffffffffffffffffffffffffffffffff16815260200191505060405180910390f35b34801561055f57600080fd5b50610568611e02565b6040518082815260200191505060405180910390f35b34801561058a57600080fd5b50610593611e08565b6040518082815260200191505060405180910390f35b3480156105b557600080fd5b506105be611e0e565b6040518082815260200191505060405180910390f35b3480156105e057600080fd5b50610641600480360360808110156105f757600080fd5b81019080803573ffffffffffffffffffffffffffffffffffffffff169060200190929190803590602001909291908035906020019092919080359060200190929190505050611e14565b005b34801561064f57600080fd5b5061067c6004803603602081101561066657600080fd5b81019080803590602001909291905050506120bc565b6040518082815260200191505060405180910390f35b34801561069e57600080fd5b506106a7612246565b6040518082815260200191505060405180910390f35b3480156106c957600080fd5b506106f6600480360360208110156106e057600080fd5b810190808035906020019092919050505061224c565b005b34801561070457600080fd5b506107456004803603606081101561071b57600080fd5b810190808035906020019092919080359060200190929190803590602001909291905050506124d3565b005b6107736004803603602081101561075d57600080fd5b8101908080359060200190929190505050612832565b005b34801561078157600080fd5b506107c26004803603606081101561079857600080fd5b810190808035906020019092919080359060200190929190803590602001909291905050506131d5565b005b3480156107d057600080fd5b506107fd600480360360208110156107e757600080fd5b8101908080359060200190929190505050613306565b604051808c73ffffffffffffffffffffffffffffffffffffffff1681526020018b81526020018a73ffffffffffffffffffffffffffffffffffffffff1681526020018973ffffffffffffffffffffffffffffffffffffffff1681526020018881526020018781526020018681526020018581526020018481526020018381526020018281526020019b50505050505050505050505060405180910390f35b3480156108a757600080fd5b506108d4600480360360208110156108be57600080fd5b81019080803590602001909291905050506133c0565b6040518082815260200191505060405180910390f35b3480156108f657600080fd5b506109396004803603602081101561090d57600080fd5b81019080803573ffffffffffffffffffffffffffffffffffffffff1690602001909291905050506133e1565b005b6109436135d3565b73ffffffffffffffffffffffffffffffffffffffff16610961611dd9565b73ffffffffffffffffffffffffffffffffffffffff16146109ea576040517f08c379a00000000000000000000000000000000000000000000000000000000081526004018080602001828103825260208152602001807f4f776e61626c653a2063616c6c6572206973206e6f7420746865206f776e657281525060200191505060405180910390fd5b81600e60006101000a81548173ffffffffffffffffffffffffffffffffffffffff021916908373ffffffffffffffffffffffffffffffffffffffff16021790555080600a60006101000a81548173ffffffffffffffffffffffffffffffffffffffff021916908373ffffffffffffffffffffffffffffffffffffffff1602179055505050565b600063150b7a0260e01b9050949350505050565b610a8c6135d3565b73ffffffffffffffffffffffffffffffffffffffff16610aaa611dd9565b73ffffffffffffffffffffffffffffffffffffffff1614610b33576040517f08c379a00000000000000000000000000000000000000000000000000000000081526004018080602001828103825260208152602001807f4f776e61626c653a2063616c6c6572206973206e6f7420746865206f776e657281525060200191505060405180910390fd5b610b3c816135db565b50565b600060036000838152602001908152602001600020905080600a01544211610bcf576040517f08c379a00000000000000000000000000000000000000000000000000000000081526004018080602001828103825260108152602001807f41756374696f6e206e6f74206f7665720000000000000000000000000000000081525060200191505060405180910390fd5b3373ffffffffffffffffffffffffffffffffffffffff168160020160009054906101000a900473ffffffffffffffffffffffffffffffffffffffff1673ffffffffffffffffffffffffffffffffffffffff1614610c94576040517f08c379a00000000000000000000000000000000000000000000000000000000081526004018080602001828103825260158152602001807f4e6f742061756374696f6e2069642073656c6c6572000000000000000000000081525060200191505060405180910390fd5b6000816009015414610d0e576040517f08c379a00000000000000000000000000000000000000000000000000000000081526004018080602001828103825260078152602001807f486173206269640000000000000000000000000000000000000000000000000081525060200191505060405180910390fd5b60008160000160009054906101000a900473ffffffffffffffffffffffffffffffffffffffff1690508073ffffffffffffffffffffffffffffffffffffffff166342842e0e303385600101546040518463ffffffff1660e01b8152600401808473ffffffffffffffffffffffffffffffffffffffff1681526020018373ffffffffffffffffffffffffffffffffffffffff1681526020018281526020019350505050600060405180830381600087803b158015610dca57600080fd5b505af1158015610dde573d6000803e3d6000fd5b50505050827f8c31939844a621b830a939ffee70d36ee97342a015b4e9c6764c7ea1926caa1b8360020160009054906101000a900473ffffffffffffffffffffffffffffffffffffffff168460000160009054906101000a900473ffffffffffffffffffffffffffffffffffffffff168560010154604051808473ffffffffffffffffffffffffffffffffffffffff1681526020018373ffffffffffffffffffffffffffffffffffffffff168152602001828152602001935050505060405180910390a2505050565b6000600160009054906101000a900473ffffffffffffffffffffffffffffffffffffffff1673ffffffffffffffffffffffffffffffffffffffff16610eea6135d3565b73ffffffffffffffffffffffffffffffffffffffff1614905090565b60006003600083815260200190815260200160002090506000816009015414610f97576040517f08c379a000000000000000000000000000000000000000000000000000000000815260040180806020018281038252600e8152602001807f4e6f74206f6e2061756374696f6e00000000000000000000000000000000000081525060200191505060405180910390fd5b8060020160009054906101000a900473ffffffffffffffffffffffffffffffffffffffff1673ffffffffffffffffffffffffffffffffffffffff163373ffffffffffffffffffffffffffffffffffffffff16141561105d576040517f08c379a00000000000000000000000000000000000000000000000000000000081526004018080602001828103825260128152602001807f53656c6c65722063616e206e6f7420626964000000000000000000000000000081525060200191505060405180910390fd5b6000816006015490508034116110db576040517f08c379a000000000000000000000000000000000000000000000000000000000815260040180806020018281038252600b8152602001807f56616c7565206572726f7200000000000000000000000000000000000000000081525060200191505060405180910390fd5b81600a0154421115611155576040517f08c379a000000000000000000000000000000000000000000000000000000000815260040180806020018281038252600c8152602001807f41756374696f6e206f766572000000000000000000000000000000000000000081525060200191505060405180910390fd5b8082600601819055506005546111784284600a015461370090919063ffffffff16565b1161119b576111926005544261378390919063ffffffff16565b82600a01819055505b6111c98260030160009054906101000a900473ffffffffffffffffffffffffffffffffffffffff168461380b565b6111d33384613a2e565b338260030160006101000a81548173ffffffffffffffffffffffffffffffffffffffff021916908373ffffffffffffffffffffffffffffffffffffffff160217905550600182600901819055506112386001836007015461378390919063ffffffff16565b8260070181905550827f76b552d768564e2bf5325e2d83fe7184b2838e6e58fc33173aef30980e0269c8338385600701546001604051808573ffffffffffffffffffffffffffffffffffffffff16815260200184815260200183815260200182815260200194505050505060405180910390a2505050565b600a60009054906101000a900473ffffffffffffffffffffffffffffffffffffffff1681565b6000600160009054906101000a900473ffffffffffffffffffffffffffffffffffffffff16905090565b60006003600083815260200190815260200160002090506001816009015414611391576040517f08c379a000000000000000000000000000000000000000000000000000000000815260040180806020018281038252600a8152602001807f4e6f74206f6e206269640000000000000000000000000000000000000000000081525060200191505060405180910390fd5b8060020160009054906101000a900473ffffffffffffffffffffffffffffffffffffffff1673ffffffffffffffffffffffffffffffffffffffff163373ffffffffffffffffffffffffffffffffffffffff1614611456576040517f08c379a000000000000000000000000000000000000000000000000000000000815260040180806020018281038252600a8152602001807f4e6f742073656c6c65720000000000000000000000000000000000000000000081525060200191505060405180910390fd5b6003816009018190555060008160060154905060008260000160009054906101000a900473ffffffffffffffffffffffffffffffffffffffff1690508073ffffffffffffffffffffffffffffffffffffffff166342842e0e308560030160009054906101000a900473ffffffffffffffffffffffffffffffffffffffff1686600101546040518463ffffffff1660e01b8152600401808473ffffffffffffffffffffffffffffffffffffffff1681526020018373ffffffffffffffffffffffffffffffffffffffff1681526020018281526020019350505050600060405180830381600087803b15801561154957600080fd5b505af115801561155d573d6000803e3d6000fd5b50505050600061158c60095461157e60075486613b2f90919063ffffffff16565b613bb590919063ffffffff16565b905060006115bc600a60009054906101000a900473ffffffffffffffffffffffffffffffffffffffff1683613c3e565b8460000160009054906101000a900473ffffffffffffffffffffffffffffffffffffffff1673ffffffffffffffffffffffffffffffffffffffff16600e60009054906101000a900473ffffffffffffffffffffffffffffffffffffffff1673ffffffffffffffffffffffffffffffffffffffff161415611b6e576000600e60009054906101000a900473ffffffffffffffffffffffffffffffffffffffff1673ffffffffffffffffffffffffffffffffffffffff1663abb03ba687600101546040518263ffffffff1660e01b81526004018082815260200191505060606040518083038186803b1580156116af57600080fd5b505afa1580156116c3573d6000803e3d6000fd5b505050506040513d60608110156116d957600080fd5b81019080805190602001909291908051906020019092919080519060200190929190505050505090506000606080600e60009054906101000a900473ffffffffffffffffffffffffffffffffffffffff1673ffffffffffffffffffffffffffffffffffffffff1663e726d96b856040518263ffffffff1660e01b81526004018082815260200191505060006040518083038186803b15801561177a57600080fd5b505afa15801561178e573d6000803e3d6000fd5b505050506040513d6000823e3d601f19601f8201168201806040525060e08110156117b857600080fd5b81019080805190602001909291908051906020019092919080519060200190929190805190602001909291908051604051939291908464010000000082111561180057600080fd5b8382019150602082018581111561181657600080fd5b825186602082028301116401000000008211171561183357600080fd5b8083526020830192505050908051906020019060200280838360005b8381101561186a57808201518184015260208101905061184f565b505050509050016040526020018051604051939291908464010000000082111561189357600080fd5b838201915060208201858111156118a957600080fd5b82518660208202830111640100000000821117156118c657600080fd5b8083526020830192505050908051906020019060200280838360005b838110156118fd5780820151818401526020810190506118e2565b505050509050016040526020018051604051939291908464010000000082111561192657600080fd5b8382019150602082018581111561193c57600080fd5b825186600182028301116401000000008211171561195957600080fd5b8083526020830192505050908051906020019080838360005b8381101561198d578082015181840152602081019050611972565b50505050905090810190601f1680156119ba5780820380516001836020036101000a031916815260200191505b50604052505050509550955095505050506000600b60008b60010154815260200190815260200160002060009054906101000a900460ff169050611a57600954611a4983611a20576008600081548110611a1057fe5b9060005260206000200154611a3a565b6008600181548110611a2e57fe5b90600052602060002001545b8c613b2f90919063ffffffff16565b613bb590919063ffffffff16565b9550600083511415611a7257611a6d8487613c3e565b611b38565b60005b8251811015611b36576000811415611acf57611aca85611ac5600954611ab7878681518110611aa057fe5b60200260200101518c613b2f90919063ffffffff16565b613bb590919063ffffffff16565b613c3e565b611b29565b611b28846001830381518110611ae157fe5b6020026020010151611b23600954611b15878681518110611afe57fe5b60200260200101518c613b2f90919063ffffffff16565b613bb590919063ffffffff16565b613c3e565b5b8080600101915050611a75565b505b6001600b60008c60010154815260200190815260200160002060006101000a81548160ff02191690831515021790555050505050505b611bc08560020160009054906101000a900473ffffffffffffffffffffffffffffffffffffffff16611bbb83611bad868961370090919063ffffffff16565b61370090919063ffffffff16565b613c3e565b857f6ec501293d2a8daa5e9d48cb821c130dfec5262c7ca632b23c5246880f5f32de8660030160009054906101000a900473ffffffffffffffffffffffffffffffffffffffff16611c2c84611c1e878a61370090919063ffffffff16565b61370090919063ffffffff16565b604051808373ffffffffffffffffffffffffffffffffffffffff1681526020018281526020019250505060405180910390a2505050505050565b611c6e6135d3565b73ffffffffffffffffffffffffffffffffffffffff16611c8c611dd9565b73ffffffffffffffffffffffffffffffffffffffff1614611d15576040517f08c379a00000000000000000000000000000000000000000000000000000000081526004018080602001828103825260208152602001807f4f776e61626c653a2063616c6c6572206973206e6f7420746865206f776e657281525060200191505060405180910390fd5b600073ffffffffffffffffffffffffffffffffffffffff1660008054906101000a900473ffffffffffffffffffffffffffffffffffffffff1673ffffffffffffffffffffffffffffffffffffffff167f8be0079c531659141344cd1fd0a4f28419497f9722a3daafe3b4186f6b6457e060405160405180910390a360008060006101000a81548173ffffffffffffffffffffffffffffffffffffffff021916908373ffffffffffffffffffffffffffffffffffffffff160217905550565b60075481565b60008060009054906101000a900473ffffffffffffffffffffffffffffffffffffffff16905090565b60065481565b60055481565b60045481565b611e1e6002613d1f565b6000611e2a6002613d35565b90506000600360008381526020019081526020016000209050858160000160006101000a81548173ffffffffffffffffffffffffffffffffffffffff021916908373ffffffffffffffffffffffffffffffffffffffff160217905550848160010181905550338160020160006101000a81548173ffffffffffffffffffffffffffffffffffffffff021916908373ffffffffffffffffffffffffffffffffffffffff16021790555083816004018190555083816006018190555082816005018190555060008160030160006101000a81548173ffffffffffffffffffffffffffffffffffffffff021916908373ffffffffffffffffffffffffffffffffffffffff160217905550600081600701819055506000429050808260080181905550611f5e6004548261378390919063ffffffff16565b82600a01819055506000826009018190555060008790508073ffffffffffffffffffffffffffffffffffffffff166342842e0e33308a6040518463ffffffff1660e01b8152600401808473ffffffffffffffffffffffffffffffffffffffff1681526020018373ffffffffffffffffffffffffffffffffffffffff1681526020018281526020019350505050600060405180830381600087803b15801561200457600080fd5b505af1158015612018573d6000803e3d6000fd5b505050506120263385613a2e565b837f2dc341b4c695fda2e351f1ce19f0f52a4b45ea8dd6865d7364949079afe9caaa8989338a8a88604051808773ffffffffffffffffffffffffffffffffffffffff1681526020018681526020018573ffffffffffffffffffffffffffffffffffffffff168152602001848152602001838152602001828152602001965050505050505060405180910390a25050505050505050565b60006120c6613d43565b60036000848152602001908152602001600020604051806101600160405290816000820160009054906101000a900473ffffffffffffffffffffffffffffffffffffffff1673ffffffffffffffffffffffffffffffffffffffff1673ffffffffffffffffffffffffffffffffffffffff168152602001600182015481526020016002820160009054906101000a900473ffffffffffffffffffffffffffffffffffffffff1673ffffffffffffffffffffffffffffffffffffffff1673ffffffffffffffffffffffffffffffffffffffff1681526020016003820160009054906101000a900473ffffffffffffffffffffffffffffffffffffffff1673ffffffffffffffffffffffffffffffffffffffff1673ffffffffffffffffffffffffffffffffffffffff168152602001600482015481526020016005820154815260200160068201548152602001600782015481526020016008820154815260200160098201548152602001600a8201548152505090508060c00151915050919050565b60095481565b600060036000838152602001908152602001600020905060018160090154146122dd576040517f08c379a00000000000000000000000000000000000000000000000000000000081526004018080602001828103825260128152602001807f52657665727365206e6f74206f6e20626964000000000000000000000000000081525060200191505060405180910390fd5b426122f760065483600a015461378390919063ffffffff16565b111561236b576040517f08c379a000000000000000000000000000000000000000000000000000000000815260040180806020018281038252600e8152602001807f4e6f74206f6e2061756374696f6e00000000000000000000000000000000000081525060200191505060405180910390fd5b8060030160009054906101000a900473ffffffffffffffffffffffffffffffffffffffff1673ffffffffffffffffffffffffffffffffffffffff163373ffffffffffffffffffffffffffffffffffffffff1614612430576040517f08c379a000000000000000000000000000000000000000000000000000000000815260040180806020018281038252600a8152602001807f4e6f74206269646465720000000000000000000000000000000000000000000081525060200191505060405180910390fd5b61243e338260060154613c3e565b60028160090181905550817f87c90c36235bb1ca165c5912f31713d02930c0cf3762cde642d2a68a9dfa7edf8260030160009054906101000a900473ffffffffffffffffffffffffffffffffffffffff1683600601546002604051808473ffffffffffffffffffffffffffffffffffffffff168152602001838152602001828152602001935050505060405180910390a25050565b600060036000858152602001908152602001600020905080600a01544211612563576040517f08c379a00000000000000000000000000000000000000000000000000000000081526004018080602001828103825260108152602001807f41756374696f6e206e6f74206f7665720000000000000000000000000000000081525060200191505060405180910390fd5b3373ffffffffffffffffffffffffffffffffffffffff168160020160009054906101000a900473ffffffffffffffffffffffffffffffffffffffff1673ffffffffffffffffffffffffffffffffffffffff1614612628576040517f08c379a00000000000000000000000000000000000000000000000000000000081526004018080602001828103825260158152602001807f4e6f742061756374696f6e2069642073656c6c6572000000000000000000000081525060200191505060405180910390fd5b600181600901541415612668576126678160030160009054906101000a900473ffffffffffffffffffffffffffffffffffffffff168260060154613c3e565b5b338160020160006101000a81548173ffffffffffffffffffffffffffffffffffffffff021916908373ffffffffffffffffffffffffffffffffffffffff16021790555082816004018190555082816006018190555081816005018190555060008160030160006101000a81548173ffffffffffffffffffffffffffffffffffffffff021916908373ffffffffffffffffffffffffffffffffffffffff160217905550600042905080826008018190555061272d6004548261378390919063ffffffff16565b82600a018190555060008260090181905550600082600701819055506127778260030160009054906101000a900473ffffffffffffffffffffffffffffffffffffffff168661380b565b847f70cca8c070ea3f8e52bd731d5b28afa7cdff21d5e030326cd50cc6555df60ddb8360000160009054906101000a900473ffffffffffffffffffffffffffffffffffffffff16846001015433888887604051808773ffffffffffffffffffffffffffffffffffffffff1681526020018681526020018573ffffffffffffffffffffffffffffffffffffffff168152602001848152602001838152602001828152602001965050505050505060405180910390a25050505050565b6000600360008381526020019081526020016000209050600181600901541480612860575060008160090154145b6128d2576040517f08c379a000000000000000000000000000000000000000000000000000000000815260040180806020018281038252601e8152602001807f5769746864726177206e6f74206f6e20626964206f72206f6e2073656c6c000081525060200191505060405180910390fd5b4281600a0154111561294c576040517f08c379a000000000000000000000000000000000000000000000000000000000815260040180806020018281038252600e8152602001807f4e6f74206f6e2061756374696f6e00000000000000000000000000000000000081525060200191505060405180910390fd5b348160050154146129c5576040517f08c379a00000000000000000000000000000000000000000000000000000000081526004018080602001828103825260108152602001807f4e6f74206669657865642070726963650000000000000000000000000000000081525060200191505060405180910390fd5b6000816005015490506004826009018190555060008260000160009054906101000a900473ffffffffffffffffffffffffffffffffffffffff1690508073ffffffffffffffffffffffffffffffffffffffff166342842e0e308560030160009054906101000a900473ffffffffffffffffffffffffffffffffffffffff1686600101546040518463ffffffff1660e01b8152600401808473ffffffffffffffffffffffffffffffffffffffff1681526020018373ffffffffffffffffffffffffffffffffffffffff1681526020018281526020019350505050600060405180830381600087803b158015612ab857600080fd5b505af1158015612acc573d6000803e3d6000fd5b505050506000612afb600954612aed60075486613b2f90919063ffffffff16565b613bb590919063ffffffff16565b90506000612b2b600a60009054906101000a900473ffffffffffffffffffffffffffffffffffffffff1683613c3e565b8460000160009054906101000a900473ffffffffffffffffffffffffffffffffffffffff1673ffffffffffffffffffffffffffffffffffffffff16600e60009054906101000a900473ffffffffffffffffffffffffffffffffffffffff1673ffffffffffffffffffffffffffffffffffffffff1614156130dd576000600e60009054906101000a900473ffffffffffffffffffffffffffffffffffffffff1673ffffffffffffffffffffffffffffffffffffffff1663abb03ba687600101546040518263ffffffff1660e01b81526004018082815260200191505060606040518083038186803b158015612c1e57600080fd5b505afa158015612c32573d6000803e3d6000fd5b505050506040513d6060811015612c4857600080fd5b81019080805190602001909291908051906020019092919080519060200190929190505050505090506000606080600e60009054906101000a900473ffffffffffffffffffffffffffffffffffffffff1673ffffffffffffffffffffffffffffffffffffffff1663e726d96b856040518263ffffffff1660e01b81526004018082815260200191505060006040518083038186803b158015612ce957600080fd5b505afa158015612cfd573d6000803e3d6000fd5b505050506040513d6000823e3d601f19601f8201168201806040525060e0811015612d2757600080fd5b810190808051906020019092919080519060200190929190805190602001909291908051906020019092919080516040519392919084640100000000821115612d6f57600080fd5b83820191506020820185811115612d8557600080fd5b8251866020820283011164010000000082111715612da257600080fd5b8083526020830192505050908051906020019060200280838360005b83811015612dd9578082015181840152602081019050612dbe565b5050505090500160405260200180516040519392919084640100000000821115612e0257600080fd5b83820191506020820185811115612e1857600080fd5b8251866020820283011164010000000082111715612e3557600080fd5b8083526020830192505050908051906020019060200280838360005b83811015612e6c578082015181840152602081019050612e51565b5050505090500160405260200180516040519392919084640100000000821115612e9557600080fd5b83820191506020820185811115612eab57600080fd5b8251866001820283011164010000000082111715612ec857600080fd5b8083526020830192505050908051906020019080838360005b83811015612efc578082015181840152602081019050612ee1565b50505050905090810190601f168015612f295780820380516001836020036101000a031916815260200191505b50604052505050509550955095505050506000600b60008b60010154815260200190815260200160002060009054906101000a900460ff169050612fc6600954612fb883612f8f576008600081548110612f7f57fe5b9060005260206000200154612fa9565b6008600181548110612f9d57fe5b90600052602060002001545b8c613b2f90919063ffffffff16565b613bb590919063ffffffff16565b9550600083511415612fe157612fdc8487613c3e565b6130a7565b60005b82518110156130a557600081141561303e576130398561303460095461302687868151811061300f57fe5b60200260200101518c613b2f90919063ffffffff16565b613bb590919063ffffffff16565b613c3e565b613098565b61309784600183038151811061305057fe5b602002602001015161309260095461308487868151811061306d57fe5b60200260200101518c613b2f90919063ffffffff16565b613bb590919063ffffffff16565b613c3e565b5b8080600101915050612fe4565b505b6001600b60008c60010154815260200190815260200160002060006101000a81548160ff02191690831515021790555050505050505b61312f8560020160009054906101000a900473ffffffffffffffffffffffffffffffffffffffff1661312a8361311c868961370090919063ffffffff16565b61370090919063ffffffff16565b613c3e565b857f2a372aacf8b1ce9c812230584d16eeeda4992804873e47d359e948aa61af1c458660030160009054906101000a900473ffffffffffffffffffffffffffffffffffffffff1661319b8461318d878a61370090919063ffffffff16565b61370090919063ffffffff16565b604051808373ffffffffffffffffffffffffffffffffffffffff1681526020018281526020019250505060405180910390a2505050505050565b6131dd6135d3565b73ffffffffffffffffffffffffffffffffffffffff166131fb611dd9565b73ffffffffffffffffffffffffffffffffffffffff1614613284576040517f08c379a00000000000000000000000000000000000000000000000000000000081526004018080602001828103825260208152602001807f4f776e61626c653a2063616c6c6572206973206e6f7420746865206f776e657281525060200191505060405180910390fd5b7f83ab88e3788c7fcd47f116ebeeb2ed3108eada6f186aaab497d45115e03ed1cd60045460055460065460405180848152602001838152602001828152602001935050505060405180910390a1600083146132e157826004819055505b600082146132f157816005819055505b6000811461330157806006819055505b505050565b60036020528060005260406000206000915090508060000160009054906101000a900473ffffffffffffffffffffffffffffffffffffffff16908060010154908060020160009054906101000a900473ffffffffffffffffffffffffffffffffffffffff16908060030160009054906101000a900473ffffffffffffffffffffffffffffffffffffffff169080600401549080600501549080600601549080600701549080600801549080600901549080600a015490508b565b600881815481106133cd57fe5b906000526020600020016000915090505481565b6133e96135d3565b73ffffffffffffffffffffffffffffffffffffffff16613407611dd9565b73ffffffffffffffffffffffffffffffffffffffff1614613490576040517f08c379a00000000000000000000000000000000000000000000000000000000081526004018080602001828103825260208152602001807f4f776e61626c653a2063616c6c6572206973206e6f7420746865206f776e657281525060200191505060405180910390fd5b600073ffffffffffffffffffffffffffffffffffffffff168173ffffffffffffffffffffffffffffffffffffffff161415613516576040517f08c379a0000000000000000000000000000000000000000000000000000000008152600401808060200182810382526026815260200180613de06026913960400191505060405180910390fd5b8073ffffffffffffffffffffffffffffffffffffffff1660008054906101000a900473ffffffffffffffffffffffffffffffffffffffff1673ffffffffffffffffffffffffffffffffffffffff167f8be0079c531659141344cd1fd0a4f28419497f9722a3daafe3b4186f6b6457e060405160405180910390a3806000806101000a81548173ffffffffffffffffffffffffffffffffffffffff021916908373ffffffffffffffffffffffffffffffffffffffff16021790555050565b600033905090565b600073ffffffffffffffffffffffffffffffffffffffff168173ffffffffffffffffffffffffffffffffffffffff161415613661576040517f08c379a000000000000000000000000000000000000000000000000000000000815260040180806020018281038252602d815260200180613e06602d913960400191505060405180910390fd5b8073ffffffffffffffffffffffffffffffffffffffff16600073ffffffffffffffffffffffffffffffffffffffff167f74da04524d50c64947f5dd5381ef1a4dca5cba8ed1d816243f9e48aa0b5617ed60405160405180910390a380600160006101000a81548173ffffffffffffffffffffffffffffffffffffffff021916908373ffffffffffffffffffffffffffffffffffffffff16021790555050565b600082821115613778576040517f08c379a000000000000000000000000000000000000000000000000000000000815260040180806020018281038252601e8152602001807f536166654d6174683a207375627472616374696f6e206f766572666c6f77000081525060200191505060405180910390fd5b818303905092915050565b600080828401905083811015613801576040517f08c379a000000000000000000000000000000000000000000000000000000000815260040180806020018281038252601b8152602001807f536166654d6174683a206164646974696f6e206f766572666c6f77000000000081525060200191505060405180910390fd5b8091505092915050565b60006138636001600c60008673ffffffffffffffffffffffffffffffffffffffff1673ffffffffffffffffffffffffffffffffffffffff1681526020019081526020016000208054905061370090919063ffffffff16565b90506000600d60008573ffffffffffffffffffffffffffffffffffffffff1673ffffffffffffffffffffffffffffffffffffffff16815260200190815260200160002060008481526020019081526020016000205490508082146139ca576000600c60008673ffffffffffffffffffffffffffffffffffffffff1673ffffffffffffffffffffffffffffffffffffffff168152602001908152602001600020838154811061390d57fe5b9060005260206000200154905080600c60008773ffffffffffffffffffffffffffffffffffffffff1673ffffffffffffffffffffffffffffffffffffffff168152602001908152602001600020838154811061396557fe5b906000526020600020018190555081600d60008773ffffffffffffffffffffffffffffffffffffffff1673ffffffffffffffffffffffffffffffffffffffff168152602001908152602001600020600083815260200190815260200160002081905550505b600c60008573ffffffffffffffffffffffffffffffffffffffff1673ffffffffffffffffffffffffffffffffffffffff168152602001908152602001600020805480613a1257fe5b6001900381819060005260206000200160009055905550505050565b600c60008373ffffffffffffffffffffffffffffffffffffffff1673ffffffffffffffffffffffffffffffffffffffff16815260200190815260200160002080549050600d60008473ffffffffffffffffffffffffffffffffffffffff1673ffffffffffffffffffffffffffffffffffffffff168152602001908152602001600020600083815260200190815260200160002081905550600c60008373ffffffffffffffffffffffffffffffffffffffff1673ffffffffffffffffffffffffffffffffffffffff1681526020019081526020016000208190806001815401808255809150506001900390600052602060002001600090919091909150555050565b600080831415613b425760009050613baf565b6000828402905082848281613b5357fe5b0414613baa576040517f08c379a0000000000000000000000000000000000000000000000000000000008152600401808060200182810382526021815260200180613e336021913960400191505060405180910390fd5b809150505b92915050565b6000808211613c2c576040517f08c379a000000000000000000000000000000000000000000000000000000000815260040180806020018281038252601a8152602001807f536166654d6174683a206469766973696f6e206279207a65726f00000000000081525060200191505060405180910390fd5b818381613c3557fe5b04905092915050565b60008273ffffffffffffffffffffffffffffffffffffffff168260405180600001905060006040518083038185875af1925050503d8060008114613c9e576040519150601f19603f3d011682016040523d82523d6000602084013e613ca3565b606091505b5050905080613d1a576040517f08c379a00000000000000000000000000000000000000000000000000000000081526004018080602001828103825260128152602001807f5452414e5346455220455448204552524f52000000000000000000000000000081525060200191505060405180910390fd5b505050565b6001816000016000828254019250508190555050565b600081600001549050919050565b604051806101600160405280600073ffffffffffffffffffffffffffffffffffffffff16815260200160008152602001600073ffffffffffffffffffffffffffffffffffffffff168152602001600073ffffffffffffffffffffffffffffffffffffffff16815260200160008152602001600081526020016000815260200160008152602001600081526020016000815260200160008152509056fe4f776e61626c653a206e6577206f776e657220697320746865207a65726f20616464726573736f70657261746f723a207a65726f206164647265737320676976656e20666f72206e6577206f70657261746f72536166654d6174683a206d756c7469706c69636174696f6e206f766572666c6f77a2646970667358221220de5fc4a1773f9bfa2d0d2c9f373ef125924731817436f9b6b6bcd079c15ade1464736f6c634300060c0033",
  "immutableReferences": {},
  "source": "pragma solidity ^0.6.2;\n\nimport \"./owner/Operator.sol\";\nimport \"@openzeppelin/contracts/token/ERC721/IERC721.sol\";\nimport \"@openzeppelin/contracts/math/SafeMath.sol\";\nimport \"@openzeppelin/contracts/utils/Counters.sol\";\nimport \"@openzeppelin/contracts/utils/Pausable.sol\";\nimport \"./interfaces/IAgERC721.sol\";\n\n/// @title fixed auction\n/// @author yzbbanban\n/// @notice buy token\n/// @dev \ncontract FixedAuction is Operator{\n\n    \n    event Auction(uint256 indexed _auctionId, address _token, \n                    uint256 _tokenId, address _seller, \n                    uint256 _openingBid, uint256 _fixedPrice,uint256 startTime);\n    event ReAuction(uint256 indexed _auctionId, address _token, \n                    uint256 _tokenId, address _seller, \n                    uint256 _openingBid, uint256 _fixedPrice, uint256 startTime);\n    event LastParam(uint256 _limitTime, uint256 _extendTime, uint256 _reverseTime);\n    event Bid(uint256 indexed _auctionId, address _bidder,\n                uint256 _openingBid, uint256 _bidCount,uint _auctionStatus);\n    event Selling(uint256 indexed _auctionId, address _bidder, uint256 _openingBid);\n    event Reverse(uint256 indexed _auctionId, address _bidder, uint256 _openingBid, uint256 _auctionStatus);\n    event Fixed(uint256 indexed _auctionId, address _bidder, uint256 _openingBid);\n    event Cancel(uint256 indexed _auctionId, address _seller, address _token, uint256 _tokenId);\n\n    using Counters for Counters.Counter;\n    Counters.Counter private _auctionIds;\n    using SafeMath for uint256;\n\n    mapping(uint256 => BidInfo) public bidInfos;\n    uint256 public limitTime = 1 days;\n    uint256 public extendTime = 15 minutes;\n    uint256 public reverseTime = 5 days;\n    \n    uint256 public feePercent = 100; //10%\n    uint256[] public artPercent = [200,100]; //first 20%; other time 10%\n    uint256 public basePercent = 1000;\n    address public platform;\n    mapping(uint256 => bool) isNotFirstAuction;\n    //my bids \n    mapping(address => uint256[]) myBidInfos;\n    //my => auction id => index\n    mapping(address => mapping(uint256 => uint256)) myBidInfoIndex;\n\n    IAgERC721 artGee;\n\n\n    constructor(IAgERC721 _artGee) public{\n        artGee = _artGee;\n    }\n\n    struct BidInfo{\n        address token;\n        uint256 tokenId;\n        address seller;\n        address bidder;//change\n        uint256 openingBid;\n        uint256 fixedPrice;\n        uint256 bidPrice;//change\n        uint256 bidCount;//change\n        uint256 startTime;\n        uint auctionStatus;// 0 init; 1 bid; 2 bidder reverse;3 seller finish; 4 bidder finish\n        uint256 expirationTime;//change\n    }\n    \n\n    function setReverseTime(uint256 _limitTime,uint256 _extendTime, uint256 _reverseTime) public onlyOwner(){\n        emit LastParam(limitTime, extendTime, reverseTime);\n        if(_limitTime != 0){\n            limitTime = _limitTime;\n        }\n        if(_extendTime != 0){\n            extendTime = _extendTime;\n        }\n        if(_reverseTime != 0){\n            reverseTime = _reverseTime;\n        }\n    }\n\n    function setArtgee(IAgERC721 _artGee,address _platform) public onlyOwner(){\n        artGee = _artGee;\n        platform = _platform;\n    }\n\n    function auction(address _token, uint256 _tokenId, \n                    uint256 _openingBid,\n                    uint256 _fixedPrice) public{\n        _auctionIds.increment();\n        uint256 auctionId = _auctionIds.current();\n        BidInfo storage bidInfo = bidInfos[auctionId];\n        bidInfo.token = _token;\n        bidInfo.tokenId = _tokenId;\n        bidInfo.seller = msg.sender;\n        bidInfo.openingBid = _openingBid;\n        bidInfo.bidPrice = _openingBid;\n        bidInfo.fixedPrice = _fixedPrice;\n        bidInfo.bidder = address(0);        \n        bidInfo.bidCount = 0;\n        uint256 t = block.timestamp;\n        bidInfo.startTime = t;\n        //1 day later\n        bidInfo.expirationTime = t.add(limitTime);\n        bidInfo.auctionStatus = 0;\n        //add tokenId\n        IERC721 ierc721 = IERC721(_token);\n        ierc721.safeTransferFrom(msg.sender, address(this), _tokenId);\n        // add my auction\n        _addMyAuction(msg.sender,auctionId);\n        emit Auction(auctionId,_token, _tokenId, msg.sender, _openingBid,_fixedPrice, t);\n    }\n\n    function reAuction(uint256 _auctionId, uint256 _openingBid, \n                    uint256 _fixedPrice) public{\n        BidInfo storage bidInfo = bidInfos[_auctionId];\n        //must wait for auction over\n        require(block.timestamp > bidInfo.expirationTime, \"Auction not over\");\n        require(bidInfo.seller == msg.sender,\"Not auction id seller\");\n        //bidder has already reverse\n        if(bidInfo.auctionStatus == 1){\n            //sende coin to bidder\n            transferMain(bidInfo.bidder, bidInfo.bidPrice);\n        }\n        bidInfo.seller = msg.sender;\n        bidInfo.openingBid = _openingBid;\n        bidInfo.bidPrice = _openingBid;\n        bidInfo.fixedPrice = _fixedPrice;\n        bidInfo.bidder = address(0);        \n        uint256 t = block.timestamp;\n        bidInfo.startTime = t;\n        //1 day later\n        bidInfo.expirationTime = t.add(limitTime);\n        bidInfo.auctionStatus = 0;\n        bidInfo.bidCount = 0;\n        // remove bidder's auctionId\n        _removeMyAuction(bidInfo.bidder, _auctionId);\n        emit ReAuction(_auctionId, bidInfo.token, bidInfo.tokenId, msg.sender, _openingBid, _fixedPrice, t);\n    }\n\n    function bid(uint256 _auctionId) payable public{\n        BidInfo storage bidInfo = bidInfos[_auctionId];\n        require(bidInfo.auctionStatus == 0, \"Not on auction\");\n        require(msg.sender != bidInfo.seller, \"Seller can not bid\");\n        uint256 nowBidPrice = bidInfo.bidPrice;\n        require(msg.value > nowBidPrice, \"Value error\");\n        //now time > expiration time then auction over\n        require(block.timestamp <= bidInfo.expirationTime, \"Auction over\");\n        //update price\n        bidInfo.bidPrice = nowBidPrice;\n        // expiration time - (startTime + 1day) => update expiration\n        if(bidInfo.expirationTime.sub(block.timestamp) <= extendTime){\n            bidInfo.expirationTime = block.timestamp.add(extendTime);\n        }\n        // add bidder auction id and remove seller auction id\n        _removeMyAuction(bidInfo.bidder, _auctionId);\n        _addMyAuction(msg.sender,_auctionId);\n        //reset bidder\n        bidInfo.bidder = msg.sender;\n        //add bid count\n        bidInfo.auctionStatus = 1;\n        bidInfo.bidCount = bidInfo.bidCount.add(1);\n        emit Bid(_auctionId, msg.sender, nowBidPrice, bidInfo.bidCount, 1);\n    }\n    \n    function getCurrentPrice(uint256 _auctionId) view public returns(uint256 _nowBidPrice){\n        BidInfo memory bidInfo = bidInfos[_auctionId];\n        return bidInfo.bidPrice;\n    }\n    \n    function cancel(uint256 _auctionId) public{\n        BidInfo storage bidInfo = bidInfos[_auctionId];\n        require(block.timestamp > bidInfo.expirationTime, \"Auction not over\");\n        require(bidInfo.seller == msg.sender,\"Not auction id seller\");\n        require(bidInfo.auctionStatus == 0,\"Has bid\");\n        IERC721 ierc721 = IERC721(bidInfo.token);\n        ierc721.safeTransferFrom(address(this),msg.sender, bidInfo.tokenId);\n        emit Cancel(_auctionId, bidInfo.seller, bidInfo.token, bidInfo.tokenId);\n    }\n\n    //seller executor\n    function sellingSettlementPrice(uint256 _auctionId) public{\n        BidInfo storage bidInfo = bidInfos[_auctionId];\n        require(bidInfo.auctionStatus == 1, \"Not on bid\");\n        require(msg.sender == bidInfo.seller, \"Not seller\");\n        bidInfo.auctionStatus = 3;\n        uint256 amount = bidInfo.bidPrice;\n        //721 transfer current bidder , get bidder price\n        IERC721 ierc721 = IERC721(bidInfo.token);\n        ierc721.safeTransferFrom(address(this), bidInfo.bidder, bidInfo.tokenId);\n        //fee to platform\n        uint256 _fee = amount.mul(feePercent).div(basePercent);\n        uint256 _artistFee = 0; \n        transferMain(platform,_fee);\n        //artist share in the benefit \n        if(address(artGee) == bidInfo.token){\n            (uint256 artId,,)=artGee.tokenArts(bidInfo.tokenId);\n            (,,,address creator,\n                address[] memory assistants,\n                uint256[] memory benefits,)=artGee.getSourceDigitalArt(artId);\n            bool isNotFirst = isNotFirstAuction[bidInfo.tokenId];\n            //first time 20% to artist,other time 10% \n            _artistFee = amount.mul(isNotFirst ? artPercent[1]:artPercent[0]).div(basePercent);\n            if(assistants.length == 0){\n                //send to creator\n                transferMain(creator,_artistFee);\n            }else{\n                //send to creator and other assistant\n                for (uint256 index = 0; index < benefits.length; index++) {\n                    if(index==0){\n                        // to creator\n                        transferMain(creator,_artistFee.mul(benefits[index]).div(basePercent));\n                    }else{\n                        // to assistants\n                        transferMain(assistants[index-1],_artistFee.mul(benefits[index]).div(basePercent));\n                    }\n                }\n            }\n            isNotFirstAuction[bidInfo.tokenId] = true;\n        }\n        // to seller\n        transferMain(bidInfo.seller, amount.sub(_fee).sub(_artistFee));\n        emit Selling(_auctionId,bidInfo.bidder,amount.sub(_fee).sub(_artistFee));\n    }\n\n    //bidder execute\n    function bidderReverse(uint256 _auctionId) public{\n        BidInfo storage bidInfo = bidInfos[_auctionId];\n        require(bidInfo.auctionStatus == 1, \"Reverse not on bid\");\n        // if bidder wanner his coin, current time must over than `reverseTime`\n        require(bidInfo.expirationTime.add(reverseTime) <= block.timestamp, \"Not on auction\");\n        require(msg.sender == bidInfo.bidder, \"Not bidder\");\n        //coin send to bidder\n        transferMain(msg.sender, bidInfo.bidPrice);\n        bidInfo.auctionStatus = 2;\n        emit Reverse(_auctionId, bidInfo.bidder, bidInfo.bidPrice,2);\n    }\n\n    //auction success bidder execute\n    function fixedWithdraw(uint256 _auctionId) payable public{\n        BidInfo storage bidInfo = bidInfos[_auctionId];\n        require(bidInfo.auctionStatus == 1 || bidInfo.auctionStatus == 0, \"Withdraw not on bid or on sell\");\n        require(bidInfo.expirationTime <= block.timestamp, \"Not on auction\");\n        require(bidInfo.fixedPrice == msg.value,\"Not fiexed price\");\n        uint256 amount = bidInfo.fixedPrice;\n        bidInfo.auctionStatus = 4;\n        //721 transfer current bidder , get bidder price\n        IERC721 ierc721 = IERC721(bidInfo.token);\n        ierc721.safeTransferFrom(address(this), bidInfo.bidder, bidInfo.tokenId);\n        //fee to platform\n        uint256 _fee = amount.mul(feePercent).div(basePercent);\n        uint256 _artistFee = 0; \n        transferMain(platform,_fee);\n        //artist share in the benefit \n        if(address(artGee) == bidInfo.token){\n            (uint256 artId,,)=artGee.tokenArts(bidInfo.tokenId);\n            (,,,address creator,\n                address[] memory assistants,\n                uint256[] memory benefits,)=artGee.getSourceDigitalArt(artId);\n            bool isNotFirst = isNotFirstAuction[bidInfo.tokenId];\n            //first time 20% to artist,other time 10% \n            _artistFee = amount.mul(isNotFirst ? artPercent[1]:artPercent[0]).div(basePercent);\n            if(assistants.length == 0){\n                //send to creator\n                transferMain(creator,_artistFee);\n            }else{\n                //send to creator and other assistant\n                for (uint256 index = 0; index < benefits.length; index++) {\n                    if(index==0){\n                        // to creator\n                        transferMain(creator,_artistFee.mul(benefits[index]).div(basePercent));\n                    }else{\n                        // to assistants\n                        transferMain(assistants[index-1],_artistFee.mul(benefits[index]).div(basePercent));\n                    }\n                }\n            }\n            isNotFirstAuction[bidInfo.tokenId] = true;\n        }\n        // to seller\n        transferMain(bidInfo.seller, amount.sub(_fee).sub(_artistFee));\n        emit Fixed(_auctionId,bidInfo.bidder,amount.sub(_fee).sub(_artistFee));\n    }\n\n    function _addMyAuction(address _owner,uint256 _auctionId) internal{\n        myBidInfoIndex[_owner][_auctionId] = myBidInfos[_owner].length;\n        myBidInfos[_owner].push(_auctionId);\n    }\n\n    function _removeMyAuction(address _owner, uint256 _auctionId) internal{\n        uint256 lastIndex = myBidInfos[_owner].length.sub(1);\n        uint256 currentIndex = myBidInfoIndex[_owner][_auctionId];\n        if(lastIndex != currentIndex){\n            uint256 lastAuctionId = myBidInfos[_owner][lastIndex];\n            myBidInfos[_owner][currentIndex] = lastAuctionId;\n            myBidInfoIndex[_owner][lastAuctionId] = currentIndex;\n        }\n        myBidInfos[_owner].pop();\n    }\n\n    function transferMain(address _address, uint256 _value) internal{\n        (bool res, ) = address(uint160(_address)).call{value:_value}(\"\");\n        require(res,\"TRANSFER ETH ERROR\");\n    }\n\n    /**\n     * @dev See {IERC721Receiver-onERC721Received}.\n     *\n     * Always returns `IERC721Receiver.onERC721Received.selector`.\n     */\n    function onERC721Received(address, address, uint256, bytes memory) public pure returns (bytes4) {\n        return this.onERC721Received.selector;\n    }\n\n    receive () external payable {}\n}",
  "sourcePath": "/Users/wangban/Downloads/money/coin/other/artgee/ArtGee-Contract/contracts/FixedAuction.sol",
  "compiler": {
    "name": "solc",
    "version": "0.6.12+commit.27d51765.Emscripten.clang"
  },
  "schemaVersion": "3.3.2",
  "updatedAt": "2021-04-15T13:33:38.436Z",
  "devdoc": {
    "author": "yzbbanban",
    "kind": "dev",
    "methods": {
      "onERC721Received(address,address,uint256,bytes)": {
        "details": "See {IERC721Receiver-onERC721Received}. Always returns `IERC721Receiver.onERC721Received.selector`."
      },
      "owner()": {
        "details": "Returns the address of the current owner."
      },
      "renounceOwnership()": {
        "details": "Leaves the contract without owner. It will not be possible to call `onlyOwner` functions anymore. Can only be called by the current owner. NOTE: Renouncing ownership will leave the contract without an owner, thereby removing any functionality that is only available to the owner."
      },
      "transferOwnership(address)": {
        "details": "Transfers ownership of the contract to a new account (`newOwner`). Can only be called by the current owner."
      }
    },
    "title": "fixed auction",
    "version": 1
  },
  "userdoc": {
    "kind": "user",
    "methods": {},
    "notice": "buy token",
    "version": 1
  }
}